
test_uart_ld3_nucleo.elf:     file format elf32-littlearm

Sections:
Idx Name          Size      VMA       LMA       File off  Algn
  0 .isr_vector   000000c0  08000000  08000000  00010000  2**0
                  CONTENTS, ALLOC, LOAD, READONLY, DATA
  1 .text         00001eb8  080000c0  080000c0  000100c0  2**2
                  CONTENTS, ALLOC, LOAD, READONLY, CODE
  2 .rodata       00000038  08001f78  08001f78  00011f78  2**2
                  CONTENTS, ALLOC, LOAD, READONLY, DATA
  3 .ARM.extab    00000000  08001fb0  08001fb0  0002000c  2**0
                  CONTENTS
  4 .ARM          00000000  08001fb0  08001fb0  0002000c  2**0
                  CONTENTS
  5 .preinit_array 00000000  08001fb0  08001fb0  0002000c  2**0
                  CONTENTS, ALLOC, LOAD, DATA
  6 .init_array   00000004  08001fb0  08001fb0  00011fb0  2**2
                  CONTENTS, ALLOC, LOAD, DATA
  7 .fini_array   00000004  08001fb4  08001fb4  00011fb4  2**2
                  CONTENTS, ALLOC, LOAD, DATA
  8 .data         0000000c  20000000  08001fb8  00020000  2**2
                  CONTENTS, ALLOC, LOAD, DATA
  9 .bss          000000a4  2000000c  08001fc4  0002000c  2**2
                  ALLOC
 10 ._user_heap_stack 00000600  200000b0  08001fc4  000200b0  2**0
                  ALLOC
 11 .ARM.attributes 00000028  00000000  00000000  0002000c  2**0
                  CONTENTS, READONLY
 12 .debug_info   00005a76  00000000  00000000  00020034  2**0
                  CONTENTS, READONLY, DEBUGGING
 13 .debug_abbrev 00001204  00000000  00000000  00025aaa  2**0
                  CONTENTS, READONLY, DEBUGGING
 14 .debug_aranges 00000608  00000000  00000000  00026cb0  2**3
                  CONTENTS, READONLY, DEBUGGING
 15 .debug_ranges 00000590  00000000  00000000  000272b8  2**3
                  CONTENTS, READONLY, DEBUGGING
 16 .debug_macro  00017893  00000000  00000000  00027848  2**0
                  CONTENTS, READONLY, DEBUGGING
 17 .debug_line   00005ad2  00000000  00000000  0003f0db  2**0
                  CONTENTS, READONLY, DEBUGGING
 18 .debug_str    00087ad1  00000000  00000000  00044bad  2**0
                  CONTENTS, READONLY, DEBUGGING
 19 .comment      0000007b  00000000  00000000  000cc67e  2**0
                  CONTENTS, READONLY
 20 .debug_frame  00001428  00000000  00000000  000cc6fc  2**2
                  CONTENTS, READONLY, DEBUGGING

Disassembly of section .text:

080000c0 <__do_global_dtors_aux>:
 80000c0:	b510      	push	{r4, lr}
 80000c2:	4c06      	ldr	r4, [pc, #24]	; (80000dc <__do_global_dtors_aux+0x1c>)
 80000c4:	7823      	ldrb	r3, [r4, #0]
 80000c6:	2b00      	cmp	r3, #0
 80000c8:	d107      	bne.n	80000da <__do_global_dtors_aux+0x1a>
 80000ca:	4b05      	ldr	r3, [pc, #20]	; (80000e0 <__do_global_dtors_aux+0x20>)
 80000cc:	2b00      	cmp	r3, #0
 80000ce:	d002      	beq.n	80000d6 <__do_global_dtors_aux+0x16>
 80000d0:	4804      	ldr	r0, [pc, #16]	; (80000e4 <__do_global_dtors_aux+0x24>)
 80000d2:	e000      	b.n	80000d6 <__do_global_dtors_aux+0x16>
 80000d4:	bf00      	nop
 80000d6:	2301      	movs	r3, #1
 80000d8:	7023      	strb	r3, [r4, #0]
 80000da:	bd10      	pop	{r4, pc}
 80000dc:	2000000c 	.word	0x2000000c
 80000e0:	00000000 	.word	0x00000000
 80000e4:	08001f60 	.word	0x08001f60

080000e8 <frame_dummy>:
 80000e8:	4b04      	ldr	r3, [pc, #16]	; (80000fc <frame_dummy+0x14>)
 80000ea:	b510      	push	{r4, lr}
 80000ec:	2b00      	cmp	r3, #0
 80000ee:	d003      	beq.n	80000f8 <frame_dummy+0x10>
 80000f0:	4903      	ldr	r1, [pc, #12]	; (8000100 <frame_dummy+0x18>)
 80000f2:	4804      	ldr	r0, [pc, #16]	; (8000104 <frame_dummy+0x1c>)
 80000f4:	e000      	b.n	80000f8 <frame_dummy+0x10>
 80000f6:	bf00      	nop
 80000f8:	bd10      	pop	{r4, pc}
 80000fa:	46c0      	nop			; (mov r8, r8)
 80000fc:	00000000 	.word	0x00000000
 8000100:	20000010 	.word	0x20000010
 8000104:	08001f60 	.word	0x08001f60

08000108 <__udivsi3>:
 8000108:	2200      	movs	r2, #0
 800010a:	0843      	lsrs	r3, r0, #1
 800010c:	428b      	cmp	r3, r1
 800010e:	d374      	bcc.n	80001fa <__udivsi3+0xf2>
 8000110:	0903      	lsrs	r3, r0, #4
 8000112:	428b      	cmp	r3, r1
 8000114:	d35f      	bcc.n	80001d6 <__udivsi3+0xce>
 8000116:	0a03      	lsrs	r3, r0, #8
 8000118:	428b      	cmp	r3, r1
 800011a:	d344      	bcc.n	80001a6 <__udivsi3+0x9e>
 800011c:	0b03      	lsrs	r3, r0, #12
 800011e:	428b      	cmp	r3, r1
 8000120:	d328      	bcc.n	8000174 <__udivsi3+0x6c>
 8000122:	0c03      	lsrs	r3, r0, #16
 8000124:	428b      	cmp	r3, r1
 8000126:	d30d      	bcc.n	8000144 <__udivsi3+0x3c>
 8000128:	22ff      	movs	r2, #255	; 0xff
 800012a:	0209      	lsls	r1, r1, #8
 800012c:	ba12      	rev	r2, r2
 800012e:	0c03      	lsrs	r3, r0, #16
 8000130:	428b      	cmp	r3, r1
 8000132:	d302      	bcc.n	800013a <__udivsi3+0x32>
 8000134:	1212      	asrs	r2, r2, #8
 8000136:	0209      	lsls	r1, r1, #8
 8000138:	d065      	beq.n	8000206 <__udivsi3+0xfe>
 800013a:	0b03      	lsrs	r3, r0, #12
 800013c:	428b      	cmp	r3, r1
 800013e:	d319      	bcc.n	8000174 <__udivsi3+0x6c>
 8000140:	e000      	b.n	8000144 <__udivsi3+0x3c>
 8000142:	0a09      	lsrs	r1, r1, #8
 8000144:	0bc3      	lsrs	r3, r0, #15
 8000146:	428b      	cmp	r3, r1
 8000148:	d301      	bcc.n	800014e <__udivsi3+0x46>
 800014a:	03cb      	lsls	r3, r1, #15
 800014c:	1ac0      	subs	r0, r0, r3
 800014e:	4152      	adcs	r2, r2
 8000150:	0b83      	lsrs	r3, r0, #14
 8000152:	428b      	cmp	r3, r1
 8000154:	d301      	bcc.n	800015a <__udivsi3+0x52>
 8000156:	038b      	lsls	r3, r1, #14
 8000158:	1ac0      	subs	r0, r0, r3
 800015a:	4152      	adcs	r2, r2
 800015c:	0b43      	lsrs	r3, r0, #13
 800015e:	428b      	cmp	r3, r1
 8000160:	d301      	bcc.n	8000166 <__udivsi3+0x5e>
 8000162:	034b      	lsls	r3, r1, #13
 8000164:	1ac0      	subs	r0, r0, r3
 8000166:	4152      	adcs	r2, r2
 8000168:	0b03      	lsrs	r3, r0, #12
 800016a:	428b      	cmp	r3, r1
 800016c:	d301      	bcc.n	8000172 <__udivsi3+0x6a>
 800016e:	030b      	lsls	r3, r1, #12
 8000170:	1ac0      	subs	r0, r0, r3
 8000172:	4152      	adcs	r2, r2
 8000174:	0ac3      	lsrs	r3, r0, #11
 8000176:	428b      	cmp	r3, r1
 8000178:	d301      	bcc.n	800017e <__udivsi3+0x76>
 800017a:	02cb      	lsls	r3, r1, #11
 800017c:	1ac0      	subs	r0, r0, r3
 800017e:	4152      	adcs	r2, r2
 8000180:	0a83      	lsrs	r3, r0, #10
 8000182:	428b      	cmp	r3, r1
 8000184:	d301      	bcc.n	800018a <__udivsi3+0x82>
 8000186:	028b      	lsls	r3, r1, #10
 8000188:	1ac0      	subs	r0, r0, r3
 800018a:	4152      	adcs	r2, r2
 800018c:	0a43      	lsrs	r3, r0, #9
 800018e:	428b      	cmp	r3, r1
 8000190:	d301      	bcc.n	8000196 <__udivsi3+0x8e>
 8000192:	024b      	lsls	r3, r1, #9
 8000194:	1ac0      	subs	r0, r0, r3
 8000196:	4152      	adcs	r2, r2
 8000198:	0a03      	lsrs	r3, r0, #8
 800019a:	428b      	cmp	r3, r1
 800019c:	d301      	bcc.n	80001a2 <__udivsi3+0x9a>
 800019e:	020b      	lsls	r3, r1, #8
 80001a0:	1ac0      	subs	r0, r0, r3
 80001a2:	4152      	adcs	r2, r2
 80001a4:	d2cd      	bcs.n	8000142 <__udivsi3+0x3a>
 80001a6:	09c3      	lsrs	r3, r0, #7
 80001a8:	428b      	cmp	r3, r1
 80001aa:	d301      	bcc.n	80001b0 <__udivsi3+0xa8>
 80001ac:	01cb      	lsls	r3, r1, #7
 80001ae:	1ac0      	subs	r0, r0, r3
 80001b0:	4152      	adcs	r2, r2
 80001b2:	0983      	lsrs	r3, r0, #6
 80001b4:	428b      	cmp	r3, r1
 80001b6:	d301      	bcc.n	80001bc <__udivsi3+0xb4>
 80001b8:	018b      	lsls	r3, r1, #6
 80001ba:	1ac0      	subs	r0, r0, r3
 80001bc:	4152      	adcs	r2, r2
 80001be:	0943      	lsrs	r3, r0, #5
 80001c0:	428b      	cmp	r3, r1
 80001c2:	d301      	bcc.n	80001c8 <__udivsi3+0xc0>
 80001c4:	014b      	lsls	r3, r1, #5
 80001c6:	1ac0      	subs	r0, r0, r3
 80001c8:	4152      	adcs	r2, r2
 80001ca:	0903      	lsrs	r3, r0, #4
 80001cc:	428b      	cmp	r3, r1
 80001ce:	d301      	bcc.n	80001d4 <__udivsi3+0xcc>
 80001d0:	010b      	lsls	r3, r1, #4
 80001d2:	1ac0      	subs	r0, r0, r3
 80001d4:	4152      	adcs	r2, r2
 80001d6:	08c3      	lsrs	r3, r0, #3
 80001d8:	428b      	cmp	r3, r1
 80001da:	d301      	bcc.n	80001e0 <__udivsi3+0xd8>
 80001dc:	00cb      	lsls	r3, r1, #3
 80001de:	1ac0      	subs	r0, r0, r3
 80001e0:	4152      	adcs	r2, r2
 80001e2:	0883      	lsrs	r3, r0, #2
 80001e4:	428b      	cmp	r3, r1
 80001e6:	d301      	bcc.n	80001ec <__udivsi3+0xe4>
 80001e8:	008b      	lsls	r3, r1, #2
 80001ea:	1ac0      	subs	r0, r0, r3
 80001ec:	4152      	adcs	r2, r2
 80001ee:	0843      	lsrs	r3, r0, #1
 80001f0:	428b      	cmp	r3, r1
 80001f2:	d301      	bcc.n	80001f8 <__udivsi3+0xf0>
 80001f4:	004b      	lsls	r3, r1, #1
 80001f6:	1ac0      	subs	r0, r0, r3
 80001f8:	4152      	adcs	r2, r2
 80001fa:	1a41      	subs	r1, r0, r1
 80001fc:	d200      	bcs.n	8000200 <__udivsi3+0xf8>
 80001fe:	4601      	mov	r1, r0
 8000200:	4152      	adcs	r2, r2
 8000202:	4610      	mov	r0, r2
 8000204:	4770      	bx	lr
 8000206:	e7ff      	b.n	8000208 <__udivsi3+0x100>
 8000208:	b501      	push	{r0, lr}
 800020a:	2000      	movs	r0, #0
 800020c:	f000 f806 	bl	800021c <__aeabi_idiv0>
 8000210:	bd02      	pop	{r1, pc}
 8000212:	46c0      	nop			; (mov r8, r8)

08000214 <__aeabi_uidivmod>:
 8000214:	2900      	cmp	r1, #0
 8000216:	d0f7      	beq.n	8000208 <__udivsi3+0x100>
 8000218:	e776      	b.n	8000108 <__udivsi3>
 800021a:	4770      	bx	lr

0800021c <__aeabi_idiv0>:
 800021c:	4770      	bx	lr
 800021e:	46c0      	nop			; (mov r8, r8)

08000220 <main>:
/**
  * @brief  The application entry point.
  * @retval int
  */
int main(void)
{
 8000220:	b580      	push	{r7, lr}
 8000222:	b082      	sub	sp, #8
 8000224:	af00      	add	r7, sp, #0
  /* USER CODE END 1 */

  /* MCU Configuration--------------------------------------------------------*/

  /* Reset of all peripherals, Initializes the Flash interface and the Systick. */
  HAL_Init();
 8000226:	f000 f9cd 	bl	80005c4 <HAL_Init>
  /* USER CODE BEGIN Init */

  /* USER CODE END Init */

  /* Configure the system clock */
  SystemClock_Config();
 800022a:	f000 f819 	bl	8000260 <SystemClock_Config>
  /* USER CODE BEGIN SysInit */

  /* USER CODE END SysInit */

  /* Initialize all configured peripherals */
  MX_GPIO_Init();
 800022e:	f000 f89f 	bl	8000370 <MX_GPIO_Init>
  MX_USART1_UART_Init();
 8000232:	f000 f86d 	bl	8000310 <MX_USART1_UART_Init>
//https://electronics.stackexchange.com/questions/187849/comparison-between-uint8-t-and-string

    	  	      uint8_t activate[5];


    	  	  	  if (HAL_UART_Receive(&huart1,(uint8_t*)activate,5,10000) == HAL_OK) //
 8000236:	4b07      	ldr	r3, [pc, #28]	; (8000254 <main+0x34>)
 8000238:	0039      	movs	r1, r7
 800023a:	4807      	ldr	r0, [pc, #28]	; (8000258 <main+0x38>)
 800023c:	2205      	movs	r2, #5
 800023e:	f001 fab9 	bl	80017b4 <HAL_UART_Receive>
 8000242:	1e03      	subs	r3, r0, #0
 8000244:	d1f7      	bne.n	8000236 <main+0x16>
    	  	  	  {
    	  	  		  HAL_GPIO_TogglePin(LED_GPIO_Port, LED_Pin);
 8000246:	4b05      	ldr	r3, [pc, #20]	; (800025c <main+0x3c>)
 8000248:	2108      	movs	r1, #8
 800024a:	0018      	movs	r0, r3
 800024c:	f000 fc57 	bl	8000afe <HAL_GPIO_TogglePin>
      {
 8000250:	e7f1      	b.n	8000236 <main+0x16>
 8000252:	46c0      	nop			; (mov r8, r8)
 8000254:	00002710 	.word	0x00002710
 8000258:	20000028 	.word	0x20000028
 800025c:	48000400 	.word	0x48000400

08000260 <SystemClock_Config>:
/**
  * @brief System Clock Configuration
  * @retval None
  */
void SystemClock_Config(void)
{
 8000260:	b590      	push	{r4, r7, lr}
 8000262:	b099      	sub	sp, #100	; 0x64
 8000264:	af00      	add	r7, sp, #0
  RCC_OscInitTypeDef RCC_OscInitStruct = {0};
 8000266:	242c      	movs	r4, #44	; 0x2c
 8000268:	193b      	adds	r3, r7, r4
 800026a:	0018      	movs	r0, r3
 800026c:	2334      	movs	r3, #52	; 0x34
 800026e:	001a      	movs	r2, r3
 8000270:	2100      	movs	r1, #0
 8000272:	f001 fe6d 	bl	8001f50 <memset>
  RCC_ClkInitTypeDef RCC_ClkInitStruct = {0};
 8000276:	231c      	movs	r3, #28
 8000278:	18fb      	adds	r3, r7, r3
 800027a:	0018      	movs	r0, r3
 800027c:	2310      	movs	r3, #16
 800027e:	001a      	movs	r2, r3
 8000280:	2100      	movs	r1, #0
 8000282:	f001 fe65 	bl	8001f50 <memset>
  RCC_PeriphCLKInitTypeDef PeriphClkInit = {0};
 8000286:	1d3b      	adds	r3, r7, #4
 8000288:	0018      	movs	r0, r3
 800028a:	2318      	movs	r3, #24
 800028c:	001a      	movs	r2, r3
 800028e:	2100      	movs	r1, #0
 8000290:	f001 fe5e 	bl	8001f50 <memset>

  /** Initializes the RCC Oscillators according to the specified parameters
  * in the RCC_OscInitTypeDef structure.
  */
  RCC_OscInitStruct.OscillatorType = RCC_OSCILLATORTYPE_HSI;
 8000294:	0021      	movs	r1, r4
 8000296:	187b      	adds	r3, r7, r1
 8000298:	2202      	movs	r2, #2
 800029a:	601a      	str	r2, [r3, #0]
  RCC_OscInitStruct.HSIState = RCC_HSI_ON;
 800029c:	187b      	adds	r3, r7, r1
 800029e:	2201      	movs	r2, #1
 80002a0:	60da      	str	r2, [r3, #12]
  RCC_OscInitStruct.HSICalibrationValue = RCC_HSICALIBRATION_DEFAULT;
 80002a2:	187b      	adds	r3, r7, r1
 80002a4:	2210      	movs	r2, #16
 80002a6:	611a      	str	r2, [r3, #16]
  RCC_OscInitStruct.PLL.PLLState = RCC_PLL_NONE;
 80002a8:	187b      	adds	r3, r7, r1
 80002aa:	2200      	movs	r2, #0
 80002ac:	625a      	str	r2, [r3, #36]	; 0x24
  if (HAL_RCC_OscConfig(&RCC_OscInitStruct) != HAL_OK)
 80002ae:	187b      	adds	r3, r7, r1
 80002b0:	0018      	movs	r0, r3
 80002b2:	f000 fc3f 	bl	8000b34 <HAL_RCC_OscConfig>
 80002b6:	1e03      	subs	r3, r0, #0
 80002b8:	d001      	beq.n	80002be <SystemClock_Config+0x5e>
  {
    Error_Handler();
 80002ba:	f000 f8af 	bl	800041c <Error_Handler>
  }
  /** Initializes the CPU, AHB and APB buses clocks
  */
  RCC_ClkInitStruct.ClockType = RCC_CLOCKTYPE_HCLK|RCC_CLOCKTYPE_SYSCLK
 80002be:	211c      	movs	r1, #28
 80002c0:	187b      	adds	r3, r7, r1
 80002c2:	2207      	movs	r2, #7
 80002c4:	601a      	str	r2, [r3, #0]
                              |RCC_CLOCKTYPE_PCLK1;
  RCC_ClkInitStruct.SYSCLKSource = RCC_SYSCLKSOURCE_HSI;
 80002c6:	187b      	adds	r3, r7, r1
 80002c8:	2200      	movs	r2, #0
 80002ca:	605a      	str	r2, [r3, #4]
  RCC_ClkInitStruct.AHBCLKDivider = RCC_SYSCLK_DIV1;
 80002cc:	187b      	adds	r3, r7, r1
 80002ce:	2200      	movs	r2, #0
 80002d0:	609a      	str	r2, [r3, #8]
  RCC_ClkInitStruct.APB1CLKDivider = RCC_HCLK_DIV1;
 80002d2:	187b      	adds	r3, r7, r1
 80002d4:	2200      	movs	r2, #0
 80002d6:	60da      	str	r2, [r3, #12]

  if (HAL_RCC_ClockConfig(&RCC_ClkInitStruct, FLASH_LATENCY_0) != HAL_OK)
 80002d8:	187b      	adds	r3, r7, r1
 80002da:	2100      	movs	r1, #0
 80002dc:	0018      	movs	r0, r3
 80002de:	f000 ffaf 	bl	8001240 <HAL_RCC_ClockConfig>
 80002e2:	1e03      	subs	r3, r0, #0
 80002e4:	d001      	beq.n	80002ea <SystemClock_Config+0x8a>
  {
    Error_Handler();
 80002e6:	f000 f899 	bl	800041c <Error_Handler>
  }
  PeriphClkInit.PeriphClockSelection = RCC_PERIPHCLK_USART1;
 80002ea:	1d3b      	adds	r3, r7, #4
 80002ec:	2201      	movs	r2, #1
 80002ee:	601a      	str	r2, [r3, #0]
  PeriphClkInit.Usart1ClockSelection = RCC_USART1CLKSOURCE_PCLK1;
 80002f0:	1d3b      	adds	r3, r7, #4
 80002f2:	2200      	movs	r2, #0
 80002f4:	609a      	str	r2, [r3, #8]
  if (HAL_RCCEx_PeriphCLKConfig(&PeriphClkInit) != HAL_OK)
 80002f6:	1d3b      	adds	r3, r7, #4
 80002f8:	0018      	movs	r0, r3
 80002fa:	f001 f919 	bl	8001530 <HAL_RCCEx_PeriphCLKConfig>
 80002fe:	1e03      	subs	r3, r0, #0
 8000300:	d001      	beq.n	8000306 <SystemClock_Config+0xa6>
  {
    Error_Handler();
 8000302:	f000 f88b 	bl	800041c <Error_Handler>
  }
}
 8000306:	46c0      	nop			; (mov r8, r8)
 8000308:	46bd      	mov	sp, r7
 800030a:	b019      	add	sp, #100	; 0x64
 800030c:	bd90      	pop	{r4, r7, pc}
	...

08000310 <MX_USART1_UART_Init>:
  * @brief USART1 Initialization Function
  * @param None
  * @retval None
  */
static void MX_USART1_UART_Init(void)
{
 8000310:	b580      	push	{r7, lr}
 8000312:	af00      	add	r7, sp, #0
  /* USER CODE END USART1_Init 0 */

  /* USER CODE BEGIN USART1_Init 1 */

  /* USER CODE END USART1_Init 1 */
  huart1.Instance = USART1;
 8000314:	4b14      	ldr	r3, [pc, #80]	; (8000368 <MX_USART1_UART_Init+0x58>)
 8000316:	4a15      	ldr	r2, [pc, #84]	; (800036c <MX_USART1_UART_Init+0x5c>)
 8000318:	601a      	str	r2, [r3, #0]
  huart1.Init.BaudRate = 115200;
 800031a:	4b13      	ldr	r3, [pc, #76]	; (8000368 <MX_USART1_UART_Init+0x58>)
 800031c:	22e1      	movs	r2, #225	; 0xe1
 800031e:	0252      	lsls	r2, r2, #9
 8000320:	605a      	str	r2, [r3, #4]
  huart1.Init.WordLength = UART_WORDLENGTH_8B;
 8000322:	4b11      	ldr	r3, [pc, #68]	; (8000368 <MX_USART1_UART_Init+0x58>)
 8000324:	2200      	movs	r2, #0
 8000326:	609a      	str	r2, [r3, #8]
  huart1.Init.StopBits = UART_STOPBITS_1;
 8000328:	4b0f      	ldr	r3, [pc, #60]	; (8000368 <MX_USART1_UART_Init+0x58>)
 800032a:	2200      	movs	r2, #0
 800032c:	60da      	str	r2, [r3, #12]
  huart1.Init.Parity = UART_PARITY_NONE;
 800032e:	4b0e      	ldr	r3, [pc, #56]	; (8000368 <MX_USART1_UART_Init+0x58>)
 8000330:	2200      	movs	r2, #0
 8000332:	611a      	str	r2, [r3, #16]
  huart1.Init.Mode = UART_MODE_TX_RX;
 8000334:	4b0c      	ldr	r3, [pc, #48]	; (8000368 <MX_USART1_UART_Init+0x58>)
 8000336:	220c      	movs	r2, #12
 8000338:	615a      	str	r2, [r3, #20]
  huart1.Init.HwFlowCtl = UART_HWCONTROL_NONE;
 800033a:	4b0b      	ldr	r3, [pc, #44]	; (8000368 <MX_USART1_UART_Init+0x58>)
 800033c:	2200      	movs	r2, #0
 800033e:	619a      	str	r2, [r3, #24]
  huart1.Init.OverSampling = UART_OVERSAMPLING_16;
 8000340:	4b09      	ldr	r3, [pc, #36]	; (8000368 <MX_USART1_UART_Init+0x58>)
 8000342:	2200      	movs	r2, #0
 8000344:	61da      	str	r2, [r3, #28]
  huart1.Init.OneBitSampling = UART_ONE_BIT_SAMPLE_DISABLE;
 8000346:	4b08      	ldr	r3, [pc, #32]	; (8000368 <MX_USART1_UART_Init+0x58>)
 8000348:	2200      	movs	r2, #0
 800034a:	621a      	str	r2, [r3, #32]
  huart1.AdvancedInit.AdvFeatureInit = UART_ADVFEATURE_NO_INIT;
 800034c:	4b06      	ldr	r3, [pc, #24]	; (8000368 <MX_USART1_UART_Init+0x58>)
 800034e:	2200      	movs	r2, #0
 8000350:	625a      	str	r2, [r3, #36]	; 0x24
  if (HAL_UART_Init(&huart1) != HAL_OK)
 8000352:	4b05      	ldr	r3, [pc, #20]	; (8000368 <MX_USART1_UART_Init+0x58>)
 8000354:	0018      	movs	r0, r3
 8000356:	f001 f9d9 	bl	800170c <HAL_UART_Init>
 800035a:	1e03      	subs	r3, r0, #0
 800035c:	d001      	beq.n	8000362 <MX_USART1_UART_Init+0x52>
  {
    Error_Handler();
 800035e:	f000 f85d 	bl	800041c <Error_Handler>
  }
  /* USER CODE BEGIN USART1_Init 2 */

  /* USER CODE END USART1_Init 2 */

}
 8000362:	46c0      	nop			; (mov r8, r8)
 8000364:	46bd      	mov	sp, r7
 8000366:	bd80      	pop	{r7, pc}
 8000368:	20000028 	.word	0x20000028
 800036c:	40013800 	.word	0x40013800

08000370 <MX_GPIO_Init>:
  * @brief GPIO Initialization Function
  * @param None
  * @retval None
  */
static void MX_GPIO_Init(void)
{
 8000370:	b590      	push	{r4, r7, lr}
 8000372:	b089      	sub	sp, #36	; 0x24
 8000374:	af00      	add	r7, sp, #0
  GPIO_InitTypeDef GPIO_InitStruct = {0};
 8000376:	240c      	movs	r4, #12
 8000378:	193b      	adds	r3, r7, r4
 800037a:	0018      	movs	r0, r3
 800037c:	2314      	movs	r3, #20
 800037e:	001a      	movs	r2, r3
 8000380:	2100      	movs	r1, #0
 8000382:	f001 fde5 	bl	8001f50 <memset>

  /* GPIO Ports Clock Enable */
  __HAL_RCC_GPIOF_CLK_ENABLE();
 8000386:	4b23      	ldr	r3, [pc, #140]	; (8000414 <MX_GPIO_Init+0xa4>)
 8000388:	695a      	ldr	r2, [r3, #20]
 800038a:	4b22      	ldr	r3, [pc, #136]	; (8000414 <MX_GPIO_Init+0xa4>)
 800038c:	2180      	movs	r1, #128	; 0x80
 800038e:	03c9      	lsls	r1, r1, #15
 8000390:	430a      	orrs	r2, r1
 8000392:	615a      	str	r2, [r3, #20]
 8000394:	4b1f      	ldr	r3, [pc, #124]	; (8000414 <MX_GPIO_Init+0xa4>)
 8000396:	695a      	ldr	r2, [r3, #20]
 8000398:	2380      	movs	r3, #128	; 0x80
 800039a:	03db      	lsls	r3, r3, #15
 800039c:	4013      	ands	r3, r2
 800039e:	60bb      	str	r3, [r7, #8]
 80003a0:	68bb      	ldr	r3, [r7, #8]
  __HAL_RCC_GPIOA_CLK_ENABLE();
 80003a2:	4b1c      	ldr	r3, [pc, #112]	; (8000414 <MX_GPIO_Init+0xa4>)
 80003a4:	695a      	ldr	r2, [r3, #20]
 80003a6:	4b1b      	ldr	r3, [pc, #108]	; (8000414 <MX_GPIO_Init+0xa4>)
 80003a8:	2180      	movs	r1, #128	; 0x80
 80003aa:	0289      	lsls	r1, r1, #10
 80003ac:	430a      	orrs	r2, r1
 80003ae:	615a      	str	r2, [r3, #20]
 80003b0:	4b18      	ldr	r3, [pc, #96]	; (8000414 <MX_GPIO_Init+0xa4>)
 80003b2:	695a      	ldr	r2, [r3, #20]
 80003b4:	2380      	movs	r3, #128	; 0x80
 80003b6:	029b      	lsls	r3, r3, #10
 80003b8:	4013      	ands	r3, r2
 80003ba:	607b      	str	r3, [r7, #4]
 80003bc:	687b      	ldr	r3, [r7, #4]
  __HAL_RCC_GPIOB_CLK_ENABLE();
 80003be:	4b15      	ldr	r3, [pc, #84]	; (8000414 <MX_GPIO_Init+0xa4>)
 80003c0:	695a      	ldr	r2, [r3, #20]
 80003c2:	4b14      	ldr	r3, [pc, #80]	; (8000414 <MX_GPIO_Init+0xa4>)
 80003c4:	2180      	movs	r1, #128	; 0x80
 80003c6:	02c9      	lsls	r1, r1, #11
 80003c8:	430a      	orrs	r2, r1
 80003ca:	615a      	str	r2, [r3, #20]
 80003cc:	4b11      	ldr	r3, [pc, #68]	; (8000414 <MX_GPIO_Init+0xa4>)
 80003ce:	695a      	ldr	r2, [r3, #20]
 80003d0:	2380      	movs	r3, #128	; 0x80
 80003d2:	02db      	lsls	r3, r3, #11
 80003d4:	4013      	ands	r3, r2
 80003d6:	603b      	str	r3, [r7, #0]
 80003d8:	683b      	ldr	r3, [r7, #0]

  /*Configure GPIO pin Output Level */
  HAL_GPIO_WritePin(LED_GPIO_Port, LED_Pin, GPIO_PIN_RESET);
 80003da:	4b0f      	ldr	r3, [pc, #60]	; (8000418 <MX_GPIO_Init+0xa8>)
 80003dc:	2200      	movs	r2, #0
 80003de:	2108      	movs	r1, #8
 80003e0:	0018      	movs	r0, r3
 80003e2:	f000 fb6f 	bl	8000ac4 <HAL_GPIO_WritePin>

  /*Configure GPIO pin : LED_Pin */
  GPIO_InitStruct.Pin = LED_Pin;
 80003e6:	0021      	movs	r1, r4
 80003e8:	187b      	adds	r3, r7, r1
 80003ea:	2208      	movs	r2, #8
 80003ec:	601a      	str	r2, [r3, #0]
  GPIO_InitStruct.Mode = GPIO_MODE_OUTPUT_PP;
 80003ee:	187b      	adds	r3, r7, r1
 80003f0:	2201      	movs	r2, #1
 80003f2:	605a      	str	r2, [r3, #4]
  GPIO_InitStruct.Pull = GPIO_NOPULL;
 80003f4:	187b      	adds	r3, r7, r1
 80003f6:	2200      	movs	r2, #0
 80003f8:	609a      	str	r2, [r3, #8]
  GPIO_InitStruct.Speed = GPIO_SPEED_FREQ_LOW;
 80003fa:	187b      	adds	r3, r7, r1
 80003fc:	2200      	movs	r2, #0
 80003fe:	60da      	str	r2, [r3, #12]
  HAL_GPIO_Init(LED_GPIO_Port, &GPIO_InitStruct);
 8000400:	187b      	adds	r3, r7, r1
 8000402:	4a05      	ldr	r2, [pc, #20]	; (8000418 <MX_GPIO_Init+0xa8>)
 8000404:	0019      	movs	r1, r3
 8000406:	0010      	movs	r0, r2
 8000408:	f000 f9f4 	bl	80007f4 <HAL_GPIO_Init>

}
 800040c:	46c0      	nop			; (mov r8, r8)
 800040e:	46bd      	mov	sp, r7
 8000410:	b009      	add	sp, #36	; 0x24
 8000412:	bd90      	pop	{r4, r7, pc}
 8000414:	40021000 	.word	0x40021000
 8000418:	48000400 	.word	0x48000400

0800041c <Error_Handler>:
/**
  * @brief  This function is executed in case of error occurrence.
  * @retval None
  */
void Error_Handler(void)
{
 800041c:	b580      	push	{r7, lr}
 800041e:	af00      	add	r7, sp, #0
  \details Disables IRQ interrupts by setting the I-bit in the CPSR.
           Can only be executed in Privileged modes.
 */
__STATIC_FORCEINLINE void __disable_irq(void)
{
  __ASM volatile ("cpsid i" : : : "memory");
 8000420:	b672      	cpsid	i
  /* USER CODE BEGIN Error_Handler_Debug */
  /* User can add his own implementation to report the HAL error return state */
  __disable_irq();
  while (1)
 8000422:	e7fe      	b.n	8000422 <Error_Handler+0x6>

08000424 <HAL_MspInit>:
/* USER CODE END 0 */
/**
  * Initializes the Global MSP.
  */
void HAL_MspInit(void)
{
 8000424:	b580      	push	{r7, lr}
 8000426:	b082      	sub	sp, #8
 8000428:	af00      	add	r7, sp, #0
  /* USER CODE BEGIN MspInit 0 */

  /* USER CODE END MspInit 0 */

  __HAL_RCC_SYSCFG_CLK_ENABLE();
 800042a:	4b0f      	ldr	r3, [pc, #60]	; (8000468 <HAL_MspInit+0x44>)
 800042c:	699a      	ldr	r2, [r3, #24]
 800042e:	4b0e      	ldr	r3, [pc, #56]	; (8000468 <HAL_MspInit+0x44>)
 8000430:	2101      	movs	r1, #1
 8000432:	430a      	orrs	r2, r1
 8000434:	619a      	str	r2, [r3, #24]
 8000436:	4b0c      	ldr	r3, [pc, #48]	; (8000468 <HAL_MspInit+0x44>)
 8000438:	699b      	ldr	r3, [r3, #24]
 800043a:	2201      	movs	r2, #1
 800043c:	4013      	ands	r3, r2
 800043e:	607b      	str	r3, [r7, #4]
 8000440:	687b      	ldr	r3, [r7, #4]
  __HAL_RCC_PWR_CLK_ENABLE();
 8000442:	4b09      	ldr	r3, [pc, #36]	; (8000468 <HAL_MspInit+0x44>)
 8000444:	69da      	ldr	r2, [r3, #28]
 8000446:	4b08      	ldr	r3, [pc, #32]	; (8000468 <HAL_MspInit+0x44>)
 8000448:	2180      	movs	r1, #128	; 0x80
 800044a:	0549      	lsls	r1, r1, #21
 800044c:	430a      	orrs	r2, r1
 800044e:	61da      	str	r2, [r3, #28]
 8000450:	4b05      	ldr	r3, [pc, #20]	; (8000468 <HAL_MspInit+0x44>)
 8000452:	69da      	ldr	r2, [r3, #28]
 8000454:	2380      	movs	r3, #128	; 0x80
 8000456:	055b      	lsls	r3, r3, #21
 8000458:	4013      	ands	r3, r2
 800045a:	603b      	str	r3, [r7, #0]
 800045c:	683b      	ldr	r3, [r7, #0]
  /* System interrupt init*/

  /* USER CODE BEGIN MspInit 1 */

  /* USER CODE END MspInit 1 */
}
 800045e:	46c0      	nop			; (mov r8, r8)
 8000460:	46bd      	mov	sp, r7
 8000462:	b002      	add	sp, #8
 8000464:	bd80      	pop	{r7, pc}
 8000466:	46c0      	nop			; (mov r8, r8)
 8000468:	40021000 	.word	0x40021000

0800046c <HAL_UART_MspInit>:
* This function configures the hardware resources used in this example
* @param huart: UART handle pointer
* @retval None
*/
void HAL_UART_MspInit(UART_HandleTypeDef* huart)
{
 800046c:	b580      	push	{r7, lr}
 800046e:	b08a      	sub	sp, #40	; 0x28
 8000470:	af00      	add	r7, sp, #0
 8000472:	6078      	str	r0, [r7, #4]
  GPIO_InitTypeDef GPIO_InitStruct = {0};
 8000474:	2314      	movs	r3, #20
 8000476:	18fb      	adds	r3, r7, r3
 8000478:	0018      	movs	r0, r3
 800047a:	2314      	movs	r3, #20
 800047c:	001a      	movs	r2, r3
 800047e:	2100      	movs	r1, #0
 8000480:	f001 fd66 	bl	8001f50 <memset>
  if(huart->Instance==USART1)
 8000484:	687b      	ldr	r3, [r7, #4]
 8000486:	681b      	ldr	r3, [r3, #0]
 8000488:	4a1d      	ldr	r2, [pc, #116]	; (8000500 <HAL_UART_MspInit+0x94>)
 800048a:	4293      	cmp	r3, r2
 800048c:	d133      	bne.n	80004f6 <HAL_UART_MspInit+0x8a>
  {
  /* USER CODE BEGIN USART1_MspInit 0 */

  /* USER CODE END USART1_MspInit 0 */
    /* Peripheral clock enable */
    __HAL_RCC_USART1_CLK_ENABLE();
 800048e:	4b1d      	ldr	r3, [pc, #116]	; (8000504 <HAL_UART_MspInit+0x98>)
 8000490:	699a      	ldr	r2, [r3, #24]
 8000492:	4b1c      	ldr	r3, [pc, #112]	; (8000504 <HAL_UART_MspInit+0x98>)
 8000494:	2180      	movs	r1, #128	; 0x80
 8000496:	01c9      	lsls	r1, r1, #7
 8000498:	430a      	orrs	r2, r1
 800049a:	619a      	str	r2, [r3, #24]
 800049c:	4b19      	ldr	r3, [pc, #100]	; (8000504 <HAL_UART_MspInit+0x98>)
 800049e:	699a      	ldr	r2, [r3, #24]
 80004a0:	2380      	movs	r3, #128	; 0x80
 80004a2:	01db      	lsls	r3, r3, #7
 80004a4:	4013      	ands	r3, r2
 80004a6:	613b      	str	r3, [r7, #16]
 80004a8:	693b      	ldr	r3, [r7, #16]

    __HAL_RCC_GPIOA_CLK_ENABLE();
 80004aa:	4b16      	ldr	r3, [pc, #88]	; (8000504 <HAL_UART_MspInit+0x98>)
 80004ac:	695a      	ldr	r2, [r3, #20]
 80004ae:	4b15      	ldr	r3, [pc, #84]	; (8000504 <HAL_UART_MspInit+0x98>)
 80004b0:	2180      	movs	r1, #128	; 0x80
 80004b2:	0289      	lsls	r1, r1, #10
 80004b4:	430a      	orrs	r2, r1
 80004b6:	615a      	str	r2, [r3, #20]
 80004b8:	4b12      	ldr	r3, [pc, #72]	; (8000504 <HAL_UART_MspInit+0x98>)
 80004ba:	695a      	ldr	r2, [r3, #20]
 80004bc:	2380      	movs	r3, #128	; 0x80
 80004be:	029b      	lsls	r3, r3, #10
 80004c0:	4013      	ands	r3, r2
 80004c2:	60fb      	str	r3, [r7, #12]
 80004c4:	68fb      	ldr	r3, [r7, #12]
    /**USART1 GPIO Configuration
    PA9     ------> USART1_TX
    PA10     ------> USART1_RX
    */
    GPIO_InitStruct.Pin = GPIO_PIN_9|GPIO_PIN_10;
 80004c6:	2114      	movs	r1, #20
 80004c8:	187b      	adds	r3, r7, r1
 80004ca:	22c0      	movs	r2, #192	; 0xc0
 80004cc:	00d2      	lsls	r2, r2, #3
 80004ce:	601a      	str	r2, [r3, #0]
    GPIO_InitStruct.Mode = GPIO_MODE_AF_PP;
 80004d0:	187b      	adds	r3, r7, r1
 80004d2:	2202      	movs	r2, #2
 80004d4:	605a      	str	r2, [r3, #4]
    GPIO_InitStruct.Pull = GPIO_NOPULL;
 80004d6:	187b      	adds	r3, r7, r1
 80004d8:	2200      	movs	r2, #0
 80004da:	609a      	str	r2, [r3, #8]
    GPIO_InitStruct.Speed = GPIO_SPEED_FREQ_HIGH;
 80004dc:	187b      	adds	r3, r7, r1
 80004de:	2203      	movs	r2, #3
 80004e0:	60da      	str	r2, [r3, #12]
    GPIO_InitStruct.Alternate = GPIO_AF1_USART1;
 80004e2:	187b      	adds	r3, r7, r1
 80004e4:	2201      	movs	r2, #1
 80004e6:	611a      	str	r2, [r3, #16]
    HAL_GPIO_Init(GPIOA, &GPIO_InitStruct);
 80004e8:	187a      	adds	r2, r7, r1
 80004ea:	2390      	movs	r3, #144	; 0x90
 80004ec:	05db      	lsls	r3, r3, #23
 80004ee:	0011      	movs	r1, r2
 80004f0:	0018      	movs	r0, r3
 80004f2:	f000 f97f 	bl	80007f4 <HAL_GPIO_Init>
  /* USER CODE BEGIN USART1_MspInit 1 */

  /* USER CODE END USART1_MspInit 1 */
  }

}
 80004f6:	46c0      	nop			; (mov r8, r8)
 80004f8:	46bd      	mov	sp, r7
 80004fa:	b00a      	add	sp, #40	; 0x28
 80004fc:	bd80      	pop	{r7, pc}
 80004fe:	46c0      	nop			; (mov r8, r8)
 8000500:	40013800 	.word	0x40013800
 8000504:	40021000 	.word	0x40021000

08000508 <NMI_Handler>:
/******************************************************************************/
/**
  * @brief This function handles Non maskable interrupt.
  */
void NMI_Handler(void)
{
 8000508:	b580      	push	{r7, lr}
 800050a:	af00      	add	r7, sp, #0
  /* USER CODE BEGIN NonMaskableInt_IRQn 0 */

  /* USER CODE END NonMaskableInt_IRQn 0 */
  /* USER CODE BEGIN NonMaskableInt_IRQn 1 */
  while (1)
 800050c:	e7fe      	b.n	800050c <NMI_Handler+0x4>

0800050e <HardFault_Handler>:

/**
  * @brief This function handles Hard fault interrupt.
  */
void HardFault_Handler(void)
{
 800050e:	b580      	push	{r7, lr}
 8000510:	af00      	add	r7, sp, #0
  /* USER CODE BEGIN HardFault_IRQn 0 */

  /* USER CODE END HardFault_IRQn 0 */
  while (1)
 8000512:	e7fe      	b.n	8000512 <HardFault_Handler+0x4>

08000514 <SVC_Handler>:

/**
  * @brief This function handles System service call via SWI instruction.
  */
void SVC_Handler(void)
{
 8000514:	b580      	push	{r7, lr}
 8000516:	af00      	add	r7, sp, #0

  /* USER CODE END SVC_IRQn 0 */
  /* USER CODE BEGIN SVC_IRQn 1 */

  /* USER CODE END SVC_IRQn 1 */
}
 8000518:	46c0      	nop			; (mov r8, r8)
 800051a:	46bd      	mov	sp, r7
 800051c:	bd80      	pop	{r7, pc}

0800051e <PendSV_Handler>:

/**
  * @brief This function handles Pendable request for system service.
  */
void PendSV_Handler(void)
{
 800051e:	b580      	push	{r7, lr}
 8000520:	af00      	add	r7, sp, #0

  /* USER CODE END PendSV_IRQn 0 */
  /* USER CODE BEGIN PendSV_IRQn 1 */

  /* USER CODE END PendSV_IRQn 1 */
}
 8000522:	46c0      	nop			; (mov r8, r8)
 8000524:	46bd      	mov	sp, r7
 8000526:	bd80      	pop	{r7, pc}

08000528 <SysTick_Handler>:

/**
  * @brief This function handles System tick timer.
  */
void SysTick_Handler(void)
{
 8000528:	b580      	push	{r7, lr}
 800052a:	af00      	add	r7, sp, #0
  /* USER CODE BEGIN SysTick_IRQn 0 */

  /* USER CODE END SysTick_IRQn 0 */
  HAL_IncTick();
 800052c:	f000 f892 	bl	8000654 <HAL_IncTick>
  /* USER CODE BEGIN SysTick_IRQn 1 */

  /* USER CODE END SysTick_IRQn 1 */
}
 8000530:	46c0      	nop			; (mov r8, r8)
 8000532:	46bd      	mov	sp, r7
 8000534:	bd80      	pop	{r7, pc}

08000536 <SystemInit>:
  * @brief  Setup the microcontroller system
  * @param  None
  * @retval None
  */
void SystemInit(void)
{
 8000536:	b580      	push	{r7, lr}
 8000538:	af00      	add	r7, sp, #0
                         before branch to main program. This call is made inside
                         the "startup_stm32f0xx.s" file.
                         User can setups the default system clock (System clock source, PLL Multiplier
                         and Divider factors, AHB/APBx prescalers and Flash settings).
   */
}
 800053a:	46c0      	nop			; (mov r8, r8)
 800053c:	46bd      	mov	sp, r7
 800053e:	bd80      	pop	{r7, pc}

08000540 <Reset_Handler>:

  .section .text.Reset_Handler
  .weak Reset_Handler
  .type Reset_Handler, %function
Reset_Handler:
  ldr   r0, =_estack
 8000540:	4813      	ldr	r0, [pc, #76]	; (8000590 <LoopForever+0x2>)
  mov   sp, r0          /* set stack pointer */
 8000542:	4685      	mov	sp, r0

/*Check if boot space corresponds to test memory*/
 
    LDR R0,=0x00000004
 8000544:	4813      	ldr	r0, [pc, #76]	; (8000594 <LoopForever+0x6>)
    LDR R1, [R0]
 8000546:	6801      	ldr	r1, [r0, #0]
    LSRS R1, R1, #24
 8000548:	0e09      	lsrs	r1, r1, #24
    LDR R2,=0x1F
 800054a:	4a13      	ldr	r2, [pc, #76]	; (8000598 <LoopForever+0xa>)
    CMP R1, R2
 800054c:	4291      	cmp	r1, r2
    BNE ApplicationStart
 800054e:	d105      	bne.n	800055c <ApplicationStart>

 /*SYSCFG clock enable*/

    LDR R0,=0x40021018
 8000550:	4812      	ldr	r0, [pc, #72]	; (800059c <LoopForever+0xe>)
    LDR R1,=0x00000001
 8000552:	4913      	ldr	r1, [pc, #76]	; (80005a0 <LoopForever+0x12>)
    STR R1, [R0]
 8000554:	6001      	str	r1, [r0, #0]

/*Set CFGR1 register with flash memory remap at address 0*/
    LDR R0,=0x40010000
 8000556:	4813      	ldr	r0, [pc, #76]	; (80005a4 <LoopForever+0x16>)
    LDR R1,=0x00000000
 8000558:	4913      	ldr	r1, [pc, #76]	; (80005a8 <LoopForever+0x1a>)
    STR R1, [R0]
 800055a:	6001      	str	r1, [r0, #0]

0800055c <ApplicationStart>:

ApplicationStart:
/* Copy the data segment initializers from flash to SRAM */
  ldr r0, =_sdata
 800055c:	4813      	ldr	r0, [pc, #76]	; (80005ac <LoopForever+0x1e>)
  ldr r1, =_edata
 800055e:	4914      	ldr	r1, [pc, #80]	; (80005b0 <LoopForever+0x22>)
  ldr r2, =_sidata
 8000560:	4a14      	ldr	r2, [pc, #80]	; (80005b4 <LoopForever+0x26>)
  movs r3, #0
 8000562:	2300      	movs	r3, #0
  b LoopCopyDataInit
 8000564:	e002      	b.n	800056c <LoopCopyDataInit>

08000566 <CopyDataInit>:

CopyDataInit:
  ldr r4, [r2, r3]
 8000566:	58d4      	ldr	r4, [r2, r3]
  str r4, [r0, r3]
 8000568:	50c4      	str	r4, [r0, r3]
  adds r3, r3, #4
 800056a:	3304      	adds	r3, #4

0800056c <LoopCopyDataInit>:

LoopCopyDataInit:
  adds r4, r0, r3
 800056c:	18c4      	adds	r4, r0, r3
  cmp r4, r1
 800056e:	428c      	cmp	r4, r1
  bcc CopyDataInit
 8000570:	d3f9      	bcc.n	8000566 <CopyDataInit>
  
/* Zero fill the bss segment. */
  ldr r2, =_sbss
 8000572:	4a11      	ldr	r2, [pc, #68]	; (80005b8 <LoopForever+0x2a>)
  ldr r4, =_ebss
 8000574:	4c11      	ldr	r4, [pc, #68]	; (80005bc <LoopForever+0x2e>)
  movs r3, #0
 8000576:	2300      	movs	r3, #0
  b LoopFillZerobss
 8000578:	e001      	b.n	800057e <LoopFillZerobss>

0800057a <FillZerobss>:

FillZerobss:
  str  r3, [r2]
 800057a:	6013      	str	r3, [r2, #0]
  adds r2, r2, #4
 800057c:	3204      	adds	r2, #4

0800057e <LoopFillZerobss>:

LoopFillZerobss:
  cmp r2, r4
 800057e:	42a2      	cmp	r2, r4
  bcc FillZerobss
 8000580:	d3fb      	bcc.n	800057a <FillZerobss>

/* Call the clock system intitialization function.*/
  bl  SystemInit
 8000582:	f7ff ffd8 	bl	8000536 <SystemInit>
/* Call static constructors */
  bl __libc_init_array
 8000586:	f001 fcbf 	bl	8001f08 <__libc_init_array>
/* Call the application's entry point.*/
  bl main
 800058a:	f7ff fe49 	bl	8000220 <main>

0800058e <LoopForever>:

LoopForever:
    b LoopForever
 800058e:	e7fe      	b.n	800058e <LoopForever>
  ldr   r0, =_estack
 8000590:	20001800 	.word	0x20001800
    LDR R0,=0x00000004
 8000594:	00000004 	.word	0x00000004
    LDR R2,=0x1F
 8000598:	0000001f 	.word	0x0000001f
    LDR R0,=0x40021018
 800059c:	40021018 	.word	0x40021018
    LDR R1,=0x00000001
 80005a0:	00000001 	.word	0x00000001
    LDR R0,=0x40010000
 80005a4:	40010000 	.word	0x40010000
    LDR R1,=0x00000000
 80005a8:	00000000 	.word	0x00000000
  ldr r0, =_sdata
 80005ac:	20000000 	.word	0x20000000
  ldr r1, =_edata
 80005b0:	2000000c 	.word	0x2000000c
  ldr r2, =_sidata
 80005b4:	08001fb8 	.word	0x08001fb8
  ldr r2, =_sbss
 80005b8:	2000000c 	.word	0x2000000c
  ldr r4, =_ebss
 80005bc:	200000b0 	.word	0x200000b0

080005c0 <ADC1_IRQHandler>:
 * @retval : None
*/
    .section .text.Default_Handler,"ax",%progbits
Default_Handler:
Infinite_Loop:
  b Infinite_Loop
 80005c0:	e7fe      	b.n	80005c0 <ADC1_IRQHandler>
	...

080005c4 <HAL_Init>:
  *       In the default implementation,Systick is used as source of time base.
  *       The tick variable is incremented each 1ms in its ISR.
  * @retval HAL status
  */
HAL_StatusTypeDef HAL_Init(void)
{
 80005c4:	b580      	push	{r7, lr}
 80005c6:	af00      	add	r7, sp, #0
  /* Configure Flash prefetch */ 
#if (PREFETCH_ENABLE != 0)
  __HAL_FLASH_PREFETCH_BUFFER_ENABLE();
 80005c8:	4b07      	ldr	r3, [pc, #28]	; (80005e8 <HAL_Init+0x24>)
 80005ca:	681a      	ldr	r2, [r3, #0]
 80005cc:	4b06      	ldr	r3, [pc, #24]	; (80005e8 <HAL_Init+0x24>)
 80005ce:	2110      	movs	r1, #16
 80005d0:	430a      	orrs	r2, r1
 80005d2:	601a      	str	r2, [r3, #0]
#endif /* PREFETCH_ENABLE */

  /* Use systick as time base source and configure 1ms tick (default clock after Reset is HSI) */

  HAL_InitTick(TICK_INT_PRIORITY);
 80005d4:	2000      	movs	r0, #0
 80005d6:	f000 f809 	bl	80005ec <HAL_InitTick>

  /* Init the low level hardware */
  HAL_MspInit();
 80005da:	f7ff ff23 	bl	8000424 <HAL_MspInit>

  /* Return function status */
  return HAL_OK;
 80005de:	2300      	movs	r3, #0
}
 80005e0:	0018      	movs	r0, r3
 80005e2:	46bd      	mov	sp, r7
 80005e4:	bd80      	pop	{r7, pc}
 80005e6:	46c0      	nop			; (mov r8, r8)
 80005e8:	40022000 	.word	0x40022000

080005ec <HAL_InitTick>:
  *       implementation  in user file.
  * @param TickPriority Tick interrupt priority.
  * @retval HAL status
  */
__weak HAL_StatusTypeDef HAL_InitTick(uint32_t TickPriority)
{
 80005ec:	b590      	push	{r4, r7, lr}
 80005ee:	b083      	sub	sp, #12
 80005f0:	af00      	add	r7, sp, #0
 80005f2:	6078      	str	r0, [r7, #4]
  /*Configure the SysTick to have interrupt in 1ms time basis*/
  if (HAL_SYSTICK_Config(SystemCoreClock / (1000U / uwTickFreq)) > 0U)
 80005f4:	4b14      	ldr	r3, [pc, #80]	; (8000648 <HAL_InitTick+0x5c>)
 80005f6:	681c      	ldr	r4, [r3, #0]
 80005f8:	4b14      	ldr	r3, [pc, #80]	; (800064c <HAL_InitTick+0x60>)
 80005fa:	781b      	ldrb	r3, [r3, #0]
 80005fc:	0019      	movs	r1, r3
 80005fe:	23fa      	movs	r3, #250	; 0xfa
 8000600:	0098      	lsls	r0, r3, #2
 8000602:	f7ff fd81 	bl	8000108 <__udivsi3>
 8000606:	0003      	movs	r3, r0
 8000608:	0019      	movs	r1, r3
 800060a:	0020      	movs	r0, r4
 800060c:	f7ff fd7c 	bl	8000108 <__udivsi3>
 8000610:	0003      	movs	r3, r0
 8000612:	0018      	movs	r0, r3
 8000614:	f000 f8e1 	bl	80007da <HAL_SYSTICK_Config>
 8000618:	1e03      	subs	r3, r0, #0
 800061a:	d001      	beq.n	8000620 <HAL_InitTick+0x34>
  {
    return HAL_ERROR;
 800061c:	2301      	movs	r3, #1
 800061e:	e00f      	b.n	8000640 <HAL_InitTick+0x54>
  }

  /* Configure the SysTick IRQ priority */
  if (TickPriority < (1UL << __NVIC_PRIO_BITS))
 8000620:	687b      	ldr	r3, [r7, #4]
 8000622:	2b03      	cmp	r3, #3
 8000624:	d80b      	bhi.n	800063e <HAL_InitTick+0x52>
  {
    HAL_NVIC_SetPriority(SysTick_IRQn, TickPriority, 0U);
 8000626:	6879      	ldr	r1, [r7, #4]
 8000628:	2301      	movs	r3, #1
 800062a:	425b      	negs	r3, r3
 800062c:	2200      	movs	r2, #0
 800062e:	0018      	movs	r0, r3
 8000630:	f000 f8be 	bl	80007b0 <HAL_NVIC_SetPriority>
    uwTickPrio = TickPriority;
 8000634:	4b06      	ldr	r3, [pc, #24]	; (8000650 <HAL_InitTick+0x64>)
 8000636:	687a      	ldr	r2, [r7, #4]
 8000638:	601a      	str	r2, [r3, #0]
  {
    return HAL_ERROR;
  }

   /* Return function status */
  return HAL_OK;
 800063a:	2300      	movs	r3, #0
 800063c:	e000      	b.n	8000640 <HAL_InitTick+0x54>
    return HAL_ERROR;
 800063e:	2301      	movs	r3, #1
}
 8000640:	0018      	movs	r0, r3
 8000642:	46bd      	mov	sp, r7
 8000644:	b003      	add	sp, #12
 8000646:	bd90      	pop	{r4, r7, pc}
 8000648:	20000000 	.word	0x20000000
 800064c:	20000008 	.word	0x20000008
 8000650:	20000004 	.word	0x20000004

08000654 <HAL_IncTick>:
  * @note This function is declared as __weak to be overwritten in case of other 
  *       implementations in user file.
  * @retval None
  */
__weak void HAL_IncTick(void)
{
 8000654:	b580      	push	{r7, lr}
 8000656:	af00      	add	r7, sp, #0
  uwTick += uwTickFreq;
 8000658:	4b05      	ldr	r3, [pc, #20]	; (8000670 <HAL_IncTick+0x1c>)
 800065a:	781b      	ldrb	r3, [r3, #0]
 800065c:	001a      	movs	r2, r3
 800065e:	4b05      	ldr	r3, [pc, #20]	; (8000674 <HAL_IncTick+0x20>)
 8000660:	681b      	ldr	r3, [r3, #0]
 8000662:	18d2      	adds	r2, r2, r3
 8000664:	4b03      	ldr	r3, [pc, #12]	; (8000674 <HAL_IncTick+0x20>)
 8000666:	601a      	str	r2, [r3, #0]
}
 8000668:	46c0      	nop			; (mov r8, r8)
 800066a:	46bd      	mov	sp, r7
 800066c:	bd80      	pop	{r7, pc}
 800066e:	46c0      	nop			; (mov r8, r8)
 8000670:	20000008 	.word	0x20000008
 8000674:	200000ac 	.word	0x200000ac

08000678 <HAL_GetTick>:
  * @note   This function is declared as __weak  to be overwritten  in case of other 
  *       implementations in user file.
  * @retval tick value
  */
__weak uint32_t HAL_GetTick(void)
{
 8000678:	b580      	push	{r7, lr}
 800067a:	af00      	add	r7, sp, #0
  return uwTick;
 800067c:	4b02      	ldr	r3, [pc, #8]	; (8000688 <HAL_GetTick+0x10>)
 800067e:	681b      	ldr	r3, [r3, #0]
}
 8000680:	0018      	movs	r0, r3
 8000682:	46bd      	mov	sp, r7
 8000684:	bd80      	pop	{r7, pc}
 8000686:	46c0      	nop			; (mov r8, r8)
 8000688:	200000ac 	.word	0x200000ac

0800068c <__NVIC_SetPriority>:
  \param [in]      IRQn  Interrupt number.
  \param [in]  priority  Priority to set.
  \note    The priority cannot be set for every processor exception.
 */
__STATIC_INLINE void __NVIC_SetPriority(IRQn_Type IRQn, uint32_t priority)
{
 800068c:	b590      	push	{r4, r7, lr}
 800068e:	b083      	sub	sp, #12
 8000690:	af00      	add	r7, sp, #0
 8000692:	0002      	movs	r2, r0
 8000694:	6039      	str	r1, [r7, #0]
 8000696:	1dfb      	adds	r3, r7, #7
 8000698:	701a      	strb	r2, [r3, #0]
  if ((int32_t)(IRQn) >= 0)
 800069a:	1dfb      	adds	r3, r7, #7
 800069c:	781b      	ldrb	r3, [r3, #0]
 800069e:	2b7f      	cmp	r3, #127	; 0x7f
 80006a0:	d828      	bhi.n	80006f4 <__NVIC_SetPriority+0x68>
  {
    NVIC->IP[_IP_IDX(IRQn)]  = ((uint32_t)(NVIC->IP[_IP_IDX(IRQn)]  & ~(0xFFUL << _BIT_SHIFT(IRQn))) |
 80006a2:	4a2f      	ldr	r2, [pc, #188]	; (8000760 <__NVIC_SetPriority+0xd4>)
 80006a4:	1dfb      	adds	r3, r7, #7
 80006a6:	781b      	ldrb	r3, [r3, #0]
 80006a8:	b25b      	sxtb	r3, r3
 80006aa:	089b      	lsrs	r3, r3, #2
 80006ac:	33c0      	adds	r3, #192	; 0xc0
 80006ae:	009b      	lsls	r3, r3, #2
 80006b0:	589b      	ldr	r3, [r3, r2]
 80006b2:	1dfa      	adds	r2, r7, #7
 80006b4:	7812      	ldrb	r2, [r2, #0]
 80006b6:	0011      	movs	r1, r2
 80006b8:	2203      	movs	r2, #3
 80006ba:	400a      	ands	r2, r1
 80006bc:	00d2      	lsls	r2, r2, #3
 80006be:	21ff      	movs	r1, #255	; 0xff
 80006c0:	4091      	lsls	r1, r2
 80006c2:	000a      	movs	r2, r1
 80006c4:	43d2      	mvns	r2, r2
 80006c6:	401a      	ands	r2, r3
 80006c8:	0011      	movs	r1, r2
       (((priority << (8U - __NVIC_PRIO_BITS)) & (uint32_t)0xFFUL) << _BIT_SHIFT(IRQn)));
 80006ca:	683b      	ldr	r3, [r7, #0]
 80006cc:	019b      	lsls	r3, r3, #6
 80006ce:	22ff      	movs	r2, #255	; 0xff
 80006d0:	401a      	ands	r2, r3
 80006d2:	1dfb      	adds	r3, r7, #7
 80006d4:	781b      	ldrb	r3, [r3, #0]
 80006d6:	0018      	movs	r0, r3
 80006d8:	2303      	movs	r3, #3
 80006da:	4003      	ands	r3, r0
 80006dc:	00db      	lsls	r3, r3, #3
 80006de:	409a      	lsls	r2, r3
    NVIC->IP[_IP_IDX(IRQn)]  = ((uint32_t)(NVIC->IP[_IP_IDX(IRQn)]  & ~(0xFFUL << _BIT_SHIFT(IRQn))) |
 80006e0:	481f      	ldr	r0, [pc, #124]	; (8000760 <__NVIC_SetPriority+0xd4>)
 80006e2:	1dfb      	adds	r3, r7, #7
 80006e4:	781b      	ldrb	r3, [r3, #0]
 80006e6:	b25b      	sxtb	r3, r3
 80006e8:	089b      	lsrs	r3, r3, #2
 80006ea:	430a      	orrs	r2, r1
 80006ec:	33c0      	adds	r3, #192	; 0xc0
 80006ee:	009b      	lsls	r3, r3, #2
 80006f0:	501a      	str	r2, [r3, r0]
  else
  {
    SCB->SHP[_SHP_IDX(IRQn)] = ((uint32_t)(SCB->SHP[_SHP_IDX(IRQn)] & ~(0xFFUL << _BIT_SHIFT(IRQn))) |
       (((priority << (8U - __NVIC_PRIO_BITS)) & (uint32_t)0xFFUL) << _BIT_SHIFT(IRQn)));
  }
}
 80006f2:	e031      	b.n	8000758 <__NVIC_SetPriority+0xcc>
    SCB->SHP[_SHP_IDX(IRQn)] = ((uint32_t)(SCB->SHP[_SHP_IDX(IRQn)] & ~(0xFFUL << _BIT_SHIFT(IRQn))) |
 80006f4:	4a1b      	ldr	r2, [pc, #108]	; (8000764 <__NVIC_SetPriority+0xd8>)
 80006f6:	1dfb      	adds	r3, r7, #7
 80006f8:	781b      	ldrb	r3, [r3, #0]
 80006fa:	0019      	movs	r1, r3
 80006fc:	230f      	movs	r3, #15
 80006fe:	400b      	ands	r3, r1
 8000700:	3b08      	subs	r3, #8
 8000702:	089b      	lsrs	r3, r3, #2
 8000704:	3306      	adds	r3, #6
 8000706:	009b      	lsls	r3, r3, #2
 8000708:	18d3      	adds	r3, r2, r3
 800070a:	3304      	adds	r3, #4
 800070c:	681b      	ldr	r3, [r3, #0]
 800070e:	1dfa      	adds	r2, r7, #7
 8000710:	7812      	ldrb	r2, [r2, #0]
 8000712:	0011      	movs	r1, r2
 8000714:	2203      	movs	r2, #3
 8000716:	400a      	ands	r2, r1
 8000718:	00d2      	lsls	r2, r2, #3
 800071a:	21ff      	movs	r1, #255	; 0xff
 800071c:	4091      	lsls	r1, r2
 800071e:	000a      	movs	r2, r1
 8000720:	43d2      	mvns	r2, r2
 8000722:	401a      	ands	r2, r3
 8000724:	0011      	movs	r1, r2
       (((priority << (8U - __NVIC_PRIO_BITS)) & (uint32_t)0xFFUL) << _BIT_SHIFT(IRQn)));
 8000726:	683b      	ldr	r3, [r7, #0]
 8000728:	019b      	lsls	r3, r3, #6
 800072a:	22ff      	movs	r2, #255	; 0xff
 800072c:	401a      	ands	r2, r3
 800072e:	1dfb      	adds	r3, r7, #7
 8000730:	781b      	ldrb	r3, [r3, #0]
 8000732:	0018      	movs	r0, r3
 8000734:	2303      	movs	r3, #3
 8000736:	4003      	ands	r3, r0
 8000738:	00db      	lsls	r3, r3, #3
 800073a:	409a      	lsls	r2, r3
    SCB->SHP[_SHP_IDX(IRQn)] = ((uint32_t)(SCB->SHP[_SHP_IDX(IRQn)] & ~(0xFFUL << _BIT_SHIFT(IRQn))) |
 800073c:	4809      	ldr	r0, [pc, #36]	; (8000764 <__NVIC_SetPriority+0xd8>)
 800073e:	1dfb      	adds	r3, r7, #7
 8000740:	781b      	ldrb	r3, [r3, #0]
 8000742:	001c      	movs	r4, r3
 8000744:	230f      	movs	r3, #15
 8000746:	4023      	ands	r3, r4
 8000748:	3b08      	subs	r3, #8
 800074a:	089b      	lsrs	r3, r3, #2
 800074c:	430a      	orrs	r2, r1
 800074e:	3306      	adds	r3, #6
 8000750:	009b      	lsls	r3, r3, #2
 8000752:	18c3      	adds	r3, r0, r3
 8000754:	3304      	adds	r3, #4
 8000756:	601a      	str	r2, [r3, #0]
}
 8000758:	46c0      	nop			; (mov r8, r8)
 800075a:	46bd      	mov	sp, r7
 800075c:	b003      	add	sp, #12
 800075e:	bd90      	pop	{r4, r7, pc}
 8000760:	e000e100 	.word	0xe000e100
 8000764:	e000ed00 	.word	0xe000ed00

08000768 <SysTick_Config>:
  \note    When the variable <b>__Vendor_SysTickConfig</b> is set to 1, then the
           function <b>SysTick_Config</b> is not included. In this case, the file <b><i>device</i>.h</b>
           must contain a vendor-specific implementation of this function.
 */
__STATIC_INLINE uint32_t SysTick_Config(uint32_t ticks)
{
 8000768:	b580      	push	{r7, lr}
 800076a:	b082      	sub	sp, #8
 800076c:	af00      	add	r7, sp, #0
 800076e:	6078      	str	r0, [r7, #4]
  if ((ticks - 1UL) > SysTick_LOAD_RELOAD_Msk)
 8000770:	687b      	ldr	r3, [r7, #4]
 8000772:	3b01      	subs	r3, #1
 8000774:	4a0c      	ldr	r2, [pc, #48]	; (80007a8 <SysTick_Config+0x40>)
 8000776:	4293      	cmp	r3, r2
 8000778:	d901      	bls.n	800077e <SysTick_Config+0x16>
  {
    return (1UL);                                                   /* Reload value impossible */
 800077a:	2301      	movs	r3, #1
 800077c:	e010      	b.n	80007a0 <SysTick_Config+0x38>
  }

  SysTick->LOAD  = (uint32_t)(ticks - 1UL);                         /* set reload register */
 800077e:	4b0b      	ldr	r3, [pc, #44]	; (80007ac <SysTick_Config+0x44>)
 8000780:	687a      	ldr	r2, [r7, #4]
 8000782:	3a01      	subs	r2, #1
 8000784:	605a      	str	r2, [r3, #4]
  NVIC_SetPriority (SysTick_IRQn, (1UL << __NVIC_PRIO_BITS) - 1UL); /* set Priority for Systick Interrupt */
 8000786:	2301      	movs	r3, #1
 8000788:	425b      	negs	r3, r3
 800078a:	2103      	movs	r1, #3
 800078c:	0018      	movs	r0, r3
 800078e:	f7ff ff7d 	bl	800068c <__NVIC_SetPriority>
  SysTick->VAL   = 0UL;                                             /* Load the SysTick Counter Value */
 8000792:	4b06      	ldr	r3, [pc, #24]	; (80007ac <SysTick_Config+0x44>)
 8000794:	2200      	movs	r2, #0
 8000796:	609a      	str	r2, [r3, #8]
  SysTick->CTRL  = SysTick_CTRL_CLKSOURCE_Msk |
 8000798:	4b04      	ldr	r3, [pc, #16]	; (80007ac <SysTick_Config+0x44>)
 800079a:	2207      	movs	r2, #7
 800079c:	601a      	str	r2, [r3, #0]
                   SysTick_CTRL_TICKINT_Msk   |
                   SysTick_CTRL_ENABLE_Msk;                         /* Enable SysTick IRQ and SysTick Timer */
  return (0UL);                                                     /* Function successful */
 800079e:	2300      	movs	r3, #0
}
 80007a0:	0018      	movs	r0, r3
 80007a2:	46bd      	mov	sp, r7
 80007a4:	b002      	add	sp, #8
 80007a6:	bd80      	pop	{r7, pc}
 80007a8:	00ffffff 	.word	0x00ffffff
 80007ac:	e000e010 	.word	0xe000e010

080007b0 <HAL_NVIC_SetPriority>:
  *         with stm32f0xx devices, this parameter is a dummy value and it is ignored, because 
  *         no subpriority supported in Cortex M0 based products.   
  * @retval None
  */
void HAL_NVIC_SetPriority(IRQn_Type IRQn, uint32_t PreemptPriority, uint32_t SubPriority)
{ 
 80007b0:	b580      	push	{r7, lr}
 80007b2:	b084      	sub	sp, #16
 80007b4:	af00      	add	r7, sp, #0
 80007b6:	60b9      	str	r1, [r7, #8]
 80007b8:	607a      	str	r2, [r7, #4]
 80007ba:	210f      	movs	r1, #15
 80007bc:	187b      	adds	r3, r7, r1
 80007be:	1c02      	adds	r2, r0, #0
 80007c0:	701a      	strb	r2, [r3, #0]
  /* Check the parameters */
  assert_param(IS_NVIC_PREEMPTION_PRIORITY(PreemptPriority));
  NVIC_SetPriority(IRQn,PreemptPriority);
 80007c2:	68ba      	ldr	r2, [r7, #8]
 80007c4:	187b      	adds	r3, r7, r1
 80007c6:	781b      	ldrb	r3, [r3, #0]
 80007c8:	b25b      	sxtb	r3, r3
 80007ca:	0011      	movs	r1, r2
 80007cc:	0018      	movs	r0, r3
 80007ce:	f7ff ff5d 	bl	800068c <__NVIC_SetPriority>
}
 80007d2:	46c0      	nop			; (mov r8, r8)
 80007d4:	46bd      	mov	sp, r7
 80007d6:	b004      	add	sp, #16
 80007d8:	bd80      	pop	{r7, pc}

080007da <HAL_SYSTICK_Config>:
  * @param  TicksNumb Specifies the ticks Number of ticks between two interrupts.
  * @retval status:  - 0  Function succeeded.
  *                  - 1  Function failed.
  */
uint32_t HAL_SYSTICK_Config(uint32_t TicksNumb)
{
 80007da:	b580      	push	{r7, lr}
 80007dc:	b082      	sub	sp, #8
 80007de:	af00      	add	r7, sp, #0
 80007e0:	6078      	str	r0, [r7, #4]
   return SysTick_Config(TicksNumb);
 80007e2:	687b      	ldr	r3, [r7, #4]
 80007e4:	0018      	movs	r0, r3
 80007e6:	f7ff ffbf 	bl	8000768 <SysTick_Config>
 80007ea:	0003      	movs	r3, r0
}
 80007ec:	0018      	movs	r0, r3
 80007ee:	46bd      	mov	sp, r7
 80007f0:	b002      	add	sp, #8
 80007f2:	bd80      	pop	{r7, pc}

080007f4 <HAL_GPIO_Init>:
  * @param  GPIO_Init pointer to a GPIO_InitTypeDef structure that contains
  *         the configuration information for the specified GPIO peripheral.
  * @retval None
  */
void HAL_GPIO_Init(GPIO_TypeDef  *GPIOx, GPIO_InitTypeDef *GPIO_Init)
{ 
 80007f4:	b580      	push	{r7, lr}
 80007f6:	b086      	sub	sp, #24
 80007f8:	af00      	add	r7, sp, #0
 80007fa:	6078      	str	r0, [r7, #4]
 80007fc:	6039      	str	r1, [r7, #0]
  uint32_t position = 0x00u;
 80007fe:	2300      	movs	r3, #0
 8000800:	617b      	str	r3, [r7, #20]
  assert_param(IS_GPIO_PIN(GPIO_Init->Pin));
  assert_param(IS_GPIO_MODE(GPIO_Init->Mode));
  assert_param(IS_GPIO_PULL(GPIO_Init->Pull));

  /* Configure the port pins */
  while (((GPIO_Init->Pin) >> position) != 0x00u)
 8000802:	e149      	b.n	8000a98 <HAL_GPIO_Init+0x2a4>
  {
    /* Get current io position */
    iocurrent = (GPIO_Init->Pin) & (1uL << position);
 8000804:	683b      	ldr	r3, [r7, #0]
 8000806:	681b      	ldr	r3, [r3, #0]
 8000808:	2101      	movs	r1, #1
 800080a:	697a      	ldr	r2, [r7, #20]
 800080c:	4091      	lsls	r1, r2
 800080e:	000a      	movs	r2, r1
 8000810:	4013      	ands	r3, r2
 8000812:	60fb      	str	r3, [r7, #12]

    if (iocurrent != 0x00u)
 8000814:	68fb      	ldr	r3, [r7, #12]
 8000816:	2b00      	cmp	r3, #0
 8000818:	d100      	bne.n	800081c <HAL_GPIO_Init+0x28>
 800081a:	e13a      	b.n	8000a92 <HAL_GPIO_Init+0x29e>
    {
      /*--------------------- GPIO Mode Configuration ------------------------*/
      /* In case of Output or Alternate function mode selection */
      if((GPIO_Init->Mode == GPIO_MODE_OUTPUT_PP) || (GPIO_Init->Mode == GPIO_MODE_AF_PP) ||
 800081c:	683b      	ldr	r3, [r7, #0]
 800081e:	685b      	ldr	r3, [r3, #4]
 8000820:	2b01      	cmp	r3, #1
 8000822:	d00b      	beq.n	800083c <HAL_GPIO_Init+0x48>
 8000824:	683b      	ldr	r3, [r7, #0]
 8000826:	685b      	ldr	r3, [r3, #4]
 8000828:	2b02      	cmp	r3, #2
 800082a:	d007      	beq.n	800083c <HAL_GPIO_Init+0x48>
         (GPIO_Init->Mode == GPIO_MODE_OUTPUT_OD) || (GPIO_Init->Mode == GPIO_MODE_AF_OD))
 800082c:	683b      	ldr	r3, [r7, #0]
 800082e:	685b      	ldr	r3, [r3, #4]
      if((GPIO_Init->Mode == GPIO_MODE_OUTPUT_PP) || (GPIO_Init->Mode == GPIO_MODE_AF_PP) ||
 8000830:	2b11      	cmp	r3, #17
 8000832:	d003      	beq.n	800083c <HAL_GPIO_Init+0x48>
         (GPIO_Init->Mode == GPIO_MODE_OUTPUT_OD) || (GPIO_Init->Mode == GPIO_MODE_AF_OD))
 8000834:	683b      	ldr	r3, [r7, #0]
 8000836:	685b      	ldr	r3, [r3, #4]
 8000838:	2b12      	cmp	r3, #18
 800083a:	d130      	bne.n	800089e <HAL_GPIO_Init+0xaa>
      {
        /* Check the Speed parameter */
        assert_param(IS_GPIO_SPEED(GPIO_Init->Speed));
        /* Configure the IO Speed */
        temp = GPIOx->OSPEEDR;
 800083c:	687b      	ldr	r3, [r7, #4]
 800083e:	689b      	ldr	r3, [r3, #8]
 8000840:	613b      	str	r3, [r7, #16]
        temp &= ~(GPIO_OSPEEDER_OSPEEDR0 << (position * 2u));
 8000842:	697b      	ldr	r3, [r7, #20]
 8000844:	005b      	lsls	r3, r3, #1
 8000846:	2203      	movs	r2, #3
 8000848:	409a      	lsls	r2, r3
 800084a:	0013      	movs	r3, r2
 800084c:	43da      	mvns	r2, r3
 800084e:	693b      	ldr	r3, [r7, #16]
 8000850:	4013      	ands	r3, r2
 8000852:	613b      	str	r3, [r7, #16]
        temp |= (GPIO_Init->Speed << (position * 2u));
 8000854:	683b      	ldr	r3, [r7, #0]
 8000856:	68da      	ldr	r2, [r3, #12]
 8000858:	697b      	ldr	r3, [r7, #20]
 800085a:	005b      	lsls	r3, r3, #1
 800085c:	409a      	lsls	r2, r3
 800085e:	0013      	movs	r3, r2
 8000860:	693a      	ldr	r2, [r7, #16]
 8000862:	4313      	orrs	r3, r2
 8000864:	613b      	str	r3, [r7, #16]
        GPIOx->OSPEEDR = temp;
 8000866:	687b      	ldr	r3, [r7, #4]
 8000868:	693a      	ldr	r2, [r7, #16]
 800086a:	609a      	str	r2, [r3, #8]

        /* Configure the IO Output Type */
        temp = GPIOx->OTYPER;
 800086c:	687b      	ldr	r3, [r7, #4]
 800086e:	685b      	ldr	r3, [r3, #4]
 8000870:	613b      	str	r3, [r7, #16]
        temp &= ~(GPIO_OTYPER_OT_0 << position) ;
 8000872:	2201      	movs	r2, #1
 8000874:	697b      	ldr	r3, [r7, #20]
 8000876:	409a      	lsls	r2, r3
 8000878:	0013      	movs	r3, r2
 800087a:	43da      	mvns	r2, r3
 800087c:	693b      	ldr	r3, [r7, #16]
 800087e:	4013      	ands	r3, r2
 8000880:	613b      	str	r3, [r7, #16]
        temp |= (((GPIO_Init->Mode & GPIO_OUTPUT_TYPE) >> 4u) << position);
 8000882:	683b      	ldr	r3, [r7, #0]
 8000884:	685b      	ldr	r3, [r3, #4]
 8000886:	091b      	lsrs	r3, r3, #4
 8000888:	2201      	movs	r2, #1
 800088a:	401a      	ands	r2, r3
 800088c:	697b      	ldr	r3, [r7, #20]
 800088e:	409a      	lsls	r2, r3
 8000890:	0013      	movs	r3, r2
 8000892:	693a      	ldr	r2, [r7, #16]
 8000894:	4313      	orrs	r3, r2
 8000896:	613b      	str	r3, [r7, #16]
        GPIOx->OTYPER = temp;
 8000898:	687b      	ldr	r3, [r7, #4]
 800089a:	693a      	ldr	r2, [r7, #16]
 800089c:	605a      	str	r2, [r3, #4]
      }

      /* Activate the Pull-up or Pull down resistor for the current IO */
      temp = GPIOx->PUPDR;
 800089e:	687b      	ldr	r3, [r7, #4]
 80008a0:	68db      	ldr	r3, [r3, #12]
 80008a2:	613b      	str	r3, [r7, #16]
      temp &= ~(GPIO_PUPDR_PUPDR0 << (position * 2u));
 80008a4:	697b      	ldr	r3, [r7, #20]
 80008a6:	005b      	lsls	r3, r3, #1
 80008a8:	2203      	movs	r2, #3
 80008aa:	409a      	lsls	r2, r3
 80008ac:	0013      	movs	r3, r2
 80008ae:	43da      	mvns	r2, r3
 80008b0:	693b      	ldr	r3, [r7, #16]
 80008b2:	4013      	ands	r3, r2
 80008b4:	613b      	str	r3, [r7, #16]
      temp |= ((GPIO_Init->Pull) << (position * 2u));
 80008b6:	683b      	ldr	r3, [r7, #0]
 80008b8:	689a      	ldr	r2, [r3, #8]
 80008ba:	697b      	ldr	r3, [r7, #20]
 80008bc:	005b      	lsls	r3, r3, #1
 80008be:	409a      	lsls	r2, r3
 80008c0:	0013      	movs	r3, r2
 80008c2:	693a      	ldr	r2, [r7, #16]
 80008c4:	4313      	orrs	r3, r2
 80008c6:	613b      	str	r3, [r7, #16]
      GPIOx->PUPDR = temp;
 80008c8:	687b      	ldr	r3, [r7, #4]
 80008ca:	693a      	ldr	r2, [r7, #16]
 80008cc:	60da      	str	r2, [r3, #12]

      /* In case of Alternate function mode selection */
      if((GPIO_Init->Mode == GPIO_MODE_AF_PP) || (GPIO_Init->Mode == GPIO_MODE_AF_OD))
 80008ce:	683b      	ldr	r3, [r7, #0]
 80008d0:	685b      	ldr	r3, [r3, #4]
 80008d2:	2b02      	cmp	r3, #2
 80008d4:	d003      	beq.n	80008de <HAL_GPIO_Init+0xea>
 80008d6:	683b      	ldr	r3, [r7, #0]
 80008d8:	685b      	ldr	r3, [r3, #4]
 80008da:	2b12      	cmp	r3, #18
 80008dc:	d123      	bne.n	8000926 <HAL_GPIO_Init+0x132>
        /* Check the Alternate function parameters */
        assert_param(IS_GPIO_AF_INSTANCE(GPIOx));
        assert_param(IS_GPIO_AF(GPIO_Init->Alternate));

        /* Configure Alternate function mapped with the current IO */
        temp = GPIOx->AFR[position >> 3u];
 80008de:	697b      	ldr	r3, [r7, #20]
 80008e0:	08da      	lsrs	r2, r3, #3
 80008e2:	687b      	ldr	r3, [r7, #4]
 80008e4:	3208      	adds	r2, #8
 80008e6:	0092      	lsls	r2, r2, #2
 80008e8:	58d3      	ldr	r3, [r2, r3]
 80008ea:	613b      	str	r3, [r7, #16]
        temp &= ~(0xFu << ((position & 0x07u) * 4u));
 80008ec:	697b      	ldr	r3, [r7, #20]
 80008ee:	2207      	movs	r2, #7
 80008f0:	4013      	ands	r3, r2
 80008f2:	009b      	lsls	r3, r3, #2
 80008f4:	220f      	movs	r2, #15
 80008f6:	409a      	lsls	r2, r3
 80008f8:	0013      	movs	r3, r2
 80008fa:	43da      	mvns	r2, r3
 80008fc:	693b      	ldr	r3, [r7, #16]
 80008fe:	4013      	ands	r3, r2
 8000900:	613b      	str	r3, [r7, #16]
        temp |= ((GPIO_Init->Alternate) << ((position & 0x07u) * 4u));
 8000902:	683b      	ldr	r3, [r7, #0]
 8000904:	691a      	ldr	r2, [r3, #16]
 8000906:	697b      	ldr	r3, [r7, #20]
 8000908:	2107      	movs	r1, #7
 800090a:	400b      	ands	r3, r1
 800090c:	009b      	lsls	r3, r3, #2
 800090e:	409a      	lsls	r2, r3
 8000910:	0013      	movs	r3, r2
 8000912:	693a      	ldr	r2, [r7, #16]
 8000914:	4313      	orrs	r3, r2
 8000916:	613b      	str	r3, [r7, #16]
        GPIOx->AFR[position >> 3u] = temp;
 8000918:	697b      	ldr	r3, [r7, #20]
 800091a:	08da      	lsrs	r2, r3, #3
 800091c:	687b      	ldr	r3, [r7, #4]
 800091e:	3208      	adds	r2, #8
 8000920:	0092      	lsls	r2, r2, #2
 8000922:	6939      	ldr	r1, [r7, #16]
 8000924:	50d1      	str	r1, [r2, r3]
      }

      /* Configure IO Direction mode (Input, Output, Alternate or Analog) */
      temp = GPIOx->MODER;
 8000926:	687b      	ldr	r3, [r7, #4]
 8000928:	681b      	ldr	r3, [r3, #0]
 800092a:	613b      	str	r3, [r7, #16]
      temp &= ~(GPIO_MODER_MODER0 << (position * 2u));
 800092c:	697b      	ldr	r3, [r7, #20]
 800092e:	005b      	lsls	r3, r3, #1
 8000930:	2203      	movs	r2, #3
 8000932:	409a      	lsls	r2, r3
 8000934:	0013      	movs	r3, r2
 8000936:	43da      	mvns	r2, r3
 8000938:	693b      	ldr	r3, [r7, #16]
 800093a:	4013      	ands	r3, r2
 800093c:	613b      	str	r3, [r7, #16]
      temp |= ((GPIO_Init->Mode & GPIO_MODE) << (position * 2u));
 800093e:	683b      	ldr	r3, [r7, #0]
 8000940:	685b      	ldr	r3, [r3, #4]
 8000942:	2203      	movs	r2, #3
 8000944:	401a      	ands	r2, r3
 8000946:	697b      	ldr	r3, [r7, #20]
 8000948:	005b      	lsls	r3, r3, #1
 800094a:	409a      	lsls	r2, r3
 800094c:	0013      	movs	r3, r2
 800094e:	693a      	ldr	r2, [r7, #16]
 8000950:	4313      	orrs	r3, r2
 8000952:	613b      	str	r3, [r7, #16]
      GPIOx->MODER = temp;
 8000954:	687b      	ldr	r3, [r7, #4]
 8000956:	693a      	ldr	r2, [r7, #16]
 8000958:	601a      	str	r2, [r3, #0]

      /*--------------------- EXTI Mode Configuration ------------------------*/
      /* Configure the External Interrupt or event for the current IO */
      if((GPIO_Init->Mode & EXTI_MODE) == EXTI_MODE)
 800095a:	683b      	ldr	r3, [r7, #0]
 800095c:	685a      	ldr	r2, [r3, #4]
 800095e:	2380      	movs	r3, #128	; 0x80
 8000960:	055b      	lsls	r3, r3, #21
 8000962:	4013      	ands	r3, r2
 8000964:	d100      	bne.n	8000968 <HAL_GPIO_Init+0x174>
 8000966:	e094      	b.n	8000a92 <HAL_GPIO_Init+0x29e>
      {
        /* Enable SYSCFG Clock */
        __HAL_RCC_SYSCFG_CLK_ENABLE();
 8000968:	4b51      	ldr	r3, [pc, #324]	; (8000ab0 <HAL_GPIO_Init+0x2bc>)
 800096a:	699a      	ldr	r2, [r3, #24]
 800096c:	4b50      	ldr	r3, [pc, #320]	; (8000ab0 <HAL_GPIO_Init+0x2bc>)
 800096e:	2101      	movs	r1, #1
 8000970:	430a      	orrs	r2, r1
 8000972:	619a      	str	r2, [r3, #24]
 8000974:	4b4e      	ldr	r3, [pc, #312]	; (8000ab0 <HAL_GPIO_Init+0x2bc>)
 8000976:	699b      	ldr	r3, [r3, #24]
 8000978:	2201      	movs	r2, #1
 800097a:	4013      	ands	r3, r2
 800097c:	60bb      	str	r3, [r7, #8]
 800097e:	68bb      	ldr	r3, [r7, #8]

        temp = SYSCFG->EXTICR[position >> 2u];
 8000980:	4a4c      	ldr	r2, [pc, #304]	; (8000ab4 <HAL_GPIO_Init+0x2c0>)
 8000982:	697b      	ldr	r3, [r7, #20]
 8000984:	089b      	lsrs	r3, r3, #2
 8000986:	3302      	adds	r3, #2
 8000988:	009b      	lsls	r3, r3, #2
 800098a:	589b      	ldr	r3, [r3, r2]
 800098c:	613b      	str	r3, [r7, #16]
        temp &= ~(0x0FuL << (4u * (position & 0x03u)));
 800098e:	697b      	ldr	r3, [r7, #20]
 8000990:	2203      	movs	r2, #3
 8000992:	4013      	ands	r3, r2
 8000994:	009b      	lsls	r3, r3, #2
 8000996:	220f      	movs	r2, #15
 8000998:	409a      	lsls	r2, r3
 800099a:	0013      	movs	r3, r2
 800099c:	43da      	mvns	r2, r3
 800099e:	693b      	ldr	r3, [r7, #16]
 80009a0:	4013      	ands	r3, r2
 80009a2:	613b      	str	r3, [r7, #16]
        temp |= (GPIO_GET_INDEX(GPIOx) << (4u * (position & 0x03u)));
 80009a4:	687a      	ldr	r2, [r7, #4]
 80009a6:	2390      	movs	r3, #144	; 0x90
 80009a8:	05db      	lsls	r3, r3, #23
 80009aa:	429a      	cmp	r2, r3
 80009ac:	d00d      	beq.n	80009ca <HAL_GPIO_Init+0x1d6>
 80009ae:	687b      	ldr	r3, [r7, #4]
 80009b0:	4a41      	ldr	r2, [pc, #260]	; (8000ab8 <HAL_GPIO_Init+0x2c4>)
 80009b2:	4293      	cmp	r3, r2
 80009b4:	d007      	beq.n	80009c6 <HAL_GPIO_Init+0x1d2>
 80009b6:	687b      	ldr	r3, [r7, #4]
 80009b8:	4a40      	ldr	r2, [pc, #256]	; (8000abc <HAL_GPIO_Init+0x2c8>)
 80009ba:	4293      	cmp	r3, r2
 80009bc:	d101      	bne.n	80009c2 <HAL_GPIO_Init+0x1ce>
 80009be:	2302      	movs	r3, #2
 80009c0:	e004      	b.n	80009cc <HAL_GPIO_Init+0x1d8>
 80009c2:	2305      	movs	r3, #5
 80009c4:	e002      	b.n	80009cc <HAL_GPIO_Init+0x1d8>
 80009c6:	2301      	movs	r3, #1
 80009c8:	e000      	b.n	80009cc <HAL_GPIO_Init+0x1d8>
 80009ca:	2300      	movs	r3, #0
 80009cc:	697a      	ldr	r2, [r7, #20]
 80009ce:	2103      	movs	r1, #3
 80009d0:	400a      	ands	r2, r1
 80009d2:	0092      	lsls	r2, r2, #2
 80009d4:	4093      	lsls	r3, r2
 80009d6:	693a      	ldr	r2, [r7, #16]
 80009d8:	4313      	orrs	r3, r2
 80009da:	613b      	str	r3, [r7, #16]
        SYSCFG->EXTICR[position >> 2u] = temp;
 80009dc:	4935      	ldr	r1, [pc, #212]	; (8000ab4 <HAL_GPIO_Init+0x2c0>)
 80009de:	697b      	ldr	r3, [r7, #20]
 80009e0:	089b      	lsrs	r3, r3, #2
 80009e2:	3302      	adds	r3, #2
 80009e4:	009b      	lsls	r3, r3, #2
 80009e6:	693a      	ldr	r2, [r7, #16]
 80009e8:	505a      	str	r2, [r3, r1]

        /* Clear EXTI line configuration */
        temp = EXTI->IMR;
 80009ea:	4b35      	ldr	r3, [pc, #212]	; (8000ac0 <HAL_GPIO_Init+0x2cc>)
 80009ec:	681b      	ldr	r3, [r3, #0]
 80009ee:	613b      	str	r3, [r7, #16]
        temp &= ~(iocurrent);
 80009f0:	68fb      	ldr	r3, [r7, #12]
 80009f2:	43da      	mvns	r2, r3
 80009f4:	693b      	ldr	r3, [r7, #16]
 80009f6:	4013      	ands	r3, r2
 80009f8:	613b      	str	r3, [r7, #16]
        if((GPIO_Init->Mode & GPIO_MODE_IT) == GPIO_MODE_IT)
 80009fa:	683b      	ldr	r3, [r7, #0]
 80009fc:	685a      	ldr	r2, [r3, #4]
 80009fe:	2380      	movs	r3, #128	; 0x80
 8000a00:	025b      	lsls	r3, r3, #9
 8000a02:	4013      	ands	r3, r2
 8000a04:	d003      	beq.n	8000a0e <HAL_GPIO_Init+0x21a>
        {
          temp |= iocurrent;
 8000a06:	693a      	ldr	r2, [r7, #16]
 8000a08:	68fb      	ldr	r3, [r7, #12]
 8000a0a:	4313      	orrs	r3, r2
 8000a0c:	613b      	str	r3, [r7, #16]
        }
        EXTI->IMR = temp;
 8000a0e:	4b2c      	ldr	r3, [pc, #176]	; (8000ac0 <HAL_GPIO_Init+0x2cc>)
 8000a10:	693a      	ldr	r2, [r7, #16]
 8000a12:	601a      	str	r2, [r3, #0]

        temp = EXTI->EMR;
 8000a14:	4b2a      	ldr	r3, [pc, #168]	; (8000ac0 <HAL_GPIO_Init+0x2cc>)
 8000a16:	685b      	ldr	r3, [r3, #4]
 8000a18:	613b      	str	r3, [r7, #16]
        temp &= ~(iocurrent);
 8000a1a:	68fb      	ldr	r3, [r7, #12]
 8000a1c:	43da      	mvns	r2, r3
 8000a1e:	693b      	ldr	r3, [r7, #16]
 8000a20:	4013      	ands	r3, r2
 8000a22:	613b      	str	r3, [r7, #16]
        if((GPIO_Init->Mode & GPIO_MODE_EVT) == GPIO_MODE_EVT)
 8000a24:	683b      	ldr	r3, [r7, #0]
 8000a26:	685a      	ldr	r2, [r3, #4]
 8000a28:	2380      	movs	r3, #128	; 0x80
 8000a2a:	029b      	lsls	r3, r3, #10
 8000a2c:	4013      	ands	r3, r2
 8000a2e:	d003      	beq.n	8000a38 <HAL_GPIO_Init+0x244>
        {
          temp |= iocurrent;
 8000a30:	693a      	ldr	r2, [r7, #16]
 8000a32:	68fb      	ldr	r3, [r7, #12]
 8000a34:	4313      	orrs	r3, r2
 8000a36:	613b      	str	r3, [r7, #16]
        }
        EXTI->EMR = temp;
 8000a38:	4b21      	ldr	r3, [pc, #132]	; (8000ac0 <HAL_GPIO_Init+0x2cc>)
 8000a3a:	693a      	ldr	r2, [r7, #16]
 8000a3c:	605a      	str	r2, [r3, #4]

        /* Clear Rising Falling edge configuration */
        temp = EXTI->RTSR;
 8000a3e:	4b20      	ldr	r3, [pc, #128]	; (8000ac0 <HAL_GPIO_Init+0x2cc>)
 8000a40:	689b      	ldr	r3, [r3, #8]
 8000a42:	613b      	str	r3, [r7, #16]
        temp &= ~(iocurrent);
 8000a44:	68fb      	ldr	r3, [r7, #12]
 8000a46:	43da      	mvns	r2, r3
 8000a48:	693b      	ldr	r3, [r7, #16]
 8000a4a:	4013      	ands	r3, r2
 8000a4c:	613b      	str	r3, [r7, #16]
        if((GPIO_Init->Mode & RISING_EDGE) == RISING_EDGE)
 8000a4e:	683b      	ldr	r3, [r7, #0]
 8000a50:	685a      	ldr	r2, [r3, #4]
 8000a52:	2380      	movs	r3, #128	; 0x80
 8000a54:	035b      	lsls	r3, r3, #13
 8000a56:	4013      	ands	r3, r2
 8000a58:	d003      	beq.n	8000a62 <HAL_GPIO_Init+0x26e>
        {
          temp |= iocurrent;
 8000a5a:	693a      	ldr	r2, [r7, #16]
 8000a5c:	68fb      	ldr	r3, [r7, #12]
 8000a5e:	4313      	orrs	r3, r2
 8000a60:	613b      	str	r3, [r7, #16]
        }
        EXTI->RTSR = temp;
 8000a62:	4b17      	ldr	r3, [pc, #92]	; (8000ac0 <HAL_GPIO_Init+0x2cc>)
 8000a64:	693a      	ldr	r2, [r7, #16]
 8000a66:	609a      	str	r2, [r3, #8]

        temp = EXTI->FTSR;
 8000a68:	4b15      	ldr	r3, [pc, #84]	; (8000ac0 <HAL_GPIO_Init+0x2cc>)
 8000a6a:	68db      	ldr	r3, [r3, #12]
 8000a6c:	613b      	str	r3, [r7, #16]
        temp &= ~(iocurrent);
 8000a6e:	68fb      	ldr	r3, [r7, #12]
 8000a70:	43da      	mvns	r2, r3
 8000a72:	693b      	ldr	r3, [r7, #16]
 8000a74:	4013      	ands	r3, r2
 8000a76:	613b      	str	r3, [r7, #16]
        if((GPIO_Init->Mode & FALLING_EDGE) == FALLING_EDGE)
 8000a78:	683b      	ldr	r3, [r7, #0]
 8000a7a:	685a      	ldr	r2, [r3, #4]
 8000a7c:	2380      	movs	r3, #128	; 0x80
 8000a7e:	039b      	lsls	r3, r3, #14
 8000a80:	4013      	ands	r3, r2
 8000a82:	d003      	beq.n	8000a8c <HAL_GPIO_Init+0x298>
        {
          temp |= iocurrent;
 8000a84:	693a      	ldr	r2, [r7, #16]
 8000a86:	68fb      	ldr	r3, [r7, #12]
 8000a88:	4313      	orrs	r3, r2
 8000a8a:	613b      	str	r3, [r7, #16]
        }
        EXTI->FTSR = temp;
 8000a8c:	4b0c      	ldr	r3, [pc, #48]	; (8000ac0 <HAL_GPIO_Init+0x2cc>)
 8000a8e:	693a      	ldr	r2, [r7, #16]
 8000a90:	60da      	str	r2, [r3, #12]
      }
    }

    position++;
 8000a92:	697b      	ldr	r3, [r7, #20]
 8000a94:	3301      	adds	r3, #1
 8000a96:	617b      	str	r3, [r7, #20]
  while (((GPIO_Init->Pin) >> position) != 0x00u)
 8000a98:	683b      	ldr	r3, [r7, #0]
 8000a9a:	681a      	ldr	r2, [r3, #0]
 8000a9c:	697b      	ldr	r3, [r7, #20]
 8000a9e:	40da      	lsrs	r2, r3
 8000aa0:	1e13      	subs	r3, r2, #0
 8000aa2:	d000      	beq.n	8000aa6 <HAL_GPIO_Init+0x2b2>
 8000aa4:	e6ae      	b.n	8000804 <HAL_GPIO_Init+0x10>
  } 
}
 8000aa6:	46c0      	nop			; (mov r8, r8)
 8000aa8:	46bd      	mov	sp, r7
 8000aaa:	b006      	add	sp, #24
 8000aac:	bd80      	pop	{r7, pc}
 8000aae:	46c0      	nop			; (mov r8, r8)
 8000ab0:	40021000 	.word	0x40021000
 8000ab4:	40010000 	.word	0x40010000
 8000ab8:	48000400 	.word	0x48000400
 8000abc:	48000800 	.word	0x48000800
 8000ac0:	40010400 	.word	0x40010400

08000ac4 <HAL_GPIO_WritePin>:
  *            @arg GPIO_PIN_RESET: to clear the port pin
  *            @arg GPIO_PIN_SET: to set the port pin
  * @retval None
  */
void HAL_GPIO_WritePin(GPIO_TypeDef* GPIOx, uint16_t GPIO_Pin, GPIO_PinState PinState)
{
 8000ac4:	b580      	push	{r7, lr}
 8000ac6:	b082      	sub	sp, #8
 8000ac8:	af00      	add	r7, sp, #0
 8000aca:	6078      	str	r0, [r7, #4]
 8000acc:	0008      	movs	r0, r1
 8000ace:	0011      	movs	r1, r2
 8000ad0:	1cbb      	adds	r3, r7, #2
 8000ad2:	1c02      	adds	r2, r0, #0
 8000ad4:	801a      	strh	r2, [r3, #0]
 8000ad6:	1c7b      	adds	r3, r7, #1
 8000ad8:	1c0a      	adds	r2, r1, #0
 8000ada:	701a      	strb	r2, [r3, #0]
  /* Check the parameters */
  assert_param(IS_GPIO_PIN(GPIO_Pin));
  assert_param(IS_GPIO_PIN_ACTION(PinState));

  if (PinState != GPIO_PIN_RESET)
 8000adc:	1c7b      	adds	r3, r7, #1
 8000ade:	781b      	ldrb	r3, [r3, #0]
 8000ae0:	2b00      	cmp	r3, #0
 8000ae2:	d004      	beq.n	8000aee <HAL_GPIO_WritePin+0x2a>
  {
    GPIOx->BSRR = (uint32_t)GPIO_Pin;
 8000ae4:	1cbb      	adds	r3, r7, #2
 8000ae6:	881a      	ldrh	r2, [r3, #0]
 8000ae8:	687b      	ldr	r3, [r7, #4]
 8000aea:	619a      	str	r2, [r3, #24]
  }
  else
  {
    GPIOx->BRR = (uint32_t)GPIO_Pin;
  }
}
 8000aec:	e003      	b.n	8000af6 <HAL_GPIO_WritePin+0x32>
    GPIOx->BRR = (uint32_t)GPIO_Pin;
 8000aee:	1cbb      	adds	r3, r7, #2
 8000af0:	881a      	ldrh	r2, [r3, #0]
 8000af2:	687b      	ldr	r3, [r7, #4]
 8000af4:	629a      	str	r2, [r3, #40]	; 0x28
}
 8000af6:	46c0      	nop			; (mov r8, r8)
 8000af8:	46bd      	mov	sp, r7
 8000afa:	b002      	add	sp, #8
 8000afc:	bd80      	pop	{r7, pc}

08000afe <HAL_GPIO_TogglePin>:
  * @param  GPIOx where x can be (A..F) to select the GPIO peripheral for STM32F0 family
  * @param  GPIO_Pin specifies the pin to be toggled.
  * @retval None
  */
void HAL_GPIO_TogglePin(GPIO_TypeDef* GPIOx, uint16_t GPIO_Pin)
{
 8000afe:	b580      	push	{r7, lr}
 8000b00:	b084      	sub	sp, #16
 8000b02:	af00      	add	r7, sp, #0
 8000b04:	6078      	str	r0, [r7, #4]
 8000b06:	000a      	movs	r2, r1
 8000b08:	1cbb      	adds	r3, r7, #2
 8000b0a:	801a      	strh	r2, [r3, #0]

  /* Check the parameters */
  assert_param(IS_GPIO_PIN(GPIO_Pin));

  /* get current Ouput Data Register value */
  odr = GPIOx->ODR;
 8000b0c:	687b      	ldr	r3, [r7, #4]
 8000b0e:	695b      	ldr	r3, [r3, #20]
 8000b10:	60fb      	str	r3, [r7, #12]

  /* Set selected pins that were at low level, and reset ones that were high */
  GPIOx->BSRR = ((odr & GPIO_Pin) << GPIO_NUMBER) | (~odr & GPIO_Pin);
 8000b12:	1cbb      	adds	r3, r7, #2
 8000b14:	881b      	ldrh	r3, [r3, #0]
 8000b16:	68fa      	ldr	r2, [r7, #12]
 8000b18:	4013      	ands	r3, r2
 8000b1a:	041a      	lsls	r2, r3, #16
 8000b1c:	68fb      	ldr	r3, [r7, #12]
 8000b1e:	43db      	mvns	r3, r3
 8000b20:	1cb9      	adds	r1, r7, #2
 8000b22:	8809      	ldrh	r1, [r1, #0]
 8000b24:	400b      	ands	r3, r1
 8000b26:	431a      	orrs	r2, r3
 8000b28:	687b      	ldr	r3, [r7, #4]
 8000b2a:	619a      	str	r2, [r3, #24]
}
 8000b2c:	46c0      	nop			; (mov r8, r8)
 8000b2e:	46bd      	mov	sp, r7
 8000b30:	b004      	add	sp, #16
 8000b32:	bd80      	pop	{r7, pc}

08000b34 <HAL_RCC_OscConfig>:
  *         supported by this macro. User should request a transition to HSE Off
  *         first and then HSE On or HSE Bypass.
  * @retval HAL status
  */
HAL_StatusTypeDef HAL_RCC_OscConfig(RCC_OscInitTypeDef  *RCC_OscInitStruct)
{
 8000b34:	b580      	push	{r7, lr}
 8000b36:	b088      	sub	sp, #32
 8000b38:	af00      	add	r7, sp, #0
 8000b3a:	6078      	str	r0, [r7, #4]
  uint32_t tickstart;
  uint32_t pll_config;
  uint32_t pll_config2;

  /* Check Null pointer */
  if(RCC_OscInitStruct == NULL)
 8000b3c:	687b      	ldr	r3, [r7, #4]
 8000b3e:	2b00      	cmp	r3, #0
 8000b40:	d102      	bne.n	8000b48 <HAL_RCC_OscConfig+0x14>
  {
    return HAL_ERROR;
 8000b42:	2301      	movs	r3, #1
 8000b44:	f000 fb76 	bl	8001234 <HAL_RCC_OscConfig+0x700>

  /* Check the parameters */
  assert_param(IS_RCC_OSCILLATORTYPE(RCC_OscInitStruct->OscillatorType));

  /*------------------------------- HSE Configuration ------------------------*/ 
  if(((RCC_OscInitStruct->OscillatorType) & RCC_OSCILLATORTYPE_HSE) == RCC_OSCILLATORTYPE_HSE)
 8000b48:	687b      	ldr	r3, [r7, #4]
 8000b4a:	681b      	ldr	r3, [r3, #0]
 8000b4c:	2201      	movs	r2, #1
 8000b4e:	4013      	ands	r3, r2
 8000b50:	d100      	bne.n	8000b54 <HAL_RCC_OscConfig+0x20>
 8000b52:	e08e      	b.n	8000c72 <HAL_RCC_OscConfig+0x13e>
  {
    /* Check the parameters */
    assert_param(IS_RCC_HSE(RCC_OscInitStruct->HSEState));

    /* When the HSE is used as system clock or clock source for PLL in these cases it is not allowed to be disabled */
    if((__HAL_RCC_GET_SYSCLK_SOURCE() == RCC_SYSCLKSOURCE_STATUS_HSE) 
 8000b54:	4bc5      	ldr	r3, [pc, #788]	; (8000e6c <HAL_RCC_OscConfig+0x338>)
 8000b56:	685b      	ldr	r3, [r3, #4]
 8000b58:	220c      	movs	r2, #12
 8000b5a:	4013      	ands	r3, r2
 8000b5c:	2b04      	cmp	r3, #4
 8000b5e:	d00e      	beq.n	8000b7e <HAL_RCC_OscConfig+0x4a>
       || ((__HAL_RCC_GET_SYSCLK_SOURCE() == RCC_SYSCLKSOURCE_STATUS_PLLCLK) && (__HAL_RCC_GET_PLL_OSCSOURCE() == RCC_PLLSOURCE_HSE)))
 8000b60:	4bc2      	ldr	r3, [pc, #776]	; (8000e6c <HAL_RCC_OscConfig+0x338>)
 8000b62:	685b      	ldr	r3, [r3, #4]
 8000b64:	220c      	movs	r2, #12
 8000b66:	4013      	ands	r3, r2
 8000b68:	2b08      	cmp	r3, #8
 8000b6a:	d117      	bne.n	8000b9c <HAL_RCC_OscConfig+0x68>
 8000b6c:	4bbf      	ldr	r3, [pc, #764]	; (8000e6c <HAL_RCC_OscConfig+0x338>)
 8000b6e:	685a      	ldr	r2, [r3, #4]
 8000b70:	23c0      	movs	r3, #192	; 0xc0
 8000b72:	025b      	lsls	r3, r3, #9
 8000b74:	401a      	ands	r2, r3
 8000b76:	2380      	movs	r3, #128	; 0x80
 8000b78:	025b      	lsls	r3, r3, #9
 8000b7a:	429a      	cmp	r2, r3
 8000b7c:	d10e      	bne.n	8000b9c <HAL_RCC_OscConfig+0x68>
    {
      if((__HAL_RCC_GET_FLAG(RCC_FLAG_HSERDY) != RESET) && (RCC_OscInitStruct->HSEState == RCC_HSE_OFF))
 8000b7e:	4bbb      	ldr	r3, [pc, #748]	; (8000e6c <HAL_RCC_OscConfig+0x338>)
 8000b80:	681a      	ldr	r2, [r3, #0]
 8000b82:	2380      	movs	r3, #128	; 0x80
 8000b84:	029b      	lsls	r3, r3, #10
 8000b86:	4013      	ands	r3, r2
 8000b88:	d100      	bne.n	8000b8c <HAL_RCC_OscConfig+0x58>
 8000b8a:	e071      	b.n	8000c70 <HAL_RCC_OscConfig+0x13c>
 8000b8c:	687b      	ldr	r3, [r7, #4]
 8000b8e:	685b      	ldr	r3, [r3, #4]
 8000b90:	2b00      	cmp	r3, #0
 8000b92:	d000      	beq.n	8000b96 <HAL_RCC_OscConfig+0x62>
 8000b94:	e06c      	b.n	8000c70 <HAL_RCC_OscConfig+0x13c>
      {
        return HAL_ERROR;
 8000b96:	2301      	movs	r3, #1
 8000b98:	f000 fb4c 	bl	8001234 <HAL_RCC_OscConfig+0x700>
      }
    }
    else
    {
      /* Set the new HSE configuration ---------------------------------------*/
      __HAL_RCC_HSE_CONFIG(RCC_OscInitStruct->HSEState);
 8000b9c:	687b      	ldr	r3, [r7, #4]
 8000b9e:	685b      	ldr	r3, [r3, #4]
 8000ba0:	2b01      	cmp	r3, #1
 8000ba2:	d107      	bne.n	8000bb4 <HAL_RCC_OscConfig+0x80>
 8000ba4:	4bb1      	ldr	r3, [pc, #708]	; (8000e6c <HAL_RCC_OscConfig+0x338>)
 8000ba6:	681a      	ldr	r2, [r3, #0]
 8000ba8:	4bb0      	ldr	r3, [pc, #704]	; (8000e6c <HAL_RCC_OscConfig+0x338>)
 8000baa:	2180      	movs	r1, #128	; 0x80
 8000bac:	0249      	lsls	r1, r1, #9
 8000bae:	430a      	orrs	r2, r1
 8000bb0:	601a      	str	r2, [r3, #0]
 8000bb2:	e02f      	b.n	8000c14 <HAL_RCC_OscConfig+0xe0>
 8000bb4:	687b      	ldr	r3, [r7, #4]
 8000bb6:	685b      	ldr	r3, [r3, #4]
 8000bb8:	2b00      	cmp	r3, #0
 8000bba:	d10c      	bne.n	8000bd6 <HAL_RCC_OscConfig+0xa2>
 8000bbc:	4bab      	ldr	r3, [pc, #684]	; (8000e6c <HAL_RCC_OscConfig+0x338>)
 8000bbe:	681a      	ldr	r2, [r3, #0]
 8000bc0:	4baa      	ldr	r3, [pc, #680]	; (8000e6c <HAL_RCC_OscConfig+0x338>)
 8000bc2:	49ab      	ldr	r1, [pc, #684]	; (8000e70 <HAL_RCC_OscConfig+0x33c>)
 8000bc4:	400a      	ands	r2, r1
 8000bc6:	601a      	str	r2, [r3, #0]
 8000bc8:	4ba8      	ldr	r3, [pc, #672]	; (8000e6c <HAL_RCC_OscConfig+0x338>)
 8000bca:	681a      	ldr	r2, [r3, #0]
 8000bcc:	4ba7      	ldr	r3, [pc, #668]	; (8000e6c <HAL_RCC_OscConfig+0x338>)
 8000bce:	49a9      	ldr	r1, [pc, #676]	; (8000e74 <HAL_RCC_OscConfig+0x340>)
 8000bd0:	400a      	ands	r2, r1
 8000bd2:	601a      	str	r2, [r3, #0]
 8000bd4:	e01e      	b.n	8000c14 <HAL_RCC_OscConfig+0xe0>
 8000bd6:	687b      	ldr	r3, [r7, #4]
 8000bd8:	685b      	ldr	r3, [r3, #4]
 8000bda:	2b05      	cmp	r3, #5
 8000bdc:	d10e      	bne.n	8000bfc <HAL_RCC_OscConfig+0xc8>
 8000bde:	4ba3      	ldr	r3, [pc, #652]	; (8000e6c <HAL_RCC_OscConfig+0x338>)
 8000be0:	681a      	ldr	r2, [r3, #0]
 8000be2:	4ba2      	ldr	r3, [pc, #648]	; (8000e6c <HAL_RCC_OscConfig+0x338>)
 8000be4:	2180      	movs	r1, #128	; 0x80
 8000be6:	02c9      	lsls	r1, r1, #11
 8000be8:	430a      	orrs	r2, r1
 8000bea:	601a      	str	r2, [r3, #0]
 8000bec:	4b9f      	ldr	r3, [pc, #636]	; (8000e6c <HAL_RCC_OscConfig+0x338>)
 8000bee:	681a      	ldr	r2, [r3, #0]
 8000bf0:	4b9e      	ldr	r3, [pc, #632]	; (8000e6c <HAL_RCC_OscConfig+0x338>)
 8000bf2:	2180      	movs	r1, #128	; 0x80
 8000bf4:	0249      	lsls	r1, r1, #9
 8000bf6:	430a      	orrs	r2, r1
 8000bf8:	601a      	str	r2, [r3, #0]
 8000bfa:	e00b      	b.n	8000c14 <HAL_RCC_OscConfig+0xe0>
 8000bfc:	4b9b      	ldr	r3, [pc, #620]	; (8000e6c <HAL_RCC_OscConfig+0x338>)
 8000bfe:	681a      	ldr	r2, [r3, #0]
 8000c00:	4b9a      	ldr	r3, [pc, #616]	; (8000e6c <HAL_RCC_OscConfig+0x338>)
 8000c02:	499b      	ldr	r1, [pc, #620]	; (8000e70 <HAL_RCC_OscConfig+0x33c>)
 8000c04:	400a      	ands	r2, r1
 8000c06:	601a      	str	r2, [r3, #0]
 8000c08:	4b98      	ldr	r3, [pc, #608]	; (8000e6c <HAL_RCC_OscConfig+0x338>)
 8000c0a:	681a      	ldr	r2, [r3, #0]
 8000c0c:	4b97      	ldr	r3, [pc, #604]	; (8000e6c <HAL_RCC_OscConfig+0x338>)
 8000c0e:	4999      	ldr	r1, [pc, #612]	; (8000e74 <HAL_RCC_OscConfig+0x340>)
 8000c10:	400a      	ands	r2, r1
 8000c12:	601a      	str	r2, [r3, #0]
      

       /* Check the HSE State */
      if(RCC_OscInitStruct->HSEState != RCC_HSE_OFF)
 8000c14:	687b      	ldr	r3, [r7, #4]
 8000c16:	685b      	ldr	r3, [r3, #4]
 8000c18:	2b00      	cmp	r3, #0
 8000c1a:	d014      	beq.n	8000c46 <HAL_RCC_OscConfig+0x112>
      {
        /* Get Start Tick */
        tickstart = HAL_GetTick();
 8000c1c:	f7ff fd2c 	bl	8000678 <HAL_GetTick>
 8000c20:	0003      	movs	r3, r0
 8000c22:	61bb      	str	r3, [r7, #24]
        
        /* Wait till HSE is ready */
        while(__HAL_RCC_GET_FLAG(RCC_FLAG_HSERDY) == RESET)
 8000c24:	e008      	b.n	8000c38 <HAL_RCC_OscConfig+0x104>
        {
          if((HAL_GetTick() - tickstart ) > HSE_TIMEOUT_VALUE)
 8000c26:	f7ff fd27 	bl	8000678 <HAL_GetTick>
 8000c2a:	0002      	movs	r2, r0
 8000c2c:	69bb      	ldr	r3, [r7, #24]
 8000c2e:	1ad3      	subs	r3, r2, r3
 8000c30:	2b64      	cmp	r3, #100	; 0x64
 8000c32:	d901      	bls.n	8000c38 <HAL_RCC_OscConfig+0x104>
          {
            return HAL_TIMEOUT;
 8000c34:	2303      	movs	r3, #3
 8000c36:	e2fd      	b.n	8001234 <HAL_RCC_OscConfig+0x700>
        while(__HAL_RCC_GET_FLAG(RCC_FLAG_HSERDY) == RESET)
 8000c38:	4b8c      	ldr	r3, [pc, #560]	; (8000e6c <HAL_RCC_OscConfig+0x338>)
 8000c3a:	681a      	ldr	r2, [r3, #0]
 8000c3c:	2380      	movs	r3, #128	; 0x80
 8000c3e:	029b      	lsls	r3, r3, #10
 8000c40:	4013      	ands	r3, r2
 8000c42:	d0f0      	beq.n	8000c26 <HAL_RCC_OscConfig+0xf2>
 8000c44:	e015      	b.n	8000c72 <HAL_RCC_OscConfig+0x13e>
        }
      }
      else
      {
        /* Get Start Tick */
        tickstart = HAL_GetTick();
 8000c46:	f7ff fd17 	bl	8000678 <HAL_GetTick>
 8000c4a:	0003      	movs	r3, r0
 8000c4c:	61bb      	str	r3, [r7, #24]
        
        /* Wait till HSE is disabled */
        while(__HAL_RCC_GET_FLAG(RCC_FLAG_HSERDY) != RESET)
 8000c4e:	e008      	b.n	8000c62 <HAL_RCC_OscConfig+0x12e>
        {
           if((HAL_GetTick() - tickstart ) > HSE_TIMEOUT_VALUE)
 8000c50:	f7ff fd12 	bl	8000678 <HAL_GetTick>
 8000c54:	0002      	movs	r2, r0
 8000c56:	69bb      	ldr	r3, [r7, #24]
 8000c58:	1ad3      	subs	r3, r2, r3
 8000c5a:	2b64      	cmp	r3, #100	; 0x64
 8000c5c:	d901      	bls.n	8000c62 <HAL_RCC_OscConfig+0x12e>
          {
            return HAL_TIMEOUT;
 8000c5e:	2303      	movs	r3, #3
 8000c60:	e2e8      	b.n	8001234 <HAL_RCC_OscConfig+0x700>
        while(__HAL_RCC_GET_FLAG(RCC_FLAG_HSERDY) != RESET)
 8000c62:	4b82      	ldr	r3, [pc, #520]	; (8000e6c <HAL_RCC_OscConfig+0x338>)
 8000c64:	681a      	ldr	r2, [r3, #0]
 8000c66:	2380      	movs	r3, #128	; 0x80
 8000c68:	029b      	lsls	r3, r3, #10
 8000c6a:	4013      	ands	r3, r2
 8000c6c:	d1f0      	bne.n	8000c50 <HAL_RCC_OscConfig+0x11c>
 8000c6e:	e000      	b.n	8000c72 <HAL_RCC_OscConfig+0x13e>
      if((__HAL_RCC_GET_FLAG(RCC_FLAG_HSERDY) != RESET) && (RCC_OscInitStruct->HSEState == RCC_HSE_OFF))
 8000c70:	46c0      	nop			; (mov r8, r8)
        }
      }
    }
  }
  /*----------------------------- HSI Configuration --------------------------*/ 
  if(((RCC_OscInitStruct->OscillatorType) & RCC_OSCILLATORTYPE_HSI) == RCC_OSCILLATORTYPE_HSI)
 8000c72:	687b      	ldr	r3, [r7, #4]
 8000c74:	681b      	ldr	r3, [r3, #0]
 8000c76:	2202      	movs	r2, #2
 8000c78:	4013      	ands	r3, r2
 8000c7a:	d100      	bne.n	8000c7e <HAL_RCC_OscConfig+0x14a>
 8000c7c:	e06c      	b.n	8000d58 <HAL_RCC_OscConfig+0x224>
    /* Check the parameters */
    assert_param(IS_RCC_HSI(RCC_OscInitStruct->HSIState));
    assert_param(IS_RCC_CALIBRATION_VALUE(RCC_OscInitStruct->HSICalibrationValue));
    
    /* Check if HSI is used as system clock or as PLL source when PLL is selected as system clock */ 
    if((__HAL_RCC_GET_SYSCLK_SOURCE() == RCC_SYSCLKSOURCE_STATUS_HSI) 
 8000c7e:	4b7b      	ldr	r3, [pc, #492]	; (8000e6c <HAL_RCC_OscConfig+0x338>)
 8000c80:	685b      	ldr	r3, [r3, #4]
 8000c82:	220c      	movs	r2, #12
 8000c84:	4013      	ands	r3, r2
 8000c86:	d00e      	beq.n	8000ca6 <HAL_RCC_OscConfig+0x172>
       || ((__HAL_RCC_GET_SYSCLK_SOURCE() == RCC_SYSCLKSOURCE_STATUS_PLLCLK) && (__HAL_RCC_GET_PLL_OSCSOURCE() == RCC_PLLSOURCE_HSI)))
 8000c88:	4b78      	ldr	r3, [pc, #480]	; (8000e6c <HAL_RCC_OscConfig+0x338>)
 8000c8a:	685b      	ldr	r3, [r3, #4]
 8000c8c:	220c      	movs	r2, #12
 8000c8e:	4013      	ands	r3, r2
 8000c90:	2b08      	cmp	r3, #8
 8000c92:	d11f      	bne.n	8000cd4 <HAL_RCC_OscConfig+0x1a0>
 8000c94:	4b75      	ldr	r3, [pc, #468]	; (8000e6c <HAL_RCC_OscConfig+0x338>)
 8000c96:	685a      	ldr	r2, [r3, #4]
 8000c98:	23c0      	movs	r3, #192	; 0xc0
 8000c9a:	025b      	lsls	r3, r3, #9
 8000c9c:	401a      	ands	r2, r3
 8000c9e:	2380      	movs	r3, #128	; 0x80
 8000ca0:	021b      	lsls	r3, r3, #8
 8000ca2:	429a      	cmp	r2, r3
 8000ca4:	d116      	bne.n	8000cd4 <HAL_RCC_OscConfig+0x1a0>
    {
      /* When HSI is used as system clock it will not disabled */
      if((__HAL_RCC_GET_FLAG(RCC_FLAG_HSIRDY) != RESET) && (RCC_OscInitStruct->HSIState != RCC_HSI_ON))
 8000ca6:	4b71      	ldr	r3, [pc, #452]	; (8000e6c <HAL_RCC_OscConfig+0x338>)
 8000ca8:	681b      	ldr	r3, [r3, #0]
 8000caa:	2202      	movs	r2, #2
 8000cac:	4013      	ands	r3, r2
 8000cae:	d005      	beq.n	8000cbc <HAL_RCC_OscConfig+0x188>
 8000cb0:	687b      	ldr	r3, [r7, #4]
 8000cb2:	68db      	ldr	r3, [r3, #12]
 8000cb4:	2b01      	cmp	r3, #1
 8000cb6:	d001      	beq.n	8000cbc <HAL_RCC_OscConfig+0x188>
      {
        return HAL_ERROR;
 8000cb8:	2301      	movs	r3, #1
 8000cba:	e2bb      	b.n	8001234 <HAL_RCC_OscConfig+0x700>
      }
      /* Otherwise, just the calibration is allowed */
      else
      {
        /* Adjusts the Internal High Speed oscillator (HSI) calibration value.*/
        __HAL_RCC_HSI_CALIBRATIONVALUE_ADJUST(RCC_OscInitStruct->HSICalibrationValue);
 8000cbc:	4b6b      	ldr	r3, [pc, #428]	; (8000e6c <HAL_RCC_OscConfig+0x338>)
 8000cbe:	681b      	ldr	r3, [r3, #0]
 8000cc0:	22f8      	movs	r2, #248	; 0xf8
 8000cc2:	4393      	bics	r3, r2
 8000cc4:	0019      	movs	r1, r3
 8000cc6:	687b      	ldr	r3, [r7, #4]
 8000cc8:	691b      	ldr	r3, [r3, #16]
 8000cca:	00da      	lsls	r2, r3, #3
 8000ccc:	4b67      	ldr	r3, [pc, #412]	; (8000e6c <HAL_RCC_OscConfig+0x338>)
 8000cce:	430a      	orrs	r2, r1
 8000cd0:	601a      	str	r2, [r3, #0]
      if((__HAL_RCC_GET_FLAG(RCC_FLAG_HSIRDY) != RESET) && (RCC_OscInitStruct->HSIState != RCC_HSI_ON))
 8000cd2:	e041      	b.n	8000d58 <HAL_RCC_OscConfig+0x224>
      }
    }
    else
    {
      /* Check the HSI State */
      if(RCC_OscInitStruct->HSIState != RCC_HSI_OFF)
 8000cd4:	687b      	ldr	r3, [r7, #4]
 8000cd6:	68db      	ldr	r3, [r3, #12]
 8000cd8:	2b00      	cmp	r3, #0
 8000cda:	d024      	beq.n	8000d26 <HAL_RCC_OscConfig+0x1f2>
      {
       /* Enable the Internal High Speed oscillator (HSI). */
        __HAL_RCC_HSI_ENABLE();
 8000cdc:	4b63      	ldr	r3, [pc, #396]	; (8000e6c <HAL_RCC_OscConfig+0x338>)
 8000cde:	681a      	ldr	r2, [r3, #0]
 8000ce0:	4b62      	ldr	r3, [pc, #392]	; (8000e6c <HAL_RCC_OscConfig+0x338>)
 8000ce2:	2101      	movs	r1, #1
 8000ce4:	430a      	orrs	r2, r1
 8000ce6:	601a      	str	r2, [r3, #0]
        
        /* Get Start Tick */
        tickstart = HAL_GetTick();
 8000ce8:	f7ff fcc6 	bl	8000678 <HAL_GetTick>
 8000cec:	0003      	movs	r3, r0
 8000cee:	61bb      	str	r3, [r7, #24]
        
        /* Wait till HSI is ready */
        while(__HAL_RCC_GET_FLAG(RCC_FLAG_HSIRDY) == RESET)
 8000cf0:	e008      	b.n	8000d04 <HAL_RCC_OscConfig+0x1d0>
        {
          if((HAL_GetTick() - tickstart ) > HSI_TIMEOUT_VALUE)
 8000cf2:	f7ff fcc1 	bl	8000678 <HAL_GetTick>
 8000cf6:	0002      	movs	r2, r0
 8000cf8:	69bb      	ldr	r3, [r7, #24]
 8000cfa:	1ad3      	subs	r3, r2, r3
 8000cfc:	2b02      	cmp	r3, #2
 8000cfe:	d901      	bls.n	8000d04 <HAL_RCC_OscConfig+0x1d0>
          {
            return HAL_TIMEOUT;
 8000d00:	2303      	movs	r3, #3
 8000d02:	e297      	b.n	8001234 <HAL_RCC_OscConfig+0x700>
        while(__HAL_RCC_GET_FLAG(RCC_FLAG_HSIRDY) == RESET)
 8000d04:	4b59      	ldr	r3, [pc, #356]	; (8000e6c <HAL_RCC_OscConfig+0x338>)
 8000d06:	681b      	ldr	r3, [r3, #0]
 8000d08:	2202      	movs	r2, #2
 8000d0a:	4013      	ands	r3, r2
 8000d0c:	d0f1      	beq.n	8000cf2 <HAL_RCC_OscConfig+0x1be>
          }
        }
                
        /* Adjusts the Internal High Speed oscillator (HSI) calibration value.*/
        __HAL_RCC_HSI_CALIBRATIONVALUE_ADJUST(RCC_OscInitStruct->HSICalibrationValue);
 8000d0e:	4b57      	ldr	r3, [pc, #348]	; (8000e6c <HAL_RCC_OscConfig+0x338>)
 8000d10:	681b      	ldr	r3, [r3, #0]
 8000d12:	22f8      	movs	r2, #248	; 0xf8
 8000d14:	4393      	bics	r3, r2
 8000d16:	0019      	movs	r1, r3
 8000d18:	687b      	ldr	r3, [r7, #4]
 8000d1a:	691b      	ldr	r3, [r3, #16]
 8000d1c:	00da      	lsls	r2, r3, #3
 8000d1e:	4b53      	ldr	r3, [pc, #332]	; (8000e6c <HAL_RCC_OscConfig+0x338>)
 8000d20:	430a      	orrs	r2, r1
 8000d22:	601a      	str	r2, [r3, #0]
 8000d24:	e018      	b.n	8000d58 <HAL_RCC_OscConfig+0x224>
      }
      else
      {
        /* Disable the Internal High Speed oscillator (HSI). */
        __HAL_RCC_HSI_DISABLE();
 8000d26:	4b51      	ldr	r3, [pc, #324]	; (8000e6c <HAL_RCC_OscConfig+0x338>)
 8000d28:	681a      	ldr	r2, [r3, #0]
 8000d2a:	4b50      	ldr	r3, [pc, #320]	; (8000e6c <HAL_RCC_OscConfig+0x338>)
 8000d2c:	2101      	movs	r1, #1
 8000d2e:	438a      	bics	r2, r1
 8000d30:	601a      	str	r2, [r3, #0]
        
        /* Get Start Tick */
        tickstart = HAL_GetTick();
 8000d32:	f7ff fca1 	bl	8000678 <HAL_GetTick>
 8000d36:	0003      	movs	r3, r0
 8000d38:	61bb      	str	r3, [r7, #24]
        
        /* Wait till HSI is disabled */
        while(__HAL_RCC_GET_FLAG(RCC_FLAG_HSIRDY) != RESET)
 8000d3a:	e008      	b.n	8000d4e <HAL_RCC_OscConfig+0x21a>
        {
          if((HAL_GetTick() - tickstart ) > HSI_TIMEOUT_VALUE)
 8000d3c:	f7ff fc9c 	bl	8000678 <HAL_GetTick>
 8000d40:	0002      	movs	r2, r0
 8000d42:	69bb      	ldr	r3, [r7, #24]
 8000d44:	1ad3      	subs	r3, r2, r3
 8000d46:	2b02      	cmp	r3, #2
 8000d48:	d901      	bls.n	8000d4e <HAL_RCC_OscConfig+0x21a>
          {
            return HAL_TIMEOUT;
 8000d4a:	2303      	movs	r3, #3
 8000d4c:	e272      	b.n	8001234 <HAL_RCC_OscConfig+0x700>
        while(__HAL_RCC_GET_FLAG(RCC_FLAG_HSIRDY) != RESET)
 8000d4e:	4b47      	ldr	r3, [pc, #284]	; (8000e6c <HAL_RCC_OscConfig+0x338>)
 8000d50:	681b      	ldr	r3, [r3, #0]
 8000d52:	2202      	movs	r2, #2
 8000d54:	4013      	ands	r3, r2
 8000d56:	d1f1      	bne.n	8000d3c <HAL_RCC_OscConfig+0x208>
        }
      }
    }
  }
  /*------------------------------ LSI Configuration -------------------------*/ 
  if(((RCC_OscInitStruct->OscillatorType) & RCC_OSCILLATORTYPE_LSI) == RCC_OSCILLATORTYPE_LSI)
 8000d58:	687b      	ldr	r3, [r7, #4]
 8000d5a:	681b      	ldr	r3, [r3, #0]
 8000d5c:	2208      	movs	r2, #8
 8000d5e:	4013      	ands	r3, r2
 8000d60:	d036      	beq.n	8000dd0 <HAL_RCC_OscConfig+0x29c>
  {
    /* Check the parameters */
    assert_param(IS_RCC_LSI(RCC_OscInitStruct->LSIState));
    
    /* Check the LSI State */
    if(RCC_OscInitStruct->LSIState != RCC_LSI_OFF)
 8000d62:	687b      	ldr	r3, [r7, #4]
 8000d64:	69db      	ldr	r3, [r3, #28]
 8000d66:	2b00      	cmp	r3, #0
 8000d68:	d019      	beq.n	8000d9e <HAL_RCC_OscConfig+0x26a>
    {
      /* Enable the Internal Low Speed oscillator (LSI). */
      __HAL_RCC_LSI_ENABLE();
 8000d6a:	4b40      	ldr	r3, [pc, #256]	; (8000e6c <HAL_RCC_OscConfig+0x338>)
 8000d6c:	6a5a      	ldr	r2, [r3, #36]	; 0x24
 8000d6e:	4b3f      	ldr	r3, [pc, #252]	; (8000e6c <HAL_RCC_OscConfig+0x338>)
 8000d70:	2101      	movs	r1, #1
 8000d72:	430a      	orrs	r2, r1
 8000d74:	625a      	str	r2, [r3, #36]	; 0x24
      
      /* Get Start Tick */
      tickstart = HAL_GetTick();
 8000d76:	f7ff fc7f 	bl	8000678 <HAL_GetTick>
 8000d7a:	0003      	movs	r3, r0
 8000d7c:	61bb      	str	r3, [r7, #24]
      
      /* Wait till LSI is ready */  
      while(__HAL_RCC_GET_FLAG(RCC_FLAG_LSIRDY) == RESET)
 8000d7e:	e008      	b.n	8000d92 <HAL_RCC_OscConfig+0x25e>
      {
        if((HAL_GetTick() - tickstart ) > LSI_TIMEOUT_VALUE)
 8000d80:	f7ff fc7a 	bl	8000678 <HAL_GetTick>
 8000d84:	0002      	movs	r2, r0
 8000d86:	69bb      	ldr	r3, [r7, #24]
 8000d88:	1ad3      	subs	r3, r2, r3
 8000d8a:	2b02      	cmp	r3, #2
 8000d8c:	d901      	bls.n	8000d92 <HAL_RCC_OscConfig+0x25e>
        {
          return HAL_TIMEOUT;
 8000d8e:	2303      	movs	r3, #3
 8000d90:	e250      	b.n	8001234 <HAL_RCC_OscConfig+0x700>
      while(__HAL_RCC_GET_FLAG(RCC_FLAG_LSIRDY) == RESET)
 8000d92:	4b36      	ldr	r3, [pc, #216]	; (8000e6c <HAL_RCC_OscConfig+0x338>)
 8000d94:	6a5b      	ldr	r3, [r3, #36]	; 0x24
 8000d96:	2202      	movs	r2, #2
 8000d98:	4013      	ands	r3, r2
 8000d9a:	d0f1      	beq.n	8000d80 <HAL_RCC_OscConfig+0x24c>
 8000d9c:	e018      	b.n	8000dd0 <HAL_RCC_OscConfig+0x29c>
      }
    }
    else
    {
      /* Disable the Internal Low Speed oscillator (LSI). */
      __HAL_RCC_LSI_DISABLE();
 8000d9e:	4b33      	ldr	r3, [pc, #204]	; (8000e6c <HAL_RCC_OscConfig+0x338>)
 8000da0:	6a5a      	ldr	r2, [r3, #36]	; 0x24
 8000da2:	4b32      	ldr	r3, [pc, #200]	; (8000e6c <HAL_RCC_OscConfig+0x338>)
 8000da4:	2101      	movs	r1, #1
 8000da6:	438a      	bics	r2, r1
 8000da8:	625a      	str	r2, [r3, #36]	; 0x24
      
      /* Get Start Tick */
      tickstart = HAL_GetTick();
 8000daa:	f7ff fc65 	bl	8000678 <HAL_GetTick>
 8000dae:	0003      	movs	r3, r0
 8000db0:	61bb      	str	r3, [r7, #24]
      
      /* Wait till LSI is disabled */  
      while(__HAL_RCC_GET_FLAG(RCC_FLAG_LSIRDY) != RESET)
 8000db2:	e008      	b.n	8000dc6 <HAL_RCC_OscConfig+0x292>
      {
        if((HAL_GetTick() - tickstart ) > LSI_TIMEOUT_VALUE)
 8000db4:	f7ff fc60 	bl	8000678 <HAL_GetTick>
 8000db8:	0002      	movs	r2, r0
 8000dba:	69bb      	ldr	r3, [r7, #24]
 8000dbc:	1ad3      	subs	r3, r2, r3
 8000dbe:	2b02      	cmp	r3, #2
 8000dc0:	d901      	bls.n	8000dc6 <HAL_RCC_OscConfig+0x292>
        {
          return HAL_TIMEOUT;
 8000dc2:	2303      	movs	r3, #3
 8000dc4:	e236      	b.n	8001234 <HAL_RCC_OscConfig+0x700>
      while(__HAL_RCC_GET_FLAG(RCC_FLAG_LSIRDY) != RESET)
 8000dc6:	4b29      	ldr	r3, [pc, #164]	; (8000e6c <HAL_RCC_OscConfig+0x338>)
 8000dc8:	6a5b      	ldr	r3, [r3, #36]	; 0x24
 8000dca:	2202      	movs	r2, #2
 8000dcc:	4013      	ands	r3, r2
 8000dce:	d1f1      	bne.n	8000db4 <HAL_RCC_OscConfig+0x280>
        }
      }
    }
  }
  /*------------------------------ LSE Configuration -------------------------*/ 
  if(((RCC_OscInitStruct->OscillatorType) & RCC_OSCILLATORTYPE_LSE) == RCC_OSCILLATORTYPE_LSE)
 8000dd0:	687b      	ldr	r3, [r7, #4]
 8000dd2:	681b      	ldr	r3, [r3, #0]
 8000dd4:	2204      	movs	r2, #4
 8000dd6:	4013      	ands	r3, r2
 8000dd8:	d100      	bne.n	8000ddc <HAL_RCC_OscConfig+0x2a8>
 8000dda:	e0b5      	b.n	8000f48 <HAL_RCC_OscConfig+0x414>
  {
    FlagStatus       pwrclkchanged = RESET;
 8000ddc:	231f      	movs	r3, #31
 8000dde:	18fb      	adds	r3, r7, r3
 8000de0:	2200      	movs	r2, #0
 8000de2:	701a      	strb	r2, [r3, #0]
    /* Check the parameters */
    assert_param(IS_RCC_LSE(RCC_OscInitStruct->LSEState));

    /* Update LSE configuration in Backup Domain control register    */
    /* Requires to enable write access to Backup Domain of necessary */
    if(__HAL_RCC_PWR_IS_CLK_DISABLED())
 8000de4:	4b21      	ldr	r3, [pc, #132]	; (8000e6c <HAL_RCC_OscConfig+0x338>)
 8000de6:	69da      	ldr	r2, [r3, #28]
 8000de8:	2380      	movs	r3, #128	; 0x80
 8000dea:	055b      	lsls	r3, r3, #21
 8000dec:	4013      	ands	r3, r2
 8000dee:	d111      	bne.n	8000e14 <HAL_RCC_OscConfig+0x2e0>
    {
      __HAL_RCC_PWR_CLK_ENABLE();
 8000df0:	4b1e      	ldr	r3, [pc, #120]	; (8000e6c <HAL_RCC_OscConfig+0x338>)
 8000df2:	69da      	ldr	r2, [r3, #28]
 8000df4:	4b1d      	ldr	r3, [pc, #116]	; (8000e6c <HAL_RCC_OscConfig+0x338>)
 8000df6:	2180      	movs	r1, #128	; 0x80
 8000df8:	0549      	lsls	r1, r1, #21
 8000dfa:	430a      	orrs	r2, r1
 8000dfc:	61da      	str	r2, [r3, #28]
 8000dfe:	4b1b      	ldr	r3, [pc, #108]	; (8000e6c <HAL_RCC_OscConfig+0x338>)
 8000e00:	69da      	ldr	r2, [r3, #28]
 8000e02:	2380      	movs	r3, #128	; 0x80
 8000e04:	055b      	lsls	r3, r3, #21
 8000e06:	4013      	ands	r3, r2
 8000e08:	60fb      	str	r3, [r7, #12]
 8000e0a:	68fb      	ldr	r3, [r7, #12]
      pwrclkchanged = SET;
 8000e0c:	231f      	movs	r3, #31
 8000e0e:	18fb      	adds	r3, r7, r3
 8000e10:	2201      	movs	r2, #1
 8000e12:	701a      	strb	r2, [r3, #0]
    }
    
    if(HAL_IS_BIT_CLR(PWR->CR, PWR_CR_DBP))
 8000e14:	4b18      	ldr	r3, [pc, #96]	; (8000e78 <HAL_RCC_OscConfig+0x344>)
 8000e16:	681a      	ldr	r2, [r3, #0]
 8000e18:	2380      	movs	r3, #128	; 0x80
 8000e1a:	005b      	lsls	r3, r3, #1
 8000e1c:	4013      	ands	r3, r2
 8000e1e:	d11a      	bne.n	8000e56 <HAL_RCC_OscConfig+0x322>
    {
      /* Enable write access to Backup domain */
      SET_BIT(PWR->CR, PWR_CR_DBP);
 8000e20:	4b15      	ldr	r3, [pc, #84]	; (8000e78 <HAL_RCC_OscConfig+0x344>)
 8000e22:	681a      	ldr	r2, [r3, #0]
 8000e24:	4b14      	ldr	r3, [pc, #80]	; (8000e78 <HAL_RCC_OscConfig+0x344>)
 8000e26:	2180      	movs	r1, #128	; 0x80
 8000e28:	0049      	lsls	r1, r1, #1
 8000e2a:	430a      	orrs	r2, r1
 8000e2c:	601a      	str	r2, [r3, #0]
      
      /* Wait for Backup domain Write protection disable */
      tickstart = HAL_GetTick();
 8000e2e:	f7ff fc23 	bl	8000678 <HAL_GetTick>
 8000e32:	0003      	movs	r3, r0
 8000e34:	61bb      	str	r3, [r7, #24]

      while(HAL_IS_BIT_CLR(PWR->CR, PWR_CR_DBP))
 8000e36:	e008      	b.n	8000e4a <HAL_RCC_OscConfig+0x316>
      {
        if((HAL_GetTick() - tickstart) > RCC_DBP_TIMEOUT_VALUE)
 8000e38:	f7ff fc1e 	bl	8000678 <HAL_GetTick>
 8000e3c:	0002      	movs	r2, r0
 8000e3e:	69bb      	ldr	r3, [r7, #24]
 8000e40:	1ad3      	subs	r3, r2, r3
 8000e42:	2b64      	cmp	r3, #100	; 0x64
 8000e44:	d901      	bls.n	8000e4a <HAL_RCC_OscConfig+0x316>
        {
          return HAL_TIMEOUT;
 8000e46:	2303      	movs	r3, #3
 8000e48:	e1f4      	b.n	8001234 <HAL_RCC_OscConfig+0x700>
      while(HAL_IS_BIT_CLR(PWR->CR, PWR_CR_DBP))
 8000e4a:	4b0b      	ldr	r3, [pc, #44]	; (8000e78 <HAL_RCC_OscConfig+0x344>)
 8000e4c:	681a      	ldr	r2, [r3, #0]
 8000e4e:	2380      	movs	r3, #128	; 0x80
 8000e50:	005b      	lsls	r3, r3, #1
 8000e52:	4013      	ands	r3, r2
 8000e54:	d0f0      	beq.n	8000e38 <HAL_RCC_OscConfig+0x304>
        }
      }
    }

    /* Set the new LSE configuration -----------------------------------------*/
    __HAL_RCC_LSE_CONFIG(RCC_OscInitStruct->LSEState);
 8000e56:	687b      	ldr	r3, [r7, #4]
 8000e58:	689b      	ldr	r3, [r3, #8]
 8000e5a:	2b01      	cmp	r3, #1
 8000e5c:	d10e      	bne.n	8000e7c <HAL_RCC_OscConfig+0x348>
 8000e5e:	4b03      	ldr	r3, [pc, #12]	; (8000e6c <HAL_RCC_OscConfig+0x338>)
 8000e60:	6a1a      	ldr	r2, [r3, #32]
 8000e62:	4b02      	ldr	r3, [pc, #8]	; (8000e6c <HAL_RCC_OscConfig+0x338>)
 8000e64:	2101      	movs	r1, #1
 8000e66:	430a      	orrs	r2, r1
 8000e68:	621a      	str	r2, [r3, #32]
 8000e6a:	e035      	b.n	8000ed8 <HAL_RCC_OscConfig+0x3a4>
 8000e6c:	40021000 	.word	0x40021000
 8000e70:	fffeffff 	.word	0xfffeffff
 8000e74:	fffbffff 	.word	0xfffbffff
 8000e78:	40007000 	.word	0x40007000
 8000e7c:	687b      	ldr	r3, [r7, #4]
 8000e7e:	689b      	ldr	r3, [r3, #8]
 8000e80:	2b00      	cmp	r3, #0
 8000e82:	d10c      	bne.n	8000e9e <HAL_RCC_OscConfig+0x36a>
 8000e84:	4bca      	ldr	r3, [pc, #808]	; (80011b0 <HAL_RCC_OscConfig+0x67c>)
 8000e86:	6a1a      	ldr	r2, [r3, #32]
 8000e88:	4bc9      	ldr	r3, [pc, #804]	; (80011b0 <HAL_RCC_OscConfig+0x67c>)
 8000e8a:	2101      	movs	r1, #1
 8000e8c:	438a      	bics	r2, r1
 8000e8e:	621a      	str	r2, [r3, #32]
 8000e90:	4bc7      	ldr	r3, [pc, #796]	; (80011b0 <HAL_RCC_OscConfig+0x67c>)
 8000e92:	6a1a      	ldr	r2, [r3, #32]
 8000e94:	4bc6      	ldr	r3, [pc, #792]	; (80011b0 <HAL_RCC_OscConfig+0x67c>)
 8000e96:	2104      	movs	r1, #4
 8000e98:	438a      	bics	r2, r1
 8000e9a:	621a      	str	r2, [r3, #32]
 8000e9c:	e01c      	b.n	8000ed8 <HAL_RCC_OscConfig+0x3a4>
 8000e9e:	687b      	ldr	r3, [r7, #4]
 8000ea0:	689b      	ldr	r3, [r3, #8]
 8000ea2:	2b05      	cmp	r3, #5
 8000ea4:	d10c      	bne.n	8000ec0 <HAL_RCC_OscConfig+0x38c>
 8000ea6:	4bc2      	ldr	r3, [pc, #776]	; (80011b0 <HAL_RCC_OscConfig+0x67c>)
 8000ea8:	6a1a      	ldr	r2, [r3, #32]
 8000eaa:	4bc1      	ldr	r3, [pc, #772]	; (80011b0 <HAL_RCC_OscConfig+0x67c>)
 8000eac:	2104      	movs	r1, #4
 8000eae:	430a      	orrs	r2, r1
 8000eb0:	621a      	str	r2, [r3, #32]
 8000eb2:	4bbf      	ldr	r3, [pc, #764]	; (80011b0 <HAL_RCC_OscConfig+0x67c>)
 8000eb4:	6a1a      	ldr	r2, [r3, #32]
 8000eb6:	4bbe      	ldr	r3, [pc, #760]	; (80011b0 <HAL_RCC_OscConfig+0x67c>)
 8000eb8:	2101      	movs	r1, #1
 8000eba:	430a      	orrs	r2, r1
 8000ebc:	621a      	str	r2, [r3, #32]
 8000ebe:	e00b      	b.n	8000ed8 <HAL_RCC_OscConfig+0x3a4>
 8000ec0:	4bbb      	ldr	r3, [pc, #748]	; (80011b0 <HAL_RCC_OscConfig+0x67c>)
 8000ec2:	6a1a      	ldr	r2, [r3, #32]
 8000ec4:	4bba      	ldr	r3, [pc, #744]	; (80011b0 <HAL_RCC_OscConfig+0x67c>)
 8000ec6:	2101      	movs	r1, #1
 8000ec8:	438a      	bics	r2, r1
 8000eca:	621a      	str	r2, [r3, #32]
 8000ecc:	4bb8      	ldr	r3, [pc, #736]	; (80011b0 <HAL_RCC_OscConfig+0x67c>)
 8000ece:	6a1a      	ldr	r2, [r3, #32]
 8000ed0:	4bb7      	ldr	r3, [pc, #732]	; (80011b0 <HAL_RCC_OscConfig+0x67c>)
 8000ed2:	2104      	movs	r1, #4
 8000ed4:	438a      	bics	r2, r1
 8000ed6:	621a      	str	r2, [r3, #32]
    /* Check the LSE State */
    if(RCC_OscInitStruct->LSEState != RCC_LSE_OFF)
 8000ed8:	687b      	ldr	r3, [r7, #4]
 8000eda:	689b      	ldr	r3, [r3, #8]
 8000edc:	2b00      	cmp	r3, #0
 8000ede:	d014      	beq.n	8000f0a <HAL_RCC_OscConfig+0x3d6>
    {
      /* Get Start Tick */
      tickstart = HAL_GetTick();
 8000ee0:	f7ff fbca 	bl	8000678 <HAL_GetTick>
 8000ee4:	0003      	movs	r3, r0
 8000ee6:	61bb      	str	r3, [r7, #24]
      
      /* Wait till LSE is ready */  
      while(__HAL_RCC_GET_FLAG(RCC_FLAG_LSERDY) == RESET)
 8000ee8:	e009      	b.n	8000efe <HAL_RCC_OscConfig+0x3ca>
      {
        if((HAL_GetTick() - tickstart ) > RCC_LSE_TIMEOUT_VALUE)
 8000eea:	f7ff fbc5 	bl	8000678 <HAL_GetTick>
 8000eee:	0002      	movs	r2, r0
 8000ef0:	69bb      	ldr	r3, [r7, #24]
 8000ef2:	1ad3      	subs	r3, r2, r3
 8000ef4:	4aaf      	ldr	r2, [pc, #700]	; (80011b4 <HAL_RCC_OscConfig+0x680>)
 8000ef6:	4293      	cmp	r3, r2
 8000ef8:	d901      	bls.n	8000efe <HAL_RCC_OscConfig+0x3ca>
        {
          return HAL_TIMEOUT;
 8000efa:	2303      	movs	r3, #3
 8000efc:	e19a      	b.n	8001234 <HAL_RCC_OscConfig+0x700>
      while(__HAL_RCC_GET_FLAG(RCC_FLAG_LSERDY) == RESET)
 8000efe:	4bac      	ldr	r3, [pc, #688]	; (80011b0 <HAL_RCC_OscConfig+0x67c>)
 8000f00:	6a1b      	ldr	r3, [r3, #32]
 8000f02:	2202      	movs	r2, #2
 8000f04:	4013      	ands	r3, r2
 8000f06:	d0f0      	beq.n	8000eea <HAL_RCC_OscConfig+0x3b6>
 8000f08:	e013      	b.n	8000f32 <HAL_RCC_OscConfig+0x3fe>
      }
    }
    else
    {
      /* Get Start Tick */
      tickstart = HAL_GetTick();
 8000f0a:	f7ff fbb5 	bl	8000678 <HAL_GetTick>
 8000f0e:	0003      	movs	r3, r0
 8000f10:	61bb      	str	r3, [r7, #24]
      
      /* Wait till LSE is disabled */  
      while(__HAL_RCC_GET_FLAG(RCC_FLAG_LSERDY) != RESET)
 8000f12:	e009      	b.n	8000f28 <HAL_RCC_OscConfig+0x3f4>
      {
        if((HAL_GetTick() - tickstart ) > RCC_LSE_TIMEOUT_VALUE)
 8000f14:	f7ff fbb0 	bl	8000678 <HAL_GetTick>
 8000f18:	0002      	movs	r2, r0
 8000f1a:	69bb      	ldr	r3, [r7, #24]
 8000f1c:	1ad3      	subs	r3, r2, r3
 8000f1e:	4aa5      	ldr	r2, [pc, #660]	; (80011b4 <HAL_RCC_OscConfig+0x680>)
 8000f20:	4293      	cmp	r3, r2
 8000f22:	d901      	bls.n	8000f28 <HAL_RCC_OscConfig+0x3f4>
        {
          return HAL_TIMEOUT;
 8000f24:	2303      	movs	r3, #3
 8000f26:	e185      	b.n	8001234 <HAL_RCC_OscConfig+0x700>
      while(__HAL_RCC_GET_FLAG(RCC_FLAG_LSERDY) != RESET)
 8000f28:	4ba1      	ldr	r3, [pc, #644]	; (80011b0 <HAL_RCC_OscConfig+0x67c>)
 8000f2a:	6a1b      	ldr	r3, [r3, #32]
 8000f2c:	2202      	movs	r2, #2
 8000f2e:	4013      	ands	r3, r2
 8000f30:	d1f0      	bne.n	8000f14 <HAL_RCC_OscConfig+0x3e0>
        }
      }
    }

    /* Require to disable power clock if necessary */
    if(pwrclkchanged == SET)
 8000f32:	231f      	movs	r3, #31
 8000f34:	18fb      	adds	r3, r7, r3
 8000f36:	781b      	ldrb	r3, [r3, #0]
 8000f38:	2b01      	cmp	r3, #1
 8000f3a:	d105      	bne.n	8000f48 <HAL_RCC_OscConfig+0x414>
    {
      __HAL_RCC_PWR_CLK_DISABLE();
 8000f3c:	4b9c      	ldr	r3, [pc, #624]	; (80011b0 <HAL_RCC_OscConfig+0x67c>)
 8000f3e:	69da      	ldr	r2, [r3, #28]
 8000f40:	4b9b      	ldr	r3, [pc, #620]	; (80011b0 <HAL_RCC_OscConfig+0x67c>)
 8000f42:	499d      	ldr	r1, [pc, #628]	; (80011b8 <HAL_RCC_OscConfig+0x684>)
 8000f44:	400a      	ands	r2, r1
 8000f46:	61da      	str	r2, [r3, #28]
    }
  }

  /*----------------------------- HSI14 Configuration --------------------------*/
  if(((RCC_OscInitStruct->OscillatorType) & RCC_OSCILLATORTYPE_HSI14) == RCC_OSCILLATORTYPE_HSI14)
 8000f48:	687b      	ldr	r3, [r7, #4]
 8000f4a:	681b      	ldr	r3, [r3, #0]
 8000f4c:	2210      	movs	r2, #16
 8000f4e:	4013      	ands	r3, r2
 8000f50:	d063      	beq.n	800101a <HAL_RCC_OscConfig+0x4e6>
    /* Check the parameters */
    assert_param(IS_RCC_HSI14(RCC_OscInitStruct->HSI14State));
    assert_param(IS_RCC_CALIBRATION_VALUE(RCC_OscInitStruct->HSI14CalibrationValue));

    /* Check the HSI14 State */
    if(RCC_OscInitStruct->HSI14State == RCC_HSI14_ON)
 8000f52:	687b      	ldr	r3, [r7, #4]
 8000f54:	695b      	ldr	r3, [r3, #20]
 8000f56:	2b01      	cmp	r3, #1
 8000f58:	d12a      	bne.n	8000fb0 <HAL_RCC_OscConfig+0x47c>
    {
      /* Disable ADC control of the Internal High Speed oscillator HSI14 */
      __HAL_RCC_HSI14ADC_DISABLE();
 8000f5a:	4b95      	ldr	r3, [pc, #596]	; (80011b0 <HAL_RCC_OscConfig+0x67c>)
 8000f5c:	6b5a      	ldr	r2, [r3, #52]	; 0x34
 8000f5e:	4b94      	ldr	r3, [pc, #592]	; (80011b0 <HAL_RCC_OscConfig+0x67c>)
 8000f60:	2104      	movs	r1, #4
 8000f62:	430a      	orrs	r2, r1
 8000f64:	635a      	str	r2, [r3, #52]	; 0x34

      /* Enable the Internal High Speed oscillator (HSI). */
      __HAL_RCC_HSI14_ENABLE();
 8000f66:	4b92      	ldr	r3, [pc, #584]	; (80011b0 <HAL_RCC_OscConfig+0x67c>)
 8000f68:	6b5a      	ldr	r2, [r3, #52]	; 0x34
 8000f6a:	4b91      	ldr	r3, [pc, #580]	; (80011b0 <HAL_RCC_OscConfig+0x67c>)
 8000f6c:	2101      	movs	r1, #1
 8000f6e:	430a      	orrs	r2, r1
 8000f70:	635a      	str	r2, [r3, #52]	; 0x34

      /* Get Start Tick */
      tickstart = HAL_GetTick();
 8000f72:	f7ff fb81 	bl	8000678 <HAL_GetTick>
 8000f76:	0003      	movs	r3, r0
 8000f78:	61bb      	str	r3, [r7, #24]
      
      /* Wait till HSI is ready */  
      while(__HAL_RCC_GET_FLAG(RCC_FLAG_HSI14RDY) == RESET)
 8000f7a:	e008      	b.n	8000f8e <HAL_RCC_OscConfig+0x45a>
      {
        if((HAL_GetTick() - tickstart) > HSI14_TIMEOUT_VALUE)
 8000f7c:	f7ff fb7c 	bl	8000678 <HAL_GetTick>
 8000f80:	0002      	movs	r2, r0
 8000f82:	69bb      	ldr	r3, [r7, #24]
 8000f84:	1ad3      	subs	r3, r2, r3
 8000f86:	2b02      	cmp	r3, #2
 8000f88:	d901      	bls.n	8000f8e <HAL_RCC_OscConfig+0x45a>
        {
          return HAL_TIMEOUT;
 8000f8a:	2303      	movs	r3, #3
 8000f8c:	e152      	b.n	8001234 <HAL_RCC_OscConfig+0x700>
      while(__HAL_RCC_GET_FLAG(RCC_FLAG_HSI14RDY) == RESET)
 8000f8e:	4b88      	ldr	r3, [pc, #544]	; (80011b0 <HAL_RCC_OscConfig+0x67c>)
 8000f90:	6b5b      	ldr	r3, [r3, #52]	; 0x34
 8000f92:	2202      	movs	r2, #2
 8000f94:	4013      	ands	r3, r2
 8000f96:	d0f1      	beq.n	8000f7c <HAL_RCC_OscConfig+0x448>
        }      
      } 

      /* Adjusts the Internal High Speed oscillator 14Mhz (HSI14) calibration value. */
      __HAL_RCC_HSI14_CALIBRATIONVALUE_ADJUST(RCC_OscInitStruct->HSI14CalibrationValue);
 8000f98:	4b85      	ldr	r3, [pc, #532]	; (80011b0 <HAL_RCC_OscConfig+0x67c>)
 8000f9a:	6b5b      	ldr	r3, [r3, #52]	; 0x34
 8000f9c:	22f8      	movs	r2, #248	; 0xf8
 8000f9e:	4393      	bics	r3, r2
 8000fa0:	0019      	movs	r1, r3
 8000fa2:	687b      	ldr	r3, [r7, #4]
 8000fa4:	699b      	ldr	r3, [r3, #24]
 8000fa6:	00da      	lsls	r2, r3, #3
 8000fa8:	4b81      	ldr	r3, [pc, #516]	; (80011b0 <HAL_RCC_OscConfig+0x67c>)
 8000faa:	430a      	orrs	r2, r1
 8000fac:	635a      	str	r2, [r3, #52]	; 0x34
 8000fae:	e034      	b.n	800101a <HAL_RCC_OscConfig+0x4e6>
    }
    else if(RCC_OscInitStruct->HSI14State == RCC_HSI14_ADC_CONTROL)
 8000fb0:	687b      	ldr	r3, [r7, #4]
 8000fb2:	695b      	ldr	r3, [r3, #20]
 8000fb4:	3305      	adds	r3, #5
 8000fb6:	d111      	bne.n	8000fdc <HAL_RCC_OscConfig+0x4a8>
    {
      /* Enable ADC control of the Internal High Speed oscillator HSI14 */
      __HAL_RCC_HSI14ADC_ENABLE();
 8000fb8:	4b7d      	ldr	r3, [pc, #500]	; (80011b0 <HAL_RCC_OscConfig+0x67c>)
 8000fba:	6b5a      	ldr	r2, [r3, #52]	; 0x34
 8000fbc:	4b7c      	ldr	r3, [pc, #496]	; (80011b0 <HAL_RCC_OscConfig+0x67c>)
 8000fbe:	2104      	movs	r1, #4
 8000fc0:	438a      	bics	r2, r1
 8000fc2:	635a      	str	r2, [r3, #52]	; 0x34

      /* Adjusts the Internal High Speed oscillator 14Mhz (HSI14) calibration value. */
      __HAL_RCC_HSI14_CALIBRATIONVALUE_ADJUST(RCC_OscInitStruct->HSI14CalibrationValue);
 8000fc4:	4b7a      	ldr	r3, [pc, #488]	; (80011b0 <HAL_RCC_OscConfig+0x67c>)
 8000fc6:	6b5b      	ldr	r3, [r3, #52]	; 0x34
 8000fc8:	22f8      	movs	r2, #248	; 0xf8
 8000fca:	4393      	bics	r3, r2
 8000fcc:	0019      	movs	r1, r3
 8000fce:	687b      	ldr	r3, [r7, #4]
 8000fd0:	699b      	ldr	r3, [r3, #24]
 8000fd2:	00da      	lsls	r2, r3, #3
 8000fd4:	4b76      	ldr	r3, [pc, #472]	; (80011b0 <HAL_RCC_OscConfig+0x67c>)
 8000fd6:	430a      	orrs	r2, r1
 8000fd8:	635a      	str	r2, [r3, #52]	; 0x34
 8000fda:	e01e      	b.n	800101a <HAL_RCC_OscConfig+0x4e6>
    }
    else
    {
      /* Disable ADC control of the Internal High Speed oscillator HSI14 */
      __HAL_RCC_HSI14ADC_DISABLE();
 8000fdc:	4b74      	ldr	r3, [pc, #464]	; (80011b0 <HAL_RCC_OscConfig+0x67c>)
 8000fde:	6b5a      	ldr	r2, [r3, #52]	; 0x34
 8000fe0:	4b73      	ldr	r3, [pc, #460]	; (80011b0 <HAL_RCC_OscConfig+0x67c>)
 8000fe2:	2104      	movs	r1, #4
 8000fe4:	430a      	orrs	r2, r1
 8000fe6:	635a      	str	r2, [r3, #52]	; 0x34

      /* Disable the Internal High Speed oscillator (HSI). */
      __HAL_RCC_HSI14_DISABLE();
 8000fe8:	4b71      	ldr	r3, [pc, #452]	; (80011b0 <HAL_RCC_OscConfig+0x67c>)
 8000fea:	6b5a      	ldr	r2, [r3, #52]	; 0x34
 8000fec:	4b70      	ldr	r3, [pc, #448]	; (80011b0 <HAL_RCC_OscConfig+0x67c>)
 8000fee:	2101      	movs	r1, #1
 8000ff0:	438a      	bics	r2, r1
 8000ff2:	635a      	str	r2, [r3, #52]	; 0x34

      /* Get Start Tick */
      tickstart = HAL_GetTick();
 8000ff4:	f7ff fb40 	bl	8000678 <HAL_GetTick>
 8000ff8:	0003      	movs	r3, r0
 8000ffa:	61bb      	str	r3, [r7, #24]
      
      /* Wait till HSI is ready */  
      while(__HAL_RCC_GET_FLAG(RCC_FLAG_HSI14RDY) != RESET)
 8000ffc:	e008      	b.n	8001010 <HAL_RCC_OscConfig+0x4dc>
      {
        if((HAL_GetTick() - tickstart) > HSI14_TIMEOUT_VALUE)
 8000ffe:	f7ff fb3b 	bl	8000678 <HAL_GetTick>
 8001002:	0002      	movs	r2, r0
 8001004:	69bb      	ldr	r3, [r7, #24]
 8001006:	1ad3      	subs	r3, r2, r3
 8001008:	2b02      	cmp	r3, #2
 800100a:	d901      	bls.n	8001010 <HAL_RCC_OscConfig+0x4dc>
        {
          return HAL_TIMEOUT;
 800100c:	2303      	movs	r3, #3
 800100e:	e111      	b.n	8001234 <HAL_RCC_OscConfig+0x700>
      while(__HAL_RCC_GET_FLAG(RCC_FLAG_HSI14RDY) != RESET)
 8001010:	4b67      	ldr	r3, [pc, #412]	; (80011b0 <HAL_RCC_OscConfig+0x67c>)
 8001012:	6b5b      	ldr	r3, [r3, #52]	; 0x34
 8001014:	2202      	movs	r2, #2
 8001016:	4013      	ands	r3, r2
 8001018:	d1f1      	bne.n	8000ffe <HAL_RCC_OscConfig+0x4ca>
    }
  }

#if defined(RCC_HSI48_SUPPORT)
  /*----------------------------- HSI48 Configuration --------------------------*/
  if(((RCC_OscInitStruct->OscillatorType) & RCC_OSCILLATORTYPE_HSI48) == RCC_OSCILLATORTYPE_HSI48)
 800101a:	687b      	ldr	r3, [r7, #4]
 800101c:	681b      	ldr	r3, [r3, #0]
 800101e:	2220      	movs	r2, #32
 8001020:	4013      	ands	r3, r2
 8001022:	d05c      	beq.n	80010de <HAL_RCC_OscConfig+0x5aa>
  {
    /* Check the parameters */
    assert_param(IS_RCC_HSI48(RCC_OscInitStruct->HSI48State));

    /* When the HSI48 is used as system clock it is not allowed to be disabled */
    if((__HAL_RCC_GET_SYSCLK_SOURCE() == RCC_SYSCLKSOURCE_STATUS_HSI48) ||
 8001024:	4b62      	ldr	r3, [pc, #392]	; (80011b0 <HAL_RCC_OscConfig+0x67c>)
 8001026:	685b      	ldr	r3, [r3, #4]
 8001028:	220c      	movs	r2, #12
 800102a:	4013      	ands	r3, r2
 800102c:	2b0c      	cmp	r3, #12
 800102e:	d00e      	beq.n	800104e <HAL_RCC_OscConfig+0x51a>
       ((__HAL_RCC_GET_SYSCLK_SOURCE() == RCC_SYSCLKSOURCE_STATUS_PLLCLK) && (__HAL_RCC_GET_PLL_OSCSOURCE() == RCC_PLLSOURCE_HSI48)))
 8001030:	4b5f      	ldr	r3, [pc, #380]	; (80011b0 <HAL_RCC_OscConfig+0x67c>)
 8001032:	685b      	ldr	r3, [r3, #4]
 8001034:	220c      	movs	r2, #12
 8001036:	4013      	ands	r3, r2
    if((__HAL_RCC_GET_SYSCLK_SOURCE() == RCC_SYSCLKSOURCE_STATUS_HSI48) ||
 8001038:	2b08      	cmp	r3, #8
 800103a:	d114      	bne.n	8001066 <HAL_RCC_OscConfig+0x532>
       ((__HAL_RCC_GET_SYSCLK_SOURCE() == RCC_SYSCLKSOURCE_STATUS_PLLCLK) && (__HAL_RCC_GET_PLL_OSCSOURCE() == RCC_PLLSOURCE_HSI48)))
 800103c:	4b5c      	ldr	r3, [pc, #368]	; (80011b0 <HAL_RCC_OscConfig+0x67c>)
 800103e:	685a      	ldr	r2, [r3, #4]
 8001040:	23c0      	movs	r3, #192	; 0xc0
 8001042:	025b      	lsls	r3, r3, #9
 8001044:	401a      	ands	r2, r3
 8001046:	23c0      	movs	r3, #192	; 0xc0
 8001048:	025b      	lsls	r3, r3, #9
 800104a:	429a      	cmp	r2, r3
 800104c:	d10b      	bne.n	8001066 <HAL_RCC_OscConfig+0x532>
    {
      if((__HAL_RCC_GET_FLAG(RCC_FLAG_HSI48RDY) != RESET) && (RCC_OscInitStruct->HSI48State != RCC_HSI48_ON))
 800104e:	4b58      	ldr	r3, [pc, #352]	; (80011b0 <HAL_RCC_OscConfig+0x67c>)
 8001050:	6b5a      	ldr	r2, [r3, #52]	; 0x34
 8001052:	2380      	movs	r3, #128	; 0x80
 8001054:	025b      	lsls	r3, r3, #9
 8001056:	4013      	ands	r3, r2
 8001058:	d040      	beq.n	80010dc <HAL_RCC_OscConfig+0x5a8>
 800105a:	687b      	ldr	r3, [r7, #4]
 800105c:	6a1b      	ldr	r3, [r3, #32]
 800105e:	2b01      	cmp	r3, #1
 8001060:	d03c      	beq.n	80010dc <HAL_RCC_OscConfig+0x5a8>
      {
        return HAL_ERROR;
 8001062:	2301      	movs	r3, #1
 8001064:	e0e6      	b.n	8001234 <HAL_RCC_OscConfig+0x700>
      }
    }
    else
    {
      /* Check the HSI48 State */
      if(RCC_OscInitStruct->HSI48State != RCC_HSI48_OFF)
 8001066:	687b      	ldr	r3, [r7, #4]
 8001068:	6a1b      	ldr	r3, [r3, #32]
 800106a:	2b00      	cmp	r3, #0
 800106c:	d01b      	beq.n	80010a6 <HAL_RCC_OscConfig+0x572>
      {
        /* Enable the Internal High Speed oscillator (HSI48). */
        __HAL_RCC_HSI48_ENABLE();
 800106e:	4b50      	ldr	r3, [pc, #320]	; (80011b0 <HAL_RCC_OscConfig+0x67c>)
 8001070:	6b5a      	ldr	r2, [r3, #52]	; 0x34
 8001072:	4b4f      	ldr	r3, [pc, #316]	; (80011b0 <HAL_RCC_OscConfig+0x67c>)
 8001074:	2180      	movs	r1, #128	; 0x80
 8001076:	0249      	lsls	r1, r1, #9
 8001078:	430a      	orrs	r2, r1
 800107a:	635a      	str	r2, [r3, #52]	; 0x34

        /* Get Start Tick */
        tickstart = HAL_GetTick();
 800107c:	f7ff fafc 	bl	8000678 <HAL_GetTick>
 8001080:	0003      	movs	r3, r0
 8001082:	61bb      	str	r3, [r7, #24]
      
        /* Wait till HSI48 is ready */  
        while(__HAL_RCC_GET_FLAG(RCC_FLAG_HSI48RDY) == RESET)
 8001084:	e008      	b.n	8001098 <HAL_RCC_OscConfig+0x564>
        {
          if((HAL_GetTick() - tickstart) > HSI48_TIMEOUT_VALUE)
 8001086:	f7ff faf7 	bl	8000678 <HAL_GetTick>
 800108a:	0002      	movs	r2, r0
 800108c:	69bb      	ldr	r3, [r7, #24]
 800108e:	1ad3      	subs	r3, r2, r3
 8001090:	2b02      	cmp	r3, #2
 8001092:	d901      	bls.n	8001098 <HAL_RCC_OscConfig+0x564>
          {
            return HAL_TIMEOUT;
 8001094:	2303      	movs	r3, #3
 8001096:	e0cd      	b.n	8001234 <HAL_RCC_OscConfig+0x700>
        while(__HAL_RCC_GET_FLAG(RCC_FLAG_HSI48RDY) == RESET)
 8001098:	4b45      	ldr	r3, [pc, #276]	; (80011b0 <HAL_RCC_OscConfig+0x67c>)
 800109a:	6b5a      	ldr	r2, [r3, #52]	; 0x34
 800109c:	2380      	movs	r3, #128	; 0x80
 800109e:	025b      	lsls	r3, r3, #9
 80010a0:	4013      	ands	r3, r2
 80010a2:	d0f0      	beq.n	8001086 <HAL_RCC_OscConfig+0x552>
 80010a4:	e01b      	b.n	80010de <HAL_RCC_OscConfig+0x5aa>
        } 
      }
      else
      {
        /* Disable the Internal High Speed oscillator (HSI48). */
        __HAL_RCC_HSI48_DISABLE();
 80010a6:	4b42      	ldr	r3, [pc, #264]	; (80011b0 <HAL_RCC_OscConfig+0x67c>)
 80010a8:	6b5a      	ldr	r2, [r3, #52]	; 0x34
 80010aa:	4b41      	ldr	r3, [pc, #260]	; (80011b0 <HAL_RCC_OscConfig+0x67c>)
 80010ac:	4943      	ldr	r1, [pc, #268]	; (80011bc <HAL_RCC_OscConfig+0x688>)
 80010ae:	400a      	ands	r2, r1
 80010b0:	635a      	str	r2, [r3, #52]	; 0x34

        /* Get Start Tick */
        tickstart = HAL_GetTick();
 80010b2:	f7ff fae1 	bl	8000678 <HAL_GetTick>
 80010b6:	0003      	movs	r3, r0
 80010b8:	61bb      	str	r3, [r7, #24]
      
        /* Wait till HSI48 is ready */  
        while(__HAL_RCC_GET_FLAG(RCC_FLAG_HSI48RDY) != RESET)
 80010ba:	e008      	b.n	80010ce <HAL_RCC_OscConfig+0x59a>
        {
          if((HAL_GetTick() - tickstart) > HSI48_TIMEOUT_VALUE)
 80010bc:	f7ff fadc 	bl	8000678 <HAL_GetTick>
 80010c0:	0002      	movs	r2, r0
 80010c2:	69bb      	ldr	r3, [r7, #24]
 80010c4:	1ad3      	subs	r3, r2, r3
 80010c6:	2b02      	cmp	r3, #2
 80010c8:	d901      	bls.n	80010ce <HAL_RCC_OscConfig+0x59a>
          {
            return HAL_TIMEOUT;
 80010ca:	2303      	movs	r3, #3
 80010cc:	e0b2      	b.n	8001234 <HAL_RCC_OscConfig+0x700>
        while(__HAL_RCC_GET_FLAG(RCC_FLAG_HSI48RDY) != RESET)
 80010ce:	4b38      	ldr	r3, [pc, #224]	; (80011b0 <HAL_RCC_OscConfig+0x67c>)
 80010d0:	6b5a      	ldr	r2, [r3, #52]	; 0x34
 80010d2:	2380      	movs	r3, #128	; 0x80
 80010d4:	025b      	lsls	r3, r3, #9
 80010d6:	4013      	ands	r3, r2
 80010d8:	d1f0      	bne.n	80010bc <HAL_RCC_OscConfig+0x588>
 80010da:	e000      	b.n	80010de <HAL_RCC_OscConfig+0x5aa>
      if((__HAL_RCC_GET_FLAG(RCC_FLAG_HSI48RDY) != RESET) && (RCC_OscInitStruct->HSI48State != RCC_HSI48_ON))
 80010dc:	46c0      	nop			; (mov r8, r8)
#endif /* RCC_HSI48_SUPPORT */
       
  /*-------------------------------- PLL Configuration -----------------------*/
  /* Check the parameters */
  assert_param(IS_RCC_PLL(RCC_OscInitStruct->PLL.PLLState));
  if ((RCC_OscInitStruct->PLL.PLLState) != RCC_PLL_NONE)
 80010de:	687b      	ldr	r3, [r7, #4]
 80010e0:	6a5b      	ldr	r3, [r3, #36]	; 0x24
 80010e2:	2b00      	cmp	r3, #0
 80010e4:	d100      	bne.n	80010e8 <HAL_RCC_OscConfig+0x5b4>
 80010e6:	e0a4      	b.n	8001232 <HAL_RCC_OscConfig+0x6fe>
  {
    /* Check if the PLL is used as system clock or not */
    if(__HAL_RCC_GET_SYSCLK_SOURCE() != RCC_SYSCLKSOURCE_STATUS_PLLCLK)
 80010e8:	4b31      	ldr	r3, [pc, #196]	; (80011b0 <HAL_RCC_OscConfig+0x67c>)
 80010ea:	685b      	ldr	r3, [r3, #4]
 80010ec:	220c      	movs	r2, #12
 80010ee:	4013      	ands	r3, r2
 80010f0:	2b08      	cmp	r3, #8
 80010f2:	d100      	bne.n	80010f6 <HAL_RCC_OscConfig+0x5c2>
 80010f4:	e078      	b.n	80011e8 <HAL_RCC_OscConfig+0x6b4>
    { 
      if((RCC_OscInitStruct->PLL.PLLState) == RCC_PLL_ON)
 80010f6:	687b      	ldr	r3, [r7, #4]
 80010f8:	6a5b      	ldr	r3, [r3, #36]	; 0x24
 80010fa:	2b02      	cmp	r3, #2
 80010fc:	d14c      	bne.n	8001198 <HAL_RCC_OscConfig+0x664>
        assert_param(IS_RCC_PLLSOURCE(RCC_OscInitStruct->PLL.PLLSource));
        assert_param(IS_RCC_PLL_MUL(RCC_OscInitStruct->PLL.PLLMUL));
        assert_param(IS_RCC_PREDIV(RCC_OscInitStruct->PLL.PREDIV));
  
        /* Disable the main PLL. */
        __HAL_RCC_PLL_DISABLE();
 80010fe:	4b2c      	ldr	r3, [pc, #176]	; (80011b0 <HAL_RCC_OscConfig+0x67c>)
 8001100:	681a      	ldr	r2, [r3, #0]
 8001102:	4b2b      	ldr	r3, [pc, #172]	; (80011b0 <HAL_RCC_OscConfig+0x67c>)
 8001104:	492e      	ldr	r1, [pc, #184]	; (80011c0 <HAL_RCC_OscConfig+0x68c>)
 8001106:	400a      	ands	r2, r1
 8001108:	601a      	str	r2, [r3, #0]
        
        /* Get Start Tick */
        tickstart = HAL_GetTick();
 800110a:	f7ff fab5 	bl	8000678 <HAL_GetTick>
 800110e:	0003      	movs	r3, r0
 8001110:	61bb      	str	r3, [r7, #24]
        
        /* Wait till PLL is disabled */
        while(__HAL_RCC_GET_FLAG(RCC_FLAG_PLLRDY)  != RESET)
 8001112:	e008      	b.n	8001126 <HAL_RCC_OscConfig+0x5f2>
        {
          if((HAL_GetTick() - tickstart ) > PLL_TIMEOUT_VALUE)
 8001114:	f7ff fab0 	bl	8000678 <HAL_GetTick>
 8001118:	0002      	movs	r2, r0
 800111a:	69bb      	ldr	r3, [r7, #24]
 800111c:	1ad3      	subs	r3, r2, r3
 800111e:	2b02      	cmp	r3, #2
 8001120:	d901      	bls.n	8001126 <HAL_RCC_OscConfig+0x5f2>
          {
            return HAL_TIMEOUT;
 8001122:	2303      	movs	r3, #3
 8001124:	e086      	b.n	8001234 <HAL_RCC_OscConfig+0x700>
        while(__HAL_RCC_GET_FLAG(RCC_FLAG_PLLRDY)  != RESET)
 8001126:	4b22      	ldr	r3, [pc, #136]	; (80011b0 <HAL_RCC_OscConfig+0x67c>)
 8001128:	681a      	ldr	r2, [r3, #0]
 800112a:	2380      	movs	r3, #128	; 0x80
 800112c:	049b      	lsls	r3, r3, #18
 800112e:	4013      	ands	r3, r2
 8001130:	d1f0      	bne.n	8001114 <HAL_RCC_OscConfig+0x5e0>
          }
        }

        /* Configure the main PLL clock source, predivider and multiplication factor. */
        __HAL_RCC_PLL_CONFIG(RCC_OscInitStruct->PLL.PLLSource,
 8001132:	4b1f      	ldr	r3, [pc, #124]	; (80011b0 <HAL_RCC_OscConfig+0x67c>)
 8001134:	6adb      	ldr	r3, [r3, #44]	; 0x2c
 8001136:	220f      	movs	r2, #15
 8001138:	4393      	bics	r3, r2
 800113a:	0019      	movs	r1, r3
 800113c:	687b      	ldr	r3, [r7, #4]
 800113e:	6b1a      	ldr	r2, [r3, #48]	; 0x30
 8001140:	4b1b      	ldr	r3, [pc, #108]	; (80011b0 <HAL_RCC_OscConfig+0x67c>)
 8001142:	430a      	orrs	r2, r1
 8001144:	62da      	str	r2, [r3, #44]	; 0x2c
 8001146:	4b1a      	ldr	r3, [pc, #104]	; (80011b0 <HAL_RCC_OscConfig+0x67c>)
 8001148:	685b      	ldr	r3, [r3, #4]
 800114a:	4a1e      	ldr	r2, [pc, #120]	; (80011c4 <HAL_RCC_OscConfig+0x690>)
 800114c:	4013      	ands	r3, r2
 800114e:	0019      	movs	r1, r3
 8001150:	687b      	ldr	r3, [r7, #4]
 8001152:	6ada      	ldr	r2, [r3, #44]	; 0x2c
 8001154:	687b      	ldr	r3, [r7, #4]
 8001156:	6a9b      	ldr	r3, [r3, #40]	; 0x28
 8001158:	431a      	orrs	r2, r3
 800115a:	4b15      	ldr	r3, [pc, #84]	; (80011b0 <HAL_RCC_OscConfig+0x67c>)
 800115c:	430a      	orrs	r2, r1
 800115e:	605a      	str	r2, [r3, #4]
                             RCC_OscInitStruct->PLL.PREDIV,
                             RCC_OscInitStruct->PLL.PLLMUL);
        /* Enable the main PLL. */
        __HAL_RCC_PLL_ENABLE();
 8001160:	4b13      	ldr	r3, [pc, #76]	; (80011b0 <HAL_RCC_OscConfig+0x67c>)
 8001162:	681a      	ldr	r2, [r3, #0]
 8001164:	4b12      	ldr	r3, [pc, #72]	; (80011b0 <HAL_RCC_OscConfig+0x67c>)
 8001166:	2180      	movs	r1, #128	; 0x80
 8001168:	0449      	lsls	r1, r1, #17
 800116a:	430a      	orrs	r2, r1
 800116c:	601a      	str	r2, [r3, #0]
        
        /* Get Start Tick */
        tickstart = HAL_GetTick();
 800116e:	f7ff fa83 	bl	8000678 <HAL_GetTick>
 8001172:	0003      	movs	r3, r0
 8001174:	61bb      	str	r3, [r7, #24]
        
        /* Wait till PLL is ready */
        while(__HAL_RCC_GET_FLAG(RCC_FLAG_PLLRDY)  == RESET)
 8001176:	e008      	b.n	800118a <HAL_RCC_OscConfig+0x656>
        {
          if((HAL_GetTick() - tickstart ) > PLL_TIMEOUT_VALUE)
 8001178:	f7ff fa7e 	bl	8000678 <HAL_GetTick>
 800117c:	0002      	movs	r2, r0
 800117e:	69bb      	ldr	r3, [r7, #24]
 8001180:	1ad3      	subs	r3, r2, r3
 8001182:	2b02      	cmp	r3, #2
 8001184:	d901      	bls.n	800118a <HAL_RCC_OscConfig+0x656>
          {
            return HAL_TIMEOUT;
 8001186:	2303      	movs	r3, #3
 8001188:	e054      	b.n	8001234 <HAL_RCC_OscConfig+0x700>
        while(__HAL_RCC_GET_FLAG(RCC_FLAG_PLLRDY)  == RESET)
 800118a:	4b09      	ldr	r3, [pc, #36]	; (80011b0 <HAL_RCC_OscConfig+0x67c>)
 800118c:	681a      	ldr	r2, [r3, #0]
 800118e:	2380      	movs	r3, #128	; 0x80
 8001190:	049b      	lsls	r3, r3, #18
 8001192:	4013      	ands	r3, r2
 8001194:	d0f0      	beq.n	8001178 <HAL_RCC_OscConfig+0x644>
 8001196:	e04c      	b.n	8001232 <HAL_RCC_OscConfig+0x6fe>
        }
      }
      else
      {
        /* Disable the main PLL. */
        __HAL_RCC_PLL_DISABLE();
 8001198:	4b05      	ldr	r3, [pc, #20]	; (80011b0 <HAL_RCC_OscConfig+0x67c>)
 800119a:	681a      	ldr	r2, [r3, #0]
 800119c:	4b04      	ldr	r3, [pc, #16]	; (80011b0 <HAL_RCC_OscConfig+0x67c>)
 800119e:	4908      	ldr	r1, [pc, #32]	; (80011c0 <HAL_RCC_OscConfig+0x68c>)
 80011a0:	400a      	ands	r2, r1
 80011a2:	601a      	str	r2, [r3, #0]
 
        /* Get Start Tick */
        tickstart = HAL_GetTick();
 80011a4:	f7ff fa68 	bl	8000678 <HAL_GetTick>
 80011a8:	0003      	movs	r3, r0
 80011aa:	61bb      	str	r3, [r7, #24]
        
        /* Wait till PLL is disabled */  
        while(__HAL_RCC_GET_FLAG(RCC_FLAG_PLLRDY)  != RESET)
 80011ac:	e015      	b.n	80011da <HAL_RCC_OscConfig+0x6a6>
 80011ae:	46c0      	nop			; (mov r8, r8)
 80011b0:	40021000 	.word	0x40021000
 80011b4:	00001388 	.word	0x00001388
 80011b8:	efffffff 	.word	0xefffffff
 80011bc:	fffeffff 	.word	0xfffeffff
 80011c0:	feffffff 	.word	0xfeffffff
 80011c4:	ffc27fff 	.word	0xffc27fff
        {
          if((HAL_GetTick() - tickstart ) > PLL_TIMEOUT_VALUE)
 80011c8:	f7ff fa56 	bl	8000678 <HAL_GetTick>
 80011cc:	0002      	movs	r2, r0
 80011ce:	69bb      	ldr	r3, [r7, #24]
 80011d0:	1ad3      	subs	r3, r2, r3
 80011d2:	2b02      	cmp	r3, #2
 80011d4:	d901      	bls.n	80011da <HAL_RCC_OscConfig+0x6a6>
          {
            return HAL_TIMEOUT;
 80011d6:	2303      	movs	r3, #3
 80011d8:	e02c      	b.n	8001234 <HAL_RCC_OscConfig+0x700>
        while(__HAL_RCC_GET_FLAG(RCC_FLAG_PLLRDY)  != RESET)
 80011da:	4b18      	ldr	r3, [pc, #96]	; (800123c <HAL_RCC_OscConfig+0x708>)
 80011dc:	681a      	ldr	r2, [r3, #0]
 80011de:	2380      	movs	r3, #128	; 0x80
 80011e0:	049b      	lsls	r3, r3, #18
 80011e2:	4013      	ands	r3, r2
 80011e4:	d1f0      	bne.n	80011c8 <HAL_RCC_OscConfig+0x694>
 80011e6:	e024      	b.n	8001232 <HAL_RCC_OscConfig+0x6fe>
      }
    }
    else
    {
      /* Check if there is a request to disable the PLL used as System clock source */
      if((RCC_OscInitStruct->PLL.PLLState) == RCC_PLL_OFF)
 80011e8:	687b      	ldr	r3, [r7, #4]
 80011ea:	6a5b      	ldr	r3, [r3, #36]	; 0x24
 80011ec:	2b01      	cmp	r3, #1
 80011ee:	d101      	bne.n	80011f4 <HAL_RCC_OscConfig+0x6c0>
      {
        return HAL_ERROR;
 80011f0:	2301      	movs	r3, #1
 80011f2:	e01f      	b.n	8001234 <HAL_RCC_OscConfig+0x700>
      }
      else
      {
        /* Do not return HAL_ERROR if request repeats the current configuration */
        pll_config  = RCC->CFGR;
 80011f4:	4b11      	ldr	r3, [pc, #68]	; (800123c <HAL_RCC_OscConfig+0x708>)
 80011f6:	685b      	ldr	r3, [r3, #4]
 80011f8:	617b      	str	r3, [r7, #20]
        pll_config2 = RCC->CFGR2;
 80011fa:	4b10      	ldr	r3, [pc, #64]	; (800123c <HAL_RCC_OscConfig+0x708>)
 80011fc:	6adb      	ldr	r3, [r3, #44]	; 0x2c
 80011fe:	613b      	str	r3, [r7, #16]
        if((READ_BIT(pll_config,  RCC_CFGR_PLLSRC)  != RCC_OscInitStruct->PLL.PLLSource) ||
 8001200:	697a      	ldr	r2, [r7, #20]
 8001202:	23c0      	movs	r3, #192	; 0xc0
 8001204:	025b      	lsls	r3, r3, #9
 8001206:	401a      	ands	r2, r3
 8001208:	687b      	ldr	r3, [r7, #4]
 800120a:	6a9b      	ldr	r3, [r3, #40]	; 0x28
 800120c:	429a      	cmp	r2, r3
 800120e:	d10e      	bne.n	800122e <HAL_RCC_OscConfig+0x6fa>
           (READ_BIT(pll_config2, RCC_CFGR2_PREDIV) != RCC_OscInitStruct->PLL.PREDIV)    ||
 8001210:	693b      	ldr	r3, [r7, #16]
 8001212:	220f      	movs	r2, #15
 8001214:	401a      	ands	r2, r3
 8001216:	687b      	ldr	r3, [r7, #4]
 8001218:	6b1b      	ldr	r3, [r3, #48]	; 0x30
        if((READ_BIT(pll_config,  RCC_CFGR_PLLSRC)  != RCC_OscInitStruct->PLL.PLLSource) ||
 800121a:	429a      	cmp	r2, r3
 800121c:	d107      	bne.n	800122e <HAL_RCC_OscConfig+0x6fa>
           (READ_BIT(pll_config,  RCC_CFGR_PLLMUL)  != RCC_OscInitStruct->PLL.PLLMUL))
 800121e:	697a      	ldr	r2, [r7, #20]
 8001220:	23f0      	movs	r3, #240	; 0xf0
 8001222:	039b      	lsls	r3, r3, #14
 8001224:	401a      	ands	r2, r3
 8001226:	687b      	ldr	r3, [r7, #4]
 8001228:	6adb      	ldr	r3, [r3, #44]	; 0x2c
           (READ_BIT(pll_config2, RCC_CFGR2_PREDIV) != RCC_OscInitStruct->PLL.PREDIV)    ||
 800122a:	429a      	cmp	r2, r3
 800122c:	d001      	beq.n	8001232 <HAL_RCC_OscConfig+0x6fe>
        {
          return HAL_ERROR;
 800122e:	2301      	movs	r3, #1
 8001230:	e000      	b.n	8001234 <HAL_RCC_OscConfig+0x700>
        }
      }
    }
  }

  return HAL_OK;
 8001232:	2300      	movs	r3, #0
}
 8001234:	0018      	movs	r0, r3
 8001236:	46bd      	mov	sp, r7
 8001238:	b008      	add	sp, #32
 800123a:	bd80      	pop	{r7, pc}
 800123c:	40021000 	.word	0x40021000

08001240 <HAL_RCC_ClockConfig>:
  *         You can use @ref HAL_RCC_GetClockConfig() function to know which clock is
  *         currently used as system clock source.
  * @retval HAL status
  */
HAL_StatusTypeDef HAL_RCC_ClockConfig(RCC_ClkInitTypeDef  *RCC_ClkInitStruct, uint32_t FLatency)
{
 8001240:	b580      	push	{r7, lr}
 8001242:	b084      	sub	sp, #16
 8001244:	af00      	add	r7, sp, #0
 8001246:	6078      	str	r0, [r7, #4]
 8001248:	6039      	str	r1, [r7, #0]
  uint32_t tickstart;

  /* Check Null pointer */
  if(RCC_ClkInitStruct == NULL)
 800124a:	687b      	ldr	r3, [r7, #4]
 800124c:	2b00      	cmp	r3, #0
 800124e:	d101      	bne.n	8001254 <HAL_RCC_ClockConfig+0x14>
  {
    return HAL_ERROR;
 8001250:	2301      	movs	r3, #1
 8001252:	e0bf      	b.n	80013d4 <HAL_RCC_ClockConfig+0x194>
  /* To correctly read data from FLASH memory, the number of wait states (LATENCY) 
  must be correctly programmed according to the frequency of the CPU clock 
    (HCLK) of the device. */

  /* Increasing the number of wait states because of higher CPU frequency */
  if(FLatency > __HAL_FLASH_GET_LATENCY())
 8001254:	4b61      	ldr	r3, [pc, #388]	; (80013dc <HAL_RCC_ClockConfig+0x19c>)
 8001256:	681b      	ldr	r3, [r3, #0]
 8001258:	2201      	movs	r2, #1
 800125a:	4013      	ands	r3, r2
 800125c:	683a      	ldr	r2, [r7, #0]
 800125e:	429a      	cmp	r2, r3
 8001260:	d911      	bls.n	8001286 <HAL_RCC_ClockConfig+0x46>
  {    
    /* Program the new number of wait states to the LATENCY bits in the FLASH_ACR register */
    __HAL_FLASH_SET_LATENCY(FLatency);
 8001262:	4b5e      	ldr	r3, [pc, #376]	; (80013dc <HAL_RCC_ClockConfig+0x19c>)
 8001264:	681b      	ldr	r3, [r3, #0]
 8001266:	2201      	movs	r2, #1
 8001268:	4393      	bics	r3, r2
 800126a:	0019      	movs	r1, r3
 800126c:	4b5b      	ldr	r3, [pc, #364]	; (80013dc <HAL_RCC_ClockConfig+0x19c>)
 800126e:	683a      	ldr	r2, [r7, #0]
 8001270:	430a      	orrs	r2, r1
 8001272:	601a      	str	r2, [r3, #0]
    
    /* Check that the new number of wait states is taken into account to access the Flash
    memory by reading the FLASH_ACR register */
    if(__HAL_FLASH_GET_LATENCY() != FLatency)
 8001274:	4b59      	ldr	r3, [pc, #356]	; (80013dc <HAL_RCC_ClockConfig+0x19c>)
 8001276:	681b      	ldr	r3, [r3, #0]
 8001278:	2201      	movs	r2, #1
 800127a:	4013      	ands	r3, r2
 800127c:	683a      	ldr	r2, [r7, #0]
 800127e:	429a      	cmp	r2, r3
 8001280:	d001      	beq.n	8001286 <HAL_RCC_ClockConfig+0x46>
    {
      return HAL_ERROR;
 8001282:	2301      	movs	r3, #1
 8001284:	e0a6      	b.n	80013d4 <HAL_RCC_ClockConfig+0x194>
    }
  }

  /*-------------------------- HCLK Configuration --------------------------*/
  if(((RCC_ClkInitStruct->ClockType) & RCC_CLOCKTYPE_HCLK) == RCC_CLOCKTYPE_HCLK)
 8001286:	687b      	ldr	r3, [r7, #4]
 8001288:	681b      	ldr	r3, [r3, #0]
 800128a:	2202      	movs	r2, #2
 800128c:	4013      	ands	r3, r2
 800128e:	d015      	beq.n	80012bc <HAL_RCC_ClockConfig+0x7c>
  {
    /* Set the highest APB divider in order to ensure that we do not go through
       a non-spec phase whatever we decrease or increase HCLK. */
    if(((RCC_ClkInitStruct->ClockType) & RCC_CLOCKTYPE_PCLK1) == RCC_CLOCKTYPE_PCLK1)
 8001290:	687b      	ldr	r3, [r7, #4]
 8001292:	681b      	ldr	r3, [r3, #0]
 8001294:	2204      	movs	r2, #4
 8001296:	4013      	ands	r3, r2
 8001298:	d006      	beq.n	80012a8 <HAL_RCC_ClockConfig+0x68>
    {
      MODIFY_REG(RCC->CFGR, RCC_CFGR_PPRE, RCC_HCLK_DIV16);
 800129a:	4b51      	ldr	r3, [pc, #324]	; (80013e0 <HAL_RCC_ClockConfig+0x1a0>)
 800129c:	685a      	ldr	r2, [r3, #4]
 800129e:	4b50      	ldr	r3, [pc, #320]	; (80013e0 <HAL_RCC_ClockConfig+0x1a0>)
 80012a0:	21e0      	movs	r1, #224	; 0xe0
 80012a2:	00c9      	lsls	r1, r1, #3
 80012a4:	430a      	orrs	r2, r1
 80012a6:	605a      	str	r2, [r3, #4]
    }

    /* Set the new HCLK clock divider */
    assert_param(IS_RCC_HCLK(RCC_ClkInitStruct->AHBCLKDivider));
    MODIFY_REG(RCC->CFGR, RCC_CFGR_HPRE, RCC_ClkInitStruct->AHBCLKDivider);
 80012a8:	4b4d      	ldr	r3, [pc, #308]	; (80013e0 <HAL_RCC_ClockConfig+0x1a0>)
 80012aa:	685b      	ldr	r3, [r3, #4]
 80012ac:	22f0      	movs	r2, #240	; 0xf0
 80012ae:	4393      	bics	r3, r2
 80012b0:	0019      	movs	r1, r3
 80012b2:	687b      	ldr	r3, [r7, #4]
 80012b4:	689a      	ldr	r2, [r3, #8]
 80012b6:	4b4a      	ldr	r3, [pc, #296]	; (80013e0 <HAL_RCC_ClockConfig+0x1a0>)
 80012b8:	430a      	orrs	r2, r1
 80012ba:	605a      	str	r2, [r3, #4]
  }

  /*------------------------- SYSCLK Configuration ---------------------------*/ 
  if(((RCC_ClkInitStruct->ClockType) & RCC_CLOCKTYPE_SYSCLK) == RCC_CLOCKTYPE_SYSCLK)
 80012bc:	687b      	ldr	r3, [r7, #4]
 80012be:	681b      	ldr	r3, [r3, #0]
 80012c0:	2201      	movs	r2, #1
 80012c2:	4013      	ands	r3, r2
 80012c4:	d04c      	beq.n	8001360 <HAL_RCC_ClockConfig+0x120>
  {
    assert_param(IS_RCC_SYSCLKSOURCE(RCC_ClkInitStruct->SYSCLKSource));
    
    /* HSE is selected as System Clock Source */
    if(RCC_ClkInitStruct->SYSCLKSource == RCC_SYSCLKSOURCE_HSE)
 80012c6:	687b      	ldr	r3, [r7, #4]
 80012c8:	685b      	ldr	r3, [r3, #4]
 80012ca:	2b01      	cmp	r3, #1
 80012cc:	d107      	bne.n	80012de <HAL_RCC_ClockConfig+0x9e>
    {
      /* Check the HSE ready flag */  
      if(__HAL_RCC_GET_FLAG(RCC_FLAG_HSERDY) == RESET)
 80012ce:	4b44      	ldr	r3, [pc, #272]	; (80013e0 <HAL_RCC_ClockConfig+0x1a0>)
 80012d0:	681a      	ldr	r2, [r3, #0]
 80012d2:	2380      	movs	r3, #128	; 0x80
 80012d4:	029b      	lsls	r3, r3, #10
 80012d6:	4013      	ands	r3, r2
 80012d8:	d120      	bne.n	800131c <HAL_RCC_ClockConfig+0xdc>
      {
        return HAL_ERROR;
 80012da:	2301      	movs	r3, #1
 80012dc:	e07a      	b.n	80013d4 <HAL_RCC_ClockConfig+0x194>
      }
    }
    /* PLL is selected as System Clock Source */
    else if(RCC_ClkInitStruct->SYSCLKSource == RCC_SYSCLKSOURCE_PLLCLK)
 80012de:	687b      	ldr	r3, [r7, #4]
 80012e0:	685b      	ldr	r3, [r3, #4]
 80012e2:	2b02      	cmp	r3, #2
 80012e4:	d107      	bne.n	80012f6 <HAL_RCC_ClockConfig+0xb6>
    {
      /* Check the PLL ready flag */  
      if(__HAL_RCC_GET_FLAG(RCC_FLAG_PLLRDY) == RESET)
 80012e6:	4b3e      	ldr	r3, [pc, #248]	; (80013e0 <HAL_RCC_ClockConfig+0x1a0>)
 80012e8:	681a      	ldr	r2, [r3, #0]
 80012ea:	2380      	movs	r3, #128	; 0x80
 80012ec:	049b      	lsls	r3, r3, #18
 80012ee:	4013      	ands	r3, r2
 80012f0:	d114      	bne.n	800131c <HAL_RCC_ClockConfig+0xdc>
      {
        return HAL_ERROR;
 80012f2:	2301      	movs	r3, #1
 80012f4:	e06e      	b.n	80013d4 <HAL_RCC_ClockConfig+0x194>
      }
    }
#if defined(RCC_CFGR_SWS_HSI48)
    /* HSI48 is selected as System Clock Source */
    else if(RCC_ClkInitStruct->SYSCLKSource == RCC_SYSCLKSOURCE_HSI48)
 80012f6:	687b      	ldr	r3, [r7, #4]
 80012f8:	685b      	ldr	r3, [r3, #4]
 80012fa:	2b03      	cmp	r3, #3
 80012fc:	d107      	bne.n	800130e <HAL_RCC_ClockConfig+0xce>
    {
      /* Check the HSI48 ready flag */
      if(__HAL_RCC_GET_FLAG(RCC_FLAG_HSI48RDY) == RESET)
 80012fe:	4b38      	ldr	r3, [pc, #224]	; (80013e0 <HAL_RCC_ClockConfig+0x1a0>)
 8001300:	6b5a      	ldr	r2, [r3, #52]	; 0x34
 8001302:	2380      	movs	r3, #128	; 0x80
 8001304:	025b      	lsls	r3, r3, #9
 8001306:	4013      	ands	r3, r2
 8001308:	d108      	bne.n	800131c <HAL_RCC_ClockConfig+0xdc>
      {
        return HAL_ERROR;
 800130a:	2301      	movs	r3, #1
 800130c:	e062      	b.n	80013d4 <HAL_RCC_ClockConfig+0x194>
#endif /* RCC_CFGR_SWS_HSI48 */
    /* HSI is selected as System Clock Source */
    else
    {
      /* Check the HSI ready flag */  
      if(__HAL_RCC_GET_FLAG(RCC_FLAG_HSIRDY) == RESET)
 800130e:	4b34      	ldr	r3, [pc, #208]	; (80013e0 <HAL_RCC_ClockConfig+0x1a0>)
 8001310:	681b      	ldr	r3, [r3, #0]
 8001312:	2202      	movs	r2, #2
 8001314:	4013      	ands	r3, r2
 8001316:	d101      	bne.n	800131c <HAL_RCC_ClockConfig+0xdc>
      {
        return HAL_ERROR;
 8001318:	2301      	movs	r3, #1
 800131a:	e05b      	b.n	80013d4 <HAL_RCC_ClockConfig+0x194>
      }
    }
    __HAL_RCC_SYSCLK_CONFIG(RCC_ClkInitStruct->SYSCLKSource);
 800131c:	4b30      	ldr	r3, [pc, #192]	; (80013e0 <HAL_RCC_ClockConfig+0x1a0>)
 800131e:	685b      	ldr	r3, [r3, #4]
 8001320:	2203      	movs	r2, #3
 8001322:	4393      	bics	r3, r2
 8001324:	0019      	movs	r1, r3
 8001326:	687b      	ldr	r3, [r7, #4]
 8001328:	685a      	ldr	r2, [r3, #4]
 800132a:	4b2d      	ldr	r3, [pc, #180]	; (80013e0 <HAL_RCC_ClockConfig+0x1a0>)
 800132c:	430a      	orrs	r2, r1
 800132e:	605a      	str	r2, [r3, #4]

    /* Get Start Tick */
    tickstart = HAL_GetTick();
 8001330:	f7ff f9a2 	bl	8000678 <HAL_GetTick>
 8001334:	0003      	movs	r3, r0
 8001336:	60fb      	str	r3, [r7, #12]
    
    while (__HAL_RCC_GET_SYSCLK_SOURCE() != (RCC_ClkInitStruct->SYSCLKSource << RCC_CFGR_SWS_Pos))
 8001338:	e009      	b.n	800134e <HAL_RCC_ClockConfig+0x10e>
    {
      if((HAL_GetTick() - tickstart ) > CLOCKSWITCH_TIMEOUT_VALUE)
 800133a:	f7ff f99d 	bl	8000678 <HAL_GetTick>
 800133e:	0002      	movs	r2, r0
 8001340:	68fb      	ldr	r3, [r7, #12]
 8001342:	1ad3      	subs	r3, r2, r3
 8001344:	4a27      	ldr	r2, [pc, #156]	; (80013e4 <HAL_RCC_ClockConfig+0x1a4>)
 8001346:	4293      	cmp	r3, r2
 8001348:	d901      	bls.n	800134e <HAL_RCC_ClockConfig+0x10e>
      {
        return HAL_TIMEOUT;
 800134a:	2303      	movs	r3, #3
 800134c:	e042      	b.n	80013d4 <HAL_RCC_ClockConfig+0x194>
    while (__HAL_RCC_GET_SYSCLK_SOURCE() != (RCC_ClkInitStruct->SYSCLKSource << RCC_CFGR_SWS_Pos))
 800134e:	4b24      	ldr	r3, [pc, #144]	; (80013e0 <HAL_RCC_ClockConfig+0x1a0>)
 8001350:	685b      	ldr	r3, [r3, #4]
 8001352:	220c      	movs	r2, #12
 8001354:	401a      	ands	r2, r3
 8001356:	687b      	ldr	r3, [r7, #4]
 8001358:	685b      	ldr	r3, [r3, #4]
 800135a:	009b      	lsls	r3, r3, #2
 800135c:	429a      	cmp	r2, r3
 800135e:	d1ec      	bne.n	800133a <HAL_RCC_ClockConfig+0xfa>
      }
    }
  }

  /* Decreasing the number of wait states because of lower CPU frequency */
  if(FLatency < __HAL_FLASH_GET_LATENCY())
 8001360:	4b1e      	ldr	r3, [pc, #120]	; (80013dc <HAL_RCC_ClockConfig+0x19c>)
 8001362:	681b      	ldr	r3, [r3, #0]
 8001364:	2201      	movs	r2, #1
 8001366:	4013      	ands	r3, r2
 8001368:	683a      	ldr	r2, [r7, #0]
 800136a:	429a      	cmp	r2, r3
 800136c:	d211      	bcs.n	8001392 <HAL_RCC_ClockConfig+0x152>
  {    
    /* Program the new number of wait states to the LATENCY bits in the FLASH_ACR register */
    __HAL_FLASH_SET_LATENCY(FLatency);
 800136e:	4b1b      	ldr	r3, [pc, #108]	; (80013dc <HAL_RCC_ClockConfig+0x19c>)
 8001370:	681b      	ldr	r3, [r3, #0]
 8001372:	2201      	movs	r2, #1
 8001374:	4393      	bics	r3, r2
 8001376:	0019      	movs	r1, r3
 8001378:	4b18      	ldr	r3, [pc, #96]	; (80013dc <HAL_RCC_ClockConfig+0x19c>)
 800137a:	683a      	ldr	r2, [r7, #0]
 800137c:	430a      	orrs	r2, r1
 800137e:	601a      	str	r2, [r3, #0]
    
    /* Check that the new number of wait states is taken into account to access the Flash
    memory by reading the FLASH_ACR register */
    if(__HAL_FLASH_GET_LATENCY() != FLatency)
 8001380:	4b16      	ldr	r3, [pc, #88]	; (80013dc <HAL_RCC_ClockConfig+0x19c>)
 8001382:	681b      	ldr	r3, [r3, #0]
 8001384:	2201      	movs	r2, #1
 8001386:	4013      	ands	r3, r2
 8001388:	683a      	ldr	r2, [r7, #0]
 800138a:	429a      	cmp	r2, r3
 800138c:	d001      	beq.n	8001392 <HAL_RCC_ClockConfig+0x152>
    {
      return HAL_ERROR;
 800138e:	2301      	movs	r3, #1
 8001390:	e020      	b.n	80013d4 <HAL_RCC_ClockConfig+0x194>
    }
  }    

  /*-------------------------- PCLK1 Configuration ---------------------------*/ 
  if(((RCC_ClkInitStruct->ClockType) & RCC_CLOCKTYPE_PCLK1) == RCC_CLOCKTYPE_PCLK1)
 8001392:	687b      	ldr	r3, [r7, #4]
 8001394:	681b      	ldr	r3, [r3, #0]
 8001396:	2204      	movs	r2, #4
 8001398:	4013      	ands	r3, r2
 800139a:	d009      	beq.n	80013b0 <HAL_RCC_ClockConfig+0x170>
  {
    assert_param(IS_RCC_PCLK(RCC_ClkInitStruct->APB1CLKDivider));
    MODIFY_REG(RCC->CFGR, RCC_CFGR_PPRE, RCC_ClkInitStruct->APB1CLKDivider);
 800139c:	4b10      	ldr	r3, [pc, #64]	; (80013e0 <HAL_RCC_ClockConfig+0x1a0>)
 800139e:	685b      	ldr	r3, [r3, #4]
 80013a0:	4a11      	ldr	r2, [pc, #68]	; (80013e8 <HAL_RCC_ClockConfig+0x1a8>)
 80013a2:	4013      	ands	r3, r2
 80013a4:	0019      	movs	r1, r3
 80013a6:	687b      	ldr	r3, [r7, #4]
 80013a8:	68da      	ldr	r2, [r3, #12]
 80013aa:	4b0d      	ldr	r3, [pc, #52]	; (80013e0 <HAL_RCC_ClockConfig+0x1a0>)
 80013ac:	430a      	orrs	r2, r1
 80013ae:	605a      	str	r2, [r3, #4]
  }
  
  /* Update the SystemCoreClock global variable */
  SystemCoreClock = HAL_RCC_GetSysClockFreq() >> AHBPrescTable[(RCC->CFGR & RCC_CFGR_HPRE)>> RCC_CFGR_HPRE_BITNUMBER];
 80013b0:	f000 f820 	bl	80013f4 <HAL_RCC_GetSysClockFreq>
 80013b4:	0001      	movs	r1, r0
 80013b6:	4b0a      	ldr	r3, [pc, #40]	; (80013e0 <HAL_RCC_ClockConfig+0x1a0>)
 80013b8:	685b      	ldr	r3, [r3, #4]
 80013ba:	091b      	lsrs	r3, r3, #4
 80013bc:	220f      	movs	r2, #15
 80013be:	4013      	ands	r3, r2
 80013c0:	4a0a      	ldr	r2, [pc, #40]	; (80013ec <HAL_RCC_ClockConfig+0x1ac>)
 80013c2:	5cd3      	ldrb	r3, [r2, r3]
 80013c4:	000a      	movs	r2, r1
 80013c6:	40da      	lsrs	r2, r3
 80013c8:	4b09      	ldr	r3, [pc, #36]	; (80013f0 <HAL_RCC_ClockConfig+0x1b0>)
 80013ca:	601a      	str	r2, [r3, #0]

  /* Configure the source of time base considering new system clocks settings*/
  HAL_InitTick (TICK_INT_PRIORITY);
 80013cc:	2000      	movs	r0, #0
 80013ce:	f7ff f90d 	bl	80005ec <HAL_InitTick>
  
  return HAL_OK;
 80013d2:	2300      	movs	r3, #0
}
 80013d4:	0018      	movs	r0, r3
 80013d6:	46bd      	mov	sp, r7
 80013d8:	b004      	add	sp, #16
 80013da:	bd80      	pop	{r7, pc}
 80013dc:	40022000 	.word	0x40022000
 80013e0:	40021000 	.word	0x40021000
 80013e4:	00001388 	.word	0x00001388
 80013e8:	fffff8ff 	.word	0xfffff8ff
 80013ec:	08001f98 	.word	0x08001f98
 80013f0:	20000000 	.word	0x20000000

080013f4 <HAL_RCC_GetSysClockFreq>:
  *         right SYSCLK value. Otherwise, any configuration based on this function will be incorrect.
  *         
  * @retval SYSCLK frequency
  */
uint32_t HAL_RCC_GetSysClockFreq(void)
{
 80013f4:	b590      	push	{r4, r7, lr}
 80013f6:	b08f      	sub	sp, #60	; 0x3c
 80013f8:	af00      	add	r7, sp, #0
  const uint8_t aPLLMULFactorTable[16] = { 2U,  3U,  4U,  5U,  6U,  7U,  8U,  9U,
 80013fa:	2314      	movs	r3, #20
 80013fc:	18fb      	adds	r3, r7, r3
 80013fe:	4a37      	ldr	r2, [pc, #220]	; (80014dc <HAL_RCC_GetSysClockFreq+0xe8>)
 8001400:	ca13      	ldmia	r2!, {r0, r1, r4}
 8001402:	c313      	stmia	r3!, {r0, r1, r4}
 8001404:	6812      	ldr	r2, [r2, #0]
 8001406:	601a      	str	r2, [r3, #0]
                                         10U, 11U, 12U, 13U, 14U, 15U, 16U, 16U};
  const uint8_t aPredivFactorTable[16] = { 1U, 2U,  3U,  4U,  5U,  6U,  7U,  8U,
 8001408:	1d3b      	adds	r3, r7, #4
 800140a:	4a35      	ldr	r2, [pc, #212]	; (80014e0 <HAL_RCC_GetSysClockFreq+0xec>)
 800140c:	ca13      	ldmia	r2!, {r0, r1, r4}
 800140e:	c313      	stmia	r3!, {r0, r1, r4}
 8001410:	6812      	ldr	r2, [r2, #0]
 8001412:	601a      	str	r2, [r3, #0]
                                           9U,10U, 11U, 12U, 13U, 14U, 15U, 16U};

  uint32_t tmpreg = 0U, prediv = 0U, pllclk = 0U, pllmul = 0U;
 8001414:	2300      	movs	r3, #0
 8001416:	62fb      	str	r3, [r7, #44]	; 0x2c
 8001418:	2300      	movs	r3, #0
 800141a:	62bb      	str	r3, [r7, #40]	; 0x28
 800141c:	2300      	movs	r3, #0
 800141e:	637b      	str	r3, [r7, #52]	; 0x34
 8001420:	2300      	movs	r3, #0
 8001422:	627b      	str	r3, [r7, #36]	; 0x24
  uint32_t sysclockfreq = 0U;
 8001424:	2300      	movs	r3, #0
 8001426:	633b      	str	r3, [r7, #48]	; 0x30
  
  tmpreg = RCC->CFGR;
 8001428:	4b2e      	ldr	r3, [pc, #184]	; (80014e4 <HAL_RCC_GetSysClockFreq+0xf0>)
 800142a:	685b      	ldr	r3, [r3, #4]
 800142c:	62fb      	str	r3, [r7, #44]	; 0x2c
  
  /* Get SYSCLK source -------------------------------------------------------*/
  switch (tmpreg & RCC_CFGR_SWS)
 800142e:	6afb      	ldr	r3, [r7, #44]	; 0x2c
 8001430:	220c      	movs	r2, #12
 8001432:	4013      	ands	r3, r2
 8001434:	2b08      	cmp	r3, #8
 8001436:	d006      	beq.n	8001446 <HAL_RCC_GetSysClockFreq+0x52>
 8001438:	2b0c      	cmp	r3, #12
 800143a:	d043      	beq.n	80014c4 <HAL_RCC_GetSysClockFreq+0xd0>
 800143c:	2b04      	cmp	r3, #4
 800143e:	d144      	bne.n	80014ca <HAL_RCC_GetSysClockFreq+0xd6>
  {
    case RCC_SYSCLKSOURCE_STATUS_HSE:  /* HSE used as system clock */
    {
      sysclockfreq = HSE_VALUE;
 8001440:	4b29      	ldr	r3, [pc, #164]	; (80014e8 <HAL_RCC_GetSysClockFreq+0xf4>)
 8001442:	633b      	str	r3, [r7, #48]	; 0x30
      break;
 8001444:	e044      	b.n	80014d0 <HAL_RCC_GetSysClockFreq+0xdc>
    }
    case RCC_SYSCLKSOURCE_STATUS_PLLCLK:  /* PLL used as system clock */
    {
      pllmul = aPLLMULFactorTable[(uint32_t)(tmpreg & RCC_CFGR_PLLMUL) >> RCC_CFGR_PLLMUL_BITNUMBER];
 8001446:	6afb      	ldr	r3, [r7, #44]	; 0x2c
 8001448:	0c9b      	lsrs	r3, r3, #18
 800144a:	220f      	movs	r2, #15
 800144c:	4013      	ands	r3, r2
 800144e:	2214      	movs	r2, #20
 8001450:	18ba      	adds	r2, r7, r2
 8001452:	5cd3      	ldrb	r3, [r2, r3]
 8001454:	627b      	str	r3, [r7, #36]	; 0x24
      prediv = aPredivFactorTable[(uint32_t)(RCC->CFGR2 & RCC_CFGR2_PREDIV) >> RCC_CFGR2_PREDIV_BITNUMBER];
 8001456:	4b23      	ldr	r3, [pc, #140]	; (80014e4 <HAL_RCC_GetSysClockFreq+0xf0>)
 8001458:	6adb      	ldr	r3, [r3, #44]	; 0x2c
 800145a:	220f      	movs	r2, #15
 800145c:	4013      	ands	r3, r2
 800145e:	1d3a      	adds	r2, r7, #4
 8001460:	5cd3      	ldrb	r3, [r2, r3]
 8001462:	62bb      	str	r3, [r7, #40]	; 0x28
      if ((tmpreg & RCC_CFGR_PLLSRC) == RCC_PLLSOURCE_HSE)
 8001464:	6afa      	ldr	r2, [r7, #44]	; 0x2c
 8001466:	23c0      	movs	r3, #192	; 0xc0
 8001468:	025b      	lsls	r3, r3, #9
 800146a:	401a      	ands	r2, r3
 800146c:	2380      	movs	r3, #128	; 0x80
 800146e:	025b      	lsls	r3, r3, #9
 8001470:	429a      	cmp	r2, r3
 8001472:	d109      	bne.n	8001488 <HAL_RCC_GetSysClockFreq+0x94>
      {
        /* HSE used as PLL clock source : PLLCLK = HSE/PREDIV * PLLMUL */
        pllclk = (uint32_t)((uint64_t) HSE_VALUE / (uint64_t) (prediv)) * ((uint64_t) pllmul);
 8001474:	6ab9      	ldr	r1, [r7, #40]	; 0x28
 8001476:	481c      	ldr	r0, [pc, #112]	; (80014e8 <HAL_RCC_GetSysClockFreq+0xf4>)
 8001478:	f7fe fe46 	bl	8000108 <__udivsi3>
 800147c:	0003      	movs	r3, r0
 800147e:	001a      	movs	r2, r3
 8001480:	6a7b      	ldr	r3, [r7, #36]	; 0x24
 8001482:	4353      	muls	r3, r2
 8001484:	637b      	str	r3, [r7, #52]	; 0x34
 8001486:	e01a      	b.n	80014be <HAL_RCC_GetSysClockFreq+0xca>
      }
#if defined(RCC_CFGR_PLLSRC_HSI48_PREDIV)
      else if ((tmpreg & RCC_CFGR_PLLSRC) == RCC_PLLSOURCE_HSI48)
 8001488:	6afa      	ldr	r2, [r7, #44]	; 0x2c
 800148a:	23c0      	movs	r3, #192	; 0xc0
 800148c:	025b      	lsls	r3, r3, #9
 800148e:	401a      	ands	r2, r3
 8001490:	23c0      	movs	r3, #192	; 0xc0
 8001492:	025b      	lsls	r3, r3, #9
 8001494:	429a      	cmp	r2, r3
 8001496:	d109      	bne.n	80014ac <HAL_RCC_GetSysClockFreq+0xb8>
      {
        /* HSI48 used as PLL clock source : PLLCLK = HSI48/PREDIV * PLLMUL */
        pllclk = (uint32_t)((uint64_t) HSI48_VALUE / (uint64_t) (prediv)) * ((uint64_t) pllmul);
 8001498:	6ab9      	ldr	r1, [r7, #40]	; 0x28
 800149a:	4814      	ldr	r0, [pc, #80]	; (80014ec <HAL_RCC_GetSysClockFreq+0xf8>)
 800149c:	f7fe fe34 	bl	8000108 <__udivsi3>
 80014a0:	0003      	movs	r3, r0
 80014a2:	001a      	movs	r2, r3
 80014a4:	6a7b      	ldr	r3, [r7, #36]	; 0x24
 80014a6:	4353      	muls	r3, r2
 80014a8:	637b      	str	r3, [r7, #52]	; 0x34
 80014aa:	e008      	b.n	80014be <HAL_RCC_GetSysClockFreq+0xca>
#endif /* RCC_CFGR_PLLSRC_HSI48_PREDIV */
      else
      {
#if  (defined(STM32F042x6) || defined(STM32F048xx) || defined(STM32F070x6) || defined(STM32F071xB) || defined(STM32F072xB) || defined(STM32F078xx) || defined(STM32F070xB) || defined(STM32F091xC) || defined(STM32F098xx) || defined(STM32F030xC))
        /* HSI used as PLL clock source : PLLCLK = HSI/PREDIV * PLLMUL */
        pllclk = (uint32_t)((uint64_t) HSI_VALUE / (uint64_t) (prediv)) * ((uint64_t) pllmul);
 80014ac:	6ab9      	ldr	r1, [r7, #40]	; 0x28
 80014ae:	480e      	ldr	r0, [pc, #56]	; (80014e8 <HAL_RCC_GetSysClockFreq+0xf4>)
 80014b0:	f7fe fe2a 	bl	8000108 <__udivsi3>
 80014b4:	0003      	movs	r3, r0
 80014b6:	001a      	movs	r2, r3
 80014b8:	6a7b      	ldr	r3, [r7, #36]	; 0x24
 80014ba:	4353      	muls	r3, r2
 80014bc:	637b      	str	r3, [r7, #52]	; 0x34
#else
        /* HSI used as PLL clock source : PLLCLK = HSI/2 * PLLMUL */
        pllclk = (uint32_t)((uint64_t) (HSI_VALUE >> 1U) * ((uint64_t) pllmul));
#endif
      }
      sysclockfreq = pllclk;
 80014be:	6b7b      	ldr	r3, [r7, #52]	; 0x34
 80014c0:	633b      	str	r3, [r7, #48]	; 0x30
      break;
 80014c2:	e005      	b.n	80014d0 <HAL_RCC_GetSysClockFreq+0xdc>
    }
#if defined(RCC_CFGR_SWS_HSI48)
    case RCC_SYSCLKSOURCE_STATUS_HSI48:    /* HSI48 used as system clock source */
    {
      sysclockfreq = HSI48_VALUE;
 80014c4:	4b09      	ldr	r3, [pc, #36]	; (80014ec <HAL_RCC_GetSysClockFreq+0xf8>)
 80014c6:	633b      	str	r3, [r7, #48]	; 0x30
      break;
 80014c8:	e002      	b.n	80014d0 <HAL_RCC_GetSysClockFreq+0xdc>
    }
#endif /* RCC_CFGR_SWS_HSI48 */
    case RCC_SYSCLKSOURCE_STATUS_HSI:  /* HSI used as system clock source */
    default: /* HSI used as system clock */
    {
      sysclockfreq = HSI_VALUE;
 80014ca:	4b07      	ldr	r3, [pc, #28]	; (80014e8 <HAL_RCC_GetSysClockFreq+0xf4>)
 80014cc:	633b      	str	r3, [r7, #48]	; 0x30
      break;
 80014ce:	46c0      	nop			; (mov r8, r8)
    }
  }
  return sysclockfreq;
 80014d0:	6b3b      	ldr	r3, [r7, #48]	; 0x30
}
 80014d2:	0018      	movs	r0, r3
 80014d4:	46bd      	mov	sp, r7
 80014d6:	b00f      	add	sp, #60	; 0x3c
 80014d8:	bd90      	pop	{r4, r7, pc}
 80014da:	46c0      	nop			; (mov r8, r8)
 80014dc:	08001f78 	.word	0x08001f78
 80014e0:	08001f88 	.word	0x08001f88
 80014e4:	40021000 	.word	0x40021000
 80014e8:	007a1200 	.word	0x007a1200
 80014ec:	02dc6c00 	.word	0x02dc6c00

080014f0 <HAL_RCC_GetHCLKFreq>:
  * @note   The SystemCoreClock CMSIS variable is used to store System Clock Frequency 
  *         and updated within this function
  * @retval HCLK frequency
  */
uint32_t HAL_RCC_GetHCLKFreq(void)
{
 80014f0:	b580      	push	{r7, lr}
 80014f2:	af00      	add	r7, sp, #0
  return SystemCoreClock;
 80014f4:	4b02      	ldr	r3, [pc, #8]	; (8001500 <HAL_RCC_GetHCLKFreq+0x10>)
 80014f6:	681b      	ldr	r3, [r3, #0]
}
 80014f8:	0018      	movs	r0, r3
 80014fa:	46bd      	mov	sp, r7
 80014fc:	bd80      	pop	{r7, pc}
 80014fe:	46c0      	nop			; (mov r8, r8)
 8001500:	20000000 	.word	0x20000000

08001504 <HAL_RCC_GetPCLK1Freq>:
  * @note   Each time PCLK1 changes, this function must be called to update the
  *         right PCLK1 value. Otherwise, any configuration based on this function will be incorrect.
  * @retval PCLK1 frequency
  */
uint32_t HAL_RCC_GetPCLK1Freq(void)
{
 8001504:	b580      	push	{r7, lr}
 8001506:	af00      	add	r7, sp, #0
  /* Get HCLK source and Compute PCLK1 frequency ---------------------------*/
  return (HAL_RCC_GetHCLKFreq() >> APBPrescTable[(RCC->CFGR & RCC_CFGR_PPRE) >> RCC_CFGR_PPRE_BITNUMBER]);
 8001508:	f7ff fff2 	bl	80014f0 <HAL_RCC_GetHCLKFreq>
 800150c:	0001      	movs	r1, r0
 800150e:	4b06      	ldr	r3, [pc, #24]	; (8001528 <HAL_RCC_GetPCLK1Freq+0x24>)
 8001510:	685b      	ldr	r3, [r3, #4]
 8001512:	0a1b      	lsrs	r3, r3, #8
 8001514:	2207      	movs	r2, #7
 8001516:	4013      	ands	r3, r2
 8001518:	4a04      	ldr	r2, [pc, #16]	; (800152c <HAL_RCC_GetPCLK1Freq+0x28>)
 800151a:	5cd3      	ldrb	r3, [r2, r3]
 800151c:	40d9      	lsrs	r1, r3
 800151e:	000b      	movs	r3, r1
}    
 8001520:	0018      	movs	r0, r3
 8001522:	46bd      	mov	sp, r7
 8001524:	bd80      	pop	{r7, pc}
 8001526:	46c0      	nop			; (mov r8, r8)
 8001528:	40021000 	.word	0x40021000
 800152c:	08001fa8 	.word	0x08001fa8

08001530 <HAL_RCCEx_PeriphCLKConfig>:
  *         the backup registers) and RCC_BDCR register are set to their reset values.
  *
  * @retval HAL status
  */
HAL_StatusTypeDef HAL_RCCEx_PeriphCLKConfig(RCC_PeriphCLKInitTypeDef  *PeriphClkInit)
{
 8001530:	b580      	push	{r7, lr}
 8001532:	b086      	sub	sp, #24
 8001534:	af00      	add	r7, sp, #0
 8001536:	6078      	str	r0, [r7, #4]
  uint32_t tickstart = 0U;
 8001538:	2300      	movs	r3, #0
 800153a:	613b      	str	r3, [r7, #16]
  uint32_t temp_reg = 0U;
 800153c:	2300      	movs	r3, #0
 800153e:	60fb      	str	r3, [r7, #12]

  /* Check the parameters */
  assert_param(IS_RCC_PERIPHCLOCK(PeriphClkInit->PeriphClockSelection));
  
  /*---------------------------- RTC configuration -------------------------------*/
  if(((PeriphClkInit->PeriphClockSelection) & RCC_PERIPHCLK_RTC) == (RCC_PERIPHCLK_RTC))
 8001540:	687b      	ldr	r3, [r7, #4]
 8001542:	681a      	ldr	r2, [r3, #0]
 8001544:	2380      	movs	r3, #128	; 0x80
 8001546:	025b      	lsls	r3, r3, #9
 8001548:	4013      	ands	r3, r2
 800154a:	d100      	bne.n	800154e <HAL_RCCEx_PeriphCLKConfig+0x1e>
 800154c:	e08f      	b.n	800166e <HAL_RCCEx_PeriphCLKConfig+0x13e>
  {
    /* check for RTC Parameters used to output RTCCLK */
    assert_param(IS_RCC_RTCCLKSOURCE(PeriphClkInit->RTCClockSelection));
    
    FlagStatus       pwrclkchanged = RESET;
 800154e:	2317      	movs	r3, #23
 8001550:	18fb      	adds	r3, r7, r3
 8001552:	2200      	movs	r2, #0
 8001554:	701a      	strb	r2, [r3, #0]

    /* As soon as function is called to change RTC clock source, activation of the 
       power domain is done. */
    /* Requires to enable write access to Backup Domain of necessary */
    if(__HAL_RCC_PWR_IS_CLK_DISABLED())
 8001556:	4b67      	ldr	r3, [pc, #412]	; (80016f4 <HAL_RCCEx_PeriphCLKConfig+0x1c4>)
 8001558:	69da      	ldr	r2, [r3, #28]
 800155a:	2380      	movs	r3, #128	; 0x80
 800155c:	055b      	lsls	r3, r3, #21
 800155e:	4013      	ands	r3, r2
 8001560:	d111      	bne.n	8001586 <HAL_RCCEx_PeriphCLKConfig+0x56>
    {
    __HAL_RCC_PWR_CLK_ENABLE();
 8001562:	4b64      	ldr	r3, [pc, #400]	; (80016f4 <HAL_RCCEx_PeriphCLKConfig+0x1c4>)
 8001564:	69da      	ldr	r2, [r3, #28]
 8001566:	4b63      	ldr	r3, [pc, #396]	; (80016f4 <HAL_RCCEx_PeriphCLKConfig+0x1c4>)
 8001568:	2180      	movs	r1, #128	; 0x80
 800156a:	0549      	lsls	r1, r1, #21
 800156c:	430a      	orrs	r2, r1
 800156e:	61da      	str	r2, [r3, #28]
 8001570:	4b60      	ldr	r3, [pc, #384]	; (80016f4 <HAL_RCCEx_PeriphCLKConfig+0x1c4>)
 8001572:	69da      	ldr	r2, [r3, #28]
 8001574:	2380      	movs	r3, #128	; 0x80
 8001576:	055b      	lsls	r3, r3, #21
 8001578:	4013      	ands	r3, r2
 800157a:	60bb      	str	r3, [r7, #8]
 800157c:	68bb      	ldr	r3, [r7, #8]
      pwrclkchanged = SET;
 800157e:	2317      	movs	r3, #23
 8001580:	18fb      	adds	r3, r7, r3
 8001582:	2201      	movs	r2, #1
 8001584:	701a      	strb	r2, [r3, #0]
    }
    
    if(HAL_IS_BIT_CLR(PWR->CR, PWR_CR_DBP))
 8001586:	4b5c      	ldr	r3, [pc, #368]	; (80016f8 <HAL_RCCEx_PeriphCLKConfig+0x1c8>)
 8001588:	681a      	ldr	r2, [r3, #0]
 800158a:	2380      	movs	r3, #128	; 0x80
 800158c:	005b      	lsls	r3, r3, #1
 800158e:	4013      	ands	r3, r2
 8001590:	d11a      	bne.n	80015c8 <HAL_RCCEx_PeriphCLKConfig+0x98>
    {
      /* Enable write access to Backup domain */
      SET_BIT(PWR->CR, PWR_CR_DBP);
 8001592:	4b59      	ldr	r3, [pc, #356]	; (80016f8 <HAL_RCCEx_PeriphCLKConfig+0x1c8>)
 8001594:	681a      	ldr	r2, [r3, #0]
 8001596:	4b58      	ldr	r3, [pc, #352]	; (80016f8 <HAL_RCCEx_PeriphCLKConfig+0x1c8>)
 8001598:	2180      	movs	r1, #128	; 0x80
 800159a:	0049      	lsls	r1, r1, #1
 800159c:	430a      	orrs	r2, r1
 800159e:	601a      	str	r2, [r3, #0]
      
      /* Wait for Backup domain Write protection disable */
      tickstart = HAL_GetTick();
 80015a0:	f7ff f86a 	bl	8000678 <HAL_GetTick>
 80015a4:	0003      	movs	r3, r0
 80015a6:	613b      	str	r3, [r7, #16]
      
      while(HAL_IS_BIT_CLR(PWR->CR, PWR_CR_DBP))
 80015a8:	e008      	b.n	80015bc <HAL_RCCEx_PeriphCLKConfig+0x8c>
      {
        if((HAL_GetTick() - tickstart) > RCC_DBP_TIMEOUT_VALUE)
 80015aa:	f7ff f865 	bl	8000678 <HAL_GetTick>
 80015ae:	0002      	movs	r2, r0
 80015b0:	693b      	ldr	r3, [r7, #16]
 80015b2:	1ad3      	subs	r3, r2, r3
 80015b4:	2b64      	cmp	r3, #100	; 0x64
 80015b6:	d901      	bls.n	80015bc <HAL_RCCEx_PeriphCLKConfig+0x8c>
        {
          return HAL_TIMEOUT;
 80015b8:	2303      	movs	r3, #3
 80015ba:	e097      	b.n	80016ec <HAL_RCCEx_PeriphCLKConfig+0x1bc>
      while(HAL_IS_BIT_CLR(PWR->CR, PWR_CR_DBP))
 80015bc:	4b4e      	ldr	r3, [pc, #312]	; (80016f8 <HAL_RCCEx_PeriphCLKConfig+0x1c8>)
 80015be:	681a      	ldr	r2, [r3, #0]
 80015c0:	2380      	movs	r3, #128	; 0x80
 80015c2:	005b      	lsls	r3, r3, #1
 80015c4:	4013      	ands	r3, r2
 80015c6:	d0f0      	beq.n	80015aa <HAL_RCCEx_PeriphCLKConfig+0x7a>
        }
      }
    }
    
    /* Reset the Backup domain only if the RTC Clock source selection is modified from reset value */ 
    temp_reg = (RCC->BDCR & RCC_BDCR_RTCSEL);
 80015c8:	4b4a      	ldr	r3, [pc, #296]	; (80016f4 <HAL_RCCEx_PeriphCLKConfig+0x1c4>)
 80015ca:	6a1a      	ldr	r2, [r3, #32]
 80015cc:	23c0      	movs	r3, #192	; 0xc0
 80015ce:	009b      	lsls	r3, r3, #2
 80015d0:	4013      	ands	r3, r2
 80015d2:	60fb      	str	r3, [r7, #12]
    if((temp_reg != 0x00000000U) && (temp_reg != (PeriphClkInit->RTCClockSelection & RCC_BDCR_RTCSEL)))
 80015d4:	68fb      	ldr	r3, [r7, #12]
 80015d6:	2b00      	cmp	r3, #0
 80015d8:	d034      	beq.n	8001644 <HAL_RCCEx_PeriphCLKConfig+0x114>
 80015da:	687b      	ldr	r3, [r7, #4]
 80015dc:	685a      	ldr	r2, [r3, #4]
 80015de:	23c0      	movs	r3, #192	; 0xc0
 80015e0:	009b      	lsls	r3, r3, #2
 80015e2:	4013      	ands	r3, r2
 80015e4:	68fa      	ldr	r2, [r7, #12]
 80015e6:	429a      	cmp	r2, r3
 80015e8:	d02c      	beq.n	8001644 <HAL_RCCEx_PeriphCLKConfig+0x114>
    {
      /* Store the content of BDCR register before the reset of Backup Domain */
      temp_reg = (RCC->BDCR & ~(RCC_BDCR_RTCSEL));
 80015ea:	4b42      	ldr	r3, [pc, #264]	; (80016f4 <HAL_RCCEx_PeriphCLKConfig+0x1c4>)
 80015ec:	6a1b      	ldr	r3, [r3, #32]
 80015ee:	4a43      	ldr	r2, [pc, #268]	; (80016fc <HAL_RCCEx_PeriphCLKConfig+0x1cc>)
 80015f0:	4013      	ands	r3, r2
 80015f2:	60fb      	str	r3, [r7, #12]
      /* RTC Clock selection can be changed only if the Backup Domain is reset */
      __HAL_RCC_BACKUPRESET_FORCE();
 80015f4:	4b3f      	ldr	r3, [pc, #252]	; (80016f4 <HAL_RCCEx_PeriphCLKConfig+0x1c4>)
 80015f6:	6a1a      	ldr	r2, [r3, #32]
 80015f8:	4b3e      	ldr	r3, [pc, #248]	; (80016f4 <HAL_RCCEx_PeriphCLKConfig+0x1c4>)
 80015fa:	2180      	movs	r1, #128	; 0x80
 80015fc:	0249      	lsls	r1, r1, #9
 80015fe:	430a      	orrs	r2, r1
 8001600:	621a      	str	r2, [r3, #32]
      __HAL_RCC_BACKUPRESET_RELEASE();
 8001602:	4b3c      	ldr	r3, [pc, #240]	; (80016f4 <HAL_RCCEx_PeriphCLKConfig+0x1c4>)
 8001604:	6a1a      	ldr	r2, [r3, #32]
 8001606:	4b3b      	ldr	r3, [pc, #236]	; (80016f4 <HAL_RCCEx_PeriphCLKConfig+0x1c4>)
 8001608:	493d      	ldr	r1, [pc, #244]	; (8001700 <HAL_RCCEx_PeriphCLKConfig+0x1d0>)
 800160a:	400a      	ands	r2, r1
 800160c:	621a      	str	r2, [r3, #32]
      /* Restore the Content of BDCR register */
      RCC->BDCR = temp_reg;
 800160e:	4b39      	ldr	r3, [pc, #228]	; (80016f4 <HAL_RCCEx_PeriphCLKConfig+0x1c4>)
 8001610:	68fa      	ldr	r2, [r7, #12]
 8001612:	621a      	str	r2, [r3, #32]
      
      /* Wait for LSERDY if LSE was enabled */
      if (HAL_IS_BIT_SET(temp_reg, RCC_BDCR_LSEON))
 8001614:	68fb      	ldr	r3, [r7, #12]
 8001616:	2201      	movs	r2, #1
 8001618:	4013      	ands	r3, r2
 800161a:	d013      	beq.n	8001644 <HAL_RCCEx_PeriphCLKConfig+0x114>
      {
        /* Get Start Tick */
        tickstart = HAL_GetTick();
 800161c:	f7ff f82c 	bl	8000678 <HAL_GetTick>
 8001620:	0003      	movs	r3, r0
 8001622:	613b      	str	r3, [r7, #16]
        
        /* Wait till LSE is ready */  
        while(__HAL_RCC_GET_FLAG(RCC_FLAG_LSERDY) == RESET)
 8001624:	e009      	b.n	800163a <HAL_RCCEx_PeriphCLKConfig+0x10a>
        {
          if((HAL_GetTick() - tickstart) > RCC_LSE_TIMEOUT_VALUE)
 8001626:	f7ff f827 	bl	8000678 <HAL_GetTick>
 800162a:	0002      	movs	r2, r0
 800162c:	693b      	ldr	r3, [r7, #16]
 800162e:	1ad3      	subs	r3, r2, r3
 8001630:	4a34      	ldr	r2, [pc, #208]	; (8001704 <HAL_RCCEx_PeriphCLKConfig+0x1d4>)
 8001632:	4293      	cmp	r3, r2
 8001634:	d901      	bls.n	800163a <HAL_RCCEx_PeriphCLKConfig+0x10a>
          {
            return HAL_TIMEOUT;
 8001636:	2303      	movs	r3, #3
 8001638:	e058      	b.n	80016ec <HAL_RCCEx_PeriphCLKConfig+0x1bc>
        while(__HAL_RCC_GET_FLAG(RCC_FLAG_LSERDY) == RESET)
 800163a:	4b2e      	ldr	r3, [pc, #184]	; (80016f4 <HAL_RCCEx_PeriphCLKConfig+0x1c4>)
 800163c:	6a1b      	ldr	r3, [r3, #32]
 800163e:	2202      	movs	r2, #2
 8001640:	4013      	ands	r3, r2
 8001642:	d0f0      	beq.n	8001626 <HAL_RCCEx_PeriphCLKConfig+0xf6>
          }
        }
      }
    }
    __HAL_RCC_RTC_CONFIG(PeriphClkInit->RTCClockSelection);
 8001644:	4b2b      	ldr	r3, [pc, #172]	; (80016f4 <HAL_RCCEx_PeriphCLKConfig+0x1c4>)
 8001646:	6a1b      	ldr	r3, [r3, #32]
 8001648:	4a2c      	ldr	r2, [pc, #176]	; (80016fc <HAL_RCCEx_PeriphCLKConfig+0x1cc>)
 800164a:	4013      	ands	r3, r2
 800164c:	0019      	movs	r1, r3
 800164e:	687b      	ldr	r3, [r7, #4]
 8001650:	685a      	ldr	r2, [r3, #4]
 8001652:	4b28      	ldr	r3, [pc, #160]	; (80016f4 <HAL_RCCEx_PeriphCLKConfig+0x1c4>)
 8001654:	430a      	orrs	r2, r1
 8001656:	621a      	str	r2, [r3, #32]

    /* Require to disable power clock if necessary */
    if(pwrclkchanged == SET)
 8001658:	2317      	movs	r3, #23
 800165a:	18fb      	adds	r3, r7, r3
 800165c:	781b      	ldrb	r3, [r3, #0]
 800165e:	2b01      	cmp	r3, #1
 8001660:	d105      	bne.n	800166e <HAL_RCCEx_PeriphCLKConfig+0x13e>
    {
      __HAL_RCC_PWR_CLK_DISABLE();
 8001662:	4b24      	ldr	r3, [pc, #144]	; (80016f4 <HAL_RCCEx_PeriphCLKConfig+0x1c4>)
 8001664:	69da      	ldr	r2, [r3, #28]
 8001666:	4b23      	ldr	r3, [pc, #140]	; (80016f4 <HAL_RCCEx_PeriphCLKConfig+0x1c4>)
 8001668:	4927      	ldr	r1, [pc, #156]	; (8001708 <HAL_RCCEx_PeriphCLKConfig+0x1d8>)
 800166a:	400a      	ands	r2, r1
 800166c:	61da      	str	r2, [r3, #28]
    }
  }

  /*------------------------------- USART1 Configuration ------------------------*/ 
  if(((PeriphClkInit->PeriphClockSelection) & RCC_PERIPHCLK_USART1) == RCC_PERIPHCLK_USART1)
 800166e:	687b      	ldr	r3, [r7, #4]
 8001670:	681b      	ldr	r3, [r3, #0]
 8001672:	2201      	movs	r2, #1
 8001674:	4013      	ands	r3, r2
 8001676:	d009      	beq.n	800168c <HAL_RCCEx_PeriphCLKConfig+0x15c>
  {
    /* Check the parameters */
    assert_param(IS_RCC_USART1CLKSOURCE(PeriphClkInit->Usart1ClockSelection));
    
    /* Configure the USART1 clock source */
    __HAL_RCC_USART1_CONFIG(PeriphClkInit->Usart1ClockSelection);
 8001678:	4b1e      	ldr	r3, [pc, #120]	; (80016f4 <HAL_RCCEx_PeriphCLKConfig+0x1c4>)
 800167a:	6b1b      	ldr	r3, [r3, #48]	; 0x30
 800167c:	2203      	movs	r2, #3
 800167e:	4393      	bics	r3, r2
 8001680:	0019      	movs	r1, r3
 8001682:	687b      	ldr	r3, [r7, #4]
 8001684:	689a      	ldr	r2, [r3, #8]
 8001686:	4b1b      	ldr	r3, [pc, #108]	; (80016f4 <HAL_RCCEx_PeriphCLKConfig+0x1c4>)
 8001688:	430a      	orrs	r2, r1
 800168a:	631a      	str	r2, [r3, #48]	; 0x30
    __HAL_RCC_USART3_CONFIG(PeriphClkInit->Usart3ClockSelection);
  }
#endif /* STM32F091xC || STM32F098xx */  

  /*------------------------------ I2C1 Configuration ------------------------*/ 
  if(((PeriphClkInit->PeriphClockSelection) & RCC_PERIPHCLK_I2C1) == RCC_PERIPHCLK_I2C1)
 800168c:	687b      	ldr	r3, [r7, #4]
 800168e:	681b      	ldr	r3, [r3, #0]
 8001690:	2220      	movs	r2, #32
 8001692:	4013      	ands	r3, r2
 8001694:	d009      	beq.n	80016aa <HAL_RCCEx_PeriphCLKConfig+0x17a>
  {
    /* Check the parameters */
    assert_param(IS_RCC_I2C1CLKSOURCE(PeriphClkInit->I2c1ClockSelection));
    
    /* Configure the I2C1 clock source */
    __HAL_RCC_I2C1_CONFIG(PeriphClkInit->I2c1ClockSelection);
 8001696:	4b17      	ldr	r3, [pc, #92]	; (80016f4 <HAL_RCCEx_PeriphCLKConfig+0x1c4>)
 8001698:	6b1b      	ldr	r3, [r3, #48]	; 0x30
 800169a:	2210      	movs	r2, #16
 800169c:	4393      	bics	r3, r2
 800169e:	0019      	movs	r1, r3
 80016a0:	687b      	ldr	r3, [r7, #4]
 80016a2:	68da      	ldr	r2, [r3, #12]
 80016a4:	4b13      	ldr	r3, [pc, #76]	; (80016f4 <HAL_RCCEx_PeriphCLKConfig+0x1c4>)
 80016a6:	430a      	orrs	r2, r1
 80016a8:	631a      	str	r2, [r3, #48]	; 0x30
  }

#if defined(STM32F042x6) || defined(STM32F048xx) || defined(STM32F072xB) || defined(STM32F078xx) || defined(STM32F070xB) || defined(STM32F070x6)
  /*------------------------------ USB Configuration ------------------------*/ 
  if(((PeriphClkInit->PeriphClockSelection) & RCC_PERIPHCLK_USB) == RCC_PERIPHCLK_USB)
 80016aa:	687b      	ldr	r3, [r7, #4]
 80016ac:	681a      	ldr	r2, [r3, #0]
 80016ae:	2380      	movs	r3, #128	; 0x80
 80016b0:	029b      	lsls	r3, r3, #10
 80016b2:	4013      	ands	r3, r2
 80016b4:	d009      	beq.n	80016ca <HAL_RCCEx_PeriphCLKConfig+0x19a>
  {
    /* Check the parameters */
    assert_param(IS_RCC_USBCLKSOURCE(PeriphClkInit->UsbClockSelection));
    
    /* Configure the USB clock source */
    __HAL_RCC_USB_CONFIG(PeriphClkInit->UsbClockSelection);
 80016b6:	4b0f      	ldr	r3, [pc, #60]	; (80016f4 <HAL_RCCEx_PeriphCLKConfig+0x1c4>)
 80016b8:	6b1b      	ldr	r3, [r3, #48]	; 0x30
 80016ba:	2280      	movs	r2, #128	; 0x80
 80016bc:	4393      	bics	r3, r2
 80016be:	0019      	movs	r1, r3
 80016c0:	687b      	ldr	r3, [r7, #4]
 80016c2:	695a      	ldr	r2, [r3, #20]
 80016c4:	4b0b      	ldr	r3, [pc, #44]	; (80016f4 <HAL_RCCEx_PeriphCLKConfig+0x1c4>)
 80016c6:	430a      	orrs	r2, r1
 80016c8:	631a      	str	r2, [r3, #48]	; 0x30
#if defined(STM32F042x6) || defined(STM32F048xx)\
 || defined(STM32F051x8) || defined(STM32F058xx)\
 || defined(STM32F071xB) || defined(STM32F072xB) || defined(STM32F078xx)\
 || defined(STM32F091xC) || defined(STM32F098xx)
  /*------------------------------ CEC clock Configuration -------------------*/ 
  if(((PeriphClkInit->PeriphClockSelection) & RCC_PERIPHCLK_CEC) == RCC_PERIPHCLK_CEC)
 80016ca:	687b      	ldr	r3, [r7, #4]
 80016cc:	681a      	ldr	r2, [r3, #0]
 80016ce:	2380      	movs	r3, #128	; 0x80
 80016d0:	00db      	lsls	r3, r3, #3
 80016d2:	4013      	ands	r3, r2
 80016d4:	d009      	beq.n	80016ea <HAL_RCCEx_PeriphCLKConfig+0x1ba>
  {
    /* Check the parameters */
    assert_param(IS_RCC_CECCLKSOURCE(PeriphClkInit->CecClockSelection));
    
    /* Configure the CEC clock source */
    __HAL_RCC_CEC_CONFIG(PeriphClkInit->CecClockSelection);
 80016d6:	4b07      	ldr	r3, [pc, #28]	; (80016f4 <HAL_RCCEx_PeriphCLKConfig+0x1c4>)
 80016d8:	6b1b      	ldr	r3, [r3, #48]	; 0x30
 80016da:	2240      	movs	r2, #64	; 0x40
 80016dc:	4393      	bics	r3, r2
 80016de:	0019      	movs	r1, r3
 80016e0:	687b      	ldr	r3, [r7, #4]
 80016e2:	691a      	ldr	r2, [r3, #16]
 80016e4:	4b03      	ldr	r3, [pc, #12]	; (80016f4 <HAL_RCCEx_PeriphCLKConfig+0x1c4>)
 80016e6:	430a      	orrs	r2, r1
 80016e8:	631a      	str	r2, [r3, #48]	; 0x30
#endif /* STM32F042x6 || STM32F048xx ||                */
       /* STM32F051x8 || STM32F058xx ||                */
       /* STM32F071xB || STM32F072xB || STM32F078xx || */
       /* STM32F091xC || STM32F098xx */
  
  return HAL_OK;
 80016ea:	2300      	movs	r3, #0
}
 80016ec:	0018      	movs	r0, r3
 80016ee:	46bd      	mov	sp, r7
 80016f0:	b006      	add	sp, #24
 80016f2:	bd80      	pop	{r7, pc}
 80016f4:	40021000 	.word	0x40021000
 80016f8:	40007000 	.word	0x40007000
 80016fc:	fffffcff 	.word	0xfffffcff
 8001700:	fffeffff 	.word	0xfffeffff
 8001704:	00001388 	.word	0x00001388
 8001708:	efffffff 	.word	0xefffffff

0800170c <HAL_UART_Init>:
  *        parameters in the UART_InitTypeDef and initialize the associated handle.
  * @param huart UART handle.
  * @retval HAL status
  */
HAL_StatusTypeDef HAL_UART_Init(UART_HandleTypeDef *huart)
{
 800170c:	b580      	push	{r7, lr}
 800170e:	b082      	sub	sp, #8
 8001710:	af00      	add	r7, sp, #0
 8001712:	6078      	str	r0, [r7, #4]
  /* Check the UART handle allocation */
  if (huart == NULL)
 8001714:	687b      	ldr	r3, [r7, #4]
 8001716:	2b00      	cmp	r3, #0
 8001718:	d101      	bne.n	800171e <HAL_UART_Init+0x12>
  {
    return HAL_ERROR;
 800171a:	2301      	movs	r3, #1
 800171c:	e044      	b.n	80017a8 <HAL_UART_Init+0x9c>
  {
    /* Check the parameters */
    assert_param(IS_UART_INSTANCE(huart->Instance));
  }

  if (huart->gState == HAL_UART_STATE_RESET)
 800171e:	687b      	ldr	r3, [r7, #4]
 8001720:	6f9b      	ldr	r3, [r3, #120]	; 0x78
 8001722:	2b00      	cmp	r3, #0
 8001724:	d107      	bne.n	8001736 <HAL_UART_Init+0x2a>
  {
    /* Allocate lock resource and initialize it */
    huart->Lock = HAL_UNLOCKED;
 8001726:	687b      	ldr	r3, [r7, #4]
 8001728:	2274      	movs	r2, #116	; 0x74
 800172a:	2100      	movs	r1, #0
 800172c:	5499      	strb	r1, [r3, r2]

    /* Init the low level hardware */
    huart->MspInitCallback(huart);
#else
    /* Init the low level hardware : GPIO, CLOCK */
    HAL_UART_MspInit(huart);
 800172e:	687b      	ldr	r3, [r7, #4]
 8001730:	0018      	movs	r0, r3
 8001732:	f7fe fe9b 	bl	800046c <HAL_UART_MspInit>
#endif /* (USE_HAL_UART_REGISTER_CALLBACKS) */
  }

  huart->gState = HAL_UART_STATE_BUSY;
 8001736:	687b      	ldr	r3, [r7, #4]
 8001738:	2224      	movs	r2, #36	; 0x24
 800173a:	679a      	str	r2, [r3, #120]	; 0x78

  __HAL_UART_DISABLE(huart);
 800173c:	687b      	ldr	r3, [r7, #4]
 800173e:	681b      	ldr	r3, [r3, #0]
 8001740:	681a      	ldr	r2, [r3, #0]
 8001742:	687b      	ldr	r3, [r7, #4]
 8001744:	681b      	ldr	r3, [r3, #0]
 8001746:	2101      	movs	r1, #1
 8001748:	438a      	bics	r2, r1
 800174a:	601a      	str	r2, [r3, #0]

  /* Set the UART Communication parameters */
  if (UART_SetConfig(huart) == HAL_ERROR)
 800174c:	687b      	ldr	r3, [r7, #4]
 800174e:	0018      	movs	r0, r3
 8001750:	f000 f920 	bl	8001994 <UART_SetConfig>
 8001754:	0003      	movs	r3, r0
 8001756:	2b01      	cmp	r3, #1
 8001758:	d101      	bne.n	800175e <HAL_UART_Init+0x52>
  {
    return HAL_ERROR;
 800175a:	2301      	movs	r3, #1
 800175c:	e024      	b.n	80017a8 <HAL_UART_Init+0x9c>
  }

  if (huart->AdvancedInit.AdvFeatureInit != UART_ADVFEATURE_NO_INIT)
 800175e:	687b      	ldr	r3, [r7, #4]
 8001760:	6a5b      	ldr	r3, [r3, #36]	; 0x24
 8001762:	2b00      	cmp	r3, #0
 8001764:	d003      	beq.n	800176e <HAL_UART_Init+0x62>
  {
    UART_AdvFeatureConfig(huart);
 8001766:	687b      	ldr	r3, [r7, #4]
 8001768:	0018      	movs	r0, r3
 800176a:	f000 fa51 	bl	8001c10 <UART_AdvFeatureConfig>

  /* In asynchronous mode, the following bits must be kept cleared:
  - LINEN (if LIN is supported) and CLKEN bits in the USART_CR2 register,
  - SCEN (if Smartcard is supported), HDSEL and IREN (if IrDA is supported)  bits in the USART_CR3 register.*/
#if defined (USART_CR2_LINEN)
  CLEAR_BIT(huart->Instance->CR2, (USART_CR2_LINEN | USART_CR2_CLKEN));
 800176e:	687b      	ldr	r3, [r7, #4]
 8001770:	681b      	ldr	r3, [r3, #0]
 8001772:	685a      	ldr	r2, [r3, #4]
 8001774:	687b      	ldr	r3, [r7, #4]
 8001776:	681b      	ldr	r3, [r3, #0]
 8001778:	490d      	ldr	r1, [pc, #52]	; (80017b0 <HAL_UART_Init+0xa4>)
 800177a:	400a      	ands	r2, r1
 800177c:	605a      	str	r2, [r3, #4]
#else
  CLEAR_BIT(huart->Instance->CR2, USART_CR2_CLKEN);
#endif /* USART_CR2_LINEN */
#if defined (USART_CR3_SCEN)
#if defined (USART_CR3_IREN)
  CLEAR_BIT(huart->Instance->CR3, (USART_CR3_SCEN | USART_CR3_HDSEL | USART_CR3_IREN));
 800177e:	687b      	ldr	r3, [r7, #4]
 8001780:	681b      	ldr	r3, [r3, #0]
 8001782:	689a      	ldr	r2, [r3, #8]
 8001784:	687b      	ldr	r3, [r7, #4]
 8001786:	681b      	ldr	r3, [r3, #0]
 8001788:	212a      	movs	r1, #42	; 0x2a
 800178a:	438a      	bics	r2, r1
 800178c:	609a      	str	r2, [r3, #8]
#else
  CLEAR_BIT(huart->Instance->CR3, USART_CR3_HDSEL);
#endif /* USART_CR3_IREN*/
#endif /* USART_CR3_SCEN */

  __HAL_UART_ENABLE(huart);
 800178e:	687b      	ldr	r3, [r7, #4]
 8001790:	681b      	ldr	r3, [r3, #0]
 8001792:	681a      	ldr	r2, [r3, #0]
 8001794:	687b      	ldr	r3, [r7, #4]
 8001796:	681b      	ldr	r3, [r3, #0]
 8001798:	2101      	movs	r1, #1
 800179a:	430a      	orrs	r2, r1
 800179c:	601a      	str	r2, [r3, #0]

  /* TEACK and/or REACK to check before moving huart->gState and huart->RxState to Ready */
  return (UART_CheckIdleState(huart));
 800179e:	687b      	ldr	r3, [r7, #4]
 80017a0:	0018      	movs	r0, r3
 80017a2:	f000 fae9 	bl	8001d78 <UART_CheckIdleState>
 80017a6:	0003      	movs	r3, r0
}
 80017a8:	0018      	movs	r0, r3
 80017aa:	46bd      	mov	sp, r7
 80017ac:	b002      	add	sp, #8
 80017ae:	bd80      	pop	{r7, pc}
 80017b0:	ffffb7ff 	.word	0xffffb7ff

080017b4 <HAL_UART_Receive>:
  * @param Size    Amount of data elements (u8 or u16) to be received.
  * @param Timeout Timeout duration.
  * @retval HAL status
  */
HAL_StatusTypeDef HAL_UART_Receive(UART_HandleTypeDef *huart, uint8_t *pData, uint16_t Size, uint32_t Timeout)
{
 80017b4:	b580      	push	{r7, lr}
 80017b6:	b08a      	sub	sp, #40	; 0x28
 80017b8:	af02      	add	r7, sp, #8
 80017ba:	60f8      	str	r0, [r7, #12]
 80017bc:	60b9      	str	r1, [r7, #8]
 80017be:	603b      	str	r3, [r7, #0]
 80017c0:	1dbb      	adds	r3, r7, #6
 80017c2:	801a      	strh	r2, [r3, #0]
  uint16_t *pdata16bits;
  uint16_t uhMask;
  uint32_t tickstart;

  /* Check that a Rx process is not already ongoing */
  if (huart->RxState == HAL_UART_STATE_READY)
 80017c4:	68fb      	ldr	r3, [r7, #12]
 80017c6:	6fdb      	ldr	r3, [r3, #124]	; 0x7c
 80017c8:	2b20      	cmp	r3, #32
 80017ca:	d000      	beq.n	80017ce <HAL_UART_Receive+0x1a>
 80017cc:	e0da      	b.n	8001984 <HAL_UART_Receive+0x1d0>
  {
    if ((pData == NULL) || (Size == 0U))
 80017ce:	68bb      	ldr	r3, [r7, #8]
 80017d0:	2b00      	cmp	r3, #0
 80017d2:	d003      	beq.n	80017dc <HAL_UART_Receive+0x28>
 80017d4:	1dbb      	adds	r3, r7, #6
 80017d6:	881b      	ldrh	r3, [r3, #0]
 80017d8:	2b00      	cmp	r3, #0
 80017da:	d101      	bne.n	80017e0 <HAL_UART_Receive+0x2c>
    {
      return  HAL_ERROR;
 80017dc:	2301      	movs	r3, #1
 80017de:	e0d2      	b.n	8001986 <HAL_UART_Receive+0x1d2>
    }

    /* In case of 9bits/No Parity transfer, pData buffer provided as input parameter
       should be aligned on a u16 frontier, as data to be received from RDR will be
       handled through a u16 cast. */
    if ((huart->Init.WordLength == UART_WORDLENGTH_9B) && (huart->Init.Parity == UART_PARITY_NONE))
 80017e0:	68fb      	ldr	r3, [r7, #12]
 80017e2:	689a      	ldr	r2, [r3, #8]
 80017e4:	2380      	movs	r3, #128	; 0x80
 80017e6:	015b      	lsls	r3, r3, #5
 80017e8:	429a      	cmp	r2, r3
 80017ea:	d109      	bne.n	8001800 <HAL_UART_Receive+0x4c>
 80017ec:	68fb      	ldr	r3, [r7, #12]
 80017ee:	691b      	ldr	r3, [r3, #16]
 80017f0:	2b00      	cmp	r3, #0
 80017f2:	d105      	bne.n	8001800 <HAL_UART_Receive+0x4c>
    {
      if ((((uint32_t)pData) & 1U) != 0U)
 80017f4:	68bb      	ldr	r3, [r7, #8]
 80017f6:	2201      	movs	r2, #1
 80017f8:	4013      	ands	r3, r2
 80017fa:	d001      	beq.n	8001800 <HAL_UART_Receive+0x4c>
      {
        return  HAL_ERROR;
 80017fc:	2301      	movs	r3, #1
 80017fe:	e0c2      	b.n	8001986 <HAL_UART_Receive+0x1d2>
      }
    }

    __HAL_LOCK(huart);
 8001800:	68fb      	ldr	r3, [r7, #12]
 8001802:	2274      	movs	r2, #116	; 0x74
 8001804:	5c9b      	ldrb	r3, [r3, r2]
 8001806:	2b01      	cmp	r3, #1
 8001808:	d101      	bne.n	800180e <HAL_UART_Receive+0x5a>
 800180a:	2302      	movs	r3, #2
 800180c:	e0bb      	b.n	8001986 <HAL_UART_Receive+0x1d2>
 800180e:	68fb      	ldr	r3, [r7, #12]
 8001810:	2274      	movs	r2, #116	; 0x74
 8001812:	2101      	movs	r1, #1
 8001814:	5499      	strb	r1, [r3, r2]

    huart->ErrorCode = HAL_UART_ERROR_NONE;
 8001816:	68fb      	ldr	r3, [r7, #12]
 8001818:	2280      	movs	r2, #128	; 0x80
 800181a:	2100      	movs	r1, #0
 800181c:	5099      	str	r1, [r3, r2]
    huart->RxState = HAL_UART_STATE_BUSY_RX;
 800181e:	68fb      	ldr	r3, [r7, #12]
 8001820:	2222      	movs	r2, #34	; 0x22
 8001822:	67da      	str	r2, [r3, #124]	; 0x7c
    huart->ReceptionType = HAL_UART_RECEPTION_STANDARD;
 8001824:	68fb      	ldr	r3, [r7, #12]
 8001826:	2200      	movs	r2, #0
 8001828:	661a      	str	r2, [r3, #96]	; 0x60

    /* Init tickstart for timeout management */
    tickstart = HAL_GetTick();
 800182a:	f7fe ff25 	bl	8000678 <HAL_GetTick>
 800182e:	0003      	movs	r3, r0
 8001830:	617b      	str	r3, [r7, #20]

    huart->RxXferSize  = Size;
 8001832:	68fb      	ldr	r3, [r7, #12]
 8001834:	1dba      	adds	r2, r7, #6
 8001836:	2158      	movs	r1, #88	; 0x58
 8001838:	8812      	ldrh	r2, [r2, #0]
 800183a:	525a      	strh	r2, [r3, r1]
    huart->RxXferCount = Size;
 800183c:	68fb      	ldr	r3, [r7, #12]
 800183e:	1dba      	adds	r2, r7, #6
 8001840:	215a      	movs	r1, #90	; 0x5a
 8001842:	8812      	ldrh	r2, [r2, #0]
 8001844:	525a      	strh	r2, [r3, r1]

    /* Computation of UART mask to apply to RDR register */
    UART_MASK_COMPUTATION(huart);
 8001846:	68fb      	ldr	r3, [r7, #12]
 8001848:	689a      	ldr	r2, [r3, #8]
 800184a:	2380      	movs	r3, #128	; 0x80
 800184c:	015b      	lsls	r3, r3, #5
 800184e:	429a      	cmp	r2, r3
 8001850:	d10d      	bne.n	800186e <HAL_UART_Receive+0xba>
 8001852:	68fb      	ldr	r3, [r7, #12]
 8001854:	691b      	ldr	r3, [r3, #16]
 8001856:	2b00      	cmp	r3, #0
 8001858:	d104      	bne.n	8001864 <HAL_UART_Receive+0xb0>
 800185a:	68fb      	ldr	r3, [r7, #12]
 800185c:	225c      	movs	r2, #92	; 0x5c
 800185e:	494c      	ldr	r1, [pc, #304]	; (8001990 <HAL_UART_Receive+0x1dc>)
 8001860:	5299      	strh	r1, [r3, r2]
 8001862:	e02e      	b.n	80018c2 <HAL_UART_Receive+0x10e>
 8001864:	68fb      	ldr	r3, [r7, #12]
 8001866:	225c      	movs	r2, #92	; 0x5c
 8001868:	21ff      	movs	r1, #255	; 0xff
 800186a:	5299      	strh	r1, [r3, r2]
 800186c:	e029      	b.n	80018c2 <HAL_UART_Receive+0x10e>
 800186e:	68fb      	ldr	r3, [r7, #12]
 8001870:	689b      	ldr	r3, [r3, #8]
 8001872:	2b00      	cmp	r3, #0
 8001874:	d10d      	bne.n	8001892 <HAL_UART_Receive+0xde>
 8001876:	68fb      	ldr	r3, [r7, #12]
 8001878:	691b      	ldr	r3, [r3, #16]
 800187a:	2b00      	cmp	r3, #0
 800187c:	d104      	bne.n	8001888 <HAL_UART_Receive+0xd4>
 800187e:	68fb      	ldr	r3, [r7, #12]
 8001880:	225c      	movs	r2, #92	; 0x5c
 8001882:	21ff      	movs	r1, #255	; 0xff
 8001884:	5299      	strh	r1, [r3, r2]
 8001886:	e01c      	b.n	80018c2 <HAL_UART_Receive+0x10e>
 8001888:	68fb      	ldr	r3, [r7, #12]
 800188a:	225c      	movs	r2, #92	; 0x5c
 800188c:	217f      	movs	r1, #127	; 0x7f
 800188e:	5299      	strh	r1, [r3, r2]
 8001890:	e017      	b.n	80018c2 <HAL_UART_Receive+0x10e>
 8001892:	68fb      	ldr	r3, [r7, #12]
 8001894:	689a      	ldr	r2, [r3, #8]
 8001896:	2380      	movs	r3, #128	; 0x80
 8001898:	055b      	lsls	r3, r3, #21
 800189a:	429a      	cmp	r2, r3
 800189c:	d10d      	bne.n	80018ba <HAL_UART_Receive+0x106>
 800189e:	68fb      	ldr	r3, [r7, #12]
 80018a0:	691b      	ldr	r3, [r3, #16]
 80018a2:	2b00      	cmp	r3, #0
 80018a4:	d104      	bne.n	80018b0 <HAL_UART_Receive+0xfc>
 80018a6:	68fb      	ldr	r3, [r7, #12]
 80018a8:	225c      	movs	r2, #92	; 0x5c
 80018aa:	217f      	movs	r1, #127	; 0x7f
 80018ac:	5299      	strh	r1, [r3, r2]
 80018ae:	e008      	b.n	80018c2 <HAL_UART_Receive+0x10e>
 80018b0:	68fb      	ldr	r3, [r7, #12]
 80018b2:	225c      	movs	r2, #92	; 0x5c
 80018b4:	213f      	movs	r1, #63	; 0x3f
 80018b6:	5299      	strh	r1, [r3, r2]
 80018b8:	e003      	b.n	80018c2 <HAL_UART_Receive+0x10e>
 80018ba:	68fb      	ldr	r3, [r7, #12]
 80018bc:	225c      	movs	r2, #92	; 0x5c
 80018be:	2100      	movs	r1, #0
 80018c0:	5299      	strh	r1, [r3, r2]
    uhMask = huart->Mask;
 80018c2:	2312      	movs	r3, #18
 80018c4:	18fb      	adds	r3, r7, r3
 80018c6:	68fa      	ldr	r2, [r7, #12]
 80018c8:	215c      	movs	r1, #92	; 0x5c
 80018ca:	5a52      	ldrh	r2, [r2, r1]
 80018cc:	801a      	strh	r2, [r3, #0]

    /* In case of 9bits/No Parity transfer, pRxData needs to be handled as a uint16_t pointer */
    if ((huart->Init.WordLength == UART_WORDLENGTH_9B) && (huart->Init.Parity == UART_PARITY_NONE))
 80018ce:	68fb      	ldr	r3, [r7, #12]
 80018d0:	689a      	ldr	r2, [r3, #8]
 80018d2:	2380      	movs	r3, #128	; 0x80
 80018d4:	015b      	lsls	r3, r3, #5
 80018d6:	429a      	cmp	r2, r3
 80018d8:	d108      	bne.n	80018ec <HAL_UART_Receive+0x138>
 80018da:	68fb      	ldr	r3, [r7, #12]
 80018dc:	691b      	ldr	r3, [r3, #16]
 80018de:	2b00      	cmp	r3, #0
 80018e0:	d104      	bne.n	80018ec <HAL_UART_Receive+0x138>
    {
      pdata8bits  = NULL;
 80018e2:	2300      	movs	r3, #0
 80018e4:	61fb      	str	r3, [r7, #28]
      pdata16bits = (uint16_t *) pData;
 80018e6:	68bb      	ldr	r3, [r7, #8]
 80018e8:	61bb      	str	r3, [r7, #24]
 80018ea:	e003      	b.n	80018f4 <HAL_UART_Receive+0x140>
    }
    else
    {
      pdata8bits  = pData;
 80018ec:	68bb      	ldr	r3, [r7, #8]
 80018ee:	61fb      	str	r3, [r7, #28]
      pdata16bits = NULL;
 80018f0:	2300      	movs	r3, #0
 80018f2:	61bb      	str	r3, [r7, #24]
    }

    __HAL_UNLOCK(huart);
 80018f4:	68fb      	ldr	r3, [r7, #12]
 80018f6:	2274      	movs	r2, #116	; 0x74
 80018f8:	2100      	movs	r1, #0
 80018fa:	5499      	strb	r1, [r3, r2]

    /* as long as data have to be received */
    while (huart->RxXferCount > 0U)
 80018fc:	e037      	b.n	800196e <HAL_UART_Receive+0x1ba>
    {
      if (UART_WaitOnFlagUntilTimeout(huart, UART_FLAG_RXNE, RESET, tickstart, Timeout) != HAL_OK)
 80018fe:	697a      	ldr	r2, [r7, #20]
 8001900:	68f8      	ldr	r0, [r7, #12]
 8001902:	683b      	ldr	r3, [r7, #0]
 8001904:	9300      	str	r3, [sp, #0]
 8001906:	0013      	movs	r3, r2
 8001908:	2200      	movs	r2, #0
 800190a:	2120      	movs	r1, #32
 800190c:	f000 fa7e 	bl	8001e0c <UART_WaitOnFlagUntilTimeout>
 8001910:	1e03      	subs	r3, r0, #0
 8001912:	d001      	beq.n	8001918 <HAL_UART_Receive+0x164>
      {
        return HAL_TIMEOUT;
 8001914:	2303      	movs	r3, #3
 8001916:	e036      	b.n	8001986 <HAL_UART_Receive+0x1d2>
      }
      if (pdata8bits == NULL)
 8001918:	69fb      	ldr	r3, [r7, #28]
 800191a:	2b00      	cmp	r3, #0
 800191c:	d10e      	bne.n	800193c <HAL_UART_Receive+0x188>
      {
        *pdata16bits = (uint16_t)(huart->Instance->RDR & uhMask);
 800191e:	68fb      	ldr	r3, [r7, #12]
 8001920:	681b      	ldr	r3, [r3, #0]
 8001922:	8c9b      	ldrh	r3, [r3, #36]	; 0x24
 8001924:	b29b      	uxth	r3, r3
 8001926:	2212      	movs	r2, #18
 8001928:	18ba      	adds	r2, r7, r2
 800192a:	8812      	ldrh	r2, [r2, #0]
 800192c:	4013      	ands	r3, r2
 800192e:	b29a      	uxth	r2, r3
 8001930:	69bb      	ldr	r3, [r7, #24]
 8001932:	801a      	strh	r2, [r3, #0]
        pdata16bits++;
 8001934:	69bb      	ldr	r3, [r7, #24]
 8001936:	3302      	adds	r3, #2
 8001938:	61bb      	str	r3, [r7, #24]
 800193a:	e00f      	b.n	800195c <HAL_UART_Receive+0x1a8>
      }
      else
      {
        *pdata8bits = (uint8_t)(huart->Instance->RDR & (uint8_t)uhMask);
 800193c:	68fb      	ldr	r3, [r7, #12]
 800193e:	681b      	ldr	r3, [r3, #0]
 8001940:	8c9b      	ldrh	r3, [r3, #36]	; 0x24
 8001942:	b29b      	uxth	r3, r3
 8001944:	b2db      	uxtb	r3, r3
 8001946:	2212      	movs	r2, #18
 8001948:	18ba      	adds	r2, r7, r2
 800194a:	8812      	ldrh	r2, [r2, #0]
 800194c:	b2d2      	uxtb	r2, r2
 800194e:	4013      	ands	r3, r2
 8001950:	b2da      	uxtb	r2, r3
 8001952:	69fb      	ldr	r3, [r7, #28]
 8001954:	701a      	strb	r2, [r3, #0]
        pdata8bits++;
 8001956:	69fb      	ldr	r3, [r7, #28]
 8001958:	3301      	adds	r3, #1
 800195a:	61fb      	str	r3, [r7, #28]
      }
      huart->RxXferCount--;
 800195c:	68fb      	ldr	r3, [r7, #12]
 800195e:	225a      	movs	r2, #90	; 0x5a
 8001960:	5a9b      	ldrh	r3, [r3, r2]
 8001962:	b29b      	uxth	r3, r3
 8001964:	3b01      	subs	r3, #1
 8001966:	b299      	uxth	r1, r3
 8001968:	68fb      	ldr	r3, [r7, #12]
 800196a:	225a      	movs	r2, #90	; 0x5a
 800196c:	5299      	strh	r1, [r3, r2]
    while (huart->RxXferCount > 0U)
 800196e:	68fb      	ldr	r3, [r7, #12]
 8001970:	225a      	movs	r2, #90	; 0x5a
 8001972:	5a9b      	ldrh	r3, [r3, r2]
 8001974:	b29b      	uxth	r3, r3
 8001976:	2b00      	cmp	r3, #0
 8001978:	d1c1      	bne.n	80018fe <HAL_UART_Receive+0x14a>
    }

    /* At end of Rx process, restore huart->RxState to Ready */
    huart->RxState = HAL_UART_STATE_READY;
 800197a:	68fb      	ldr	r3, [r7, #12]
 800197c:	2220      	movs	r2, #32
 800197e:	67da      	str	r2, [r3, #124]	; 0x7c

    return HAL_OK;
 8001980:	2300      	movs	r3, #0
 8001982:	e000      	b.n	8001986 <HAL_UART_Receive+0x1d2>
  }
  else
  {
    return HAL_BUSY;
 8001984:	2302      	movs	r3, #2
  }
}
 8001986:	0018      	movs	r0, r3
 8001988:	46bd      	mov	sp, r7
 800198a:	b008      	add	sp, #32
 800198c:	bd80      	pop	{r7, pc}
 800198e:	46c0      	nop			; (mov r8, r8)
 8001990:	000001ff 	.word	0x000001ff

08001994 <UART_SetConfig>:
  * @brief Configure the UART peripheral.
  * @param huart UART handle.
  * @retval HAL status
  */
HAL_StatusTypeDef UART_SetConfig(UART_HandleTypeDef *huart)
{
 8001994:	b580      	push	{r7, lr}
 8001996:	b088      	sub	sp, #32
 8001998:	af00      	add	r7, sp, #0
 800199a:	6078      	str	r0, [r7, #4]
  uint32_t tmpreg;
  uint16_t brrtemp;
  UART_ClockSourceTypeDef clocksource;
  uint32_t usartdiv;
  HAL_StatusTypeDef ret               = HAL_OK;
 800199c:	231e      	movs	r3, #30
 800199e:	18fb      	adds	r3, r7, r3
 80019a0:	2200      	movs	r2, #0
 80019a2:	701a      	strb	r2, [r3, #0]
  *  the UART Word Length, Parity, Mode and oversampling:
  *  set the M bits according to huart->Init.WordLength value
  *  set PCE and PS bits according to huart->Init.Parity value
  *  set TE and RE bits according to huart->Init.Mode value
  *  set OVER8 bit according to huart->Init.OverSampling value */
  tmpreg = (uint32_t)huart->Init.WordLength | huart->Init.Parity | huart->Init.Mode | huart->Init.OverSampling ;
 80019a4:	687b      	ldr	r3, [r7, #4]
 80019a6:	689a      	ldr	r2, [r3, #8]
 80019a8:	687b      	ldr	r3, [r7, #4]
 80019aa:	691b      	ldr	r3, [r3, #16]
 80019ac:	431a      	orrs	r2, r3
 80019ae:	687b      	ldr	r3, [r7, #4]
 80019b0:	695b      	ldr	r3, [r3, #20]
 80019b2:	431a      	orrs	r2, r3
 80019b4:	687b      	ldr	r3, [r7, #4]
 80019b6:	69db      	ldr	r3, [r3, #28]
 80019b8:	4313      	orrs	r3, r2
 80019ba:	617b      	str	r3, [r7, #20]
  MODIFY_REG(huart->Instance->CR1, USART_CR1_FIELDS, tmpreg);
 80019bc:	687b      	ldr	r3, [r7, #4]
 80019be:	681b      	ldr	r3, [r3, #0]
 80019c0:	681b      	ldr	r3, [r3, #0]
 80019c2:	4a8b      	ldr	r2, [pc, #556]	; (8001bf0 <UART_SetConfig+0x25c>)
 80019c4:	4013      	ands	r3, r2
 80019c6:	0019      	movs	r1, r3
 80019c8:	687b      	ldr	r3, [r7, #4]
 80019ca:	681b      	ldr	r3, [r3, #0]
 80019cc:	697a      	ldr	r2, [r7, #20]
 80019ce:	430a      	orrs	r2, r1
 80019d0:	601a      	str	r2, [r3, #0]

  /*-------------------------- USART CR2 Configuration -----------------------*/
  /* Configure the UART Stop Bits: Set STOP[13:12] bits according
  * to huart->Init.StopBits value */
  MODIFY_REG(huart->Instance->CR2, USART_CR2_STOP, huart->Init.StopBits);
 80019d2:	687b      	ldr	r3, [r7, #4]
 80019d4:	681b      	ldr	r3, [r3, #0]
 80019d6:	685b      	ldr	r3, [r3, #4]
 80019d8:	4a86      	ldr	r2, [pc, #536]	; (8001bf4 <UART_SetConfig+0x260>)
 80019da:	4013      	ands	r3, r2
 80019dc:	0019      	movs	r1, r3
 80019de:	687b      	ldr	r3, [r7, #4]
 80019e0:	68da      	ldr	r2, [r3, #12]
 80019e2:	687b      	ldr	r3, [r7, #4]
 80019e4:	681b      	ldr	r3, [r3, #0]
 80019e6:	430a      	orrs	r2, r1
 80019e8:	605a      	str	r2, [r3, #4]
  /* Configure
  * - UART HardWare Flow Control: set CTSE and RTSE bits according
  *   to huart->Init.HwFlowCtl value
  * - one-bit sampling method versus three samples' majority rule according
  *   to huart->Init.OneBitSampling (not applicable to LPUART) */
  tmpreg = (uint32_t)huart->Init.HwFlowCtl;
 80019ea:	687b      	ldr	r3, [r7, #4]
 80019ec:	699b      	ldr	r3, [r3, #24]
 80019ee:	617b      	str	r3, [r7, #20]

  tmpreg |= huart->Init.OneBitSampling;
 80019f0:	687b      	ldr	r3, [r7, #4]
 80019f2:	6a1b      	ldr	r3, [r3, #32]
 80019f4:	697a      	ldr	r2, [r7, #20]
 80019f6:	4313      	orrs	r3, r2
 80019f8:	617b      	str	r3, [r7, #20]
  MODIFY_REG(huart->Instance->CR3, USART_CR3_FIELDS, tmpreg);
 80019fa:	687b      	ldr	r3, [r7, #4]
 80019fc:	681b      	ldr	r3, [r3, #0]
 80019fe:	689b      	ldr	r3, [r3, #8]
 8001a00:	4a7d      	ldr	r2, [pc, #500]	; (8001bf8 <UART_SetConfig+0x264>)
 8001a02:	4013      	ands	r3, r2
 8001a04:	0019      	movs	r1, r3
 8001a06:	687b      	ldr	r3, [r7, #4]
 8001a08:	681b      	ldr	r3, [r3, #0]
 8001a0a:	697a      	ldr	r2, [r7, #20]
 8001a0c:	430a      	orrs	r2, r1
 8001a0e:	609a      	str	r2, [r3, #8]


  /*-------------------------- USART BRR Configuration -----------------------*/
  UART_GETCLOCKSOURCE(huart, clocksource);
 8001a10:	687b      	ldr	r3, [r7, #4]
 8001a12:	681b      	ldr	r3, [r3, #0]
 8001a14:	4a79      	ldr	r2, [pc, #484]	; (8001bfc <UART_SetConfig+0x268>)
 8001a16:	4293      	cmp	r3, r2
 8001a18:	d125      	bne.n	8001a66 <UART_SetConfig+0xd2>
 8001a1a:	4b79      	ldr	r3, [pc, #484]	; (8001c00 <UART_SetConfig+0x26c>)
 8001a1c:	6b1b      	ldr	r3, [r3, #48]	; 0x30
 8001a1e:	2203      	movs	r2, #3
 8001a20:	4013      	ands	r3, r2
 8001a22:	2b01      	cmp	r3, #1
 8001a24:	d00f      	beq.n	8001a46 <UART_SetConfig+0xb2>
 8001a26:	d304      	bcc.n	8001a32 <UART_SetConfig+0x9e>
 8001a28:	2b02      	cmp	r3, #2
 8001a2a:	d011      	beq.n	8001a50 <UART_SetConfig+0xbc>
 8001a2c:	2b03      	cmp	r3, #3
 8001a2e:	d005      	beq.n	8001a3c <UART_SetConfig+0xa8>
 8001a30:	e013      	b.n	8001a5a <UART_SetConfig+0xc6>
 8001a32:	231f      	movs	r3, #31
 8001a34:	18fb      	adds	r3, r7, r3
 8001a36:	2200      	movs	r2, #0
 8001a38:	701a      	strb	r2, [r3, #0]
 8001a3a:	e022      	b.n	8001a82 <UART_SetConfig+0xee>
 8001a3c:	231f      	movs	r3, #31
 8001a3e:	18fb      	adds	r3, r7, r3
 8001a40:	2202      	movs	r2, #2
 8001a42:	701a      	strb	r2, [r3, #0]
 8001a44:	e01d      	b.n	8001a82 <UART_SetConfig+0xee>
 8001a46:	231f      	movs	r3, #31
 8001a48:	18fb      	adds	r3, r7, r3
 8001a4a:	2204      	movs	r2, #4
 8001a4c:	701a      	strb	r2, [r3, #0]
 8001a4e:	e018      	b.n	8001a82 <UART_SetConfig+0xee>
 8001a50:	231f      	movs	r3, #31
 8001a52:	18fb      	adds	r3, r7, r3
 8001a54:	2208      	movs	r2, #8
 8001a56:	701a      	strb	r2, [r3, #0]
 8001a58:	e013      	b.n	8001a82 <UART_SetConfig+0xee>
 8001a5a:	231f      	movs	r3, #31
 8001a5c:	18fb      	adds	r3, r7, r3
 8001a5e:	2210      	movs	r2, #16
 8001a60:	701a      	strb	r2, [r3, #0]
 8001a62:	46c0      	nop			; (mov r8, r8)
 8001a64:	e00d      	b.n	8001a82 <UART_SetConfig+0xee>
 8001a66:	687b      	ldr	r3, [r7, #4]
 8001a68:	681b      	ldr	r3, [r3, #0]
 8001a6a:	4a66      	ldr	r2, [pc, #408]	; (8001c04 <UART_SetConfig+0x270>)
 8001a6c:	4293      	cmp	r3, r2
 8001a6e:	d104      	bne.n	8001a7a <UART_SetConfig+0xe6>
 8001a70:	231f      	movs	r3, #31
 8001a72:	18fb      	adds	r3, r7, r3
 8001a74:	2200      	movs	r2, #0
 8001a76:	701a      	strb	r2, [r3, #0]
 8001a78:	e003      	b.n	8001a82 <UART_SetConfig+0xee>
 8001a7a:	231f      	movs	r3, #31
 8001a7c:	18fb      	adds	r3, r7, r3
 8001a7e:	2210      	movs	r2, #16
 8001a80:	701a      	strb	r2, [r3, #0]

  if (huart->Init.OverSampling == UART_OVERSAMPLING_8)
 8001a82:	687b      	ldr	r3, [r7, #4]
 8001a84:	69da      	ldr	r2, [r3, #28]
 8001a86:	2380      	movs	r3, #128	; 0x80
 8001a88:	021b      	lsls	r3, r3, #8
 8001a8a:	429a      	cmp	r2, r3
 8001a8c:	d15c      	bne.n	8001b48 <UART_SetConfig+0x1b4>
  {
    switch (clocksource)
 8001a8e:	231f      	movs	r3, #31
 8001a90:	18fb      	adds	r3, r7, r3
 8001a92:	781b      	ldrb	r3, [r3, #0]
 8001a94:	2b02      	cmp	r3, #2
 8001a96:	d00d      	beq.n	8001ab4 <UART_SetConfig+0x120>
 8001a98:	dc02      	bgt.n	8001aa0 <UART_SetConfig+0x10c>
 8001a9a:	2b00      	cmp	r3, #0
 8001a9c:	d005      	beq.n	8001aaa <UART_SetConfig+0x116>
 8001a9e:	e015      	b.n	8001acc <UART_SetConfig+0x138>
 8001aa0:	2b04      	cmp	r3, #4
 8001aa2:	d00a      	beq.n	8001aba <UART_SetConfig+0x126>
 8001aa4:	2b08      	cmp	r3, #8
 8001aa6:	d00d      	beq.n	8001ac4 <UART_SetConfig+0x130>
 8001aa8:	e010      	b.n	8001acc <UART_SetConfig+0x138>
    {
      case UART_CLOCKSOURCE_PCLK1:
        pclk = HAL_RCC_GetPCLK1Freq();
 8001aaa:	f7ff fd2b 	bl	8001504 <HAL_RCC_GetPCLK1Freq>
 8001aae:	0003      	movs	r3, r0
 8001ab0:	61bb      	str	r3, [r7, #24]
        break;
 8001ab2:	e012      	b.n	8001ada <UART_SetConfig+0x146>
      case UART_CLOCKSOURCE_HSI:
        pclk = (uint32_t) HSI_VALUE;
 8001ab4:	4b54      	ldr	r3, [pc, #336]	; (8001c08 <UART_SetConfig+0x274>)
 8001ab6:	61bb      	str	r3, [r7, #24]
        break;
 8001ab8:	e00f      	b.n	8001ada <UART_SetConfig+0x146>
      case UART_CLOCKSOURCE_SYSCLK:
        pclk = HAL_RCC_GetSysClockFreq();
 8001aba:	f7ff fc9b 	bl	80013f4 <HAL_RCC_GetSysClockFreq>
 8001abe:	0003      	movs	r3, r0
 8001ac0:	61bb      	str	r3, [r7, #24]
        break;
 8001ac2:	e00a      	b.n	8001ada <UART_SetConfig+0x146>
      case UART_CLOCKSOURCE_LSE:
        pclk = (uint32_t) LSE_VALUE;
 8001ac4:	2380      	movs	r3, #128	; 0x80
 8001ac6:	021b      	lsls	r3, r3, #8
 8001ac8:	61bb      	str	r3, [r7, #24]
        break;
 8001aca:	e006      	b.n	8001ada <UART_SetConfig+0x146>
      default:
        pclk = 0U;
 8001acc:	2300      	movs	r3, #0
 8001ace:	61bb      	str	r3, [r7, #24]
        ret = HAL_ERROR;
 8001ad0:	231e      	movs	r3, #30
 8001ad2:	18fb      	adds	r3, r7, r3
 8001ad4:	2201      	movs	r2, #1
 8001ad6:	701a      	strb	r2, [r3, #0]
        break;
 8001ad8:	46c0      	nop			; (mov r8, r8)
    }

    /* USARTDIV must be greater than or equal to 0d16 */
    if (pclk != 0U)
 8001ada:	69bb      	ldr	r3, [r7, #24]
 8001adc:	2b00      	cmp	r3, #0
 8001ade:	d100      	bne.n	8001ae2 <UART_SetConfig+0x14e>
 8001ae0:	e079      	b.n	8001bd6 <UART_SetConfig+0x242>
    {
      usartdiv = (uint16_t)(UART_DIV_SAMPLING8(pclk, huart->Init.BaudRate));
 8001ae2:	69bb      	ldr	r3, [r7, #24]
 8001ae4:	005a      	lsls	r2, r3, #1
 8001ae6:	687b      	ldr	r3, [r7, #4]
 8001ae8:	685b      	ldr	r3, [r3, #4]
 8001aea:	085b      	lsrs	r3, r3, #1
 8001aec:	18d2      	adds	r2, r2, r3
 8001aee:	687b      	ldr	r3, [r7, #4]
 8001af0:	685b      	ldr	r3, [r3, #4]
 8001af2:	0019      	movs	r1, r3
 8001af4:	0010      	movs	r0, r2
 8001af6:	f7fe fb07 	bl	8000108 <__udivsi3>
 8001afa:	0003      	movs	r3, r0
 8001afc:	b29b      	uxth	r3, r3
 8001afe:	613b      	str	r3, [r7, #16]
      if ((usartdiv >= UART_BRR_MIN) && (usartdiv <= UART_BRR_MAX))
 8001b00:	693b      	ldr	r3, [r7, #16]
 8001b02:	2b0f      	cmp	r3, #15
 8001b04:	d91b      	bls.n	8001b3e <UART_SetConfig+0x1aa>
 8001b06:	693b      	ldr	r3, [r7, #16]
 8001b08:	4a40      	ldr	r2, [pc, #256]	; (8001c0c <UART_SetConfig+0x278>)
 8001b0a:	4293      	cmp	r3, r2
 8001b0c:	d817      	bhi.n	8001b3e <UART_SetConfig+0x1aa>
      {
        brrtemp = (uint16_t)(usartdiv & 0xFFF0U);
 8001b0e:	693b      	ldr	r3, [r7, #16]
 8001b10:	b29a      	uxth	r2, r3
 8001b12:	200e      	movs	r0, #14
 8001b14:	183b      	adds	r3, r7, r0
 8001b16:	210f      	movs	r1, #15
 8001b18:	438a      	bics	r2, r1
 8001b1a:	801a      	strh	r2, [r3, #0]
        brrtemp |= (uint16_t)((usartdiv & (uint16_t)0x000FU) >> 1U);
 8001b1c:	693b      	ldr	r3, [r7, #16]
 8001b1e:	085b      	lsrs	r3, r3, #1
 8001b20:	b29b      	uxth	r3, r3
 8001b22:	2207      	movs	r2, #7
 8001b24:	4013      	ands	r3, r2
 8001b26:	b299      	uxth	r1, r3
 8001b28:	183b      	adds	r3, r7, r0
 8001b2a:	183a      	adds	r2, r7, r0
 8001b2c:	8812      	ldrh	r2, [r2, #0]
 8001b2e:	430a      	orrs	r2, r1
 8001b30:	801a      	strh	r2, [r3, #0]
        huart->Instance->BRR = brrtemp;
 8001b32:	687b      	ldr	r3, [r7, #4]
 8001b34:	681b      	ldr	r3, [r3, #0]
 8001b36:	183a      	adds	r2, r7, r0
 8001b38:	8812      	ldrh	r2, [r2, #0]
 8001b3a:	60da      	str	r2, [r3, #12]
 8001b3c:	e04b      	b.n	8001bd6 <UART_SetConfig+0x242>
      }
      else
      {
        ret = HAL_ERROR;
 8001b3e:	231e      	movs	r3, #30
 8001b40:	18fb      	adds	r3, r7, r3
 8001b42:	2201      	movs	r2, #1
 8001b44:	701a      	strb	r2, [r3, #0]
 8001b46:	e046      	b.n	8001bd6 <UART_SetConfig+0x242>
      }
    }
  }
  else
  {
    switch (clocksource)
 8001b48:	231f      	movs	r3, #31
 8001b4a:	18fb      	adds	r3, r7, r3
 8001b4c:	781b      	ldrb	r3, [r3, #0]
 8001b4e:	2b02      	cmp	r3, #2
 8001b50:	d00d      	beq.n	8001b6e <UART_SetConfig+0x1da>
 8001b52:	dc02      	bgt.n	8001b5a <UART_SetConfig+0x1c6>
 8001b54:	2b00      	cmp	r3, #0
 8001b56:	d005      	beq.n	8001b64 <UART_SetConfig+0x1d0>
 8001b58:	e015      	b.n	8001b86 <UART_SetConfig+0x1f2>
 8001b5a:	2b04      	cmp	r3, #4
 8001b5c:	d00a      	beq.n	8001b74 <UART_SetConfig+0x1e0>
 8001b5e:	2b08      	cmp	r3, #8
 8001b60:	d00d      	beq.n	8001b7e <UART_SetConfig+0x1ea>
 8001b62:	e010      	b.n	8001b86 <UART_SetConfig+0x1f2>
    {
      case UART_CLOCKSOURCE_PCLK1:
        pclk = HAL_RCC_GetPCLK1Freq();
 8001b64:	f7ff fcce 	bl	8001504 <HAL_RCC_GetPCLK1Freq>
 8001b68:	0003      	movs	r3, r0
 8001b6a:	61bb      	str	r3, [r7, #24]
        break;
 8001b6c:	e012      	b.n	8001b94 <UART_SetConfig+0x200>
      case UART_CLOCKSOURCE_HSI:
        pclk = (uint32_t) HSI_VALUE;
 8001b6e:	4b26      	ldr	r3, [pc, #152]	; (8001c08 <UART_SetConfig+0x274>)
 8001b70:	61bb      	str	r3, [r7, #24]
        break;
 8001b72:	e00f      	b.n	8001b94 <UART_SetConfig+0x200>
      case UART_CLOCKSOURCE_SYSCLK:
        pclk = HAL_RCC_GetSysClockFreq();
 8001b74:	f7ff fc3e 	bl	80013f4 <HAL_RCC_GetSysClockFreq>
 8001b78:	0003      	movs	r3, r0
 8001b7a:	61bb      	str	r3, [r7, #24]
        break;
 8001b7c:	e00a      	b.n	8001b94 <UART_SetConfig+0x200>
      case UART_CLOCKSOURCE_LSE:
        pclk = (uint32_t) LSE_VALUE;
 8001b7e:	2380      	movs	r3, #128	; 0x80
 8001b80:	021b      	lsls	r3, r3, #8
 8001b82:	61bb      	str	r3, [r7, #24]
        break;
 8001b84:	e006      	b.n	8001b94 <UART_SetConfig+0x200>
      default:
        pclk = 0U;
 8001b86:	2300      	movs	r3, #0
 8001b88:	61bb      	str	r3, [r7, #24]
        ret = HAL_ERROR;
 8001b8a:	231e      	movs	r3, #30
 8001b8c:	18fb      	adds	r3, r7, r3
 8001b8e:	2201      	movs	r2, #1
 8001b90:	701a      	strb	r2, [r3, #0]
        break;
 8001b92:	46c0      	nop			; (mov r8, r8)
    }

    if (pclk != 0U)
 8001b94:	69bb      	ldr	r3, [r7, #24]
 8001b96:	2b00      	cmp	r3, #0
 8001b98:	d01d      	beq.n	8001bd6 <UART_SetConfig+0x242>
    {
      /* USARTDIV must be greater than or equal to 0d16 */
      usartdiv = (uint16_t)(UART_DIV_SAMPLING16(pclk, huart->Init.BaudRate));
 8001b9a:	687b      	ldr	r3, [r7, #4]
 8001b9c:	685b      	ldr	r3, [r3, #4]
 8001b9e:	085a      	lsrs	r2, r3, #1
 8001ba0:	69bb      	ldr	r3, [r7, #24]
 8001ba2:	18d2      	adds	r2, r2, r3
 8001ba4:	687b      	ldr	r3, [r7, #4]
 8001ba6:	685b      	ldr	r3, [r3, #4]
 8001ba8:	0019      	movs	r1, r3
 8001baa:	0010      	movs	r0, r2
 8001bac:	f7fe faac 	bl	8000108 <__udivsi3>
 8001bb0:	0003      	movs	r3, r0
 8001bb2:	b29b      	uxth	r3, r3
 8001bb4:	613b      	str	r3, [r7, #16]
      if ((usartdiv >= UART_BRR_MIN) && (usartdiv <= UART_BRR_MAX))
 8001bb6:	693b      	ldr	r3, [r7, #16]
 8001bb8:	2b0f      	cmp	r3, #15
 8001bba:	d908      	bls.n	8001bce <UART_SetConfig+0x23a>
 8001bbc:	693b      	ldr	r3, [r7, #16]
 8001bbe:	4a13      	ldr	r2, [pc, #76]	; (8001c0c <UART_SetConfig+0x278>)
 8001bc0:	4293      	cmp	r3, r2
 8001bc2:	d804      	bhi.n	8001bce <UART_SetConfig+0x23a>
      {
        huart->Instance->BRR = usartdiv;
 8001bc4:	687b      	ldr	r3, [r7, #4]
