
nucleo_final.elf:     file format elf32-littlearm

Sections:
Idx Name          Size      VMA       LMA       File off  Algn
  0 .isr_vector   000000c0  08000000  08000000  00010000  2**0
                  CONTENTS, ALLOC, LOAD, READONLY, DATA
  1 .text         00002770  080000c0  080000c0  000100c0  2**2
                  CONTENTS, ALLOC, LOAD, READONLY, CODE
  2 .rodata       00000038  08002830  08002830  00012830  2**2
                  CONTENTS, ALLOC, LOAD, READONLY, DATA
  3 .ARM.extab    00000000  08002868  08002868  0002000c  2**0
                  CONTENTS
  4 .ARM          00000000  08002868  08002868  0002000c  2**0
                  CONTENTS
  5 .preinit_array 00000000  08002868  08002868  0002000c  2**0
                  CONTENTS, ALLOC, LOAD, DATA
  6 .init_array   00000004  08002868  08002868  00012868  2**2
                  CONTENTS, ALLOC, LOAD, DATA
  7 .fini_array   00000004  0800286c  0800286c  0001286c  2**2
                  CONTENTS, ALLOC, LOAD, DATA
  8 .data         0000000c  20000000  08002870  00020000  2**2
                  CONTENTS, ALLOC, LOAD, DATA
  9 .bss          000000ec  2000000c  0800287c  0002000c  2**2
                  ALLOC
 10 ._user_heap_stack 00000600  200000f8  0800287c  000200f8  2**0
                  ALLOC
 11 .ARM.attributes 00000028  00000000  00000000  0002000c  2**0
                  CONTENTS, READONLY
 12 .debug_info   00008e34  00000000  00000000  00020034  2**0
                  CONTENTS, READONLY, DEBUGGING
 13 .debug_abbrev 00001497  00000000  00000000  00028e68  2**0
                  CONTENTS, READONLY, DEBUGGING
 14 .debug_aranges 00000ae8  00000000  00000000  0002a300  2**3
                  CONTENTS, READONLY, DEBUGGING
 15 .debug_ranges 00000a60  00000000  00000000  0002ade8  2**3
                  CONTENTS, READONLY, DEBUGGING
 16 .debug_macro  00017ca7  00000000  00000000  0002b848  2**0
                  CONTENTS, READONLY, DEBUGGING
 17 .debug_line   00008878  00000000  00000000  000434ef  2**0
                  CONTENTS, READONLY, DEBUGGING
 18 .debug_str    0008cce1  00000000  00000000  0004bd67  2**0
                  CONTENTS, READONLY, DEBUGGING
 19 .comment      0000007b  00000000  00000000  000d8a48  2**0
                  CONTENTS, READONLY
 20 .debug_frame  00002764  00000000  00000000  000d8ac4  2**2
                  CONTENTS, READONLY, DEBUGGING

Disassembly of section .text:

080000c0 <__do_global_dtors_aux>:
 80000c0:	b510      	push	{r4, lr}
 80000c2:	4c06      	ldr	r4, [pc, #24]	; (80000dc <__do_global_dtors_aux+0x1c>)
 80000c4:	7823      	ldrb	r3, [r4, #0]
 80000c6:	2b00      	cmp	r3, #0
 80000c8:	d107      	bne.n	80000da <__do_global_dtors_aux+0x1a>
 80000ca:	4b05      	ldr	r3, [pc, #20]	; (80000e0 <__do_global_dtors_aux+0x20>)
 80000cc:	2b00      	cmp	r3, #0
 80000ce:	d002      	beq.n	80000d6 <__do_global_dtors_aux+0x16>
 80000d0:	4804      	ldr	r0, [pc, #16]	; (80000e4 <__do_global_dtors_aux+0x24>)
 80000d2:	e000      	b.n	80000d6 <__do_global_dtors_aux+0x16>
 80000d4:	bf00      	nop
 80000d6:	2301      	movs	r3, #1
 80000d8:	7023      	strb	r3, [r4, #0]
 80000da:	bd10      	pop	{r4, pc}
 80000dc:	2000000c 	.word	0x2000000c
 80000e0:	00000000 	.word	0x00000000
 80000e4:	08002818 	.word	0x08002818

080000e8 <frame_dummy>:
 80000e8:	4b04      	ldr	r3, [pc, #16]	; (80000fc <frame_dummy+0x14>)
 80000ea:	b510      	push	{r4, lr}
 80000ec:	2b00      	cmp	r3, #0
 80000ee:	d003      	beq.n	80000f8 <frame_dummy+0x10>
 80000f0:	4903      	ldr	r1, [pc, #12]	; (8000100 <frame_dummy+0x18>)
 80000f2:	4804      	ldr	r0, [pc, #16]	; (8000104 <frame_dummy+0x1c>)
 80000f4:	e000      	b.n	80000f8 <frame_dummy+0x10>
 80000f6:	bf00      	nop
 80000f8:	bd10      	pop	{r4, pc}
 80000fa:	46c0      	nop			; (mov r8, r8)
 80000fc:	00000000 	.word	0x00000000
 8000100:	20000010 	.word	0x20000010
 8000104:	08002818 	.word	0x08002818

08000108 <__udivsi3>:
 8000108:	2200      	movs	r2, #0
 800010a:	0843      	lsrs	r3, r0, #1
 800010c:	428b      	cmp	r3, r1
 800010e:	d374      	bcc.n	80001fa <__udivsi3+0xf2>
 8000110:	0903      	lsrs	r3, r0, #4
 8000112:	428b      	cmp	r3, r1
 8000114:	d35f      	bcc.n	80001d6 <__udivsi3+0xce>
 8000116:	0a03      	lsrs	r3, r0, #8
 8000118:	428b      	cmp	r3, r1
 800011a:	d344      	bcc.n	80001a6 <__udivsi3+0x9e>
 800011c:	0b03      	lsrs	r3, r0, #12
 800011e:	428b      	cmp	r3, r1
 8000120:	d328      	bcc.n	8000174 <__udivsi3+0x6c>
 8000122:	0c03      	lsrs	r3, r0, #16
 8000124:	428b      	cmp	r3, r1
 8000126:	d30d      	bcc.n	8000144 <__udivsi3+0x3c>
 8000128:	22ff      	movs	r2, #255	; 0xff
 800012a:	0209      	lsls	r1, r1, #8
 800012c:	ba12      	rev	r2, r2
 800012e:	0c03      	lsrs	r3, r0, #16
 8000130:	428b      	cmp	r3, r1
 8000132:	d302      	bcc.n	800013a <__udivsi3+0x32>
 8000134:	1212      	asrs	r2, r2, #8
 8000136:	0209      	lsls	r1, r1, #8
 8000138:	d065      	beq.n	8000206 <__udivsi3+0xfe>
 800013a:	0b03      	lsrs	r3, r0, #12
 800013c:	428b      	cmp	r3, r1
 800013e:	d319      	bcc.n	8000174 <__udivsi3+0x6c>
 8000140:	e000      	b.n	8000144 <__udivsi3+0x3c>
 8000142:	0a09      	lsrs	r1, r1, #8
 8000144:	0bc3      	lsrs	r3, r0, #15
 8000146:	428b      	cmp	r3, r1
 8000148:	d301      	bcc.n	800014e <__udivsi3+0x46>
 800014a:	03cb      	lsls	r3, r1, #15
 800014c:	1ac0      	subs	r0, r0, r3
 800014e:	4152      	adcs	r2, r2
 8000150:	0b83      	lsrs	r3, r0, #14
 8000152:	428b      	cmp	r3, r1
 8000154:	d301      	bcc.n	800015a <__udivsi3+0x52>
 8000156:	038b      	lsls	r3, r1, #14
 8000158:	1ac0      	subs	r0, r0, r3
 800015a:	4152      	adcs	r2, r2
 800015c:	0b43      	lsrs	r3, r0, #13
 800015e:	428b      	cmp	r3, r1
 8000160:	d301      	bcc.n	8000166 <__udivsi3+0x5e>
 8000162:	034b      	lsls	r3, r1, #13
 8000164:	1ac0      	subs	r0, r0, r3
 8000166:	4152      	adcs	r2, r2
 8000168:	0b03      	lsrs	r3, r0, #12
 800016a:	428b      	cmp	r3, r1
 800016c:	d301      	bcc.n	8000172 <__udivsi3+0x6a>
 800016e:	030b      	lsls	r3, r1, #12
 8000170:	1ac0      	subs	r0, r0, r3
 8000172:	4152      	adcs	r2, r2
 8000174:	0ac3      	lsrs	r3, r0, #11
 8000176:	428b      	cmp	r3, r1
 8000178:	d301      	bcc.n	800017e <__udivsi3+0x76>
 800017a:	02cb      	lsls	r3, r1, #11
 800017c:	1ac0      	subs	r0, r0, r3
 800017e:	4152      	adcs	r2, r2
 8000180:	0a83      	lsrs	r3, r0, #10
 8000182:	428b      	cmp	r3, r1
 8000184:	d301      	bcc.n	800018a <__udivsi3+0x82>
 8000186:	028b      	lsls	r3, r1, #10
 8000188:	1ac0      	subs	r0, r0, r3
 800018a:	4152      	adcs	r2, r2
 800018c:	0a43      	lsrs	r3, r0, #9
 800018e:	428b      	cmp	r3, r1
 8000190:	d301      	bcc.n	8000196 <__udivsi3+0x8e>
 8000192:	024b      	lsls	r3, r1, #9
 8000194:	1ac0      	subs	r0, r0, r3
 8000196:	4152      	adcs	r2, r2
 8000198:	0a03      	lsrs	r3, r0, #8
 800019a:	428b      	cmp	r3, r1
 800019c:	d301      	bcc.n	80001a2 <__udivsi3+0x9a>
 800019e:	020b      	lsls	r3, r1, #8
 80001a0:	1ac0      	subs	r0, r0, r3
 80001a2:	4152      	adcs	r2, r2
 80001a4:	d2cd      	bcs.n	8000142 <__udivsi3+0x3a>
 80001a6:	09c3      	lsrs	r3, r0, #7
 80001a8:	428b      	cmp	r3, r1
 80001aa:	d301      	bcc.n	80001b0 <__udivsi3+0xa8>
 80001ac:	01cb      	lsls	r3, r1, #7
 80001ae:	1ac0      	subs	r0, r0, r3
 80001b0:	4152      	adcs	r2, r2
 80001b2:	0983      	lsrs	r3, r0, #6
 80001b4:	428b      	cmp	r3, r1
 80001b6:	d301      	bcc.n	80001bc <__udivsi3+0xb4>
 80001b8:	018b      	lsls	r3, r1, #6
 80001ba:	1ac0      	subs	r0, r0, r3
 80001bc:	4152      	adcs	r2, r2
 80001be:	0943      	lsrs	r3, r0, #5
 80001c0:	428b      	cmp	r3, r1
 80001c2:	d301      	bcc.n	80001c8 <__udivsi3+0xc0>
 80001c4:	014b      	lsls	r3, r1, #5
 80001c6:	1ac0      	subs	r0, r0, r3
 80001c8:	4152      	adcs	r2, r2
 80001ca:	0903      	lsrs	r3, r0, #4
 80001cc:	428b      	cmp	r3, r1
 80001ce:	d301      	bcc.n	80001d4 <__udivsi3+0xcc>
 80001d0:	010b      	lsls	r3, r1, #4
 80001d2:	1ac0      	subs	r0, r0, r3
 80001d4:	4152      	adcs	r2, r2
 80001d6:	08c3      	lsrs	r3, r0, #3
 80001d8:	428b      	cmp	r3, r1
 80001da:	d301      	bcc.n	80001e0 <__udivsi3+0xd8>
 80001dc:	00cb      	lsls	r3, r1, #3
 80001de:	1ac0      	subs	r0, r0, r3
 80001e0:	4152      	adcs	r2, r2
 80001e2:	0883      	lsrs	r3, r0, #2
 80001e4:	428b      	cmp	r3, r1
 80001e6:	d301      	bcc.n	80001ec <__udivsi3+0xe4>
 80001e8:	008b      	lsls	r3, r1, #2
 80001ea:	1ac0      	subs	r0, r0, r3
 80001ec:	4152      	adcs	r2, r2
 80001ee:	0843      	lsrs	r3, r0, #1
 80001f0:	428b      	cmp	r3, r1
 80001f2:	d301      	bcc.n	80001f8 <__udivsi3+0xf0>
 80001f4:	004b      	lsls	r3, r1, #1
 80001f6:	1ac0      	subs	r0, r0, r3
 80001f8:	4152      	adcs	r2, r2
 80001fa:	1a41      	subs	r1, r0, r1
 80001fc:	d200      	bcs.n	8000200 <__udivsi3+0xf8>
 80001fe:	4601      	mov	r1, r0
 8000200:	4152      	adcs	r2, r2
 8000202:	4610      	mov	r0, r2
 8000204:	4770      	bx	lr
 8000206:	e7ff      	b.n	8000208 <__udivsi3+0x100>
 8000208:	b501      	push	{r0, lr}
 800020a:	2000      	movs	r0, #0
 800020c:	f000 f806 	bl	800021c <__aeabi_idiv0>
 8000210:	bd02      	pop	{r1, pc}
 8000212:	46c0      	nop			; (mov r8, r8)

08000214 <__aeabi_uidivmod>:
 8000214:	2900      	cmp	r1, #0
 8000216:	d0f7      	beq.n	8000208 <__udivsi3+0x100>
 8000218:	e776      	b.n	8000108 <__udivsi3>
 800021a:	4770      	bx	lr

0800021c <__aeabi_idiv0>:
 800021c:	4770      	bx	lr
 800021e:	46c0      	nop			; (mov r8, r8)

08000220 <main>:
/**
  * @brief  The application entry point.
  * @retval int
  */
int main(void)
{
 8000220:	b580      	push	{r7, lr}
 8000222:	af00      	add	r7, sp, #0
  /* USER CODE END 1 */

  /* MCU Configuration--------------------------------------------------------*/

  /* Reset of all peripherals, Initializes the Flash interface and the Systick. */
  HAL_Init();
 8000224:	f000 faf0 	bl	8000808 <HAL_Init>
  /* USER CODE BEGIN Init */

  /* USER CODE END Init */

  /* Configure the system clock */
  SystemClock_Config();
 8000228:	f000 f858 	bl	80002dc <SystemClock_Config>
  /* USER CODE BEGIN SysInit */

  /* USER CODE END SysInit */

  /* Initialize all configured peripherals */
  MX_GPIO_Init();
 800022c:	f000 f928 	bl	8000480 <MX_GPIO_Init>
  MX_USART2_UART_Init();
 8000230:	f000 f8f6 	bl	8000420 <MX_USART2_UART_Init>
  MX_TIM3_Init();
 8000234:	f000 f892 	bl	800035c <MX_TIM3_Init>
  /* USER CODE BEGIN WHILE */

  while (1)
    {
	  //Schritt 0a: PA1 auf 0 setzen
	  HAL_GPIO_WritePin(GPIOA, GPIO_PIN_1, GPIO_PIN_RESET);
 8000238:	2390      	movs	r3, #144	; 0x90
 800023a:	05db      	lsls	r3, r3, #23
 800023c:	2200      	movs	r2, #0
 800023e:	2102      	movs	r1, #2
 8000240:	0018      	movs	r0, r3
 8000242:	f000 fda0 	bl	8000d86 <HAL_GPIO_WritePin>
	  //Schritt 0b: LED ausschalten
	  HAL_GPIO_WritePin(LED_GPIO_Port, LED_Pin, GPIO_PIN_RESET);
 8000246:	4b23      	ldr	r3, [pc, #140]	; (80002d4 <main+0xb4>)
 8000248:	2200      	movs	r2, #0
 800024a:	2108      	movs	r1, #8
 800024c:	0018      	movs	r0, r3
 800024e:	f000 fd9a 	bl	8000d86 <HAL_GPIO_WritePin>

	  //Schritt 1: Polling bis PA0 = 1 (Signal von Raspi) -> while (PA0 =0)
	  while(!HAL_GPIO_ReadPin(GPIOA,GPIO_PIN_0));
 8000252:	46c0      	nop			; (mov r8, r8)
 8000254:	2390      	movs	r3, #144	; 0x90
 8000256:	05db      	lsls	r3, r3, #23
 8000258:	2101      	movs	r1, #1
 800025a:	0018      	movs	r0, r3
 800025c:	f000 fd76 	bl	8000d4c <HAL_GPIO_ReadPin>
 8000260:	1e03      	subs	r3, r0, #0
 8000262:	d0f7      	beq.n	8000254 <main+0x34>

	  //Schritt 2: Wartet auf Bewegung -> while (PIR=0)
	  while(!HAL_GPIO_ReadPin(PIR_GPIO_Port,PIR_Pin));
 8000264:	46c0      	nop			; (mov r8, r8)
 8000266:	4b1b      	ldr	r3, [pc, #108]	; (80002d4 <main+0xb4>)
 8000268:	2102      	movs	r1, #2
 800026a:	0018      	movs	r0, r3
 800026c:	f000 fd6e 	bl	8000d4c <HAL_GPIO_ReadPin>
 8000270:	1e03      	subs	r3, r0, #0
 8000272:	d0f8      	beq.n	8000266 <main+0x46>

	  //Schritt 3: Schicke 1 von PA1 auf Raspi (GPIO18)
	  HAL_GPIO_WritePin(GPIOA, GPIO_PIN_1, GPIO_PIN_SET);
 8000274:	2390      	movs	r3, #144	; 0x90
 8000276:	05db      	lsls	r3, r3, #23
 8000278:	2201      	movs	r2, #1
 800027a:	2102      	movs	r1, #2
 800027c:	0018      	movs	r0, r3
 800027e:	f000 fd82 	bl	8000d86 <HAL_GPIO_WritePin>

	  //Schritt 4: Aktoren auf HAT aktivieren, bis PA3 = 1 (Alles laufen -> while (PA3=0)
	  HAL_GPIO_WritePin(LED_GPIO_Port, LED_Pin, GPIO_PIN_SET);
 8000282:	4b14      	ldr	r3, [pc, #80]	; (80002d4 <main+0xb4>)
 8000284:	2201      	movs	r2, #1
 8000286:	2108      	movs	r1, #8
 8000288:	0018      	movs	r0, r3
 800028a:	f000 fd7c 	bl	8000d86 <HAL_GPIO_WritePin>

	  while(!HAL_GPIO_ReadPin(GPIOA,GPIO_PIN_3))
 800028e:	e011      	b.n	80002b4 <main+0x94>
	  {
			__HAL_TIM_SET_COMPARE(&htim3,TIM_CHANNEL_3,500);
 8000290:	4b11      	ldr	r3, [pc, #68]	; (80002d8 <main+0xb8>)
 8000292:	681b      	ldr	r3, [r3, #0]
 8000294:	22fa      	movs	r2, #250	; 0xfa
 8000296:	0052      	lsls	r2, r2, #1
 8000298:	63da      	str	r2, [r3, #60]	; 0x3c
			HAL_TIM_PWM_Start(&htim3,TIM_CHANNEL_3);
 800029a:	4b0f      	ldr	r3, [pc, #60]	; (80002d8 <main+0xb8>)
 800029c:	2108      	movs	r1, #8
 800029e:	0018      	movs	r0, r3
 80002a0:	f001 fadc 	bl	800185c <HAL_TIM_PWM_Start>
			HAL_Delay(50);
 80002a4:	2032      	movs	r0, #50	; 0x32
 80002a6:	f000 fb13 	bl	80008d0 <HAL_Delay>
			HAL_TIM_PWM_Stop(&htim3,TIM_CHANNEL_3);
 80002aa:	4b0b      	ldr	r3, [pc, #44]	; (80002d8 <main+0xb8>)
 80002ac:	2108      	movs	r1, #8
 80002ae:	0018      	movs	r0, r3
 80002b0:	f001 fb80 	bl	80019b4 <HAL_TIM_PWM_Stop>
	  while(!HAL_GPIO_ReadPin(GPIOA,GPIO_PIN_3))
 80002b4:	2390      	movs	r3, #144	; 0x90
 80002b6:	05db      	lsls	r3, r3, #23
 80002b8:	2108      	movs	r1, #8
 80002ba:	0018      	movs	r0, r3
 80002bc:	f000 fd46 	bl	8000d4c <HAL_GPIO_ReadPin>
 80002c0:	1e03      	subs	r3, r0, #0
 80002c2:	d0e5      	beq.n	8000290 <main+0x70>
	  }
	  HAL_GPIO_WritePin(LED_GPIO_Port, LED_Pin, GPIO_PIN_RESET);
 80002c4:	4b03      	ldr	r3, [pc, #12]	; (80002d4 <main+0xb4>)
 80002c6:	2200      	movs	r2, #0
 80002c8:	2108      	movs	r1, #8
 80002ca:	0018      	movs	r0, r3
 80002cc:	f000 fd5b 	bl	8000d86 <HAL_GPIO_WritePin>
	  HAL_GPIO_WritePin(GPIOA, GPIO_PIN_1, GPIO_PIN_RESET);
 80002d0:	e7b2      	b.n	8000238 <main+0x18>
 80002d2:	46c0      	nop			; (mov r8, r8)
 80002d4:	48000400 	.word	0x48000400
 80002d8:	20000028 	.word	0x20000028

080002dc <SystemClock_Config>:
/**
  * @brief System Clock Configuration
  * @retval None
  */
void SystemClock_Config(void)
{
 80002dc:	b590      	push	{r4, r7, lr}
 80002de:	b093      	sub	sp, #76	; 0x4c
 80002e0:	af00      	add	r7, sp, #0
  RCC_OscInitTypeDef RCC_OscInitStruct = {0};
 80002e2:	2414      	movs	r4, #20
 80002e4:	193b      	adds	r3, r7, r4
 80002e6:	0018      	movs	r0, r3
 80002e8:	2334      	movs	r3, #52	; 0x34
 80002ea:	001a      	movs	r2, r3
 80002ec:	2100      	movs	r1, #0
 80002ee:	f002 fa8b 	bl	8002808 <memset>
  RCC_ClkInitTypeDef RCC_ClkInitStruct = {0};
 80002f2:	1d3b      	adds	r3, r7, #4
 80002f4:	0018      	movs	r0, r3
 80002f6:	2310      	movs	r3, #16
 80002f8:	001a      	movs	r2, r3
 80002fa:	2100      	movs	r1, #0
 80002fc:	f002 fa84 	bl	8002808 <memset>

  /** Initializes the RCC Oscillators according to the specified parameters
  * in the RCC_OscInitTypeDef structure.
  */
  RCC_OscInitStruct.OscillatorType = RCC_OSCILLATORTYPE_HSI;
 8000300:	0021      	movs	r1, r4
 8000302:	187b      	adds	r3, r7, r1
 8000304:	2202      	movs	r2, #2
 8000306:	601a      	str	r2, [r3, #0]
  RCC_OscInitStruct.HSIState = RCC_HSI_ON;
 8000308:	187b      	adds	r3, r7, r1
 800030a:	2201      	movs	r2, #1
 800030c:	60da      	str	r2, [r3, #12]
  RCC_OscInitStruct.HSICalibrationValue = RCC_HSICALIBRATION_DEFAULT;
 800030e:	187b      	adds	r3, r7, r1
 8000310:	2210      	movs	r2, #16
 8000312:	611a      	str	r2, [r3, #16]
  RCC_OscInitStruct.PLL.PLLState = RCC_PLL_NONE;
 8000314:	187b      	adds	r3, r7, r1
 8000316:	2200      	movs	r2, #0
 8000318:	625a      	str	r2, [r3, #36]	; 0x24
  if (HAL_RCC_OscConfig(&RCC_OscInitStruct) != HAL_OK)
 800031a:	187b      	adds	r3, r7, r1
 800031c:	0018      	movs	r0, r3
 800031e:	f000 fd4f 	bl	8000dc0 <HAL_RCC_OscConfig>
 8000322:	1e03      	subs	r3, r0, #0
 8000324:	d001      	beq.n	800032a <SystemClock_Config+0x4e>
  {
    Error_Handler();
 8000326:	f000 f93d 	bl	80005a4 <Error_Handler>
  }
  /** Initializes the CPU, AHB and APB buses clocks
  */
  RCC_ClkInitStruct.ClockType = RCC_CLOCKTYPE_HCLK|RCC_CLOCKTYPE_SYSCLK
 800032a:	1d3b      	adds	r3, r7, #4
 800032c:	2207      	movs	r2, #7
 800032e:	601a      	str	r2, [r3, #0]
                              |RCC_CLOCKTYPE_PCLK1;
  RCC_ClkInitStruct.SYSCLKSource = RCC_SYSCLKSOURCE_HSI;
 8000330:	1d3b      	adds	r3, r7, #4
 8000332:	2200      	movs	r2, #0
 8000334:	605a      	str	r2, [r3, #4]
  RCC_ClkInitStruct.AHBCLKDivider = RCC_SYSCLK_DIV1;
 8000336:	1d3b      	adds	r3, r7, #4
 8000338:	2200      	movs	r2, #0
 800033a:	609a      	str	r2, [r3, #8]
  RCC_ClkInitStruct.APB1CLKDivider = RCC_HCLK_DIV1;
 800033c:	1d3b      	adds	r3, r7, #4
 800033e:	2200      	movs	r2, #0
 8000340:	60da      	str	r2, [r3, #12]

  if (HAL_RCC_ClockConfig(&RCC_ClkInitStruct, FLASH_LATENCY_0) != HAL_OK)
 8000342:	1d3b      	adds	r3, r7, #4
 8000344:	2100      	movs	r1, #0
 8000346:	0018      	movs	r0, r3
 8000348:	f001 f8c0 	bl	80014cc <HAL_RCC_ClockConfig>
 800034c:	1e03      	subs	r3, r0, #0
 800034e:	d001      	beq.n	8000354 <SystemClock_Config+0x78>
  {
    Error_Handler();
 8000350:	f000 f928 	bl	80005a4 <Error_Handler>
  }
}
 8000354:	46c0      	nop			; (mov r8, r8)
 8000356:	46bd      	mov	sp, r7
 8000358:	b013      	add	sp, #76	; 0x4c
 800035a:	bd90      	pop	{r4, r7, pc}

0800035c <MX_TIM3_Init>:
  * @brief TIM3 Initialization Function
  * @param None
  * @retval None
  */
static void MX_TIM3_Init(void)
{
 800035c:	b580      	push	{r7, lr}
 800035e:	b08a      	sub	sp, #40	; 0x28
 8000360:	af00      	add	r7, sp, #0

  /* USER CODE BEGIN TIM3_Init 0 */

  /* USER CODE END TIM3_Init 0 */

  TIM_MasterConfigTypeDef sMasterConfig = {0};
 8000362:	2320      	movs	r3, #32
 8000364:	18fb      	adds	r3, r7, r3
 8000366:	0018      	movs	r0, r3
 8000368:	2308      	movs	r3, #8
 800036a:	001a      	movs	r2, r3
 800036c:	2100      	movs	r1, #0
 800036e:	f002 fa4b 	bl	8002808 <memset>
  TIM_OC_InitTypeDef sConfigOC = {0};
 8000372:	1d3b      	adds	r3, r7, #4
 8000374:	0018      	movs	r0, r3
 8000376:	231c      	movs	r3, #28
 8000378:	001a      	movs	r2, r3
 800037a:	2100      	movs	r1, #0
 800037c:	f002 fa44 	bl	8002808 <memset>

  /* USER CODE BEGIN TIM3_Init 1 */

  /* USER CODE END TIM3_Init 1 */
  htim3.Instance = TIM3;
 8000380:	4b24      	ldr	r3, [pc, #144]	; (8000414 <MX_TIM3_Init+0xb8>)
 8000382:	4a25      	ldr	r2, [pc, #148]	; (8000418 <MX_TIM3_Init+0xbc>)
 8000384:	601a      	str	r2, [r3, #0]
  htim3.Init.Prescaler = 7;
 8000386:	4b23      	ldr	r3, [pc, #140]	; (8000414 <MX_TIM3_Init+0xb8>)
 8000388:	2207      	movs	r2, #7
 800038a:	605a      	str	r2, [r3, #4]
  htim3.Init.CounterMode = TIM_COUNTERMODE_UP;
 800038c:	4b21      	ldr	r3, [pc, #132]	; (8000414 <MX_TIM3_Init+0xb8>)
 800038e:	2200      	movs	r2, #0
 8000390:	609a      	str	r2, [r3, #8]
  htim3.Init.Period = 999;
 8000392:	4b20      	ldr	r3, [pc, #128]	; (8000414 <MX_TIM3_Init+0xb8>)
 8000394:	4a21      	ldr	r2, [pc, #132]	; (800041c <MX_TIM3_Init+0xc0>)
 8000396:	60da      	str	r2, [r3, #12]
  htim3.Init.ClockDivision = TIM_CLOCKDIVISION_DIV1;
 8000398:	4b1e      	ldr	r3, [pc, #120]	; (8000414 <MX_TIM3_Init+0xb8>)
 800039a:	2200      	movs	r2, #0
 800039c:	611a      	str	r2, [r3, #16]
  htim3.Init.AutoReloadPreload = TIM_AUTORELOAD_PRELOAD_DISABLE;
 800039e:	4b1d      	ldr	r3, [pc, #116]	; (8000414 <MX_TIM3_Init+0xb8>)
 80003a0:	2200      	movs	r2, #0
 80003a2:	619a      	str	r2, [r3, #24]
  if (HAL_TIM_PWM_Init(&htim3) != HAL_OK)
 80003a4:	4b1b      	ldr	r3, [pc, #108]	; (8000414 <MX_TIM3_Init+0xb8>)
 80003a6:	0018      	movs	r0, r3
 80003a8:	f001 fa08 	bl	80017bc <HAL_TIM_PWM_Init>
 80003ac:	1e03      	subs	r3, r0, #0
 80003ae:	d001      	beq.n	80003b4 <MX_TIM3_Init+0x58>
  {
    Error_Handler();
 80003b0:	f000 f8f8 	bl	80005a4 <Error_Handler>
  }
  sMasterConfig.MasterOutputTrigger = TIM_TRGO_RESET;
 80003b4:	2120      	movs	r1, #32
 80003b6:	187b      	adds	r3, r7, r1
 80003b8:	2200      	movs	r2, #0
 80003ba:	601a      	str	r2, [r3, #0]
  sMasterConfig.MasterSlaveMode = TIM_MASTERSLAVEMODE_DISABLE;
 80003bc:	187b      	adds	r3, r7, r1
 80003be:	2200      	movs	r2, #0
 80003c0:	605a      	str	r2, [r3, #4]
  if (HAL_TIMEx_MasterConfigSynchronization(&htim3, &sMasterConfig) != HAL_OK)
 80003c2:	187a      	adds	r2, r7, r1
 80003c4:	4b13      	ldr	r3, [pc, #76]	; (8000414 <MX_TIM3_Init+0xb8>)
 80003c6:	0011      	movs	r1, r2
 80003c8:	0018      	movs	r0, r3
 80003ca:	f001 fe93 	bl	80020f4 <HAL_TIMEx_MasterConfigSynchronization>
 80003ce:	1e03      	subs	r3, r0, #0
 80003d0:	d001      	beq.n	80003d6 <MX_TIM3_Init+0x7a>
  {
    Error_Handler();
 80003d2:	f000 f8e7 	bl	80005a4 <Error_Handler>
  }
  sConfigOC.OCMode = TIM_OCMODE_PWM1;
 80003d6:	1d3b      	adds	r3, r7, #4
 80003d8:	2260      	movs	r2, #96	; 0x60
 80003da:	601a      	str	r2, [r3, #0]
  sConfigOC.Pulse = 5;
 80003dc:	1d3b      	adds	r3, r7, #4
 80003de:	2205      	movs	r2, #5
 80003e0:	605a      	str	r2, [r3, #4]
  sConfigOC.OCPolarity = TIM_OCPOLARITY_HIGH;
 80003e2:	1d3b      	adds	r3, r7, #4
 80003e4:	2200      	movs	r2, #0
 80003e6:	609a      	str	r2, [r3, #8]
  sConfigOC.OCFastMode = TIM_OCFAST_DISABLE;
 80003e8:	1d3b      	adds	r3, r7, #4
 80003ea:	2200      	movs	r2, #0
 80003ec:	611a      	str	r2, [r3, #16]
  if (HAL_TIM_PWM_ConfigChannel(&htim3, &sConfigOC, TIM_CHANNEL_3) != HAL_OK)
 80003ee:	1d39      	adds	r1, r7, #4
 80003f0:	4b08      	ldr	r3, [pc, #32]	; (8000414 <MX_TIM3_Init+0xb8>)
 80003f2:	2208      	movs	r2, #8
 80003f4:	0018      	movs	r0, r3
 80003f6:	f001 fb53 	bl	8001aa0 <HAL_TIM_PWM_ConfigChannel>
 80003fa:	1e03      	subs	r3, r0, #0
 80003fc:	d001      	beq.n	8000402 <MX_TIM3_Init+0xa6>
  {
    Error_Handler();
 80003fe:	f000 f8d1 	bl	80005a4 <Error_Handler>
  }
  /* USER CODE BEGIN TIM3_Init 2 */

  /* USER CODE END TIM3_Init 2 */
  HAL_TIM_MspPostInit(&htim3);
 8000402:	4b04      	ldr	r3, [pc, #16]	; (8000414 <MX_TIM3_Init+0xb8>)
 8000404:	0018      	movs	r0, r3
 8000406:	f000 f913 	bl	8000630 <HAL_TIM_MspPostInit>

}
 800040a:	46c0      	nop			; (mov r8, r8)
 800040c:	46bd      	mov	sp, r7
 800040e:	b00a      	add	sp, #40	; 0x28
 8000410:	bd80      	pop	{r7, pc}
 8000412:	46c0      	nop			; (mov r8, r8)
 8000414:	20000028 	.word	0x20000028
 8000418:	40000400 	.word	0x40000400
 800041c:	000003e7 	.word	0x000003e7

08000420 <MX_USART2_UART_Init>:
  * @brief USART2 Initialization Function
  * @param None
  * @retval None
  */
static void MX_USART2_UART_Init(void)
{
 8000420:	b580      	push	{r7, lr}
 8000422:	af00      	add	r7, sp, #0
  /* USER CODE END USART2_Init 0 */

  /* USER CODE BEGIN USART2_Init 1 */

  /* USER CODE END USART2_Init 1 */
  huart2.Instance = USART2;
 8000424:	4b14      	ldr	r3, [pc, #80]	; (8000478 <MX_USART2_UART_Init+0x58>)
 8000426:	4a15      	ldr	r2, [pc, #84]	; (800047c <MX_USART2_UART_Init+0x5c>)
 8000428:	601a      	str	r2, [r3, #0]
  huart2.Init.BaudRate = 38400;
 800042a:	4b13      	ldr	r3, [pc, #76]	; (8000478 <MX_USART2_UART_Init+0x58>)
 800042c:	2296      	movs	r2, #150	; 0x96
 800042e:	0212      	lsls	r2, r2, #8
 8000430:	605a      	str	r2, [r3, #4]
  huart2.Init.WordLength = UART_WORDLENGTH_8B;
 8000432:	4b11      	ldr	r3, [pc, #68]	; (8000478 <MX_USART2_UART_Init+0x58>)
 8000434:	2200      	movs	r2, #0
 8000436:	609a      	str	r2, [r3, #8]
  huart2.Init.StopBits = UART_STOPBITS_1;
 8000438:	4b0f      	ldr	r3, [pc, #60]	; (8000478 <MX_USART2_UART_Init+0x58>)
 800043a:	2200      	movs	r2, #0
 800043c:	60da      	str	r2, [r3, #12]
  huart2.Init.Parity = UART_PARITY_NONE;
 800043e:	4b0e      	ldr	r3, [pc, #56]	; (8000478 <MX_USART2_UART_Init+0x58>)
 8000440:	2200      	movs	r2, #0
 8000442:	611a      	str	r2, [r3, #16]
  huart2.Init.Mode = UART_MODE_TX_RX;
 8000444:	4b0c      	ldr	r3, [pc, #48]	; (8000478 <MX_USART2_UART_Init+0x58>)
 8000446:	220c      	movs	r2, #12
 8000448:	615a      	str	r2, [r3, #20]
  huart2.Init.HwFlowCtl = UART_HWCONTROL_NONE;
 800044a:	4b0b      	ldr	r3, [pc, #44]	; (8000478 <MX_USART2_UART_Init+0x58>)
 800044c:	2200      	movs	r2, #0
 800044e:	619a      	str	r2, [r3, #24]
  huart2.Init.OverSampling = UART_OVERSAMPLING_16;
 8000450:	4b09      	ldr	r3, [pc, #36]	; (8000478 <MX_USART2_UART_Init+0x58>)
 8000452:	2200      	movs	r2, #0
 8000454:	61da      	str	r2, [r3, #28]
  huart2.Init.OneBitSampling = UART_ONE_BIT_SAMPLE_DISABLE;
 8000456:	4b08      	ldr	r3, [pc, #32]	; (8000478 <MX_USART2_UART_Init+0x58>)
 8000458:	2200      	movs	r2, #0
 800045a:	621a      	str	r2, [r3, #32]
  huart2.AdvancedInit.AdvFeatureInit = UART_ADVFEATURE_NO_INIT;
 800045c:	4b06      	ldr	r3, [pc, #24]	; (8000478 <MX_USART2_UART_Init+0x58>)
 800045e:	2200      	movs	r2, #0
 8000460:	625a      	str	r2, [r3, #36]	; 0x24
  if (HAL_UART_Init(&huart2) != HAL_OK)
 8000462:	4b05      	ldr	r3, [pc, #20]	; (8000478 <MX_USART2_UART_Init+0x58>)
 8000464:	0018      	movs	r0, r3
 8000466:	f001 fe9d 	bl	80021a4 <HAL_UART_Init>
 800046a:	1e03      	subs	r3, r0, #0
 800046c:	d001      	beq.n	8000472 <MX_USART2_UART_Init+0x52>
  {
    Error_Handler();
 800046e:	f000 f899 	bl	80005a4 <Error_Handler>
  }
  /* USER CODE BEGIN USART2_Init 2 */

  /* USER CODE END USART2_Init 2 */

}
 8000472:	46c0      	nop			; (mov r8, r8)
 8000474:	46bd      	mov	sp, r7
 8000476:	bd80      	pop	{r7, pc}
 8000478:	20000070 	.word	0x20000070
 800047c:	40004400 	.word	0x40004400

08000480 <MX_GPIO_Init>:
  * @brief GPIO Initialization Function
  * @param None
  * @retval None
  */
static void MX_GPIO_Init(void)
{
 8000480:	b590      	push	{r4, r7, lr}
 8000482:	b089      	sub	sp, #36	; 0x24
 8000484:	af00      	add	r7, sp, #0
  GPIO_InitTypeDef GPIO_InitStruct = {0};
 8000486:	240c      	movs	r4, #12
 8000488:	193b      	adds	r3, r7, r4
 800048a:	0018      	movs	r0, r3
 800048c:	2314      	movs	r3, #20
 800048e:	001a      	movs	r2, r3
 8000490:	2100      	movs	r1, #0
 8000492:	f002 f9b9 	bl	8002808 <memset>

  /* GPIO Ports Clock Enable */
  __HAL_RCC_GPIOF_CLK_ENABLE();
 8000496:	4b41      	ldr	r3, [pc, #260]	; (800059c <MX_GPIO_Init+0x11c>)
 8000498:	695a      	ldr	r2, [r3, #20]
 800049a:	4b40      	ldr	r3, [pc, #256]	; (800059c <MX_GPIO_Init+0x11c>)
 800049c:	2180      	movs	r1, #128	; 0x80
 800049e:	03c9      	lsls	r1, r1, #15
 80004a0:	430a      	orrs	r2, r1
 80004a2:	615a      	str	r2, [r3, #20]
 80004a4:	4b3d      	ldr	r3, [pc, #244]	; (800059c <MX_GPIO_Init+0x11c>)
 80004a6:	695a      	ldr	r2, [r3, #20]
 80004a8:	2380      	movs	r3, #128	; 0x80
 80004aa:	03db      	lsls	r3, r3, #15
 80004ac:	4013      	ands	r3, r2
 80004ae:	60bb      	str	r3, [r7, #8]
 80004b0:	68bb      	ldr	r3, [r7, #8]
  __HAL_RCC_GPIOA_CLK_ENABLE();
 80004b2:	4b3a      	ldr	r3, [pc, #232]	; (800059c <MX_GPIO_Init+0x11c>)
 80004b4:	695a      	ldr	r2, [r3, #20]
 80004b6:	4b39      	ldr	r3, [pc, #228]	; (800059c <MX_GPIO_Init+0x11c>)
 80004b8:	2180      	movs	r1, #128	; 0x80
 80004ba:	0289      	lsls	r1, r1, #10
 80004bc:	430a      	orrs	r2, r1
 80004be:	615a      	str	r2, [r3, #20]
 80004c0:	4b36      	ldr	r3, [pc, #216]	; (800059c <MX_GPIO_Init+0x11c>)
 80004c2:	695a      	ldr	r2, [r3, #20]
 80004c4:	2380      	movs	r3, #128	; 0x80
 80004c6:	029b      	lsls	r3, r3, #10
 80004c8:	4013      	ands	r3, r2
 80004ca:	607b      	str	r3, [r7, #4]
 80004cc:	687b      	ldr	r3, [r7, #4]
  __HAL_RCC_GPIOB_CLK_ENABLE();
 80004ce:	4b33      	ldr	r3, [pc, #204]	; (800059c <MX_GPIO_Init+0x11c>)
 80004d0:	695a      	ldr	r2, [r3, #20]
 80004d2:	4b32      	ldr	r3, [pc, #200]	; (800059c <MX_GPIO_Init+0x11c>)
 80004d4:	2180      	movs	r1, #128	; 0x80
 80004d6:	02c9      	lsls	r1, r1, #11
 80004d8:	430a      	orrs	r2, r1
 80004da:	615a      	str	r2, [r3, #20]
 80004dc:	4b2f      	ldr	r3, [pc, #188]	; (800059c <MX_GPIO_Init+0x11c>)
 80004de:	695a      	ldr	r2, [r3, #20]
 80004e0:	2380      	movs	r3, #128	; 0x80
 80004e2:	02db      	lsls	r3, r3, #11
 80004e4:	4013      	ands	r3, r2
 80004e6:	603b      	str	r3, [r7, #0]
 80004e8:	683b      	ldr	r3, [r7, #0]

  /*Configure GPIO pin Output Level */
  HAL_GPIO_WritePin(GPIOA, GPIO_PIN_1, GPIO_PIN_RESET);
 80004ea:	2390      	movs	r3, #144	; 0x90
 80004ec:	05db      	lsls	r3, r3, #23
 80004ee:	2200      	movs	r2, #0
 80004f0:	2102      	movs	r1, #2
 80004f2:	0018      	movs	r0, r3
 80004f4:	f000 fc47 	bl	8000d86 <HAL_GPIO_WritePin>

  /*Configure GPIO pin Output Level */
  HAL_GPIO_WritePin(LED_GPIO_Port, LED_Pin, GPIO_PIN_RESET);
 80004f8:	4b29      	ldr	r3, [pc, #164]	; (80005a0 <MX_GPIO_Init+0x120>)
 80004fa:	2200      	movs	r2, #0
 80004fc:	2108      	movs	r1, #8
 80004fe:	0018      	movs	r0, r3
 8000500:	f000 fc41 	bl	8000d86 <HAL_GPIO_WritePin>

  /*Configure GPIO pins : PA0 PA3 */
  GPIO_InitStruct.Pin = GPIO_PIN_0|GPIO_PIN_3;
 8000504:	193b      	adds	r3, r7, r4
 8000506:	2209      	movs	r2, #9
 8000508:	601a      	str	r2, [r3, #0]
  GPIO_InitStruct.Mode = GPIO_MODE_INPUT;
 800050a:	193b      	adds	r3, r7, r4
 800050c:	2200      	movs	r2, #0
 800050e:	605a      	str	r2, [r3, #4]
  GPIO_InitStruct.Pull = GPIO_NOPULL;
 8000510:	193b      	adds	r3, r7, r4
 8000512:	2200      	movs	r2, #0
 8000514:	609a      	str	r2, [r3, #8]
  HAL_GPIO_Init(GPIOA, &GPIO_InitStruct);
 8000516:	193a      	adds	r2, r7, r4
 8000518:	2390      	movs	r3, #144	; 0x90
 800051a:	05db      	lsls	r3, r3, #23
 800051c:	0011      	movs	r1, r2
 800051e:	0018      	movs	r0, r3
 8000520:	f000 faac 	bl	8000a7c <HAL_GPIO_Init>

  /*Configure GPIO pin : PA1 */
  GPIO_InitStruct.Pin = GPIO_PIN_1;
 8000524:	193b      	adds	r3, r7, r4
 8000526:	2202      	movs	r2, #2
 8000528:	601a      	str	r2, [r3, #0]
  GPIO_InitStruct.Mode = GPIO_MODE_OUTPUT_PP;
 800052a:	193b      	adds	r3, r7, r4
 800052c:	2201      	movs	r2, #1
 800052e:	605a      	str	r2, [r3, #4]
  GPIO_InitStruct.Pull = GPIO_NOPULL;
 8000530:	193b      	adds	r3, r7, r4
 8000532:	2200      	movs	r2, #0
 8000534:	609a      	str	r2, [r3, #8]
  GPIO_InitStruct.Speed = GPIO_SPEED_FREQ_LOW;
 8000536:	193b      	adds	r3, r7, r4
 8000538:	2200      	movs	r2, #0
 800053a:	60da      	str	r2, [r3, #12]
  HAL_GPIO_Init(GPIOA, &GPIO_InitStruct);
 800053c:	193a      	adds	r2, r7, r4
 800053e:	2390      	movs	r3, #144	; 0x90
 8000540:	05db      	lsls	r3, r3, #23
 8000542:	0011      	movs	r1, r2
 8000544:	0018      	movs	r0, r3
 8000546:	f000 fa99 	bl	8000a7c <HAL_GPIO_Init>

  /*Configure GPIO pin : PIR_Pin */
  GPIO_InitStruct.Pin = PIR_Pin;
 800054a:	0021      	movs	r1, r4
 800054c:	187b      	adds	r3, r7, r1
 800054e:	2202      	movs	r2, #2
 8000550:	601a      	str	r2, [r3, #0]
  GPIO_InitStruct.Mode = GPIO_MODE_INPUT;
 8000552:	187b      	adds	r3, r7, r1
 8000554:	2200      	movs	r2, #0
 8000556:	605a      	str	r2, [r3, #4]
  GPIO_InitStruct.Pull = GPIO_NOPULL;
 8000558:	187b      	adds	r3, r7, r1
 800055a:	2200      	movs	r2, #0
 800055c:	609a      	str	r2, [r3, #8]
  HAL_GPIO_Init(PIR_GPIO_Port, &GPIO_InitStruct);
 800055e:	000c      	movs	r4, r1
 8000560:	187b      	adds	r3, r7, r1
 8000562:	4a0f      	ldr	r2, [pc, #60]	; (80005a0 <MX_GPIO_Init+0x120>)
 8000564:	0019      	movs	r1, r3
 8000566:	0010      	movs	r0, r2
 8000568:	f000 fa88 	bl	8000a7c <HAL_GPIO_Init>

  /*Configure GPIO pin : LED_Pin */
  GPIO_InitStruct.Pin = LED_Pin;
 800056c:	0021      	movs	r1, r4
 800056e:	187b      	adds	r3, r7, r1
 8000570:	2208      	movs	r2, #8
 8000572:	601a      	str	r2, [r3, #0]
  GPIO_InitStruct.Mode = GPIO_MODE_OUTPUT_PP;
 8000574:	187b      	adds	r3, r7, r1
 8000576:	2201      	movs	r2, #1
 8000578:	605a      	str	r2, [r3, #4]
  GPIO_InitStruct.Pull = GPIO_NOPULL;
 800057a:	187b      	adds	r3, r7, r1
 800057c:	2200      	movs	r2, #0
 800057e:	609a      	str	r2, [r3, #8]
  GPIO_InitStruct.Speed = GPIO_SPEED_FREQ_LOW;
 8000580:	187b      	adds	r3, r7, r1
 8000582:	2200      	movs	r2, #0
 8000584:	60da      	str	r2, [r3, #12]
  HAL_GPIO_Init(LED_GPIO_Port, &GPIO_InitStruct);
 8000586:	187b      	adds	r3, r7, r1
 8000588:	4a05      	ldr	r2, [pc, #20]	; (80005a0 <MX_GPIO_Init+0x120>)
 800058a:	0019      	movs	r1, r3
 800058c:	0010      	movs	r0, r2
 800058e:	f000 fa75 	bl	8000a7c <HAL_GPIO_Init>

}
 8000592:	46c0      	nop			; (mov r8, r8)
 8000594:	46bd      	mov	sp, r7
 8000596:	b009      	add	sp, #36	; 0x24
 8000598:	bd90      	pop	{r4, r7, pc}
 800059a:	46c0      	nop			; (mov r8, r8)
 800059c:	40021000 	.word	0x40021000
 80005a0:	48000400 	.word	0x48000400

080005a4 <Error_Handler>:
/**
  * @brief  This function is executed in case of error occurrence.
  * @retval None
  */
void Error_Handler(void)
{
 80005a4:	b580      	push	{r7, lr}
 80005a6:	af00      	add	r7, sp, #0
  \details Disables IRQ interrupts by setting the I-bit in the CPSR.
           Can only be executed in Privileged modes.
 */
__STATIC_FORCEINLINE void __disable_irq(void)
{
  __ASM volatile ("cpsid i" : : : "memory");
 80005a8:	b672      	cpsid	i
  /* USER CODE BEGIN Error_Handler_Debug */
  /* User can add his own implementation to report the HAL error return state */
  __disable_irq();
  while (1)
 80005aa:	e7fe      	b.n	80005aa <Error_Handler+0x6>

080005ac <HAL_MspInit>:
void HAL_TIM_MspPostInit(TIM_HandleTypeDef *htim);
                    /**
  * Initializes the Global MSP.
  */
void HAL_MspInit(void)
{
 80005ac:	b580      	push	{r7, lr}
 80005ae:	b082      	sub	sp, #8
 80005b0:	af00      	add	r7, sp, #0
  /* USER CODE BEGIN MspInit 0 */

  /* USER CODE END MspInit 0 */

  __HAL_RCC_SYSCFG_CLK_ENABLE();
 80005b2:	4b0f      	ldr	r3, [pc, #60]	; (80005f0 <HAL_MspInit+0x44>)
 80005b4:	699a      	ldr	r2, [r3, #24]
 80005b6:	4b0e      	ldr	r3, [pc, #56]	; (80005f0 <HAL_MspInit+0x44>)
 80005b8:	2101      	movs	r1, #1
 80005ba:	430a      	orrs	r2, r1
 80005bc:	619a      	str	r2, [r3, #24]
 80005be:	4b0c      	ldr	r3, [pc, #48]	; (80005f0 <HAL_MspInit+0x44>)
 80005c0:	699b      	ldr	r3, [r3, #24]
 80005c2:	2201      	movs	r2, #1
 80005c4:	4013      	ands	r3, r2
 80005c6:	607b      	str	r3, [r7, #4]
 80005c8:	687b      	ldr	r3, [r7, #4]
  __HAL_RCC_PWR_CLK_ENABLE();
 80005ca:	4b09      	ldr	r3, [pc, #36]	; (80005f0 <HAL_MspInit+0x44>)
 80005cc:	69da      	ldr	r2, [r3, #28]
 80005ce:	4b08      	ldr	r3, [pc, #32]	; (80005f0 <HAL_MspInit+0x44>)
 80005d0:	2180      	movs	r1, #128	; 0x80
 80005d2:	0549      	lsls	r1, r1, #21
 80005d4:	430a      	orrs	r2, r1
 80005d6:	61da      	str	r2, [r3, #28]
 80005d8:	4b05      	ldr	r3, [pc, #20]	; (80005f0 <HAL_MspInit+0x44>)
 80005da:	69da      	ldr	r2, [r3, #28]
 80005dc:	2380      	movs	r3, #128	; 0x80
 80005de:	055b      	lsls	r3, r3, #21
 80005e0:	4013      	ands	r3, r2
 80005e2:	603b      	str	r3, [r7, #0]
 80005e4:	683b      	ldr	r3, [r7, #0]
  /* System interrupt init*/

  /* USER CODE BEGIN MspInit 1 */

  /* USER CODE END MspInit 1 */
}
 80005e6:	46c0      	nop			; (mov r8, r8)
 80005e8:	46bd      	mov	sp, r7
 80005ea:	b002      	add	sp, #8
 80005ec:	bd80      	pop	{r7, pc}
 80005ee:	46c0      	nop			; (mov r8, r8)
 80005f0:	40021000 	.word	0x40021000

080005f4 <HAL_TIM_PWM_MspInit>:
* This function configures the hardware resources used in this example
* @param htim_pwm: TIM_PWM handle pointer
* @retval None
*/
void HAL_TIM_PWM_MspInit(TIM_HandleTypeDef* htim_pwm)
{
 80005f4:	b580      	push	{r7, lr}
 80005f6:	b084      	sub	sp, #16
 80005f8:	af00      	add	r7, sp, #0
 80005fa:	6078      	str	r0, [r7, #4]
  if(htim_pwm->Instance==TIM3)
 80005fc:	687b      	ldr	r3, [r7, #4]
 80005fe:	681b      	ldr	r3, [r3, #0]
 8000600:	4a09      	ldr	r2, [pc, #36]	; (8000628 <HAL_TIM_PWM_MspInit+0x34>)
 8000602:	4293      	cmp	r3, r2
 8000604:	d10b      	bne.n	800061e <HAL_TIM_PWM_MspInit+0x2a>
  {
  /* USER CODE BEGIN TIM3_MspInit 0 */

  /* USER CODE END TIM3_MspInit 0 */
    /* Peripheral clock enable */
    __HAL_RCC_TIM3_CLK_ENABLE();
 8000606:	4b09      	ldr	r3, [pc, #36]	; (800062c <HAL_TIM_PWM_MspInit+0x38>)
 8000608:	69da      	ldr	r2, [r3, #28]
 800060a:	4b08      	ldr	r3, [pc, #32]	; (800062c <HAL_TIM_PWM_MspInit+0x38>)
 800060c:	2102      	movs	r1, #2
 800060e:	430a      	orrs	r2, r1
 8000610:	61da      	str	r2, [r3, #28]
 8000612:	4b06      	ldr	r3, [pc, #24]	; (800062c <HAL_TIM_PWM_MspInit+0x38>)
 8000614:	69db      	ldr	r3, [r3, #28]
 8000616:	2202      	movs	r2, #2
 8000618:	4013      	ands	r3, r2
 800061a:	60fb      	str	r3, [r7, #12]
 800061c:	68fb      	ldr	r3, [r7, #12]
  /* USER CODE BEGIN TIM3_MspInit 1 */

  /* USER CODE END TIM3_MspInit 1 */
  }

}
 800061e:	46c0      	nop			; (mov r8, r8)
 8000620:	46bd      	mov	sp, r7
 8000622:	b004      	add	sp, #16
 8000624:	bd80      	pop	{r7, pc}
 8000626:	46c0      	nop			; (mov r8, r8)
 8000628:	40000400 	.word	0x40000400
 800062c:	40021000 	.word	0x40021000

08000630 <HAL_TIM_MspPostInit>:

void HAL_TIM_MspPostInit(TIM_HandleTypeDef* htim)
{
 8000630:	b580      	push	{r7, lr}
 8000632:	b088      	sub	sp, #32
 8000634:	af00      	add	r7, sp, #0
 8000636:	6078      	str	r0, [r7, #4]
  GPIO_InitTypeDef GPIO_InitStruct = {0};
 8000638:	230c      	movs	r3, #12
 800063a:	18fb      	adds	r3, r7, r3
 800063c:	0018      	movs	r0, r3
 800063e:	2314      	movs	r3, #20
 8000640:	001a      	movs	r2, r3
 8000642:	2100      	movs	r1, #0
 8000644:	f002 f8e0 	bl	8002808 <memset>
  if(htim->Instance==TIM3)
 8000648:	687b      	ldr	r3, [r7, #4]
 800064a:	681b      	ldr	r3, [r3, #0]
 800064c:	4a15      	ldr	r2, [pc, #84]	; (80006a4 <HAL_TIM_MspPostInit+0x74>)
 800064e:	4293      	cmp	r3, r2
 8000650:	d123      	bne.n	800069a <HAL_TIM_MspPostInit+0x6a>
  {
  /* USER CODE BEGIN TIM3_MspPostInit 0 */

  /* USER CODE END TIM3_MspPostInit 0 */

    __HAL_RCC_GPIOB_CLK_ENABLE();
 8000652:	4b15      	ldr	r3, [pc, #84]	; (80006a8 <HAL_TIM_MspPostInit+0x78>)
 8000654:	695a      	ldr	r2, [r3, #20]
 8000656:	4b14      	ldr	r3, [pc, #80]	; (80006a8 <HAL_TIM_MspPostInit+0x78>)
 8000658:	2180      	movs	r1, #128	; 0x80
 800065a:	02c9      	lsls	r1, r1, #11
 800065c:	430a      	orrs	r2, r1
 800065e:	615a      	str	r2, [r3, #20]
 8000660:	4b11      	ldr	r3, [pc, #68]	; (80006a8 <HAL_TIM_MspPostInit+0x78>)
 8000662:	695a      	ldr	r2, [r3, #20]
 8000664:	2380      	movs	r3, #128	; 0x80
 8000666:	02db      	lsls	r3, r3, #11
 8000668:	4013      	ands	r3, r2
 800066a:	60bb      	str	r3, [r7, #8]
 800066c:	68bb      	ldr	r3, [r7, #8]
    /**TIM3 GPIO Configuration
    PB0     ------> TIM3_CH3
    */
    GPIO_InitStruct.Pin = BUZZER_Pin;
 800066e:	210c      	movs	r1, #12
 8000670:	187b      	adds	r3, r7, r1
 8000672:	2201      	movs	r2, #1
 8000674:	601a      	str	r2, [r3, #0]
    GPIO_InitStruct.Mode = GPIO_MODE_AF_PP;
 8000676:	187b      	adds	r3, r7, r1
 8000678:	2202      	movs	r2, #2
 800067a:	605a      	str	r2, [r3, #4]
    GPIO_InitStruct.Pull = GPIO_NOPULL;
 800067c:	187b      	adds	r3, r7, r1
 800067e:	2200      	movs	r2, #0
 8000680:	609a      	str	r2, [r3, #8]
    GPIO_InitStruct.Speed = GPIO_SPEED_FREQ_LOW;
 8000682:	187b      	adds	r3, r7, r1
 8000684:	2200      	movs	r2, #0
 8000686:	60da      	str	r2, [r3, #12]
    GPIO_InitStruct.Alternate = GPIO_AF1_TIM3;
 8000688:	187b      	adds	r3, r7, r1
 800068a:	2201      	movs	r2, #1
 800068c:	611a      	str	r2, [r3, #16]
    HAL_GPIO_Init(BUZZER_GPIO_Port, &GPIO_InitStruct);
 800068e:	187b      	adds	r3, r7, r1
 8000690:	4a06      	ldr	r2, [pc, #24]	; (80006ac <HAL_TIM_MspPostInit+0x7c>)
 8000692:	0019      	movs	r1, r3
 8000694:	0010      	movs	r0, r2
 8000696:	f000 f9f1 	bl	8000a7c <HAL_GPIO_Init>
  /* USER CODE BEGIN TIM3_MspPostInit 1 */

  /* USER CODE END TIM3_MspPostInit 1 */
  }

}
 800069a:	46c0      	nop			; (mov r8, r8)
 800069c:	46bd      	mov	sp, r7
 800069e:	b008      	add	sp, #32
 80006a0:	bd80      	pop	{r7, pc}
 80006a2:	46c0      	nop			; (mov r8, r8)
 80006a4:	40000400 	.word	0x40000400
 80006a8:	40021000 	.word	0x40021000
 80006ac:	48000400 	.word	0x48000400

080006b0 <HAL_UART_MspInit>:
* This function configures the hardware resources used in this example
* @param huart: UART handle pointer
* @retval None
*/
void HAL_UART_MspInit(UART_HandleTypeDef* huart)
{
 80006b0:	b580      	push	{r7, lr}
 80006b2:	b08a      	sub	sp, #40	; 0x28
 80006b4:	af00      	add	r7, sp, #0
 80006b6:	6078      	str	r0, [r7, #4]
  GPIO_InitTypeDef GPIO_InitStruct = {0};
 80006b8:	2314      	movs	r3, #20
 80006ba:	18fb      	adds	r3, r7, r3
 80006bc:	0018      	movs	r0, r3
 80006be:	2314      	movs	r3, #20
 80006c0:	001a      	movs	r2, r3
 80006c2:	2100      	movs	r1, #0
 80006c4:	f002 f8a0 	bl	8002808 <memset>
  if(huart->Instance==USART2)
 80006c8:	687b      	ldr	r3, [r7, #4]
 80006ca:	681b      	ldr	r3, [r3, #0]
 80006cc:	4a1c      	ldr	r2, [pc, #112]	; (8000740 <HAL_UART_MspInit+0x90>)
 80006ce:	4293      	cmp	r3, r2
 80006d0:	d132      	bne.n	8000738 <HAL_UART_MspInit+0x88>
  {
  /* USER CODE BEGIN USART2_MspInit 0 */

  /* USER CODE END USART2_MspInit 0 */
    /* Peripheral clock enable */
    __HAL_RCC_USART2_CLK_ENABLE();
 80006d2:	4b1c      	ldr	r3, [pc, #112]	; (8000744 <HAL_UART_MspInit+0x94>)
 80006d4:	69da      	ldr	r2, [r3, #28]
 80006d6:	4b1b      	ldr	r3, [pc, #108]	; (8000744 <HAL_UART_MspInit+0x94>)
 80006d8:	2180      	movs	r1, #128	; 0x80
 80006da:	0289      	lsls	r1, r1, #10
 80006dc:	430a      	orrs	r2, r1
 80006de:	61da      	str	r2, [r3, #28]
 80006e0:	4b18      	ldr	r3, [pc, #96]	; (8000744 <HAL_UART_MspInit+0x94>)
 80006e2:	69da      	ldr	r2, [r3, #28]
 80006e4:	2380      	movs	r3, #128	; 0x80
 80006e6:	029b      	lsls	r3, r3, #10
 80006e8:	4013      	ands	r3, r2
 80006ea:	613b      	str	r3, [r7, #16]
 80006ec:	693b      	ldr	r3, [r7, #16]

    __HAL_RCC_GPIOA_CLK_ENABLE();
 80006ee:	4b15      	ldr	r3, [pc, #84]	; (8000744 <HAL_UART_MspInit+0x94>)
 80006f0:	695a      	ldr	r2, [r3, #20]
 80006f2:	4b14      	ldr	r3, [pc, #80]	; (8000744 <HAL_UART_MspInit+0x94>)
 80006f4:	2180      	movs	r1, #128	; 0x80
 80006f6:	0289      	lsls	r1, r1, #10
 80006f8:	430a      	orrs	r2, r1
 80006fa:	615a      	str	r2, [r3, #20]
 80006fc:	4b11      	ldr	r3, [pc, #68]	; (8000744 <HAL_UART_MspInit+0x94>)
 80006fe:	695a      	ldr	r2, [r3, #20]
 8000700:	2380      	movs	r3, #128	; 0x80
 8000702:	029b      	lsls	r3, r3, #10
 8000704:	4013      	ands	r3, r2
 8000706:	60fb      	str	r3, [r7, #12]
 8000708:	68fb      	ldr	r3, [r7, #12]
    /**USART2 GPIO Configuration
    PA2     ------> USART2_TX
    PA15     ------> USART2_RX
    */
    GPIO_InitStruct.Pin = VCP_TX_Pin|VCP_RX_Pin;
 800070a:	2114      	movs	r1, #20
 800070c:	187b      	adds	r3, r7, r1
 800070e:	4a0e      	ldr	r2, [pc, #56]	; (8000748 <HAL_UART_MspInit+0x98>)
 8000710:	601a      	str	r2, [r3, #0]
    GPIO_InitStruct.Mode = GPIO_MODE_AF_PP;
 8000712:	187b      	adds	r3, r7, r1
 8000714:	2202      	movs	r2, #2
 8000716:	605a      	str	r2, [r3, #4]
    GPIO_InitStruct.Pull = GPIO_NOPULL;
 8000718:	187b      	adds	r3, r7, r1
 800071a:	2200      	movs	r2, #0
 800071c:	609a      	str	r2, [r3, #8]
    GPIO_InitStruct.Speed = GPIO_SPEED_FREQ_HIGH;
 800071e:	187b      	adds	r3, r7, r1
 8000720:	2203      	movs	r2, #3
 8000722:	60da      	str	r2, [r3, #12]
    GPIO_InitStruct.Alternate = GPIO_AF1_USART2;
 8000724:	187b      	adds	r3, r7, r1
 8000726:	2201      	movs	r2, #1
 8000728:	611a      	str	r2, [r3, #16]
    HAL_GPIO_Init(GPIOA, &GPIO_InitStruct);
 800072a:	187a      	adds	r2, r7, r1
 800072c:	2390      	movs	r3, #144	; 0x90
 800072e:	05db      	lsls	r3, r3, #23
 8000730:	0011      	movs	r1, r2
 8000732:	0018      	movs	r0, r3
 8000734:	f000 f9a2 	bl	8000a7c <HAL_GPIO_Init>
  /* USER CODE BEGIN USART2_MspInit 1 */

  /* USER CODE END USART2_MspInit 1 */
  }

}
 8000738:	46c0      	nop			; (mov r8, r8)
 800073a:	46bd      	mov	sp, r7
 800073c:	b00a      	add	sp, #40	; 0x28
 800073e:	bd80      	pop	{r7, pc}
 8000740:	40004400 	.word	0x40004400
 8000744:	40021000 	.word	0x40021000
 8000748:	00008004 	.word	0x00008004

0800074c <NMI_Handler>:
/******************************************************************************/
/**
  * @brief This function handles Non maskable interrupt.
  */
void NMI_Handler(void)
{
 800074c:	b580      	push	{r7, lr}
 800074e:	af00      	add	r7, sp, #0
  /* USER CODE BEGIN NonMaskableInt_IRQn 0 */

  /* USER CODE END NonMaskableInt_IRQn 0 */
  /* USER CODE BEGIN NonMaskableInt_IRQn 1 */
  while (1)
 8000750:	e7fe      	b.n	8000750 <NMI_Handler+0x4>

08000752 <HardFault_Handler>:

/**
  * @brief This function handles Hard fault interrupt.
  */
void HardFault_Handler(void)
{
 8000752:	b580      	push	{r7, lr}
 8000754:	af00      	add	r7, sp, #0
  /* USER CODE BEGIN HardFault_IRQn 0 */

  /* USER CODE END HardFault_IRQn 0 */
  while (1)
 8000756:	e7fe      	b.n	8000756 <HardFault_Handler+0x4>

08000758 <SVC_Handler>:

/**
  * @brief This function handles System service call via SWI instruction.
  */
void SVC_Handler(void)
{
 8000758:	b580      	push	{r7, lr}
 800075a:	af00      	add	r7, sp, #0

  /* USER CODE END SVC_IRQn 0 */
  /* USER CODE BEGIN SVC_IRQn 1 */

  /* USER CODE END SVC_IRQn 1 */
}
 800075c:	46c0      	nop			; (mov r8, r8)
 800075e:	46bd      	mov	sp, r7
 8000760:	bd80      	pop	{r7, pc}

08000762 <PendSV_Handler>:

/**
  * @brief This function handles Pendable request for system service.
  */
void PendSV_Handler(void)
{
 8000762:	b580      	push	{r7, lr}
 8000764:	af00      	add	r7, sp, #0

  /* USER CODE END PendSV_IRQn 0 */
  /* USER CODE BEGIN PendSV_IRQn 1 */

  /* USER CODE END PendSV_IRQn 1 */
}
 8000766:	46c0      	nop			; (mov r8, r8)
 8000768:	46bd      	mov	sp, r7
 800076a:	bd80      	pop	{r7, pc}

0800076c <SysTick_Handler>:

/**
  * @brief This function handles System tick timer.
  */
void SysTick_Handler(void)
{
 800076c:	b580      	push	{r7, lr}
 800076e:	af00      	add	r7, sp, #0
  /* USER CODE BEGIN SysTick_IRQn 0 */

  /* USER CODE END SysTick_IRQn 0 */
  HAL_IncTick();
 8000770:	f000 f892 	bl	8000898 <HAL_IncTick>
  /* USER CODE BEGIN SysTick_IRQn 1 */

  /* USER CODE END SysTick_IRQn 1 */
}
 8000774:	46c0      	nop			; (mov r8, r8)
 8000776:	46bd      	mov	sp, r7
 8000778:	bd80      	pop	{r7, pc}

0800077a <SystemInit>:
  * @brief  Setup the microcontroller system
  * @param  None
  * @retval None
  */
void SystemInit(void)
{
 800077a:	b580      	push	{r7, lr}
 800077c:	af00      	add	r7, sp, #0
                         before branch to main program. This call is made inside
                         the "startup_stm32f0xx.s" file.
                         User can setups the default system clock (System clock source, PLL Multiplier
                         and Divider factors, AHB/APBx prescalers and Flash settings).
   */
}
 800077e:	46c0      	nop			; (mov r8, r8)
 8000780:	46bd      	mov	sp, r7
 8000782:	bd80      	pop	{r7, pc}

08000784 <Reset_Handler>:

  .section .text.Reset_Handler
  .weak Reset_Handler
  .type Reset_Handler, %function
Reset_Handler:
  ldr   r0, =_estack
 8000784:	4813      	ldr	r0, [pc, #76]	; (80007d4 <LoopForever+0x2>)
  mov   sp, r0          /* set stack pointer */
 8000786:	4685      	mov	sp, r0

/*Check if boot space corresponds to test memory*/
 
    LDR R0,=0x00000004
 8000788:	4813      	ldr	r0, [pc, #76]	; (80007d8 <LoopForever+0x6>)
    LDR R1, [R0]
 800078a:	6801      	ldr	r1, [r0, #0]
    LSRS R1, R1, #24
 800078c:	0e09      	lsrs	r1, r1, #24
    LDR R2,=0x1F
 800078e:	4a13      	ldr	r2, [pc, #76]	; (80007dc <LoopForever+0xa>)
    CMP R1, R2
 8000790:	4291      	cmp	r1, r2
    BNE ApplicationStart
 8000792:	d105      	bne.n	80007a0 <ApplicationStart>

 /*SYSCFG clock enable*/

    LDR R0,=0x40021018
 8000794:	4812      	ldr	r0, [pc, #72]	; (80007e0 <LoopForever+0xe>)
    LDR R1,=0x00000001
 8000796:	4913      	ldr	r1, [pc, #76]	; (80007e4 <LoopForever+0x12>)
    STR R1, [R0]
 8000798:	6001      	str	r1, [r0, #0]

/*Set CFGR1 register with flash memory remap at address 0*/
    LDR R0,=0x40010000
 800079a:	4813      	ldr	r0, [pc, #76]	; (80007e8 <LoopForever+0x16>)
    LDR R1,=0x00000000
 800079c:	4913      	ldr	r1, [pc, #76]	; (80007ec <LoopForever+0x1a>)
    STR R1, [R0]
 800079e:	6001      	str	r1, [r0, #0]

080007a0 <ApplicationStart>:

ApplicationStart:
/* Copy the data segment initializers from flash to SRAM */
  ldr r0, =_sdata
 80007a0:	4813      	ldr	r0, [pc, #76]	; (80007f0 <LoopForever+0x1e>)
  ldr r1, =_edata
 80007a2:	4914      	ldr	r1, [pc, #80]	; (80007f4 <LoopForever+0x22>)
  ldr r2, =_sidata
 80007a4:	4a14      	ldr	r2, [pc, #80]	; (80007f8 <LoopForever+0x26>)
  movs r3, #0
 80007a6:	2300      	movs	r3, #0
  b LoopCopyDataInit
 80007a8:	e002      	b.n	80007b0 <LoopCopyDataInit>

080007aa <CopyDataInit>:

CopyDataInit:
  ldr r4, [r2, r3]
 80007aa:	58d4      	ldr	r4, [r2, r3]
  str r4, [r0, r3]
 80007ac:	50c4      	str	r4, [r0, r3]
  adds r3, r3, #4
 80007ae:	3304      	adds	r3, #4

080007b0 <LoopCopyDataInit>:

LoopCopyDataInit:
  adds r4, r0, r3
 80007b0:	18c4      	adds	r4, r0, r3
  cmp r4, r1
 80007b2:	428c      	cmp	r4, r1
  bcc CopyDataInit
 80007b4:	d3f9      	bcc.n	80007aa <CopyDataInit>
  
/* Zero fill the bss segment. */
  ldr r2, =_sbss
 80007b6:	4a11      	ldr	r2, [pc, #68]	; (80007fc <LoopForever+0x2a>)
  ldr r4, =_ebss
 80007b8:	4c11      	ldr	r4, [pc, #68]	; (8000800 <LoopForever+0x2e>)
  movs r3, #0
 80007ba:	2300      	movs	r3, #0
  b LoopFillZerobss
 80007bc:	e001      	b.n	80007c2 <LoopFillZerobss>

080007be <FillZerobss>:

FillZerobss:
  str  r3, [r2]
 80007be:	6013      	str	r3, [r2, #0]
  adds r2, r2, #4
 80007c0:	3204      	adds	r2, #4

080007c2 <LoopFillZerobss>:

LoopFillZerobss:
  cmp r2, r4
 80007c2:	42a2      	cmp	r2, r4
  bcc FillZerobss
 80007c4:	d3fb      	bcc.n	80007be <FillZerobss>

/* Call the clock system intitialization function.*/
  bl  SystemInit
 80007c6:	f7ff ffd8 	bl	800077a <SystemInit>
/* Call static constructors */
  bl __libc_init_array
 80007ca:	f001 fff9 	bl	80027c0 <__libc_init_array>
/* Call the application's entry point.*/
  bl main
 80007ce:	f7ff fd27 	bl	8000220 <main>

080007d2 <LoopForever>:

LoopForever:
    b LoopForever
 80007d2:	e7fe      	b.n	80007d2 <LoopForever>
  ldr   r0, =_estack
 80007d4:	20001800 	.word	0x20001800
    LDR R0,=0x00000004
 80007d8:	00000004 	.word	0x00000004
    LDR R2,=0x1F
 80007dc:	0000001f 	.word	0x0000001f
    LDR R0,=0x40021018
 80007e0:	40021018 	.word	0x40021018
    LDR R1,=0x00000001
 80007e4:	00000001 	.word	0x00000001
    LDR R0,=0x40010000
 80007e8:	40010000 	.word	0x40010000
    LDR R1,=0x00000000
 80007ec:	00000000 	.word	0x00000000
  ldr r0, =_sdata
 80007f0:	20000000 	.word	0x20000000
  ldr r1, =_edata
 80007f4:	2000000c 	.word	0x2000000c
  ldr r2, =_sidata
 80007f8:	08002870 	.word	0x08002870
  ldr r2, =_sbss
 80007fc:	2000000c 	.word	0x2000000c
  ldr r4, =_ebss
 8000800:	200000f8 	.word	0x200000f8

08000804 <ADC1_IRQHandler>:
 * @retval : None
*/
    .section .text.Default_Handler,"ax",%progbits
Default_Handler:
Infinite_Loop:
  b Infinite_Loop
 8000804:	e7fe      	b.n	8000804 <ADC1_IRQHandler>
	...

08000808 <HAL_Init>:
  *       In the default implementation,Systick is used as source of time base.
  *       The tick variable is incremented each 1ms in its ISR.
  * @retval HAL status
  */
HAL_StatusTypeDef HAL_Init(void)
{
 8000808:	b580      	push	{r7, lr}
 800080a:	af00      	add	r7, sp, #0
  /* Configure Flash prefetch */ 
#if (PREFETCH_ENABLE != 0)
  __HAL_FLASH_PREFETCH_BUFFER_ENABLE();
 800080c:	4b07      	ldr	r3, [pc, #28]	; (800082c <HAL_Init+0x24>)
 800080e:	681a      	ldr	r2, [r3, #0]
 8000810:	4b06      	ldr	r3, [pc, #24]	; (800082c <HAL_Init+0x24>)
 8000812:	2110      	movs	r1, #16
 8000814:	430a      	orrs	r2, r1
 8000816:	601a      	str	r2, [r3, #0]
#endif /* PREFETCH_ENABLE */

  /* Use systick as time base source and configure 1ms tick (default clock after Reset is HSI) */

  HAL_InitTick(TICK_INT_PRIORITY);
 8000818:	2000      	movs	r0, #0
 800081a:	f000 f809 	bl	8000830 <HAL_InitTick>

  /* Init the low level hardware */
  HAL_MspInit();
 800081e:	f7ff fec5 	bl	80005ac <HAL_MspInit>

  /* Return function status */
  return HAL_OK;
 8000822:	2300      	movs	r3, #0
}
 8000824:	0018      	movs	r0, r3
 8000826:	46bd      	mov	sp, r7
 8000828:	bd80      	pop	{r7, pc}
 800082a:	46c0      	nop			; (mov r8, r8)
 800082c:	40022000 	.word	0x40022000

08000830 <HAL_InitTick>:
  *       implementation  in user file.
  * @param TickPriority Tick interrupt priority.
  * @retval HAL status
  */
__weak HAL_StatusTypeDef HAL_InitTick(uint32_t TickPriority)
{
 8000830:	b590      	push	{r4, r7, lr}
 8000832:	b083      	sub	sp, #12
 8000834:	af00      	add	r7, sp, #0
 8000836:	6078      	str	r0, [r7, #4]
  /*Configure the SysTick to have interrupt in 1ms time basis*/
  if (HAL_SYSTICK_Config(SystemCoreClock / (1000U / uwTickFreq)) > 0U)
 8000838:	4b14      	ldr	r3, [pc, #80]	; (800088c <HAL_InitTick+0x5c>)
 800083a:	681c      	ldr	r4, [r3, #0]
 800083c:	4b14      	ldr	r3, [pc, #80]	; (8000890 <HAL_InitTick+0x60>)
 800083e:	781b      	ldrb	r3, [r3, #0]
 8000840:	0019      	movs	r1, r3
 8000842:	23fa      	movs	r3, #250	; 0xfa
 8000844:	0098      	lsls	r0, r3, #2
 8000846:	f7ff fc5f 	bl	8000108 <__udivsi3>
 800084a:	0003      	movs	r3, r0
 800084c:	0019      	movs	r1, r3
 800084e:	0020      	movs	r0, r4
 8000850:	f7ff fc5a 	bl	8000108 <__udivsi3>
 8000854:	0003      	movs	r3, r0
 8000856:	0018      	movs	r0, r3
 8000858:	f000 f903 	bl	8000a62 <HAL_SYSTICK_Config>
 800085c:	1e03      	subs	r3, r0, #0
 800085e:	d001      	beq.n	8000864 <HAL_InitTick+0x34>
  {
    return HAL_ERROR;
 8000860:	2301      	movs	r3, #1
 8000862:	e00f      	b.n	8000884 <HAL_InitTick+0x54>
  }

  /* Configure the SysTick IRQ priority */
  if (TickPriority < (1UL << __NVIC_PRIO_BITS))
 8000864:	687b      	ldr	r3, [r7, #4]
 8000866:	2b03      	cmp	r3, #3
 8000868:	d80b      	bhi.n	8000882 <HAL_InitTick+0x52>
  {
    HAL_NVIC_SetPriority(SysTick_IRQn, TickPriority, 0U);
 800086a:	6879      	ldr	r1, [r7, #4]
 800086c:	2301      	movs	r3, #1
 800086e:	425b      	negs	r3, r3
 8000870:	2200      	movs	r2, #0
 8000872:	0018      	movs	r0, r3
 8000874:	f000 f8e0 	bl	8000a38 <HAL_NVIC_SetPriority>
    uwTickPrio = TickPriority;
 8000878:	4b06      	ldr	r3, [pc, #24]	; (8000894 <HAL_InitTick+0x64>)
 800087a:	687a      	ldr	r2, [r7, #4]
 800087c:	601a      	str	r2, [r3, #0]
  {
    return HAL_ERROR;
  }

   /* Return function status */
  return HAL_OK;
 800087e:	2300      	movs	r3, #0
 8000880:	e000      	b.n	8000884 <HAL_InitTick+0x54>
    return HAL_ERROR;
 8000882:	2301      	movs	r3, #1
}
 8000884:	0018      	movs	r0, r3
 8000886:	46bd      	mov	sp, r7
 8000888:	b003      	add	sp, #12
 800088a:	bd90      	pop	{r4, r7, pc}
 800088c:	20000000 	.word	0x20000000
 8000890:	20000008 	.word	0x20000008
 8000894:	20000004 	.word	0x20000004

08000898 <HAL_IncTick>:
  * @note This function is declared as __weak to be overwritten in case of other 
  *       implementations in user file.
  * @retval None
  */
__weak void HAL_IncTick(void)
{
 8000898:	b580      	push	{r7, lr}
 800089a:	af00      	add	r7, sp, #0
  uwTick += uwTickFreq;
 800089c:	4b05      	ldr	r3, [pc, #20]	; (80008b4 <HAL_IncTick+0x1c>)
 800089e:	781b      	ldrb	r3, [r3, #0]
 80008a0:	001a      	movs	r2, r3
 80008a2:	4b05      	ldr	r3, [pc, #20]	; (80008b8 <HAL_IncTick+0x20>)
 80008a4:	681b      	ldr	r3, [r3, #0]
 80008a6:	18d2      	adds	r2, r2, r3
 80008a8:	4b03      	ldr	r3, [pc, #12]	; (80008b8 <HAL_IncTick+0x20>)
 80008aa:	601a      	str	r2, [r3, #0]
}
 80008ac:	46c0      	nop			; (mov r8, r8)
 80008ae:	46bd      	mov	sp, r7
 80008b0:	bd80      	pop	{r7, pc}
 80008b2:	46c0      	nop			; (mov r8, r8)
 80008b4:	20000008 	.word	0x20000008
 80008b8:	200000f4 	.word	0x200000f4

080008bc <HAL_GetTick>:
  * @note   This function is declared as __weak  to be overwritten  in case of other 
  *       implementations in user file.
  * @retval tick value
  */
__weak uint32_t HAL_GetTick(void)
{
 80008bc:	b580      	push	{r7, lr}
 80008be:	af00      	add	r7, sp, #0
  return uwTick;
 80008c0:	4b02      	ldr	r3, [pc, #8]	; (80008cc <HAL_GetTick+0x10>)
 80008c2:	681b      	ldr	r3, [r3, #0]
}
 80008c4:	0018      	movs	r0, r3
 80008c6:	46bd      	mov	sp, r7
 80008c8:	bd80      	pop	{r7, pc}
 80008ca:	46c0      	nop			; (mov r8, r8)
 80008cc:	200000f4 	.word	0x200000f4

080008d0 <HAL_Delay>:
  *       implementations in user file.
  * @param Delay specifies the delay time length, in milliseconds.
  * @retval None
  */
__weak void HAL_Delay(uint32_t Delay)
{
 80008d0:	b580      	push	{r7, lr}
 80008d2:	b084      	sub	sp, #16
 80008d4:	af00      	add	r7, sp, #0
 80008d6:	6078      	str	r0, [r7, #4]
  uint32_t tickstart = HAL_GetTick();
 80008d8:	f7ff fff0 	bl	80008bc <HAL_GetTick>
 80008dc:	0003      	movs	r3, r0
 80008de:	60bb      	str	r3, [r7, #8]
  uint32_t wait = Delay;
 80008e0:	687b      	ldr	r3, [r7, #4]
 80008e2:	60fb      	str	r3, [r7, #12]
  
  /* Add a freq to guarantee minimum wait */
  if (wait < HAL_MAX_DELAY)
 80008e4:	68fb      	ldr	r3, [r7, #12]
 80008e6:	3301      	adds	r3, #1
 80008e8:	d005      	beq.n	80008f6 <HAL_Delay+0x26>
  {
    wait += (uint32_t)(uwTickFreq);
 80008ea:	4b09      	ldr	r3, [pc, #36]	; (8000910 <HAL_Delay+0x40>)
 80008ec:	781b      	ldrb	r3, [r3, #0]
 80008ee:	001a      	movs	r2, r3
 80008f0:	68fb      	ldr	r3, [r7, #12]
 80008f2:	189b      	adds	r3, r3, r2
 80008f4:	60fb      	str	r3, [r7, #12]
  }
  
  while((HAL_GetTick() - tickstart) < wait)
 80008f6:	46c0      	nop			; (mov r8, r8)
 80008f8:	f7ff ffe0 	bl	80008bc <HAL_GetTick>
 80008fc:	0002      	movs	r2, r0
 80008fe:	68bb      	ldr	r3, [r7, #8]
 8000900:	1ad3      	subs	r3, r2, r3
 8000902:	68fa      	ldr	r2, [r7, #12]
 8000904:	429a      	cmp	r2, r3
 8000906:	d8f7      	bhi.n	80008f8 <HAL_Delay+0x28>
  {
  }
}
 8000908:	46c0      	nop			; (mov r8, r8)
 800090a:	46bd      	mov	sp, r7
 800090c:	b004      	add	sp, #16
 800090e:	bd80      	pop	{r7, pc}
 8000910:	20000008 	.word	0x20000008

08000914 <__NVIC_SetPriority>:
  \param [in]      IRQn  Interrupt number.
  \param [in]  priority  Priority to set.
  \note    The priority cannot be set for every processor exception.
 */
__STATIC_INLINE void __NVIC_SetPriority(IRQn_Type IRQn, uint32_t priority)
{
 8000914:	b590      	push	{r4, r7, lr}
 8000916:	b083      	sub	sp, #12
 8000918:	af00      	add	r7, sp, #0
 800091a:	0002      	movs	r2, r0
 800091c:	6039      	str	r1, [r7, #0]
 800091e:	1dfb      	adds	r3, r7, #7
 8000920:	701a      	strb	r2, [r3, #0]
  if ((int32_t)(IRQn) >= 0)
 8000922:	1dfb      	adds	r3, r7, #7
 8000924:	781b      	ldrb	r3, [r3, #0]
 8000926:	2b7f      	cmp	r3, #127	; 0x7f
 8000928:	d828      	bhi.n	800097c <__NVIC_SetPriority+0x68>
  {
    NVIC->IP[_IP_IDX(IRQn)]  = ((uint32_t)(NVIC->IP[_IP_IDX(IRQn)]  & ~(0xFFUL << _BIT_SHIFT(IRQn))) |
 800092a:	4a2f      	ldr	r2, [pc, #188]	; (80009e8 <__NVIC_SetPriority+0xd4>)
 800092c:	1dfb      	adds	r3, r7, #7
 800092e:	781b      	ldrb	r3, [r3, #0]
 8000930:	b25b      	sxtb	r3, r3
 8000932:	089b      	lsrs	r3, r3, #2
 8000934:	33c0      	adds	r3, #192	; 0xc0
 8000936:	009b      	lsls	r3, r3, #2
 8000938:	589b      	ldr	r3, [r3, r2]
 800093a:	1dfa      	adds	r2, r7, #7
 800093c:	7812      	ldrb	r2, [r2, #0]
 800093e:	0011      	movs	r1, r2
 8000940:	2203      	movs	r2, #3
 8000942:	400a      	ands	r2, r1
 8000944:	00d2      	lsls	r2, r2, #3
 8000946:	21ff      	movs	r1, #255	; 0xff
 8000948:	4091      	lsls	r1, r2
 800094a:	000a      	movs	r2, r1
 800094c:	43d2      	mvns	r2, r2
 800094e:	401a      	ands	r2, r3
 8000950:	0011      	movs	r1, r2
       (((priority << (8U - __NVIC_PRIO_BITS)) & (uint32_t)0xFFUL) << _BIT_SHIFT(IRQn)));
 8000952:	683b      	ldr	r3, [r7, #0]
 8000954:	019b      	lsls	r3, r3, #6
 8000956:	22ff      	movs	r2, #255	; 0xff
 8000958:	401a      	ands	r2, r3
 800095a:	1dfb      	adds	r3, r7, #7
 800095c:	781b      	ldrb	r3, [r3, #0]
 800095e:	0018      	movs	r0, r3
 8000960:	2303      	movs	r3, #3
 8000962:	4003      	ands	r3, r0
 8000964:	00db      	lsls	r3, r3, #3
 8000966:	409a      	lsls	r2, r3
    NVIC->IP[_IP_IDX(IRQn)]  = ((uint32_t)(NVIC->IP[_IP_IDX(IRQn)]  & ~(0xFFUL << _BIT_SHIFT(IRQn))) |
 8000968:	481f      	ldr	r0, [pc, #124]	; (80009e8 <__NVIC_SetPriority+0xd4>)
 800096a:	1dfb      	adds	r3, r7, #7
 800096c:	781b      	ldrb	r3, [r3, #0]
 800096e:	b25b      	sxtb	r3, r3
 8000970:	089b      	lsrs	r3, r3, #2
 8000972:	430a      	orrs	r2, r1
 8000974:	33c0      	adds	r3, #192	; 0xc0
 8000976:	009b      	lsls	r3, r3, #2
 8000978:	501a      	str	r2, [r3, r0]
  else
  {
    SCB->SHP[_SHP_IDX(IRQn)] = ((uint32_t)(SCB->SHP[_SHP_IDX(IRQn)] & ~(0xFFUL << _BIT_SHIFT(IRQn))) |
       (((priority << (8U - __NVIC_PRIO_BITS)) & (uint32_t)0xFFUL) << _BIT_SHIFT(IRQn)));
  }
}
 800097a:	e031      	b.n	80009e0 <__NVIC_SetPriority+0xcc>
    SCB->SHP[_SHP_IDX(IRQn)] = ((uint32_t)(SCB->SHP[_SHP_IDX(IRQn)] & ~(0xFFUL << _BIT_SHIFT(IRQn))) |
 800097c:	4a1b      	ldr	r2, [pc, #108]	; (80009ec <__NVIC_SetPriority+0xd8>)
 800097e:	1dfb      	adds	r3, r7, #7
 8000980:	781b      	ldrb	r3, [r3, #0]
 8000982:	0019      	movs	r1, r3
 8000984:	230f      	movs	r3, #15
 8000986:	400b      	ands	r3, r1
 8000988:	3b08      	subs	r3, #8
 800098a:	089b      	lsrs	r3, r3, #2
 800098c:	3306      	adds	r3, #6
 800098e:	009b      	lsls	r3, r3, #2
 8000990:	18d3      	adds	r3, r2, r3
 8000992:	3304      	adds	r3, #4
 8000994:	681b      	ldr	r3, [r3, #0]
 8000996:	1dfa      	adds	r2, r7, #7
 8000998:	7812      	ldrb	r2, [r2, #0]
 800099a:	0011      	movs	r1, r2
 800099c:	2203      	movs	r2, #3
 800099e:	400a      	ands	r2, r1
 80009a0:	00d2      	lsls	r2, r2, #3
 80009a2:	21ff      	movs	r1, #255	; 0xff
 80009a4:	4091      	lsls	r1, r2
 80009a6:	000a      	movs	r2, r1
 80009a8:	43d2      	mvns	r2, r2
 80009aa:	401a      	ands	r2, r3
 80009ac:	0011      	movs	r1, r2
       (((priority << (8U - __NVIC_PRIO_BITS)) & (uint32_t)0xFFUL) << _BIT_SHIFT(IRQn)));
 80009ae:	683b      	ldr	r3, [r7, #0]
 80009b0:	019b      	lsls	r3, r3, #6
 80009b2:	22ff      	movs	r2, #255	; 0xff
 80009b4:	401a      	ands	r2, r3
 80009b6:	1dfb      	adds	r3, r7, #7
 80009b8:	781b      	ldrb	r3, [r3, #0]
 80009ba:	0018      	movs	r0, r3
 80009bc:	2303      	movs	r3, #3
 80009be:	4003      	ands	r3, r0
 80009c0:	00db      	lsls	r3, r3, #3
 80009c2:	409a      	lsls	r2, r3
    SCB->SHP[_SHP_IDX(IRQn)] = ((uint32_t)(SCB->SHP[_SHP_IDX(IRQn)] & ~(0xFFUL << _BIT_SHIFT(IRQn))) |
 80009c4:	4809      	ldr	r0, [pc, #36]	; (80009ec <__NVIC_SetPriority+0xd8>)
 80009c6:	1dfb      	adds	r3, r7, #7
 80009c8:	781b      	ldrb	r3, [r3, #0]
 80009ca:	001c      	movs	r4, r3
 80009cc:	230f      	movs	r3, #15
 80009ce:	4023      	ands	r3, r4
 80009d0:	3b08      	subs	r3, #8
 80009d2:	089b      	lsrs	r3, r3, #2
 80009d4:	430a      	orrs	r2, r1
 80009d6:	3306      	adds	r3, #6
 80009d8:	009b      	lsls	r3, r3, #2
 80009da:	18c3      	adds	r3, r0, r3
 80009dc:	3304      	adds	r3, #4
 80009de:	601a      	str	r2, [r3, #0]
}
 80009e0:	46c0      	nop			; (mov r8, r8)
 80009e2:	46bd      	mov	sp, r7
 80009e4:	b003      	add	sp, #12
 80009e6:	bd90      	pop	{r4, r7, pc}
 80009e8:	e000e100 	.word	0xe000e100
 80009ec:	e000ed00 	.word	0xe000ed00

080009f0 <SysTick_Config>:
  \note    When the variable <b>__Vendor_SysTickConfig</b> is set to 1, then the
           function <b>SysTick_Config</b> is not included. In this case, the file <b><i>device</i>.h</b>
           must contain a vendor-specific implementation of this function.
 */
__STATIC_INLINE uint32_t SysTick_Config(uint32_t ticks)
{
 80009f0:	b580      	push	{r7, lr}
 80009f2:	b082      	sub	sp, #8
 80009f4:	af00      	add	r7, sp, #0
 80009f6:	6078      	str	r0, [r7, #4]
  if ((ticks - 1UL) > SysTick_LOAD_RELOAD_Msk)
 80009f8:	687b      	ldr	r3, [r7, #4]
 80009fa:	3b01      	subs	r3, #1
 80009fc:	4a0c      	ldr	r2, [pc, #48]	; (8000a30 <SysTick_Config+0x40>)
 80009fe:	4293      	cmp	r3, r2
 8000a00:	d901      	bls.n	8000a06 <SysTick_Config+0x16>
  {
    return (1UL);                                                   /* Reload value impossible */
 8000a02:	2301      	movs	r3, #1
 8000a04:	e010      	b.n	8000a28 <SysTick_Config+0x38>
  }

  SysTick->LOAD  = (uint32_t)(ticks - 1UL);                         /* set reload register */
 8000a06:	4b0b      	ldr	r3, [pc, #44]	; (8000a34 <SysTick_Config+0x44>)
 8000a08:	687a      	ldr	r2, [r7, #4]
 8000a0a:	3a01      	subs	r2, #1
 8000a0c:	605a      	str	r2, [r3, #4]
  NVIC_SetPriority (SysTick_IRQn, (1UL << __NVIC_PRIO_BITS) - 1UL); /* set Priority for Systick Interrupt */
 8000a0e:	2301      	movs	r3, #1
 8000a10:	425b      	negs	r3, r3
 8000a12:	2103      	movs	r1, #3
 8000a14:	0018      	movs	r0, r3
 8000a16:	f7ff ff7d 	bl	8000914 <__NVIC_SetPriority>
  SysTick->VAL   = 0UL;                                             /* Load the SysTick Counter Value */
 8000a1a:	4b06      	ldr	r3, [pc, #24]	; (8000a34 <SysTick_Config+0x44>)
 8000a1c:	2200      	movs	r2, #0
 8000a1e:	609a      	str	r2, [r3, #8]
  SysTick->CTRL  = SysTick_CTRL_CLKSOURCE_Msk |
 8000a20:	4b04      	ldr	r3, [pc, #16]	; (8000a34 <SysTick_Config+0x44>)
 8000a22:	2207      	movs	r2, #7
 8000a24:	601a      	str	r2, [r3, #0]
                   SysTick_CTRL_TICKINT_Msk   |
                   SysTick_CTRL_ENABLE_Msk;                         /* Enable SysTick IRQ and SysTick Timer */
  return (0UL);                                                     /* Function successful */
 8000a26:	2300      	movs	r3, #0
}
 8000a28:	0018      	movs	r0, r3
 8000a2a:	46bd      	mov	sp, r7
 8000a2c:	b002      	add	sp, #8
 8000a2e:	bd80      	pop	{r7, pc}
 8000a30:	00ffffff 	.word	0x00ffffff
 8000a34:	e000e010 	.word	0xe000e010

08000a38 <HAL_NVIC_SetPriority>:
  *         with stm32f0xx devices, this parameter is a dummy value and it is ignored, because 
  *         no subpriority supported in Cortex M0 based products.   
  * @retval None
  */
void HAL_NVIC_SetPriority(IRQn_Type IRQn, uint32_t PreemptPriority, uint32_t SubPriority)
{ 
 8000a38:	b580      	push	{r7, lr}
 8000a3a:	b084      	sub	sp, #16
 8000a3c:	af00      	add	r7, sp, #0
 8000a3e:	60b9      	str	r1, [r7, #8]
 8000a40:	607a      	str	r2, [r7, #4]
 8000a42:	210f      	movs	r1, #15
 8000a44:	187b      	adds	r3, r7, r1
 8000a46:	1c02      	adds	r2, r0, #0
 8000a48:	701a      	strb	r2, [r3, #0]
  /* Check the parameters */
  assert_param(IS_NVIC_PREEMPTION_PRIORITY(PreemptPriority));
  NVIC_SetPriority(IRQn,PreemptPriority);
 8000a4a:	68ba      	ldr	r2, [r7, #8]
 8000a4c:	187b      	adds	r3, r7, r1
 8000a4e:	781b      	ldrb	r3, [r3, #0]
 8000a50:	b25b      	sxtb	r3, r3
 8000a52:	0011      	movs	r1, r2
 8000a54:	0018      	movs	r0, r3
 8000a56:	f7ff ff5d 	bl	8000914 <__NVIC_SetPriority>
}
 8000a5a:	46c0      	nop			; (mov r8, r8)
 8000a5c:	46bd      	mov	sp, r7
 8000a5e:	b004      	add	sp, #16
 8000a60:	bd80      	pop	{r7, pc}

08000a62 <HAL_SYSTICK_Config>:
  * @param  TicksNumb Specifies the ticks Number of ticks between two interrupts.
  * @retval status:  - 0  Function succeeded.
  *                  - 1  Function failed.
  */
uint32_t HAL_SYSTICK_Config(uint32_t TicksNumb)
{
 8000a62:	b580      	push	{r7, lr}
 8000a64:	b082      	sub	sp, #8
 8000a66:	af00      	add	r7, sp, #0
 8000a68:	6078      	str	r0, [r7, #4]
   return SysTick_Config(TicksNumb);
 8000a6a:	687b      	ldr	r3, [r7, #4]
 8000a6c:	0018      	movs	r0, r3
 8000a6e:	f7ff ffbf 	bl	80009f0 <SysTick_Config>
 8000a72:	0003      	movs	r3, r0
}
 8000a74:	0018      	movs	r0, r3
 8000a76:	46bd      	mov	sp, r7
 8000a78:	b002      	add	sp, #8
 8000a7a:	bd80      	pop	{r7, pc}

08000a7c <HAL_GPIO_Init>:
  * @param  GPIO_Init pointer to a GPIO_InitTypeDef structure that contains
  *         the configuration information for the specified GPIO peripheral.
  * @retval None
  */
void HAL_GPIO_Init(GPIO_TypeDef  *GPIOx, GPIO_InitTypeDef *GPIO_Init)
{ 
 8000a7c:	b580      	push	{r7, lr}
 8000a7e:	b086      	sub	sp, #24
 8000a80:	af00      	add	r7, sp, #0
 8000a82:	6078      	str	r0, [r7, #4]
 8000a84:	6039      	str	r1, [r7, #0]
  uint32_t position = 0x00u;
 8000a86:	2300      	movs	r3, #0
 8000a88:	617b      	str	r3, [r7, #20]
  assert_param(IS_GPIO_PIN(GPIO_Init->Pin));
  assert_param(IS_GPIO_MODE(GPIO_Init->Mode));
  assert_param(IS_GPIO_PULL(GPIO_Init->Pull));

  /* Configure the port pins */
  while (((GPIO_Init->Pin) >> position) != 0x00u)
 8000a8a:	e149      	b.n	8000d20 <HAL_GPIO_Init+0x2a4>
  {
    /* Get current io position */
    iocurrent = (GPIO_Init->Pin) & (1uL << position);
 8000a8c:	683b      	ldr	r3, [r7, #0]
 8000a8e:	681b      	ldr	r3, [r3, #0]
 8000a90:	2101      	movs	r1, #1
 8000a92:	697a      	ldr	r2, [r7, #20]
 8000a94:	4091      	lsls	r1, r2
 8000a96:	000a      	movs	r2, r1
 8000a98:	4013      	ands	r3, r2
 8000a9a:	60fb      	str	r3, [r7, #12]

    if (iocurrent != 0x00u)
 8000a9c:	68fb      	ldr	r3, [r7, #12]
 8000a9e:	2b00      	cmp	r3, #0
 8000aa0:	d100      	bne.n	8000aa4 <HAL_GPIO_Init+0x28>
 8000aa2:	e13a      	b.n	8000d1a <HAL_GPIO_Init+0x29e>
    {
      /*--------------------- GPIO Mode Configuration ------------------------*/
      /* In case of Output or Alternate function mode selection */
      if((GPIO_Init->Mode == GPIO_MODE_OUTPUT_PP) || (GPIO_Init->Mode == GPIO_MODE_AF_PP) ||
 8000aa4:	683b      	ldr	r3, [r7, #0]
 8000aa6:	685b      	ldr	r3, [r3, #4]
 8000aa8:	2b01      	cmp	r3, #1
 8000aaa:	d00b      	beq.n	8000ac4 <HAL_GPIO_Init+0x48>
 8000aac:	683b      	ldr	r3, [r7, #0]
 8000aae:	685b      	ldr	r3, [r3, #4]
 8000ab0:	2b02      	cmp	r3, #2
 8000ab2:	d007      	beq.n	8000ac4 <HAL_GPIO_Init+0x48>
         (GPIO_Init->Mode == GPIO_MODE_OUTPUT_OD) || (GPIO_Init->Mode == GPIO_MODE_AF_OD))
 8000ab4:	683b      	ldr	r3, [r7, #0]
 8000ab6:	685b      	ldr	r3, [r3, #4]
      if((GPIO_Init->Mode == GPIO_MODE_OUTPUT_PP) || (GPIO_Init->Mode == GPIO_MODE_AF_PP) ||
 8000ab8:	2b11      	cmp	r3, #17
 8000aba:	d003      	beq.n	8000ac4 <HAL_GPIO_Init+0x48>
         (GPIO_Init->Mode == GPIO_MODE_OUTPUT_OD) || (GPIO_Init->Mode == GPIO_MODE_AF_OD))
 8000abc:	683b      	ldr	r3, [r7, #0]
 8000abe:	685b      	ldr	r3, [r3, #4]
 8000ac0:	2b12      	cmp	r3, #18
 8000ac2:	d130      	bne.n	8000b26 <HAL_GPIO_Init+0xaa>
      {
        /* Check the Speed parameter */
        assert_param(IS_GPIO_SPEED(GPIO_Init->Speed));
        /* Configure the IO Speed */
        temp = GPIOx->OSPEEDR;
 8000ac4:	687b      	ldr	r3, [r7, #4]
 8000ac6:	689b      	ldr	r3, [r3, #8]
 8000ac8:	613b      	str	r3, [r7, #16]
        temp &= ~(GPIO_OSPEEDER_OSPEEDR0 << (position * 2u));
 8000aca:	697b      	ldr	r3, [r7, #20]
 8000acc:	005b      	lsls	r3, r3, #1
 8000ace:	2203      	movs	r2, #3
 8000ad0:	409a      	lsls	r2, r3
 8000ad2:	0013      	movs	r3, r2
 8000ad4:	43da      	mvns	r2, r3
 8000ad6:	693b      	ldr	r3, [r7, #16]
 8000ad8:	4013      	ands	r3, r2
 8000ada:	613b      	str	r3, [r7, #16]
        temp |= (GPIO_Init->Speed << (position * 2u));
 8000adc:	683b      	ldr	r3, [r7, #0]
 8000ade:	68da      	ldr	r2, [r3, #12]
 8000ae0:	697b      	ldr	r3, [r7, #20]
 8000ae2:	005b      	lsls	r3, r3, #1
 8000ae4:	409a      	lsls	r2, r3
 8000ae6:	0013      	movs	r3, r2
 8000ae8:	693a      	ldr	r2, [r7, #16]
 8000aea:	4313      	orrs	r3, r2
 8000aec:	613b      	str	r3, [r7, #16]
        GPIOx->OSPEEDR = temp;
 8000aee:	687b      	ldr	r3, [r7, #4]
 8000af0:	693a      	ldr	r2, [r7, #16]
 8000af2:	609a      	str	r2, [r3, #8]

        /* Configure the IO Output Type */
        temp = GPIOx->OTYPER;
 8000af4:	687b      	ldr	r3, [r7, #4]
 8000af6:	685b      	ldr	r3, [r3, #4]
 8000af8:	613b      	str	r3, [r7, #16]
        temp &= ~(GPIO_OTYPER_OT_0 << position) ;
 8000afa:	2201      	movs	r2, #1
 8000afc:	697b      	ldr	r3, [r7, #20]
 8000afe:	409a      	lsls	r2, r3
 8000b00:	0013      	movs	r3, r2
 8000b02:	43da      	mvns	r2, r3
 8000b04:	693b      	ldr	r3, [r7, #16]
 8000b06:	4013      	ands	r3, r2
 8000b08:	613b      	str	r3, [r7, #16]
        temp |= (((GPIO_Init->Mode & GPIO_OUTPUT_TYPE) >> 4u) << position);
 8000b0a:	683b      	ldr	r3, [r7, #0]
 8000b0c:	685b      	ldr	r3, [r3, #4]
 8000b0e:	091b      	lsrs	r3, r3, #4
 8000b10:	2201      	movs	r2, #1
 8000b12:	401a      	ands	r2, r3
 8000b14:	697b      	ldr	r3, [r7, #20]
 8000b16:	409a      	lsls	r2, r3
 8000b18:	0013      	movs	r3, r2
 8000b1a:	693a      	ldr	r2, [r7, #16]
 8000b1c:	4313      	orrs	r3, r2
 8000b1e:	613b      	str	r3, [r7, #16]
        GPIOx->OTYPER = temp;
 8000b20:	687b      	ldr	r3, [r7, #4]
 8000b22:	693a      	ldr	r2, [r7, #16]
 8000b24:	605a      	str	r2, [r3, #4]
      }

      /* Activate the Pull-up or Pull down resistor for the current IO */
      temp = GPIOx->PUPDR;
 8000b26:	687b      	ldr	r3, [r7, #4]
 8000b28:	68db      	ldr	r3, [r3, #12]
 8000b2a:	613b      	str	r3, [r7, #16]
      temp &= ~(GPIO_PUPDR_PUPDR0 << (position * 2u));
 8000b2c:	697b      	ldr	r3, [r7, #20]
 8000b2e:	005b      	lsls	r3, r3, #1
 8000b30:	2203      	movs	r2, #3
 8000b32:	409a      	lsls	r2, r3
 8000b34:	0013      	movs	r3, r2
 8000b36:	43da      	mvns	r2, r3
 8000b38:	693b      	ldr	r3, [r7, #16]
 8000b3a:	4013      	ands	r3, r2
 8000b3c:	613b      	str	r3, [r7, #16]
      temp |= ((GPIO_Init->Pull) << (position * 2u));
 8000b3e:	683b      	ldr	r3, [r7, #0]
 8000b40:	689a      	ldr	r2, [r3, #8]
 8000b42:	697b      	ldr	r3, [r7, #20]
 8000b44:	005b      	lsls	r3, r3, #1
 8000b46:	409a      	lsls	r2, r3
 8000b48:	0013      	movs	r3, r2
 8000b4a:	693a      	ldr	r2, [r7, #16]
 8000b4c:	4313      	orrs	r3, r2
 8000b4e:	613b      	str	r3, [r7, #16]
      GPIOx->PUPDR = temp;
 8000b50:	687b      	ldr	r3, [r7, #4]
 8000b52:	693a      	ldr	r2, [r7, #16]
 8000b54:	60da      	str	r2, [r3, #12]

      /* In case of Alternate function mode selection */
      if((GPIO_Init->Mode == GPIO_MODE_AF_PP) || (GPIO_Init->Mode == GPIO_MODE_AF_OD))
 8000b56:	683b      	ldr	r3, [r7, #0]
 8000b58:	685b      	ldr	r3, [r3, #4]
 8000b5a:	2b02      	cmp	r3, #2
 8000b5c:	d003      	beq.n	8000b66 <HAL_GPIO_Init+0xea>
 8000b5e:	683b      	ldr	r3, [r7, #0]
 8000b60:	685b      	ldr	r3, [r3, #4]
 8000b62:	2b12      	cmp	r3, #18
 8000b64:	d123      	bne.n	8000bae <HAL_GPIO_Init+0x132>
        /* Check the Alternate function parameters */
        assert_param(IS_GPIO_AF_INSTANCE(GPIOx));
        assert_param(IS_GPIO_AF(GPIO_Init->Alternate));

        /* Configure Alternate function mapped with the current IO */
        temp = GPIOx->AFR[position >> 3u];
 8000b66:	697b      	ldr	r3, [r7, #20]
 8000b68:	08da      	lsrs	r2, r3, #3
 8000b6a:	687b      	ldr	r3, [r7, #4]
 8000b6c:	3208      	adds	r2, #8
 8000b6e:	0092      	lsls	r2, r2, #2
 8000b70:	58d3      	ldr	r3, [r2, r3]
 8000b72:	613b      	str	r3, [r7, #16]
        temp &= ~(0xFu << ((position & 0x07u) * 4u));
 8000b74:	697b      	ldr	r3, [r7, #20]
 8000b76:	2207      	movs	r2, #7
 8000b78:	4013      	ands	r3, r2
 8000b7a:	009b      	lsls	r3, r3, #2
 8000b7c:	220f      	movs	r2, #15
 8000b7e:	409a      	lsls	r2, r3
 8000b80:	0013      	movs	r3, r2
 8000b82:	43da      	mvns	r2, r3
 8000b84:	693b      	ldr	r3, [r7, #16]
 8000b86:	4013      	ands	r3, r2
 8000b88:	613b      	str	r3, [r7, #16]
        temp |= ((GPIO_Init->Alternate) << ((position & 0x07u) * 4u));
 8000b8a:	683b      	ldr	r3, [r7, #0]
 8000b8c:	691a      	ldr	r2, [r3, #16]
 8000b8e:	697b      	ldr	r3, [r7, #20]
 8000b90:	2107      	movs	r1, #7
 8000b92:	400b      	ands	r3, r1
 8000b94:	009b      	lsls	r3, r3, #2
 8000b96:	409a      	lsls	r2, r3
 8000b98:	0013      	movs	r3, r2
 8000b9a:	693a      	ldr	r2, [r7, #16]
 8000b9c:	4313      	orrs	r3, r2
 8000b9e:	613b      	str	r3, [r7, #16]
        GPIOx->AFR[position >> 3u] = temp;
 8000ba0:	697b      	ldr	r3, [r7, #20]
 8000ba2:	08da      	lsrs	r2, r3, #3
 8000ba4:	687b      	ldr	r3, [r7, #4]
 8000ba6:	3208      	adds	r2, #8
 8000ba8:	0092      	lsls	r2, r2, #2
 8000baa:	6939      	ldr	r1, [r7, #16]
 8000bac:	50d1      	str	r1, [r2, r3]
      }

      /* Configure IO Direction mode (Input, Output, Alternate or Analog) */
      temp = GPIOx->MODER;
 8000bae:	687b      	ldr	r3, [r7, #4]
 8000bb0:	681b      	ldr	r3, [r3, #0]
 8000bb2:	613b      	str	r3, [r7, #16]
      temp &= ~(GPIO_MODER_MODER0 << (position * 2u));
 8000bb4:	697b      	ldr	r3, [r7, #20]
 8000bb6:	005b      	lsls	r3, r3, #1
 8000bb8:	2203      	movs	r2, #3
 8000bba:	409a      	lsls	r2, r3
 8000bbc:	0013      	movs	r3, r2
 8000bbe:	43da      	mvns	r2, r3
 8000bc0:	693b      	ldr	r3, [r7, #16]
 8000bc2:	4013      	ands	r3, r2
 8000bc4:	613b      	str	r3, [r7, #16]
      temp |= ((GPIO_Init->Mode & GPIO_MODE) << (position * 2u));
 8000bc6:	683b      	ldr	r3, [r7, #0]
 8000bc8:	685b      	ldr	r3, [r3, #4]
 8000bca:	2203      	movs	r2, #3
 8000bcc:	401a      	ands	r2, r3
 8000bce:	697b      	ldr	r3, [r7, #20]
 8000bd0:	005b      	lsls	r3, r3, #1
 8000bd2:	409a      	lsls	r2, r3
 8000bd4:	0013      	movs	r3, r2
 8000bd6:	693a      	ldr	r2, [r7, #16]
 8000bd8:	4313      	orrs	r3, r2
 8000bda:	613b      	str	r3, [r7, #16]
      GPIOx->MODER = temp;
 8000bdc:	687b      	ldr	r3, [r7, #4]
 8000bde:	693a      	ldr	r2, [r7, #16]
 8000be0:	601a      	str	r2, [r3, #0]

      /*--------------------- EXTI Mode Configuration ------------------------*/
      /* Configure the External Interrupt or event for the current IO */
      if((GPIO_Init->Mode & EXTI_MODE) == EXTI_MODE)
 8000be2:	683b      	ldr	r3, [r7, #0]
 8000be4:	685a      	ldr	r2, [r3, #4]
 8000be6:	2380      	movs	r3, #128	; 0x80
 8000be8:	055b      	lsls	r3, r3, #21
 8000bea:	4013      	ands	r3, r2
 8000bec:	d100      	bne.n	8000bf0 <HAL_GPIO_Init+0x174>
 8000bee:	e094      	b.n	8000d1a <HAL_GPIO_Init+0x29e>
      {
        /* Enable SYSCFG Clock */
        __HAL_RCC_SYSCFG_CLK_ENABLE();
 8000bf0:	4b51      	ldr	r3, [pc, #324]	; (8000d38 <HAL_GPIO_Init+0x2bc>)
 8000bf2:	699a      	ldr	r2, [r3, #24]
 8000bf4:	4b50      	ldr	r3, [pc, #320]	; (8000d38 <HAL_GPIO_Init+0x2bc>)
 8000bf6:	2101      	movs	r1, #1
 8000bf8:	430a      	orrs	r2, r1
 8000bfa:	619a      	str	r2, [r3, #24]
 8000bfc:	4b4e      	ldr	r3, [pc, #312]	; (8000d38 <HAL_GPIO_Init+0x2bc>)
 8000bfe:	699b      	ldr	r3, [r3, #24]
 8000c00:	2201      	movs	r2, #1
 8000c02:	4013      	ands	r3, r2
 8000c04:	60bb      	str	r3, [r7, #8]
 8000c06:	68bb      	ldr	r3, [r7, #8]

        temp = SYSCFG->EXTICR[position >> 2u];
 8000c08:	4a4c      	ldr	r2, [pc, #304]	; (8000d3c <HAL_GPIO_Init+0x2c0>)
 8000c0a:	697b      	ldr	r3, [r7, #20]
 8000c0c:	089b      	lsrs	r3, r3, #2
 8000c0e:	3302      	adds	r3, #2
 8000c10:	009b      	lsls	r3, r3, #2
 8000c12:	589b      	ldr	r3, [r3, r2]
 8000c14:	613b      	str	r3, [r7, #16]
        temp &= ~(0x0FuL << (4u * (position & 0x03u)));
 8000c16:	697b      	ldr	r3, [r7, #20]
 8000c18:	2203      	movs	r2, #3
 8000c1a:	4013      	ands	r3, r2
 8000c1c:	009b      	lsls	r3, r3, #2
 8000c1e:	220f      	movs	r2, #15
 8000c20:	409a      	lsls	r2, r3
 8000c22:	0013      	movs	r3, r2
 8000c24:	43da      	mvns	r2, r3
 8000c26:	693b      	ldr	r3, [r7, #16]
 8000c28:	4013      	ands	r3, r2
 8000c2a:	613b      	str	r3, [r7, #16]
        temp |= (GPIO_GET_INDEX(GPIOx) << (4u * (position & 0x03u)));
 8000c2c:	687a      	ldr	r2, [r7, #4]
 8000c2e:	2390      	movs	r3, #144	; 0x90
 8000c30:	05db      	lsls	r3, r3, #23
 8000c32:	429a      	cmp	r2, r3
 8000c34:	d00d      	beq.n	8000c52 <HAL_GPIO_Init+0x1d6>
 8000c36:	687b      	ldr	r3, [r7, #4]
 8000c38:	4a41      	ldr	r2, [pc, #260]	; (8000d40 <HAL_GPIO_Init+0x2c4>)
 8000c3a:	4293      	cmp	r3, r2
 8000c3c:	d007      	beq.n	8000c4e <HAL_GPIO_Init+0x1d2>
 8000c3e:	687b      	ldr	r3, [r7, #4]
 8000c40:	4a40      	ldr	r2, [pc, #256]	; (8000d44 <HAL_GPIO_Init+0x2c8>)
 8000c42:	4293      	cmp	r3, r2
 8000c44:	d101      	bne.n	8000c4a <HAL_GPIO_Init+0x1ce>
 8000c46:	2302      	movs	r3, #2
 8000c48:	e004      	b.n	8000c54 <HAL_GPIO_Init+0x1d8>
 8000c4a:	2305      	movs	r3, #5
 8000c4c:	e002      	b.n	8000c54 <HAL_GPIO_Init+0x1d8>
 8000c4e:	2301      	movs	r3, #1
 8000c50:	e000      	b.n	8000c54 <HAL_GPIO_Init+0x1d8>
 8000c52:	2300      	movs	r3, #0
 8000c54:	697a      	ldr	r2, [r7, #20]
 8000c56:	2103      	movs	r1, #3
 8000c58:	400a      	ands	r2, r1
 8000c5a:	0092      	lsls	r2, r2, #2
 8000c5c:	4093      	lsls	r3, r2
 8000c5e:	693a      	ldr	r2, [r7, #16]
 8000c60:	4313      	orrs	r3, r2
 8000c62:	613b      	str	r3, [r7, #16]
        SYSCFG->EXTICR[position >> 2u] = temp;
 8000c64:	4935      	ldr	r1, [pc, #212]	; (8000d3c <HAL_GPIO_Init+0x2c0>)
 8000c66:	697b      	ldr	r3, [r7, #20]
 8000c68:	089b      	lsrs	r3, r3, #2
 8000c6a:	3302      	adds	r3, #2
 8000c6c:	009b      	lsls	r3, r3, #2
 8000c6e:	693a      	ldr	r2, [r7, #16]
 8000c70:	505a      	str	r2, [r3, r1]

        /* Clear EXTI line configuration */
        temp = EXTI->IMR;
 8000c72:	4b35      	ldr	r3, [pc, #212]	; (8000d48 <HAL_GPIO_Init+0x2cc>)
 8000c74:	681b      	ldr	r3, [r3, #0]
 8000c76:	613b      	str	r3, [r7, #16]
        temp &= ~(iocurrent);
 8000c78:	68fb      	ldr	r3, [r7, #12]
 8000c7a:	43da      	mvns	r2, r3
 8000c7c:	693b      	ldr	r3, [r7, #16]
 8000c7e:	4013      	ands	r3, r2
 8000c80:	613b      	str	r3, [r7, #16]
        if((GPIO_Init->Mode & GPIO_MODE_IT) == GPIO_MODE_IT)
 8000c82:	683b      	ldr	r3, [r7, #0]
 8000c84:	685a      	ldr	r2, [r3, #4]
 8000c86:	2380      	movs	r3, #128	; 0x80
 8000c88:	025b      	lsls	r3, r3, #9
 8000c8a:	4013      	ands	r3, r2
 8000c8c:	d003      	beq.n	8000c96 <HAL_GPIO_Init+0x21a>
        {
          temp |= iocurrent;
 8000c8e:	693a      	ldr	r2, [r7, #16]
 8000c90:	68fb      	ldr	r3, [r7, #12]
 8000c92:	4313      	orrs	r3, r2
 8000c94:	613b      	str	r3, [r7, #16]
        }
        EXTI->IMR = temp;
 8000c96:	4b2c      	ldr	r3, [pc, #176]	; (8000d48 <HAL_GPIO_Init+0x2cc>)
 8000c98:	693a      	ldr	r2, [r7, #16]
 8000c9a:	601a      	str	r2, [r3, #0]

        temp = EXTI->EMR;
 8000c9c:	4b2a      	ldr	r3, [pc, #168]	; (8000d48 <HAL_GPIO_Init+0x2cc>)
 8000c9e:	685b      	ldr	r3, [r3, #4]
 8000ca0:	613b      	str	r3, [r7, #16]
        temp &= ~(iocurrent);
 8000ca2:	68fb      	ldr	r3, [r7, #12]
 8000ca4:	43da      	mvns	r2, r3
 8000ca6:	693b      	ldr	r3, [r7, #16]
 8000ca8:	4013      	ands	r3, r2
 8000caa:	613b      	str	r3, [r7, #16]
        if((GPIO_Init->Mode & GPIO_MODE_EVT) == GPIO_MODE_EVT)
 8000cac:	683b      	ldr	r3, [r7, #0]
 8000cae:	685a      	ldr	r2, [r3, #4]
 8000cb0:	2380      	movs	r3, #128	; 0x80
 8000cb2:	029b      	lsls	r3, r3, #10
 8000cb4:	4013      	ands	r3, r2
 8000cb6:	d003      	beq.n	8000cc0 <HAL_GPIO_Init+0x244>
        {
          temp |= iocurrent;
 8000cb8:	693a      	ldr	r2, [r7, #16]
 8000cba:	68fb      	ldr	r3, [r7, #12]
 8000cbc:	4313      	orrs	r3, r2
 8000cbe:	613b      	str	r3, [r7, #16]
        }
        EXTI->EMR = temp;
 8000cc0:	4b21      	ldr	r3, [pc, #132]	; (8000d48 <HAL_GPIO_Init+0x2cc>)
 8000cc2:	693a      	ldr	r2, [r7, #16]
 8000cc4:	605a      	str	r2, [r3, #4]

        /* Clear Rising Falling edge configuration */
        temp = EXTI->RTSR;
 8000cc6:	4b20      	ldr	r3, [pc, #128]	; (8000d48 <HAL_GPIO_Init+0x2cc>)
 8000cc8:	689b      	ldr	r3, [r3, #8]
 8000cca:	613b      	str	r3, [r7, #16]
        temp &= ~(iocurrent);
 8000ccc:	68fb      	ldr	r3, [r7, #12]
 8000cce:	43da      	mvns	r2, r3
 8000cd0:	693b      	ldr	r3, [r7, #16]
 8000cd2:	4013      	ands	r3, r2
 8000cd4:	613b      	str	r3, [r7, #16]
        if((GPIO_Init->Mode & RISING_EDGE) == RISING_EDGE)
 8000cd6:	683b      	ldr	r3, [r7, #0]
 8000cd8:	685a      	ldr	r2, [r3, #4]
 8000cda:	2380      	movs	r3, #128	; 0x80
 8000cdc:	035b      	lsls	r3, r3, #13
 8000cde:	4013      	ands	r3, r2
 8000ce0:	d003      	beq.n	8000cea <HAL_GPIO_Init+0x26e>
        {
          temp |= iocurrent;
 8000ce2:	693a      	ldr	r2, [r7, #16]
 8000ce4:	68fb      	ldr	r3, [r7, #12]
 8000ce6:	4313      	orrs	r3, r2
 8000ce8:	613b      	str	r3, [r7, #16]
        }
        EXTI->RTSR = temp;
 8000cea:	4b17      	ldr	r3, [pc, #92]	; (8000d48 <HAL_GPIO_Init+0x2cc>)
 8000cec:	693a      	ldr	r2, [r7, #16]
 8000cee:	609a      	str	r2, [r3, #8]

        temp = EXTI->FTSR;
 8000cf0:	4b15      	ldr	r3, [pc, #84]	; (8000d48 <HAL_GPIO_Init+0x2cc>)
 8000cf2:	68db      	ldr	r3, [r3, #12]
 8000cf4:	613b      	str	r3, [r7, #16]
        temp &= ~(iocurrent);
 8000cf6:	68fb      	ldr	r3, [r7, #12]
 8000cf8:	43da      	mvns	r2, r3
 8000cfa:	693b      	ldr	r3, [r7, #16]
 8000cfc:	4013      	ands	r3, r2
 8000cfe:	613b      	str	r3, [r7, #16]
        if((GPIO_Init->Mode & FALLING_EDGE) == FALLING_EDGE)
 8000d00:	683b      	ldr	r3, [r7, #0]
 8000d02:	685a      	ldr	r2, [r3, #4]
 8000d04:	2380      	movs	r3, #128	; 0x80
 8000d06:	039b      	lsls	r3, r3, #14
 8000d08:	4013      	ands	r3, r2
 8000d0a:	d003      	beq.n	8000d14 <HAL_GPIO_Init+0x298>
        {
          temp |= iocurrent;
 8000d0c:	693a      	ldr	r2, [r7, #16]
 8000d0e:	68fb      	ldr	r3, [r7, #12]
 8000d10:	4313      	orrs	r3, r2
 8000d12:	613b      	str	r3, [r7, #16]
        }
        EXTI->FTSR = temp;
 8000d14:	4b0c      	ldr	r3, [pc, #48]	; (8000d48 <HAL_GPIO_Init+0x2cc>)
 8000d16:	693a      	ldr	r2, [r7, #16]
 8000d18:	60da      	str	r2, [r3, #12]
      }
    }

    position++;
 8000d1a:	697b      	ldr	r3, [r7, #20]
 8000d1c:	3301      	adds	r3, #1
 8000d1e:	617b      	str	r3, [r7, #20]
  while (((GPIO_Init->Pin) >> position) != 0x00u)
 8000d20:	683b      	ldr	r3, [r7, #0]
 8000d22:	681a      	ldr	r2, [r3, #0]
 8000d24:	697b      	ldr	r3, [r7, #20]
 8000d26:	40da      	lsrs	r2, r3
 8000d28:	1e13      	subs	r3, r2, #0
 8000d2a:	d000      	beq.n	8000d2e <HAL_GPIO_Init+0x2b2>
 8000d2c:	e6ae      	b.n	8000a8c <HAL_GPIO_Init+0x10>
  } 
}
 8000d2e:	46c0      	nop			; (mov r8, r8)
 8000d30:	46bd      	mov	sp, r7
 8000d32:	b006      	add	sp, #24
 8000d34:	bd80      	pop	{r7, pc}
 8000d36:	46c0      	nop			; (mov r8, r8)
 8000d38:	40021000 	.word	0x40021000
 8000d3c:	40010000 	.word	0x40010000
 8000d40:	48000400 	.word	0x48000400
 8000d44:	48000800 	.word	0x48000800
 8000d48:	40010400 	.word	0x40010400

08000d4c <HAL_GPIO_ReadPin>:
  * @param  GPIO_Pin specifies the port bit to read.
  *         This parameter can be GPIO_PIN_x where x can be (0..15).
  * @retval The input port pin value.
  */
GPIO_PinState HAL_GPIO_ReadPin(GPIO_TypeDef* GPIOx, uint16_t GPIO_Pin)
{
 8000d4c:	b580      	push	{r7, lr}
 8000d4e:	b084      	sub	sp, #16
 8000d50:	af00      	add	r7, sp, #0
 8000d52:	6078      	str	r0, [r7, #4]
 8000d54:	000a      	movs	r2, r1
 8000d56:	1cbb      	adds	r3, r7, #2
 8000d58:	801a      	strh	r2, [r3, #0]
  GPIO_PinState bitstatus;

  /* Check the parameters */
  assert_param(IS_GPIO_PIN(GPIO_Pin));

  if ((GPIOx->IDR & GPIO_Pin) != (uint32_t)GPIO_PIN_RESET)
 8000d5a:	687b      	ldr	r3, [r7, #4]
 8000d5c:	691b      	ldr	r3, [r3, #16]
 8000d5e:	1cba      	adds	r2, r7, #2
 8000d60:	8812      	ldrh	r2, [r2, #0]
 8000d62:	4013      	ands	r3, r2
 8000d64:	d004      	beq.n	8000d70 <HAL_GPIO_ReadPin+0x24>
  {
    bitstatus = GPIO_PIN_SET;
 8000d66:	230f      	movs	r3, #15
 8000d68:	18fb      	adds	r3, r7, r3
 8000d6a:	2201      	movs	r2, #1
 8000d6c:	701a      	strb	r2, [r3, #0]
 8000d6e:	e003      	b.n	8000d78 <HAL_GPIO_ReadPin+0x2c>
  }
  else
  {
    bitstatus = GPIO_PIN_RESET;
 8000d70:	230f      	movs	r3, #15
 8000d72:	18fb      	adds	r3, r7, r3
 8000d74:	2200      	movs	r2, #0
 8000d76:	701a      	strb	r2, [r3, #0]
  }
  return bitstatus;
 8000d78:	230f      	movs	r3, #15
 8000d7a:	18fb      	adds	r3, r7, r3
 8000d7c:	781b      	ldrb	r3, [r3, #0]
  }
 8000d7e:	0018      	movs	r0, r3
 8000d80:	46bd      	mov	sp, r7
 8000d82:	b004      	add	sp, #16
 8000d84:	bd80      	pop	{r7, pc}

08000d86 <HAL_GPIO_WritePin>:
  *            @arg GPIO_PIN_RESET: to clear the port pin
  *            @arg GPIO_PIN_SET: to set the port pin
  * @retval None
  */
void HAL_GPIO_WritePin(GPIO_TypeDef* GPIOx, uint16_t GPIO_Pin, GPIO_PinState PinState)
{
 8000d86:	b580      	push	{r7, lr}
 8000d88:	b082      	sub	sp, #8
 8000d8a:	af00      	add	r7, sp, #0
 8000d8c:	6078      	str	r0, [r7, #4]
 8000d8e:	0008      	movs	r0, r1
 8000d90:	0011      	movs	r1, r2
 8000d92:	1cbb      	adds	r3, r7, #2
 8000d94:	1c02      	adds	r2, r0, #0
 8000d96:	801a      	strh	r2, [r3, #0]
 8000d98:	1c7b      	adds	r3, r7, #1
 8000d9a:	1c0a      	adds	r2, r1, #0
 8000d9c:	701a      	strb	r2, [r3, #0]
  /* Check the parameters */
  assert_param(IS_GPIO_PIN(GPIO_Pin));
  assert_param(IS_GPIO_PIN_ACTION(PinState));

  if (PinState != GPIO_PIN_RESET)
 8000d9e:	1c7b      	adds	r3, r7, #1
 8000da0:	781b      	ldrb	r3, [r3, #0]
 8000da2:	2b00      	cmp	r3, #0
 8000da4:	d004      	beq.n	8000db0 <HAL_GPIO_WritePin+0x2a>
  {
    GPIOx->BSRR = (uint32_t)GPIO_Pin;
 8000da6:	1cbb      	adds	r3, r7, #2
 8000da8:	881a      	ldrh	r2, [r3, #0]
 8000daa:	687b      	ldr	r3, [r7, #4]
 8000dac:	619a      	str	r2, [r3, #24]
  }
  else
  {
    GPIOx->BRR = (uint32_t)GPIO_Pin;
  }
}
 8000dae:	e003      	b.n	8000db8 <HAL_GPIO_WritePin+0x32>
    GPIOx->BRR = (uint32_t)GPIO_Pin;
 8000db0:	1cbb      	adds	r3, r7, #2
 8000db2:	881a      	ldrh	r2, [r3, #0]
 8000db4:	687b      	ldr	r3, [r7, #4]
 8000db6:	629a      	str	r2, [r3, #40]	; 0x28
}
 8000db8:	46c0      	nop			; (mov r8, r8)
 8000dba:	46bd      	mov	sp, r7
 8000dbc:	b002      	add	sp, #8
 8000dbe:	bd80      	pop	{r7, pc}

08000dc0 <HAL_RCC_OscConfig>:
  *         supported by this macro. User should request a transition to HSE Off
  *         first and then HSE On or HSE Bypass.
  * @retval HAL status
  */
HAL_StatusTypeDef HAL_RCC_OscConfig(RCC_OscInitTypeDef  *RCC_OscInitStruct)
{
 8000dc0:	b580      	push	{r7, lr}
 8000dc2:	b088      	sub	sp, #32
 8000dc4:	af00      	add	r7, sp, #0
 8000dc6:	6078      	str	r0, [r7, #4]
  uint32_t tickstart;
  uint32_t pll_config;
  uint32_t pll_config2;

  /* Check Null pointer */
  if(RCC_OscInitStruct == NULL)
 8000dc8:	687b      	ldr	r3, [r7, #4]
 8000dca:	2b00      	cmp	r3, #0
 8000dcc:	d102      	bne.n	8000dd4 <HAL_RCC_OscConfig+0x14>
  {
    return HAL_ERROR;
 8000dce:	2301      	movs	r3, #1
 8000dd0:	f000 fb76 	bl	80014c0 <HAL_RCC_OscConfig+0x700>

  /* Check the parameters */
  assert_param(IS_RCC_OSCILLATORTYPE(RCC_OscInitStruct->OscillatorType));

  /*------------------------------- HSE Configuration ------------------------*/ 
  if(((RCC_OscInitStruct->OscillatorType) & RCC_OSCILLATORTYPE_HSE) == RCC_OSCILLATORTYPE_HSE)
 8000dd4:	687b      	ldr	r3, [r7, #4]
 8000dd6:	681b      	ldr	r3, [r3, #0]
 8000dd8:	2201      	movs	r2, #1
 8000dda:	4013      	ands	r3, r2
 8000ddc:	d100      	bne.n	8000de0 <HAL_RCC_OscConfig+0x20>
 8000dde:	e08e      	b.n	8000efe <HAL_RCC_OscConfig+0x13e>
  {
    /* Check the parameters */
    assert_param(IS_RCC_HSE(RCC_OscInitStruct->HSEState));

    /* When the HSE is used as system clock or clock source for PLL in these cases it is not allowed to be disabled */
    if((__HAL_RCC_GET_SYSCLK_SOURCE() == RCC_SYSCLKSOURCE_STATUS_HSE) 
 8000de0:	4bc5      	ldr	r3, [pc, #788]	; (80010f8 <HAL_RCC_OscConfig+0x338>)
 8000de2:	685b      	ldr	r3, [r3, #4]
 8000de4:	220c      	movs	r2, #12
 8000de6:	4013      	ands	r3, r2
 8000de8:	2b04      	cmp	r3, #4
 8000dea:	d00e      	beq.n	8000e0a <HAL_RCC_OscConfig+0x4a>
       || ((__HAL_RCC_GET_SYSCLK_SOURCE() == RCC_SYSCLKSOURCE_STATUS_PLLCLK) && (__HAL_RCC_GET_PLL_OSCSOURCE() == RCC_PLLSOURCE_HSE)))
 8000dec:	4bc2      	ldr	r3, [pc, #776]	; (80010f8 <HAL_RCC_OscConfig+0x338>)
 8000dee:	685b      	ldr	r3, [r3, #4]
 8000df0:	220c      	movs	r2, #12
 8000df2:	4013      	ands	r3, r2
 8000df4:	2b08      	cmp	r3, #8
 8000df6:	d117      	bne.n	8000e28 <HAL_RCC_OscConfig+0x68>
 8000df8:	4bbf      	ldr	r3, [pc, #764]	; (80010f8 <HAL_RCC_OscConfig+0x338>)
 8000dfa:	685a      	ldr	r2, [r3, #4]
 8000dfc:	23c0      	movs	r3, #192	; 0xc0
 8000dfe:	025b      	lsls	r3, r3, #9
 8000e00:	401a      	ands	r2, r3
 8000e02:	2380      	movs	r3, #128	; 0x80
 8000e04:	025b      	lsls	r3, r3, #9
 8000e06:	429a      	cmp	r2, r3
 8000e08:	d10e      	bne.n	8000e28 <HAL_RCC_OscConfig+0x68>
    {
      if((__HAL_RCC_GET_FLAG(RCC_FLAG_HSERDY) != RESET) && (RCC_OscInitStruct->HSEState == RCC_HSE_OFF))
 8000e0a:	4bbb      	ldr	r3, [pc, #748]	; (80010f8 <HAL_RCC_OscConfig+0x338>)
 8000e0c:	681a      	ldr	r2, [r3, #0]
 8000e0e:	2380      	movs	r3, #128	; 0x80
 8000e10:	029b      	lsls	r3, r3, #10
 8000e12:	4013      	ands	r3, r2
 8000e14:	d100      	bne.n	8000e18 <HAL_RCC_OscConfig+0x58>
 8000e16:	e071      	b.n	8000efc <HAL_RCC_OscConfig+0x13c>
 8000e18:	687b      	ldr	r3, [r7, #4]
 8000e1a:	685b      	ldr	r3, [r3, #4]
 8000e1c:	2b00      	cmp	r3, #0
 8000e1e:	d000      	beq.n	8000e22 <HAL_RCC_OscConfig+0x62>
 8000e20:	e06c      	b.n	8000efc <HAL_RCC_OscConfig+0x13c>
      {
        return HAL_ERROR;
 8000e22:	2301      	movs	r3, #1
 8000e24:	f000 fb4c 	bl	80014c0 <HAL_RCC_OscConfig+0x700>
      }
    }
    else
    {
      /* Set the new HSE configuration ---------------------------------------*/
      __HAL_RCC_HSE_CONFIG(RCC_OscInitStruct->HSEState);
 8000e28:	687b      	ldr	r3, [r7, #4]
 8000e2a:	685b      	ldr	r3, [r3, #4]
 8000e2c:	2b01      	cmp	r3, #1
 8000e2e:	d107      	bne.n	8000e40 <HAL_RCC_OscConfig+0x80>
 8000e30:	4bb1      	ldr	r3, [pc, #708]	; (80010f8 <HAL_RCC_OscConfig+0x338>)
 8000e32:	681a      	ldr	r2, [r3, #0]
 8000e34:	4bb0      	ldr	r3, [pc, #704]	; (80010f8 <HAL_RCC_OscConfig+0x338>)
 8000e36:	2180      	movs	r1, #128	; 0x80
 8000e38:	0249      	lsls	r1, r1, #9
 8000e3a:	430a      	orrs	r2, r1
 8000e3c:	601a      	str	r2, [r3, #0]
 8000e3e:	e02f      	b.n	8000ea0 <HAL_RCC_OscConfig+0xe0>
 8000e40:	687b      	ldr	r3, [r7, #4]
 8000e42:	685b      	ldr	r3, [r3, #4]
 8000e44:	2b00      	cmp	r3, #0
 8000e46:	d10c      	bne.n	8000e62 <HAL_RCC_OscConfig+0xa2>
 8000e48:	4bab      	ldr	r3, [pc, #684]	; (80010f8 <HAL_RCC_OscConfig+0x338>)
 8000e4a:	681a      	ldr	r2, [r3, #0]
 8000e4c:	4baa      	ldr	r3, [pc, #680]	; (80010f8 <HAL_RCC_OscConfig+0x338>)
 8000e4e:	49ab      	ldr	r1, [pc, #684]	; (80010fc <HAL_RCC_OscConfig+0x33c>)
 8000e50:	400a      	ands	r2, r1
 8000e52:	601a      	str	r2, [r3, #0]
 8000e54:	4ba8      	ldr	r3, [pc, #672]	; (80010f8 <HAL_RCC_OscConfig+0x338>)
 8000e56:	681a      	ldr	r2, [r3, #0]
 8000e58:	4ba7      	ldr	r3, [pc, #668]	; (80010f8 <HAL_RCC_OscConfig+0x338>)
 8000e5a:	49a9      	ldr	r1, [pc, #676]	; (8001100 <HAL_RCC_OscConfig+0x340>)
 8000e5c:	400a      	ands	r2, r1
 8000e5e:	601a      	str	r2, [r3, #0]
 8000e60:	e01e      	b.n	8000ea0 <HAL_RCC_OscConfig+0xe0>
 8000e62:	687b      	ldr	r3, [r7, #4]
 8000e64:	685b      	ldr	r3, [r3, #4]
 8000e66:	2b05      	cmp	r3, #5
 8000e68:	d10e      	bne.n	8000e88 <HAL_RCC_OscConfig+0xc8>
 8000e6a:	4ba3      	ldr	r3, [pc, #652]	; (80010f8 <HAL_RCC_OscConfig+0x338>)
 8000e6c:	681a      	ldr	r2, [r3, #0]
 8000e6e:	4ba2      	ldr	r3, [pc, #648]	; (80010f8 <HAL_RCC_OscConfig+0x338>)
 8000e70:	2180      	movs	r1, #128	; 0x80
 8000e72:	02c9      	lsls	r1, r1, #11
 8000e74:	430a      	orrs	r2, r1
 8000e76:	601a      	str	r2, [r3, #0]
 8000e78:	4b9f      	ldr	r3, [pc, #636]	; (80010f8 <HAL_RCC_OscConfig+0x338>)
 8000e7a:	681a      	ldr	r2, [r3, #0]
 8000e7c:	4b9e      	ldr	r3, [pc, #632]	; (80010f8 <HAL_RCC_OscConfig+0x338>)
 8000e7e:	2180      	movs	r1, #128	; 0x80
 8000e80:	0249      	lsls	r1, r1, #9
 8000e82:	430a      	orrs	r2, r1
 8000e84:	601a      	str	r2, [r3, #0]
 8000e86:	e00b      	b.n	8000ea0 <HAL_RCC_OscConfig+0xe0>
 8000e88:	4b9b      	ldr	r3, [pc, #620]	; (80010f8 <HAL_RCC_OscConfig+0x338>)
 8000e8a:	681a      	ldr	r2, [r3, #0]
 8000e8c:	4b9a      	ldr	r3, [pc, #616]	; (80010f8 <HAL_RCC_OscConfig+0x338>)
 8000e8e:	499b      	ldr	r1, [pc, #620]	; (80010fc <HAL_RCC_OscConfig+0x33c>)
 8000e90:	400a      	ands	r2, r1
 8000e92:	601a      	str	r2, [r3, #0]
 8000e94:	4b98      	ldr	r3, [pc, #608]	; (80010f8 <HAL_RCC_OscConfig+0x338>)
 8000e96:	681a      	ldr	r2, [r3, #0]
 8000e98:	4b97      	ldr	r3, [pc, #604]	; (80010f8 <HAL_RCC_OscConfig+0x338>)
 8000e9a:	4999      	ldr	r1, [pc, #612]	; (8001100 <HAL_RCC_OscConfig+0x340>)
 8000e9c:	400a      	ands	r2, r1
 8000e9e:	601a      	str	r2, [r3, #0]
      

       /* Check the HSE State */
      if(RCC_OscInitStruct->HSEState != RCC_HSE_OFF)
 8000ea0:	687b      	ldr	r3, [r7, #4]
 8000ea2:	685b      	ldr	r3, [r3, #4]
 8000ea4:	2b00      	cmp	r3, #0
 8000ea6:	d014      	beq.n	8000ed2 <HAL_RCC_OscConfig+0x112>
      {
        /* Get Start Tick */
        tickstart = HAL_GetTick();
 8000ea8:	f7ff fd08 	bl	80008bc <HAL_GetTick>
 8000eac:	0003      	movs	r3, r0
 8000eae:	61bb      	str	r3, [r7, #24]
        
        /* Wait till HSE is ready */
        while(__HAL_RCC_GET_FLAG(RCC_FLAG_HSERDY) == RESET)
 8000eb0:	e008      	b.n	8000ec4 <HAL_RCC_OscConfig+0x104>
        {
          if((HAL_GetTick() - tickstart ) > HSE_TIMEOUT_VALUE)
 8000eb2:	f7ff fd03 	bl	80008bc <HAL_GetTick>
 8000eb6:	0002      	movs	r2, r0
 8000eb8:	69bb      	ldr	r3, [r7, #24]
 8000eba:	1ad3      	subs	r3, r2, r3
 8000ebc:	2b64      	cmp	r3, #100	; 0x64
 8000ebe:	d901      	bls.n	8000ec4 <HAL_RCC_OscConfig+0x104>
          {
            return HAL_TIMEOUT;
 8000ec0:	2303      	movs	r3, #3
 8000ec2:	e2fd      	b.n	80014c0 <HAL_RCC_OscConfig+0x700>
        while(__HAL_RCC_GET_FLAG(RCC_FLAG_HSERDY) == RESET)
 8000ec4:	4b8c      	ldr	r3, [pc, #560]	; (80010f8 <HAL_RCC_OscConfig+0x338>)
 8000ec6:	681a      	ldr	r2, [r3, #0]
 8000ec8:	2380      	movs	r3, #128	; 0x80
 8000eca:	029b      	lsls	r3, r3, #10
 8000ecc:	4013      	ands	r3, r2
 8000ece:	d0f0      	beq.n	8000eb2 <HAL_RCC_OscConfig+0xf2>
 8000ed0:	e015      	b.n	8000efe <HAL_RCC_OscConfig+0x13e>
        }
      }
      else
      {
        /* Get Start Tick */
        tickstart = HAL_GetTick();
 8000ed2:	f7ff fcf3 	bl	80008bc <HAL_GetTick>
 8000ed6:	0003      	movs	r3, r0
 8000ed8:	61bb      	str	r3, [r7, #24]
        
        /* Wait till HSE is disabled */
        while(__HAL_RCC_GET_FLAG(RCC_FLAG_HSERDY) != RESET)
 8000eda:	e008      	b.n	8000eee <HAL_RCC_OscConfig+0x12e>
        {
           if((HAL_GetTick() - tickstart ) > HSE_TIMEOUT_VALUE)
 8000edc:	f7ff fcee 	bl	80008bc <HAL_GetTick>
 8000ee0:	0002      	movs	r2, r0
 8000ee2:	69bb      	ldr	r3, [r7, #24]
 8000ee4:	1ad3      	subs	r3, r2, r3
 8000ee6:	2b64      	cmp	r3, #100	; 0x64
 8000ee8:	d901      	bls.n	8000eee <HAL_RCC_OscConfig+0x12e>
          {
            return HAL_TIMEOUT;
 8000eea:	2303      	movs	r3, #3
 8000eec:	e2e8      	b.n	80014c0 <HAL_RCC_OscConfig+0x700>
        while(__HAL_RCC_GET_FLAG(RCC_FLAG_HSERDY) != RESET)
 8000eee:	4b82      	ldr	r3, [pc, #520]	; (80010f8 <HAL_RCC_OscConfig+0x338>)
 8000ef0:	681a      	ldr	r2, [r3, #0]
 8000ef2:	2380      	movs	r3, #128	; 0x80
 8000ef4:	029b      	lsls	r3, r3, #10
 8000ef6:	4013      	ands	r3, r2
 8000ef8:	d1f0      	bne.n	8000edc <HAL_RCC_OscConfig+0x11c>
 8000efa:	e000      	b.n	8000efe <HAL_RCC_OscConfig+0x13e>
      if((__HAL_RCC_GET_FLAG(RCC_FLAG_HSERDY) != RESET) && (RCC_OscInitStruct->HSEState == RCC_HSE_OFF))
 8000efc:	46c0      	nop			; (mov r8, r8)
        }
      }
    }
  }
  /*----------------------------- HSI Configuration --------------------------*/ 
  if(((RCC_OscInitStruct->OscillatorType) & RCC_OSCILLATORTYPE_HSI) == RCC_OSCILLATORTYPE_HSI)
 8000efe:	687b      	ldr	r3, [r7, #4]
 8000f00:	681b      	ldr	r3, [r3, #0]
 8000f02:	2202      	movs	r2, #2
 8000f04:	4013      	ands	r3, r2
 8000f06:	d100      	bne.n	8000f0a <HAL_RCC_OscConfig+0x14a>
 8000f08:	e06c      	b.n	8000fe4 <HAL_RCC_OscConfig+0x224>
    /* Check the parameters */
    assert_param(IS_RCC_HSI(RCC_OscInitStruct->HSIState));
    assert_param(IS_RCC_CALIBRATION_VALUE(RCC_OscInitStruct->HSICalibrationValue));
    
    /* Check if HSI is used as system clock or as PLL source when PLL is selected as system clock */ 
    if((__HAL_RCC_GET_SYSCLK_SOURCE() == RCC_SYSCLKSOURCE_STATUS_HSI) 
 8000f0a:	4b7b      	ldr	r3, [pc, #492]	; (80010f8 <HAL_RCC_OscConfig+0x338>)
 8000f0c:	685b      	ldr	r3, [r3, #4]
 8000f0e:	220c      	movs	r2, #12
 8000f10:	4013      	ands	r3, r2
 8000f12:	d00e      	beq.n	8000f32 <HAL_RCC_OscConfig+0x172>
       || ((__HAL_RCC_GET_SYSCLK_SOURCE() == RCC_SYSCLKSOURCE_STATUS_PLLCLK) && (__HAL_RCC_GET_PLL_OSCSOURCE() == RCC_PLLSOURCE_HSI)))
 8000f14:	4b78      	ldr	r3, [pc, #480]	; (80010f8 <HAL_RCC_OscConfig+0x338>)
 8000f16:	685b      	ldr	r3, [r3, #4]
 8000f18:	220c      	movs	r2, #12
 8000f1a:	4013      	ands	r3, r2
 8000f1c:	2b08      	cmp	r3, #8
 8000f1e:	d11f      	bne.n	8000f60 <HAL_RCC_OscConfig+0x1a0>
 8000f20:	4b75      	ldr	r3, [pc, #468]	; (80010f8 <HAL_RCC_OscConfig+0x338>)
 8000f22:	685a      	ldr	r2, [r3, #4]
 8000f24:	23c0      	movs	r3, #192	; 0xc0
 8000f26:	025b      	lsls	r3, r3, #9
 8000f28:	401a      	ands	r2, r3
 8000f2a:	2380      	movs	r3, #128	; 0x80
 8000f2c:	021b      	lsls	r3, r3, #8
 8000f2e:	429a      	cmp	r2, r3
 8000f30:	d116      	bne.n	8000f60 <HAL_RCC_OscConfig+0x1a0>
    {
      /* When HSI is used as system clock it will not disabled */
      if((__HAL_RCC_GET_FLAG(RCC_FLAG_HSIRDY) != RESET) && (RCC_OscInitStruct->HSIState != RCC_HSI_ON))
 8000f32:	4b71      	ldr	r3, [pc, #452]	; (80010f8 <HAL_RCC_OscConfig+0x338>)
 8000f34:	681b      	ldr	r3, [r3, #0]
 8000f36:	2202      	movs	r2, #2
 8000f38:	4013      	ands	r3, r2
 8000f3a:	d005      	beq.n	8000f48 <HAL_RCC_OscConfig+0x188>
 8000f3c:	687b      	ldr	r3, [r7, #4]
 8000f3e:	68db      	ldr	r3, [r3, #12]
 8000f40:	2b01      	cmp	r3, #1
 8000f42:	d001      	beq.n	8000f48 <HAL_RCC_OscConfig+0x188>
      {
        return HAL_ERROR;
 8000f44:	2301      	movs	r3, #1
 8000f46:	e2bb      	b.n	80014c0 <HAL_RCC_OscConfig+0x700>
      }
      /* Otherwise, just the calibration is allowed */
      else
      {
        /* Adjusts the Internal High Speed oscillator (HSI) calibration value.*/
        __HAL_RCC_HSI_CALIBRATIONVALUE_ADJUST(RCC_OscInitStruct->HSICalibrationValue);
 8000f48:	4b6b      	ldr	r3, [pc, #428]	; (80010f8 <HAL_RCC_OscConfig+0x338>)
 8000f4a:	681b      	ldr	r3, [r3, #0]
 8000f4c:	22f8      	movs	r2, #248	; 0xf8
 8000f4e:	4393      	bics	r3, r2
 8000f50:	0019      	movs	r1, r3
 8000f52:	687b      	ldr	r3, [r7, #4]
 8000f54:	691b      	ldr	r3, [r3, #16]
 8000f56:	00da      	lsls	r2, r3, #3
 8000f58:	4b67      	ldr	r3, [pc, #412]	; (80010f8 <HAL_RCC_OscConfig+0x338>)
 8000f5a:	430a      	orrs	r2, r1
 8000f5c:	601a      	str	r2, [r3, #0]
      if((__HAL_RCC_GET_FLAG(RCC_FLAG_HSIRDY) != RESET) && (RCC_OscInitStruct->HSIState != RCC_HSI_ON))
 8000f5e:	e041      	b.n	8000fe4 <HAL_RCC_OscConfig+0x224>
      }
    }
    else
    {
      /* Check the HSI State */
      if(RCC_OscInitStruct->HSIState != RCC_HSI_OFF)
 8000f60:	687b      	ldr	r3, [r7, #4]
 8000f62:	68db      	ldr	r3, [r3, #12]
 8000f64:	2b00      	cmp	r3, #0
 8000f66:	d024      	beq.n	8000fb2 <HAL_RCC_OscConfig+0x1f2>
      {
       /* Enable the Internal High Speed oscillator (HSI). */
        __HAL_RCC_HSI_ENABLE();
 8000f68:	4b63      	ldr	r3, [pc, #396]	; (80010f8 <HAL_RCC_OscConfig+0x338>)
 8000f6a:	681a      	ldr	r2, [r3, #0]
 8000f6c:	4b62      	ldr	r3, [pc, #392]	; (80010f8 <HAL_RCC_OscConfig+0x338>)
 8000f6e:	2101      	movs	r1, #1
 8000f70:	430a      	orrs	r2, r1
 8000f72:	601a      	str	r2, [r3, #0]
        
        /* Get Start Tick */
        tickstart = HAL_GetTick();
 8000f74:	f7ff fca2 	bl	80008bc <HAL_GetTick>
 8000f78:	0003      	movs	r3, r0
 8000f7a:	61bb      	str	r3, [r7, #24]
        
        /* Wait till HSI is ready */
        while(__HAL_RCC_GET_FLAG(RCC_FLAG_HSIRDY) == RESET)
 8000f7c:	e008      	b.n	8000f90 <HAL_RCC_OscConfig+0x1d0>
        {
          if((HAL_GetTick() - tickstart ) > HSI_TIMEOUT_VALUE)
 8000f7e:	f7ff fc9d 	bl	80008bc <HAL_GetTick>
 8000f82:	0002      	movs	r2, r0
 8000f84:	69bb      	ldr	r3, [r7, #24]
 8000f86:	1ad3      	subs	r3, r2, r3
 8000f88:	2b02      	cmp	r3, #2
 8000f8a:	d901      	bls.n	8000f90 <HAL_RCC_OscConfig+0x1d0>
          {
            return HAL_TIMEOUT;
 8000f8c:	2303      	movs	r3, #3
 8000f8e:	e297      	b.n	80014c0 <HAL_RCC_OscConfig+0x700>
        while(__HAL_RCC_GET_FLAG(RCC_FLAG_HSIRDY) == RESET)
 8000f90:	4b59      	ldr	r3, [pc, #356]	; (80010f8 <HAL_RCC_OscConfig+0x338>)
 8000f92:	681b      	ldr	r3, [r3, #0]
 8000f94:	2202      	movs	r2, #2
 8000f96:	4013      	ands	r3, r2
 8000f98:	d0f1      	beq.n	8000f7e <HAL_RCC_OscConfig+0x1be>
          }
        }
                
        /* Adjusts the Internal High Speed oscillator (HSI) calibration value.*/
        __HAL_RCC_HSI_CALIBRATIONVALUE_ADJUST(RCC_OscInitStruct->HSICalibrationValue);
 8000f9a:	4b57      	ldr	r3, [pc, #348]	; (80010f8 <HAL_RCC_OscConfig+0x338>)
 8000f9c:	681b      	ldr	r3, [r3, #0]
 8000f9e:	22f8      	movs	r2, #248	; 0xf8
 8000fa0:	4393      	bics	r3, r2
 8000fa2:	0019      	movs	r1, r3
 8000fa4:	687b      	ldr	r3, [r7, #4]
 8000fa6:	691b      	ldr	r3, [r3, #16]
 8000fa8:	00da      	lsls	r2, r3, #3
 8000faa:	4b53      	ldr	r3, [pc, #332]	; (80010f8 <HAL_RCC_OscConfig+0x338>)
 8000fac:	430a      	orrs	r2, r1
 8000fae:	601a      	str	r2, [r3, #0]
 8000fb0:	e018      	b.n	8000fe4 <HAL_RCC_OscConfig+0x224>
      }
      else
      {
        /* Disable the Internal High Speed oscillator (HSI). */
        __HAL_RCC_HSI_DISABLE();
 8000fb2:	4b51      	ldr	r3, [pc, #324]	; (80010f8 <HAL_RCC_OscConfig+0x338>)
 8000fb4:	681a      	ldr	r2, [r3, #0]
 8000fb6:	4b50      	ldr	r3, [pc, #320]	; (80010f8 <HAL_RCC_OscConfig+0x338>)
 8000fb8:	2101      	movs	r1, #1
 8000fba:	438a      	bics	r2, r1
 8000fbc:	601a      	str	r2, [r3, #0]
        
        /* Get Start Tick */
        tickstart = HAL_GetTick();
 8000fbe:	f7ff fc7d 	bl	80008bc <HAL_GetTick>
 8000fc2:	0003      	movs	r3, r0
 8000fc4:	61bb      	str	r3, [r7, #24]
        
        /* Wait till HSI is disabled */
        while(__HAL_RCC_GET_FLAG(RCC_FLAG_HSIRDY) != RESET)
 8000fc6:	e008      	b.n	8000fda <HAL_RCC_OscConfig+0x21a>
        {
          if((HAL_GetTick() - tickstart ) > HSI_TIMEOUT_VALUE)
 8000fc8:	f7ff fc78 	bl	80008bc <HAL_GetTick>
 8000fcc:	0002      	movs	r2, r0
 8000fce:	69bb      	ldr	r3, [r7, #24]
 8000fd0:	1ad3      	subs	r3, r2, r3
 8000fd2:	2b02      	cmp	r3, #2
 8000fd4:	d901      	bls.n	8000fda <HAL_RCC_OscConfig+0x21a>
          {
            return HAL_TIMEOUT;
 8000fd6:	2303      	movs	r3, #3
 8000fd8:	e272      	b.n	80014c0 <HAL_RCC_OscConfig+0x700>
        while(__HAL_RCC_GET_FLAG(RCC_FLAG_HSIRDY) != RESET)
 8000fda:	4b47      	ldr	r3, [pc, #284]	; (80010f8 <HAL_RCC_OscConfig+0x338>)
 8000fdc:	681b      	ldr	r3, [r3, #0]
 8000fde:	2202      	movs	r2, #2
 8000fe0:	4013      	ands	r3, r2
 8000fe2:	d1f1      	bne.n	8000fc8 <HAL_RCC_OscConfig+0x208>
        }
      }
    }
  }
  /*------------------------------ LSI Configuration -------------------------*/ 
  if(((RCC_OscInitStruct->OscillatorType) & RCC_OSCILLATORTYPE_LSI) == RCC_OSCILLATORTYPE_LSI)
 8000fe4:	687b      	ldr	r3, [r7, #4]
 8000fe6:	681b      	ldr	r3, [r3, #0]
 8000fe8:	2208      	movs	r2, #8
 8000fea:	4013      	ands	r3, r2
 8000fec:	d036      	beq.n	800105c <HAL_RCC_OscConfig+0x29c>
  {
    /* Check the parameters */
    assert_param(IS_RCC_LSI(RCC_OscInitStruct->LSIState));
    
    /* Check the LSI State */
    if(RCC_OscInitStruct->LSIState != RCC_LSI_OFF)
 8000fee:	687b      	ldr	r3, [r7, #4]
 8000ff0:	69db      	ldr	r3, [r3, #28]
 8000ff2:	2b00      	cmp	r3, #0
 8000ff4:	d019      	beq.n	800102a <HAL_RCC_OscConfig+0x26a>
    {
      /* Enable the Internal Low Speed oscillator (LSI). */
      __HAL_RCC_LSI_ENABLE();
 8000ff6:	4b40      	ldr	r3, [pc, #256]	; (80010f8 <HAL_RCC_OscConfig+0x338>)
 8000ff8:	6a5a      	ldr	r2, [r3, #36]	; 0x24
 8000ffa:	4b3f      	ldr	r3, [pc, #252]	; (80010f8 <HAL_RCC_OscConfig+0x338>)
 8000ffc:	2101      	movs	r1, #1
 8000ffe:	430a      	orrs	r2, r1
 8001000:	625a      	str	r2, [r3, #36]	; 0x24
      
      /* Get Start Tick */
      tickstart = HAL_GetTick();
 8001002:	f7ff fc5b 	bl	80008bc <HAL_GetTick>
 8001006:	0003      	movs	r3, r0
 8001008:	61bb      	str	r3, [r7, #24]
      
      /* Wait till LSI is ready */  
      while(__HAL_RCC_GET_FLAG(RCC_FLAG_LSIRDY) == RESET)
 800100a:	e008      	b.n	800101e <HAL_RCC_OscConfig+0x25e>
      {
        if((HAL_GetTick() - tickstart ) > LSI_TIMEOUT_VALUE)
 800100c:	f7ff fc56 	bl	80008bc <HAL_GetTick>
 8001010:	0002      	movs	r2, r0
 8001012:	69bb      	ldr	r3, [r7, #24]
 8001014:	1ad3      	subs	r3, r2, r3
 8001016:	2b02      	cmp	r3, #2
 8001018:	d901      	bls.n	800101e <HAL_RCC_OscConfig+0x25e>
        {
          return HAL_TIMEOUT;
 800101a:	2303      	movs	r3, #3
 800101c:	e250      	b.n	80014c0 <HAL_RCC_OscConfig+0x700>
      while(__HAL_RCC_GET_FLAG(RCC_FLAG_LSIRDY) == RESET)
 800101e:	4b36      	ldr	r3, [pc, #216]	; (80010f8 <HAL_RCC_OscConfig+0x338>)
 8001020:	6a5b      	ldr	r3, [r3, #36]	; 0x24
 8001022:	2202      	movs	r2, #2
 8001024:	4013      	ands	r3, r2
 8001026:	d0f1      	beq.n	800100c <HAL_RCC_OscConfig+0x24c>
 8001028:	e018      	b.n	800105c <HAL_RCC_OscConfig+0x29c>
      }
    }
    else
    {
      /* Disable the Internal Low Speed oscillator (LSI). */
      __HAL_RCC_LSI_DISABLE();
 800102a:	4b33      	ldr	r3, [pc, #204]	; (80010f8 <HAL_RCC_OscConfig+0x338>)
 800102c:	6a5a      	ldr	r2, [r3, #36]	; 0x24
 800102e:	4b32      	ldr	r3, [pc, #200]	; (80010f8 <HAL_RCC_OscConfig+0x338>)
 8001030:	2101      	movs	r1, #1
 8001032:	438a      	bics	r2, r1
 8001034:	625a      	str	r2, [r3, #36]	; 0x24
      
      /* Get Start Tick */
      tickstart = HAL_GetTick();
 8001036:	f7ff fc41 	bl	80008bc <HAL_GetTick>
 800103a:	0003      	movs	r3, r0
 800103c:	61bb      	str	r3, [r7, #24]
      
      /* Wait till LSI is disabled */  
      while(__HAL_RCC_GET_FLAG(RCC_FLAG_LSIRDY) != RESET)
 800103e:	e008      	b.n	8001052 <HAL_RCC_OscConfig+0x292>
      {
        if((HAL_GetTick() - tickstart ) > LSI_TIMEOUT_VALUE)
 8001040:	f7ff fc3c 	bl	80008bc <HAL_GetTick>
 8001044:	0002      	movs	r2, r0
 8001046:	69bb      	ldr	r3, [r7, #24]
 8001048:	1ad3      	subs	r3, r2, r3
 800104a:	2b02      	cmp	r3, #2
 800104c:	d901      	bls.n	8001052 <HAL_RCC_OscConfig+0x292>
        {
          return HAL_TIMEOUT;
 800104e:	2303      	movs	r3, #3
 8001050:	e236      	b.n	80014c0 <HAL_RCC_OscConfig+0x700>
      while(__HAL_RCC_GET_FLAG(RCC_FLAG_LSIRDY) != RESET)
 8001052:	4b29      	ldr	r3, [pc, #164]	; (80010f8 <HAL_RCC_OscConfig+0x338>)
 8001054:	6a5b      	ldr	r3, [r3, #36]	; 0x24
 8001056:	2202      	movs	r2, #2
 8001058:	4013      	ands	r3, r2
 800105a:	d1f1      	bne.n	8001040 <HAL_RCC_OscConfig+0x280>
        }
      }
    }
  }
  /*------------------------------ LSE Configuration -------------------------*/ 
  if(((RCC_OscInitStruct->OscillatorType) & RCC_OSCILLATORTYPE_LSE) == RCC_OSCILLATORTYPE_LSE)
 800105c:	687b      	ldr	r3, [r7, #4]
 800105e:	681b      	ldr	r3, [r3, #0]
 8001060:	2204      	movs	r2, #4
 8001062:	4013      	ands	r3, r2
 8001064:	d100      	bne.n	8001068 <HAL_RCC_OscConfig+0x2a8>
 8001066:	e0b5      	b.n	80011d4 <HAL_RCC_OscConfig+0x414>
  {
    FlagStatus       pwrclkchanged = RESET;
 8001068:	231f      	movs	r3, #31
 800106a:	18fb      	adds	r3, r7, r3
 800106c:	2200      	movs	r2, #0
 800106e:	701a      	strb	r2, [r3, #0]
    /* Check the parameters */
    assert_param(IS_RCC_LSE(RCC_OscInitStruct->LSEState));

    /* Update LSE configuration in Backup Domain control register    */
    /* Requires to enable write access to Backup Domain of necessary */
    if(__HAL_RCC_PWR_IS_CLK_DISABLED())
 8001070:	4b21      	ldr	r3, [pc, #132]	; (80010f8 <HAL_RCC_OscConfig+0x338>)
 8001072:	69da      	ldr	r2, [r3, #28]
 8001074:	2380      	movs	r3, #128	; 0x80
 8001076:	055b      	lsls	r3, r3, #21
 8001078:	4013      	ands	r3, r2
 800107a:	d111      	bne.n	80010a0 <HAL_RCC_OscConfig+0x2e0>
    {
      __HAL_RCC_PWR_CLK_ENABLE();
 800107c:	4b1e      	ldr	r3, [pc, #120]	; (80010f8 <HAL_RCC_OscConfig+0x338>)
 800107e:	69da      	ldr	r2, [r3, #28]
 8001080:	4b1d      	ldr	r3, [pc, #116]	; (80010f8 <HAL_RCC_OscConfig+0x338>)
 8001082:	2180      	movs	r1, #128	; 0x80
 8001084:	0549      	lsls	r1, r1, #21
 8001086:	430a      	orrs	r2, r1
 8001088:	61da      	str	r2, [r3, #28]
 800108a:	4b1b      	ldr	r3, [pc, #108]	; (80010f8 <HAL_RCC_OscConfig+0x338>)
 800108c:	69da      	ldr	r2, [r3, #28]
 800108e:	2380      	movs	r3, #128	; 0x80
 8001090:	055b      	lsls	r3, r3, #21
 8001092:	4013      	ands	r3, r2
 8001094:	60fb      	str	r3, [r7, #12]
 8001096:	68fb      	ldr	r3, [r7, #12]
      pwrclkchanged = SET;
 8001098:	231f      	movs	r3, #31
 800109a:	18fb      	adds	r3, r7, r3
 800109c:	2201      	movs	r2, #1
 800109e:	701a      	strb	r2, [r3, #0]
    }
    
    if(HAL_IS_BIT_CLR(PWR->CR, PWR_CR_DBP))
 80010a0:	4b18      	ldr	r3, [pc, #96]	; (8001104 <HAL_RCC_OscConfig+0x344>)
 80010a2:	681a      	ldr	r2, [r3, #0]
 80010a4:	2380      	movs	r3, #128	; 0x80
 80010a6:	005b      	lsls	r3, r3, #1
 80010a8:	4013      	ands	r3, r2
 80010aa:	d11a      	bne.n	80010e2 <HAL_RCC_OscConfig+0x322>
    {
      /* Enable write access to Backup domain */
      SET_BIT(PWR->CR, PWR_CR_DBP);
 80010ac:	4b15      	ldr	r3, [pc, #84]	; (8001104 <HAL_RCC_OscConfig+0x344>)
 80010ae:	681a      	ldr	r2, [r3, #0]
 80010b0:	4b14      	ldr	r3, [pc, #80]	; (8001104 <HAL_RCC_OscConfig+0x344>)
 80010b2:	2180      	movs	r1, #128	; 0x80
 80010b4:	0049      	lsls	r1, r1, #1
 80010b6:	430a      	orrs	r2, r1
 80010b8:	601a      	str	r2, [r3, #0]
      
      /* Wait for Backup domain Write protection disable */
      tickstart = HAL_GetTick();
 80010ba:	f7ff fbff 	bl	80008bc <HAL_GetTick>
 80010be:	0003      	movs	r3, r0
 80010c0:	61bb      	str	r3, [r7, #24]

      while(HAL_IS_BIT_CLR(PWR->CR, PWR_CR_DBP))
 80010c2:	e008      	b.n	80010d6 <HAL_RCC_OscConfig+0x316>
      {
        if((HAL_GetTick() - tickstart) > RCC_DBP_TIMEOUT_VALUE)
 80010c4:	f7ff fbfa 	bl	80008bc <HAL_GetTick>
 80010c8:	0002      	movs	r2, r0
 80010ca:	69bb      	ldr	r3, [r7, #24]
 80010cc:	1ad3      	subs	r3, r2, r3
 80010ce:	2b64      	cmp	r3, #100	; 0x64
 80010d0:	d901      	bls.n	80010d6 <HAL_RCC_OscConfig+0x316>
        {
          return HAL_TIMEOUT;
 80010d2:	2303      	movs	r3, #3
 80010d4:	e1f4      	b.n	80014c0 <HAL_RCC_OscConfig+0x700>
      while(HAL_IS_BIT_CLR(PWR->CR, PWR_CR_DBP))
 80010d6:	4b0b      	ldr	r3, [pc, #44]	; (8001104 <HAL_RCC_OscConfig+0x344>)
 80010d8:	681a      	ldr	r2, [r3, #0]
 80010da:	2380      	movs	r3, #128	; 0x80
 80010dc:	005b      	lsls	r3, r3, #1
 80010de:	4013      	ands	r3, r2
 80010e0:	d0f0      	beq.n	80010c4 <HAL_RCC_OscConfig+0x304>
        }
      }
    }

    /* Set the new LSE configuration -----------------------------------------*/
    __HAL_RCC_LSE_CONFIG(RCC_OscInitStruct->LSEState);
 80010e2:	687b      	ldr	r3, [r7, #4]
 80010e4:	689b      	ldr	r3, [r3, #8]
 80010e6:	2b01      	cmp	r3, #1
 80010e8:	d10e      	bne.n	8001108 <HAL_RCC_OscConfig+0x348>
 80010ea:	4b03      	ldr	r3, [pc, #12]	; (80010f8 <HAL_RCC_OscConfig+0x338>)
 80010ec:	6a1a      	ldr	r2, [r3, #32]
 80010ee:	4b02      	ldr	r3, [pc, #8]	; (80010f8 <HAL_RCC_OscConfig+0x338>)
 80010f0:	2101      	movs	r1, #1
 80010f2:	430a      	orrs	r2, r1
 80010f4:	621a      	str	r2, [r3, #32]
 80010f6:	e035      	b.n	8001164 <HAL_RCC_OscConfig+0x3a4>
 80010f8:	40021000 	.word	0x40021000
 80010fc:	fffeffff 	.word	0xfffeffff
 8001100:	fffbffff 	.word	0xfffbffff
 8001104:	40007000 	.word	0x40007000
 8001108:	687b      	ldr	r3, [r7, #4]
 800110a:	689b      	ldr	r3, [r3, #8]
 800110c:	2b00      	cmp	r3, #0
 800110e:	d10c      	bne.n	800112a <HAL_RCC_OscConfig+0x36a>
 8001110:	4bca      	ldr	r3, [pc, #808]	; (800143c <HAL_RCC_OscConfig+0x67c>)
 8001112:	6a1a      	ldr	r2, [r3, #32]
 8001114:	4bc9      	ldr	r3, [pc, #804]	; (800143c <HAL_RCC_OscConfig+0x67c>)
 8001116:	2101      	movs	r1, #1
 8001118:	438a      	bics	r2, r1
 800111a:	621a      	str	r2, [r3, #32]
 800111c:	4bc7      	ldr	r3, [pc, #796]	; (800143c <HAL_RCC_OscConfig+0x67c>)
 800111e:	6a1a      	ldr	r2, [r3, #32]
 8001120:	4bc6      	ldr	r3, [pc, #792]	; (800143c <HAL_RCC_OscConfig+0x67c>)
 8001122:	2104      	movs	r1, #4
 8001124:	438a      	bics	r2, r1
 8001126:	621a      	str	r2, [r3, #32]
 8001128:	e01c      	b.n	8001164 <HAL_RCC_OscConfig+0x3a4>
 800112a:	687b      	ldr	r3, [r7, #4]
 800112c:	689b      	ldr	r3, [r3, #8]
 800112e:	2b05      	cmp	r3, #5
 8001130:	d10c      	bne.n	800114c <HAL_RCC_OscConfig+0x38c>
 8001132:	4bc2      	ldr	r3, [pc, #776]	; (800143c <HAL_RCC_OscConfig+0x67c>)
 8001134:	6a1a      	ldr	r2, [r3, #32]
 8001136:	4bc1      	ldr	r3, [pc, #772]	; (800143c <HAL_RCC_OscConfig+0x67c>)
 8001138:	2104      	movs	r1, #4
 800113a:	430a      	orrs	r2, r1
 800113c:	621a      	str	r2, [r3, #32]
 800113e:	4bbf      	ldr	r3, [pc, #764]	; (800143c <HAL_RCC_OscConfig+0x67c>)
 8001140:	6a1a      	ldr	r2, [r3, #32]
 8001142:	4bbe      	ldr	r3, [pc, #760]	; (800143c <HAL_RCC_OscConfig+0x67c>)
 8001144:	2101      	movs	r1, #1
 8001146:	430a      	orrs	r2, r1
 8001148:	621a      	str	r2, [r3, #32]
 800114a:	e00b      	b.n	8001164 <HAL_RCC_OscConfig+0x3a4>
 800114c:	4bbb      	ldr	r3, [pc, #748]	; (800143c <HAL_RCC_OscConfig+0x67c>)
 800114e:	6a1a      	ldr	r2, [r3, #32]
 8001150:	4bba      	ldr	r3, [pc, #744]	; (800143c <HAL_RCC_OscConfig+0x67c>)
 8001152:	2101      	movs	r1, #1
 8001154:	438a      	bics	r2, r1
 8001156:	621a      	str	r2, [r3, #32]
 8001158:	4bb8      	ldr	r3, [pc, #736]	; (800143c <HAL_RCC_OscConfig+0x67c>)
 800115a:	6a1a      	ldr	r2, [r3, #32]
 800115c:	4bb7      	ldr	r3, [pc, #732]	; (800143c <HAL_RCC_OscConfig+0x67c>)
 800115e:	2104      	movs	r1, #4
 8001160:	438a      	bics	r2, r1
 8001162:	621a      	str	r2, [r3, #32]
    /* Check the LSE State */
    if(RCC_OscInitStruct->LSEState != RCC_LSE_OFF)
 8001164:	687b      	ldr	r3, [r7, #4]
 8001166:	689b      	ldr	r3, [r3, #8]
 8001168:	2b00      	cmp	r3, #0
 800116a:	d014      	beq.n	8001196 <HAL_RCC_OscConfig+0x3d6>
    {
      /* Get Start Tick */
      tickstart = HAL_GetTick();
 800116c:	f7ff fba6 	bl	80008bc <HAL_GetTick>
 8001170:	0003      	movs	r3, r0
 8001172:	61bb      	str	r3, [r7, #24]
      
      /* Wait till LSE is ready */  
      while(__HAL_RCC_GET_FLAG(RCC_FLAG_LSERDY) == RESET)
 8001174:	e009      	b.n	800118a <HAL_RCC_OscConfig+0x3ca>
      {
        if((HAL_GetTick() - tickstart ) > RCC_LSE_TIMEOUT_VALUE)
 8001176:	f7ff fba1 	bl	80008bc <HAL_GetTick>
 800117a:	0002      	movs	r2, r0
 800117c:	69bb      	ldr	r3, [r7, #24]
 800117e:	1ad3      	subs	r3, r2, r3
 8001180:	4aaf      	ldr	r2, [pc, #700]	; (8001440 <HAL_RCC_OscConfig+0x680>)
 8001182:	4293      	cmp	r3, r2
 8001184:	d901      	bls.n	800118a <HAL_RCC_OscConfig+0x3ca>
        {
          return HAL_TIMEOUT;
 8001186:	2303      	movs	r3, #3
 8001188:	e19a      	b.n	80014c0 <HAL_RCC_OscConfig+0x700>
      while(__HAL_RCC_GET_FLAG(RCC_FLAG_LSERDY) == RESET)
 800118a:	4bac      	ldr	r3, [pc, #688]	; (800143c <HAL_RCC_OscConfig+0x67c>)
 800118c:	6a1b      	ldr	r3, [r3, #32]
 800118e:	2202      	movs	r2, #2
 8001190:	4013      	ands	r3, r2
 8001192:	d0f0      	beq.n	8001176 <HAL_RCC_OscConfig+0x3b6>
 8001194:	e013      	b.n	80011be <HAL_RCC_OscConfig+0x3fe>
      }
    }
    else
    {
      /* Get Start Tick */
      tickstart = HAL_GetTick();
 8001196:	f7ff fb91 	bl	80008bc <HAL_GetTick>
 800119a:	0003      	movs	r3, r0
 800119c:	61bb      	str	r3, [r7, #24]
      
      /* Wait till LSE is disabled */  
      while(__HAL_RCC_GET_FLAG(RCC_FLAG_LSERDY) != RESET)
 800119e:	e009      	b.n	80011b4 <HAL_RCC_OscConfig+0x3f4>
      {
        if((HAL_GetTick() - tickstart ) > RCC_LSE_TIMEOUT_VALUE)
 80011a0:	f7ff fb8c 	bl	80008bc <HAL_GetTick>
 80011a4:	0002      	movs	r2, r0
 80011a6:	69bb      	ldr	r3, [r7, #24]
 80011a8:	1ad3      	subs	r3, r2, r3
 80011aa:	4aa5      	ldr	r2, [pc, #660]	; (8001440 <HAL_RCC_OscConfig+0x680>)
 80011ac:	4293      	cmp	r3, r2
 80011ae:	d901      	bls.n	80011b4 <HAL_RCC_OscConfig+0x3f4>
        {
          return HAL_TIMEOUT;
 80011b0:	2303      	movs	r3, #3
 80011b2:	e185      	b.n	80014c0 <HAL_RCC_OscConfig+0x700>
      while(__HAL_RCC_GET_FLAG(RCC_FLAG_LSERDY) != RESET)
 80011b4:	4ba1      	ldr	r3, [pc, #644]	; (800143c <HAL_RCC_OscConfig+0x67c>)
 80011b6:	6a1b      	ldr	r3, [r3, #32]
 80011b8:	2202      	movs	r2, #2
 80011ba:	4013      	ands	r3, r2
 80011bc:	d1f0      	bne.n	80011a0 <HAL_RCC_OscConfig+0x3e0>
        }
      }
    }

    /* Require to disable power clock if necessary */
    if(pwrclkchanged == SET)
 80011be:	231f      	movs	r3, #31
 80011c0:	18fb      	adds	r3, r7, r3
 80011c2:	781b      	ldrb	r3, [r3, #0]
 80011c4:	2b01      	cmp	r3, #1
 80011c6:	d105      	bne.n	80011d4 <HAL_RCC_OscConfig+0x414>
    {
      __HAL_RCC_PWR_CLK_DISABLE();
 80011c8:	4b9c      	ldr	r3, [pc, #624]	; (800143c <HAL_RCC_OscConfig+0x67c>)
 80011ca:	69da      	ldr	r2, [r3, #28]
 80011cc:	4b9b      	ldr	r3, [pc, #620]	; (800143c <HAL_RCC_OscConfig+0x67c>)
 80011ce:	499d      	ldr	r1, [pc, #628]	; (8001444 <HAL_RCC_OscConfig+0x684>)
 80011d0:	400a      	ands	r2, r1
 80011d2:	61da      	str	r2, [r3, #28]
    }
  }

  /*----------------------------- HSI14 Configuration --------------------------*/
  if(((RCC_OscInitStruct->OscillatorType) & RCC_OSCILLATORTYPE_HSI14) == RCC_OSCILLATORTYPE_HSI14)
 80011d4:	687b      	ldr	r3, [r7, #4]
 80011d6:	681b      	ldr	r3, [r3, #0]
 80011d8:	2210      	movs	r2, #16
 80011da:	4013      	ands	r3, r2
 80011dc:	d063      	beq.n	80012a6 <HAL_RCC_OscConfig+0x4e6>
    /* Check the parameters */
    assert_param(IS_RCC_HSI14(RCC_OscInitStruct->HSI14State));
    assert_param(IS_RCC_CALIBRATION_VALUE(RCC_OscInitStruct->HSI14CalibrationValue));

    /* Check the HSI14 State */
    if(RCC_OscInitStruct->HSI14State == RCC_HSI14_ON)
 80011de:	687b      	ldr	r3, [r7, #4]
 80011e0:	695b      	ldr	r3, [r3, #20]
 80011e2:	2b01      	cmp	r3, #1
 80011e4:	d12a      	bne.n	800123c <HAL_RCC_OscConfig+0x47c>
    {
      /* Disable ADC control of the Internal High Speed oscillator HSI14 */
      __HAL_RCC_HSI14ADC_DISABLE();
 80011e6:	4b95      	ldr	r3, [pc, #596]	; (800143c <HAL_RCC_OscConfig+0x67c>)
 80011e8:	6b5a      	ldr	r2, [r3, #52]	; 0x34
 80011ea:	4b94      	ldr	r3, [pc, #592]	; (800143c <HAL_RCC_OscConfig+0x67c>)
 80011ec:	2104      	movs	r1, #4
 80011ee:	430a      	orrs	r2, r1
 80011f0:	635a      	str	r2, [r3, #52]	; 0x34

      /* Enable the Internal High Speed oscillator (HSI). */
      __HAL_RCC_HSI14_ENABLE();
 80011f2:	4b92      	ldr	r3, [pc, #584]	; (800143c <HAL_RCC_OscConfig+0x67c>)
 80011f4:	6b5a      	ldr	r2, [r3, #52]	; 0x34
 80011f6:	4b91      	ldr	r3, [pc, #580]	; (800143c <HAL_RCC_OscConfig+0x67c>)
 80011f8:	2101      	movs	r1, #1
 80011fa:	430a      	orrs	r2, r1
 80011fc:	635a      	str	r2, [r3, #52]	; 0x34

      /* Get Start Tick */
      tickstart = HAL_GetTick();
 80011fe:	f7ff fb5d 	bl	80008bc <HAL_GetTick>
 8001202:	0003      	movs	r3, r0
 8001204:	61bb      	str	r3, [r7, #24]
      
      /* Wait till HSI is ready */  
      while(__HAL_RCC_GET_FLAG(RCC_FLAG_HSI14RDY) == RESET)
 8001206:	e008      	b.n	800121a <HAL_RCC_OscConfig+0x45a>
      {
        if((HAL_GetTick() - tickstart) > HSI14_TIMEOUT_VALUE)
 8001208:	f7ff fb58 	bl	80008bc <HAL_GetTick>
 800120c:	0002      	movs	r2, r0
 800120e:	69bb      	ldr	r3, [r7, #24]
 8001210:	1ad3      	subs	r3, r2, r3
 8001212:	2b02      	cmp	r3, #2
 8001214:	d901      	bls.n	800121a <HAL_RCC_OscConfig+0x45a>
        {
          return HAL_TIMEOUT;
 8001216:	2303      	movs	r3, #3
 8001218:	e152      	b.n	80014c0 <HAL_RCC_OscConfig+0x700>
      while(__HAL_RCC_GET_FLAG(RCC_FLAG_HSI14RDY) == RESET)
 800121a:	4b88      	ldr	r3, [pc, #544]	; (800143c <HAL_RCC_OscConfig+0x67c>)
 800121c:	6b5b      	ldr	r3, [r3, #52]	; 0x34
 800121e:	2202      	movs	r2, #2
 8001220:	4013      	ands	r3, r2
 8001222:	d0f1      	beq.n	8001208 <HAL_RCC_OscConfig+0x448>
        }      
      } 

      /* Adjusts the Internal High Speed oscillator 14Mhz (HSI14) calibration value. */
      __HAL_RCC_HSI14_CALIBRATIONVALUE_ADJUST(RCC_OscInitStruct->HSI14CalibrationValue);
 8001224:	4b85      	ldr	r3, [pc, #532]	; (800143c <HAL_RCC_OscConfig+0x67c>)
 8001226:	6b5b      	ldr	r3, [r3, #52]	; 0x34
 8001228:	22f8      	movs	r2, #248	; 0xf8
 800122a:	4393      	bics	r3, r2
 800122c:	0019      	movs	r1, r3
 800122e:	687b      	ldr	r3, [r7, #4]
 8001230:	699b      	ldr	r3, [r3, #24]
 8001232:	00da      	lsls	r2, r3, #3
 8001234:	4b81      	ldr	r3, [pc, #516]	; (800143c <HAL_RCC_OscConfig+0x67c>)
 8001236:	430a      	orrs	r2, r1
 8001238:	635a      	str	r2, [r3, #52]	; 0x34
 800123a:	e034      	b.n	80012a6 <HAL_RCC_OscConfig+0x4e6>
    }
    else if(RCC_OscInitStruct->HSI14State == RCC_HSI14_ADC_CONTROL)
 800123c:	687b      	ldr	r3, [r7, #4]
 800123e:	695b      	ldr	r3, [r3, #20]
 8001240:	3305      	adds	r3, #5
 8001242:	d111      	bne.n	8001268 <HAL_RCC_OscConfig+0x4a8>
    {
      /* Enable ADC control of the Internal High Speed oscillator HSI14 */
      __HAL_RCC_HSI14ADC_ENABLE();
 8001244:	4b7d      	ldr	r3, [pc, #500]	; (800143c <HAL_RCC_OscConfig+0x67c>)
 8001246:	6b5a      	ldr	r2, [r3, #52]	; 0x34
 8001248:	4b7c      	ldr	r3, [pc, #496]	; (800143c <HAL_RCC_OscConfig+0x67c>)
 800124a:	2104      	movs	r1, #4
 800124c:	438a      	bics	r2, r1
 800124e:	635a      	str	r2, [r3, #52]	; 0x34

      /* Adjusts the Internal High Speed oscillator 14Mhz (HSI14) calibration value. */
      __HAL_RCC_HSI14_CALIBRATIONVALUE_ADJUST(RCC_OscInitStruct->HSI14CalibrationValue);
 8001250:	4b7a      	ldr	r3, [pc, #488]	; (800143c <HAL_RCC_OscConfig+0x67c>)
 8001252:	6b5b      	ldr	r3, [r3, #52]	; 0x34
 8001254:	22f8      	movs	r2, #248	; 0xf8
 8001256:	4393      	bics	r3, r2
 8001258:	0019      	movs	r1, r3
 800125a:	687b      	ldr	r3, [r7, #4]
 800125c:	699b      	ldr	r3, [r3, #24]
 800125e:	00da      	lsls	r2, r3, #3
 8001260:	4b76      	ldr	r3, [pc, #472]	; (800143c <HAL_RCC_OscConfig+0x67c>)
 8001262:	430a      	orrs	r2, r1
 8001264:	635a      	str	r2, [r3, #52]	; 0x34
 8001266:	e01e      	b.n	80012a6 <HAL_RCC_OscConfig+0x4e6>
    }
    else
    {
      /* Disable ADC control of the Internal High Speed oscillator HSI14 */
      __HAL_RCC_HSI14ADC_DISABLE();
 8001268:	4b74      	ldr	r3, [pc, #464]	; (800143c <HAL_RCC_OscConfig+0x67c>)
 800126a:	6b5a      	ldr	r2, [r3, #52]	; 0x34
 800126c:	4b73      	ldr	r3, [pc, #460]	; (800143c <HAL_RCC_OscConfig+0x67c>)
 800126e:	2104      	movs	r1, #4
 8001270:	430a      	orrs	r2, r1
 8001272:	635a      	str	r2, [r3, #52]	; 0x34

      /* Disable the Internal High Speed oscillator (HSI). */
      __HAL_RCC_HSI14_DISABLE();
 8001274:	4b71      	ldr	r3, [pc, #452]	; (800143c <HAL_RCC_OscConfig+0x67c>)
 8001276:	6b5a      	ldr	r2, [r3, #52]	; 0x34
 8001278:	4b70      	ldr	r3, [pc, #448]	; (800143c <HAL_RCC_OscConfig+0x67c>)
 800127a:	2101      	movs	r1, #1
 800127c:	438a      	bics	r2, r1
 800127e:	635a      	str	r2, [r3, #52]	; 0x34

      /* Get Start Tick */
      tickstart = HAL_GetTick();
 8001280:	f7ff fb1c 	bl	80008bc <HAL_GetTick>
 8001284:	0003      	movs	r3, r0
 8001286:	61bb      	str	r3, [r7, #24]
      
      /* Wait till HSI is ready */  
      while(__HAL_RCC_GET_FLAG(RCC_FLAG_HSI14RDY) != RESET)
 8001288:	e008      	b.n	800129c <HAL_RCC_OscConfig+0x4dc>
      {
        if((HAL_GetTick() - tickstart) > HSI14_TIMEOUT_VALUE)
 800128a:	f7ff fb17 	bl	80008bc <HAL_GetTick>
 800128e:	0002      	movs	r2, r0
 8001290:	69bb      	ldr	r3, [r7, #24]
 8001292:	1ad3      	subs	r3, r2, r3
 8001294:	2b02      	cmp	r3, #2
 8001296:	d901      	bls.n	800129c <HAL_RCC_OscConfig+0x4dc>
        {
          return HAL_TIMEOUT;
 8001298:	2303      	movs	r3, #3
 800129a:	e111      	b.n	80014c0 <HAL_RCC_OscConfig+0x700>
      while(__HAL_RCC_GET_FLAG(RCC_FLAG_HSI14RDY) != RESET)
 800129c:	4b67      	ldr	r3, [pc, #412]	; (800143c <HAL_RCC_OscConfig+0x67c>)
 800129e:	6b5b      	ldr	r3, [r3, #52]	; 0x34
 80012a0:	2202      	movs	r2, #2
 80012a2:	4013      	ands	r3, r2
 80012a4:	d1f1      	bne.n	800128a <HAL_RCC_OscConfig+0x4ca>
    }
  }

#if defined(RCC_HSI48_SUPPORT)
  /*----------------------------- HSI48 Configuration --------------------------*/
  if(((RCC_OscInitStruct->OscillatorType) & RCC_OSCILLATORTYPE_HSI48) == RCC_OSCILLATORTYPE_HSI48)
 80012a6:	687b      	ldr	r3, [r7, #4]
 80012a8:	681b      	ldr	r3, [r3, #0]
 80012aa:	2220      	movs	r2, #32
 80012ac:	4013      	ands	r3, r2
 80012ae:	d05c      	beq.n	800136a <HAL_RCC_OscConfig+0x5aa>
  {
    /* Check the parameters */
    assert_param(IS_RCC_HSI48(RCC_OscInitStruct->HSI48State));

    /* When the HSI48 is used as system clock it is not allowed to be disabled */
    if((__HAL_RCC_GET_SYSCLK_SOURCE() == RCC_SYSCLKSOURCE_STATUS_HSI48) ||
 80012b0:	4b62      	ldr	r3, [pc, #392]	; (800143c <HAL_RCC_OscConfig+0x67c>)
 80012b2:	685b      	ldr	r3, [r3, #4]
 80012b4:	220c      	movs	r2, #12
 80012b6:	4013      	ands	r3, r2
 80012b8:	2b0c      	cmp	r3, #12
 80012ba:	d00e      	beq.n	80012da <HAL_RCC_OscConfig+0x51a>
       ((__HAL_RCC_GET_SYSCLK_SOURCE() == RCC_SYSCLKSOURCE_STATUS_PLLCLK) && (__HAL_RCC_GET_PLL_OSCSOURCE() == RCC_PLLSOURCE_HSI48)))
 80012bc:	4b5f      	ldr	r3, [pc, #380]	; (800143c <HAL_RCC_OscConfig+0x67c>)
 80012be:	685b      	ldr	r3, [r3, #4]
 80012c0:	220c      	movs	r2, #12
 80012c2:	4013      	ands	r3, r2
    if((__HAL_RCC_GET_SYSCLK_SOURCE() == RCC_SYSCLKSOURCE_STATUS_HSI48) ||
 80012c4:	2b08      	cmp	r3, #8
 80012c6:	d114      	bne.n	80012f2 <HAL_RCC_OscConfig+0x532>
       ((__HAL_RCC_GET_SYSCLK_SOURCE() == RCC_SYSCLKSOURCE_STATUS_PLLCLK) && (__HAL_RCC_GET_PLL_OSCSOURCE() == RCC_PLLSOURCE_HSI48)))
 80012c8:	4b5c      	ldr	r3, [pc, #368]	; (800143c <HAL_RCC_OscConfig+0x67c>)
 80012ca:	685a      	ldr	r2, [r3, #4]
 80012cc:	23c0      	movs	r3, #192	; 0xc0
 80012ce:	025b      	lsls	r3, r3, #9
 80012d0:	401a      	ands	r2, r3
 80012d2:	23c0      	movs	r3, #192	; 0xc0
 80012d4:	025b      	lsls	r3, r3, #9
 80012d6:	429a      	cmp	r2, r3
 80012d8:	d10b      	bne.n	80012f2 <HAL_RCC_OscConfig+0x532>
    {
      if((__HAL_RCC_GET_FLAG(RCC_FLAG_HSI48RDY) != RESET) && (RCC_OscInitStruct->HSI48State != RCC_HSI48_ON))
 80012da:	4b58      	ldr	r3, [pc, #352]	; (800143c <HAL_RCC_OscConfig+0x67c>)
 80012dc:	6b5a      	ldr	r2, [r3, #52]	; 0x34
 80012de:	2380      	movs	r3, #128	; 0x80
 80012e0:	025b      	lsls	r3, r3, #9
 80012e2:	4013      	ands	r3, r2
 80012e4:	d040      	beq.n	8001368 <HAL_RCC_OscConfig+0x5a8>
 80012e6:	687b      	ldr	r3, [r7, #4]
 80012e8:	6a1b      	ldr	r3, [r3, #32]
 80012ea:	2b01      	cmp	r3, #1
 80012ec:	d03c      	beq.n	8001368 <HAL_RCC_OscConfig+0x5a8>
      {
        return HAL_ERROR;
 80012ee:	2301      	movs	r3, #1
 80012f0:	e0e6      	b.n	80014c0 <HAL_RCC_OscConfig+0x700>
      }
    }
    else
    {
      /* Check the HSI48 State */
      if(RCC_OscInitStruct->HSI48State != RCC_HSI48_OFF)
 80012f2:	687b      	ldr	r3, [r7, #4]
 80012f4:	6a1b      	ldr	r3, [r3, #32]
 80012f6:	2b00      	cmp	r3, #0
 80012f8:	d01b      	beq.n	8001332 <HAL_RCC_OscConfig+0x572>
      {
        /* Enable the Internal High Speed oscillator (HSI48). */
        __HAL_RCC_HSI48_ENABLE();
 80012fa:	4b50      	ldr	r3, [pc, #320]	; (800143c <HAL_RCC_OscConfig+0x67c>)
 80012fc:	6b5a      	ldr	r2, [r3, #52]	; 0x34
 80012fe:	4b4f      	ldr	r3, [pc, #316]	; (800143c <HAL_RCC_OscConfig+0x67c>)
 8001300:	2180      	movs	r1, #128	; 0x80
 8001302:	0249      	lsls	r1, r1, #9
 8001304:	430a      	orrs	r2, r1
 8001306:	635a      	str	r2, [r3, #52]	; 0x34

        /* Get Start Tick */
        tickstart = HAL_GetTick();
 8001308:	f7ff fad8 	bl	80008bc <HAL_GetTick>
 800130c:	0003      	movs	r3, r0
 800130e:	61bb      	str	r3, [r7, #24]
      
        /* Wait till HSI48 is ready */  
        while(__HAL_RCC_GET_FLAG(RCC_FLAG_HSI48RDY) == RESET)
 8001310:	e008      	b.n	8001324 <HAL_RCC_OscConfig+0x564>
        {
          if((HAL_GetTick() - tickstart) > HSI48_TIMEOUT_VALUE)
 8001312:	f7ff fad3 	bl	80008bc <HAL_GetTick>
 8001316:	0002      	movs	r2, r0
 8001318:	69bb      	ldr	r3, [r7, #24]
 800131a:	1ad3      	subs	r3, r2, r3
 800131c:	2b02      	cmp	r3, #2
 800131e:	d901      	bls.n	8001324 <HAL_RCC_OscConfig+0x564>
          {
            return HAL_TIMEOUT;
 8001320:	2303      	movs	r3, #3
 8001322:	e0cd      	b.n	80014c0 <HAL_RCC_OscConfig+0x700>
        while(__HAL_RCC_GET_FLAG(RCC_FLAG_HSI48RDY) == RESET)
 8001324:	4b45      	ldr	r3, [pc, #276]	; (800143c <HAL_RCC_OscConfig+0x67c>)
 8001326:	6b5a      	ldr	r2, [r3, #52]	; 0x34
 8001328:	2380      	movs	r3, #128	; 0x80
 800132a:	025b      	lsls	r3, r3, #9
 800132c:	4013      	ands	r3, r2
 800132e:	d0f0      	beq.n	8001312 <HAL_RCC_OscConfig+0x552>
 8001330:	e01b      	b.n	800136a <HAL_RCC_OscConfig+0x5aa>
        } 
      }
      else
      {
        /* Disable the Internal High Speed oscillator (HSI48). */
        __HAL_RCC_HSI48_DISABLE();
 8001332:	4b42      	ldr	r3, [pc, #264]	; (800143c <HAL_RCC_OscConfig+0x67c>)
 8001334:	6b5a      	ldr	r2, [r3, #52]	; 0x34
 8001336:	4b41      	ldr	r3, [pc, #260]	; (800143c <HAL_RCC_OscConfig+0x67c>)
 8001338:	4943      	ldr	r1, [pc, #268]	; (8001448 <HAL_RCC_OscConfig+0x688>)
 800133a:	400a      	ands	r2, r1
 800133c:	635a      	str	r2, [r3, #52]	; 0x34

        /* Get Start Tick */
        tickstart = HAL_GetTick();
 800133e:	f7ff fabd 	bl	80008bc <HAL_GetTick>
 8001342:	0003      	movs	r3, r0
 8001344:	61bb      	str	r3, [r7, #24]
      
        /* Wait till HSI48 is ready */  
        while(__HAL_RCC_GET_FLAG(RCC_FLAG_HSI48RDY) != RESET)
 8001346:	e008      	b.n	800135a <HAL_RCC_OscConfig+0x59a>
        {
          if((HAL_GetTick() - tickstart) > HSI48_TIMEOUT_VALUE)
 8001348:	f7ff fab8 	bl	80008bc <HAL_GetTick>
 800134c:	0002      	movs	r2, r0
 800134e:	69bb      	ldr	r3, [r7, #24]
 8001350:	1ad3      	subs	r3, r2, r3
 8001352:	2b02      	cmp	r3, #2
 8001354:	d901      	bls.n	800135a <HAL_RCC_OscConfig+0x59a>
          {
            return HAL_TIMEOUT;
 8001356:	2303      	movs	r3, #3
 8001358:	e0b2      	b.n	80014c0 <HAL_RCC_OscConfig+0x700>
        while(__HAL_RCC_GET_FLAG(RCC_FLAG_HSI48RDY) != RESET)
 800135a:	4b38      	ldr	r3, [pc, #224]	; (800143c <HAL_RCC_OscConfig+0x67c>)
 800135c:	6b5a      	ldr	r2, [r3, #52]	; 0x34
 800135e:	2380      	movs	r3, #128	; 0x80
 8001360:	025b      	lsls	r3, r3, #9
 8001362:	4013      	ands	r3, r2
 8001364:	d1f0      	bne.n	8001348 <HAL_RCC_OscConfig+0x588>
 8001366:	e000      	b.n	800136a <HAL_RCC_OscConfig+0x5aa>
      if((__HAL_RCC_GET_FLAG(RCC_FLAG_HSI48RDY) != RESET) && (RCC_OscInitStruct->HSI48State != RCC_HSI48_ON))
 8001368:	46c0      	nop			; (mov r8, r8)
#endif /* RCC_HSI48_SUPPORT */
       
  /*-------------------------------- PLL Configuration -----------------------*/
  /* Check the parameters */
  assert_param(IS_RCC_PLL(RCC_OscInitStruct->PLL.PLLState));
  if ((RCC_OscInitStruct->PLL.PLLState) != RCC_PLL_NONE)
 800136a:	687b      	ldr	r3, [r7, #4]
 800136c:	6a5b      	ldr	r3, [r3, #36]	; 0x24
 800136e:	2b00      	cmp	r3, #0
 8001370:	d100      	bne.n	8001374 <HAL_RCC_OscConfig+0x5b4>
 8001372:	e0a4      	b.n	80014be <HAL_RCC_OscConfig+0x6fe>
  {
    /* Check if the PLL is used as system clock or not */
    if(__HAL_RCC_GET_SYSCLK_SOURCE() != RCC_SYSCLKSOURCE_STATUS_PLLCLK)
 8001374:	4b31      	ldr	r3, [pc, #196]	; (800143c <HAL_RCC_OscConfig+0x67c>)
 8001376:	685b      	ldr	r3, [r3, #4]
 8001378:	220c      	movs	r2, #12
 800137a:	4013      	ands	r3, r2
 800137c:	2b08      	cmp	r3, #8
 800137e:	d100      	bne.n	8001382 <HAL_RCC_OscConfig+0x5c2>
 8001380:	e078      	b.n	8001474 <HAL_RCC_OscConfig+0x6b4>
    { 
      if((RCC_OscInitStruct->PLL.PLLState) == RCC_PLL_ON)
 8001382:	687b      	ldr	r3, [r7, #4]
 8001384:	6a5b      	ldr	r3, [r3, #36]	; 0x24
 8001386:	2b02      	cmp	r3, #2
 8001388:	d14c      	bne.n	8001424 <HAL_RCC_OscConfig+0x664>
        assert_param(IS_RCC_PLLSOURCE(RCC_OscInitStruct->PLL.PLLSource));
        assert_param(IS_RCC_PLL_MUL(RCC_OscInitStruct->PLL.PLLMUL));
        assert_param(IS_RCC_PREDIV(RCC_OscInitStruct->PLL.PREDIV));
  
        /* Disable the main PLL. */
        __HAL_RCC_PLL_DISABLE();
 800138a:	4b2c      	ldr	r3, [pc, #176]	; (800143c <HAL_RCC_OscConfig+0x67c>)
 800138c:	681a      	ldr	r2, [r3, #0]
 800138e:	4b2b      	ldr	r3, [pc, #172]	; (800143c <HAL_RCC_OscConfig+0x67c>)
 8001390:	492e      	ldr	r1, [pc, #184]	; (800144c <HAL_RCC_OscConfig+0x68c>)
 8001392:	400a      	ands	r2, r1
 8001394:	601a      	str	r2, [r3, #0]
        
        /* Get Start Tick */
        tickstart = HAL_GetTick();
 8001396:	f7ff fa91 	bl	80008bc <HAL_GetTick>
 800139a:	0003      	movs	r3, r0
 800139c:	61bb      	str	r3, [r7, #24]
        
        /* Wait till PLL is disabled */
        while(__HAL_RCC_GET_FLAG(RCC_FLAG_PLLRDY)  != RESET)
 800139e:	e008      	b.n	80013b2 <HAL_RCC_OscConfig+0x5f2>
        {
          if((HAL_GetTick() - tickstart ) > PLL_TIMEOUT_VALUE)
 80013a0:	f7ff fa8c 	bl	80008bc <HAL_GetTick>
 80013a4:	0002      	movs	r2, r0
 80013a6:	69bb      	ldr	r3, [r7, #24]
 80013a8:	1ad3      	subs	r3, r2, r3
 80013aa:	2b02      	cmp	r3, #2
 80013ac:	d901      	bls.n	80013b2 <HAL_RCC_OscConfig+0x5f2>
          {
            return HAL_TIMEOUT;
 80013ae:	2303      	movs	r3, #3
 80013b0:	e086      	b.n	80014c0 <HAL_RCC_OscConfig+0x700>
        while(__HAL_RCC_GET_FLAG(RCC_FLAG_PLLRDY)  != RESET)
 80013b2:	4b22      	ldr	r3, [pc, #136]	; (800143c <HAL_RCC_OscConfig+0x67c>)
 80013b4:	681a      	ldr	r2, [r3, #0]
 80013b6:	2380      	movs	r3, #128	; 0x80
 80013b8:	049b      	lsls	r3, r3, #18
 80013ba:	4013      	ands	r3, r2
 80013bc:	d1f0      	bne.n	80013a0 <HAL_RCC_OscConfig+0x5e0>
          }
        }

        /* Configure the main PLL clock source, predivider and multiplication factor. */
        __HAL_RCC_PLL_CONFIG(RCC_OscInitStruct->PLL.PLLSource,
 80013be:	4b1f      	ldr	r3, [pc, #124]	; (800143c <HAL_RCC_OscConfig+0x67c>)
 80013c0:	6adb      	ldr	r3, [r3, #44]	; 0x2c
 80013c2:	220f      	movs	r2, #15
 80013c4:	4393      	bics	r3, r2
 80013c6:	0019      	movs	r1, r3
 80013c8:	687b      	ldr	r3, [r7, #4]
 80013ca:	6b1a      	ldr	r2, [r3, #48]	; 0x30
 80013cc:	4b1b      	ldr	r3, [pc, #108]	; (800143c <HAL_RCC_OscConfig+0x67c>)
 80013ce:	430a      	orrs	r2, r1
 80013d0:	62da      	str	r2, [r3, #44]	; 0x2c
 80013d2:	4b1a      	ldr	r3, [pc, #104]	; (800143c <HAL_RCC_OscConfig+0x67c>)
 80013d4:	685b      	ldr	r3, [r3, #4]
 80013d6:	4a1e      	ldr	r2, [pc, #120]	; (8001450 <HAL_RCC_OscConfig+0x690>)
 80013d8:	4013      	ands	r3, r2
 80013da:	0019      	movs	r1, r3
 80013dc:	687b      	ldr	r3, [r7, #4]
 80013de:	6ada      	ldr	r2, [r3, #44]	; 0x2c
 80013e0:	687b      	ldr	r3, [r7, #4]
 80013e2:	6a9b      	ldr	r3, [r3, #40]	; 0x28
 80013e4:	431a      	orrs	r2, r3
 80013e6:	4b15      	ldr	r3, [pc, #84]	; (800143c <HAL_RCC_OscConfig+0x67c>)
 80013e8:	430a      	orrs	r2, r1
 80013ea:	605a      	str	r2, [r3, #4]
                             RCC_OscInitStruct->PLL.PREDIV,
                             RCC_OscInitStruct->PLL.PLLMUL);
        /* Enable the main PLL. */
        __HAL_RCC_PLL_ENABLE();
 80013ec:	4b13      	ldr	r3, [pc, #76]	; (800143c <HAL_RCC_OscConfig+0x67c>)
 80013ee:	681a      	ldr	r2, [r3, #0]
 80013f0:	4b12      	ldr	r3, [pc, #72]	; (800143c <HAL_RCC_OscConfig+0x67c>)
 80013f2:	2180      	movs	r1, #128	; 0x80
 80013f4:	0449      	lsls	r1, r1, #17
 80013f6:	430a      	orrs	r2, r1
 80013f8:	601a      	str	r2, [r3, #0]
        
        /* Get Start Tick */
        tickstart = HAL_GetTick();
 80013fa:	f7ff fa5f 	bl	80008bc <HAL_GetTick>
 80013fe:	0003      	movs	r3, r0
 8001400:	61bb      	str	r3, [r7, #24]
        
        /* Wait till PLL is ready */
        while(__HAL_RCC_GET_FLAG(RCC_FLAG_PLLRDY)  == RESET)
 8001402:	e008      	b.n	8001416 <HAL_RCC_OscConfig+0x656>
        {
          if((HAL_GetTick() - tickstart ) > PLL_TIMEOUT_VALUE)
 8001404:	f7ff fa5a 	bl	80008bc <HAL_GetTick>
 8001408:	0002      	movs	r2, r0
 800140a:	69bb      	ldr	r3, [r7, #24]
 800140c:	1ad3      	subs	r3, r2, r3
 800140e:	2b02      	cmp	r3, #2
 8001410:	d901      	bls.n	8001416 <HAL_RCC_OscConfig+0x656>
          {
            return HAL_TIMEOUT;
 8001412:	2303      	movs	r3, #3
 8001414:	e054      	b.n	80014c0 <HAL_RCC_OscConfig+0x700>
        while(__HAL_RCC_GET_FLAG(RCC_FLAG_PLLRDY)  == RESET)
 8001416:	4b09      	ldr	r3, [pc, #36]	; (800143c <HAL_RCC_OscConfig+0x67c>)
 8001418:	681a      	ldr	r2, [r3, #0]
 800141a:	2380      	movs	r3, #128	; 0x80
 800141c:	049b      	lsls	r3, r3, #18
 800141e:	4013      	ands	r3, r2
 8001420:	d0f0      	beq.n	8001404 <HAL_RCC_OscConfig+0x644>
 8001422:	e04c      	b.n	80014be <HAL_RCC_OscConfig+0x6fe>
        }
      }
      else
      {
        /* Disable the main PLL. */
        __HAL_RCC_PLL_DISABLE();
 8001424:	4b05      	ldr	r3, [pc, #20]	; (800143c <HAL_RCC_OscConfig+0x67c>)
 8001426:	681a      	ldr	r2, [r3, #0]
 8001428:	4b04      	ldr	r3, [pc, #16]	; (800143c <HAL_RCC_OscConfig+0x67c>)
 800142a:	4908      	ldr	r1, [pc, #32]	; (800144c <HAL_RCC_OscConfig+0x68c>)
 800142c:	400a      	ands	r2, r1
 800142e:	601a      	str	r2, [r3, #0]
 
        /* Get Start Tick */
        tickstart = HAL_GetTick();
 8001430:	f7ff fa44 	bl	80008bc <HAL_GetTick>
 8001434:	0003      	movs	r3, r0
 8001436:	61bb      	str	r3, [r7, #24]
        
        /* Wait till PLL is disabled */  
        while(__HAL_RCC_GET_FLAG(RCC_FLAG_PLLRDY)  != RESET)
 8001438:	e015      	b.n	8001466 <HAL_RCC_OscConfig+0x6a6>
 800143a:	46c0      	nop			; (mov r8, r8)
 800143c:	40021000 	.word	0x40021000
 8001440:	00001388 	.word	0x00001388
 8001444:	efffffff 	.word	0xefffffff
 8001448:	fffeffff 	.word	0xfffeffff
 800144c:	feffffff 	.word	0xfeffffff
 8001450:	ffc27fff 	.word	0xffc27fff
        {
          if((HAL_GetTick() - tickstart ) > PLL_TIMEOUT_VALUE)
 8001454:	f7ff fa32 	bl	80008bc <HAL_GetTick>
 8001458:	0002      	movs	r2, r0
 800145a:	69bb      	ldr	r3, [r7, #24]
 800145c:	1ad3      	subs	r3, r2, r3
 800145e:	2b02      	cmp	r3, #2
 8001460:	d901      	bls.n	8001466 <HAL_RCC_OscConfig+0x6a6>
          {
            return HAL_TIMEOUT;
 8001462:	2303      	movs	r3, #3
 8001464:	e02c      	b.n	80014c0 <HAL_RCC_OscConfig+0x700>
        while(__HAL_RCC_GET_FLAG(RCC_FLAG_PLLRDY)  != RESET)
 8001466:	4b18      	ldr	r3, [pc, #96]	; (80014c8 <HAL_RCC_OscConfig+0x708>)
 8001468:	681a      	ldr	r2, [r3, #0]
 800146a:	2380      	movs	r3, #128	; 0x80
 800146c:	049b      	lsls	r3, r3, #18
 800146e:	4013      	ands	r3, r2
 8001470:	d1f0      	bne.n	8001454 <HAL_RCC_OscConfig+0x694>
 8001472:	e024      	b.n	80014be <HAL_RCC_OscConfig+0x6fe>
      }
    }
    else
    {
      /* Check if there is a request to disable the PLL used as System clock source */
      if((RCC_OscInitStruct->PLL.PLLState) == RCC_PLL_OFF)
 8001474:	687b      	ldr	r3, [r7, #4]
 8001476:	6a5b      	ldr	r3, [r3, #36]	; 0x24
 8001478:	2b01      	cmp	r3, #1
 800147a:	d101      	bne.n	8001480 <HAL_RCC_OscConfig+0x6c0>
      {
        return HAL_ERROR;
 800147c:	2301      	movs	r3, #1
 800147e:	e01f      	b.n	80014c0 <HAL_RCC_OscConfig+0x700>
      }
      else
      {
        /* Do not return HAL_ERROR if request repeats the current configuration */
        pll_config  = RCC->CFGR;
 8001480:	4b11      	ldr	r3, [pc, #68]	; (80014c8 <HAL_RCC_OscConfig+0x708>)
 8001482:	685b      	ldr	r3, [r3, #4]
 8001484:	617b      	str	r3, [r7, #20]
        pll_config2 = RCC->CFGR2;
 8001486:	4b10      	ldr	r3, [pc, #64]	; (80014c8 <HAL_RCC_OscConfig+0x708>)
 8001488:	6adb      	ldr	r3, [r3, #44]	; 0x2c
 800148a:	613b      	str	r3, [r7, #16]
        if((READ_BIT(pll_config,  RCC_CFGR_PLLSRC)  != RCC_OscInitStruct->PLL.PLLSource) ||
 800148c:	697a      	ldr	r2, [r7, #20]
 800148e:	23c0      	movs	r3, #192	; 0xc0
 8001490:	025b      	lsls	r3, r3, #9
 8001492:	401a      	ands	r2, r3
 8001494:	687b      	ldr	r3, [r7, #4]
 8001496:	6a9b      	ldr	r3, [r3, #40]	; 0x28
 8001498:	429a      	cmp	r2, r3
 800149a:	d10e      	bne.n	80014ba <HAL_RCC_OscConfig+0x6fa>
           (READ_BIT(pll_config2, RCC_CFGR2_PREDIV) != RCC_OscInitStruct->PLL.PREDIV)    ||
 800149c:	693b      	ldr	r3, [r7, #16]
 800149e:	220f      	movs	r2, #15
 80014a0:	401a      	ands	r2, r3
 80014a2:	687b      	ldr	r3, [r7, #4]
 80014a4:	6b1b      	ldr	r3, [r3, #48]	; 0x30
        if((READ_BIT(pll_config,  RCC_CFGR_PLLSRC)  != RCC_OscInitStruct->PLL.PLLSource) ||
 80014a6:	429a      	cmp	r2, r3
 80014a8:	d107      	bne.n	80014ba <HAL_RCC_OscConfig+0x6fa>
           (READ_BIT(pll_config,  RCC_CFGR_PLLMUL)  != RCC_OscInitStruct->PLL.PLLMUL))
 80014aa:	697a      	ldr	r2, [r7, #20]
 80014ac:	23f0      	movs	r3, #240	; 0xf0
 80014ae:	039b      	lsls	r3, r3, #14
 80014b0:	401a      	ands	r2, r3
 80014b2:	687b      	ldr	r3, [r7, #4]
 80014b4:	6adb      	ldr	r3, [r3, #44]	; 0x2c
           (READ_BIT(pll_config2, RCC_CFGR2_PREDIV) != RCC_OscInitStruct->PLL.PREDIV)    ||
 80014b6:	429a      	cmp	r2, r3
 80014b8:	d001      	beq.n	80014be <HAL_RCC_OscConfig+0x6fe>
        {
          return HAL_ERROR;
 80014ba:	2301      	movs	r3, #1
 80014bc:	e000      	b.n	80014c0 <HAL_RCC_OscConfig+0x700>
        }
      }
    }
  }

  return HAL_OK;
 80014be:	2300      	movs	r3, #0
}
 80014c0:	0018      	movs	r0, r3
 80014c2:	46bd      	mov	sp, r7
 80014c4:	b008      	add	sp, #32
 80014c6:	bd80      	pop	{r7, pc}
 80014c8:	40021000 	.word	0x40021000

080014cc <HAL_RCC_ClockConfig>:
  *         You can use @ref HAL_RCC_GetClockConfig() function to know which clock is
  *         currently used as system clock source.
  * @retval HAL status
  */
HAL_StatusTypeDef HAL_RCC_ClockConfig(RCC_ClkInitTypeDef  *RCC_ClkInitStruct, uint32_t FLatency)
{
 80014cc:	b580      	push	{r7, lr}
 80014ce:	b084      	sub	sp, #16
 80014d0:	af00      	add	r7, sp, #0
 80014d2:	6078      	str	r0, [r7, #4]
 80014d4:	6039      	str	r1, [r7, #0]
  uint32_t tickstart;

  /* Check Null pointer */
  if(RCC_ClkInitStruct == NULL)
 80014d6:	687b      	ldr	r3, [r7, #4]
 80014d8:	2b00      	cmp	r3, #0
 80014da:	d101      	bne.n	80014e0 <HAL_RCC_ClockConfig+0x14>
  {
    return HAL_ERROR;
 80014dc:	2301      	movs	r3, #1
 80014de:	e0bf      	b.n	8001660 <HAL_RCC_ClockConfig+0x194>
  /* To correctly read data from FLASH memory, the number of wait states (LATENCY) 
  must be correctly programmed according to the frequency of the CPU clock 
    (HCLK) of the device. */

  /* Increasing the number of wait states because of higher CPU frequency */
  if(FLatency > __HAL_FLASH_GET_LATENCY())
 80014e0:	4b61      	ldr	r3, [pc, #388]	; (8001668 <HAL_RCC_ClockConfig+0x19c>)
 80014e2:	681b      	ldr	r3, [r3, #0]
 80014e4:	2201      	movs	r2, #1
 80014e6:	4013      	ands	r3, r2
 80014e8:	683a      	ldr	r2, [r7, #0]
 80014ea:	429a      	cmp	r2, r3
 80014ec:	d911      	bls.n	8001512 <HAL_RCC_ClockConfig+0x46>
  {    
    /* Program the new number of wait states to the LATENCY bits in the FLASH_ACR register */
    __HAL_FLASH_SET_LATENCY(FLatency);
 80014ee:	4b5e      	ldr	r3, [pc, #376]	; (8001668 <HAL_RCC_ClockConfig+0x19c>)
 80014f0:	681b      	ldr	r3, [r3, #0]
 80014f2:	2201      	movs	r2, #1
 80014f4:	4393      	bics	r3, r2
 80014f6:	0019      	movs	r1, r3
 80014f8:	4b5b      	ldr	r3, [pc, #364]	; (8001668 <HAL_RCC_ClockConfig+0x19c>)
 80014fa:	683a      	ldr	r2, [r7, #0]
 80014fc:	430a      	orrs	r2, r1
 80014fe:	601a      	str	r2, [r3, #0]
    
    /* Check that the new number of wait states is taken into account to access the Flash
    memory by reading the FLASH_ACR register */
    if(__HAL_FLASH_GET_LATENCY() != FLatency)
 8001500:	4b59      	ldr	r3, [pc, #356]	; (8001668 <HAL_RCC_ClockConfig+0x19c>)
 8001502:	681b      	ldr	r3, [r3, #0]
 8001504:	2201      	movs	r2, #1
 8001506:	4013      	ands	r3, r2
 8001508:	683a      	ldr	r2, [r7, #0]
 800150a:	429a      	cmp	r2, r3
 800150c:	d001      	beq.n	8001512 <HAL_RCC_ClockConfig+0x46>
    {
      return HAL_ERROR;
 800150e:	2301      	movs	r3, #1
 8001510:	e0a6      	b.n	8001660 <HAL_RCC_ClockConfig+0x194>
    }
  }

  /*-------------------------- HCLK Configuration --------------------------*/
  if(((RCC_ClkInitStruct->ClockType) & RCC_CLOCKTYPE_HCLK) == RCC_CLOCKTYPE_HCLK)
 8001512:	687b      	ldr	r3, [r7, #4]
 8001514:	681b      	ldr	r3, [r3, #0]
 8001516:	2202      	movs	r2, #2
 8001518:	4013      	ands	r3, r2
 800151a:	d015      	beq.n	8001548 <HAL_RCC_ClockConfig+0x7c>
  {
    /* Set the highest APB divider in order to ensure that we do not go through
       a non-spec phase whatever we decrease or increase HCLK. */
    if(((RCC_ClkInitStruct->ClockType) & RCC_CLOCKTYPE_PCLK1) == RCC_CLOCKTYPE_PCLK1)
 800151c:	687b      	ldr	r3, [r7, #4]
 800151e:	681b      	ldr	r3, [r3, #0]
 8001520:	2204      	movs	r2, #4
 8001522:	4013      	ands	r3, r2
 8001524:	d006      	beq.n	8001534 <HAL_RCC_ClockConfig+0x68>
    {
      MODIFY_REG(RCC->CFGR, RCC_CFGR_PPRE, RCC_HCLK_DIV16);
 8001526:	4b51      	ldr	r3, [pc, #324]	; (800166c <HAL_RCC_ClockConfig+0x1a0>)
 8001528:	685a      	ldr	r2, [r3, #4]
 800152a:	4b50      	ldr	r3, [pc, #320]	; (800166c <HAL_RCC_ClockConfig+0x1a0>)
 800152c:	21e0      	movs	r1, #224	; 0xe0
 800152e:	00c9      	lsls	r1, r1, #3
 8001530:	430a      	orrs	r2, r1
 8001532:	605a      	str	r2, [r3, #4]
    }

    /* Set the new HCLK clock divider */
    assert_param(IS_RCC_HCLK(RCC_ClkInitStruct->AHBCLKDivider));
    MODIFY_REG(RCC->CFGR, RCC_CFGR_HPRE, RCC_ClkInitStruct->AHBCLKDivider);
 8001534:	4b4d      	ldr	r3, [pc, #308]	; (800166c <HAL_RCC_ClockConfig+0x1a0>)
 8001536:	685b      	ldr	r3, [r3, #4]
 8001538:	22f0      	movs	r2, #240	; 0xf0
 800153a:	4393      	bics	r3, r2
 800153c:	0019      	movs	r1, r3
 800153e:	687b      	ldr	r3, [r7, #4]
 8001540:	689a      	ldr	r2, [r3, #8]
 8001542:	4b4a      	ldr	r3, [pc, #296]	; (800166c <HAL_RCC_ClockConfig+0x1a0>)
 8001544:	430a      	orrs	r2, r1
 8001546:	605a      	str	r2, [r3, #4]
  }

  /*------------------------- SYSCLK Configuration ---------------------------*/ 
  if(((RCC_ClkInitStruct->ClockType) & RCC_CLOCKTYPE_SYSCLK) == RCC_CLOCKTYPE_SYSCLK)
 8001548:	687b      	ldr	r3, [r7, #4]
 800154a:	681b      	ldr	r3, [r3, #0]
 800154c:	2201      	movs	r2, #1
 800154e:	4013      	ands	r3, r2
 8001550:	d04c      	beq.n	80015ec <HAL_RCC_ClockConfig+0x120>
  {
    assert_param(IS_RCC_SYSCLKSOURCE(RCC_ClkInitStruct->SYSCLKSource));
    
    /* HSE is selected as System Clock Source */
    if(RCC_ClkInitStruct->SYSCLKSource == RCC_SYSCLKSOURCE_HSE)
 8001552:	687b      	ldr	r3, [r7, #4]
 8001554:	685b      	ldr	r3, [r3, #4]
 8001556:	2b01      	cmp	r3, #1
 8001558:	d107      	bne.n	800156a <HAL_RCC_ClockConfig+0x9e>
    {
      /* Check the HSE ready flag */  
      if(__HAL_RCC_GET_FLAG(RCC_FLAG_HSERDY) == RESET)
 800155a:	4b44      	ldr	r3, [pc, #272]	; (800166c <HAL_RCC_ClockConfig+0x1a0>)
 800155c:	681a      	ldr	r2, [r3, #0]
 800155e:	2380      	movs	r3, #128	; 0x80
 8001560:	029b      	lsls	r3, r3, #10
 8001562:	4013      	ands	r3, r2
 8001564:	d120      	bne.n	80015a8 <HAL_RCC_ClockConfig+0xdc>
      {
        return HAL_ERROR;
 8001566:	2301      	movs	r3, #1
 8001568:	e07a      	b.n	8001660 <HAL_RCC_ClockConfig+0x194>
      }
    }
    /* PLL is selected as System Clock Source */
    else if(RCC_ClkInitStruct->SYSCLKSource == RCC_SYSCLKSOURCE_PLLCLK)
 800156a:	687b      	ldr	r3, [r7, #4]
 800156c:	685b      	ldr	r3, [r3, #4]
 800156e:	2b02      	cmp	r3, #2
 8001570:	d107      	bne.n	8001582 <HAL_RCC_ClockConfig+0xb6>
    {
      /* Check the PLL ready flag */  
      if(__HAL_RCC_GET_FLAG(RCC_FLAG_PLLRDY) == RESET)
 8001572:	4b3e      	ldr	r3, [pc, #248]	; (800166c <HAL_RCC_ClockConfig+0x1a0>)
 8001574:	681a      	ldr	r2, [r3, #0]
 8001576:	2380      	movs	r3, #128	; 0x80
 8001578:	049b      	lsls	r3, r3, #18
 800157a:	4013      	ands	r3, r2
 800157c:	d114      	bne.n	80015a8 <HAL_RCC_ClockConfig+0xdc>
      {
        return HAL_ERROR;
 800157e:	2301      	movs	r3, #1
 8001580:	e06e      	b.n	8001660 <HAL_RCC_ClockConfig+0x194>
      }
    }
#if defined(RCC_CFGR_SWS_HSI48)
    /* HSI48 is selected as System Clock Source */
    else if(RCC_ClkInitStruct->SYSCLKSource == RCC_SYSCLKSOURCE_HSI48)
 8001582:	687b      	ldr	r3, [r7, #4]
 8001584:	685b      	ldr	r3, [r3, #4]
 8001586:	2b03      	cmp	r3, #3
 8001588:	d107      	bne.n	800159a <HAL_RCC_ClockConfig+0xce>
    {
      /* Check the HSI48 ready flag */
      if(__HAL_RCC_GET_FLAG(RCC_FLAG_HSI48RDY) == RESET)
 800158a:	4b38      	ldr	r3, [pc, #224]	; (800166c <HAL_RCC_ClockConfig+0x1a0>)
 800158c:	6b5a      	ldr	r2, [r3, #52]	; 0x34
 800158e:	2380      	movs	r3, #128	; 0x80
 8001590:	025b      	lsls	r3, r3, #9
 8001592:	4013      	ands	r3, r2
 8001594:	d108      	bne.n	80015a8 <HAL_RCC_ClockConfig+0xdc>
      {
        return HAL_ERROR;
 8001596:	2301      	movs	r3, #1
 8001598:	e062      	b.n	8001660 <HAL_RCC_ClockConfig+0x194>
#endif /* RCC_CFGR_SWS_HSI48 */
    /* HSI is selected as System Clock Source */
    else
    {
      /* Check the HSI ready flag */  
      if(__HAL_RCC_GET_FLAG(RCC_FLAG_HSIRDY) == RESET)
 800159a:	4b34      	ldr	r3, [pc, #208]	; (800166c <HAL_RCC_ClockConfig+0x1a0>)
 800159c:	681b      	ldr	r3, [r3, #0]
 800159e:	2202      	movs	r2, #2
 80015a0:	4013      	ands	r3, r2
 80015a2:	d101      	bne.n	80015a8 <HAL_RCC_ClockConfig+0xdc>
      {
        return HAL_ERROR;
 80015a4:	2301      	movs	r3, #1
 80015a6:	e05b      	b.n	8001660 <HAL_RCC_ClockConfig+0x194>
      }
    }
    __HAL_RCC_SYSCLK_CONFIG(RCC_ClkInitStruct->SYSCLKSource);
 80015a8:	4b30      	ldr	r3, [pc, #192]	; (800166c <HAL_RCC_ClockConfig+0x1a0>)
 80015aa:	685b      	ldr	r3, [r3, #4]
 80015ac:	2203      	movs	r2, #3
 80015ae:	4393      	bics	r3, r2
 80015b0:	0019      	movs	r1, r3
 80015b2:	687b      	ldr	r3, [r7, #4]
 80015b4:	685a      	ldr	r2, [r3, #4]
 80015b6:	4b2d      	ldr	r3, [pc, #180]	; (800166c <HAL_RCC_ClockConfig+0x1a0>)
 80015b8:	430a      	orrs	r2, r1
 80015ba:	605a      	str	r2, [r3, #4]

    /* Get Start Tick */
    tickstart = HAL_GetTick();
 80015bc:	f7ff f97e 	bl	80008bc <HAL_GetTick>
 80015c0:	0003      	movs	r3, r0
 80015c2:	60fb      	str	r3, [r7, #12]
    
    while (__HAL_RCC_GET_SYSCLK_SOURCE() != (RCC_ClkInitStruct->SYSCLKSource << RCC_CFGR_SWS_Pos))
 80015c4:	e009      	b.n	80015da <HAL_RCC_ClockConfig+0x10e>
    {
      if((HAL_GetTick() - tickstart ) > CLOCKSWITCH_TIMEOUT_VALUE)
 80015c6:	f7ff f979 	bl	80008bc <HAL_GetTick>
 80015ca:	0002      	movs	r2, r0
 80015cc:	68fb      	ldr	r3, [r7, #12]
 80015ce:	1ad3      	subs	r3, r2, r3
 80015d0:	4a27      	ldr	r2, [pc, #156]	; (8001670 <HAL_RCC_ClockConfig+0x1a4>)
 80015d2:	4293      	cmp	r3, r2
 80015d4:	d901      	bls.n	80015da <HAL_RCC_ClockConfig+0x10e>
      {
        return HAL_TIMEOUT;
 80015d6:	2303      	movs	r3, #3
 80015d8:	e042      	b.n	8001660 <HAL_RCC_ClockConfig+0x194>
    while (__HAL_RCC_GET_SYSCLK_SOURCE() != (RCC_ClkInitStruct->SYSCLKSource << RCC_CFGR_SWS_Pos))
 80015da:	4b24      	ldr	r3, [pc, #144]	; (800166c <HAL_RCC_ClockConfig+0x1a0>)
 80015dc:	685b      	ldr	r3, [r3, #4]
 80015de:	220c      	movs	r2, #12
 80015e0:	401a      	ands	r2, r3
 80015e2:	687b      	ldr	r3, [r7, #4]
 80015e4:	685b      	ldr	r3, [r3, #4]
 80015e6:	009b      	lsls	r3, r3, #2
 80015e8:	429a      	cmp	r2, r3
 80015ea:	d1ec      	bne.n	80015c6 <HAL_RCC_ClockConfig+0xfa>
      }
    }
  }

  /* Decreasing the number of wait states because of lower CPU frequency */
  if(FLatency < __HAL_FLASH_GET_LATENCY())
 80015ec:	4b1e      	ldr	r3, [pc, #120]	; (8001668 <HAL_RCC_ClockConfig+0x19c>)
 80015ee:	681b      	ldr	r3, [r3, #0]
 80015f0:	2201      	movs	r2, #1
 80015f2:	4013      	ands	r3, r2
 80015f4:	683a      	ldr	r2, [r7, #0]
 80015f6:	429a      	cmp	r2, r3
 80015f8:	d211      	bcs.n	800161e <HAL_RCC_ClockConfig+0x152>
  {    
    /* Program the new number of wait states to the LATENCY bits in the FLASH_ACR register */
    __HAL_FLASH_SET_LATENCY(FLatency);
 80015fa:	4b1b      	ldr	r3, [pc, #108]	; (8001668 <HAL_RCC_ClockConfig+0x19c>)
 80015fc:	681b      	ldr	r3, [r3, #0]
 80015fe:	2201      	movs	r2, #1
 8001600:	4393      	bics	r3, r2
 8001602:	0019      	movs	r1, r3
 8001604:	4b18      	ldr	r3, [pc, #96]	; (8001668 <HAL_RCC_ClockConfig+0x19c>)
 8001606:	683a      	ldr	r2, [r7, #0]
 8001608:	430a      	orrs	r2, r1
 800160a:	601a      	str	r2, [r3, #0]
    
    /* Check that the new number of wait states is taken into account to access the Flash
    memory by reading the FLASH_ACR register */
    if(__HAL_FLASH_GET_LATENCY() != FLatency)
 800160c:	4b16      	ldr	r3, [pc, #88]	; (8001668 <HAL_RCC_ClockConfig+0x19c>)
 800160e:	681b      	ldr	r3, [r3, #0]
 8001610:	2201      	movs	r2, #1
 8001612:	4013      	ands	r3, r2
 8001614:	683a      	ldr	r2, [r7, #0]
 8001616:	429a      	cmp	r2, r3
 8001618:	d001      	beq.n	800161e <HAL_RCC_ClockConfig+0x152>
    {
      return HAL_ERROR;
 800161a:	2301      	movs	r3, #1
 800161c:	e020      	b.n	8001660 <HAL_RCC_ClockConfig+0x194>
    }
  }    

  /*-------------------------- PCLK1 Configuration ---------------------------*/ 
  if(((RCC_ClkInitStruct->ClockType) & RCC_CLOCKTYPE_PCLK1) == RCC_CLOCKTYPE_PCLK1)
 800161e:	687b      	ldr	r3, [r7, #4]
 8001620:	681b      	ldr	r3, [r3, #0]
 8001622:	2204      	movs	r2, #4
 8001624:	4013      	ands	r3, r2
 8001626:	d009      	beq.n	800163c <HAL_RCC_ClockConfig+0x170>
  {
    assert_param(IS_RCC_PCLK(RCC_ClkInitStruct->APB1CLKDivider));
    MODIFY_REG(RCC->CFGR, RCC_CFGR_PPRE, RCC_ClkInitStruct->APB1CLKDivider);
 8001628:	4b10      	ldr	r3, [pc, #64]	; (800166c <HAL_RCC_ClockConfig+0x1a0>)
 800162a:	685b      	ldr	r3, [r3, #4]
 800162c:	4a11      	ldr	r2, [pc, #68]	; (8001674 <HAL_RCC_ClockConfig+0x1a8>)
 800162e:	4013      	ands	r3, r2
 8001630:	0019      	movs	r1, r3
 8001632:	687b      	ldr	r3, [r7, #4]
 8001634:	68da      	ldr	r2, [r3, #12]
 8001636:	4b0d      	ldr	r3, [pc, #52]	; (800166c <HAL_RCC_ClockConfig+0x1a0>)
 8001638:	430a      	orrs	r2, r1
 800163a:	605a      	str	r2, [r3, #4]
  }
  
  /* Update the SystemCoreClock global variable */
  SystemCoreClock = HAL_RCC_GetSysClockFreq() >> AHBPrescTable[(RCC->CFGR & RCC_CFGR_HPRE)>> RCC_CFGR_HPRE_BITNUMBER];
 800163c:	f000 f820 	bl	8001680 <HAL_RCC_GetSysClockFreq>
 8001640:	0001      	movs	r1, r0
 8001642:	4b0a      	ldr	r3, [pc, #40]	; (800166c <HAL_RCC_ClockConfig+0x1a0>)
 8001644:	685b      	ldr	r3, [r3, #4]
 8001646:	091b      	lsrs	r3, r3, #4
 8001648:	220f      	movs	r2, #15
 800164a:	4013      	ands	r3, r2
 800164c:	4a0a      	ldr	r2, [pc, #40]	; (8001678 <HAL_RCC_ClockConfig+0x1ac>)
 800164e:	5cd3      	ldrb	r3, [r2, r3]
 8001650:	000a      	movs	r2, r1
 8001652:	40da      	lsrs	r2, r3
 8001654:	4b09      	ldr	r3, [pc, #36]	; (800167c <HAL_RCC_ClockConfig+0x1b0>)
 8001656:	601a      	str	r2, [r3, #0]

  /* Configure the source of time base considering new system clocks settings*/
  HAL_InitTick (TICK_INT_PRIORITY);
 8001658:	2000      	movs	r0, #0
 800165a:	f7ff f8e9 	bl	8000830 <HAL_InitTick>
  
  return HAL_OK;
 800165e:	2300      	movs	r3, #0
}
 8001660:	0018      	movs	r0, r3
 8001662:	46bd      	mov	sp, r7
 8001664:	b004      	add	sp, #16
 8001666:	bd80      	pop	{r7, pc}
 8001668:	40022000 	.word	0x40022000
 800166c:	40021000 	.word	0x40021000
 8001670:	00001388 	.word	0x00001388
 8001674:	fffff8ff 	.word	0xfffff8ff
 8001678:	08002850 	.word	0x08002850
 800167c:	20000000 	.word	0x20000000

08001680 <HAL_RCC_GetSysClockFreq>:
  *         right SYSCLK value. Otherwise, any configuration based on this function will be incorrect.
  *         
  * @retval SYSCLK frequency
  */
uint32_t HAL_RCC_GetSysClockFreq(void)
{
 8001680:	b590      	push	{r4, r7, lr}
 8001682:	b08f      	sub	sp, #60	; 0x3c
 8001684:	af00      	add	r7, sp, #0
  const uint8_t aPLLMULFactorTable[16] = { 2U,  3U,  4U,  5U,  6U,  7U,  8U,  9U,
 8001686:	2314      	movs	r3, #20
 8001688:	18fb      	adds	r3, r7, r3
 800168a:	4a37      	ldr	r2, [pc, #220]	; (8001768 <HAL_RCC_GetSysClockFreq+0xe8>)
 800168c:	ca13      	ldmia	r2!, {r0, r1, r4}
 800168e:	c313      	stmia	r3!, {r0, r1, r4}
 8001690:	6812      	ldr	r2, [r2, #0]
 8001692:	601a      	str	r2, [r3, #0]
                                         10U, 11U, 12U, 13U, 14U, 15U, 16U, 16U};
  const uint8_t aPredivFactorTable[16] = { 1U, 2U,  3U,  4U,  5U,  6U,  7U,  8U,
 8001694:	1d3b      	adds	r3, r7, #4
 8001696:	4a35      	ldr	r2, [pc, #212]	; (800176c <HAL_RCC_GetSysClockFreq+0xec>)
 8001698:	ca13      	ldmia	r2!, {r0, r1, r4}
 800169a:	c313      	stmia	r3!, {r0, r1, r4}
 800169c:	6812      	ldr	r2, [r2, #0]
 800169e:	601a      	str	r2, [r3, #0]
                                           9U,10U, 11U, 12U, 13U, 14U, 15U, 16U};

  uint32_t tmpreg = 0U, prediv = 0U, pllclk = 0U, pllmul = 0U;
 80016a0:	2300      	movs	r3, #0
 80016a2:	62fb      	str	r3, [r7, #44]	; 0x2c
 80016a4:	2300      	movs	r3, #0
 80016a6:	62bb      	str	r3, [r7, #40]	; 0x28
 80016a8:	2300      	movs	r3, #0
 80016aa:	637b      	str	r3, [r7, #52]	; 0x34
 80016ac:	2300      	movs	r3, #0
 80016ae:	627b      	str	r3, [r7, #36]	; 0x24
  uint32_t sysclockfreq = 0U;
 80016b0:	2300      	movs	r3, #0
 80016b2:	633b      	str	r3, [r7, #48]	; 0x30
  
  tmpreg = RCC->CFGR;
 80016b4:	4b2e      	ldr	r3, [pc, #184]	; (8001770 <HAL_RCC_GetSysClockFreq+0xf0>)
 80016b6:	685b      	ldr	r3, [r3, #4]
 80016b8:	62fb      	str	r3, [r7, #44]	; 0x2c
  
  /* Get SYSCLK source -------------------------------------------------------*/
  switch (tmpreg & RCC_CFGR_SWS)
 80016ba:	6afb      	ldr	r3, [r7, #44]	; 0x2c
 80016bc:	220c      	movs	r2, #12
 80016be:	4013      	ands	r3, r2
 80016c0:	2b08      	cmp	r3, #8
 80016c2:	d006      	beq.n	80016d2 <HAL_RCC_GetSysClockFreq+0x52>
 80016c4:	2b0c      	cmp	r3, #12
 80016c6:	d043      	beq.n	8001750 <HAL_RCC_GetSysClockFreq+0xd0>
 80016c8:	2b04      	cmp	r3, #4
 80016ca:	d144      	bne.n	8001756 <HAL_RCC_GetSysClockFreq+0xd6>
  {
    case RCC_SYSCLKSOURCE_STATUS_HSE:  /* HSE used as system clock */
    {
      sysclockfreq = HSE_VALUE;
 80016cc:	4b29      	ldr	r3, [pc, #164]	; (8001774 <HAL_RCC_GetSysClockFreq+0xf4>)
 80016ce:	633b      	str	r3, [r7, #48]	; 0x30
      break;
 80016d0:	e044      	b.n	800175c <HAL_RCC_GetSysClockFreq+0xdc>
    }
    case RCC_SYSCLKSOURCE_STATUS_PLLCLK:  /* PLL used as system clock */
    {
      pllmul = aPLLMULFactorTable[(uint32_t)(tmpreg & RCC_CFGR_PLLMUL) >> RCC_CFGR_PLLMUL_BITNUMBER];
 80016d2:	6afb      	ldr	r3, [r7, #44]	; 0x2c
 80016d4:	0c9b      	lsrs	r3, r3, #18
 80016d6:	220f      	movs	r2, #15
 80016d8:	4013      	ands	r3, r2
 80016da:	2214      	movs	r2, #20
 80016dc:	18ba      	adds	r2, r7, r2
 80016de:	5cd3      	ldrb	r3, [r2, r3]
 80016e0:	627b      	str	r3, [r7, #36]	; 0x24
      prediv = aPredivFactorTable[(uint32_t)(RCC->CFGR2 & RCC_CFGR2_PREDIV) >> RCC_CFGR2_PREDIV_BITNUMBER];
 80016e2:	4b23      	ldr	r3, [pc, #140]	; (8001770 <HAL_RCC_GetSysClockFreq+0xf0>)
 80016e4:	6adb      	ldr	r3, [r3, #44]	; 0x2c
 80016e6:	220f      	movs	r2, #15
 80016e8:	4013      	ands	r3, r2
 80016ea:	1d3a      	adds	r2, r7, #4
 80016ec:	5cd3      	ldrb	r3, [r2, r3]
 80016ee:	62bb      	str	r3, [r7, #40]	; 0x28
      if ((tmpreg & RCC_CFGR_PLLSRC) == RCC_PLLSOURCE_HSE)
 80016f0:	6afa      	ldr	r2, [r7, #44]	; 0x2c
 80016f2:	23c0      	movs	r3, #192	; 0xc0
 80016f4:	025b      	lsls	r3, r3, #9
 80016f6:	401a      	ands	r2, r3
 80016f8:	2380      	movs	r3, #128	; 0x80
 80016fa:	025b      	lsls	r3, r3, #9
 80016fc:	429a      	cmp	r2, r3
 80016fe:	d109      	bne.n	8001714 <HAL_RCC_GetSysClockFreq+0x94>
      {
        /* HSE used as PLL clock source : PLLCLK = HSE/PREDIV * PLLMUL */
        pllclk = (uint32_t)((uint64_t) HSE_VALUE / (uint64_t) (prediv)) * ((uint64_t) pllmul);
 8001700:	6ab9      	ldr	r1, [r7, #40]	; 0x28
 8001702:	481c      	ldr	r0, [pc, #112]	; (8001774 <HAL_RCC_GetSysClockFreq+0xf4>)
 8001704:	f7fe fd00 	bl	8000108 <__udivsi3>
 8001708:	0003      	movs	r3, r0
 800170a:	001a      	movs	r2, r3
 800170c:	6a7b      	ldr	r3, [r7, #36]	; 0x24
 800170e:	4353      	muls	r3, r2
 8001710:	637b      	str	r3, [r7, #52]	; 0x34
 8001712:	e01a      	b.n	800174a <HAL_RCC_GetSysClockFreq+0xca>
      }
#if defined(RCC_CFGR_PLLSRC_HSI48_PREDIV)
      else if ((tmpreg & RCC_CFGR_PLLSRC) == RCC_PLLSOURCE_HSI48)
 8001714:	6afa      	ldr	r2, [r7, #44]	; 0x2c
 8001716:	23c0      	movs	r3, #192	; 0xc0
 8001718:	025b      	lsls	r3, r3, #9
 800171a:	401a      	ands	r2, r3
 800171c:	23c0      	movs	r3, #192	; 0xc0
 800171e:	025b      	lsls	r3, r3, #9
 8001720:	429a      	cmp	r2, r3
 8001722:	d109      	bne.n	8001738 <HAL_RCC_GetSysClockFreq+0xb8>
      {
        /* HSI48 used as PLL clock source : PLLCLK = HSI48/PREDIV * PLLMUL */
        pllclk = (uint32_t)((uint64_t) HSI48_VALUE / (uint64_t) (prediv)) * ((uint64_t) pllmul);
 8001724:	6ab9      	ldr	r1, [r7, #40]	; 0x28
 8001726:	4814      	ldr	r0, [pc, #80]	; (8001778 <HAL_RCC_GetSysClockFreq+0xf8>)
 8001728:	f7fe fcee 	bl	8000108 <__udivsi3>
 800172c:	0003      	movs	r3, r0
 800172e:	001a      	movs	r2, r3
 8001730:	6a7b      	ldr	r3, [r7, #36]	; 0x24
 8001732:	4353      	muls	r3, r2
 8001734:	637b      	str	r3, [r7, #52]	; 0x34
 8001736:	e008      	b.n	800174a <HAL_RCC_GetSysClockFreq+0xca>
#endif /* RCC_CFGR_PLLSRC_HSI48_PREDIV */
      else
      {
#if  (defined(STM32F042x6) || defined(STM32F048xx) || defined(STM32F070x6) || defined(STM32F071xB) || defined(STM32F072xB) || defined(STM32F078xx) || defined(STM32F070xB) || defined(STM32F091xC) || defined(STM32F098xx) || defined(STM32F030xC))
        /* HSI used as PLL clock source : PLLCLK = HSI/PREDIV * PLLMUL */
        pllclk = (uint32_t)((uint64_t) HSI_VALUE / (uint64_t) (prediv)) * ((uint64_t) pllmul);
 8001738:	6ab9      	ldr	r1, [r7, #40]	; 0x28
 800173a:	480e      	ldr	r0, [pc, #56]	; (8001774 <HAL_RCC_GetSysClockFreq+0xf4>)
 800173c:	f7fe fce4 	bl	8000108 <__udivsi3>
 8001740:	0003      	movs	r3, r0
 8001742:	001a      	movs	r2, r3
 8001744:	6a7b      	ldr	r3, [r7, #36]	; 0x24
 8001746:	4353      	muls	r3, r2
 8001748:	637b      	str	r3, [r7, #52]	; 0x34
#else
        /* HSI used as PLL clock source : PLLCLK = HSI/2 * PLLMUL */
        pllclk = (uint32_t)((uint64_t) (HSI_VALUE >> 1U) * ((uint64_t) pllmul));
#endif
      }
      sysclockfreq = pllclk;
 800174a:	6b7b      	ldr	r3, [r7, #52]	; 0x34
 800174c:	633b      	str	r3, [r7, #48]	; 0x30
      break;
 800174e:	e005      	b.n	800175c <HAL_RCC_GetSysClockFreq+0xdc>
    }
#if defined(RCC_CFGR_SWS_HSI48)
    case RCC_SYSCLKSOURCE_STATUS_HSI48:    /* HSI48 used as system clock source */
    {
      sysclockfreq = HSI48_VALUE;
 8001750:	4b09      	ldr	r3, [pc, #36]	; (8001778 <HAL_RCC_GetSysClockFreq+0xf8>)
 8001752:	633b      	str	r3, [r7, #48]	; 0x30
      break;
 8001754:	e002      	b.n	800175c <HAL_RCC_GetSysClockFreq+0xdc>
    }
#endif /* RCC_CFGR_SWS_HSI48 */
    case RCC_SYSCLKSOURCE_STATUS_HSI:  /* HSI used as system clock source */
    default: /* HSI used as system clock */
    {
      sysclockfreq = HSI_VALUE;
 8001756:	4b07      	ldr	r3, [pc, #28]	; (8001774 <HAL_RCC_GetSysClockFreq+0xf4>)
 8001758:	633b      	str	r3, [r7, #48]	; 0x30
      break;
 800175a:	46c0      	nop			; (mov r8, r8)
    }
  }
  return sysclockfreq;
 800175c:	6b3b      	ldr	r3, [r7, #48]	; 0x30
}
 800175e:	0018      	movs	r0, r3
 8001760:	46bd      	mov	sp, r7
 8001762:	b00f      	add	sp, #60	; 0x3c
 8001764:	bd90      	pop	{r4, r7, pc}
 8001766:	46c0      	nop			; (mov r8, r8)
 8001768:	08002830 	.word	0x08002830
 800176c:	08002840 	.word	0x08002840
 8001770:	40021000 	.word	0x40021000
 8001774:	007a1200 	.word	0x007a1200
 8001778:	02dc6c00 	.word	0x02dc6c00

0800177c <HAL_RCC_GetHCLKFreq>:
  * @note   The SystemCoreClock CMSIS variable is used to store System Clock Frequency 
  *         and updated within this function
  * @retval HCLK frequency
  */
uint32_t HAL_RCC_GetHCLKFreq(void)
{
 800177c:	b580      	push	{r7, lr}
 800177e:	af00      	add	r7, sp, #0
  return SystemCoreClock;
 8001780:	4b02      	ldr	r3, [pc, #8]	; (800178c <HAL_RCC_GetHCLKFreq+0x10>)
 8001782:	681b      	ldr	r3, [r3, #0]
}
 8001784:	0018      	movs	r0, r3
 8001786:	46bd      	mov	sp, r7
 8001788:	bd80      	pop	{r7, pc}
 800178a:	46c0      	nop			; (mov r8, r8)
 800178c:	20000000 	.word	0x20000000

08001790 <HAL_RCC_GetPCLK1Freq>:
  * @note   Each time PCLK1 changes, this function must be called to update the
  *         right PCLK1 value. Otherwise, any configuration based on this function will be incorrect.
  * @retval PCLK1 frequency
  */
uint32_t HAL_RCC_GetPCLK1Freq(void)
{
 8001790:	b580      	push	{r7, lr}
 8001792:	af00      	add	r7, sp, #0
  /* Get HCLK source and Compute PCLK1 frequency ---------------------------*/
  return (HAL_RCC_GetHCLKFreq() >> APBPrescTable[(RCC->CFGR & RCC_CFGR_PPRE) >> RCC_CFGR_PPRE_BITNUMBER]);
 8001794:	f7ff fff2 	bl	800177c <HAL_RCC_GetHCLKFreq>
 8001798:	0001      	movs	r1, r0
 800179a:	4b06      	ldr	r3, [pc, #24]	; (80017b4 <HAL_RCC_GetPCLK1Freq+0x24>)
 800179c:	685b      	ldr	r3, [r3, #4]
 800179e:	0a1b      	lsrs	r3, r3, #8
 80017a0:	2207      	movs	r2, #7
 80017a2:	4013      	ands	r3, r2
 80017a4:	4a04      	ldr	r2, [pc, #16]	; (80017b8 <HAL_RCC_GetPCLK1Freq+0x28>)
 80017a6:	5cd3      	ldrb	r3, [r2, r3]
 80017a8:	40d9      	lsrs	r1, r3
 80017aa:	000b      	movs	r3, r1
}    
 80017ac:	0018      	movs	r0, r3
 80017ae:	46bd      	mov	sp, r7
 80017b0:	bd80      	pop	{r7, pc}
 80017b2:	46c0      	nop			; (mov r8, r8)
 80017b4:	40021000 	.word	0x40021000
 80017b8:	08002860 	.word	0x08002860

080017bc <HAL_TIM_PWM_Init>:
  *         Ex: call @ref HAL_TIM_PWM_DeInit() before HAL_TIM_PWM_Init()
  * @param  htim TIM PWM handle
  * @retval HAL status
  */
HAL_StatusTypeDef HAL_TIM_PWM_Init(TIM_HandleTypeDef *htim)
{
 80017bc:	b580      	push	{r7, lr}
 80017be:	b082      	sub	sp, #8
 80017c0:	af00      	add	r7, sp, #0
 80017c2:	6078      	str	r0, [r7, #4]
  /* Check the TIM handle allocation */
  if (htim == NULL)
 80017c4:	687b      	ldr	r3, [r7, #4]
 80017c6:	2b00      	cmp	r3, #0
 80017c8:	d101      	bne.n	80017ce <HAL_TIM_PWM_Init+0x12>
  {
    return HAL_ERROR;
 80017ca:	2301      	movs	r3, #1
 80017cc:	e042      	b.n	8001854 <HAL_TIM_PWM_Init+0x98>
  assert_param(IS_TIM_INSTANCE(htim->Instance));
  assert_param(IS_TIM_COUNTER_MODE(htim->Init.CounterMode));
  assert_param(IS_TIM_CLOCKDIVISION_DIV(htim->Init.ClockDivision));
  assert_param(IS_TIM_AUTORELOAD_PRELOAD(htim->Init.AutoReloadPreload));

  if (htim->State == HAL_TIM_STATE_RESET)
 80017ce:	687b      	ldr	r3, [r7, #4]
 80017d0:	223d      	movs	r2, #61	; 0x3d
 80017d2:	5c9b      	ldrb	r3, [r3, r2]
 80017d4:	b2db      	uxtb	r3, r3
 80017d6:	2b00      	cmp	r3, #0
 80017d8:	d107      	bne.n	80017ea <HAL_TIM_PWM_Init+0x2e>
  {
    /* Allocate lock resource and initialize it */
    htim->Lock = HAL_UNLOCKED;
 80017da:	687b      	ldr	r3, [r7, #4]
 80017dc:	223c      	movs	r2, #60	; 0x3c
 80017de:	2100      	movs	r1, #0
 80017e0:	5499      	strb	r1, [r3, r2]
    }
    /* Init the low level hardware : GPIO, CLOCK, NVIC */
    htim->PWM_MspInitCallback(htim);
#else
    /* Init the low level hardware : GPIO, CLOCK, NVIC and DMA */
    HAL_TIM_PWM_MspInit(htim);
 80017e2:	687b      	ldr	r3, [r7, #4]
 80017e4:	0018      	movs	r0, r3
 80017e6:	f7fe ff05 	bl	80005f4 <HAL_TIM_PWM_MspInit>
#endif /* USE_HAL_TIM_REGISTER_CALLBACKS */
  }

  /* Set the TIM state */
  htim->State = HAL_TIM_STATE_BUSY;
 80017ea:	687b      	ldr	r3, [r7, #4]
 80017ec:	223d      	movs	r2, #61	; 0x3d
 80017ee:	2102      	movs	r1, #2
 80017f0:	5499      	strb	r1, [r3, r2]

  /* Init the base time for the PWM */
  TIM_Base_SetConfig(htim->Instance, &htim->Init);
 80017f2:	687b      	ldr	r3, [r7, #4]
 80017f4:	681a      	ldr	r2, [r3, #0]
 80017f6:	687b      	ldr	r3, [r7, #4]
 80017f8:	3304      	adds	r3, #4
 80017fa:	0019      	movs	r1, r3
 80017fc:	0010      	movs	r0, r2
 80017fe:	f000 f9ff 	bl	8001c00 <TIM_Base_SetConfig>

  /* Initialize the DMA burst operation state */
  htim->DMABurstState = HAL_DMA_BURST_STATE_READY;
 8001802:	687b      	ldr	r3, [r7, #4]
 8001804:	2246      	movs	r2, #70	; 0x46
 8001806:	2101      	movs	r1, #1
 8001808:	5499      	strb	r1, [r3, r2]

  /* Initialize the TIM channels state */
  TIM_CHANNEL_STATE_SET_ALL(htim, HAL_TIM_CHANNEL_STATE_READY);
 800180a:	687b      	ldr	r3, [r7, #4]
 800180c:	223e      	movs	r2, #62	; 0x3e
 800180e:	2101      	movs	r1, #1
 8001810:	5499      	strb	r1, [r3, r2]
 8001812:	687b      	ldr	r3, [r7, #4]
 8001814:	223f      	movs	r2, #63	; 0x3f
 8001816:	2101      	movs	r1, #1
 8001818:	5499      	strb	r1, [r3, r2]
 800181a:	687b      	ldr	r3, [r7, #4]
 800181c:	2240      	movs	r2, #64	; 0x40
 800181e:	2101      	movs	r1, #1
 8001820:	5499      	strb	r1, [r3, r2]
 8001822:	687b      	ldr	r3, [r7, #4]
 8001824:	2241      	movs	r2, #65	; 0x41
 8001826:	2101      	movs	r1, #1
 8001828:	5499      	strb	r1, [r3, r2]
  TIM_CHANNEL_N_STATE_SET_ALL(htim, HAL_TIM_CHANNEL_STATE_READY);
 800182a:	687b      	ldr	r3, [r7, #4]
 800182c:	2242      	movs	r2, #66	; 0x42
 800182e:	2101      	movs	r1, #1
 8001830:	5499      	strb	r1, [r3, r2]
 8001832:	687b      	ldr	r3, [r7, #4]
 8001834:	2243      	movs	r2, #67	; 0x43
 8001836:	2101      	movs	r1, #1
 8001838:	5499      	strb	r1, [r3, r2]
 800183a:	687b      	ldr	r3, [r7, #4]
 800183c:	2244      	movs	r2, #68	; 0x44
 800183e:	2101      	movs	r1, #1
 8001840:	5499      	strb	r1, [r3, r2]
 8001842:	687b      	ldr	r3, [r7, #4]
 8001844:	2245      	movs	r2, #69	; 0x45
 8001846:	2101      	movs	r1, #1
 8001848:	5499      	strb	r1, [r3, r2]

  /* Initialize the TIM state*/
  htim->State = HAL_TIM_STATE_READY;
 800184a:	687b      	ldr	r3, [r7, #4]
 800184c:	223d      	movs	r2, #61	; 0x3d
 800184e:	2101      	movs	r1, #1
 8001850:	5499      	strb	r1, [r3, r2]

  return HAL_OK;
 8001852:	2300      	movs	r3, #0
}
 8001854:	0018      	movs	r0, r3
 8001856:	46bd      	mov	sp, r7
 8001858:	b002      	add	sp, #8
 800185a:	bd80      	pop	{r7, pc}

0800185c <HAL_TIM_PWM_Start>:
  *            @arg TIM_CHANNEL_3: TIM Channel 3 selected
  *            @arg TIM_CHANNEL_4: TIM Channel 4 selected
  * @retval HAL status
  */
HAL_StatusTypeDef HAL_TIM_PWM_Start(TIM_HandleTypeDef *htim, uint32_t Channel)
{
 800185c:	b580      	push	{r7, lr}
 800185e:	b084      	sub	sp, #16
 8001860:	af00      	add	r7, sp, #0
 8001862:	6078      	str	r0, [r7, #4]
 8001864:	6039      	str	r1, [r7, #0]

  /* Check the parameters */
  assert_param(IS_TIM_CCX_INSTANCE(htim->Instance, Channel));

  /* Check the TIM channel state */
  if (TIM_CHANNEL_STATE_GET(htim, Channel) != HAL_TIM_CHANNEL_STATE_READY)
 8001866:	683b      	ldr	r3, [r7, #0]
 8001868:	2b00      	cmp	r3, #0
 800186a:	d108      	bne.n	800187e <HAL_TIM_PWM_Start+0x22>
 800186c:	687b      	ldr	r3, [r7, #4]
 800186e:	223e      	movs	r2, #62	; 0x3e
 8001870:	5c9b      	ldrb	r3, [r3, r2]
 8001872:	b2db      	uxtb	r3, r3
 8001874:	3b01      	subs	r3, #1
 8001876:	1e5a      	subs	r2, r3, #1
 8001878:	4193      	sbcs	r3, r2
 800187a:	b2db      	uxtb	r3, r3
 800187c:	e01f      	b.n	80018be <HAL_TIM_PWM_Start+0x62>
 800187e:	683b      	ldr	r3, [r7, #0]
 8001880:	2b04      	cmp	r3, #4
 8001882:	d108      	bne.n	8001896 <HAL_TIM_PWM_Start+0x3a>
 8001884:	687b      	ldr	r3, [r7, #4]
 8001886:	223f      	movs	r2, #63	; 0x3f
 8001888:	5c9b      	ldrb	r3, [r3, r2]
 800188a:	b2db      	uxtb	r3, r3
 800188c:	3b01      	subs	r3, #1
 800188e:	1e5a      	subs	r2, r3, #1
 8001890:	4193      	sbcs	r3, r2
 8001892:	b2db      	uxtb	r3, r3
 8001894:	e013      	b.n	80018be <HAL_TIM_PWM_Start+0x62>
 8001896:	683b      	ldr	r3, [r7, #0]
 8001898:	2b08      	cmp	r3, #8
 800189a:	d108      	bne.n	80018ae <HAL_TIM_PWM_Start+0x52>
 800189c:	687b      	ldr	r3, [r7, #4]
 800189e:	2240      	movs	r2, #64	; 0x40
 80018a0:	5c9b      	ldrb	r3, [r3, r2]
 80018a2:	b2db      	uxtb	r3, r3
 80018a4:	3b01      	subs	r3, #1
 80018a6:	1e5a      	subs	r2, r3, #1
 80018a8:	4193      	sbcs	r3, r2
 80018aa:	b2db      	uxtb	r3, r3
 80018ac:	e007      	b.n	80018be <HAL_TIM_PWM_Start+0x62>
 80018ae:	687b      	ldr	r3, [r7, #4]
 80018b0:	2241      	movs	r2, #65	; 0x41
 80018b2:	5c9b      	ldrb	r3, [r3, r2]
 80018b4:	b2db      	uxtb	r3, r3
 80018b6:	3b01      	subs	r3, #1
 80018b8:	1e5a      	subs	r2, r3, #1
 80018ba:	4193      	sbcs	r3, r2
 80018bc:	b2db      	uxtb	r3, r3
 80018be:	2b00      	cmp	r3, #0
 80018c0:	d001      	beq.n	80018c6 <HAL_TIM_PWM_Start+0x6a>
  {
    return HAL_ERROR;
 80018c2:	2301      	movs	r3, #1
 80018c4:	e06a      	b.n	800199c <HAL_TIM_PWM_Start+0x140>
  }

  /* Set the TIM channel state */
  TIM_CHANNEL_STATE_SET(htim, Channel, HAL_TIM_CHANNEL_STATE_BUSY);
 80018c6:	683b      	ldr	r3, [r7, #0]
 80018c8:	2b00      	cmp	r3, #0
 80018ca:	d104      	bne.n	80018d6 <HAL_TIM_PWM_Start+0x7a>
 80018cc:	687b      	ldr	r3, [r7, #4]
 80018ce:	223e      	movs	r2, #62	; 0x3e
 80018d0:	2102      	movs	r1, #2
 80018d2:	5499      	strb	r1, [r3, r2]
 80018d4:	e013      	b.n	80018fe <HAL_TIM_PWM_Start+0xa2>
 80018d6:	683b      	ldr	r3, [r7, #0]
 80018d8:	2b04      	cmp	r3, #4
 80018da:	d104      	bne.n	80018e6 <HAL_TIM_PWM_Start+0x8a>
 80018dc:	687b      	ldr	r3, [r7, #4]
 80018de:	223f      	movs	r2, #63	; 0x3f
 80018e0:	2102      	movs	r1, #2
 80018e2:	5499      	strb	r1, [r3, r2]
 80018e4:	e00b      	b.n	80018fe <HAL_TIM_PWM_Start+0xa2>
 80018e6:	683b      	ldr	r3, [r7, #0]
 80018e8:	2b08      	cmp	r3, #8
 80018ea:	d104      	bne.n	80018f6 <HAL_TIM_PWM_Start+0x9a>
 80018ec:	687b      	ldr	r3, [r7, #4]
 80018ee:	2240      	movs	r2, #64	; 0x40
 80018f0:	2102      	movs	r1, #2
 80018f2:	5499      	strb	r1, [r3, r2]
 80018f4:	e003      	b.n	80018fe <HAL_TIM_PWM_Start+0xa2>
 80018f6:	687b      	ldr	r3, [r7, #4]
 80018f8:	2241      	movs	r2, #65	; 0x41
 80018fa:	2102      	movs	r1, #2
 80018fc:	5499      	strb	r1, [r3, r2]

  /* Enable the Capture compare channel */
  TIM_CCxChannelCmd(htim->Instance, Channel, TIM_CCx_ENABLE);
 80018fe:	687b      	ldr	r3, [r7, #4]
 8001900:	681b      	ldr	r3, [r3, #0]
 8001902:	6839      	ldr	r1, [r7, #0]
 8001904:	2201      	movs	r2, #1
 8001906:	0018      	movs	r0, r3
 8001908:	f000 fbd0 	bl	80020ac <TIM_CCxChannelCmd>

  if (IS_TIM_BREAK_INSTANCE(htim->Instance) != RESET)
 800190c:	687b      	ldr	r3, [r7, #4]
 800190e:	681b      	ldr	r3, [r3, #0]
 8001910:	4a24      	ldr	r2, [pc, #144]	; (80019a4 <HAL_TIM_PWM_Start+0x148>)
 8001912:	4293      	cmp	r3, r2
 8001914:	d009      	beq.n	800192a <HAL_TIM_PWM_Start+0xce>
 8001916:	687b      	ldr	r3, [r7, #4]
 8001918:	681b      	ldr	r3, [r3, #0]
 800191a:	4a23      	ldr	r2, [pc, #140]	; (80019a8 <HAL_TIM_PWM_Start+0x14c>)
 800191c:	4293      	cmp	r3, r2
 800191e:	d004      	beq.n	800192a <HAL_TIM_PWM_Start+0xce>
 8001920:	687b      	ldr	r3, [r7, #4]
 8001922:	681b      	ldr	r3, [r3, #0]
 8001924:	4a21      	ldr	r2, [pc, #132]	; (80019ac <HAL_TIM_PWM_Start+0x150>)
 8001926:	4293      	cmp	r3, r2
 8001928:	d101      	bne.n	800192e <HAL_TIM_PWM_Start+0xd2>
 800192a:	2301      	movs	r3, #1
 800192c:	e000      	b.n	8001930 <HAL_TIM_PWM_Start+0xd4>
 800192e:	2300      	movs	r3, #0
 8001930:	2b00      	cmp	r3, #0
 8001932:	d008      	beq.n	8001946 <HAL_TIM_PWM_Start+0xea>
  {
    /* Enable the main output */
    __HAL_TIM_MOE_ENABLE(htim);
 8001934:	687b      	ldr	r3, [r7, #4]
 8001936:	681b      	ldr	r3, [r3, #0]
 8001938:	6c5a      	ldr	r2, [r3, #68]	; 0x44
 800193a:	687b      	ldr	r3, [r7, #4]
 800193c:	681b      	ldr	r3, [r3, #0]
 800193e:	2180      	movs	r1, #128	; 0x80
 8001940:	0209      	lsls	r1, r1, #8
 8001942:	430a      	orrs	r2, r1
 8001944:	645a      	str	r2, [r3, #68]	; 0x44
  }

  /* Enable the Peripheral, except in trigger mode where enable is automatically done with trigger */
  if (IS_TIM_SLAVE_INSTANCE(htim->Instance))
 8001946:	687b      	ldr	r3, [r7, #4]
 8001948:	681b      	ldr	r3, [r3, #0]
 800194a:	4a16      	ldr	r2, [pc, #88]	; (80019a4 <HAL_TIM_PWM_Start+0x148>)
 800194c:	4293      	cmp	r3, r2
 800194e:	d00a      	beq.n	8001966 <HAL_TIM_PWM_Start+0x10a>
 8001950:	687b      	ldr	r3, [r7, #4]
 8001952:	681a      	ldr	r2, [r3, #0]
 8001954:	2380      	movs	r3, #128	; 0x80
 8001956:	05db      	lsls	r3, r3, #23
 8001958:	429a      	cmp	r2, r3
 800195a:	d004      	beq.n	8001966 <HAL_TIM_PWM_Start+0x10a>
 800195c:	687b      	ldr	r3, [r7, #4]
 800195e:	681b      	ldr	r3, [r3, #0]
 8001960:	4a13      	ldr	r2, [pc, #76]	; (80019b0 <HAL_TIM_PWM_Start+0x154>)
 8001962:	4293      	cmp	r3, r2
 8001964:	d111      	bne.n	800198a <HAL_TIM_PWM_Start+0x12e>
  {
    tmpsmcr = htim->Instance->SMCR & TIM_SMCR_SMS;
 8001966:	687b      	ldr	r3, [r7, #4]
 8001968:	681b      	ldr	r3, [r3, #0]
 800196a:	689b      	ldr	r3, [r3, #8]
 800196c:	2207      	movs	r2, #7
 800196e:	4013      	ands	r3, r2
 8001970:	60fb      	str	r3, [r7, #12]
    if (!IS_TIM_SLAVEMODE_TRIGGER_ENABLED(tmpsmcr))
 8001972:	68fb      	ldr	r3, [r7, #12]
 8001974:	2b06      	cmp	r3, #6
 8001976:	d010      	beq.n	800199a <HAL_TIM_PWM_Start+0x13e>
    {
      __HAL_TIM_ENABLE(htim);
 8001978:	687b      	ldr	r3, [r7, #4]
 800197a:	681b      	ldr	r3, [r3, #0]
 800197c:	681a      	ldr	r2, [r3, #0]
 800197e:	687b      	ldr	r3, [r7, #4]
 8001980:	681b      	ldr	r3, [r3, #0]
 8001982:	2101      	movs	r1, #1
 8001984:	430a      	orrs	r2, r1
 8001986:	601a      	str	r2, [r3, #0]
    if (!IS_TIM_SLAVEMODE_TRIGGER_ENABLED(tmpsmcr))
 8001988:	e007      	b.n	800199a <HAL_TIM_PWM_Start+0x13e>
    }
  }
  else
  {
    __HAL_TIM_ENABLE(htim);
 800198a:	687b      	ldr	r3, [r7, #4]
 800198c:	681b      	ldr	r3, [r3, #0]
 800198e:	681a      	ldr	r2, [r3, #0]
 8001990:	687b      	ldr	r3, [r7, #4]
 8001992:	681b      	ldr	r3, [r3, #0]
 8001994:	2101      	movs	r1, #1
 8001996:	430a      	orrs	r2, r1
 8001998:	601a      	str	r2, [r3, #0]
  }

  /* Return function status */
  return HAL_OK;
 800199a:	2300      	movs	r3, #0
}
 800199c:	0018      	movs	r0, r3
 800199e:	46bd      	mov	sp, r7
 80019a0:	b004      	add	sp, #16
 80019a2:	bd80      	pop	{r7, pc}
 80019a4:	40012c00 	.word	0x40012c00
 80019a8:	40014400 	.word	0x40014400
 80019ac:	40014800 	.word	0x40014800
 80019b0:	40000400 	.word	0x40000400

080019b4 <HAL_TIM_PWM_Stop>:
  *            @arg TIM_CHANNEL_3: TIM Channel 3 selected
  *            @arg TIM_CHANNEL_4: TIM Channel 4 selected
  * @retval HAL status
  */
HAL_StatusTypeDef HAL_TIM_PWM_Stop(TIM_HandleTypeDef *htim, uint32_t Channel)
{
 80019b4:	b580      	push	{r7, lr}
 80019b6:	b082      	sub	sp, #8
 80019b8:	af00      	add	r7, sp, #0
 80019ba:	6078      	str	r0, [r7, #4]
 80019bc:	6039      	str	r1, [r7, #0]
  /* Check the parameters */
  assert_param(IS_TIM_CCX_INSTANCE(htim->Instance, Channel));

  /* Disable the Capture compare channel */
  TIM_CCxChannelCmd(htim->Instance, Channel, TIM_CCx_DISABLE);
 80019be:	687b      	ldr	r3, [r7, #4]
 80019c0:	681b      	ldr	r3, [r3, #0]
 80019c2:	6839      	ldr	r1, [r7, #0]
 80019c4:	2200      	movs	r2, #0
 80019c6:	0018      	movs	r0, r3
 80019c8:	f000 fb70 	bl	80020ac <TIM_CCxChannelCmd>

  if (IS_TIM_BREAK_INSTANCE(htim->Instance) != RESET)
 80019cc:	687b      	ldr	r3, [r7, #4]
 80019ce:	681b      	ldr	r3, [r3, #0]
 80019d0:	4a2d      	ldr	r2, [pc, #180]	; (8001a88 <HAL_TIM_PWM_Stop+0xd4>)
 80019d2:	4293      	cmp	r3, r2
 80019d4:	d009      	beq.n	80019ea <HAL_TIM_PWM_Stop+0x36>
 80019d6:	687b      	ldr	r3, [r7, #4]
 80019d8:	681b      	ldr	r3, [r3, #0]
 80019da:	4a2c      	ldr	r2, [pc, #176]	; (8001a8c <HAL_TIM_PWM_Stop+0xd8>)
 80019dc:	4293      	cmp	r3, r2
 80019de:	d004      	beq.n	80019ea <HAL_TIM_PWM_Stop+0x36>
 80019e0:	687b      	ldr	r3, [r7, #4]
 80019e2:	681b      	ldr	r3, [r3, #0]
 80019e4:	4a2a      	ldr	r2, [pc, #168]	; (8001a90 <HAL_TIM_PWM_Stop+0xdc>)
 80019e6:	4293      	cmp	r3, r2
 80019e8:	d101      	bne.n	80019ee <HAL_TIM_PWM_Stop+0x3a>
 80019ea:	2301      	movs	r3, #1
 80019ec:	e000      	b.n	80019f0 <HAL_TIM_PWM_Stop+0x3c>
 80019ee:	2300      	movs	r3, #0
 80019f0:	2b00      	cmp	r3, #0
 80019f2:	d013      	beq.n	8001a1c <HAL_TIM_PWM_Stop+0x68>
  {
    /* Disable the Main Output */
    __HAL_TIM_MOE_DISABLE(htim);
 80019f4:	687b      	ldr	r3, [r7, #4]
 80019f6:	681b      	ldr	r3, [r3, #0]
 80019f8:	6a1b      	ldr	r3, [r3, #32]
 80019fa:	4a26      	ldr	r2, [pc, #152]	; (8001a94 <HAL_TIM_PWM_Stop+0xe0>)
 80019fc:	4013      	ands	r3, r2
 80019fe:	d10d      	bne.n	8001a1c <HAL_TIM_PWM_Stop+0x68>
 8001a00:	687b      	ldr	r3, [r7, #4]
 8001a02:	681b      	ldr	r3, [r3, #0]
 8001a04:	6a1b      	ldr	r3, [r3, #32]
 8001a06:	4a24      	ldr	r2, [pc, #144]	; (8001a98 <HAL_TIM_PWM_Stop+0xe4>)
 8001a08:	4013      	ands	r3, r2
 8001a0a:	d107      	bne.n	8001a1c <HAL_TIM_PWM_Stop+0x68>
 8001a0c:	687b      	ldr	r3, [r7, #4]
 8001a0e:	681b      	ldr	r3, [r3, #0]
 8001a10:	6c5a      	ldr	r2, [r3, #68]	; 0x44
 8001a12:	687b      	ldr	r3, [r7, #4]
 8001a14:	681b      	ldr	r3, [r3, #0]
 8001a16:	4921      	ldr	r1, [pc, #132]	; (8001a9c <HAL_TIM_PWM_Stop+0xe8>)
 8001a18:	400a      	ands	r2, r1
 8001a1a:	645a      	str	r2, [r3, #68]	; 0x44
  }

  /* Disable the Peripheral */
  __HAL_TIM_DISABLE(htim);
 8001a1c:	687b      	ldr	r3, [r7, #4]
 8001a1e:	681b      	ldr	r3, [r3, #0]
 8001a20:	6a1b      	ldr	r3, [r3, #32]
 8001a22:	4a1c      	ldr	r2, [pc, #112]	; (8001a94 <HAL_TIM_PWM_Stop+0xe0>)
 8001a24:	4013      	ands	r3, r2
 8001a26:	d10d      	bne.n	8001a44 <HAL_TIM_PWM_Stop+0x90>
 8001a28:	687b      	ldr	r3, [r7, #4]
 8001a2a:	681b      	ldr	r3, [r3, #0]
 8001a2c:	6a1b      	ldr	r3, [r3, #32]
 8001a2e:	4a1a      	ldr	r2, [pc, #104]	; (8001a98 <HAL_TIM_PWM_Stop+0xe4>)
 8001a30:	4013      	ands	r3, r2
 8001a32:	d107      	bne.n	8001a44 <HAL_TIM_PWM_Stop+0x90>
 8001a34:	687b      	ldr	r3, [r7, #4]
 8001a36:	681b      	ldr	r3, [r3, #0]
 8001a38:	681a      	ldr	r2, [r3, #0]
 8001a3a:	687b      	ldr	r3, [r7, #4]
 8001a3c:	681b      	ldr	r3, [r3, #0]
 8001a3e:	2101      	movs	r1, #1
 8001a40:	438a      	bics	r2, r1
 8001a42:	601a      	str	r2, [r3, #0]

  /* Set the TIM channel state */
  TIM_CHANNEL_STATE_SET(htim, Channel, HAL_TIM_CHANNEL_STATE_READY);
 8001a44:	683b      	ldr	r3, [r7, #0]
 8001a46:	2b00      	cmp	r3, #0
 8001a48:	d104      	bne.n	8001a54 <HAL_TIM_PWM_Stop+0xa0>
 8001a4a:	687b      	ldr	r3, [r7, #4]
 8001a4c:	223e      	movs	r2, #62	; 0x3e
 8001a4e:	2101      	movs	r1, #1
 8001a50:	5499      	strb	r1, [r3, r2]
 8001a52:	e013      	b.n	8001a7c <HAL_TIM_PWM_Stop+0xc8>
 8001a54:	683b      	ldr	r3, [r7, #0]
 8001a56:	2b04      	cmp	r3, #4
 8001a58:	d104      	bne.n	8001a64 <HAL_TIM_PWM_Stop+0xb0>
 8001a5a:	687b      	ldr	r3, [r7, #4]
 8001a5c:	223f      	movs	r2, #63	; 0x3f
 8001a5e:	2101      	movs	r1, #1
 8001a60:	5499      	strb	r1, [r3, r2]
 8001a62:	e00b      	b.n	8001a7c <HAL_TIM_PWM_Stop+0xc8>
 8001a64:	683b      	ldr	r3, [r7, #0]
 8001a66:	2b08      	cmp	r3, #8
 8001a68:	d104      	bne.n	8001a74 <HAL_TIM_PWM_Stop+0xc0>
 8001a6a:	687b      	ldr	r3, [r7, #4]
 8001a6c:	2240      	movs	r2, #64	; 0x40
 8001a6e:	2101      	movs	r1, #1
 8001a70:	5499      	strb	r1, [r3, r2]
 8001a72:	e003      	b.n	8001a7c <HAL_TIM_PWM_Stop+0xc8>
 8001a74:	687b      	ldr	r3, [r7, #4]
 8001a76:	2241      	movs	r2, #65	; 0x41
 8001a78:	2101      	movs	r1, #1
 8001a7a:	5499      	strb	r1, [r3, r2]

  /* Return function status */
  return HAL_OK;
 8001a7c:	2300      	movs	r3, #0
}
 8001a7e:	0018      	movs	r0, r3
 8001a80:	46bd      	mov	sp, r7
 8001a82:	b002      	add	sp, #8
 8001a84:	bd80      	pop	{r7, pc}
 8001a86:	46c0      	nop			; (mov r8, r8)
 8001a88:	40012c00 	.word	0x40012c00
 8001a8c:	40014400 	.word	0x40014400
 8001a90:	40014800 	.word	0x40014800
 8001a94:	00001111 	.word	0x00001111
 8001a98:	00000444 	.word	0x00000444
 8001a9c:	ffff7fff 	.word	0xffff7fff

08001aa0 <HAL_TIM_PWM_ConfigChannel>:
  * @retval HAL status
  */
HAL_StatusTypeDef HAL_TIM_PWM_ConfigChannel(TIM_HandleTypeDef *htim,
                                            TIM_OC_InitTypeDef *sConfig,
                                            uint32_t Channel)
{
 8001aa0:	b580      	push	{r7, lr}
 8001aa2:	b084      	sub	sp, #16
 8001aa4:	af00      	add	r7, sp, #0
 8001aa6:	60f8      	str	r0, [r7, #12]
 8001aa8:	60b9      	str	r1, [r7, #8]
 8001aaa:	607a      	str	r2, [r7, #4]
  assert_param(IS_TIM_PWM_MODE(sConfig->OCMode));
  assert_param(IS_TIM_OC_POLARITY(sConfig->OCPolarity));
  assert_param(IS_TIM_FAST_STATE(sConfig->OCFastMode));

  /* Process Locked */
  __HAL_LOCK(htim);
 8001aac:	68fb      	ldr	r3, [r7, #12]
 8001aae:	223c      	movs	r2, #60	; 0x3c
 8001ab0:	5c9b      	ldrb	r3, [r3, r2]
 8001ab2:	2b01      	cmp	r3, #1
 8001ab4:	d101      	bne.n	8001aba <HAL_TIM_PWM_ConfigChannel+0x1a>
 8001ab6:	2302      	movs	r3, #2
 8001ab8:	e09c      	b.n	8001bf4 <HAL_TIM_PWM_ConfigChannel+0x154>
 8001aba:	68fb      	ldr	r3, [r7, #12]
 8001abc:	223c      	movs	r2, #60	; 0x3c
 8001abe:	2101      	movs	r1, #1
 8001ac0:	5499      	strb	r1, [r3, r2]

  switch (Channel)
 8001ac2:	687b      	ldr	r3, [r7, #4]
 8001ac4:	2b04      	cmp	r3, #4
 8001ac6:	d029      	beq.n	8001b1c <HAL_TIM_PWM_ConfigChannel+0x7c>
 8001ac8:	d802      	bhi.n	8001ad0 <HAL_TIM_PWM_ConfigChannel+0x30>
 8001aca:	2b00      	cmp	r3, #0
 8001acc:	d005      	beq.n	8001ada <HAL_TIM_PWM_ConfigChannel+0x3a>
      htim->Instance->CCMR2 |= sConfig->OCFastMode << 8U;
      break;
    }

    default:
      break;
 8001ace:	e08c      	b.n	8001bea <HAL_TIM_PWM_ConfigChannel+0x14a>
  switch (Channel)
 8001ad0:	2b08      	cmp	r3, #8
 8001ad2:	d046      	beq.n	8001b62 <HAL_TIM_PWM_ConfigChannel+0xc2>
 8001ad4:	2b0c      	cmp	r3, #12
 8001ad6:	d065      	beq.n	8001ba4 <HAL_TIM_PWM_ConfigChannel+0x104>
      break;
 8001ad8:	e087      	b.n	8001bea <HAL_TIM_PWM_ConfigChannel+0x14a>
      TIM_OC1_SetConfig(htim->Instance, sConfig);
 8001ada:	68fb      	ldr	r3, [r7, #12]
 8001adc:	681b      	ldr	r3, [r3, #0]
 8001ade:	68ba      	ldr	r2, [r7, #8]
 8001ae0:	0011      	movs	r1, r2
 8001ae2:	0018      	movs	r0, r3
 8001ae4:	f000 f902 	bl	8001cec <TIM_OC1_SetConfig>
      htim->Instance->CCMR1 |= TIM_CCMR1_OC1PE;
 8001ae8:	68fb      	ldr	r3, [r7, #12]
 8001aea:	681b      	ldr	r3, [r3, #0]
 8001aec:	699a      	ldr	r2, [r3, #24]
 8001aee:	68fb      	ldr	r3, [r7, #12]
 8001af0:	681b      	ldr	r3, [r3, #0]
 8001af2:	2108      	movs	r1, #8
 8001af4:	430a      	orrs	r2, r1
 8001af6:	619a      	str	r2, [r3, #24]
      htim->Instance->CCMR1 &= ~TIM_CCMR1_OC1FE;
 8001af8:	68fb      	ldr	r3, [r7, #12]
 8001afa:	681b      	ldr	r3, [r3, #0]
 8001afc:	699a      	ldr	r2, [r3, #24]
 8001afe:	68fb      	ldr	r3, [r7, #12]
 8001b00:	681b      	ldr	r3, [r3, #0]
 8001b02:	2104      	movs	r1, #4
 8001b04:	438a      	bics	r2, r1
 8001b06:	619a      	str	r2, [r3, #24]
      htim->Instance->CCMR1 |= sConfig->OCFastMode;
 8001b08:	68fb      	ldr	r3, [r7, #12]
 8001b0a:	681b      	ldr	r3, [r3, #0]
 8001b0c:	6999      	ldr	r1, [r3, #24]
 8001b0e:	68bb      	ldr	r3, [r7, #8]
 8001b10:	691a      	ldr	r2, [r3, #16]
 8001b12:	68fb      	ldr	r3, [r7, #12]
 8001b14:	681b      	ldr	r3, [r3, #0]
 8001b16:	430a      	orrs	r2, r1
 8001b18:	619a      	str	r2, [r3, #24]
      break;
 8001b1a:	e066      	b.n	8001bea <HAL_TIM_PWM_ConfigChannel+0x14a>
      TIM_OC2_SetConfig(htim->Instance, sConfig);
 8001b1c:	68fb      	ldr	r3, [r7, #12]
 8001b1e:	681b      	ldr	r3, [r3, #0]
 8001b20:	68ba      	ldr	r2, [r7, #8]
 8001b22:	0011      	movs	r1, r2
 8001b24:	0018      	movs	r0, r3
 8001b26:	f000 f95f 	bl	8001de8 <TIM_OC2_SetConfig>
      htim->Instance->CCMR1 |= TIM_CCMR1_OC2PE;
 8001b2a:	68fb      	ldr	r3, [r7, #12]
 8001b2c:	681b      	ldr	r3, [r3, #0]
 8001b2e:	699a      	ldr	r2, [r3, #24]
 8001b30:	68fb      	ldr	r3, [r7, #12]
 8001b32:	681b      	ldr	r3, [r3, #0]
 8001b34:	2180      	movs	r1, #128	; 0x80
 8001b36:	0109      	lsls	r1, r1, #4
 8001b38:	430a      	orrs	r2, r1
 8001b3a:	619a      	str	r2, [r3, #24]
      htim->Instance->CCMR1 &= ~TIM_CCMR1_OC2FE;
 8001b3c:	68fb      	ldr	r3, [r7, #12]
 8001b3e:	681b      	ldr	r3, [r3, #0]
 8001b40:	699a      	ldr	r2, [r3, #24]
 8001b42:	68fb      	ldr	r3, [r7, #12]
 8001b44:	681b      	ldr	r3, [r3, #0]
 8001b46:	492d      	ldr	r1, [pc, #180]	; (8001bfc <HAL_TIM_PWM_ConfigChannel+0x15c>)
 8001b48:	400a      	ands	r2, r1
 8001b4a:	619a      	str	r2, [r3, #24]
      htim->Instance->CCMR1 |= sConfig->OCFastMode << 8U;
 8001b4c:	68fb      	ldr	r3, [r7, #12]
 8001b4e:	681b      	ldr	r3, [r3, #0]
 8001b50:	6999      	ldr	r1, [r3, #24]
 8001b52:	68bb      	ldr	r3, [r7, #8]
 8001b54:	691b      	ldr	r3, [r3, #16]
 8001b56:	021a      	lsls	r2, r3, #8
 8001b58:	68fb      	ldr	r3, [r7, #12]
 8001b5a:	681b      	ldr	r3, [r3, #0]
 8001b5c:	430a      	orrs	r2, r1
 8001b5e:	619a      	str	r2, [r3, #24]
      break;
 8001b60:	e043      	b.n	8001bea <HAL_TIM_PWM_ConfigChannel+0x14a>
      TIM_OC3_SetConfig(htim->Instance, sConfig);
 8001b62:	68fb      	ldr	r3, [r7, #12]
 8001b64:	681b      	ldr	r3, [r3, #0]
 8001b66:	68ba      	ldr	r2, [r7, #8]
 8001b68:	0011      	movs	r1, r2
 8001b6a:	0018      	movs	r0, r3
 8001b6c:	f000 f9ba 	bl	8001ee4 <TIM_OC3_SetConfig>
      htim->Instance->CCMR2 |= TIM_CCMR2_OC3PE;
 8001b70:	68fb      	ldr	r3, [r7, #12]
 8001b72:	681b      	ldr	r3, [r3, #0]
 8001b74:	69da      	ldr	r2, [r3, #28]
 8001b76:	68fb      	ldr	r3, [r7, #12]
 8001b78:	681b      	ldr	r3, [r3, #0]
 8001b7a:	2108      	movs	r1, #8
 8001b7c:	430a      	orrs	r2, r1
 8001b7e:	61da      	str	r2, [r3, #28]
      htim->Instance->CCMR2 &= ~TIM_CCMR2_OC3FE;
 8001b80:	68fb      	ldr	r3, [r7, #12]
 8001b82:	681b      	ldr	r3, [r3, #0]
 8001b84:	69da      	ldr	r2, [r3, #28]
 8001b86:	68fb      	ldr	r3, [r7, #12]
 8001b88:	681b      	ldr	r3, [r3, #0]
 8001b8a:	2104      	movs	r1, #4
 8001b8c:	438a      	bics	r2, r1
 8001b8e:	61da      	str	r2, [r3, #28]
      htim->Instance->CCMR2 |= sConfig->OCFastMode;
 8001b90:	68fb      	ldr	r3, [r7, #12]
 8001b92:	681b      	ldr	r3, [r3, #0]
 8001b94:	69d9      	ldr	r1, [r3, #28]
 8001b96:	68bb      	ldr	r3, [r7, #8]
 8001b98:	691a      	ldr	r2, [r3, #16]
 8001b9a:	68fb      	ldr	r3, [r7, #12]
 8001b9c:	681b      	ldr	r3, [r3, #0]
 8001b9e:	430a      	orrs	r2, r1
 8001ba0:	61da      	str	r2, [r3, #28]
      break;
 8001ba2:	e022      	b.n	8001bea <HAL_TIM_PWM_ConfigChannel+0x14a>
      TIM_OC4_SetConfig(htim->Instance, sConfig);
 8001ba4:	68fb      	ldr	r3, [r7, #12]
 8001ba6:	681b      	ldr	r3, [r3, #0]
 8001ba8:	68ba      	ldr	r2, [r7, #8]
 8001baa:	0011      	movs	r1, r2
 8001bac:	0018      	movs	r0, r3
 8001bae:	f000 fa19 	bl	8001fe4 <TIM_OC4_SetConfig>
      htim->Instance->CCMR2 |= TIM_CCMR2_OC4PE;
 8001bb2:	68fb      	ldr	r3, [r7, #12]
 8001bb4:	681b      	ldr	r3, [r3, #0]
 8001bb6:	69da      	ldr	r2, [r3, #28]
 8001bb8:	68fb      	ldr	r3, [r7, #12]
 8001bba:	681b      	ldr	r3, [r3, #0]
 8001bbc:	2180      	movs	r1, #128	; 0x80
 8001bbe:	0109      	lsls	r1, r1, #4
 8001bc0:	430a      	orrs	r2, r1
 8001bc2:	61da      	str	r2, [r3, #28]
      htim->Instance->CCMR2 &= ~TIM_CCMR2_OC4FE;
 8001bc4:	68fb      	ldr	r3, [r7, #12]
 8001bc6:	681b      	ldr	r3, [r3, #0]
 8001bc8:	69da      	ldr	r2, [r3, #28]
 8001bca:	68fb      	ldr	r3, [r7, #12]
 8001bcc:	681b      	ldr	r3, [r3, #0]
 8001bce:	490b      	ldr	r1, [pc, #44]	; (8001bfc <HAL_TIM_PWM_ConfigChannel+0x15c>)
 8001bd0:	400a      	ands	r2, r1
 8001bd2:	61da      	str	r2, [r3, #28]
      htim->Instance->CCMR2 |= sConfig->OCFastMode << 8U;
 8001bd4:	68fb      	ldr	r3, [r7, #12]
 8001bd6:	681b      	ldr	r3, [r3, #0]
 8001bd8:	69d9      	ldr	r1, [r3, #28]
 8001bda:	68bb      	ldr	r3, [r7, #8]
 8001bdc:	691b      	ldr	r3, [r3, #16]
 8001bde:	021a      	lsls	r2, r3, #8
 8001be0:	68fb      	ldr	r3, [r7, #12]
 8001be2:	681b      	ldr	r3, [r3, #0]
 8001be4:	430a      	orrs	r2, r1
 8001be6:	61da      	str	r2, [r3, #28]
      break;
 8001be8:	46c0      	nop			; (mov r8, r8)
  }

  __HAL_UNLOCK(htim);
 8001bea:	68fb      	ldr	r3, [r7, #12]
 8001bec:	223c      	movs	r2, #60	; 0x3c
 8001bee:	2100      	movs	r1, #0
 8001bf0:	5499      	strb	r1, [r3, r2]

  return HAL_OK;
 8001bf2:	2300      	movs	r3, #0
}
 8001bf4:	0018      	movs	r0, r3
 8001bf6:	46bd      	mov	sp, r7
 8001bf8:	b004      	add	sp, #16
 8001bfa:	bd80      	pop	{r7, pc}
 8001bfc:	fffffbff 	.word	0xfffffbff

08001c00 <TIM_Base_SetConfig>:
  * @param  TIMx TIM peripheral
  * @param  Structure TIM Base configuration structure
  * @retval None
  */
void TIM_Base_SetConfig(TIM_TypeDef *TIMx, TIM_Base_InitTypeDef *Structure)
{
 8001c00:	b580      	push	{r7, lr}
 8001c02:	b084      	sub	sp, #16
 8001c04:	af00      	add	r7, sp, #0
 8001c06:	6078      	str	r0, [r7, #4]
 8001c08:	6039      	str	r1, [r7, #0]
  uint32_t tmpcr1;
  tmpcr1 = TIMx->CR1;
 8001c0a:	687b      	ldr	r3, [r7, #4]
 8001c0c:	681b      	ldr	r3, [r3, #0]
 8001c0e:	60fb      	str	r3, [r7, #12]

  /* Set TIM Time Base Unit parameters ---------------------------------------*/
  if (IS_TIM_COUNTER_MODE_SELECT_INSTANCE(TIMx))
 8001c10:	687b      	ldr	r3, [r7, #4]
 8001c12:	4a30      	ldr	r2, [pc, #192]	; (8001cd4 <TIM_Base_SetConfig+0xd4>)
 8001c14:	4293      	cmp	r3, r2
 8001c16:	d008      	beq.n	8001c2a <TIM_Base_SetConfig+0x2a>
 8001c18:	687a      	ldr	r2, [r7, #4]
 8001c1a:	2380      	movs	r3, #128	; 0x80
 8001c1c:	05db      	lsls	r3, r3, #23
 8001c1e:	429a      	cmp	r2, r3
 8001c20:	d003      	beq.n	8001c2a <TIM_Base_SetConfig+0x2a>
 8001c22:	687b      	ldr	r3, [r7, #4]
 8001c24:	4a2c      	ldr	r2, [pc, #176]	; (8001cd8 <TIM_Base_SetConfig+0xd8>)
 8001c26:	4293      	cmp	r3, r2
 8001c28:	d108      	bne.n	8001c3c <TIM_Base_SetConfig+0x3c>
  {
    /* Select the Counter Mode */
    tmpcr1 &= ~(TIM_CR1_DIR | TIM_CR1_CMS);
 8001c2a:	68fb      	ldr	r3, [r7, #12]
 8001c2c:	2270      	movs	r2, #112	; 0x70
 8001c2e:	4393      	bics	r3, r2
 8001c30:	60fb      	str	r3, [r7, #12]
    tmpcr1 |= Structure->CounterMode;
 8001c32:	683b      	ldr	r3, [r7, #0]
 8001c34:	685b      	ldr	r3, [r3, #4]
 8001c36:	68fa      	ldr	r2, [r7, #12]
 8001c38:	4313      	orrs	r3, r2
 8001c3a:	60fb      	str	r3, [r7, #12]
  }

  if (IS_TIM_CLOCK_DIVISION_INSTANCE(TIMx))
 8001c3c:	687b      	ldr	r3, [r7, #4]
 8001c3e:	4a25      	ldr	r2, [pc, #148]	; (8001cd4 <TIM_Base_SetConfig+0xd4>)
 8001c40:	4293      	cmp	r3, r2
 8001c42:	d014      	beq.n	8001c6e <TIM_Base_SetConfig+0x6e>
 8001c44:	687a      	ldr	r2, [r7, #4]
 8001c46:	2380      	movs	r3, #128	; 0x80
 8001c48:	05db      	lsls	r3, r3, #23
 8001c4a:	429a      	cmp	r2, r3
 8001c4c:	d00f      	beq.n	8001c6e <TIM_Base_SetConfig+0x6e>
 8001c4e:	687b      	ldr	r3, [r7, #4]
 8001c50:	4a21      	ldr	r2, [pc, #132]	; (8001cd8 <TIM_Base_SetConfig+0xd8>)
 8001c52:	4293      	cmp	r3, r2
 8001c54:	d00b      	beq.n	8001c6e <TIM_Base_SetConfig+0x6e>
 8001c56:	687b      	ldr	r3, [r7, #4]
 8001c58:	4a20      	ldr	r2, [pc, #128]	; (8001cdc <TIM_Base_SetConfig+0xdc>)
 8001c5a:	4293      	cmp	r3, r2
 8001c5c:	d007      	beq.n	8001c6e <TIM_Base_SetConfig+0x6e>
 8001c5e:	687b      	ldr	r3, [r7, #4]
 8001c60:	4a1f      	ldr	r2, [pc, #124]	; (8001ce0 <TIM_Base_SetConfig+0xe0>)
 8001c62:	4293      	cmp	r3, r2
 8001c64:	d003      	beq.n	8001c6e <TIM_Base_SetConfig+0x6e>
 8001c66:	687b      	ldr	r3, [r7, #4]
 8001c68:	4a1e      	ldr	r2, [pc, #120]	; (8001ce4 <TIM_Base_SetConfig+0xe4>)
 8001c6a:	4293      	cmp	r3, r2
 8001c6c:	d108      	bne.n	8001c80 <TIM_Base_SetConfig+0x80>
  {
    /* Set the clock division */
    tmpcr1 &= ~TIM_CR1_CKD;
 8001c6e:	68fb      	ldr	r3, [r7, #12]
 8001c70:	4a1d      	ldr	r2, [pc, #116]	; (8001ce8 <TIM_Base_SetConfig+0xe8>)
 8001c72:	4013      	ands	r3, r2
 8001c74:	60fb      	str	r3, [r7, #12]
    tmpcr1 |= (uint32_t)Structure->ClockDivision;
 8001c76:	683b      	ldr	r3, [r7, #0]
 8001c78:	68db      	ldr	r3, [r3, #12]
 8001c7a:	68fa      	ldr	r2, [r7, #12]
 8001c7c:	4313      	orrs	r3, r2
 8001c7e:	60fb      	str	r3, [r7, #12]
  }

  /* Set the auto-reload preload */
  MODIFY_REG(tmpcr1, TIM_CR1_ARPE, Structure->AutoReloadPreload);
 8001c80:	68fb      	ldr	r3, [r7, #12]
 8001c82:	2280      	movs	r2, #128	; 0x80
 8001c84:	4393      	bics	r3, r2
 8001c86:	001a      	movs	r2, r3
 8001c88:	683b      	ldr	r3, [r7, #0]
 8001c8a:	695b      	ldr	r3, [r3, #20]
 8001c8c:	4313      	orrs	r3, r2
 8001c8e:	60fb      	str	r3, [r7, #12]

  TIMx->CR1 = tmpcr1;
 8001c90:	687b      	ldr	r3, [r7, #4]
 8001c92:	68fa      	ldr	r2, [r7, #12]
 8001c94:	601a      	str	r2, [r3, #0]

  /* Set the Autoreload value */
  TIMx->ARR = (uint32_t)Structure->Period ;
 8001c96:	683b      	ldr	r3, [r7, #0]
 8001c98:	689a      	ldr	r2, [r3, #8]
 8001c9a:	687b      	ldr	r3, [r7, #4]
 8001c9c:	62da      	str	r2, [r3, #44]	; 0x2c

  /* Set the Prescaler value */
  TIMx->PSC = Structure->Prescaler;
 8001c9e:	683b      	ldr	r3, [r7, #0]
 8001ca0:	681a      	ldr	r2, [r3, #0]
 8001ca2:	687b      	ldr	r3, [r7, #4]
 8001ca4:	629a      	str	r2, [r3, #40]	; 0x28

  if (IS_TIM_REPETITION_COUNTER_INSTANCE(TIMx))
 8001ca6:	687b      	ldr	r3, [r7, #4]
 8001ca8:	4a0a      	ldr	r2, [pc, #40]	; (8001cd4 <TIM_Base_SetConfig+0xd4>)
 8001caa:	4293      	cmp	r3, r2
 8001cac:	d007      	beq.n	8001cbe <TIM_Base_SetConfig+0xbe>
 8001cae:	687b      	ldr	r3, [r7, #4]
