
test_comm_gpio.elf:     file format elf32-littlearm

Sections:
Idx Name          Size      VMA       LMA       File off  Algn
  0 .isr_vector   000000c0  08000000  08000000  00010000  2**0
                  CONTENTS, ALLOC, LOAD, READONLY, DATA
  1 .text         00001b50  080000c0  080000c0  000100c0  2**2
                  CONTENTS, ALLOC, LOAD, READONLY, CODE
  2 .rodata       00000038  08001c10  08001c10  00011c10  2**2
                  CONTENTS, ALLOC, LOAD, READONLY, DATA
  3 .ARM.extab    00000000  08001c48  08001c48  0002000c  2**0
                  CONTENTS
  4 .ARM          00000000  08001c48  08001c48  0002000c  2**0
                  CONTENTS
  5 .preinit_array 00000000  08001c48  08001c48  0002000c  2**0
                  CONTENTS, ALLOC, LOAD, DATA
  6 .init_array   00000004  08001c48  08001c48  00011c48  2**2
                  CONTENTS, ALLOC, LOAD, DATA
  7 .fini_array   00000004  08001c4c  08001c4c  00011c4c  2**2
                  CONTENTS, ALLOC, LOAD, DATA
  8 .data         0000000c  20000000  08001c50  00020000  2**2
                  CONTENTS, ALLOC, LOAD, DATA
  9 .bss          000000a4  2000000c  08001c5c  0002000c  2**2
                  ALLOC
 10 ._user_heap_stack 00000600  200000b0  08001c5c  000200b0  2**0
                  ALLOC
 11 .ARM.attributes 00000028  00000000  00000000  0002000c  2**0
                  CONTENTS, READONLY
 12 .debug_info   00004b62  00000000  00000000  00020034  2**0
                  CONTENTS, READONLY, DEBUGGING
 13 .debug_abbrev 00000fce  00000000  00000000  00024b96  2**0
                  CONTENTS, READONLY, DEBUGGING
 14 .debug_aranges 00000590  00000000  00000000  00025b68  2**3
                  CONTENTS, READONLY, DEBUGGING
 15 .debug_ranges 00000528  00000000  00000000  000260f8  2**3
                  CONTENTS, READONLY, DEBUGGING
 16 .debug_macro  00016f50  00000000  00000000  00026620  2**0
                  CONTENTS, READONLY, DEBUGGING
 17 .debug_line   000050b3  00000000  00000000  0003d570  2**0
                  CONTENTS, READONLY, DEBUGGING
 18 .debug_str    0008488d  00000000  00000000  00042623  2**0
                  CONTENTS, READONLY, DEBUGGING
 19 .comment      0000007b  00000000  00000000  000c6eb0  2**0
                  CONTENTS, READONLY
 20 .debug_frame  000012a4  00000000  00000000  000c6f2c  2**2
                  CONTENTS, READONLY, DEBUGGING

Disassembly of section .text:

080000c0 <__do_global_dtors_aux>:
 80000c0:	b510      	push	{r4, lr}
 80000c2:	4c06      	ldr	r4, [pc, #24]	; (80000dc <__do_global_dtors_aux+0x1c>)
 80000c4:	7823      	ldrb	r3, [r4, #0]
 80000c6:	2b00      	cmp	r3, #0
 80000c8:	d107      	bne.n	80000da <__do_global_dtors_aux+0x1a>
 80000ca:	4b05      	ldr	r3, [pc, #20]	; (80000e0 <__do_global_dtors_aux+0x20>)
 80000cc:	2b00      	cmp	r3, #0
 80000ce:	d002      	beq.n	80000d6 <__do_global_dtors_aux+0x16>
 80000d0:	4804      	ldr	r0, [pc, #16]	; (80000e4 <__do_global_dtors_aux+0x24>)
 80000d2:	e000      	b.n	80000d6 <__do_global_dtors_aux+0x16>
 80000d4:	bf00      	nop
 80000d6:	2301      	movs	r3, #1
 80000d8:	7023      	strb	r3, [r4, #0]
 80000da:	bd10      	pop	{r4, pc}
 80000dc:	2000000c 	.word	0x2000000c
 80000e0:	00000000 	.word	0x00000000
 80000e4:	08001bf8 	.word	0x08001bf8

080000e8 <frame_dummy>:
 80000e8:	4b04      	ldr	r3, [pc, #16]	; (80000fc <frame_dummy+0x14>)
 80000ea:	b510      	push	{r4, lr}
 80000ec:	2b00      	cmp	r3, #0
 80000ee:	d003      	beq.n	80000f8 <frame_dummy+0x10>
 80000f0:	4903      	ldr	r1, [pc, #12]	; (8000100 <frame_dummy+0x18>)
 80000f2:	4804      	ldr	r0, [pc, #16]	; (8000104 <frame_dummy+0x1c>)
 80000f4:	e000      	b.n	80000f8 <frame_dummy+0x10>
 80000f6:	bf00      	nop
 80000f8:	bd10      	pop	{r4, pc}
 80000fa:	46c0      	nop			; (mov r8, r8)
 80000fc:	00000000 	.word	0x00000000
 8000100:	20000010 	.word	0x20000010
 8000104:	08001bf8 	.word	0x08001bf8

08000108 <__udivsi3>:
 8000108:	2200      	movs	r2, #0
 800010a:	0843      	lsrs	r3, r0, #1
 800010c:	428b      	cmp	r3, r1
 800010e:	d374      	bcc.n	80001fa <__udivsi3+0xf2>
 8000110:	0903      	lsrs	r3, r0, #4
 8000112:	428b      	cmp	r3, r1
 8000114:	d35f      	bcc.n	80001d6 <__udivsi3+0xce>
 8000116:	0a03      	lsrs	r3, r0, #8
 8000118:	428b      	cmp	r3, r1
 800011a:	d344      	bcc.n	80001a6 <__udivsi3+0x9e>
 800011c:	0b03      	lsrs	r3, r0, #12
 800011e:	428b      	cmp	r3, r1
 8000120:	d328      	bcc.n	8000174 <__udivsi3+0x6c>
 8000122:	0c03      	lsrs	r3, r0, #16
 8000124:	428b      	cmp	r3, r1
 8000126:	d30d      	bcc.n	8000144 <__udivsi3+0x3c>
 8000128:	22ff      	movs	r2, #255	; 0xff
 800012a:	0209      	lsls	r1, r1, #8
 800012c:	ba12      	rev	r2, r2
 800012e:	0c03      	lsrs	r3, r0, #16
 8000130:	428b      	cmp	r3, r1
 8000132:	d302      	bcc.n	800013a <__udivsi3+0x32>
 8000134:	1212      	asrs	r2, r2, #8
 8000136:	0209      	lsls	r1, r1, #8
 8000138:	d065      	beq.n	8000206 <__udivsi3+0xfe>
 800013a:	0b03      	lsrs	r3, r0, #12
 800013c:	428b      	cmp	r3, r1
 800013e:	d319      	bcc.n	8000174 <__udivsi3+0x6c>
 8000140:	e000      	b.n	8000144 <__udivsi3+0x3c>
 8000142:	0a09      	lsrs	r1, r1, #8
 8000144:	0bc3      	lsrs	r3, r0, #15
 8000146:	428b      	cmp	r3, r1
 8000148:	d301      	bcc.n	800014e <__udivsi3+0x46>
 800014a:	03cb      	lsls	r3, r1, #15
 800014c:	1ac0      	subs	r0, r0, r3
 800014e:	4152      	adcs	r2, r2
 8000150:	0b83      	lsrs	r3, r0, #14
 8000152:	428b      	cmp	r3, r1
 8000154:	d301      	bcc.n	800015a <__udivsi3+0x52>
 8000156:	038b      	lsls	r3, r1, #14
 8000158:	1ac0      	subs	r0, r0, r3
 800015a:	4152      	adcs	r2, r2
 800015c:	0b43      	lsrs	r3, r0, #13
 800015e:	428b      	cmp	r3, r1
 8000160:	d301      	bcc.n	8000166 <__udivsi3+0x5e>
 8000162:	034b      	lsls	r3, r1, #13
 8000164:	1ac0      	subs	r0, r0, r3
 8000166:	4152      	adcs	r2, r2
 8000168:	0b03      	lsrs	r3, r0, #12
 800016a:	428b      	cmp	r3, r1
 800016c:	d301      	bcc.n	8000172 <__udivsi3+0x6a>
 800016e:	030b      	lsls	r3, r1, #12
 8000170:	1ac0      	subs	r0, r0, r3
 8000172:	4152      	adcs	r2, r2
 8000174:	0ac3      	lsrs	r3, r0, #11
 8000176:	428b      	cmp	r3, r1
 8000178:	d301      	bcc.n	800017e <__udivsi3+0x76>
 800017a:	02cb      	lsls	r3, r1, #11
 800017c:	1ac0      	subs	r0, r0, r3
 800017e:	4152      	adcs	r2, r2
 8000180:	0a83      	lsrs	r3, r0, #10
 8000182:	428b      	cmp	r3, r1
 8000184:	d301      	bcc.n	800018a <__udivsi3+0x82>
 8000186:	028b      	lsls	r3, r1, #10
 8000188:	1ac0      	subs	r0, r0, r3
 800018a:	4152      	adcs	r2, r2
 800018c:	0a43      	lsrs	r3, r0, #9
 800018e:	428b      	cmp	r3, r1
 8000190:	d301      	bcc.n	8000196 <__udivsi3+0x8e>
 8000192:	024b      	lsls	r3, r1, #9
 8000194:	1ac0      	subs	r0, r0, r3
 8000196:	4152      	adcs	r2, r2
 8000198:	0a03      	lsrs	r3, r0, #8
 800019a:	428b      	cmp	r3, r1
 800019c:	d301      	bcc.n	80001a2 <__udivsi3+0x9a>
 800019e:	020b      	lsls	r3, r1, #8
 80001a0:	1ac0      	subs	r0, r0, r3
 80001a2:	4152      	adcs	r2, r2
 80001a4:	d2cd      	bcs.n	8000142 <__udivsi3+0x3a>
 80001a6:	09c3      	lsrs	r3, r0, #7
 80001a8:	428b      	cmp	r3, r1
 80001aa:	d301      	bcc.n	80001b0 <__udivsi3+0xa8>
 80001ac:	01cb      	lsls	r3, r1, #7
 80001ae:	1ac0      	subs	r0, r0, r3
 80001b0:	4152      	adcs	r2, r2
 80001b2:	0983      	lsrs	r3, r0, #6
 80001b4:	428b      	cmp	r3, r1
 80001b6:	d301      	bcc.n	80001bc <__udivsi3+0xb4>
 80001b8:	018b      	lsls	r3, r1, #6
 80001ba:	1ac0      	subs	r0, r0, r3
 80001bc:	4152      	adcs	r2, r2
 80001be:	0943      	lsrs	r3, r0, #5
 80001c0:	428b      	cmp	r3, r1
 80001c2:	d301      	bcc.n	80001c8 <__udivsi3+0xc0>
 80001c4:	014b      	lsls	r3, r1, #5
 80001c6:	1ac0      	subs	r0, r0, r3
 80001c8:	4152      	adcs	r2, r2
 80001ca:	0903      	lsrs	r3, r0, #4
 80001cc:	428b      	cmp	r3, r1
 80001ce:	d301      	bcc.n	80001d4 <__udivsi3+0xcc>
 80001d0:	010b      	lsls	r3, r1, #4
 80001d2:	1ac0      	subs	r0, r0, r3
 80001d4:	4152      	adcs	r2, r2
 80001d6:	08c3      	lsrs	r3, r0, #3
 80001d8:	428b      	cmp	r3, r1
 80001da:	d301      	bcc.n	80001e0 <__udivsi3+0xd8>
 80001dc:	00cb      	lsls	r3, r1, #3
 80001de:	1ac0      	subs	r0, r0, r3
 80001e0:	4152      	adcs	r2, r2
 80001e2:	0883      	lsrs	r3, r0, #2
 80001e4:	428b      	cmp	r3, r1
 80001e6:	d301      	bcc.n	80001ec <__udivsi3+0xe4>
 80001e8:	008b      	lsls	r3, r1, #2
 80001ea:	1ac0      	subs	r0, r0, r3
 80001ec:	4152      	adcs	r2, r2
 80001ee:	0843      	lsrs	r3, r0, #1
 80001f0:	428b      	cmp	r3, r1
 80001f2:	d301      	bcc.n	80001f8 <__udivsi3+0xf0>
 80001f4:	004b      	lsls	r3, r1, #1
 80001f6:	1ac0      	subs	r0, r0, r3
 80001f8:	4152      	adcs	r2, r2
 80001fa:	1a41      	subs	r1, r0, r1
 80001fc:	d200      	bcs.n	8000200 <__udivsi3+0xf8>
 80001fe:	4601      	mov	r1, r0
 8000200:	4152      	adcs	r2, r2
 8000202:	4610      	mov	r0, r2
 8000204:	4770      	bx	lr
 8000206:	e7ff      	b.n	8000208 <__udivsi3+0x100>
 8000208:	b501      	push	{r0, lr}
 800020a:	2000      	movs	r0, #0
 800020c:	f000 f806 	bl	800021c <__aeabi_idiv0>
 8000210:	bd02      	pop	{r1, pc}
 8000212:	46c0      	nop			; (mov r8, r8)

08000214 <__aeabi_uidivmod>:
 8000214:	2900      	cmp	r1, #0
 8000216:	d0f7      	beq.n	8000208 <__udivsi3+0x100>
 8000218:	e776      	b.n	8000108 <__udivsi3>
 800021a:	4770      	bx	lr

0800021c <__aeabi_idiv0>:
 800021c:	4770      	bx	lr
 800021e:	46c0      	nop			; (mov r8, r8)

08000220 <main>:
/**
  * @brief  The application entry point.
  * @retval int
  */
int main(void)
{
 8000220:	b580      	push	{r7, lr}
 8000222:	af00      	add	r7, sp, #0
  /* USER CODE END 1 */

  /* MCU Configuration--------------------------------------------------------*/

  /* Reset of all peripherals, Initializes the Flash interface and the Systick. */
  HAL_Init();
 8000224:	f000 f9f6 	bl	8000614 <HAL_Init>
  /* USER CODE BEGIN Init */

  /* USER CODE END Init */

  /* Configure the system clock */
  SystemClock_Config();
 8000228:	f000 f830 	bl	800028c <SystemClock_Config>
  /* USER CODE BEGIN SysInit */

  /* USER CODE END SysInit */

  /* Initialize all configured peripherals */
  MX_GPIO_Init();
 800022c:	f000 f89e 	bl	800036c <MX_GPIO_Init>
  MX_USART2_UART_Init();
 8000230:	f000 f86c 	bl	800030c <MX_USART2_UART_Init>

  /* USER CODE END 2 */

  /* Infinite loop */
  /* USER CODE BEGIN WHILE */
  HAL_GPIO_WritePin(LED_GPIO_Port, LED_Pin, GPIO_PIN_RESET);
 8000234:	4b14      	ldr	r3, [pc, #80]	; (8000288 <main+0x68>)
 8000236:	2200      	movs	r2, #0
 8000238:	2108      	movs	r1, #8
 800023a:	0018      	movs	r0, r3
 800023c:	f000 fc87 	bl	8000b4e <HAL_GPIO_WritePin>
    while (1)
    {
      /* USER CODE END WHILE */
  	  if (HAL_GPIO_ReadPin(GPIOA,GPIO_PIN_0))
 8000240:	2390      	movs	r3, #144	; 0x90
 8000242:	05db      	lsls	r3, r3, #23
 8000244:	2101      	movs	r1, #1
 8000246:	0018      	movs	r0, r3
 8000248:	f000 fc64 	bl	8000b14 <HAL_GPIO_ReadPin>
 800024c:	1e03      	subs	r3, r0, #0
 800024e:	d00d      	beq.n	800026c <main+0x4c>
  	  {
  		  HAL_GPIO_WritePin(LED_GPIO_Port, LED_Pin, GPIO_PIN_SET);
 8000250:	4b0d      	ldr	r3, [pc, #52]	; (8000288 <main+0x68>)
 8000252:	2201      	movs	r2, #1
 8000254:	2108      	movs	r1, #8
 8000256:	0018      	movs	r0, r3
 8000258:	f000 fc79 	bl	8000b4e <HAL_GPIO_WritePin>
  		  HAL_GPIO_WritePin(GPIOA, GPIO_PIN_1, GPIO_PIN_SET);
 800025c:	2390      	movs	r3, #144	; 0x90
 800025e:	05db      	lsls	r3, r3, #23
 8000260:	2201      	movs	r2, #1
 8000262:	2102      	movs	r1, #2
 8000264:	0018      	movs	r0, r3
 8000266:	f000 fc72 	bl	8000b4e <HAL_GPIO_WritePin>
 800026a:	e7e9      	b.n	8000240 <main+0x20>

  	  }
  	  else
  	  {
  		  HAL_GPIO_WritePin(LED_GPIO_Port, LED_Pin, GPIO_PIN_RESET);
 800026c:	4b06      	ldr	r3, [pc, #24]	; (8000288 <main+0x68>)
 800026e:	2200      	movs	r2, #0
 8000270:	2108      	movs	r1, #8
 8000272:	0018      	movs	r0, r3
 8000274:	f000 fc6b 	bl	8000b4e <HAL_GPIO_WritePin>
  		  HAL_GPIO_WritePin(GPIOA, GPIO_PIN_1, GPIO_PIN_RESET);
 8000278:	2390      	movs	r3, #144	; 0x90
 800027a:	05db      	lsls	r3, r3, #23
 800027c:	2200      	movs	r2, #0
 800027e:	2102      	movs	r1, #2
 8000280:	0018      	movs	r0, r3
 8000282:	f000 fc64 	bl	8000b4e <HAL_GPIO_WritePin>
  	  if (HAL_GPIO_ReadPin(GPIOA,GPIO_PIN_0))
 8000286:	e7db      	b.n	8000240 <main+0x20>
 8000288:	48000400 	.word	0x48000400

0800028c <SystemClock_Config>:
/**
  * @brief System Clock Configuration
  * @retval None
  */
void SystemClock_Config(void)
{
 800028c:	b590      	push	{r4, r7, lr}
 800028e:	b093      	sub	sp, #76	; 0x4c
 8000290:	af00      	add	r7, sp, #0
  RCC_OscInitTypeDef RCC_OscInitStruct = {0};
 8000292:	2414      	movs	r4, #20
 8000294:	193b      	adds	r3, r7, r4
 8000296:	0018      	movs	r0, r3
 8000298:	2334      	movs	r3, #52	; 0x34
 800029a:	001a      	movs	r2, r3
 800029c:	2100      	movs	r1, #0
 800029e:	f001 fca3 	bl	8001be8 <memset>
  RCC_ClkInitTypeDef RCC_ClkInitStruct = {0};
 80002a2:	1d3b      	adds	r3, r7, #4
 80002a4:	0018      	movs	r0, r3
 80002a6:	2310      	movs	r3, #16
 80002a8:	001a      	movs	r2, r3
 80002aa:	2100      	movs	r1, #0
 80002ac:	f001 fc9c 	bl	8001be8 <memset>

  /** Initializes the RCC Oscillators according to the specified parameters
  * in the RCC_OscInitTypeDef structure.
  */
  RCC_OscInitStruct.OscillatorType = RCC_OSCILLATORTYPE_HSI;
 80002b0:	0021      	movs	r1, r4
 80002b2:	187b      	adds	r3, r7, r1
 80002b4:	2202      	movs	r2, #2
 80002b6:	601a      	str	r2, [r3, #0]
  RCC_OscInitStruct.HSIState = RCC_HSI_ON;
 80002b8:	187b      	adds	r3, r7, r1
 80002ba:	2201      	movs	r2, #1
 80002bc:	60da      	str	r2, [r3, #12]
  RCC_OscInitStruct.HSICalibrationValue = RCC_HSICALIBRATION_DEFAULT;
 80002be:	187b      	adds	r3, r7, r1
 80002c0:	2210      	movs	r2, #16
 80002c2:	611a      	str	r2, [r3, #16]
  RCC_OscInitStruct.PLL.PLLState = RCC_PLL_NONE;
 80002c4:	187b      	adds	r3, r7, r1
 80002c6:	2200      	movs	r2, #0
 80002c8:	625a      	str	r2, [r3, #36]	; 0x24
  if (HAL_RCC_OscConfig(&RCC_OscInitStruct) != HAL_OK)
 80002ca:	187b      	adds	r3, r7, r1
 80002cc:	0018      	movs	r0, r3
 80002ce:	f000 fc5b 	bl	8000b88 <HAL_RCC_OscConfig>
 80002d2:	1e03      	subs	r3, r0, #0
 80002d4:	d001      	beq.n	80002da <SystemClock_Config+0x4e>
  {
    Error_Handler();
 80002d6:	f000 f8c9 	bl	800046c <Error_Handler>
  }
  /** Initializes the CPU, AHB and APB buses clocks
  */
  RCC_ClkInitStruct.ClockType = RCC_CLOCKTYPE_HCLK|RCC_CLOCKTYPE_SYSCLK
 80002da:	1d3b      	adds	r3, r7, #4
 80002dc:	2207      	movs	r2, #7
 80002de:	601a      	str	r2, [r3, #0]
                              |RCC_CLOCKTYPE_PCLK1;
  RCC_ClkInitStruct.SYSCLKSource = RCC_SYSCLKSOURCE_HSI;
 80002e0:	1d3b      	adds	r3, r7, #4
 80002e2:	2200      	movs	r2, #0
 80002e4:	605a      	str	r2, [r3, #4]
  RCC_ClkInitStruct.AHBCLKDivider = RCC_SYSCLK_DIV1;
 80002e6:	1d3b      	adds	r3, r7, #4
 80002e8:	2200      	movs	r2, #0
 80002ea:	609a      	str	r2, [r3, #8]
  RCC_ClkInitStruct.APB1CLKDivider = RCC_HCLK_DIV1;
 80002ec:	1d3b      	adds	r3, r7, #4
 80002ee:	2200      	movs	r2, #0
 80002f0:	60da      	str	r2, [r3, #12]

  if (HAL_RCC_ClockConfig(&RCC_ClkInitStruct, FLASH_LATENCY_0) != HAL_OK)
 80002f2:	1d3b      	adds	r3, r7, #4
 80002f4:	2100      	movs	r1, #0
 80002f6:	0018      	movs	r0, r3
 80002f8:	f000 ffcc 	bl	8001294 <HAL_RCC_ClockConfig>
 80002fc:	1e03      	subs	r3, r0, #0
 80002fe:	d001      	beq.n	8000304 <SystemClock_Config+0x78>
  {
    Error_Handler();
 8000300:	f000 f8b4 	bl	800046c <Error_Handler>
  }
}
 8000304:	46c0      	nop			; (mov r8, r8)
 8000306:	46bd      	mov	sp, r7
 8000308:	b013      	add	sp, #76	; 0x4c
 800030a:	bd90      	pop	{r4, r7, pc}

0800030c <MX_USART2_UART_Init>:
  * @brief USART2 Initialization Function
  * @param None
  * @retval None
  */
static void MX_USART2_UART_Init(void)
{
 800030c:	b580      	push	{r7, lr}
 800030e:	af00      	add	r7, sp, #0
  /* USER CODE END USART2_Init 0 */

  /* USER CODE BEGIN USART2_Init 1 */

  /* USER CODE END USART2_Init 1 */
  huart2.Instance = USART2;
 8000310:	4b14      	ldr	r3, [pc, #80]	; (8000364 <MX_USART2_UART_Init+0x58>)
 8000312:	4a15      	ldr	r2, [pc, #84]	; (8000368 <MX_USART2_UART_Init+0x5c>)
 8000314:	601a      	str	r2, [r3, #0]
  huart2.Init.BaudRate = 38400;
 8000316:	4b13      	ldr	r3, [pc, #76]	; (8000364 <MX_USART2_UART_Init+0x58>)
 8000318:	2296      	movs	r2, #150	; 0x96
 800031a:	0212      	lsls	r2, r2, #8
 800031c:	605a      	str	r2, [r3, #4]
  huart2.Init.WordLength = UART_WORDLENGTH_8B;
 800031e:	4b11      	ldr	r3, [pc, #68]	; (8000364 <MX_USART2_UART_Init+0x58>)
 8000320:	2200      	movs	r2, #0
 8000322:	609a      	str	r2, [r3, #8]
  huart2.Init.StopBits = UART_STOPBITS_1;
 8000324:	4b0f      	ldr	r3, [pc, #60]	; (8000364 <MX_USART2_UART_Init+0x58>)
 8000326:	2200      	movs	r2, #0
 8000328:	60da      	str	r2, [r3, #12]
  huart2.Init.Parity = UART_PARITY_NONE;
 800032a:	4b0e      	ldr	r3, [pc, #56]	; (8000364 <MX_USART2_UART_Init+0x58>)
 800032c:	2200      	movs	r2, #0
 800032e:	611a      	str	r2, [r3, #16]
  huart2.Init.Mode = UART_MODE_TX_RX;
 8000330:	4b0c      	ldr	r3, [pc, #48]	; (8000364 <MX_USART2_UART_Init+0x58>)
 8000332:	220c      	movs	r2, #12
 8000334:	615a      	str	r2, [r3, #20]
  huart2.Init.HwFlowCtl = UART_HWCONTROL_NONE;
 8000336:	4b0b      	ldr	r3, [pc, #44]	; (8000364 <MX_USART2_UART_Init+0x58>)
 8000338:	2200      	movs	r2, #0
 800033a:	619a      	str	r2, [r3, #24]
  huart2.Init.OverSampling = UART_OVERSAMPLING_16;
 800033c:	4b09      	ldr	r3, [pc, #36]	; (8000364 <MX_USART2_UART_Init+0x58>)
 800033e:	2200      	movs	r2, #0
 8000340:	61da      	str	r2, [r3, #28]
  huart2.Init.OneBitSampling = UART_ONE_BIT_SAMPLE_DISABLE;
 8000342:	4b08      	ldr	r3, [pc, #32]	; (8000364 <MX_USART2_UART_Init+0x58>)
 8000344:	2200      	movs	r2, #0
 8000346:	621a      	str	r2, [r3, #32]
  huart2.AdvancedInit.AdvFeatureInit = UART_ADVFEATURE_NO_INIT;
 8000348:	4b06      	ldr	r3, [pc, #24]	; (8000364 <MX_USART2_UART_Init+0x58>)
 800034a:	2200      	movs	r2, #0
 800034c:	625a      	str	r2, [r3, #36]	; 0x24
  if (HAL_UART_Init(&huart2) != HAL_OK)
 800034e:	4b05      	ldr	r3, [pc, #20]	; (8000364 <MX_USART2_UART_Init+0x58>)
 8000350:	0018      	movs	r0, r3
 8000352:	f001 f917 	bl	8001584 <HAL_UART_Init>
 8000356:	1e03      	subs	r3, r0, #0
 8000358:	d001      	beq.n	800035e <MX_USART2_UART_Init+0x52>
  {
    Error_Handler();
 800035a:	f000 f887 	bl	800046c <Error_Handler>
  }
  /* USER CODE BEGIN USART2_Init 2 */

  /* USER CODE END USART2_Init 2 */

}
 800035e:	46c0      	nop			; (mov r8, r8)
 8000360:	46bd      	mov	sp, r7
 8000362:	bd80      	pop	{r7, pc}
 8000364:	20000028 	.word	0x20000028
 8000368:	40004400 	.word	0x40004400

0800036c <MX_GPIO_Init>:
  * @brief GPIO Initialization Function
  * @param None
  * @retval None
  */
static void MX_GPIO_Init(void)
{
 800036c:	b590      	push	{r4, r7, lr}
 800036e:	b089      	sub	sp, #36	; 0x24
 8000370:	af00      	add	r7, sp, #0
  GPIO_InitTypeDef GPIO_InitStruct = {0};
 8000372:	240c      	movs	r4, #12
 8000374:	193b      	adds	r3, r7, r4
 8000376:	0018      	movs	r0, r3
 8000378:	2314      	movs	r3, #20
 800037a:	001a      	movs	r2, r3
 800037c:	2100      	movs	r1, #0
 800037e:	f001 fc33 	bl	8001be8 <memset>

  /* GPIO Ports Clock Enable */
  __HAL_RCC_GPIOF_CLK_ENABLE();
 8000382:	4b38      	ldr	r3, [pc, #224]	; (8000464 <MX_GPIO_Init+0xf8>)
 8000384:	695a      	ldr	r2, [r3, #20]
 8000386:	4b37      	ldr	r3, [pc, #220]	; (8000464 <MX_GPIO_Init+0xf8>)
 8000388:	2180      	movs	r1, #128	; 0x80
 800038a:	03c9      	lsls	r1, r1, #15
 800038c:	430a      	orrs	r2, r1
 800038e:	615a      	str	r2, [r3, #20]
 8000390:	4b34      	ldr	r3, [pc, #208]	; (8000464 <MX_GPIO_Init+0xf8>)
 8000392:	695a      	ldr	r2, [r3, #20]
 8000394:	2380      	movs	r3, #128	; 0x80
 8000396:	03db      	lsls	r3, r3, #15
 8000398:	4013      	ands	r3, r2
 800039a:	60bb      	str	r3, [r7, #8]
 800039c:	68bb      	ldr	r3, [r7, #8]
  __HAL_RCC_GPIOA_CLK_ENABLE();
 800039e:	4b31      	ldr	r3, [pc, #196]	; (8000464 <MX_GPIO_Init+0xf8>)
 80003a0:	695a      	ldr	r2, [r3, #20]
 80003a2:	4b30      	ldr	r3, [pc, #192]	; (8000464 <MX_GPIO_Init+0xf8>)
 80003a4:	2180      	movs	r1, #128	; 0x80
 80003a6:	0289      	lsls	r1, r1, #10
 80003a8:	430a      	orrs	r2, r1
 80003aa:	615a      	str	r2, [r3, #20]
 80003ac:	4b2d      	ldr	r3, [pc, #180]	; (8000464 <MX_GPIO_Init+0xf8>)
 80003ae:	695a      	ldr	r2, [r3, #20]
 80003b0:	2380      	movs	r3, #128	; 0x80
 80003b2:	029b      	lsls	r3, r3, #10
 80003b4:	4013      	ands	r3, r2
 80003b6:	607b      	str	r3, [r7, #4]
 80003b8:	687b      	ldr	r3, [r7, #4]
  __HAL_RCC_GPIOB_CLK_ENABLE();
 80003ba:	4b2a      	ldr	r3, [pc, #168]	; (8000464 <MX_GPIO_Init+0xf8>)
 80003bc:	695a      	ldr	r2, [r3, #20]
 80003be:	4b29      	ldr	r3, [pc, #164]	; (8000464 <MX_GPIO_Init+0xf8>)
 80003c0:	2180      	movs	r1, #128	; 0x80
 80003c2:	02c9      	lsls	r1, r1, #11
 80003c4:	430a      	orrs	r2, r1
 80003c6:	615a      	str	r2, [r3, #20]
 80003c8:	4b26      	ldr	r3, [pc, #152]	; (8000464 <MX_GPIO_Init+0xf8>)
 80003ca:	695a      	ldr	r2, [r3, #20]
 80003cc:	2380      	movs	r3, #128	; 0x80
 80003ce:	02db      	lsls	r3, r3, #11
 80003d0:	4013      	ands	r3, r2
 80003d2:	603b      	str	r3, [r7, #0]
 80003d4:	683b      	ldr	r3, [r7, #0]

  /*Configure GPIO pin Output Level */
  HAL_GPIO_WritePin(GPIOA, GPIO_PIN_1, GPIO_PIN_RESET);
 80003d6:	2390      	movs	r3, #144	; 0x90
 80003d8:	05db      	lsls	r3, r3, #23
 80003da:	2200      	movs	r2, #0
 80003dc:	2102      	movs	r1, #2
 80003de:	0018      	movs	r0, r3
 80003e0:	f000 fbb5 	bl	8000b4e <HAL_GPIO_WritePin>

  /*Configure GPIO pin Output Level */
  HAL_GPIO_WritePin(LED_GPIO_Port, LED_Pin, GPIO_PIN_RESET);
 80003e4:	4b20      	ldr	r3, [pc, #128]	; (8000468 <MX_GPIO_Init+0xfc>)
 80003e6:	2200      	movs	r2, #0
 80003e8:	2108      	movs	r1, #8
 80003ea:	0018      	movs	r0, r3
 80003ec:	f000 fbaf 	bl	8000b4e <HAL_GPIO_WritePin>

  /*Configure GPIO pin : PA0 */
  GPIO_InitStruct.Pin = GPIO_PIN_0;
 80003f0:	193b      	adds	r3, r7, r4
 80003f2:	2201      	movs	r2, #1
 80003f4:	601a      	str	r2, [r3, #0]
  GPIO_InitStruct.Mode = GPIO_MODE_INPUT;
 80003f6:	193b      	adds	r3, r7, r4
 80003f8:	2200      	movs	r2, #0
 80003fa:	605a      	str	r2, [r3, #4]
  GPIO_InitStruct.Pull = GPIO_NOPULL;
 80003fc:	193b      	adds	r3, r7, r4
 80003fe:	2200      	movs	r2, #0
 8000400:	609a      	str	r2, [r3, #8]
  HAL_GPIO_Init(GPIOA, &GPIO_InitStruct);
 8000402:	193a      	adds	r2, r7, r4
 8000404:	2390      	movs	r3, #144	; 0x90
 8000406:	05db      	lsls	r3, r3, #23
 8000408:	0011      	movs	r1, r2
 800040a:	0018      	movs	r0, r3
 800040c:	f000 fa1a 	bl	8000844 <HAL_GPIO_Init>

  /*Configure GPIO pin : PA1 */
  GPIO_InitStruct.Pin = GPIO_PIN_1;
 8000410:	193b      	adds	r3, r7, r4
 8000412:	2202      	movs	r2, #2
 8000414:	601a      	str	r2, [r3, #0]
  GPIO_InitStruct.Mode = GPIO_MODE_OUTPUT_PP;
 8000416:	193b      	adds	r3, r7, r4
 8000418:	2201      	movs	r2, #1
 800041a:	605a      	str	r2, [r3, #4]
  GPIO_InitStruct.Pull = GPIO_NOPULL;
 800041c:	193b      	adds	r3, r7, r4
 800041e:	2200      	movs	r2, #0
 8000420:	609a      	str	r2, [r3, #8]
  GPIO_InitStruct.Speed = GPIO_SPEED_FREQ_LOW;
 8000422:	193b      	adds	r3, r7, r4
 8000424:	2200      	movs	r2, #0
 8000426:	60da      	str	r2, [r3, #12]
  HAL_GPIO_Init(GPIOA, &GPIO_InitStruct);
 8000428:	193a      	adds	r2, r7, r4
 800042a:	2390      	movs	r3, #144	; 0x90
 800042c:	05db      	lsls	r3, r3, #23
 800042e:	0011      	movs	r1, r2
 8000430:	0018      	movs	r0, r3
 8000432:	f000 fa07 	bl	8000844 <HAL_GPIO_Init>

  /*Configure GPIO pin : LED_Pin */
  GPIO_InitStruct.Pin = LED_Pin;
 8000436:	0021      	movs	r1, r4
 8000438:	187b      	adds	r3, r7, r1
 800043a:	2208      	movs	r2, #8
 800043c:	601a      	str	r2, [r3, #0]
  GPIO_InitStruct.Mode = GPIO_MODE_OUTPUT_PP;
 800043e:	187b      	adds	r3, r7, r1
 8000440:	2201      	movs	r2, #1
 8000442:	605a      	str	r2, [r3, #4]
  GPIO_InitStruct.Pull = GPIO_NOPULL;
 8000444:	187b      	adds	r3, r7, r1
 8000446:	2200      	movs	r2, #0
 8000448:	609a      	str	r2, [r3, #8]
  GPIO_InitStruct.Speed = GPIO_SPEED_FREQ_LOW;
 800044a:	187b      	adds	r3, r7, r1
 800044c:	2200      	movs	r2, #0
 800044e:	60da      	str	r2, [r3, #12]
  HAL_GPIO_Init(LED_GPIO_Port, &GPIO_InitStruct);
 8000450:	187b      	adds	r3, r7, r1
 8000452:	4a05      	ldr	r2, [pc, #20]	; (8000468 <MX_GPIO_Init+0xfc>)
 8000454:	0019      	movs	r1, r3
 8000456:	0010      	movs	r0, r2
 8000458:	f000 f9f4 	bl	8000844 <HAL_GPIO_Init>

}
 800045c:	46c0      	nop			; (mov r8, r8)
 800045e:	46bd      	mov	sp, r7
 8000460:	b009      	add	sp, #36	; 0x24
 8000462:	bd90      	pop	{r4, r7, pc}
 8000464:	40021000 	.word	0x40021000
 8000468:	48000400 	.word	0x48000400

0800046c <Error_Handler>:
/**
  * @brief  This function is executed in case of error occurrence.
  * @retval None
  */
void Error_Handler(void)
{
 800046c:	b580      	push	{r7, lr}
 800046e:	af00      	add	r7, sp, #0
  \details Disables IRQ interrupts by setting the I-bit in the CPSR.
           Can only be executed in Privileged modes.
 */
__STATIC_FORCEINLINE void __disable_irq(void)
{
  __ASM volatile ("cpsid i" : : : "memory");
 8000470:	b672      	cpsid	i
  /* USER CODE BEGIN Error_Handler_Debug */
  /* User can add his own implementation to report the HAL error return state */
  __disable_irq();
  while (1)
 8000472:	e7fe      	b.n	8000472 <Error_Handler+0x6>

08000474 <HAL_MspInit>:
/* USER CODE END 0 */
/**
  * Initializes the Global MSP.
  */
void HAL_MspInit(void)
{
 8000474:	b580      	push	{r7, lr}
 8000476:	b082      	sub	sp, #8
 8000478:	af00      	add	r7, sp, #0
  /* USER CODE BEGIN MspInit 0 */

  /* USER CODE END MspInit 0 */

  __HAL_RCC_SYSCFG_CLK_ENABLE();
 800047a:	4b0f      	ldr	r3, [pc, #60]	; (80004b8 <HAL_MspInit+0x44>)
 800047c:	699a      	ldr	r2, [r3, #24]
 800047e:	4b0e      	ldr	r3, [pc, #56]	; (80004b8 <HAL_MspInit+0x44>)
 8000480:	2101      	movs	r1, #1
 8000482:	430a      	orrs	r2, r1
 8000484:	619a      	str	r2, [r3, #24]
 8000486:	4b0c      	ldr	r3, [pc, #48]	; (80004b8 <HAL_MspInit+0x44>)
 8000488:	699b      	ldr	r3, [r3, #24]
 800048a:	2201      	movs	r2, #1
 800048c:	4013      	ands	r3, r2
 800048e:	607b      	str	r3, [r7, #4]
 8000490:	687b      	ldr	r3, [r7, #4]
  __HAL_RCC_PWR_CLK_ENABLE();
 8000492:	4b09      	ldr	r3, [pc, #36]	; (80004b8 <HAL_MspInit+0x44>)
 8000494:	69da      	ldr	r2, [r3, #28]
 8000496:	4b08      	ldr	r3, [pc, #32]	; (80004b8 <HAL_MspInit+0x44>)
 8000498:	2180      	movs	r1, #128	; 0x80
 800049a:	0549      	lsls	r1, r1, #21
 800049c:	430a      	orrs	r2, r1
 800049e:	61da      	str	r2, [r3, #28]
 80004a0:	4b05      	ldr	r3, [pc, #20]	; (80004b8 <HAL_MspInit+0x44>)
 80004a2:	69da      	ldr	r2, [r3, #28]
 80004a4:	2380      	movs	r3, #128	; 0x80
 80004a6:	055b      	lsls	r3, r3, #21
 80004a8:	4013      	ands	r3, r2
 80004aa:	603b      	str	r3, [r7, #0]
 80004ac:	683b      	ldr	r3, [r7, #0]
  /* System interrupt init*/

  /* USER CODE BEGIN MspInit 1 */

  /* USER CODE END MspInit 1 */
}
 80004ae:	46c0      	nop			; (mov r8, r8)
 80004b0:	46bd      	mov	sp, r7
 80004b2:	b002      	add	sp, #8
 80004b4:	bd80      	pop	{r7, pc}
 80004b6:	46c0      	nop			; (mov r8, r8)
 80004b8:	40021000 	.word	0x40021000

080004bc <HAL_UART_MspInit>:
* This function configures the hardware resources used in this example
* @param huart: UART handle pointer
* @retval None
*/
void HAL_UART_MspInit(UART_HandleTypeDef* huart)
{
 80004bc:	b580      	push	{r7, lr}
 80004be:	b08a      	sub	sp, #40	; 0x28
 80004c0:	af00      	add	r7, sp, #0
 80004c2:	6078      	str	r0, [r7, #4]
  GPIO_InitTypeDef GPIO_InitStruct = {0};
 80004c4:	2314      	movs	r3, #20
 80004c6:	18fb      	adds	r3, r7, r3
 80004c8:	0018      	movs	r0, r3
 80004ca:	2314      	movs	r3, #20
 80004cc:	001a      	movs	r2, r3
 80004ce:	2100      	movs	r1, #0
 80004d0:	f001 fb8a 	bl	8001be8 <memset>
  if(huart->Instance==USART2)
 80004d4:	687b      	ldr	r3, [r7, #4]
 80004d6:	681b      	ldr	r3, [r3, #0]
 80004d8:	4a1c      	ldr	r2, [pc, #112]	; (800054c <HAL_UART_MspInit+0x90>)
 80004da:	4293      	cmp	r3, r2
 80004dc:	d132      	bne.n	8000544 <HAL_UART_MspInit+0x88>
  {
  /* USER CODE BEGIN USART2_MspInit 0 */

  /* USER CODE END USART2_MspInit 0 */
    /* Peripheral clock enable */
    __HAL_RCC_USART2_CLK_ENABLE();
 80004de:	4b1c      	ldr	r3, [pc, #112]	; (8000550 <HAL_UART_MspInit+0x94>)
 80004e0:	69da      	ldr	r2, [r3, #28]
 80004e2:	4b1b      	ldr	r3, [pc, #108]	; (8000550 <HAL_UART_MspInit+0x94>)
 80004e4:	2180      	movs	r1, #128	; 0x80
 80004e6:	0289      	lsls	r1, r1, #10
 80004e8:	430a      	orrs	r2, r1
 80004ea:	61da      	str	r2, [r3, #28]
 80004ec:	4b18      	ldr	r3, [pc, #96]	; (8000550 <HAL_UART_MspInit+0x94>)
 80004ee:	69da      	ldr	r2, [r3, #28]
 80004f0:	2380      	movs	r3, #128	; 0x80
 80004f2:	029b      	lsls	r3, r3, #10
 80004f4:	4013      	ands	r3, r2
 80004f6:	613b      	str	r3, [r7, #16]
 80004f8:	693b      	ldr	r3, [r7, #16]

    __HAL_RCC_GPIOA_CLK_ENABLE();
 80004fa:	4b15      	ldr	r3, [pc, #84]	; (8000550 <HAL_UART_MspInit+0x94>)
 80004fc:	695a      	ldr	r2, [r3, #20]
 80004fe:	4b14      	ldr	r3, [pc, #80]	; (8000550 <HAL_UART_MspInit+0x94>)
 8000500:	2180      	movs	r1, #128	; 0x80
 8000502:	0289      	lsls	r1, r1, #10
 8000504:	430a      	orrs	r2, r1
 8000506:	615a      	str	r2, [r3, #20]
 8000508:	4b11      	ldr	r3, [pc, #68]	; (8000550 <HAL_UART_MspInit+0x94>)
 800050a:	695a      	ldr	r2, [r3, #20]
 800050c:	2380      	movs	r3, #128	; 0x80
 800050e:	029b      	lsls	r3, r3, #10
 8000510:	4013      	ands	r3, r2
 8000512:	60fb      	str	r3, [r7, #12]
 8000514:	68fb      	ldr	r3, [r7, #12]
    /**USART2 GPIO Configuration
    PA2     ------> USART2_TX
    PA15     ------> USART2_RX
    */
    GPIO_InitStruct.Pin = VCP_TX_Pin|VCP_RX_Pin;
 8000516:	2114      	movs	r1, #20
 8000518:	187b      	adds	r3, r7, r1
 800051a:	4a0e      	ldr	r2, [pc, #56]	; (8000554 <HAL_UART_MspInit+0x98>)
 800051c:	601a      	str	r2, [r3, #0]
    GPIO_InitStruct.Mode = GPIO_MODE_AF_PP;
 800051e:	187b      	adds	r3, r7, r1
 8000520:	2202      	movs	r2, #2
 8000522:	605a      	str	r2, [r3, #4]
    GPIO_InitStruct.Pull = GPIO_NOPULL;
 8000524:	187b      	adds	r3, r7, r1
 8000526:	2200      	movs	r2, #0
 8000528:	609a      	str	r2, [r3, #8]
    GPIO_InitStruct.Speed = GPIO_SPEED_FREQ_HIGH;
 800052a:	187b      	adds	r3, r7, r1
 800052c:	2203      	movs	r2, #3
 800052e:	60da      	str	r2, [r3, #12]
    GPIO_InitStruct.Alternate = GPIO_AF1_USART2;
 8000530:	187b      	adds	r3, r7, r1
 8000532:	2201      	movs	r2, #1
 8000534:	611a      	str	r2, [r3, #16]
    HAL_GPIO_Init(GPIOA, &GPIO_InitStruct);
 8000536:	187a      	adds	r2, r7, r1
 8000538:	2390      	movs	r3, #144	; 0x90
 800053a:	05db      	lsls	r3, r3, #23
 800053c:	0011      	movs	r1, r2
 800053e:	0018      	movs	r0, r3
 8000540:	f000 f980 	bl	8000844 <HAL_GPIO_Init>
  /* USER CODE BEGIN USART2_MspInit 1 */

  /* USER CODE END USART2_MspInit 1 */
  }

}
 8000544:	46c0      	nop			; (mov r8, r8)
 8000546:	46bd      	mov	sp, r7
 8000548:	b00a      	add	sp, #40	; 0x28
 800054a:	bd80      	pop	{r7, pc}
 800054c:	40004400 	.word	0x40004400
 8000550:	40021000 	.word	0x40021000
 8000554:	00008004 	.word	0x00008004

08000558 <NMI_Handler>:
/******************************************************************************/
/**
  * @brief This function handles Non maskable interrupt.
  */
void NMI_Handler(void)
{
 8000558:	b580      	push	{r7, lr}
 800055a:	af00      	add	r7, sp, #0
  /* USER CODE BEGIN NonMaskableInt_IRQn 0 */

  /* USER CODE END NonMaskableInt_IRQn 0 */
  /* USER CODE BEGIN NonMaskableInt_IRQn 1 */
  while (1)
 800055c:	e7fe      	b.n	800055c <NMI_Handler+0x4>

0800055e <HardFault_Handler>:

/**
  * @brief This function handles Hard fault interrupt.
  */
void HardFault_Handler(void)
{
 800055e:	b580      	push	{r7, lr}
 8000560:	af00      	add	r7, sp, #0
  /* USER CODE BEGIN HardFault_IRQn 0 */

  /* USER CODE END HardFault_IRQn 0 */
  while (1)
 8000562:	e7fe      	b.n	8000562 <HardFault_Handler+0x4>

08000564 <SVC_Handler>:

/**
  * @brief This function handles System service call via SWI instruction.
  */
void SVC_Handler(void)
{
 8000564:	b580      	push	{r7, lr}
 8000566:	af00      	add	r7, sp, #0

  /* USER CODE END SVC_IRQn 0 */
  /* USER CODE BEGIN SVC_IRQn 1 */

  /* USER CODE END SVC_IRQn 1 */
}
 8000568:	46c0      	nop			; (mov r8, r8)
 800056a:	46bd      	mov	sp, r7
 800056c:	bd80      	pop	{r7, pc}

0800056e <PendSV_Handler>:

/**
  * @brief This function handles Pendable request for system service.
  */
void PendSV_Handler(void)
{
 800056e:	b580      	push	{r7, lr}
 8000570:	af00      	add	r7, sp, #0

  /* USER CODE END PendSV_IRQn 0 */
  /* USER CODE BEGIN PendSV_IRQn 1 */

  /* USER CODE END PendSV_IRQn 1 */
}
 8000572:	46c0      	nop			; (mov r8, r8)
 8000574:	46bd      	mov	sp, r7
 8000576:	bd80      	pop	{r7, pc}

08000578 <SysTick_Handler>:

/**
  * @brief This function handles System tick timer.
  */
void SysTick_Handler(void)
{
 8000578:	b580      	push	{r7, lr}
 800057a:	af00      	add	r7, sp, #0
  /* USER CODE BEGIN SysTick_IRQn 0 */

  /* USER CODE END SysTick_IRQn 0 */
  HAL_IncTick();
 800057c:	f000 f892 	bl	80006a4 <HAL_IncTick>
  /* USER CODE BEGIN SysTick_IRQn 1 */

  /* USER CODE END SysTick_IRQn 1 */
}
 8000580:	46c0      	nop			; (mov r8, r8)
 8000582:	46bd      	mov	sp, r7
 8000584:	bd80      	pop	{r7, pc}

08000586 <SystemInit>:
  * @brief  Setup the microcontroller system
  * @param  None
  * @retval None
  */
void SystemInit(void)
{
 8000586:	b580      	push	{r7, lr}
 8000588:	af00      	add	r7, sp, #0
                         before branch to main program. This call is made inside
                         the "startup_stm32f0xx.s" file.
                         User can setups the default system clock (System clock source, PLL Multiplier
                         and Divider factors, AHB/APBx prescalers and Flash settings).
   */
}
 800058a:	46c0      	nop			; (mov r8, r8)
 800058c:	46bd      	mov	sp, r7
 800058e:	bd80      	pop	{r7, pc}

08000590 <Reset_Handler>:

  .section .text.Reset_Handler
  .weak Reset_Handler
  .type Reset_Handler, %function
Reset_Handler:
  ldr   r0, =_estack
 8000590:	4813      	ldr	r0, [pc, #76]	; (80005e0 <LoopForever+0x2>)
  mov   sp, r0          /* set stack pointer */
 8000592:	4685      	mov	sp, r0

/*Check if boot space corresponds to test memory*/
 
    LDR R0,=0x00000004
 8000594:	4813      	ldr	r0, [pc, #76]	; (80005e4 <LoopForever+0x6>)
    LDR R1, [R0]
 8000596:	6801      	ldr	r1, [r0, #0]
    LSRS R1, R1, #24
 8000598:	0e09      	lsrs	r1, r1, #24
    LDR R2,=0x1F
 800059a:	4a13      	ldr	r2, [pc, #76]	; (80005e8 <LoopForever+0xa>)
    CMP R1, R2
 800059c:	4291      	cmp	r1, r2
    BNE ApplicationStart
 800059e:	d105      	bne.n	80005ac <ApplicationStart>

 /*SYSCFG clock enable*/

    LDR R0,=0x40021018
 80005a0:	4812      	ldr	r0, [pc, #72]	; (80005ec <LoopForever+0xe>)
    LDR R1,=0x00000001
 80005a2:	4913      	ldr	r1, [pc, #76]	; (80005f0 <LoopForever+0x12>)
    STR R1, [R0]
 80005a4:	6001      	str	r1, [r0, #0]

/*Set CFGR1 register with flash memory remap at address 0*/
    LDR R0,=0x40010000
 80005a6:	4813      	ldr	r0, [pc, #76]	; (80005f4 <LoopForever+0x16>)
    LDR R1,=0x00000000
 80005a8:	4913      	ldr	r1, [pc, #76]	; (80005f8 <LoopForever+0x1a>)
    STR R1, [R0]
 80005aa:	6001      	str	r1, [r0, #0]

080005ac <ApplicationStart>:

ApplicationStart:
/* Copy the data segment initializers from flash to SRAM */
  ldr r0, =_sdata
 80005ac:	4813      	ldr	r0, [pc, #76]	; (80005fc <LoopForever+0x1e>)
  ldr r1, =_edata
 80005ae:	4914      	ldr	r1, [pc, #80]	; (8000600 <LoopForever+0x22>)
  ldr r2, =_sidata
 80005b0:	4a14      	ldr	r2, [pc, #80]	; (8000604 <LoopForever+0x26>)
  movs r3, #0
 80005b2:	2300      	movs	r3, #0
  b LoopCopyDataInit
 80005b4:	e002      	b.n	80005bc <LoopCopyDataInit>

080005b6 <CopyDataInit>:

CopyDataInit:
  ldr r4, [r2, r3]
 80005b6:	58d4      	ldr	r4, [r2, r3]
  str r4, [r0, r3]
 80005b8:	50c4      	str	r4, [r0, r3]
  adds r3, r3, #4
 80005ba:	3304      	adds	r3, #4

080005bc <LoopCopyDataInit>:

LoopCopyDataInit:
  adds r4, r0, r3
 80005bc:	18c4      	adds	r4, r0, r3
  cmp r4, r1
 80005be:	428c      	cmp	r4, r1
  bcc CopyDataInit
 80005c0:	d3f9      	bcc.n	80005b6 <CopyDataInit>
  
/* Zero fill the bss segment. */
  ldr r2, =_sbss
 80005c2:	4a11      	ldr	r2, [pc, #68]	; (8000608 <LoopForever+0x2a>)
  ldr r4, =_ebss
 80005c4:	4c11      	ldr	r4, [pc, #68]	; (800060c <LoopForever+0x2e>)
  movs r3, #0
 80005c6:	2300      	movs	r3, #0
  b LoopFillZerobss
 80005c8:	e001      	b.n	80005ce <LoopFillZerobss>

080005ca <FillZerobss>:

FillZerobss:
  str  r3, [r2]
 80005ca:	6013      	str	r3, [r2, #0]
  adds r2, r2, #4
 80005cc:	3204      	adds	r2, #4

080005ce <LoopFillZerobss>:

LoopFillZerobss:
  cmp r2, r4
 80005ce:	42a2      	cmp	r2, r4
  bcc FillZerobss
 80005d0:	d3fb      	bcc.n	80005ca <FillZerobss>

/* Call the clock system intitialization function.*/
  bl  SystemInit
 80005d2:	f7ff ffd8 	bl	8000586 <SystemInit>
/* Call static constructors */
  bl __libc_init_array
 80005d6:	f001 fae3 	bl	8001ba0 <__libc_init_array>
/* Call the application's entry point.*/
  bl main
 80005da:	f7ff fe21 	bl	8000220 <main>

080005de <LoopForever>:

LoopForever:
    b LoopForever
 80005de:	e7fe      	b.n	80005de <LoopForever>
  ldr   r0, =_estack
 80005e0:	20001800 	.word	0x20001800
    LDR R0,=0x00000004
 80005e4:	00000004 	.word	0x00000004
    LDR R2,=0x1F
 80005e8:	0000001f 	.word	0x0000001f
    LDR R0,=0x40021018
 80005ec:	40021018 	.word	0x40021018
    LDR R1,=0x00000001
 80005f0:	00000001 	.word	0x00000001
    LDR R0,=0x40010000
 80005f4:	40010000 	.word	0x40010000
    LDR R1,=0x00000000
 80005f8:	00000000 	.word	0x00000000
  ldr r0, =_sdata
 80005fc:	20000000 	.word	0x20000000
  ldr r1, =_edata
 8000600:	2000000c 	.word	0x2000000c
  ldr r2, =_sidata
 8000604:	08001c50 	.word	0x08001c50
  ldr r2, =_sbss
 8000608:	2000000c 	.word	0x2000000c
  ldr r4, =_ebss
 800060c:	200000b0 	.word	0x200000b0

08000610 <ADC1_IRQHandler>:
 * @retval : None
*/
    .section .text.Default_Handler,"ax",%progbits
Default_Handler:
Infinite_Loop:
  b Infinite_Loop
 8000610:	e7fe      	b.n	8000610 <ADC1_IRQHandler>
	...

08000614 <HAL_Init>:
  *       In the default implementation,Systick is used as source of time base.
  *       The tick variable is incremented each 1ms in its ISR.
  * @retval HAL status
  */
HAL_StatusTypeDef HAL_Init(void)
{
 8000614:	b580      	push	{r7, lr}
 8000616:	af00      	add	r7, sp, #0
  /* Configure Flash prefetch */ 
#if (PREFETCH_ENABLE != 0)
  __HAL_FLASH_PREFETCH_BUFFER_ENABLE();
 8000618:	4b07      	ldr	r3, [pc, #28]	; (8000638 <HAL_Init+0x24>)
 800061a:	681a      	ldr	r2, [r3, #0]
 800061c:	4b06      	ldr	r3, [pc, #24]	; (8000638 <HAL_Init+0x24>)
 800061e:	2110      	movs	r1, #16
 8000620:	430a      	orrs	r2, r1
 8000622:	601a      	str	r2, [r3, #0]
#endif /* PREFETCH_ENABLE */

  /* Use systick as time base source and configure 1ms tick (default clock after Reset is HSI) */

  HAL_InitTick(TICK_INT_PRIORITY);
 8000624:	2000      	movs	r0, #0
 8000626:	f000 f809 	bl	800063c <HAL_InitTick>

  /* Init the low level hardware */
  HAL_MspInit();
 800062a:	f7ff ff23 	bl	8000474 <HAL_MspInit>

  /* Return function status */
  return HAL_OK;
 800062e:	2300      	movs	r3, #0
}
 8000630:	0018      	movs	r0, r3
 8000632:	46bd      	mov	sp, r7
 8000634:	bd80      	pop	{r7, pc}
 8000636:	46c0      	nop			; (mov r8, r8)
 8000638:	40022000 	.word	0x40022000

0800063c <HAL_InitTick>:
  *       implementation  in user file.
  * @param TickPriority Tick interrupt priority.
  * @retval HAL status
  */
__weak HAL_StatusTypeDef HAL_InitTick(uint32_t TickPriority)
{
 800063c:	b590      	push	{r4, r7, lr}
 800063e:	b083      	sub	sp, #12
 8000640:	af00      	add	r7, sp, #0
 8000642:	6078      	str	r0, [r7, #4]
  /*Configure the SysTick to have interrupt in 1ms time basis*/
  if (HAL_SYSTICK_Config(SystemCoreClock / (1000U / uwTickFreq)) > 0U)
 8000644:	4b14      	ldr	r3, [pc, #80]	; (8000698 <HAL_InitTick+0x5c>)
 8000646:	681c      	ldr	r4, [r3, #0]
 8000648:	4b14      	ldr	r3, [pc, #80]	; (800069c <HAL_InitTick+0x60>)
 800064a:	781b      	ldrb	r3, [r3, #0]
 800064c:	0019      	movs	r1, r3
 800064e:	23fa      	movs	r3, #250	; 0xfa
 8000650:	0098      	lsls	r0, r3, #2
 8000652:	f7ff fd59 	bl	8000108 <__udivsi3>
 8000656:	0003      	movs	r3, r0
 8000658:	0019      	movs	r1, r3
 800065a:	0020      	movs	r0, r4
 800065c:	f7ff fd54 	bl	8000108 <__udivsi3>
 8000660:	0003      	movs	r3, r0
 8000662:	0018      	movs	r0, r3
 8000664:	f000 f8e1 	bl	800082a <HAL_SYSTICK_Config>
 8000668:	1e03      	subs	r3, r0, #0
 800066a:	d001      	beq.n	8000670 <HAL_InitTick+0x34>
  {
    return HAL_ERROR;
 800066c:	2301      	movs	r3, #1
 800066e:	e00f      	b.n	8000690 <HAL_InitTick+0x54>
  }

  /* Configure the SysTick IRQ priority */
  if (TickPriority < (1UL << __NVIC_PRIO_BITS))
 8000670:	687b      	ldr	r3, [r7, #4]
 8000672:	2b03      	cmp	r3, #3
 8000674:	d80b      	bhi.n	800068e <HAL_InitTick+0x52>
  {
    HAL_NVIC_SetPriority(SysTick_IRQn, TickPriority, 0U);
 8000676:	6879      	ldr	r1, [r7, #4]
 8000678:	2301      	movs	r3, #1
 800067a:	425b      	negs	r3, r3
 800067c:	2200      	movs	r2, #0
 800067e:	0018      	movs	r0, r3
 8000680:	f000 f8be 	bl	8000800 <HAL_NVIC_SetPriority>
    uwTickPrio = TickPriority;
 8000684:	4b06      	ldr	r3, [pc, #24]	; (80006a0 <HAL_InitTick+0x64>)
 8000686:	687a      	ldr	r2, [r7, #4]
 8000688:	601a      	str	r2, [r3, #0]
  {
    return HAL_ERROR;
  }

   /* Return function status */
  return HAL_OK;
 800068a:	2300      	movs	r3, #0
 800068c:	e000      	b.n	8000690 <HAL_InitTick+0x54>
    return HAL_ERROR;
 800068e:	2301      	movs	r3, #1
}
 8000690:	0018      	movs	r0, r3
 8000692:	46bd      	mov	sp, r7
 8000694:	b003      	add	sp, #12
 8000696:	bd90      	pop	{r4, r7, pc}
 8000698:	20000000 	.word	0x20000000
 800069c:	20000008 	.word	0x20000008
 80006a0:	20000004 	.word	0x20000004

080006a4 <HAL_IncTick>:
  * @note This function is declared as __weak to be overwritten in case of other 
  *       implementations in user file.
  * @retval None
  */
__weak void HAL_IncTick(void)
{
 80006a4:	b580      	push	{r7, lr}
 80006a6:	af00      	add	r7, sp, #0
  uwTick += uwTickFreq;
 80006a8:	4b05      	ldr	r3, [pc, #20]	; (80006c0 <HAL_IncTick+0x1c>)
 80006aa:	781b      	ldrb	r3, [r3, #0]
 80006ac:	001a      	movs	r2, r3
 80006ae:	4b05      	ldr	r3, [pc, #20]	; (80006c4 <HAL_IncTick+0x20>)
 80006b0:	681b      	ldr	r3, [r3, #0]
 80006b2:	18d2      	adds	r2, r2, r3
 80006b4:	4b03      	ldr	r3, [pc, #12]	; (80006c4 <HAL_IncTick+0x20>)
 80006b6:	601a      	str	r2, [r3, #0]
}
 80006b8:	46c0      	nop			; (mov r8, r8)
 80006ba:	46bd      	mov	sp, r7
 80006bc:	bd80      	pop	{r7, pc}
 80006be:	46c0      	nop			; (mov r8, r8)
 80006c0:	20000008 	.word	0x20000008
 80006c4:	200000ac 	.word	0x200000ac

080006c8 <HAL_GetTick>:
  * @note   This function is declared as __weak  to be overwritten  in case of other 
  *       implementations in user file.
  * @retval tick value
  */
__weak uint32_t HAL_GetTick(void)
{
 80006c8:	b580      	push	{r7, lr}
 80006ca:	af00      	add	r7, sp, #0
  return uwTick;
 80006cc:	4b02      	ldr	r3, [pc, #8]	; (80006d8 <HAL_GetTick+0x10>)
 80006ce:	681b      	ldr	r3, [r3, #0]
}
 80006d0:	0018      	movs	r0, r3
 80006d2:	46bd      	mov	sp, r7
 80006d4:	bd80      	pop	{r7, pc}
 80006d6:	46c0      	nop			; (mov r8, r8)
 80006d8:	200000ac 	.word	0x200000ac

080006dc <__NVIC_SetPriority>:
  \param [in]      IRQn  Interrupt number.
  \param [in]  priority  Priority to set.
  \note    The priority cannot be set for every processor exception.
 */
__STATIC_INLINE void __NVIC_SetPriority(IRQn_Type IRQn, uint32_t priority)
{
 80006dc:	b590      	push	{r4, r7, lr}
 80006de:	b083      	sub	sp, #12
 80006e0:	af00      	add	r7, sp, #0
 80006e2:	0002      	movs	r2, r0
 80006e4:	6039      	str	r1, [r7, #0]
 80006e6:	1dfb      	adds	r3, r7, #7
 80006e8:	701a      	strb	r2, [r3, #0]
  if ((int32_t)(IRQn) >= 0)
 80006ea:	1dfb      	adds	r3, r7, #7
 80006ec:	781b      	ldrb	r3, [r3, #0]
 80006ee:	2b7f      	cmp	r3, #127	; 0x7f
 80006f0:	d828      	bhi.n	8000744 <__NVIC_SetPriority+0x68>
  {
    NVIC->IP[_IP_IDX(IRQn)]  = ((uint32_t)(NVIC->IP[_IP_IDX(IRQn)]  & ~(0xFFUL << _BIT_SHIFT(IRQn))) |
 80006f2:	4a2f      	ldr	r2, [pc, #188]	; (80007b0 <__NVIC_SetPriority+0xd4>)
 80006f4:	1dfb      	adds	r3, r7, #7
 80006f6:	781b      	ldrb	r3, [r3, #0]
 80006f8:	b25b      	sxtb	r3, r3
 80006fa:	089b      	lsrs	r3, r3, #2
 80006fc:	33c0      	adds	r3, #192	; 0xc0
 80006fe:	009b      	lsls	r3, r3, #2
 8000700:	589b      	ldr	r3, [r3, r2]
 8000702:	1dfa      	adds	r2, r7, #7
 8000704:	7812      	ldrb	r2, [r2, #0]
 8000706:	0011      	movs	r1, r2
 8000708:	2203      	movs	r2, #3
 800070a:	400a      	ands	r2, r1
 800070c:	00d2      	lsls	r2, r2, #3
 800070e:	21ff      	movs	r1, #255	; 0xff
 8000710:	4091      	lsls	r1, r2
 8000712:	000a      	movs	r2, r1
 8000714:	43d2      	mvns	r2, r2
 8000716:	401a      	ands	r2, r3
 8000718:	0011      	movs	r1, r2
       (((priority << (8U - __NVIC_PRIO_BITS)) & (uint32_t)0xFFUL) << _BIT_SHIFT(IRQn)));
 800071a:	683b      	ldr	r3, [r7, #0]
 800071c:	019b      	lsls	r3, r3, #6
 800071e:	22ff      	movs	r2, #255	; 0xff
 8000720:	401a      	ands	r2, r3
 8000722:	1dfb      	adds	r3, r7, #7
 8000724:	781b      	ldrb	r3, [r3, #0]
 8000726:	0018      	movs	r0, r3
 8000728:	2303      	movs	r3, #3
 800072a:	4003      	ands	r3, r0
 800072c:	00db      	lsls	r3, r3, #3
 800072e:	409a      	lsls	r2, r3
    NVIC->IP[_IP_IDX(IRQn)]  = ((uint32_t)(NVIC->IP[_IP_IDX(IRQn)]  & ~(0xFFUL << _BIT_SHIFT(IRQn))) |
 8000730:	481f      	ldr	r0, [pc, #124]	; (80007b0 <__NVIC_SetPriority+0xd4>)
 8000732:	1dfb      	adds	r3, r7, #7
 8000734:	781b      	ldrb	r3, [r3, #0]
 8000736:	b25b      	sxtb	r3, r3
 8000738:	089b      	lsrs	r3, r3, #2
 800073a:	430a      	orrs	r2, r1
 800073c:	33c0      	adds	r3, #192	; 0xc0
 800073e:	009b      	lsls	r3, r3, #2
 8000740:	501a      	str	r2, [r3, r0]
  else
  {
    SCB->SHP[_SHP_IDX(IRQn)] = ((uint32_t)(SCB->SHP[_SHP_IDX(IRQn)] & ~(0xFFUL << _BIT_SHIFT(IRQn))) |
       (((priority << (8U - __NVIC_PRIO_BITS)) & (uint32_t)0xFFUL) << _BIT_SHIFT(IRQn)));
  }
}
 8000742:	e031      	b.n	80007a8 <__NVIC_SetPriority+0xcc>
    SCB->SHP[_SHP_IDX(IRQn)] = ((uint32_t)(SCB->SHP[_SHP_IDX(IRQn)] & ~(0xFFUL << _BIT_SHIFT(IRQn))) |
 8000744:	4a1b      	ldr	r2, [pc, #108]	; (80007b4 <__NVIC_SetPriority+0xd8>)
 8000746:	1dfb      	adds	r3, r7, #7
 8000748:	781b      	ldrb	r3, [r3, #0]
 800074a:	0019      	movs	r1, r3
 800074c:	230f      	movs	r3, #15
 800074e:	400b      	ands	r3, r1
 8000750:	3b08      	subs	r3, #8
 8000752:	089b      	lsrs	r3, r3, #2
 8000754:	3306      	adds	r3, #6
 8000756:	009b      	lsls	r3, r3, #2
 8000758:	18d3      	adds	r3, r2, r3
 800075a:	3304      	adds	r3, #4
 800075c:	681b      	ldr	r3, [r3, #0]
 800075e:	1dfa      	adds	r2, r7, #7
 8000760:	7812      	ldrb	r2, [r2, #0]
 8000762:	0011      	movs	r1, r2
 8000764:	2203      	movs	r2, #3
 8000766:	400a      	ands	r2, r1
 8000768:	00d2      	lsls	r2, r2, #3
 800076a:	21ff      	movs	r1, #255	; 0xff
 800076c:	4091      	lsls	r1, r2
 800076e:	000a      	movs	r2, r1
 8000770:	43d2      	mvns	r2, r2
 8000772:	401a      	ands	r2, r3
 8000774:	0011      	movs	r1, r2
       (((priority << (8U - __NVIC_PRIO_BITS)) & (uint32_t)0xFFUL) << _BIT_SHIFT(IRQn)));
 8000776:	683b      	ldr	r3, [r7, #0]
 8000778:	019b      	lsls	r3, r3, #6
 800077a:	22ff      	movs	r2, #255	; 0xff
 800077c:	401a      	ands	r2, r3
 800077e:	1dfb      	adds	r3, r7, #7
 8000780:	781b      	ldrb	r3, [r3, #0]
 8000782:	0018      	movs	r0, r3
 8000784:	2303      	movs	r3, #3
 8000786:	4003      	ands	r3, r0
 8000788:	00db      	lsls	r3, r3, #3
 800078a:	409a      	lsls	r2, r3
    SCB->SHP[_SHP_IDX(IRQn)] = ((uint32_t)(SCB->SHP[_SHP_IDX(IRQn)] & ~(0xFFUL << _BIT_SHIFT(IRQn))) |
 800078c:	4809      	ldr	r0, [pc, #36]	; (80007b4 <__NVIC_SetPriority+0xd8>)
 800078e:	1dfb      	adds	r3, r7, #7
 8000790:	781b      	ldrb	r3, [r3, #0]
 8000792:	001c      	movs	r4, r3
 8000794:	230f      	movs	r3, #15
 8000796:	4023      	ands	r3, r4
 8000798:	3b08      	subs	r3, #8
 800079a:	089b      	lsrs	r3, r3, #2
 800079c:	430a      	orrs	r2, r1
 800079e:	3306      	adds	r3, #6
 80007a0:	009b      	lsls	r3, r3, #2
 80007a2:	18c3      	adds	r3, r0, r3
 80007a4:	3304      	adds	r3, #4
 80007a6:	601a      	str	r2, [r3, #0]
}
 80007a8:	46c0      	nop			; (mov r8, r8)
 80007aa:	46bd      	mov	sp, r7
 80007ac:	b003      	add	sp, #12
 80007ae:	bd90      	pop	{r4, r7, pc}
 80007b0:	e000e100 	.word	0xe000e100
 80007b4:	e000ed00 	.word	0xe000ed00

080007b8 <SysTick_Config>:
  \note    When the variable <b>__Vendor_SysTickConfig</b> is set to 1, then the
           function <b>SysTick_Config</b> is not included. In this case, the file <b><i>device</i>.h</b>
           must contain a vendor-specific implementation of this function.
 */
__STATIC_INLINE uint32_t SysTick_Config(uint32_t ticks)
{
 80007b8:	b580      	push	{r7, lr}
 80007ba:	b082      	sub	sp, #8
 80007bc:	af00      	add	r7, sp, #0
 80007be:	6078      	str	r0, [r7, #4]
  if ((ticks - 1UL) > SysTick_LOAD_RELOAD_Msk)
 80007c0:	687b      	ldr	r3, [r7, #4]
 80007c2:	3b01      	subs	r3, #1
 80007c4:	4a0c      	ldr	r2, [pc, #48]	; (80007f8 <SysTick_Config+0x40>)
 80007c6:	4293      	cmp	r3, r2
 80007c8:	d901      	bls.n	80007ce <SysTick_Config+0x16>
  {
    return (1UL);                                                   /* Reload value impossible */
 80007ca:	2301      	movs	r3, #1
 80007cc:	e010      	b.n	80007f0 <SysTick_Config+0x38>
  }

  SysTick->LOAD  = (uint32_t)(ticks - 1UL);                         /* set reload register */
 80007ce:	4b0b      	ldr	r3, [pc, #44]	; (80007fc <SysTick_Config+0x44>)
 80007d0:	687a      	ldr	r2, [r7, #4]
 80007d2:	3a01      	subs	r2, #1
 80007d4:	605a      	str	r2, [r3, #4]
  NVIC_SetPriority (SysTick_IRQn, (1UL << __NVIC_PRIO_BITS) - 1UL); /* set Priority for Systick Interrupt */
 80007d6:	2301      	movs	r3, #1
 80007d8:	425b      	negs	r3, r3
 80007da:	2103      	movs	r1, #3
 80007dc:	0018      	movs	r0, r3
 80007de:	f7ff ff7d 	bl	80006dc <__NVIC_SetPriority>
  SysTick->VAL   = 0UL;                                             /* Load the SysTick Counter Value */
 80007e2:	4b06      	ldr	r3, [pc, #24]	; (80007fc <SysTick_Config+0x44>)
 80007e4:	2200      	movs	r2, #0
 80007e6:	609a      	str	r2, [r3, #8]
  SysTick->CTRL  = SysTick_CTRL_CLKSOURCE_Msk |
 80007e8:	4b04      	ldr	r3, [pc, #16]	; (80007fc <SysTick_Config+0x44>)
 80007ea:	2207      	movs	r2, #7
 80007ec:	601a      	str	r2, [r3, #0]
                   SysTick_CTRL_TICKINT_Msk   |
                   SysTick_CTRL_ENABLE_Msk;                         /* Enable SysTick IRQ and SysTick Timer */
  return (0UL);                                                     /* Function successful */
 80007ee:	2300      	movs	r3, #0
}
 80007f0:	0018      	movs	r0, r3
 80007f2:	46bd      	mov	sp, r7
 80007f4:	b002      	add	sp, #8
 80007f6:	bd80      	pop	{r7, pc}
 80007f8:	00ffffff 	.word	0x00ffffff
 80007fc:	e000e010 	.word	0xe000e010

08000800 <HAL_NVIC_SetPriority>:
  *         with stm32f0xx devices, this parameter is a dummy value and it is ignored, because 
  *         no subpriority supported in Cortex M0 based products.   
  * @retval None
  */
void HAL_NVIC_SetPriority(IRQn_Type IRQn, uint32_t PreemptPriority, uint32_t SubPriority)
{ 
 8000800:	b580      	push	{r7, lr}
 8000802:	b084      	sub	sp, #16
 8000804:	af00      	add	r7, sp, #0
 8000806:	60b9      	str	r1, [r7, #8]
 8000808:	607a      	str	r2, [r7, #4]
 800080a:	210f      	movs	r1, #15
 800080c:	187b      	adds	r3, r7, r1
 800080e:	1c02      	adds	r2, r0, #0
 8000810:	701a      	strb	r2, [r3, #0]
  /* Check the parameters */
  assert_param(IS_NVIC_PREEMPTION_PRIORITY(PreemptPriority));
  NVIC_SetPriority(IRQn,PreemptPriority);
 8000812:	68ba      	ldr	r2, [r7, #8]
 8000814:	187b      	adds	r3, r7, r1
 8000816:	781b      	ldrb	r3, [r3, #0]
 8000818:	b25b      	sxtb	r3, r3
 800081a:	0011      	movs	r1, r2
 800081c:	0018      	movs	r0, r3
 800081e:	f7ff ff5d 	bl	80006dc <__NVIC_SetPriority>
}
 8000822:	46c0      	nop			; (mov r8, r8)
 8000824:	46bd      	mov	sp, r7
 8000826:	b004      	add	sp, #16
 8000828:	bd80      	pop	{r7, pc}

0800082a <HAL_SYSTICK_Config>:
  * @param  TicksNumb Specifies the ticks Number of ticks between two interrupts.
  * @retval status:  - 0  Function succeeded.
  *                  - 1  Function failed.
  */
uint32_t HAL_SYSTICK_Config(uint32_t TicksNumb)
{
 800082a:	b580      	push	{r7, lr}
 800082c:	b082      	sub	sp, #8
 800082e:	af00      	add	r7, sp, #0
 8000830:	6078      	str	r0, [r7, #4]
   return SysTick_Config(TicksNumb);
 8000832:	687b      	ldr	r3, [r7, #4]
 8000834:	0018      	movs	r0, r3
 8000836:	f7ff ffbf 	bl	80007b8 <SysTick_Config>
 800083a:	0003      	movs	r3, r0
}
 800083c:	0018      	movs	r0, r3
 800083e:	46bd      	mov	sp, r7
 8000840:	b002      	add	sp, #8
 8000842:	bd80      	pop	{r7, pc}

08000844 <HAL_GPIO_Init>:
  * @param  GPIO_Init pointer to a GPIO_InitTypeDef structure that contains
  *         the configuration information for the specified GPIO peripheral.
  * @retval None
  */
void HAL_GPIO_Init(GPIO_TypeDef  *GPIOx, GPIO_InitTypeDef *GPIO_Init)
{ 
 8000844:	b580      	push	{r7, lr}
 8000846:	b086      	sub	sp, #24
 8000848:	af00      	add	r7, sp, #0
 800084a:	6078      	str	r0, [r7, #4]
 800084c:	6039      	str	r1, [r7, #0]
  uint32_t position = 0x00u;
 800084e:	2300      	movs	r3, #0
 8000850:	617b      	str	r3, [r7, #20]
  assert_param(IS_GPIO_PIN(GPIO_Init->Pin));
  assert_param(IS_GPIO_MODE(GPIO_Init->Mode));
  assert_param(IS_GPIO_PULL(GPIO_Init->Pull));

  /* Configure the port pins */
  while (((GPIO_Init->Pin) >> position) != 0x00u)
 8000852:	e149      	b.n	8000ae8 <HAL_GPIO_Init+0x2a4>
  {
    /* Get current io position */
    iocurrent = (GPIO_Init->Pin) & (1uL << position);
 8000854:	683b      	ldr	r3, [r7, #0]
 8000856:	681b      	ldr	r3, [r3, #0]
 8000858:	2101      	movs	r1, #1
 800085a:	697a      	ldr	r2, [r7, #20]
 800085c:	4091      	lsls	r1, r2
 800085e:	000a      	movs	r2, r1
 8000860:	4013      	ands	r3, r2
 8000862:	60fb      	str	r3, [r7, #12]

    if (iocurrent != 0x00u)
 8000864:	68fb      	ldr	r3, [r7, #12]
 8000866:	2b00      	cmp	r3, #0
 8000868:	d100      	bne.n	800086c <HAL_GPIO_Init+0x28>
 800086a:	e13a      	b.n	8000ae2 <HAL_GPIO_Init+0x29e>
    {
      /*--------------------- GPIO Mode Configuration ------------------------*/
      /* In case of Output or Alternate function mode selection */
      if((GPIO_Init->Mode == GPIO_MODE_OUTPUT_PP) || (GPIO_Init->Mode == GPIO_MODE_AF_PP) ||
 800086c:	683b      	ldr	r3, [r7, #0]
 800086e:	685b      	ldr	r3, [r3, #4]
 8000870:	2b01      	cmp	r3, #1
 8000872:	d00b      	beq.n	800088c <HAL_GPIO_Init+0x48>
 8000874:	683b      	ldr	r3, [r7, #0]
 8000876:	685b      	ldr	r3, [r3, #4]
 8000878:	2b02      	cmp	r3, #2
 800087a:	d007      	beq.n	800088c <HAL_GPIO_Init+0x48>
         (GPIO_Init->Mode == GPIO_MODE_OUTPUT_OD) || (GPIO_Init->Mode == GPIO_MODE_AF_OD))
 800087c:	683b      	ldr	r3, [r7, #0]
 800087e:	685b      	ldr	r3, [r3, #4]
      if((GPIO_Init->Mode == GPIO_MODE_OUTPUT_PP) || (GPIO_Init->Mode == GPIO_MODE_AF_PP) ||
 8000880:	2b11      	cmp	r3, #17
 8000882:	d003      	beq.n	800088c <HAL_GPIO_Init+0x48>
         (GPIO_Init->Mode == GPIO_MODE_OUTPUT_OD) || (GPIO_Init->Mode == GPIO_MODE_AF_OD))
 8000884:	683b      	ldr	r3, [r7, #0]
 8000886:	685b      	ldr	r3, [r3, #4]
 8000888:	2b12      	cmp	r3, #18
 800088a:	d130      	bne.n	80008ee <HAL_GPIO_Init+0xaa>
      {
        /* Check the Speed parameter */
        assert_param(IS_GPIO_SPEED(GPIO_Init->Speed));
        /* Configure the IO Speed */
        temp = GPIOx->OSPEEDR;
 800088c:	687b      	ldr	r3, [r7, #4]
 800088e:	689b      	ldr	r3, [r3, #8]
 8000890:	613b      	str	r3, [r7, #16]
        temp &= ~(GPIO_OSPEEDER_OSPEEDR0 << (position * 2u));
 8000892:	697b      	ldr	r3, [r7, #20]
 8000894:	005b      	lsls	r3, r3, #1
 8000896:	2203      	movs	r2, #3
 8000898:	409a      	lsls	r2, r3
 800089a:	0013      	movs	r3, r2
 800089c:	43da      	mvns	r2, r3
 800089e:	693b      	ldr	r3, [r7, #16]
 80008a0:	4013      	ands	r3, r2
 80008a2:	613b      	str	r3, [r7, #16]
        temp |= (GPIO_Init->Speed << (position * 2u));
 80008a4:	683b      	ldr	r3, [r7, #0]
 80008a6:	68da      	ldr	r2, [r3, #12]
 80008a8:	697b      	ldr	r3, [r7, #20]
 80008aa:	005b      	lsls	r3, r3, #1
 80008ac:	409a      	lsls	r2, r3
 80008ae:	0013      	movs	r3, r2
 80008b0:	693a      	ldr	r2, [r7, #16]
 80008b2:	4313      	orrs	r3, r2
 80008b4:	613b      	str	r3, [r7, #16]
        GPIOx->OSPEEDR = temp;
 80008b6:	687b      	ldr	r3, [r7, #4]
 80008b8:	693a      	ldr	r2, [r7, #16]
 80008ba:	609a      	str	r2, [r3, #8]

        /* Configure the IO Output Type */
        temp = GPIOx->OTYPER;
 80008bc:	687b      	ldr	r3, [r7, #4]
 80008be:	685b      	ldr	r3, [r3, #4]
 80008c0:	613b      	str	r3, [r7, #16]
        temp &= ~(GPIO_OTYPER_OT_0 << position) ;
 80008c2:	2201      	movs	r2, #1
 80008c4:	697b      	ldr	r3, [r7, #20]
 80008c6:	409a      	lsls	r2, r3
 80008c8:	0013      	movs	r3, r2
 80008ca:	43da      	mvns	r2, r3
 80008cc:	693b      	ldr	r3, [r7, #16]
 80008ce:	4013      	ands	r3, r2
 80008d0:	613b      	str	r3, [r7, #16]
        temp |= (((GPIO_Init->Mode & GPIO_OUTPUT_TYPE) >> 4u) << position);
 80008d2:	683b      	ldr	r3, [r7, #0]
 80008d4:	685b      	ldr	r3, [r3, #4]
 80008d6:	091b      	lsrs	r3, r3, #4
 80008d8:	2201      	movs	r2, #1
 80008da:	401a      	ands	r2, r3
 80008dc:	697b      	ldr	r3, [r7, #20]
 80008de:	409a      	lsls	r2, r3
 80008e0:	0013      	movs	r3, r2
 80008e2:	693a      	ldr	r2, [r7, #16]
 80008e4:	4313      	orrs	r3, r2
 80008e6:	613b      	str	r3, [r7, #16]
        GPIOx->OTYPER = temp;
 80008e8:	687b      	ldr	r3, [r7, #4]
 80008ea:	693a      	ldr	r2, [r7, #16]
 80008ec:	605a      	str	r2, [r3, #4]
      }

      /* Activate the Pull-up or Pull down resistor for the current IO */
      temp = GPIOx->PUPDR;
 80008ee:	687b      	ldr	r3, [r7, #4]
 80008f0:	68db      	ldr	r3, [r3, #12]
 80008f2:	613b      	str	r3, [r7, #16]
      temp &= ~(GPIO_PUPDR_PUPDR0 << (position * 2u));
 80008f4:	697b      	ldr	r3, [r7, #20]
 80008f6:	005b      	lsls	r3, r3, #1
 80008f8:	2203      	movs	r2, #3
 80008fa:	409a      	lsls	r2, r3
 80008fc:	0013      	movs	r3, r2
 80008fe:	43da      	mvns	r2, r3
 8000900:	693b      	ldr	r3, [r7, #16]
 8000902:	4013      	ands	r3, r2
 8000904:	613b      	str	r3, [r7, #16]
      temp |= ((GPIO_Init->Pull) << (position * 2u));
 8000906:	683b      	ldr	r3, [r7, #0]
 8000908:	689a      	ldr	r2, [r3, #8]
 800090a:	697b      	ldr	r3, [r7, #20]
 800090c:	005b      	lsls	r3, r3, #1
 800090e:	409a      	lsls	r2, r3
 8000910:	0013      	movs	r3, r2
 8000912:	693a      	ldr	r2, [r7, #16]
 8000914:	4313      	orrs	r3, r2
 8000916:	613b      	str	r3, [r7, #16]
      GPIOx->PUPDR = temp;
 8000918:	687b      	ldr	r3, [r7, #4]
 800091a:	693a      	ldr	r2, [r7, #16]
 800091c:	60da      	str	r2, [r3, #12]

      /* In case of Alternate function mode selection */
      if((GPIO_Init->Mode == GPIO_MODE_AF_PP) || (GPIO_Init->Mode == GPIO_MODE_AF_OD))
 800091e:	683b      	ldr	r3, [r7, #0]
 8000920:	685b      	ldr	r3, [r3, #4]
 8000922:	2b02      	cmp	r3, #2
 8000924:	d003      	beq.n	800092e <HAL_GPIO_Init+0xea>
 8000926:	683b      	ldr	r3, [r7, #0]
 8000928:	685b      	ldr	r3, [r3, #4]
 800092a:	2b12      	cmp	r3, #18
 800092c:	d123      	bne.n	8000976 <HAL_GPIO_Init+0x132>
        /* Check the Alternate function parameters */
        assert_param(IS_GPIO_AF_INSTANCE(GPIOx));
        assert_param(IS_GPIO_AF(GPIO_Init->Alternate));

        /* Configure Alternate function mapped with the current IO */
        temp = GPIOx->AFR[position >> 3u];
 800092e:	697b      	ldr	r3, [r7, #20]
 8000930:	08da      	lsrs	r2, r3, #3
 8000932:	687b      	ldr	r3, [r7, #4]
 8000934:	3208      	adds	r2, #8
 8000936:	0092      	lsls	r2, r2, #2
 8000938:	58d3      	ldr	r3, [r2, r3]
 800093a:	613b      	str	r3, [r7, #16]
        temp &= ~(0xFu << ((position & 0x07u) * 4u));
 800093c:	697b      	ldr	r3, [r7, #20]
 800093e:	2207      	movs	r2, #7
 8000940:	4013      	ands	r3, r2
 8000942:	009b      	lsls	r3, r3, #2
 8000944:	220f      	movs	r2, #15
 8000946:	409a      	lsls	r2, r3
 8000948:	0013      	movs	r3, r2
 800094a:	43da      	mvns	r2, r3
 800094c:	693b      	ldr	r3, [r7, #16]
 800094e:	4013      	ands	r3, r2
 8000950:	613b      	str	r3, [r7, #16]
        temp |= ((GPIO_Init->Alternate) << ((position & 0x07u) * 4u));
 8000952:	683b      	ldr	r3, [r7, #0]
 8000954:	691a      	ldr	r2, [r3, #16]
 8000956:	697b      	ldr	r3, [r7, #20]
 8000958:	2107      	movs	r1, #7
 800095a:	400b      	ands	r3, r1
 800095c:	009b      	lsls	r3, r3, #2
 800095e:	409a      	lsls	r2, r3
 8000960:	0013      	movs	r3, r2
 8000962:	693a      	ldr	r2, [r7, #16]
 8000964:	4313      	orrs	r3, r2
 8000966:	613b      	str	r3, [r7, #16]
        GPIOx->AFR[position >> 3u] = temp;
 8000968:	697b      	ldr	r3, [r7, #20]
 800096a:	08da      	lsrs	r2, r3, #3
 800096c:	687b      	ldr	r3, [r7, #4]
 800096e:	3208      	adds	r2, #8
 8000970:	0092      	lsls	r2, r2, #2
 8000972:	6939      	ldr	r1, [r7, #16]
 8000974:	50d1      	str	r1, [r2, r3]
      }

      /* Configure IO Direction mode (Input, Output, Alternate or Analog) */
      temp = GPIOx->MODER;
 8000976:	687b      	ldr	r3, [r7, #4]
 8000978:	681b      	ldr	r3, [r3, #0]
 800097a:	613b      	str	r3, [r7, #16]
      temp &= ~(GPIO_MODER_MODER0 << (position * 2u));
 800097c:	697b      	ldr	r3, [r7, #20]
 800097e:	005b      	lsls	r3, r3, #1
 8000980:	2203      	movs	r2, #3
 8000982:	409a      	lsls	r2, r3
 8000984:	0013      	movs	r3, r2
 8000986:	43da      	mvns	r2, r3
 8000988:	693b      	ldr	r3, [r7, #16]
 800098a:	4013      	ands	r3, r2
 800098c:	613b      	str	r3, [r7, #16]
      temp |= ((GPIO_Init->Mode & GPIO_MODE) << (position * 2u));
 800098e:	683b      	ldr	r3, [r7, #0]
 8000990:	685b      	ldr	r3, [r3, #4]
 8000992:	2203      	movs	r2, #3
 8000994:	401a      	ands	r2, r3
 8000996:	697b      	ldr	r3, [r7, #20]
 8000998:	005b      	lsls	r3, r3, #1
 800099a:	409a      	lsls	r2, r3
 800099c:	0013      	movs	r3, r2
 800099e:	693a      	ldr	r2, [r7, #16]
 80009a0:	4313      	orrs	r3, r2
 80009a2:	613b      	str	r3, [r7, #16]
      GPIOx->MODER = temp;
 80009a4:	687b      	ldr	r3, [r7, #4]
 80009a6:	693a      	ldr	r2, [r7, #16]
 80009a8:	601a      	str	r2, [r3, #0]

      /*--------------------- EXTI Mode Configuration ------------------------*/
      /* Configure the External Interrupt or event for the current IO */
      if((GPIO_Init->Mode & EXTI_MODE) == EXTI_MODE)
 80009aa:	683b      	ldr	r3, [r7, #0]
 80009ac:	685a      	ldr	r2, [r3, #4]
 80009ae:	2380      	movs	r3, #128	; 0x80
 80009b0:	055b      	lsls	r3, r3, #21
 80009b2:	4013      	ands	r3, r2
 80009b4:	d100      	bne.n	80009b8 <HAL_GPIO_Init+0x174>
 80009b6:	e094      	b.n	8000ae2 <HAL_GPIO_Init+0x29e>
      {
        /* Enable SYSCFG Clock */
        __HAL_RCC_SYSCFG_CLK_ENABLE();
 80009b8:	4b51      	ldr	r3, [pc, #324]	; (8000b00 <HAL_GPIO_Init+0x2bc>)
 80009ba:	699a      	ldr	r2, [r3, #24]
 80009bc:	4b50      	ldr	r3, [pc, #320]	; (8000b00 <HAL_GPIO_Init+0x2bc>)
 80009be:	2101      	movs	r1, #1
 80009c0:	430a      	orrs	r2, r1
 80009c2:	619a      	str	r2, [r3, #24]
 80009c4:	4b4e      	ldr	r3, [pc, #312]	; (8000b00 <HAL_GPIO_Init+0x2bc>)
 80009c6:	699b      	ldr	r3, [r3, #24]
 80009c8:	2201      	movs	r2, #1
 80009ca:	4013      	ands	r3, r2
 80009cc:	60bb      	str	r3, [r7, #8]
 80009ce:	68bb      	ldr	r3, [r7, #8]

        temp = SYSCFG->EXTICR[position >> 2u];
 80009d0:	4a4c      	ldr	r2, [pc, #304]	; (8000b04 <HAL_GPIO_Init+0x2c0>)
 80009d2:	697b      	ldr	r3, [r7, #20]
 80009d4:	089b      	lsrs	r3, r3, #2
 80009d6:	3302      	adds	r3, #2
 80009d8:	009b      	lsls	r3, r3, #2
 80009da:	589b      	ldr	r3, [r3, r2]
 80009dc:	613b      	str	r3, [r7, #16]
        temp &= ~(0x0FuL << (4u * (position & 0x03u)));
 80009de:	697b      	ldr	r3, [r7, #20]
 80009e0:	2203      	movs	r2, #3
 80009e2:	4013      	ands	r3, r2
 80009e4:	009b      	lsls	r3, r3, #2
 80009e6:	220f      	movs	r2, #15
 80009e8:	409a      	lsls	r2, r3
 80009ea:	0013      	movs	r3, r2
 80009ec:	43da      	mvns	r2, r3
 80009ee:	693b      	ldr	r3, [r7, #16]
 80009f0:	4013      	ands	r3, r2
 80009f2:	613b      	str	r3, [r7, #16]
        temp |= (GPIO_GET_INDEX(GPIOx) << (4u * (position & 0x03u)));
 80009f4:	687a      	ldr	r2, [r7, #4]
 80009f6:	2390      	movs	r3, #144	; 0x90
 80009f8:	05db      	lsls	r3, r3, #23
 80009fa:	429a      	cmp	r2, r3
 80009fc:	d00d      	beq.n	8000a1a <HAL_GPIO_Init+0x1d6>
 80009fe:	687b      	ldr	r3, [r7, #4]
 8000a00:	4a41      	ldr	r2, [pc, #260]	; (8000b08 <HAL_GPIO_Init+0x2c4>)
 8000a02:	4293      	cmp	r3, r2
 8000a04:	d007      	beq.n	8000a16 <HAL_GPIO_Init+0x1d2>
 8000a06:	687b      	ldr	r3, [r7, #4]
 8000a08:	4a40      	ldr	r2, [pc, #256]	; (8000b0c <HAL_GPIO_Init+0x2c8>)
 8000a0a:	4293      	cmp	r3, r2
 8000a0c:	d101      	bne.n	8000a12 <HAL_GPIO_Init+0x1ce>
 8000a0e:	2302      	movs	r3, #2
 8000a10:	e004      	b.n	8000a1c <HAL_GPIO_Init+0x1d8>
 8000a12:	2305      	movs	r3, #5
 8000a14:	e002      	b.n	8000a1c <HAL_GPIO_Init+0x1d8>
 8000a16:	2301      	movs	r3, #1
 8000a18:	e000      	b.n	8000a1c <HAL_GPIO_Init+0x1d8>
 8000a1a:	2300      	movs	r3, #0
 8000a1c:	697a      	ldr	r2, [r7, #20]
 8000a1e:	2103      	movs	r1, #3
 8000a20:	400a      	ands	r2, r1
 8000a22:	0092      	lsls	r2, r2, #2
 8000a24:	4093      	lsls	r3, r2
 8000a26:	693a      	ldr	r2, [r7, #16]
 8000a28:	4313      	orrs	r3, r2
 8000a2a:	613b      	str	r3, [r7, #16]
        SYSCFG->EXTICR[position >> 2u] = temp;
 8000a2c:	4935      	ldr	r1, [pc, #212]	; (8000b04 <HAL_GPIO_Init+0x2c0>)
 8000a2e:	697b      	ldr	r3, [r7, #20]
 8000a30:	089b      	lsrs	r3, r3, #2
 8000a32:	3302      	adds	r3, #2
 8000a34:	009b      	lsls	r3, r3, #2
 8000a36:	693a      	ldr	r2, [r7, #16]
 8000a38:	505a      	str	r2, [r3, r1]

        /* Clear EXTI line configuration */
        temp = EXTI->IMR;
 8000a3a:	4b35      	ldr	r3, [pc, #212]	; (8000b10 <HAL_GPIO_Init+0x2cc>)
 8000a3c:	681b      	ldr	r3, [r3, #0]
 8000a3e:	613b      	str	r3, [r7, #16]
        temp &= ~(iocurrent);
 8000a40:	68fb      	ldr	r3, [r7, #12]
 8000a42:	43da      	mvns	r2, r3
 8000a44:	693b      	ldr	r3, [r7, #16]
 8000a46:	4013      	ands	r3, r2
 8000a48:	613b      	str	r3, [r7, #16]
        if((GPIO_Init->Mode & GPIO_MODE_IT) == GPIO_MODE_IT)
 8000a4a:	683b      	ldr	r3, [r7, #0]
 8000a4c:	685a      	ldr	r2, [r3, #4]
 8000a4e:	2380      	movs	r3, #128	; 0x80
 8000a50:	025b      	lsls	r3, r3, #9
 8000a52:	4013      	ands	r3, r2
 8000a54:	d003      	beq.n	8000a5e <HAL_GPIO_Init+0x21a>
        {
          temp |= iocurrent;
 8000a56:	693a      	ldr	r2, [r7, #16]
 8000a58:	68fb      	ldr	r3, [r7, #12]
 8000a5a:	4313      	orrs	r3, r2
 8000a5c:	613b      	str	r3, [r7, #16]
        }
        EXTI->IMR = temp;
 8000a5e:	4b2c      	ldr	r3, [pc, #176]	; (8000b10 <HAL_GPIO_Init+0x2cc>)
 8000a60:	693a      	ldr	r2, [r7, #16]
 8000a62:	601a      	str	r2, [r3, #0]

        temp = EXTI->EMR;
 8000a64:	4b2a      	ldr	r3, [pc, #168]	; (8000b10 <HAL_GPIO_Init+0x2cc>)
 8000a66:	685b      	ldr	r3, [r3, #4]
 8000a68:	613b      	str	r3, [r7, #16]
        temp &= ~(iocurrent);
 8000a6a:	68fb      	ldr	r3, [r7, #12]
 8000a6c:	43da      	mvns	r2, r3
 8000a6e:	693b      	ldr	r3, [r7, #16]
 8000a70:	4013      	ands	r3, r2
 8000a72:	613b      	str	r3, [r7, #16]
        if((GPIO_Init->Mode & GPIO_MODE_EVT) == GPIO_MODE_EVT)
 8000a74:	683b      	ldr	r3, [r7, #0]
 8000a76:	685a      	ldr	r2, [r3, #4]
 8000a78:	2380      	movs	r3, #128	; 0x80
 8000a7a:	029b      	lsls	r3, r3, #10
 8000a7c:	4013      	ands	r3, r2
 8000a7e:	d003      	beq.n	8000a88 <HAL_GPIO_Init+0x244>
        {
          temp |= iocurrent;
 8000a80:	693a      	ldr	r2, [r7, #16]
 8000a82:	68fb      	ldr	r3, [r7, #12]
 8000a84:	4313      	orrs	r3, r2
 8000a86:	613b      	str	r3, [r7, #16]
        }
        EXTI->EMR = temp;
 8000a88:	4b21      	ldr	r3, [pc, #132]	; (8000b10 <HAL_GPIO_Init+0x2cc>)
 8000a8a:	693a      	ldr	r2, [r7, #16]
 8000a8c:	605a      	str	r2, [r3, #4]

        /* Clear Rising Falling edge configuration */
        temp = EXTI->RTSR;
 8000a8e:	4b20      	ldr	r3, [pc, #128]	; (8000b10 <HAL_GPIO_Init+0x2cc>)
 8000a90:	689b      	ldr	r3, [r3, #8]
 8000a92:	613b      	str	r3, [r7, #16]
        temp &= ~(iocurrent);
 8000a94:	68fb      	ldr	r3, [r7, #12]
 8000a96:	43da      	mvns	r2, r3
 8000a98:	693b      	ldr	r3, [r7, #16]
 8000a9a:	4013      	ands	r3, r2
 8000a9c:	613b      	str	r3, [r7, #16]
        if((GPIO_Init->Mode & RISING_EDGE) == RISING_EDGE)
 8000a9e:	683b      	ldr	r3, [r7, #0]
 8000aa0:	685a      	ldr	r2, [r3, #4]
 8000aa2:	2380      	movs	r3, #128	; 0x80
 8000aa4:	035b      	lsls	r3, r3, #13
 8000aa6:	4013      	ands	r3, r2
 8000aa8:	d003      	beq.n	8000ab2 <HAL_GPIO_Init+0x26e>
        {
          temp |= iocurrent;
 8000aaa:	693a      	ldr	r2, [r7, #16]
 8000aac:	68fb      	ldr	r3, [r7, #12]
 8000aae:	4313      	orrs	r3, r2
 8000ab0:	613b      	str	r3, [r7, #16]
        }
        EXTI->RTSR = temp;
 8000ab2:	4b17      	ldr	r3, [pc, #92]	; (8000b10 <HAL_GPIO_Init+0x2cc>)
 8000ab4:	693a      	ldr	r2, [r7, #16]
 8000ab6:	609a      	str	r2, [r3, #8]

        temp = EXTI->FTSR;
 8000ab8:	4b15      	ldr	r3, [pc, #84]	; (8000b10 <HAL_GPIO_Init+0x2cc>)
 8000aba:	68db      	ldr	r3, [r3, #12]
 8000abc:	613b      	str	r3, [r7, #16]
        temp &= ~(iocurrent);
 8000abe:	68fb      	ldr	r3, [r7, #12]
 8000ac0:	43da      	mvns	r2, r3
 8000ac2:	693b      	ldr	r3, [r7, #16]
 8000ac4:	4013      	ands	r3, r2
 8000ac6:	613b      	str	r3, [r7, #16]
        if((GPIO_Init->Mode & FALLING_EDGE) == FALLING_EDGE)
 8000ac8:	683b      	ldr	r3, [r7, #0]
 8000aca:	685a      	ldr	r2, [r3, #4]
 8000acc:	2380      	movs	r3, #128	; 0x80
 8000ace:	039b      	lsls	r3, r3, #14
 8000ad0:	4013      	ands	r3, r2
 8000ad2:	d003      	beq.n	8000adc <HAL_GPIO_Init+0x298>
        {
          temp |= iocurrent;
 8000ad4:	693a      	ldr	r2, [r7, #16]
 8000ad6:	68fb      	ldr	r3, [r7, #12]
 8000ad8:	4313      	orrs	r3, r2
 8000ada:	613b      	str	r3, [r7, #16]
        }
        EXTI->FTSR = temp;
 8000adc:	4b0c      	ldr	r3, [pc, #48]	; (8000b10 <HAL_GPIO_Init+0x2cc>)
 8000ade:	693a      	ldr	r2, [r7, #16]
 8000ae0:	60da      	str	r2, [r3, #12]
      }
    }

    position++;
 8000ae2:	697b      	ldr	r3, [r7, #20]
 8000ae4:	3301      	adds	r3, #1
 8000ae6:	617b      	str	r3, [r7, #20]
  while (((GPIO_Init->Pin) >> position) != 0x00u)
 8000ae8:	683b      	ldr	r3, [r7, #0]
 8000aea:	681a      	ldr	r2, [r3, #0]
 8000aec:	697b      	ldr	r3, [r7, #20]
 8000aee:	40da      	lsrs	r2, r3
 8000af0:	1e13      	subs	r3, r2, #0
 8000af2:	d000      	beq.n	8000af6 <HAL_GPIO_Init+0x2b2>
 8000af4:	e6ae      	b.n	8000854 <HAL_GPIO_Init+0x10>
  } 
}
 8000af6:	46c0      	nop			; (mov r8, r8)
 8000af8:	46bd      	mov	sp, r7
 8000afa:	b006      	add	sp, #24
 8000afc:	bd80      	pop	{r7, pc}
 8000afe:	46c0      	nop			; (mov r8, r8)
 8000b00:	40021000 	.word	0x40021000
 8000b04:	40010000 	.word	0x40010000
 8000b08:	48000400 	.word	0x48000400
 8000b0c:	48000800 	.word	0x48000800
 8000b10:	40010400 	.word	0x40010400

08000b14 <HAL_GPIO_ReadPin>:
  * @param  GPIO_Pin specifies the port bit to read.
  *         This parameter can be GPIO_PIN_x where x can be (0..15).
  * @retval The input port pin value.
  */
GPIO_PinState HAL_GPIO_ReadPin(GPIO_TypeDef* GPIOx, uint16_t GPIO_Pin)
{
 8000b14:	b580      	push	{r7, lr}
 8000b16:	b084      	sub	sp, #16
 8000b18:	af00      	add	r7, sp, #0
 8000b1a:	6078      	str	r0, [r7, #4]
 8000b1c:	000a      	movs	r2, r1
 8000b1e:	1cbb      	adds	r3, r7, #2
 8000b20:	801a      	strh	r2, [r3, #0]
  GPIO_PinState bitstatus;

  /* Check the parameters */
  assert_param(IS_GPIO_PIN(GPIO_Pin));

  if ((GPIOx->IDR & GPIO_Pin) != (uint32_t)GPIO_PIN_RESET)
 8000b22:	687b      	ldr	r3, [r7, #4]
 8000b24:	691b      	ldr	r3, [r3, #16]
 8000b26:	1cba      	adds	r2, r7, #2
 8000b28:	8812      	ldrh	r2, [r2, #0]
 8000b2a:	4013      	ands	r3, r2
 8000b2c:	d004      	beq.n	8000b38 <HAL_GPIO_ReadPin+0x24>
  {
    bitstatus = GPIO_PIN_SET;
 8000b2e:	230f      	movs	r3, #15
 8000b30:	18fb      	adds	r3, r7, r3
 8000b32:	2201      	movs	r2, #1
 8000b34:	701a      	strb	r2, [r3, #0]
 8000b36:	e003      	b.n	8000b40 <HAL_GPIO_ReadPin+0x2c>
  }
  else
  {
    bitstatus = GPIO_PIN_RESET;
 8000b38:	230f      	movs	r3, #15
 8000b3a:	18fb      	adds	r3, r7, r3
 8000b3c:	2200      	movs	r2, #0
 8000b3e:	701a      	strb	r2, [r3, #0]
  }
  return bitstatus;
 8000b40:	230f      	movs	r3, #15
 8000b42:	18fb      	adds	r3, r7, r3
 8000b44:	781b      	ldrb	r3, [r3, #0]
  }
 8000b46:	0018      	movs	r0, r3
 8000b48:	46bd      	mov	sp, r7
 8000b4a:	b004      	add	sp, #16
 8000b4c:	bd80      	pop	{r7, pc}

08000b4e <HAL_GPIO_WritePin>:
  *            @arg GPIO_PIN_RESET: to clear the port pin
  *            @arg GPIO_PIN_SET: to set the port pin
  * @retval None
  */
void HAL_GPIO_WritePin(GPIO_TypeDef* GPIOx, uint16_t GPIO_Pin, GPIO_PinState PinState)
{
 8000b4e:	b580      	push	{r7, lr}
 8000b50:	b082      	sub	sp, #8
 8000b52:	af00      	add	r7, sp, #0
 8000b54:	6078      	str	r0, [r7, #4]
 8000b56:	0008      	movs	r0, r1
 8000b58:	0011      	movs	r1, r2
 8000b5a:	1cbb      	adds	r3, r7, #2
 8000b5c:	1c02      	adds	r2, r0, #0
 8000b5e:	801a      	strh	r2, [r3, #0]
 8000b60:	1c7b      	adds	r3, r7, #1
 8000b62:	1c0a      	adds	r2, r1, #0
 8000b64:	701a      	strb	r2, [r3, #0]
  /* Check the parameters */
  assert_param(IS_GPIO_PIN(GPIO_Pin));
  assert_param(IS_GPIO_PIN_ACTION(PinState));

  if (PinState != GPIO_PIN_RESET)
 8000b66:	1c7b      	adds	r3, r7, #1
 8000b68:	781b      	ldrb	r3, [r3, #0]
 8000b6a:	2b00      	cmp	r3, #0
 8000b6c:	d004      	beq.n	8000b78 <HAL_GPIO_WritePin+0x2a>
  {
    GPIOx->BSRR = (uint32_t)GPIO_Pin;
 8000b6e:	1cbb      	adds	r3, r7, #2
 8000b70:	881a      	ldrh	r2, [r3, #0]
 8000b72:	687b      	ldr	r3, [r7, #4]
 8000b74:	619a      	str	r2, [r3, #24]
  }
  else
  {
    GPIOx->BRR = (uint32_t)GPIO_Pin;
  }
}
 8000b76:	e003      	b.n	8000b80 <HAL_GPIO_WritePin+0x32>
    GPIOx->BRR = (uint32_t)GPIO_Pin;
 8000b78:	1cbb      	adds	r3, r7, #2
 8000b7a:	881a      	ldrh	r2, [r3, #0]
 8000b7c:	687b      	ldr	r3, [r7, #4]
 8000b7e:	629a      	str	r2, [r3, #40]	; 0x28
}
 8000b80:	46c0      	nop			; (mov r8, r8)
 8000b82:	46bd      	mov	sp, r7
 8000b84:	b002      	add	sp, #8
 8000b86:	bd80      	pop	{r7, pc}

08000b88 <HAL_RCC_OscConfig>:
  *         supported by this macro. User should request a transition to HSE Off
  *         first and then HSE On or HSE Bypass.
  * @retval HAL status
  */
HAL_StatusTypeDef HAL_RCC_OscConfig(RCC_OscInitTypeDef  *RCC_OscInitStruct)
{
 8000b88:	b580      	push	{r7, lr}
 8000b8a:	b088      	sub	sp, #32
 8000b8c:	af00      	add	r7, sp, #0
 8000b8e:	6078      	str	r0, [r7, #4]
  uint32_t tickstart;
  uint32_t pll_config;
  uint32_t pll_config2;

  /* Check Null pointer */
  if(RCC_OscInitStruct == NULL)
 8000b90:	687b      	ldr	r3, [r7, #4]
 8000b92:	2b00      	cmp	r3, #0
 8000b94:	d102      	bne.n	8000b9c <HAL_RCC_OscConfig+0x14>
  {
    return HAL_ERROR;
 8000b96:	2301      	movs	r3, #1
 8000b98:	f000 fb76 	bl	8001288 <HAL_RCC_OscConfig+0x700>

  /* Check the parameters */
  assert_param(IS_RCC_OSCILLATORTYPE(RCC_OscInitStruct->OscillatorType));

  /*------------------------------- HSE Configuration ------------------------*/ 
  if(((RCC_OscInitStruct->OscillatorType) & RCC_OSCILLATORTYPE_HSE) == RCC_OSCILLATORTYPE_HSE)
 8000b9c:	687b      	ldr	r3, [r7, #4]
 8000b9e:	681b      	ldr	r3, [r3, #0]
 8000ba0:	2201      	movs	r2, #1
 8000ba2:	4013      	ands	r3, r2
 8000ba4:	d100      	bne.n	8000ba8 <HAL_RCC_OscConfig+0x20>
 8000ba6:	e08e      	b.n	8000cc6 <HAL_RCC_OscConfig+0x13e>
  {
    /* Check the parameters */
    assert_param(IS_RCC_HSE(RCC_OscInitStruct->HSEState));

    /* When the HSE is used as system clock or clock source for PLL in these cases it is not allowed to be disabled */
    if((__HAL_RCC_GET_SYSCLK_SOURCE() == RCC_SYSCLKSOURCE_STATUS_HSE) 
 8000ba8:	4bc5      	ldr	r3, [pc, #788]	; (8000ec0 <HAL_RCC_OscConfig+0x338>)
 8000baa:	685b      	ldr	r3, [r3, #4]
 8000bac:	220c      	movs	r2, #12
 8000bae:	4013      	ands	r3, r2
 8000bb0:	2b04      	cmp	r3, #4
 8000bb2:	d00e      	beq.n	8000bd2 <HAL_RCC_OscConfig+0x4a>
       || ((__HAL_RCC_GET_SYSCLK_SOURCE() == RCC_SYSCLKSOURCE_STATUS_PLLCLK) && (__HAL_RCC_GET_PLL_OSCSOURCE() == RCC_PLLSOURCE_HSE)))
 8000bb4:	4bc2      	ldr	r3, [pc, #776]	; (8000ec0 <HAL_RCC_OscConfig+0x338>)
 8000bb6:	685b      	ldr	r3, [r3, #4]
 8000bb8:	220c      	movs	r2, #12
 8000bba:	4013      	ands	r3, r2
 8000bbc:	2b08      	cmp	r3, #8
 8000bbe:	d117      	bne.n	8000bf0 <HAL_RCC_OscConfig+0x68>
 8000bc0:	4bbf      	ldr	r3, [pc, #764]	; (8000ec0 <HAL_RCC_OscConfig+0x338>)
 8000bc2:	685a      	ldr	r2, [r3, #4]
 8000bc4:	23c0      	movs	r3, #192	; 0xc0
 8000bc6:	025b      	lsls	r3, r3, #9
 8000bc8:	401a      	ands	r2, r3
 8000bca:	2380      	movs	r3, #128	; 0x80
 8000bcc:	025b      	lsls	r3, r3, #9
 8000bce:	429a      	cmp	r2, r3
 8000bd0:	d10e      	bne.n	8000bf0 <HAL_RCC_OscConfig+0x68>
    {
      if((__HAL_RCC_GET_FLAG(RCC_FLAG_HSERDY) != RESET) && (RCC_OscInitStruct->HSEState == RCC_HSE_OFF))
 8000bd2:	4bbb      	ldr	r3, [pc, #748]	; (8000ec0 <HAL_RCC_OscConfig+0x338>)
 8000bd4:	681a      	ldr	r2, [r3, #0]
 8000bd6:	2380      	movs	r3, #128	; 0x80
 8000bd8:	029b      	lsls	r3, r3, #10
 8000bda:	4013      	ands	r3, r2
 8000bdc:	d100      	bne.n	8000be0 <HAL_RCC_OscConfig+0x58>
 8000bde:	e071      	b.n	8000cc4 <HAL_RCC_OscConfig+0x13c>
 8000be0:	687b      	ldr	r3, [r7, #4]
 8000be2:	685b      	ldr	r3, [r3, #4]
 8000be4:	2b00      	cmp	r3, #0
 8000be6:	d000      	beq.n	8000bea <HAL_RCC_OscConfig+0x62>
 8000be8:	e06c      	b.n	8000cc4 <HAL_RCC_OscConfig+0x13c>
      {
        return HAL_ERROR;
 8000bea:	2301      	movs	r3, #1
 8000bec:	f000 fb4c 	bl	8001288 <HAL_RCC_OscConfig+0x700>
      }
    }
    else
    {
      /* Set the new HSE configuration ---------------------------------------*/
      __HAL_RCC_HSE_CONFIG(RCC_OscInitStruct->HSEState);
 8000bf0:	687b      	ldr	r3, [r7, #4]
 8000bf2:	685b      	ldr	r3, [r3, #4]
 8000bf4:	2b01      	cmp	r3, #1
 8000bf6:	d107      	bne.n	8000c08 <HAL_RCC_OscConfig+0x80>
 8000bf8:	4bb1      	ldr	r3, [pc, #708]	; (8000ec0 <HAL_RCC_OscConfig+0x338>)
 8000bfa:	681a      	ldr	r2, [r3, #0]
 8000bfc:	4bb0      	ldr	r3, [pc, #704]	; (8000ec0 <HAL_RCC_OscConfig+0x338>)
 8000bfe:	2180      	movs	r1, #128	; 0x80
 8000c00:	0249      	lsls	r1, r1, #9
 8000c02:	430a      	orrs	r2, r1
 8000c04:	601a      	str	r2, [r3, #0]
 8000c06:	e02f      	b.n	8000c68 <HAL_RCC_OscConfig+0xe0>
 8000c08:	687b      	ldr	r3, [r7, #4]
 8000c0a:	685b      	ldr	r3, [r3, #4]
 8000c0c:	2b00      	cmp	r3, #0
 8000c0e:	d10c      	bne.n	8000c2a <HAL_RCC_OscConfig+0xa2>
 8000c10:	4bab      	ldr	r3, [pc, #684]	; (8000ec0 <HAL_RCC_OscConfig+0x338>)
 8000c12:	681a      	ldr	r2, [r3, #0]
 8000c14:	4baa      	ldr	r3, [pc, #680]	; (8000ec0 <HAL_RCC_OscConfig+0x338>)
 8000c16:	49ab      	ldr	r1, [pc, #684]	; (8000ec4 <HAL_RCC_OscConfig+0x33c>)
 8000c18:	400a      	ands	r2, r1
 8000c1a:	601a      	str	r2, [r3, #0]
 8000c1c:	4ba8      	ldr	r3, [pc, #672]	; (8000ec0 <HAL_RCC_OscConfig+0x338>)
 8000c1e:	681a      	ldr	r2, [r3, #0]
 8000c20:	4ba7      	ldr	r3, [pc, #668]	; (8000ec0 <HAL_RCC_OscConfig+0x338>)
 8000c22:	49a9      	ldr	r1, [pc, #676]	; (8000ec8 <HAL_RCC_OscConfig+0x340>)
 8000c24:	400a      	ands	r2, r1
 8000c26:	601a      	str	r2, [r3, #0]
 8000c28:	e01e      	b.n	8000c68 <HAL_RCC_OscConfig+0xe0>
 8000c2a:	687b      	ldr	r3, [r7, #4]
 8000c2c:	685b      	ldr	r3, [r3, #4]
 8000c2e:	2b05      	cmp	r3, #5
 8000c30:	d10e      	bne.n	8000c50 <HAL_RCC_OscConfig+0xc8>
 8000c32:	4ba3      	ldr	r3, [pc, #652]	; (8000ec0 <HAL_RCC_OscConfig+0x338>)
 8000c34:	681a      	ldr	r2, [r3, #0]
 8000c36:	4ba2      	ldr	r3, [pc, #648]	; (8000ec0 <HAL_RCC_OscConfig+0x338>)
 8000c38:	2180      	movs	r1, #128	; 0x80
 8000c3a:	02c9      	lsls	r1, r1, #11
 8000c3c:	430a      	orrs	r2, r1
 8000c3e:	601a      	str	r2, [r3, #0]
 8000c40:	4b9f      	ldr	r3, [pc, #636]	; (8000ec0 <HAL_RCC_OscConfig+0x338>)
 8000c42:	681a      	ldr	r2, [r3, #0]
 8000c44:	4b9e      	ldr	r3, [pc, #632]	; (8000ec0 <HAL_RCC_OscConfig+0x338>)
 8000c46:	2180      	movs	r1, #128	; 0x80
 8000c48:	0249      	lsls	r1, r1, #9
 8000c4a:	430a      	orrs	r2, r1
 8000c4c:	601a      	str	r2, [r3, #0]
 8000c4e:	e00b      	b.n	8000c68 <HAL_RCC_OscConfig+0xe0>
 8000c50:	4b9b      	ldr	r3, [pc, #620]	; (8000ec0 <HAL_RCC_OscConfig+0x338>)
 8000c52:	681a      	ldr	r2, [r3, #0]
 8000c54:	4b9a      	ldr	r3, [pc, #616]	; (8000ec0 <HAL_RCC_OscConfig+0x338>)
 8000c56:	499b      	ldr	r1, [pc, #620]	; (8000ec4 <HAL_RCC_OscConfig+0x33c>)
 8000c58:	400a      	ands	r2, r1
 8000c5a:	601a      	str	r2, [r3, #0]
 8000c5c:	4b98      	ldr	r3, [pc, #608]	; (8000ec0 <HAL_RCC_OscConfig+0x338>)
 8000c5e:	681a      	ldr	r2, [r3, #0]
 8000c60:	4b97      	ldr	r3, [pc, #604]	; (8000ec0 <HAL_RCC_OscConfig+0x338>)
 8000c62:	4999      	ldr	r1, [pc, #612]	; (8000ec8 <HAL_RCC_OscConfig+0x340>)
 8000c64:	400a      	ands	r2, r1
 8000c66:	601a      	str	r2, [r3, #0]
      

       /* Check the HSE State */
      if(RCC_OscInitStruct->HSEState != RCC_HSE_OFF)
 8000c68:	687b      	ldr	r3, [r7, #4]
 8000c6a:	685b      	ldr	r3, [r3, #4]
 8000c6c:	2b00      	cmp	r3, #0
 8000c6e:	d014      	beq.n	8000c9a <HAL_RCC_OscConfig+0x112>
      {
        /* Get Start Tick */
        tickstart = HAL_GetTick();
 8000c70:	f7ff fd2a 	bl	80006c8 <HAL_GetTick>
 8000c74:	0003      	movs	r3, r0
 8000c76:	61bb      	str	r3, [r7, #24]
        
        /* Wait till HSE is ready */
        while(__HAL_RCC_GET_FLAG(RCC_FLAG_HSERDY) == RESET)
 8000c78:	e008      	b.n	8000c8c <HAL_RCC_OscConfig+0x104>
        {
          if((HAL_GetTick() - tickstart ) > HSE_TIMEOUT_VALUE)
 8000c7a:	f7ff fd25 	bl	80006c8 <HAL_GetTick>
 8000c7e:	0002      	movs	r2, r0
 8000c80:	69bb      	ldr	r3, [r7, #24]
 8000c82:	1ad3      	subs	r3, r2, r3
 8000c84:	2b64      	cmp	r3, #100	; 0x64
 8000c86:	d901      	bls.n	8000c8c <HAL_RCC_OscConfig+0x104>
          {
            return HAL_TIMEOUT;
 8000c88:	2303      	movs	r3, #3
 8000c8a:	e2fd      	b.n	8001288 <HAL_RCC_OscConfig+0x700>
        while(__HAL_RCC_GET_FLAG(RCC_FLAG_HSERDY) == RESET)
 8000c8c:	4b8c      	ldr	r3, [pc, #560]	; (8000ec0 <HAL_RCC_OscConfig+0x338>)
 8000c8e:	681a      	ldr	r2, [r3, #0]
 8000c90:	2380      	movs	r3, #128	; 0x80
 8000c92:	029b      	lsls	r3, r3, #10
 8000c94:	4013      	ands	r3, r2
 8000c96:	d0f0      	beq.n	8000c7a <HAL_RCC_OscConfig+0xf2>
 8000c98:	e015      	b.n	8000cc6 <HAL_RCC_OscConfig+0x13e>
        }
      }
      else
      {
        /* Get Start Tick */
        tickstart = HAL_GetTick();
 8000c9a:	f7ff fd15 	bl	80006c8 <HAL_GetTick>
 8000c9e:	0003      	movs	r3, r0
 8000ca0:	61bb      	str	r3, [r7, #24]
        
        /* Wait till HSE is disabled */
        while(__HAL_RCC_GET_FLAG(RCC_FLAG_HSERDY) != RESET)
 8000ca2:	e008      	b.n	8000cb6 <HAL_RCC_OscConfig+0x12e>
        {
           if((HAL_GetTick() - tickstart ) > HSE_TIMEOUT_VALUE)
 8000ca4:	f7ff fd10 	bl	80006c8 <HAL_GetTick>
 8000ca8:	0002      	movs	r2, r0
 8000caa:	69bb      	ldr	r3, [r7, #24]
 8000cac:	1ad3      	subs	r3, r2, r3
 8000cae:	2b64      	cmp	r3, #100	; 0x64
 8000cb0:	d901      	bls.n	8000cb6 <HAL_RCC_OscConfig+0x12e>
          {
            return HAL_TIMEOUT;
 8000cb2:	2303      	movs	r3, #3
 8000cb4:	e2e8      	b.n	8001288 <HAL_RCC_OscConfig+0x700>
        while(__HAL_RCC_GET_FLAG(RCC_FLAG_HSERDY) != RESET)
 8000cb6:	4b82      	ldr	r3, [pc, #520]	; (8000ec0 <HAL_RCC_OscConfig+0x338>)
 8000cb8:	681a      	ldr	r2, [r3, #0]
 8000cba:	2380      	movs	r3, #128	; 0x80
 8000cbc:	029b      	lsls	r3, r3, #10
 8000cbe:	4013      	ands	r3, r2
 8000cc0:	d1f0      	bne.n	8000ca4 <HAL_RCC_OscConfig+0x11c>
 8000cc2:	e000      	b.n	8000cc6 <HAL_RCC_OscConfig+0x13e>
      if((__HAL_RCC_GET_FLAG(RCC_FLAG_HSERDY) != RESET) && (RCC_OscInitStruct->HSEState == RCC_HSE_OFF))
 8000cc4:	46c0      	nop			; (mov r8, r8)
        }
      }
    }
  }
  /*----------------------------- HSI Configuration --------------------------*/ 
  if(((RCC_OscInitStruct->OscillatorType) & RCC_OSCILLATORTYPE_HSI) == RCC_OSCILLATORTYPE_HSI)
 8000cc6:	687b      	ldr	r3, [r7, #4]
 8000cc8:	681b      	ldr	r3, [r3, #0]
 8000cca:	2202      	movs	r2, #2
 8000ccc:	4013      	ands	r3, r2
 8000cce:	d100      	bne.n	8000cd2 <HAL_RCC_OscConfig+0x14a>
 8000cd0:	e06c      	b.n	8000dac <HAL_RCC_OscConfig+0x224>
    /* Check the parameters */
    assert_param(IS_RCC_HSI(RCC_OscInitStruct->HSIState));
    assert_param(IS_RCC_CALIBRATION_VALUE(RCC_OscInitStruct->HSICalibrationValue));
    
    /* Check if HSI is used as system clock or as PLL source when PLL is selected as system clock */ 
    if((__HAL_RCC_GET_SYSCLK_SOURCE() == RCC_SYSCLKSOURCE_STATUS_HSI) 
 8000cd2:	4b7b      	ldr	r3, [pc, #492]	; (8000ec0 <HAL_RCC_OscConfig+0x338>)
 8000cd4:	685b      	ldr	r3, [r3, #4]
 8000cd6:	220c      	movs	r2, #12
 8000cd8:	4013      	ands	r3, r2
 8000cda:	d00e      	beq.n	8000cfa <HAL_RCC_OscConfig+0x172>
       || ((__HAL_RCC_GET_SYSCLK_SOURCE() == RCC_SYSCLKSOURCE_STATUS_PLLCLK) && (__HAL_RCC_GET_PLL_OSCSOURCE() == RCC_PLLSOURCE_HSI)))
 8000cdc:	4b78      	ldr	r3, [pc, #480]	; (8000ec0 <HAL_RCC_OscConfig+0x338>)
 8000cde:	685b      	ldr	r3, [r3, #4]
 8000ce0:	220c      	movs	r2, #12
 8000ce2:	4013      	ands	r3, r2
 8000ce4:	2b08      	cmp	r3, #8
 8000ce6:	d11f      	bne.n	8000d28 <HAL_RCC_OscConfig+0x1a0>
 8000ce8:	4b75      	ldr	r3, [pc, #468]	; (8000ec0 <HAL_RCC_OscConfig+0x338>)
 8000cea:	685a      	ldr	r2, [r3, #4]
 8000cec:	23c0      	movs	r3, #192	; 0xc0
 8000cee:	025b      	lsls	r3, r3, #9
 8000cf0:	401a      	ands	r2, r3
 8000cf2:	2380      	movs	r3, #128	; 0x80
 8000cf4:	021b      	lsls	r3, r3, #8
 8000cf6:	429a      	cmp	r2, r3
 8000cf8:	d116      	bne.n	8000d28 <HAL_RCC_OscConfig+0x1a0>
    {
      /* When HSI is used as system clock it will not disabled */
      if((__HAL_RCC_GET_FLAG(RCC_FLAG_HSIRDY) != RESET) && (RCC_OscInitStruct->HSIState != RCC_HSI_ON))
 8000cfa:	4b71      	ldr	r3, [pc, #452]	; (8000ec0 <HAL_RCC_OscConfig+0x338>)
 8000cfc:	681b      	ldr	r3, [r3, #0]
 8000cfe:	2202      	movs	r2, #2
 8000d00:	4013      	ands	r3, r2
 8000d02:	d005      	beq.n	8000d10 <HAL_RCC_OscConfig+0x188>
 8000d04:	687b      	ldr	r3, [r7, #4]
 8000d06:	68db      	ldr	r3, [r3, #12]
 8000d08:	2b01      	cmp	r3, #1
 8000d0a:	d001      	beq.n	8000d10 <HAL_RCC_OscConfig+0x188>
      {
        return HAL_ERROR;
 8000d0c:	2301      	movs	r3, #1
 8000d0e:	e2bb      	b.n	8001288 <HAL_RCC_OscConfig+0x700>
      }
      /* Otherwise, just the calibration is allowed */
      else
      {
        /* Adjusts the Internal High Speed oscillator (HSI) calibration value.*/
        __HAL_RCC_HSI_CALIBRATIONVALUE_ADJUST(RCC_OscInitStruct->HSICalibrationValue);
 8000d10:	4b6b      	ldr	r3, [pc, #428]	; (8000ec0 <HAL_RCC_OscConfig+0x338>)
 8000d12:	681b      	ldr	r3, [r3, #0]
 8000d14:	22f8      	movs	r2, #248	; 0xf8
 8000d16:	4393      	bics	r3, r2
 8000d18:	0019      	movs	r1, r3
 8000d1a:	687b      	ldr	r3, [r7, #4]
 8000d1c:	691b      	ldr	r3, [r3, #16]
 8000d1e:	00da      	lsls	r2, r3, #3
 8000d20:	4b67      	ldr	r3, [pc, #412]	; (8000ec0 <HAL_RCC_OscConfig+0x338>)
 8000d22:	430a      	orrs	r2, r1
 8000d24:	601a      	str	r2, [r3, #0]
      if((__HAL_RCC_GET_FLAG(RCC_FLAG_HSIRDY) != RESET) && (RCC_OscInitStruct->HSIState != RCC_HSI_ON))
 8000d26:	e041      	b.n	8000dac <HAL_RCC_OscConfig+0x224>
      }
    }
    else
    {
      /* Check the HSI State */
      if(RCC_OscInitStruct->HSIState != RCC_HSI_OFF)
 8000d28:	687b      	ldr	r3, [r7, #4]
 8000d2a:	68db      	ldr	r3, [r3, #12]
 8000d2c:	2b00      	cmp	r3, #0
 8000d2e:	d024      	beq.n	8000d7a <HAL_RCC_OscConfig+0x1f2>
      {
       /* Enable the Internal High Speed oscillator (HSI). */
        __HAL_RCC_HSI_ENABLE();
 8000d30:	4b63      	ldr	r3, [pc, #396]	; (8000ec0 <HAL_RCC_OscConfig+0x338>)
 8000d32:	681a      	ldr	r2, [r3, #0]
 8000d34:	4b62      	ldr	r3, [pc, #392]	; (8000ec0 <HAL_RCC_OscConfig+0x338>)
 8000d36:	2101      	movs	r1, #1
 8000d38:	430a      	orrs	r2, r1
 8000d3a:	601a      	str	r2, [r3, #0]
        
        /* Get Start Tick */
        tickstart = HAL_GetTick();
 8000d3c:	f7ff fcc4 	bl	80006c8 <HAL_GetTick>
 8000d40:	0003      	movs	r3, r0
 8000d42:	61bb      	str	r3, [r7, #24]
        
        /* Wait till HSI is ready */
        while(__HAL_RCC_GET_FLAG(RCC_FLAG_HSIRDY) == RESET)
 8000d44:	e008      	b.n	8000d58 <HAL_RCC_OscConfig+0x1d0>
        {
          if((HAL_GetTick() - tickstart ) > HSI_TIMEOUT_VALUE)
 8000d46:	f7ff fcbf 	bl	80006c8 <HAL_GetTick>
 8000d4a:	0002      	movs	r2, r0
 8000d4c:	69bb      	ldr	r3, [r7, #24]
 8000d4e:	1ad3      	subs	r3, r2, r3
 8000d50:	2b02      	cmp	r3, #2
 8000d52:	d901      	bls.n	8000d58 <HAL_RCC_OscConfig+0x1d0>
          {
            return HAL_TIMEOUT;
 8000d54:	2303      	movs	r3, #3
 8000d56:	e297      	b.n	8001288 <HAL_RCC_OscConfig+0x700>
        while(__HAL_RCC_GET_FLAG(RCC_FLAG_HSIRDY) == RESET)
 8000d58:	4b59      	ldr	r3, [pc, #356]	; (8000ec0 <HAL_RCC_OscConfig+0x338>)
 8000d5a:	681b      	ldr	r3, [r3, #0]
 8000d5c:	2202      	movs	r2, #2
 8000d5e:	4013      	ands	r3, r2
 8000d60:	d0f1      	beq.n	8000d46 <HAL_RCC_OscConfig+0x1be>
          }
        }
                
        /* Adjusts the Internal High Speed oscillator (HSI) calibration value.*/
        __HAL_RCC_HSI_CALIBRATIONVALUE_ADJUST(RCC_OscInitStruct->HSICalibrationValue);
 8000d62:	4b57      	ldr	r3, [pc, #348]	; (8000ec0 <HAL_RCC_OscConfig+0x338>)
 8000d64:	681b      	ldr	r3, [r3, #0]
 8000d66:	22f8      	movs	r2, #248	; 0xf8
 8000d68:	4393      	bics	r3, r2
 8000d6a:	0019      	movs	r1, r3
 8000d6c:	687b      	ldr	r3, [r7, #4]
 8000d6e:	691b      	ldr	r3, [r3, #16]
 8000d70:	00da      	lsls	r2, r3, #3
 8000d72:	4b53      	ldr	r3, [pc, #332]	; (8000ec0 <HAL_RCC_OscConfig+0x338>)
 8000d74:	430a      	orrs	r2, r1
 8000d76:	601a      	str	r2, [r3, #0]
 8000d78:	e018      	b.n	8000dac <HAL_RCC_OscConfig+0x224>
      }
      else
      {
        /* Disable the Internal High Speed oscillator (HSI). */
        __HAL_RCC_HSI_DISABLE();
 8000d7a:	4b51      	ldr	r3, [pc, #324]	; (8000ec0 <HAL_RCC_OscConfig+0x338>)
 8000d7c:	681a      	ldr	r2, [r3, #0]
 8000d7e:	4b50      	ldr	r3, [pc, #320]	; (8000ec0 <HAL_RCC_OscConfig+0x338>)
 8000d80:	2101      	movs	r1, #1
 8000d82:	438a      	bics	r2, r1
 8000d84:	601a      	str	r2, [r3, #0]
        
        /* Get Start Tick */
        tickstart = HAL_GetTick();
 8000d86:	f7ff fc9f 	bl	80006c8 <HAL_GetTick>
 8000d8a:	0003      	movs	r3, r0
 8000d8c:	61bb      	str	r3, [r7, #24]
        
        /* Wait till HSI is disabled */
        while(__HAL_RCC_GET_FLAG(RCC_FLAG_HSIRDY) != RESET)
 8000d8e:	e008      	b.n	8000da2 <HAL_RCC_OscConfig+0x21a>
        {
          if((HAL_GetTick() - tickstart ) > HSI_TIMEOUT_VALUE)
 8000d90:	f7ff fc9a 	bl	80006c8 <HAL_GetTick>
 8000d94:	0002      	movs	r2, r0
 8000d96:	69bb      	ldr	r3, [r7, #24]
 8000d98:	1ad3      	subs	r3, r2, r3
 8000d9a:	2b02      	cmp	r3, #2
 8000d9c:	d901      	bls.n	8000da2 <HAL_RCC_OscConfig+0x21a>
          {
            return HAL_TIMEOUT;
 8000d9e:	2303      	movs	r3, #3
 8000da0:	e272      	b.n	8001288 <HAL_RCC_OscConfig+0x700>
        while(__HAL_RCC_GET_FLAG(RCC_FLAG_HSIRDY) != RESET)
 8000da2:	4b47      	ldr	r3, [pc, #284]	; (8000ec0 <HAL_RCC_OscConfig+0x338>)
 8000da4:	681b      	ldr	r3, [r3, #0]
 8000da6:	2202      	movs	r2, #2
 8000da8:	4013      	ands	r3, r2
 8000daa:	d1f1      	bne.n	8000d90 <HAL_RCC_OscConfig+0x208>
        }
      }
    }
  }
  /*------------------------------ LSI Configuration -------------------------*/ 
  if(((RCC_OscInitStruct->OscillatorType) & RCC_OSCILLATORTYPE_LSI) == RCC_OSCILLATORTYPE_LSI)
 8000dac:	687b      	ldr	r3, [r7, #4]
 8000dae:	681b      	ldr	r3, [r3, #0]
 8000db0:	2208      	movs	r2, #8
 8000db2:	4013      	ands	r3, r2
 8000db4:	d036      	beq.n	8000e24 <HAL_RCC_OscConfig+0x29c>
  {
    /* Check the parameters */
    assert_param(IS_RCC_LSI(RCC_OscInitStruct->LSIState));
    
    /* Check the LSI State */
    if(RCC_OscInitStruct->LSIState != RCC_LSI_OFF)
 8000db6:	687b      	ldr	r3, [r7, #4]
 8000db8:	69db      	ldr	r3, [r3, #28]
 8000dba:	2b00      	cmp	r3, #0
 8000dbc:	d019      	beq.n	8000df2 <HAL_RCC_OscConfig+0x26a>
    {
      /* Enable the Internal Low Speed oscillator (LSI). */
      __HAL_RCC_LSI_ENABLE();
 8000dbe:	4b40      	ldr	r3, [pc, #256]	; (8000ec0 <HAL_RCC_OscConfig+0x338>)
 8000dc0:	6a5a      	ldr	r2, [r3, #36]	; 0x24
 8000dc2:	4b3f      	ldr	r3, [pc, #252]	; (8000ec0 <HAL_RCC_OscConfig+0x338>)
 8000dc4:	2101      	movs	r1, #1
 8000dc6:	430a      	orrs	r2, r1
 8000dc8:	625a      	str	r2, [r3, #36]	; 0x24
      
      /* Get Start Tick */
      tickstart = HAL_GetTick();
 8000dca:	f7ff fc7d 	bl	80006c8 <HAL_GetTick>
 8000dce:	0003      	movs	r3, r0
 8000dd0:	61bb      	str	r3, [r7, #24]
      
      /* Wait till LSI is ready */  
      while(__HAL_RCC_GET_FLAG(RCC_FLAG_LSIRDY) == RESET)
 8000dd2:	e008      	b.n	8000de6 <HAL_RCC_OscConfig+0x25e>
      {
        if((HAL_GetTick() - tickstart ) > LSI_TIMEOUT_VALUE)
 8000dd4:	f7ff fc78 	bl	80006c8 <HAL_GetTick>
 8000dd8:	0002      	movs	r2, r0
 8000dda:	69bb      	ldr	r3, [r7, #24]
 8000ddc:	1ad3      	subs	r3, r2, r3
 8000dde:	2b02      	cmp	r3, #2
 8000de0:	d901      	bls.n	8000de6 <HAL_RCC_OscConfig+0x25e>
        {
          return HAL_TIMEOUT;
 8000de2:	2303      	movs	r3, #3
 8000de4:	e250      	b.n	8001288 <HAL_RCC_OscConfig+0x700>
      while(__HAL_RCC_GET_FLAG(RCC_FLAG_LSIRDY) == RESET)
 8000de6:	4b36      	ldr	r3, [pc, #216]	; (8000ec0 <HAL_RCC_OscConfig+0x338>)
 8000de8:	6a5b      	ldr	r3, [r3, #36]	; 0x24
 8000dea:	2202      	movs	r2, #2
 8000dec:	4013      	ands	r3, r2
 8000dee:	d0f1      	beq.n	8000dd4 <HAL_RCC_OscConfig+0x24c>
 8000df0:	e018      	b.n	8000e24 <HAL_RCC_OscConfig+0x29c>
      }
    }
    else
    {
      /* Disable the Internal Low Speed oscillator (LSI). */
      __HAL_RCC_LSI_DISABLE();
 8000df2:	4b33      	ldr	r3, [pc, #204]	; (8000ec0 <HAL_RCC_OscConfig+0x338>)
 8000df4:	6a5a      	ldr	r2, [r3, #36]	; 0x24
 8000df6:	4b32      	ldr	r3, [pc, #200]	; (8000ec0 <HAL_RCC_OscConfig+0x338>)
 8000df8:	2101      	movs	r1, #1
 8000dfa:	438a      	bics	r2, r1
 8000dfc:	625a      	str	r2, [r3, #36]	; 0x24
      
      /* Get Start Tick */
      tickstart = HAL_GetTick();
 8000dfe:	f7ff fc63 	bl	80006c8 <HAL_GetTick>
 8000e02:	0003      	movs	r3, r0
 8000e04:	61bb      	str	r3, [r7, #24]
      
      /* Wait till LSI is disabled */  
      while(__HAL_RCC_GET_FLAG(RCC_FLAG_LSIRDY) != RESET)
 8000e06:	e008      	b.n	8000e1a <HAL_RCC_OscConfig+0x292>
      {
        if((HAL_GetTick() - tickstart ) > LSI_TIMEOUT_VALUE)
 8000e08:	f7ff fc5e 	bl	80006c8 <HAL_GetTick>
 8000e0c:	0002      	movs	r2, r0
 8000e0e:	69bb      	ldr	r3, [r7, #24]
 8000e10:	1ad3      	subs	r3, r2, r3
 8000e12:	2b02      	cmp	r3, #2
 8000e14:	d901      	bls.n	8000e1a <HAL_RCC_OscConfig+0x292>
        {
          return HAL_TIMEOUT;
 8000e16:	2303      	movs	r3, #3
 8000e18:	e236      	b.n	8001288 <HAL_RCC_OscConfig+0x700>
      while(__HAL_RCC_GET_FLAG(RCC_FLAG_LSIRDY) != RESET)
 8000e1a:	4b29      	ldr	r3, [pc, #164]	; (8000ec0 <HAL_RCC_OscConfig+0x338>)
 8000e1c:	6a5b      	ldr	r3, [r3, #36]	; 0x24
 8000e1e:	2202      	movs	r2, #2
 8000e20:	4013      	ands	r3, r2
 8000e22:	d1f1      	bne.n	8000e08 <HAL_RCC_OscConfig+0x280>
        }
      }
    }
  }
  /*------------------------------ LSE Configuration -------------------------*/ 
  if(((RCC_OscInitStruct->OscillatorType) & RCC_OSCILLATORTYPE_LSE) == RCC_OSCILLATORTYPE_LSE)
 8000e24:	687b      	ldr	r3, [r7, #4]
 8000e26:	681b      	ldr	r3, [r3, #0]
 8000e28:	2204      	movs	r2, #4
 8000e2a:	4013      	ands	r3, r2
 8000e2c:	d100      	bne.n	8000e30 <HAL_RCC_OscConfig+0x2a8>
 8000e2e:	e0b5      	b.n	8000f9c <HAL_RCC_OscConfig+0x414>
  {
    FlagStatus       pwrclkchanged = RESET;
 8000e30:	231f      	movs	r3, #31
 8000e32:	18fb      	adds	r3, r7, r3
 8000e34:	2200      	movs	r2, #0
 8000e36:	701a      	strb	r2, [r3, #0]
    /* Check the parameters */
    assert_param(IS_RCC_LSE(RCC_OscInitStruct->LSEState));

    /* Update LSE configuration in Backup Domain control register    */
    /* Requires to enable write access to Backup Domain of necessary */
    if(__HAL_RCC_PWR_IS_CLK_DISABLED())
 8000e38:	4b21      	ldr	r3, [pc, #132]	; (8000ec0 <HAL_RCC_OscConfig+0x338>)
 8000e3a:	69da      	ldr	r2, [r3, #28]
 8000e3c:	2380      	movs	r3, #128	; 0x80
 8000e3e:	055b      	lsls	r3, r3, #21
 8000e40:	4013      	ands	r3, r2
 8000e42:	d111      	bne.n	8000e68 <HAL_RCC_OscConfig+0x2e0>
    {
      __HAL_RCC_PWR_CLK_ENABLE();
 8000e44:	4b1e      	ldr	r3, [pc, #120]	; (8000ec0 <HAL_RCC_OscConfig+0x338>)
 8000e46:	69da      	ldr	r2, [r3, #28]
 8000e48:	4b1d      	ldr	r3, [pc, #116]	; (8000ec0 <HAL_RCC_OscConfig+0x338>)
 8000e4a:	2180      	movs	r1, #128	; 0x80
 8000e4c:	0549      	lsls	r1, r1, #21
 8000e4e:	430a      	orrs	r2, r1
 8000e50:	61da      	str	r2, [r3, #28]
 8000e52:	4b1b      	ldr	r3, [pc, #108]	; (8000ec0 <HAL_RCC_OscConfig+0x338>)
 8000e54:	69da      	ldr	r2, [r3, #28]
 8000e56:	2380      	movs	r3, #128	; 0x80
 8000e58:	055b      	lsls	r3, r3, #21
 8000e5a:	4013      	ands	r3, r2
 8000e5c:	60fb      	str	r3, [r7, #12]
 8000e5e:	68fb      	ldr	r3, [r7, #12]
      pwrclkchanged = SET;
 8000e60:	231f      	movs	r3, #31
 8000e62:	18fb      	adds	r3, r7, r3
 8000e64:	2201      	movs	r2, #1
 8000e66:	701a      	strb	r2, [r3, #0]
    }
    
    if(HAL_IS_BIT_CLR(PWR->CR, PWR_CR_DBP))
 8000e68:	4b18      	ldr	r3, [pc, #96]	; (8000ecc <HAL_RCC_OscConfig+0x344>)
 8000e6a:	681a      	ldr	r2, [r3, #0]
 8000e6c:	2380      	movs	r3, #128	; 0x80
 8000e6e:	005b      	lsls	r3, r3, #1
 8000e70:	4013      	ands	r3, r2
 8000e72:	d11a      	bne.n	8000eaa <HAL_RCC_OscConfig+0x322>
    {
      /* Enable write access to Backup domain */
      SET_BIT(PWR->CR, PWR_CR_DBP);
 8000e74:	4b15      	ldr	r3, [pc, #84]	; (8000ecc <HAL_RCC_OscConfig+0x344>)
 8000e76:	681a      	ldr	r2, [r3, #0]
 8000e78:	4b14      	ldr	r3, [pc, #80]	; (8000ecc <HAL_RCC_OscConfig+0x344>)
 8000e7a:	2180      	movs	r1, #128	; 0x80
 8000e7c:	0049      	lsls	r1, r1, #1
 8000e7e:	430a      	orrs	r2, r1
 8000e80:	601a      	str	r2, [r3, #0]
      
      /* Wait for Backup domain Write protection disable */
      tickstart = HAL_GetTick();
 8000e82:	f7ff fc21 	bl	80006c8 <HAL_GetTick>
 8000e86:	0003      	movs	r3, r0
 8000e88:	61bb      	str	r3, [r7, #24]

      while(HAL_IS_BIT_CLR(PWR->CR, PWR_CR_DBP))
 8000e8a:	e008      	b.n	8000e9e <HAL_RCC_OscConfig+0x316>
      {
        if((HAL_GetTick() - tickstart) > RCC_DBP_TIMEOUT_VALUE)
 8000e8c:	f7ff fc1c 	bl	80006c8 <HAL_GetTick>
 8000e90:	0002      	movs	r2, r0
 8000e92:	69bb      	ldr	r3, [r7, #24]
 8000e94:	1ad3      	subs	r3, r2, r3
 8000e96:	2b64      	cmp	r3, #100	; 0x64
 8000e98:	d901      	bls.n	8000e9e <HAL_RCC_OscConfig+0x316>
        {
          return HAL_TIMEOUT;
 8000e9a:	2303      	movs	r3, #3
 8000e9c:	e1f4      	b.n	8001288 <HAL_RCC_OscConfig+0x700>
      while(HAL_IS_BIT_CLR(PWR->CR, PWR_CR_DBP))
 8000e9e:	4b0b      	ldr	r3, [pc, #44]	; (8000ecc <HAL_RCC_OscConfig+0x344>)
 8000ea0:	681a      	ldr	r2, [r3, #0]
 8000ea2:	2380      	movs	r3, #128	; 0x80
 8000ea4:	005b      	lsls	r3, r3, #1
 8000ea6:	4013      	ands	r3, r2
 8000ea8:	d0f0      	beq.n	8000e8c <HAL_RCC_OscConfig+0x304>
        }
      }
    }

    /* Set the new LSE configuration -----------------------------------------*/
    __HAL_RCC_LSE_CONFIG(RCC_OscInitStruct->LSEState);
 8000eaa:	687b      	ldr	r3, [r7, #4]
 8000eac:	689b      	ldr	r3, [r3, #8]
 8000eae:	2b01      	cmp	r3, #1
 8000eb0:	d10e      	bne.n	8000ed0 <HAL_RCC_OscConfig+0x348>
 8000eb2:	4b03      	ldr	r3, [pc, #12]	; (8000ec0 <HAL_RCC_OscConfig+0x338>)
 8000eb4:	6a1a      	ldr	r2, [r3, #32]
 8000eb6:	4b02      	ldr	r3, [pc, #8]	; (8000ec0 <HAL_RCC_OscConfig+0x338>)
 8000eb8:	2101      	movs	r1, #1
 8000eba:	430a      	orrs	r2, r1
 8000ebc:	621a      	str	r2, [r3, #32]
 8000ebe:	e035      	b.n	8000f2c <HAL_RCC_OscConfig+0x3a4>
 8000ec0:	40021000 	.word	0x40021000
 8000ec4:	fffeffff 	.word	0xfffeffff
 8000ec8:	fffbffff 	.word	0xfffbffff
 8000ecc:	40007000 	.word	0x40007000
 8000ed0:	687b      	ldr	r3, [r7, #4]
 8000ed2:	689b      	ldr	r3, [r3, #8]
 8000ed4:	2b00      	cmp	r3, #0
 8000ed6:	d10c      	bne.n	8000ef2 <HAL_RCC_OscConfig+0x36a>
 8000ed8:	4bca      	ldr	r3, [pc, #808]	; (8001204 <HAL_RCC_OscConfig+0x67c>)
 8000eda:	6a1a      	ldr	r2, [r3, #32]
 8000edc:	4bc9      	ldr	r3, [pc, #804]	; (8001204 <HAL_RCC_OscConfig+0x67c>)
 8000ede:	2101      	movs	r1, #1
 8000ee0:	438a      	bics	r2, r1
 8000ee2:	621a      	str	r2, [r3, #32]
 8000ee4:	4bc7      	ldr	r3, [pc, #796]	; (8001204 <HAL_RCC_OscConfig+0x67c>)
 8000ee6:	6a1a      	ldr	r2, [r3, #32]
 8000ee8:	4bc6      	ldr	r3, [pc, #792]	; (8001204 <HAL_RCC_OscConfig+0x67c>)
 8000eea:	2104      	movs	r1, #4
 8000eec:	438a      	bics	r2, r1
 8000eee:	621a      	str	r2, [r3, #32]
 8000ef0:	e01c      	b.n	8000f2c <HAL_RCC_OscConfig+0x3a4>
 8000ef2:	687b      	ldr	r3, [r7, #4]
 8000ef4:	689b      	ldr	r3, [r3, #8]
 8000ef6:	2b05      	cmp	r3, #5
 8000ef8:	d10c      	bne.n	8000f14 <HAL_RCC_OscConfig+0x38c>
 8000efa:	4bc2      	ldr	r3, [pc, #776]	; (8001204 <HAL_RCC_OscConfig+0x67c>)
 8000efc:	6a1a      	ldr	r2, [r3, #32]
 8000efe:	4bc1      	ldr	r3, [pc, #772]	; (8001204 <HAL_RCC_OscConfig+0x67c>)
 8000f00:	2104      	movs	r1, #4
 8000f02:	430a      	orrs	r2, r1
 8000f04:	621a      	str	r2, [r3, #32]
 8000f06:	4bbf      	ldr	r3, [pc, #764]	; (8001204 <HAL_RCC_OscConfig+0x67c>)
 8000f08:	6a1a      	ldr	r2, [r3, #32]
 8000f0a:	4bbe      	ldr	r3, [pc, #760]	; (8001204 <HAL_RCC_OscConfig+0x67c>)
 8000f0c:	2101      	movs	r1, #1
 8000f0e:	430a      	orrs	r2, r1
 8000f10:	621a      	str	r2, [r3, #32]
 8000f12:	e00b      	b.n	8000f2c <HAL_RCC_OscConfig+0x3a4>
 8000f14:	4bbb      	ldr	r3, [pc, #748]	; (8001204 <HAL_RCC_OscConfig+0x67c>)
 8000f16:	6a1a      	ldr	r2, [r3, #32]
 8000f18:	4bba      	ldr	r3, [pc, #744]	; (8001204 <HAL_RCC_OscConfig+0x67c>)
 8000f1a:	2101      	movs	r1, #1
 8000f1c:	438a      	bics	r2, r1
 8000f1e:	621a      	str	r2, [r3, #32]
 8000f20:	4bb8      	ldr	r3, [pc, #736]	; (8001204 <HAL_RCC_OscConfig+0x67c>)
 8000f22:	6a1a      	ldr	r2, [r3, #32]
 8000f24:	4bb7      	ldr	r3, [pc, #732]	; (8001204 <HAL_RCC_OscConfig+0x67c>)
 8000f26:	2104      	movs	r1, #4
 8000f28:	438a      	bics	r2, r1
 8000f2a:	621a      	str	r2, [r3, #32]
    /* Check the LSE State */
    if(RCC_OscInitStruct->LSEState != RCC_LSE_OFF)
 8000f2c:	687b      	ldr	r3, [r7, #4]
 8000f2e:	689b      	ldr	r3, [r3, #8]
 8000f30:	2b00      	cmp	r3, #0
 8000f32:	d014      	beq.n	8000f5e <HAL_RCC_OscConfig+0x3d6>
    {
      /* Get Start Tick */
      tickstart = HAL_GetTick();
 8000f34:	f7ff fbc8 	bl	80006c8 <HAL_GetTick>
 8000f38:	0003      	movs	r3, r0
 8000f3a:	61bb      	str	r3, [r7, #24]
      
      /* Wait till LSE is ready */  
      while(__HAL_RCC_GET_FLAG(RCC_FLAG_LSERDY) == RESET)
 8000f3c:	e009      	b.n	8000f52 <HAL_RCC_OscConfig+0x3ca>
      {
        if((HAL_GetTick() - tickstart ) > RCC_LSE_TIMEOUT_VALUE)
 8000f3e:	f7ff fbc3 	bl	80006c8 <HAL_GetTick>
 8000f42:	0002      	movs	r2, r0
 8000f44:	69bb      	ldr	r3, [r7, #24]
 8000f46:	1ad3      	subs	r3, r2, r3
 8000f48:	4aaf      	ldr	r2, [pc, #700]	; (8001208 <HAL_RCC_OscConfig+0x680>)
 8000f4a:	4293      	cmp	r3, r2
 8000f4c:	d901      	bls.n	8000f52 <HAL_RCC_OscConfig+0x3ca>
        {
          return HAL_TIMEOUT;
 8000f4e:	2303      	movs	r3, #3
 8000f50:	e19a      	b.n	8001288 <HAL_RCC_OscConfig+0x700>
      while(__HAL_RCC_GET_FLAG(RCC_FLAG_LSERDY) == RESET)
 8000f52:	4bac      	ldr	r3, [pc, #688]	; (8001204 <HAL_RCC_OscConfig+0x67c>)
 8000f54:	6a1b      	ldr	r3, [r3, #32]
 8000f56:	2202      	movs	r2, #2
 8000f58:	4013      	ands	r3, r2
 8000f5a:	d0f0      	beq.n	8000f3e <HAL_RCC_OscConfig+0x3b6>
 8000f5c:	e013      	b.n	8000f86 <HAL_RCC_OscConfig+0x3fe>
      }
    }
    else
    {
      /* Get Start Tick */
      tickstart = HAL_GetTick();
 8000f5e:	f7ff fbb3 	bl	80006c8 <HAL_GetTick>
 8000f62:	0003      	movs	r3, r0
 8000f64:	61bb      	str	r3, [r7, #24]
      
      /* Wait till LSE is disabled */  
      while(__HAL_RCC_GET_FLAG(RCC_FLAG_LSERDY) != RESET)
 8000f66:	e009      	b.n	8000f7c <HAL_RCC_OscConfig+0x3f4>
      {
        if((HAL_GetTick() - tickstart ) > RCC_LSE_TIMEOUT_VALUE)
 8000f68:	f7ff fbae 	bl	80006c8 <HAL_GetTick>
 8000f6c:	0002      	movs	r2, r0
 8000f6e:	69bb      	ldr	r3, [r7, #24]
 8000f70:	1ad3      	subs	r3, r2, r3
 8000f72:	4aa5      	ldr	r2, [pc, #660]	; (8001208 <HAL_RCC_OscConfig+0x680>)
 8000f74:	4293      	cmp	r3, r2
 8000f76:	d901      	bls.n	8000f7c <HAL_RCC_OscConfig+0x3f4>
        {
          return HAL_TIMEOUT;
 8000f78:	2303      	movs	r3, #3
 8000f7a:	e185      	b.n	8001288 <HAL_RCC_OscConfig+0x700>
      while(__HAL_RCC_GET_FLAG(RCC_FLAG_LSERDY) != RESET)
 8000f7c:	4ba1      	ldr	r3, [pc, #644]	; (8001204 <HAL_RCC_OscConfig+0x67c>)
 8000f7e:	6a1b      	ldr	r3, [r3, #32]
 8000f80:	2202      	movs	r2, #2
 8000f82:	4013      	ands	r3, r2
 8000f84:	d1f0      	bne.n	8000f68 <HAL_RCC_OscConfig+0x3e0>
        }
      }
    }

    /* Require to disable power clock if necessary */
    if(pwrclkchanged == SET)
 8000f86:	231f      	movs	r3, #31
 8000f88:	18fb      	adds	r3, r7, r3
 8000f8a:	781b      	ldrb	r3, [r3, #0]
 8000f8c:	2b01      	cmp	r3, #1
 8000f8e:	d105      	bne.n	8000f9c <HAL_RCC_OscConfig+0x414>
    {
      __HAL_RCC_PWR_CLK_DISABLE();
 8000f90:	4b9c      	ldr	r3, [pc, #624]	; (8001204 <HAL_RCC_OscConfig+0x67c>)
 8000f92:	69da      	ldr	r2, [r3, #28]
 8000f94:	4b9b      	ldr	r3, [pc, #620]	; (8001204 <HAL_RCC_OscConfig+0x67c>)
 8000f96:	499d      	ldr	r1, [pc, #628]	; (800120c <HAL_RCC_OscConfig+0x684>)
 8000f98:	400a      	ands	r2, r1
 8000f9a:	61da      	str	r2, [r3, #28]
    }
  }

  /*----------------------------- HSI14 Configuration --------------------------*/
  if(((RCC_OscInitStruct->OscillatorType) & RCC_OSCILLATORTYPE_HSI14) == RCC_OSCILLATORTYPE_HSI14)
 8000f9c:	687b      	ldr	r3, [r7, #4]
 8000f9e:	681b      	ldr	r3, [r3, #0]
 8000fa0:	2210      	movs	r2, #16
 8000fa2:	4013      	ands	r3, r2
 8000fa4:	d063      	beq.n	800106e <HAL_RCC_OscConfig+0x4e6>
    /* Check the parameters */
    assert_param(IS_RCC_HSI14(RCC_OscInitStruct->HSI14State));
    assert_param(IS_RCC_CALIBRATION_VALUE(RCC_OscInitStruct->HSI14CalibrationValue));

    /* Check the HSI14 State */
    if(RCC_OscInitStruct->HSI14State == RCC_HSI14_ON)
 8000fa6:	687b      	ldr	r3, [r7, #4]
 8000fa8:	695b      	ldr	r3, [r3, #20]
 8000faa:	2b01      	cmp	r3, #1
 8000fac:	d12a      	bne.n	8001004 <HAL_RCC_OscConfig+0x47c>
    {
      /* Disable ADC control of the Internal High Speed oscillator HSI14 */
      __HAL_RCC_HSI14ADC_DISABLE();
 8000fae:	4b95      	ldr	r3, [pc, #596]	; (8001204 <HAL_RCC_OscConfig+0x67c>)
 8000fb0:	6b5a      	ldr	r2, [r3, #52]	; 0x34
 8000fb2:	4b94      	ldr	r3, [pc, #592]	; (8001204 <HAL_RCC_OscConfig+0x67c>)
 8000fb4:	2104      	movs	r1, #4
 8000fb6:	430a      	orrs	r2, r1
 8000fb8:	635a      	str	r2, [r3, #52]	; 0x34

      /* Enable the Internal High Speed oscillator (HSI). */
      __HAL_RCC_HSI14_ENABLE();
 8000fba:	4b92      	ldr	r3, [pc, #584]	; (8001204 <HAL_RCC_OscConfig+0x67c>)
 8000fbc:	6b5a      	ldr	r2, [r3, #52]	; 0x34
 8000fbe:	4b91      	ldr	r3, [pc, #580]	; (8001204 <HAL_RCC_OscConfig+0x67c>)
 8000fc0:	2101      	movs	r1, #1
 8000fc2:	430a      	orrs	r2, r1
 8000fc4:	635a      	str	r2, [r3, #52]	; 0x34

      /* Get Start Tick */
      tickstart = HAL_GetTick();
 8000fc6:	f7ff fb7f 	bl	80006c8 <HAL_GetTick>
 8000fca:	0003      	movs	r3, r0
 8000fcc:	61bb      	str	r3, [r7, #24]
      
      /* Wait till HSI is ready */  
      while(__HAL_RCC_GET_FLAG(RCC_FLAG_HSI14RDY) == RESET)
 8000fce:	e008      	b.n	8000fe2 <HAL_RCC_OscConfig+0x45a>
      {
        if((HAL_GetTick() - tickstart) > HSI14_TIMEOUT_VALUE)
 8000fd0:	f7ff fb7a 	bl	80006c8 <HAL_GetTick>
 8000fd4:	0002      	movs	r2, r0
 8000fd6:	69bb      	ldr	r3, [r7, #24]
 8000fd8:	1ad3      	subs	r3, r2, r3
 8000fda:	2b02      	cmp	r3, #2
 8000fdc:	d901      	bls.n	8000fe2 <HAL_RCC_OscConfig+0x45a>
        {
          return HAL_TIMEOUT;
 8000fde:	2303      	movs	r3, #3
 8000fe0:	e152      	b.n	8001288 <HAL_RCC_OscConfig+0x700>
      while(__HAL_RCC_GET_FLAG(RCC_FLAG_HSI14RDY) == RESET)
 8000fe2:	4b88      	ldr	r3, [pc, #544]	; (8001204 <HAL_RCC_OscConfig+0x67c>)
 8000fe4:	6b5b      	ldr	r3, [r3, #52]	; 0x34
 8000fe6:	2202      	movs	r2, #2
 8000fe8:	4013      	ands	r3, r2
 8000fea:	d0f1      	beq.n	8000fd0 <HAL_RCC_OscConfig+0x448>
        }      
      } 

      /* Adjusts the Internal High Speed oscillator 14Mhz (HSI14) calibration value. */
      __HAL_RCC_HSI14_CALIBRATIONVALUE_ADJUST(RCC_OscInitStruct->HSI14CalibrationValue);
 8000fec:	4b85      	ldr	r3, [pc, #532]	; (8001204 <HAL_RCC_OscConfig+0x67c>)
 8000fee:	6b5b      	ldr	r3, [r3, #52]	; 0x34
 8000ff0:	22f8      	movs	r2, #248	; 0xf8
 8000ff2:	4393      	bics	r3, r2
 8000ff4:	0019      	movs	r1, r3
 8000ff6:	687b      	ldr	r3, [r7, #4]
 8000ff8:	699b      	ldr	r3, [r3, #24]
 8000ffa:	00da      	lsls	r2, r3, #3
 8000ffc:	4b81      	ldr	r3, [pc, #516]	; (8001204 <HAL_RCC_OscConfig+0x67c>)
 8000ffe:	430a      	orrs	r2, r1
 8001000:	635a      	str	r2, [r3, #52]	; 0x34
 8001002:	e034      	b.n	800106e <HAL_RCC_OscConfig+0x4e6>
    }
    else if(RCC_OscInitStruct->HSI14State == RCC_HSI14_ADC_CONTROL)
 8001004:	687b      	ldr	r3, [r7, #4]
 8001006:	695b      	ldr	r3, [r3, #20]
 8001008:	3305      	adds	r3, #5
 800100a:	d111      	bne.n	8001030 <HAL_RCC_OscConfig+0x4a8>
    {
      /* Enable ADC control of the Internal High Speed oscillator HSI14 */
      __HAL_RCC_HSI14ADC_ENABLE();
 800100c:	4b7d      	ldr	r3, [pc, #500]	; (8001204 <HAL_RCC_OscConfig+0x67c>)
 800100e:	6b5a      	ldr	r2, [r3, #52]	; 0x34
 8001010:	4b7c      	ldr	r3, [pc, #496]	; (8001204 <HAL_RCC_OscConfig+0x67c>)
 8001012:	2104      	movs	r1, #4
 8001014:	438a      	bics	r2, r1
 8001016:	635a      	str	r2, [r3, #52]	; 0x34

      /* Adjusts the Internal High Speed oscillator 14Mhz (HSI14) calibration value. */
      __HAL_RCC_HSI14_CALIBRATIONVALUE_ADJUST(RCC_OscInitStruct->HSI14CalibrationValue);
 8001018:	4b7a      	ldr	r3, [pc, #488]	; (8001204 <HAL_RCC_OscConfig+0x67c>)
 800101a:	6b5b      	ldr	r3, [r3, #52]	; 0x34
 800101c:	22f8      	movs	r2, #248	; 0xf8
 800101e:	4393      	bics	r3, r2
 8001020:	0019      	movs	r1, r3
 8001022:	687b      	ldr	r3, [r7, #4]
 8001024:	699b      	ldr	r3, [r3, #24]
 8001026:	00da      	lsls	r2, r3, #3
 8001028:	4b76      	ldr	r3, [pc, #472]	; (8001204 <HAL_RCC_OscConfig+0x67c>)
 800102a:	430a      	orrs	r2, r1
 800102c:	635a      	str	r2, [r3, #52]	; 0x34
 800102e:	e01e      	b.n	800106e <HAL_RCC_OscConfig+0x4e6>
    }
    else
    {
      /* Disable ADC control of the Internal High Speed oscillator HSI14 */
      __HAL_RCC_HSI14ADC_DISABLE();
 8001030:	4b74      	ldr	r3, [pc, #464]	; (8001204 <HAL_RCC_OscConfig+0x67c>)
 8001032:	6b5a      	ldr	r2, [r3, #52]	; 0x34
 8001034:	4b73      	ldr	r3, [pc, #460]	; (8001204 <HAL_RCC_OscConfig+0x67c>)
 8001036:	2104      	movs	r1, #4
 8001038:	430a      	orrs	r2, r1
 800103a:	635a      	str	r2, [r3, #52]	; 0x34

      /* Disable the Internal High Speed oscillator (HSI). */
      __HAL_RCC_HSI14_DISABLE();
 800103c:	4b71      	ldr	r3, [pc, #452]	; (8001204 <HAL_RCC_OscConfig+0x67c>)
 800103e:	6b5a      	ldr	r2, [r3, #52]	; 0x34
 8001040:	4b70      	ldr	r3, [pc, #448]	; (8001204 <HAL_RCC_OscConfig+0x67c>)
 8001042:	2101      	movs	r1, #1
 8001044:	438a      	bics	r2, r1
 8001046:	635a      	str	r2, [r3, #52]	; 0x34

      /* Get Start Tick */
      tickstart = HAL_GetTick();
 8001048:	f7ff fb3e 	bl	80006c8 <HAL_GetTick>
 800104c:	0003      	movs	r3, r0
 800104e:	61bb      	str	r3, [r7, #24]
      
      /* Wait till HSI is ready */  
      while(__HAL_RCC_GET_FLAG(RCC_FLAG_HSI14RDY) != RESET)
 8001050:	e008      	b.n	8001064 <HAL_RCC_OscConfig+0x4dc>
      {
        if((HAL_GetTick() - tickstart) > HSI14_TIMEOUT_VALUE)
 8001052:	f7ff fb39 	bl	80006c8 <HAL_GetTick>
 8001056:	0002      	movs	r2, r0
 8001058:	69bb      	ldr	r3, [r7, #24]
 800105a:	1ad3      	subs	r3, r2, r3
 800105c:	2b02      	cmp	r3, #2
 800105e:	d901      	bls.n	8001064 <HAL_RCC_OscConfig+0x4dc>
        {
          return HAL_TIMEOUT;
 8001060:	2303      	movs	r3, #3
 8001062:	e111      	b.n	8001288 <HAL_RCC_OscConfig+0x700>
      while(__HAL_RCC_GET_FLAG(RCC_FLAG_HSI14RDY) != RESET)
 8001064:	4b67      	ldr	r3, [pc, #412]	; (8001204 <HAL_RCC_OscConfig+0x67c>)
 8001066:	6b5b      	ldr	r3, [r3, #52]	; 0x34
 8001068:	2202      	movs	r2, #2
 800106a:	4013      	ands	r3, r2
 800106c:	d1f1      	bne.n	8001052 <HAL_RCC_OscConfig+0x4ca>
    }
  }

#if defined(RCC_HSI48_SUPPORT)
  /*----------------------------- HSI48 Configuration --------------------------*/
  if(((RCC_OscInitStruct->OscillatorType) & RCC_OSCILLATORTYPE_HSI48) == RCC_OSCILLATORTYPE_HSI48)
 800106e:	687b      	ldr	r3, [r7, #4]
 8001070:	681b      	ldr	r3, [r3, #0]
 8001072:	2220      	movs	r2, #32
 8001074:	4013      	ands	r3, r2
 8001076:	d05c      	beq.n	8001132 <HAL_RCC_OscConfig+0x5aa>
  {
    /* Check the parameters */
    assert_param(IS_RCC_HSI48(RCC_OscInitStruct->HSI48State));

    /* When the HSI48 is used as system clock it is not allowed to be disabled */
    if((__HAL_RCC_GET_SYSCLK_SOURCE() == RCC_SYSCLKSOURCE_STATUS_HSI48) ||
 8001078:	4b62      	ldr	r3, [pc, #392]	; (8001204 <HAL_RCC_OscConfig+0x67c>)
 800107a:	685b      	ldr	r3, [r3, #4]
 800107c:	220c      	movs	r2, #12
 800107e:	4013      	ands	r3, r2
 8001080:	2b0c      	cmp	r3, #12
 8001082:	d00e      	beq.n	80010a2 <HAL_RCC_OscConfig+0x51a>
       ((__HAL_RCC_GET_SYSCLK_SOURCE() == RCC_SYSCLKSOURCE_STATUS_PLLCLK) && (__HAL_RCC_GET_PLL_OSCSOURCE() == RCC_PLLSOURCE_HSI48)))
 8001084:	4b5f      	ldr	r3, [pc, #380]	; (8001204 <HAL_RCC_OscConfig+0x67c>)
 8001086:	685b      	ldr	r3, [r3, #4]
 8001088:	220c      	movs	r2, #12
 800108a:	4013      	ands	r3, r2
    if((__HAL_RCC_GET_SYSCLK_SOURCE() == RCC_SYSCLKSOURCE_STATUS_HSI48) ||
 800108c:	2b08      	cmp	r3, #8
 800108e:	d114      	bne.n	80010ba <HAL_RCC_OscConfig+0x532>
       ((__HAL_RCC_GET_SYSCLK_SOURCE() == RCC_SYSCLKSOURCE_STATUS_PLLCLK) && (__HAL_RCC_GET_PLL_OSCSOURCE() == RCC_PLLSOURCE_HSI48)))
 8001090:	4b5c      	ldr	r3, [pc, #368]	; (8001204 <HAL_RCC_OscConfig+0x67c>)
 8001092:	685a      	ldr	r2, [r3, #4]
 8001094:	23c0      	movs	r3, #192	; 0xc0
 8001096:	025b      	lsls	r3, r3, #9
 8001098:	401a      	ands	r2, r3
 800109a:	23c0      	movs	r3, #192	; 0xc0
 800109c:	025b      	lsls	r3, r3, #9
 800109e:	429a      	cmp	r2, r3
 80010a0:	d10b      	bne.n	80010ba <HAL_RCC_OscConfig+0x532>
    {
      if((__HAL_RCC_GET_FLAG(RCC_FLAG_HSI48RDY) != RESET) && (RCC_OscInitStruct->HSI48State != RCC_HSI48_ON))
 80010a2:	4b58      	ldr	r3, [pc, #352]	; (8001204 <HAL_RCC_OscConfig+0x67c>)
 80010a4:	6b5a      	ldr	r2, [r3, #52]	; 0x34
 80010a6:	2380      	movs	r3, #128	; 0x80
 80010a8:	025b      	lsls	r3, r3, #9
 80010aa:	4013      	ands	r3, r2
 80010ac:	d040      	beq.n	8001130 <HAL_RCC_OscConfig+0x5a8>
 80010ae:	687b      	ldr	r3, [r7, #4]
 80010b0:	6a1b      	ldr	r3, [r3, #32]
 80010b2:	2b01      	cmp	r3, #1
 80010b4:	d03c      	beq.n	8001130 <HAL_RCC_OscConfig+0x5a8>
      {
        return HAL_ERROR;
 80010b6:	2301      	movs	r3, #1
 80010b8:	e0e6      	b.n	8001288 <HAL_RCC_OscConfig+0x700>
      }
    }
    else
    {
      /* Check the HSI48 State */
      if(RCC_OscInitStruct->HSI48State != RCC_HSI48_OFF)
 80010ba:	687b      	ldr	r3, [r7, #4]
 80010bc:	6a1b      	ldr	r3, [r3, #32]
 80010be:	2b00      	cmp	r3, #0
 80010c0:	d01b      	beq.n	80010fa <HAL_RCC_OscConfig+0x572>
      {
        /* Enable the Internal High Speed oscillator (HSI48). */
        __HAL_RCC_HSI48_ENABLE();
 80010c2:	4b50      	ldr	r3, [pc, #320]	; (8001204 <HAL_RCC_OscConfig+0x67c>)
 80010c4:	6b5a      	ldr	r2, [r3, #52]	; 0x34
 80010c6:	4b4f      	ldr	r3, [pc, #316]	; (8001204 <HAL_RCC_OscConfig+0x67c>)
 80010c8:	2180      	movs	r1, #128	; 0x80
 80010ca:	0249      	lsls	r1, r1, #9
 80010cc:	430a      	orrs	r2, r1
 80010ce:	635a      	str	r2, [r3, #52]	; 0x34

        /* Get Start Tick */
        tickstart = HAL_GetTick();
 80010d0:	f7ff fafa 	bl	80006c8 <HAL_GetTick>
 80010d4:	0003      	movs	r3, r0
 80010d6:	61bb      	str	r3, [r7, #24]
      
        /* Wait till HSI48 is ready */  
        while(__HAL_RCC_GET_FLAG(RCC_FLAG_HSI48RDY) == RESET)
 80010d8:	e008      	b.n	80010ec <HAL_RCC_OscConfig+0x564>
        {
          if((HAL_GetTick() - tickstart) > HSI48_TIMEOUT_VALUE)
 80010da:	f7ff faf5 	bl	80006c8 <HAL_GetTick>
 80010de:	0002      	movs	r2, r0
 80010e0:	69bb      	ldr	r3, [r7, #24]
 80010e2:	1ad3      	subs	r3, r2, r3
 80010e4:	2b02      	cmp	r3, #2
 80010e6:	d901      	bls.n	80010ec <HAL_RCC_OscConfig+0x564>
          {
            return HAL_TIMEOUT;
 80010e8:	2303      	movs	r3, #3
 80010ea:	e0cd      	b.n	8001288 <HAL_RCC_OscConfig+0x700>
        while(__HAL_RCC_GET_FLAG(RCC_FLAG_HSI48RDY) == RESET)
 80010ec:	4b45      	ldr	r3, [pc, #276]	; (8001204 <HAL_RCC_OscConfig+0x67c>)
 80010ee:	6b5a      	ldr	r2, [r3, #52]	; 0x34
 80010f0:	2380      	movs	r3, #128	; 0x80
 80010f2:	025b      	lsls	r3, r3, #9
 80010f4:	4013      	ands	r3, r2
 80010f6:	d0f0      	beq.n	80010da <HAL_RCC_OscConfig+0x552>
 80010f8:	e01b      	b.n	8001132 <HAL_RCC_OscConfig+0x5aa>
        } 
      }
      else
      {
        /* Disable the Internal High Speed oscillator (HSI48). */
        __HAL_RCC_HSI48_DISABLE();
 80010fa:	4b42      	ldr	r3, [pc, #264]	; (8001204 <HAL_RCC_OscConfig+0x67c>)
 80010fc:	6b5a      	ldr	r2, [r3, #52]	; 0x34
 80010fe:	4b41      	ldr	r3, [pc, #260]	; (8001204 <HAL_RCC_OscConfig+0x67c>)
 8001100:	4943      	ldr	r1, [pc, #268]	; (8001210 <HAL_RCC_OscConfig+0x688>)
 8001102:	400a      	ands	r2, r1
 8001104:	635a      	str	r2, [r3, #52]	; 0x34

        /* Get Start Tick */
        tickstart = HAL_GetTick();
 8001106:	f7ff fadf 	bl	80006c8 <HAL_GetTick>
 800110a:	0003      	movs	r3, r0
 800110c:	61bb      	str	r3, [r7, #24]
      
        /* Wait till HSI48 is ready */  
        while(__HAL_RCC_GET_FLAG(RCC_FLAG_HSI48RDY) != RESET)
 800110e:	e008      	b.n	8001122 <HAL_RCC_OscConfig+0x59a>
        {
          if((HAL_GetTick() - tickstart) > HSI48_TIMEOUT_VALUE)
 8001110:	f7ff fada 	bl	80006c8 <HAL_GetTick>
 8001114:	0002      	movs	r2, r0
 8001116:	69bb      	ldr	r3, [r7, #24]
 8001118:	1ad3      	subs	r3, r2, r3
 800111a:	2b02      	cmp	r3, #2
 800111c:	d901      	bls.n	8001122 <HAL_RCC_OscConfig+0x59a>
          {
            return HAL_TIMEOUT;
 800111e:	2303      	movs	r3, #3
 8001120:	e0b2      	b.n	8001288 <HAL_RCC_OscConfig+0x700>
        while(__HAL_RCC_GET_FLAG(RCC_FLAG_HSI48RDY) != RESET)
 8001122:	4b38      	ldr	r3, [pc, #224]	; (8001204 <HAL_RCC_OscConfig+0x67c>)
 8001124:	6b5a      	ldr	r2, [r3, #52]	; 0x34
 8001126:	2380      	movs	r3, #128	; 0x80
 8001128:	025b      	lsls	r3, r3, #9
 800112a:	4013      	ands	r3, r2
 800112c:	d1f0      	bne.n	8001110 <HAL_RCC_OscConfig+0x588>
 800112e:	e000      	b.n	8001132 <HAL_RCC_OscConfig+0x5aa>
      if((__HAL_RCC_GET_FLAG(RCC_FLAG_HSI48RDY) != RESET) && (RCC_OscInitStruct->HSI48State != RCC_HSI48_ON))
 8001130:	46c0      	nop			; (mov r8, r8)
#endif /* RCC_HSI48_SUPPORT */
       
  /*-------------------------------- PLL Configuration -----------------------*/
  /* Check the parameters */
  assert_param(IS_RCC_PLL(RCC_OscInitStruct->PLL.PLLState));
  if ((RCC_OscInitStruct->PLL.PLLState) != RCC_PLL_NONE)
 8001132:	687b      	ldr	r3, [r7, #4]
 8001134:	6a5b      	ldr	r3, [r3, #36]	; 0x24
 8001136:	2b00      	cmp	r3, #0
 8001138:	d100      	bne.n	800113c <HAL_RCC_OscConfig+0x5b4>
 800113a:	e0a4      	b.n	8001286 <HAL_RCC_OscConfig+0x6fe>
  {
    /* Check if the PLL is used as system clock or not */
    if(__HAL_RCC_GET_SYSCLK_SOURCE() != RCC_SYSCLKSOURCE_STATUS_PLLCLK)
 800113c:	4b31      	ldr	r3, [pc, #196]	; (8001204 <HAL_RCC_OscConfig+0x67c>)
 800113e:	685b      	ldr	r3, [r3, #4]
 8001140:	220c      	movs	r2, #12
 8001142:	4013      	ands	r3, r2
 8001144:	2b08      	cmp	r3, #8
 8001146:	d100      	bne.n	800114a <HAL_RCC_OscConfig+0x5c2>
 8001148:	e078      	b.n	800123c <HAL_RCC_OscConfig+0x6b4>
    { 
      if((RCC_OscInitStruct->PLL.PLLState) == RCC_PLL_ON)
 800114a:	687b      	ldr	r3, [r7, #4]
 800114c:	6a5b      	ldr	r3, [r3, #36]	; 0x24
 800114e:	2b02      	cmp	r3, #2
 8001150:	d14c      	bne.n	80011ec <HAL_RCC_OscConfig+0x664>
        assert_param(IS_RCC_PLLSOURCE(RCC_OscInitStruct->PLL.PLLSource));
        assert_param(IS_RCC_PLL_MUL(RCC_OscInitStruct->PLL.PLLMUL));
        assert_param(IS_RCC_PREDIV(RCC_OscInitStruct->PLL.PREDIV));
  
        /* Disable the main PLL. */
        __HAL_RCC_PLL_DISABLE();
 8001152:	4b2c      	ldr	r3, [pc, #176]	; (8001204 <HAL_RCC_OscConfig+0x67c>)
 8001154:	681a      	ldr	r2, [r3, #0]
 8001156:	4b2b      	ldr	r3, [pc, #172]	; (8001204 <HAL_RCC_OscConfig+0x67c>)
 8001158:	492e      	ldr	r1, [pc, #184]	; (8001214 <HAL_RCC_OscConfig+0x68c>)
 800115a:	400a      	ands	r2, r1
 800115c:	601a      	str	r2, [r3, #0]
        
        /* Get Start Tick */
        tickstart = HAL_GetTick();
 800115e:	f7ff fab3 	bl	80006c8 <HAL_GetTick>
 8001162:	0003      	movs	r3, r0
 8001164:	61bb      	str	r3, [r7, #24]
        
        /* Wait till PLL is disabled */
        while(__HAL_RCC_GET_FLAG(RCC_FLAG_PLLRDY)  != RESET)
 8001166:	e008      	b.n	800117a <HAL_RCC_OscConfig+0x5f2>
        {
          if((HAL_GetTick() - tickstart ) > PLL_TIMEOUT_VALUE)
 8001168:	f7ff faae 	bl	80006c8 <HAL_GetTick>
 800116c:	0002      	movs	r2, r0
 800116e:	69bb      	ldr	r3, [r7, #24]
 8001170:	1ad3      	subs	r3, r2, r3
 8001172:	2b02      	cmp	r3, #2
 8001174:	d901      	bls.n	800117a <HAL_RCC_OscConfig+0x5f2>
          {
            return HAL_TIMEOUT;
 8001176:	2303      	movs	r3, #3
 8001178:	e086      	b.n	8001288 <HAL_RCC_OscConfig+0x700>
        while(__HAL_RCC_GET_FLAG(RCC_FLAG_PLLRDY)  != RESET)
 800117a:	4b22      	ldr	r3, [pc, #136]	; (8001204 <HAL_RCC_OscConfig+0x67c>)
 800117c:	681a      	ldr	r2, [r3, #0]
 800117e:	2380      	movs	r3, #128	; 0x80
 8001180:	049b      	lsls	r3, r3, #18
 8001182:	4013      	ands	r3, r2
 8001184:	d1f0      	bne.n	8001168 <HAL_RCC_OscConfig+0x5e0>
          }
        }

        /* Configure the main PLL clock source, predivider and multiplication factor. */
        __HAL_RCC_PLL_CONFIG(RCC_OscInitStruct->PLL.PLLSource,
 8001186:	4b1f      	ldr	r3, [pc, #124]	; (8001204 <HAL_RCC_OscConfig+0x67c>)
 8001188:	6adb      	ldr	r3, [r3, #44]	; 0x2c
 800118a:	220f      	movs	r2, #15
 800118c:	4393      	bics	r3, r2
 800118e:	0019      	movs	r1, r3
 8001190:	687b      	ldr	r3, [r7, #4]
 8001192:	6b1a      	ldr	r2, [r3, #48]	; 0x30
 8001194:	4b1b      	ldr	r3, [pc, #108]	; (8001204 <HAL_RCC_OscConfig+0x67c>)
 8001196:	430a      	orrs	r2, r1
 8001198:	62da      	str	r2, [r3, #44]	; 0x2c
 800119a:	4b1a      	ldr	r3, [pc, #104]	; (8001204 <HAL_RCC_OscConfig+0x67c>)
 800119c:	685b      	ldr	r3, [r3, #4]
 800119e:	4a1e      	ldr	r2, [pc, #120]	; (8001218 <HAL_RCC_OscConfig+0x690>)
 80011a0:	4013      	ands	r3, r2
 80011a2:	0019      	movs	r1, r3
 80011a4:	687b      	ldr	r3, [r7, #4]
 80011a6:	6ada      	ldr	r2, [r3, #44]	; 0x2c
 80011a8:	687b      	ldr	r3, [r7, #4]
 80011aa:	6a9b      	ldr	r3, [r3, #40]	; 0x28
 80011ac:	431a      	orrs	r2, r3
 80011ae:	4b15      	ldr	r3, [pc, #84]	; (8001204 <HAL_RCC_OscConfig+0x67c>)
 80011b0:	430a      	orrs	r2, r1
 80011b2:	605a      	str	r2, [r3, #4]
                             RCC_OscInitStruct->PLL.PREDIV,
                             RCC_OscInitStruct->PLL.PLLMUL);
        /* Enable the main PLL. */
        __HAL_RCC_PLL_ENABLE();
 80011b4:	4b13      	ldr	r3, [pc, #76]	; (8001204 <HAL_RCC_OscConfig+0x67c>)
 80011b6:	681a      	ldr	r2, [r3, #0]
 80011b8:	4b12      	ldr	r3, [pc, #72]	; (8001204 <HAL_RCC_OscConfig+0x67c>)
 80011ba:	2180      	movs	r1, #128	; 0x80
 80011bc:	0449      	lsls	r1, r1, #17
 80011be:	430a      	orrs	r2, r1
 80011c0:	601a      	str	r2, [r3, #0]
        
        /* Get Start Tick */
        tickstart = HAL_GetTick();
 80011c2:	f7ff fa81 	bl	80006c8 <HAL_GetTick>
 80011c6:	0003      	movs	r3, r0
 80011c8:	61bb      	str	r3, [r7, #24]
        
        /* Wait till PLL is ready */
        while(__HAL_RCC_GET_FLAG(RCC_FLAG_PLLRDY)  == RESET)
 80011ca:	e008      	b.n	80011de <HAL_RCC_OscConfig+0x656>
        {
          if((HAL_GetTick() - tickstart ) > PLL_TIMEOUT_VALUE)
 80011cc:	f7ff fa7c 	bl	80006c8 <HAL_GetTick>
 80011d0:	0002      	movs	r2, r0
 80011d2:	69bb      	ldr	r3, [r7, #24]
 80011d4:	1ad3      	subs	r3, r2, r3
 80011d6:	2b02      	cmp	r3, #2
 80011d8:	d901      	bls.n	80011de <HAL_RCC_OscConfig+0x656>
          {
            return HAL_TIMEOUT;
 80011da:	2303      	movs	r3, #3
 80011dc:	e054      	b.n	8001288 <HAL_RCC_OscConfig+0x700>
        while(__HAL_RCC_GET_FLAG(RCC_FLAG_PLLRDY)  == RESET)
 80011de:	4b09      	ldr	r3, [pc, #36]	; (8001204 <HAL_RCC_OscConfig+0x67c>)
 80011e0:	681a      	ldr	r2, [r3, #0]
 80011e2:	2380      	movs	r3, #128	; 0x80
 80011e4:	049b      	lsls	r3, r3, #18
 80011e6:	4013      	ands	r3, r2
 80011e8:	d0f0      	beq.n	80011cc <HAL_RCC_OscConfig+0x644>
 80011ea:	e04c      	b.n	8001286 <HAL_RCC_OscConfig+0x6fe>
        }
      }
      else
      {
        /* Disable the main PLL. */
        __HAL_RCC_PLL_DISABLE();
 80011ec:	4b05      	ldr	r3, [pc, #20]	; (8001204 <HAL_RCC_OscConfig+0x67c>)
 80011ee:	681a      	ldr	r2, [r3, #0]
 80011f0:	4b04      	ldr	r3, [pc, #16]	; (8001204 <HAL_RCC_OscConfig+0x67c>)
 80011f2:	4908      	ldr	r1, [pc, #32]	; (8001214 <HAL_RCC_OscConfig+0x68c>)
 80011f4:	400a      	ands	r2, r1
 80011f6:	601a      	str	r2, [r3, #0]
 
        /* Get Start Tick */
        tickstart = HAL_GetTick();
 80011f8:	f7ff fa66 	bl	80006c8 <HAL_GetTick>
 80011fc:	0003      	movs	r3, r0
 80011fe:	61bb      	str	r3, [r7, #24]
        
        /* Wait till PLL is disabled */  
        while(__HAL_RCC_GET_FLAG(RCC_FLAG_PLLRDY)  != RESET)
 8001200:	e015      	b.n	800122e <HAL_RCC_OscConfig+0x6a6>
 8001202:	46c0      	nop			; (mov r8, r8)
 8001204:	40021000 	.word	0x40021000
 8001208:	00001388 	.word	0x00001388
 800120c:	efffffff 	.word	0xefffffff
 8001210:	fffeffff 	.word	0xfffeffff
 8001214:	feffffff 	.word	0xfeffffff
 8001218:	ffc27fff 	.word	0xffc27fff
        {
          if((HAL_GetTick() - tickstart ) > PLL_TIMEOUT_VALUE)
 800121c:	f7ff fa54 	bl	80006c8 <HAL_GetTick>
 8001220:	0002      	movs	r2, r0
 8001222:	69bb      	ldr	r3, [r7, #24]
 8001224:	1ad3      	subs	r3, r2, r3
 8001226:	2b02      	cmp	r3, #2
 8001228:	d901      	bls.n	800122e <HAL_RCC_OscConfig+0x6a6>
          {
            return HAL_TIMEOUT;
 800122a:	2303      	movs	r3, #3
 800122c:	e02c      	b.n	8001288 <HAL_RCC_OscConfig+0x700>
        while(__HAL_RCC_GET_FLAG(RCC_FLAG_PLLRDY)  != RESET)
 800122e:	4b18      	ldr	r3, [pc, #96]	; (8001290 <HAL_RCC_OscConfig+0x708>)
 8001230:	681a      	ldr	r2, [r3, #0]
 8001232:	2380      	movs	r3, #128	; 0x80
 8001234:	049b      	lsls	r3, r3, #18
 8001236:	4013      	ands	r3, r2
 8001238:	d1f0      	bne.n	800121c <HAL_RCC_OscConfig+0x694>
 800123a:	e024      	b.n	8001286 <HAL_RCC_OscConfig+0x6fe>
      }
    }
    else
    {
      /* Check if there is a request to disable the PLL used as System clock source */
      if((RCC_OscInitStruct->PLL.PLLState) == RCC_PLL_OFF)
 800123c:	687b      	ldr	r3, [r7, #4]
 800123e:	6a5b      	ldr	r3, [r3, #36]	; 0x24
 8001240:	2b01      	cmp	r3, #1
 8001242:	d101      	bne.n	8001248 <HAL_RCC_OscConfig+0x6c0>
      {
        return HAL_ERROR;
 8001244:	2301      	movs	r3, #1
 8001246:	e01f      	b.n	8001288 <HAL_RCC_OscConfig+0x700>
      }
      else
      {
        /* Do not return HAL_ERROR if request repeats the current configuration */
        pll_config  = RCC->CFGR;
 8001248:	4b11      	ldr	r3, [pc, #68]	; (8001290 <HAL_RCC_OscConfig+0x708>)
 800124a:	685b      	ldr	r3, [r3, #4]
 800124c:	617b      	str	r3, [r7, #20]
        pll_config2 = RCC->CFGR2;
 800124e:	4b10      	ldr	r3, [pc, #64]	; (8001290 <HAL_RCC_OscConfig+0x708>)
 8001250:	6adb      	ldr	r3, [r3, #44]	; 0x2c
 8001252:	613b      	str	r3, [r7, #16]
        if((READ_BIT(pll_config,  RCC_CFGR_PLLSRC)  != RCC_OscInitStruct->PLL.PLLSource) ||
 8001254:	697a      	ldr	r2, [r7, #20]
 8001256:	23c0      	movs	r3, #192	; 0xc0
 8001258:	025b      	lsls	r3, r3, #9
 800125a:	401a      	ands	r2, r3
 800125c:	687b      	ldr	r3, [r7, #4]
 800125e:	6a9b      	ldr	r3, [r3, #40]	; 0x28
 8001260:	429a      	cmp	r2, r3
 8001262:	d10e      	bne.n	8001282 <HAL_RCC_OscConfig+0x6fa>
           (READ_BIT(pll_config2, RCC_CFGR2_PREDIV) != RCC_OscInitStruct->PLL.PREDIV)    ||
 8001264:	693b      	ldr	r3, [r7, #16]
 8001266:	220f      	movs	r2, #15
 8001268:	401a      	ands	r2, r3
 800126a:	687b      	ldr	r3, [r7, #4]
 800126c:	6b1b      	ldr	r3, [r3, #48]	; 0x30
        if((READ_BIT(pll_config,  RCC_CFGR_PLLSRC)  != RCC_OscInitStruct->PLL.PLLSource) ||
 800126e:	429a      	cmp	r2, r3
 8001270:	d107      	bne.n	8001282 <HAL_RCC_OscConfig+0x6fa>
           (READ_BIT(pll_config,  RCC_CFGR_PLLMUL)  != RCC_OscInitStruct->PLL.PLLMUL))
 8001272:	697a      	ldr	r2, [r7, #20]
 8001274:	23f0      	movs	r3, #240	; 0xf0
 8001276:	039b      	lsls	r3, r3, #14
 8001278:	401a      	ands	r2, r3
 800127a:	687b      	ldr	r3, [r7, #4]
 800127c:	6adb      	ldr	r3, [r3, #44]	; 0x2c
           (READ_BIT(pll_config2, RCC_CFGR2_PREDIV) != RCC_OscInitStruct->PLL.PREDIV)    ||
 800127e:	429a      	cmp	r2, r3
 8001280:	d001      	beq.n	8001286 <HAL_RCC_OscConfig+0x6fe>
        {
          return HAL_ERROR;
 8001282:	2301      	movs	r3, #1
 8001284:	e000      	b.n	8001288 <HAL_RCC_OscConfig+0x700>
        }
      }
    }
  }

  return HAL_OK;
 8001286:	2300      	movs	r3, #0
}
 8001288:	0018      	movs	r0, r3
 800128a:	46bd      	mov	sp, r7
 800128c:	b008      	add	sp, #32
 800128e:	bd80      	pop	{r7, pc}
 8001290:	40021000 	.word	0x40021000

08001294 <HAL_RCC_ClockConfig>:
  *         You can use @ref HAL_RCC_GetClockConfig() function to know which clock is
  *         currently used as system clock source.
  * @retval HAL status
  */
HAL_StatusTypeDef HAL_RCC_ClockConfig(RCC_ClkInitTypeDef  *RCC_ClkInitStruct, uint32_t FLatency)
{
 8001294:	b580      	push	{r7, lr}
 8001296:	b084      	sub	sp, #16
 8001298:	af00      	add	r7, sp, #0
 800129a:	6078      	str	r0, [r7, #4]
 800129c:	6039      	str	r1, [r7, #0]
  uint32_t tickstart;

  /* Check Null pointer */
  if(RCC_ClkInitStruct == NULL)
 800129e:	687b      	ldr	r3, [r7, #4]
 80012a0:	2b00      	cmp	r3, #0
 80012a2:	d101      	bne.n	80012a8 <HAL_RCC_ClockConfig+0x14>
  {
    return HAL_ERROR;
 80012a4:	2301      	movs	r3, #1
 80012a6:	e0bf      	b.n	8001428 <HAL_RCC_ClockConfig+0x194>
  /* To correctly read data from FLASH memory, the number of wait states (LATENCY) 
  must be correctly programmed according to the frequency of the CPU clock 
    (HCLK) of the device. */

  /* Increasing the number of wait states because of higher CPU frequency */
  if(FLatency > __HAL_FLASH_GET_LATENCY())
 80012a8:	4b61      	ldr	r3, [pc, #388]	; (8001430 <HAL_RCC_ClockConfig+0x19c>)
 80012aa:	681b      	ldr	r3, [r3, #0]
 80012ac:	2201      	movs	r2, #1
 80012ae:	4013      	ands	r3, r2
 80012b0:	683a      	ldr	r2, [r7, #0]
 80012b2:	429a      	cmp	r2, r3
 80012b4:	d911      	bls.n	80012da <HAL_RCC_ClockConfig+0x46>
  {    
    /* Program the new number of wait states to the LATENCY bits in the FLASH_ACR register */
    __HAL_FLASH_SET_LATENCY(FLatency);
 80012b6:	4b5e      	ldr	r3, [pc, #376]	; (8001430 <HAL_RCC_ClockConfig+0x19c>)
 80012b8:	681b      	ldr	r3, [r3, #0]
 80012ba:	2201      	movs	r2, #1
 80012bc:	4393      	bics	r3, r2
 80012be:	0019      	movs	r1, r3
 80012c0:	4b5b      	ldr	r3, [pc, #364]	; (8001430 <HAL_RCC_ClockConfig+0x19c>)
 80012c2:	683a      	ldr	r2, [r7, #0]
 80012c4:	430a      	orrs	r2, r1
 80012c6:	601a      	str	r2, [r3, #0]
    
    /* Check that the new number of wait states is taken into account to access the Flash
    memory by reading the FLASH_ACR register */
    if(__HAL_FLASH_GET_LATENCY() != FLatency)
 80012c8:	4b59      	ldr	r3, [pc, #356]	; (8001430 <HAL_RCC_ClockConfig+0x19c>)
 80012ca:	681b      	ldr	r3, [r3, #0]
 80012cc:	2201      	movs	r2, #1
 80012ce:	4013      	ands	r3, r2
 80012d0:	683a      	ldr	r2, [r7, #0]
 80012d2:	429a      	cmp	r2, r3
 80012d4:	d001      	beq.n	80012da <HAL_RCC_ClockConfig+0x46>
    {
      return HAL_ERROR;
 80012d6:	2301      	movs	r3, #1
 80012d8:	e0a6      	b.n	8001428 <HAL_RCC_ClockConfig+0x194>
    }
  }

  /*-------------------------- HCLK Configuration --------------------------*/
  if(((RCC_ClkInitStruct->ClockType) & RCC_CLOCKTYPE_HCLK) == RCC_CLOCKTYPE_HCLK)
 80012da:	687b      	ldr	r3, [r7, #4]
 80012dc:	681b      	ldr	r3, [r3, #0]
 80012de:	2202      	movs	r2, #2
 80012e0:	4013      	ands	r3, r2
 80012e2:	d015      	beq.n	8001310 <HAL_RCC_ClockConfig+0x7c>
  {
    /* Set the highest APB divider in order to ensure that we do not go through
       a non-spec phase whatever we decrease or increase HCLK. */
    if(((RCC_ClkInitStruct->ClockType) & RCC_CLOCKTYPE_PCLK1) == RCC_CLOCKTYPE_PCLK1)
 80012e4:	687b      	ldr	r3, [r7, #4]
 80012e6:	681b      	ldr	r3, [r3, #0]
 80012e8:	2204      	movs	r2, #4
 80012ea:	4013      	ands	r3, r2
 80012ec:	d006      	beq.n	80012fc <HAL_RCC_ClockConfig+0x68>
    {
      MODIFY_REG(RCC->CFGR, RCC_CFGR_PPRE, RCC_HCLK_DIV16);
 80012ee:	4b51      	ldr	r3, [pc, #324]	; (8001434 <HAL_RCC_ClockConfig+0x1a0>)
 80012f0:	685a      	ldr	r2, [r3, #4]
 80012f2:	4b50      	ldr	r3, [pc, #320]	; (8001434 <HAL_RCC_ClockConfig+0x1a0>)
 80012f4:	21e0      	movs	r1, #224	; 0xe0
 80012f6:	00c9      	lsls	r1, r1, #3
 80012f8:	430a      	orrs	r2, r1
 80012fa:	605a      	str	r2, [r3, #4]
    }

    /* Set the new HCLK clock divider */
    assert_param(IS_RCC_HCLK(RCC_ClkInitStruct->AHBCLKDivider));
    MODIFY_REG(RCC->CFGR, RCC_CFGR_HPRE, RCC_ClkInitStruct->AHBCLKDivider);
 80012fc:	4b4d      	ldr	r3, [pc, #308]	; (8001434 <HAL_RCC_ClockConfig+0x1a0>)
 80012fe:	685b      	ldr	r3, [r3, #4]
 8001300:	22f0      	movs	r2, #240	; 0xf0
 8001302:	4393      	bics	r3, r2
 8001304:	0019      	movs	r1, r3
 8001306:	687b      	ldr	r3, [r7, #4]
 8001308:	689a      	ldr	r2, [r3, #8]
 800130a:	4b4a      	ldr	r3, [pc, #296]	; (8001434 <HAL_RCC_ClockConfig+0x1a0>)
 800130c:	430a      	orrs	r2, r1
 800130e:	605a      	str	r2, [r3, #4]
  }

  /*------------------------- SYSCLK Configuration ---------------------------*/ 
  if(((RCC_ClkInitStruct->ClockType) & RCC_CLOCKTYPE_SYSCLK) == RCC_CLOCKTYPE_SYSCLK)
 8001310:	687b      	ldr	r3, [r7, #4]
 8001312:	681b      	ldr	r3, [r3, #0]
 8001314:	2201      	movs	r2, #1
 8001316:	4013      	ands	r3, r2
 8001318:	d04c      	beq.n	80013b4 <HAL_RCC_ClockConfig+0x120>
  {
    assert_param(IS_RCC_SYSCLKSOURCE(RCC_ClkInitStruct->SYSCLKSource));
    
    /* HSE is selected as System Clock Source */
    if(RCC_ClkInitStruct->SYSCLKSource == RCC_SYSCLKSOURCE_HSE)
 800131a:	687b      	ldr	r3, [r7, #4]
 800131c:	685b      	ldr	r3, [r3, #4]
 800131e:	2b01      	cmp	r3, #1
 8001320:	d107      	bne.n	8001332 <HAL_RCC_ClockConfig+0x9e>
    {
      /* Check the HSE ready flag */  
      if(__HAL_RCC_GET_FLAG(RCC_FLAG_HSERDY) == RESET)
 8001322:	4b44      	ldr	r3, [pc, #272]	; (8001434 <HAL_RCC_ClockConfig+0x1a0>)
 8001324:	681a      	ldr	r2, [r3, #0]
 8001326:	2380      	movs	r3, #128	; 0x80
 8001328:	029b      	lsls	r3, r3, #10
 800132a:	4013      	ands	r3, r2
 800132c:	d120      	bne.n	8001370 <HAL_RCC_ClockConfig+0xdc>
      {
        return HAL_ERROR;
 800132e:	2301      	movs	r3, #1
 8001330:	e07a      	b.n	8001428 <HAL_RCC_ClockConfig+0x194>
      }
    }
    /* PLL is selected as System Clock Source */
    else if(RCC_ClkInitStruct->SYSCLKSource == RCC_SYSCLKSOURCE_PLLCLK)
 8001332:	687b      	ldr	r3, [r7, #4]
 8001334:	685b      	ldr	r3, [r3, #4]
 8001336:	2b02      	cmp	r3, #2
 8001338:	d107      	bne.n	800134a <HAL_RCC_ClockConfig+0xb6>
    {
      /* Check the PLL ready flag */  
      if(__HAL_RCC_GET_FLAG(RCC_FLAG_PLLRDY) == RESET)
 800133a:	4b3e      	ldr	r3, [pc, #248]	; (8001434 <HAL_RCC_ClockConfig+0x1a0>)
 800133c:	681a      	ldr	r2, [r3, #0]
 800133e:	2380      	movs	r3, #128	; 0x80
 8001340:	049b      	lsls	r3, r3, #18
 8001342:	4013      	ands	r3, r2
 8001344:	d114      	bne.n	8001370 <HAL_RCC_ClockConfig+0xdc>
      {
        return HAL_ERROR;
 8001346:	2301      	movs	r3, #1
 8001348:	e06e      	b.n	8001428 <HAL_RCC_ClockConfig+0x194>
      }
    }
#if defined(RCC_CFGR_SWS_HSI48)
    /* HSI48 is selected as System Clock Source */
    else if(RCC_ClkInitStruct->SYSCLKSource == RCC_SYSCLKSOURCE_HSI48)
 800134a:	687b      	ldr	r3, [r7, #4]
 800134c:	685b      	ldr	r3, [r3, #4]
 800134e:	2b03      	cmp	r3, #3
 8001350:	d107      	bne.n	8001362 <HAL_RCC_ClockConfig+0xce>
    {
      /* Check the HSI48 ready flag */
      if(__HAL_RCC_GET_FLAG(RCC_FLAG_HSI48RDY) == RESET)
 8001352:	4b38      	ldr	r3, [pc, #224]	; (8001434 <HAL_RCC_ClockConfig+0x1a0>)
 8001354:	6b5a      	ldr	r2, [r3, #52]	; 0x34
 8001356:	2380      	movs	r3, #128	; 0x80
 8001358:	025b      	lsls	r3, r3, #9
 800135a:	4013      	ands	r3, r2
 800135c:	d108      	bne.n	8001370 <HAL_RCC_ClockConfig+0xdc>
      {
        return HAL_ERROR;
 800135e:	2301      	movs	r3, #1
 8001360:	e062      	b.n	8001428 <HAL_RCC_ClockConfig+0x194>
#endif /* RCC_CFGR_SWS_HSI48 */
    /* HSI is selected as System Clock Source */
    else
    {
      /* Check the HSI ready flag */  
      if(__HAL_RCC_GET_FLAG(RCC_FLAG_HSIRDY) == RESET)
 8001362:	4b34      	ldr	r3, [pc, #208]	; (8001434 <HAL_RCC_ClockConfig+0x1a0>)
 8001364:	681b      	ldr	r3, [r3, #0]
 8001366:	2202      	movs	r2, #2
 8001368:	4013      	ands	r3, r2
 800136a:	d101      	bne.n	8001370 <HAL_RCC_ClockConfig+0xdc>
      {
        return HAL_ERROR;
 800136c:	2301      	movs	r3, #1
 800136e:	e05b      	b.n	8001428 <HAL_RCC_ClockConfig+0x194>
      }
    }
    __HAL_RCC_SYSCLK_CONFIG(RCC_ClkInitStruct->SYSCLKSource);
 8001370:	4b30      	ldr	r3, [pc, #192]	; (8001434 <HAL_RCC_ClockConfig+0x1a0>)
 8001372:	685b      	ldr	r3, [r3, #4]
 8001374:	2203      	movs	r2, #3
 8001376:	4393      	bics	r3, r2
 8001378:	0019      	movs	r1, r3
 800137a:	687b      	ldr	r3, [r7, #4]
 800137c:	685a      	ldr	r2, [r3, #4]
 800137e:	4b2d      	ldr	r3, [pc, #180]	; (8001434 <HAL_RCC_ClockConfig+0x1a0>)
 8001380:	430a      	orrs	r2, r1
 8001382:	605a      	str	r2, [r3, #4]

    /* Get Start Tick */
    tickstart = HAL_GetTick();
 8001384:	f7ff f9a0 	bl	80006c8 <HAL_GetTick>
 8001388:	0003      	movs	r3, r0
 800138a:	60fb      	str	r3, [r7, #12]
    
    while (__HAL_RCC_GET_SYSCLK_SOURCE() != (RCC_ClkInitStruct->SYSCLKSource << RCC_CFGR_SWS_Pos))
 800138c:	e009      	b.n	80013a2 <HAL_RCC_ClockConfig+0x10e>
    {
      if((HAL_GetTick() - tickstart ) > CLOCKSWITCH_TIMEOUT_VALUE)
 800138e:	f7ff f99b 	bl	80006c8 <HAL_GetTick>
 8001392:	0002      	movs	r2, r0
 8001394:	68fb      	ldr	r3, [r7, #12]
 8001396:	1ad3      	subs	r3, r2, r3
 8001398:	4a27      	ldr	r2, [pc, #156]	; (8001438 <HAL_RCC_ClockConfig+0x1a4>)
 800139a:	4293      	cmp	r3, r2
 800139c:	d901      	bls.n	80013a2 <HAL_RCC_ClockConfig+0x10e>
      {
        return HAL_TIMEOUT;
 800139e:	2303      	movs	r3, #3
 80013a0:	e042      	b.n	8001428 <HAL_RCC_ClockConfig+0x194>
    while (__HAL_RCC_GET_SYSCLK_SOURCE() != (RCC_ClkInitStruct->SYSCLKSource << RCC_CFGR_SWS_Pos))
 80013a2:	4b24      	ldr	r3, [pc, #144]	; (8001434 <HAL_RCC_ClockConfig+0x1a0>)
 80013a4:	685b      	ldr	r3, [r3, #4]
 80013a6:	220c      	movs	r2, #12
 80013a8:	401a      	ands	r2, r3
 80013aa:	687b      	ldr	r3, [r7, #4]
 80013ac:	685b      	ldr	r3, [r3, #4]
 80013ae:	009b      	lsls	r3, r3, #2
 80013b0:	429a      	cmp	r2, r3
 80013b2:	d1ec      	bne.n	800138e <HAL_RCC_ClockConfig+0xfa>
      }
    }
  }

  /* Decreasing the number of wait states because of lower CPU frequency */
  if(FLatency < __HAL_FLASH_GET_LATENCY())
 80013b4:	4b1e      	ldr	r3, [pc, #120]	; (8001430 <HAL_RCC_ClockConfig+0x19c>)
 80013b6:	681b      	ldr	r3, [r3, #0]
 80013b8:	2201      	movs	r2, #1
 80013ba:	4013      	ands	r3, r2
 80013bc:	683a      	ldr	r2, [r7, #0]
 80013be:	429a      	cmp	r2, r3
 80013c0:	d211      	bcs.n	80013e6 <HAL_RCC_ClockConfig+0x152>
  {    
    /* Program the new number of wait states to the LATENCY bits in the FLASH_ACR register */
    __HAL_FLASH_SET_LATENCY(FLatency);
 80013c2:	4b1b      	ldr	r3, [pc, #108]	; (8001430 <HAL_RCC_ClockConfig+0x19c>)
 80013c4:	681b      	ldr	r3, [r3, #0]
 80013c6:	2201      	movs	r2, #1
 80013c8:	4393      	bics	r3, r2
 80013ca:	0019      	movs	r1, r3
 80013cc:	4b18      	ldr	r3, [pc, #96]	; (8001430 <HAL_RCC_ClockConfig+0x19c>)
 80013ce:	683a      	ldr	r2, [r7, #0]
 80013d0:	430a      	orrs	r2, r1
 80013d2:	601a      	str	r2, [r3, #0]
    
    /* Check that the new number of wait states is taken into account to access the Flash
    memory by reading the FLASH_ACR register */
    if(__HAL_FLASH_GET_LATENCY() != FLatency)
 80013d4:	4b16      	ldr	r3, [pc, #88]	; (8001430 <HAL_RCC_ClockConfig+0x19c>)
 80013d6:	681b      	ldr	r3, [r3, #0]
 80013d8:	2201      	movs	r2, #1
 80013da:	4013      	ands	r3, r2
 80013dc:	683a      	ldr	r2, [r7, #0]
 80013de:	429a      	cmp	r2, r3
 80013e0:	d001      	beq.n	80013e6 <HAL_RCC_ClockConfig+0x152>
    {
      return HAL_ERROR;
 80013e2:	2301      	movs	r3, #1
 80013e4:	e020      	b.n	8001428 <HAL_RCC_ClockConfig+0x194>
    }
  }    

  /*-------------------------- PCLK1 Configuration ---------------------------*/ 
  if(((RCC_ClkInitStruct->ClockType) & RCC_CLOCKTYPE_PCLK1) == RCC_CLOCKTYPE_PCLK1)
 80013e6:	687b      	ldr	r3, [r7, #4]
 80013e8:	681b      	ldr	r3, [r3, #0]
 80013ea:	2204      	movs	r2, #4
 80013ec:	4013      	ands	r3, r2
 80013ee:	d009      	beq.n	8001404 <HAL_RCC_ClockConfig+0x170>
  {
    assert_param(IS_RCC_PCLK(RCC_ClkInitStruct->APB1CLKDivider));
    MODIFY_REG(RCC->CFGR, RCC_CFGR_PPRE, RCC_ClkInitStruct->APB1CLKDivider);
 80013f0:	4b10      	ldr	r3, [pc, #64]	; (8001434 <HAL_RCC_ClockConfig+0x1a0>)
 80013f2:	685b      	ldr	r3, [r3, #4]
 80013f4:	4a11      	ldr	r2, [pc, #68]	; (800143c <HAL_RCC_ClockConfig+0x1a8>)
 80013f6:	4013      	ands	r3, r2
 80013f8:	0019      	movs	r1, r3
 80013fa:	687b      	ldr	r3, [r7, #4]
 80013fc:	68da      	ldr	r2, [r3, #12]
 80013fe:	4b0d      	ldr	r3, [pc, #52]	; (8001434 <HAL_RCC_ClockConfig+0x1a0>)
 8001400:	430a      	orrs	r2, r1
 8001402:	605a      	str	r2, [r3, #4]
  }
  
  /* Update the SystemCoreClock global variable */
  SystemCoreClock = HAL_RCC_GetSysClockFreq() >> AHBPrescTable[(RCC->CFGR & RCC_CFGR_HPRE)>> RCC_CFGR_HPRE_BITNUMBER];
 8001404:	f000 f820 	bl	8001448 <HAL_RCC_GetSysClockFreq>
 8001408:	0001      	movs	r1, r0
 800140a:	4b0a      	ldr	r3, [pc, #40]	; (8001434 <HAL_RCC_ClockConfig+0x1a0>)
 800140c:	685b      	ldr	r3, [r3, #4]
 800140e:	091b      	lsrs	r3, r3, #4
 8001410:	220f      	movs	r2, #15
 8001412:	4013      	ands	r3, r2
 8001414:	4a0a      	ldr	r2, [pc, #40]	; (8001440 <HAL_RCC_ClockConfig+0x1ac>)
 8001416:	5cd3      	ldrb	r3, [r2, r3]
 8001418:	000a      	movs	r2, r1
 800141a:	40da      	lsrs	r2, r3
 800141c:	4b09      	ldr	r3, [pc, #36]	; (8001444 <HAL_RCC_ClockConfig+0x1b0>)
 800141e:	601a      	str	r2, [r3, #0]

  /* Configure the source of time base considering new system clocks settings*/
  HAL_InitTick (TICK_INT_PRIORITY);
 8001420:	2000      	movs	r0, #0
 8001422:	f7ff f90b 	bl	800063c <HAL_InitTick>
  
  return HAL_OK;
 8001426:	2300      	movs	r3, #0
}
 8001428:	0018      	movs	r0, r3
 800142a:	46bd      	mov	sp, r7
 800142c:	b004      	add	sp, #16
 800142e:	bd80      	pop	{r7, pc}
 8001430:	40022000 	.word	0x40022000
 8001434:	40021000 	.word	0x40021000
 8001438:	00001388 	.word	0x00001388
 800143c:	fffff8ff 	.word	0xfffff8ff
 8001440:	08001c30 	.word	0x08001c30
 8001444:	20000000 	.word	0x20000000

08001448 <HAL_RCC_GetSysClockFreq>:
  *         right SYSCLK value. Otherwise, any configuration based on this function will be incorrect.
  *         
  * @retval SYSCLK frequency
  */
uint32_t HAL_RCC_GetSysClockFreq(void)
{
 8001448:	b590      	push	{r4, r7, lr}
 800144a:	b08f      	sub	sp, #60	; 0x3c
 800144c:	af00      	add	r7, sp, #0
  const uint8_t aPLLMULFactorTable[16] = { 2U,  3U,  4U,  5U,  6U,  7U,  8U,  9U,
 800144e:	2314      	movs	r3, #20
 8001450:	18fb      	adds	r3, r7, r3
 8001452:	4a37      	ldr	r2, [pc, #220]	; (8001530 <HAL_RCC_GetSysClockFreq+0xe8>)
 8001454:	ca13      	ldmia	r2!, {r0, r1, r4}
 8001456:	c313      	stmia	r3!, {r0, r1, r4}
 8001458:	6812      	ldr	r2, [r2, #0]
 800145a:	601a      	str	r2, [r3, #0]
                                         10U, 11U, 12U, 13U, 14U, 15U, 16U, 16U};
  const uint8_t aPredivFactorTable[16] = { 1U, 2U,  3U,  4U,  5U,  6U,  7U,  8U,
 800145c:	1d3b      	adds	r3, r7, #4
 800145e:	4a35      	ldr	r2, [pc, #212]	; (8001534 <HAL_RCC_GetSysClockFreq+0xec>)
 8001460:	ca13      	ldmia	r2!, {r0, r1, r4}
 8001462:	c313      	stmia	r3!, {r0, r1, r4}
 8001464:	6812      	ldr	r2, [r2, #0]
 8001466:	601a      	str	r2, [r3, #0]
                                           9U,10U, 11U, 12U, 13U, 14U, 15U, 16U};

  uint32_t tmpreg = 0U, prediv = 0U, pllclk = 0U, pllmul = 0U;
 8001468:	2300      	movs	r3, #0
 800146a:	62fb      	str	r3, [r7, #44]	; 0x2c
 800146c:	2300      	movs	r3, #0
 800146e:	62bb      	str	r3, [r7, #40]	; 0x28
 8001470:	2300      	movs	r3, #0
 8001472:	637b      	str	r3, [r7, #52]	; 0x34
 8001474:	2300      	movs	r3, #0
 8001476:	627b      	str	r3, [r7, #36]	; 0x24
  uint32_t sysclockfreq = 0U;
 8001478:	2300      	movs	r3, #0
 800147a:	633b      	str	r3, [r7, #48]	; 0x30
  
  tmpreg = RCC->CFGR;
 800147c:	4b2e      	ldr	r3, [pc, #184]	; (8001538 <HAL_RCC_GetSysClockFreq+0xf0>)
 800147e:	685b      	ldr	r3, [r3, #4]
 8001480:	62fb      	str	r3, [r7, #44]	; 0x2c
  
  /* Get SYSCLK source -------------------------------------------------------*/
  switch (tmpreg & RCC_CFGR_SWS)
 8001482:	6afb      	ldr	r3, [r7, #44]	; 0x2c
 8001484:	220c      	movs	r2, #12
 8001486:	4013      	ands	r3, r2
 8001488:	2b08      	cmp	r3, #8
 800148a:	d006      	beq.n	800149a <HAL_RCC_GetSysClockFreq+0x52>
 800148c:	2b0c      	cmp	r3, #12
 800148e:	d043      	beq.n	8001518 <HAL_RCC_GetSysClockFreq+0xd0>
 8001490:	2b04      	cmp	r3, #4
 8001492:	d144      	bne.n	800151e <HAL_RCC_GetSysClockFreq+0xd6>
  {
    case RCC_SYSCLKSOURCE_STATUS_HSE:  /* HSE used as system clock */
    {
      sysclockfreq = HSE_VALUE;
 8001494:	4b29      	ldr	r3, [pc, #164]	; (800153c <HAL_RCC_GetSysClockFreq+0xf4>)
 8001496:	633b      	str	r3, [r7, #48]	; 0x30
      break;
 8001498:	e044      	b.n	8001524 <HAL_RCC_GetSysClockFreq+0xdc>
    }
    case RCC_SYSCLKSOURCE_STATUS_PLLCLK:  /* PLL used as system clock */
    {
      pllmul = aPLLMULFactorTable[(uint32_t)(tmpreg & RCC_CFGR_PLLMUL) >> RCC_CFGR_PLLMUL_BITNUMBER];
 800149a:	6afb      	ldr	r3, [r7, #44]	; 0x2c
 800149c:	0c9b      	lsrs	r3, r3, #18
 800149e:	220f      	movs	r2, #15
 80014a0:	4013      	ands	r3, r2
 80014a2:	2214      	movs	r2, #20
 80014a4:	18ba      	adds	r2, r7, r2
 80014a6:	5cd3      	ldrb	r3, [r2, r3]
 80014a8:	627b      	str	r3, [r7, #36]	; 0x24
      prediv = aPredivFactorTable[(uint32_t)(RCC->CFGR2 & RCC_CFGR2_PREDIV) >> RCC_CFGR2_PREDIV_BITNUMBER];
 80014aa:	4b23      	ldr	r3, [pc, #140]	; (8001538 <HAL_RCC_GetSysClockFreq+0xf0>)
 80014ac:	6adb      	ldr	r3, [r3, #44]	; 0x2c
 80014ae:	220f      	movs	r2, #15
 80014b0:	4013      	ands	r3, r2
 80014b2:	1d3a      	adds	r2, r7, #4
 80014b4:	5cd3      	ldrb	r3, [r2, r3]
 80014b6:	62bb      	str	r3, [r7, #40]	; 0x28
      if ((tmpreg & RCC_CFGR_PLLSRC) == RCC_PLLSOURCE_HSE)
 80014b8:	6afa      	ldr	r2, [r7, #44]	; 0x2c
 80014ba:	23c0      	movs	r3, #192	; 0xc0
 80014bc:	025b      	lsls	r3, r3, #9
 80014be:	401a      	ands	r2, r3
 80014c0:	2380      	movs	r3, #128	; 0x80
 80014c2:	025b      	lsls	r3, r3, #9
 80014c4:	429a      	cmp	r2, r3
 80014c6:	d109      	bne.n	80014dc <HAL_RCC_GetSysClockFreq+0x94>
      {
        /* HSE used as PLL clock source : PLLCLK = HSE/PREDIV * PLLMUL */
        pllclk = (uint32_t)((uint64_t) HSE_VALUE / (uint64_t) (prediv)) * ((uint64_t) pllmul);
 80014c8:	6ab9      	ldr	r1, [r7, #40]	; 0x28
 80014ca:	481c      	ldr	r0, [pc, #112]	; (800153c <HAL_RCC_GetSysClockFreq+0xf4>)
 80014cc:	f7fe fe1c 	bl	8000108 <__udivsi3>
 80014d0:	0003      	movs	r3, r0
 80014d2:	001a      	movs	r2, r3
 80014d4:	6a7b      	ldr	r3, [r7, #36]	; 0x24
 80014d6:	4353      	muls	r3, r2
 80014d8:	637b      	str	r3, [r7, #52]	; 0x34
 80014da:	e01a      	b.n	8001512 <HAL_RCC_GetSysClockFreq+0xca>
      }
#if defined(RCC_CFGR_PLLSRC_HSI48_PREDIV)
      else if ((tmpreg & RCC_CFGR_PLLSRC) == RCC_PLLSOURCE_HSI48)
 80014dc:	6afa      	ldr	r2, [r7, #44]	; 0x2c
 80014de:	23c0      	movs	r3, #192	; 0xc0
 80014e0:	025b      	lsls	r3, r3, #9
 80014e2:	401a      	ands	r2, r3
 80014e4:	23c0      	movs	r3, #192	; 0xc0
 80014e6:	025b      	lsls	r3, r3, #9
 80014e8:	429a      	cmp	r2, r3
 80014ea:	d109      	bne.n	8001500 <HAL_RCC_GetSysClockFreq+0xb8>
      {
        /* HSI48 used as PLL clock source : PLLCLK = HSI48/PREDIV * PLLMUL */
        pllclk = (uint32_t)((uint64_t) HSI48_VALUE / (uint64_t) (prediv)) * ((uint64_t) pllmul);
 80014ec:	6ab9      	ldr	r1, [r7, #40]	; 0x28
 80014ee:	4814      	ldr	r0, [pc, #80]	; (8001540 <HAL_RCC_GetSysClockFreq+0xf8>)
 80014f0:	f7fe fe0a 	bl	8000108 <__udivsi3>
 80014f4:	0003      	movs	r3, r0
 80014f6:	001a      	movs	r2, r3
 80014f8:	6a7b      	ldr	r3, [r7, #36]	; 0x24
 80014fa:	4353      	muls	r3, r2
 80014fc:	637b      	str	r3, [r7, #52]	; 0x34
 80014fe:	e008      	b.n	8001512 <HAL_RCC_GetSysClockFreq+0xca>
#endif /* RCC_CFGR_PLLSRC_HSI48_PREDIV */
      else
      {
#if  (defined(STM32F042x6) || defined(STM32F048xx) || defined(STM32F070x6) || defined(STM32F071xB) || defined(STM32F072xB) || defined(STM32F078xx) || defined(STM32F070xB) || defined(STM32F091xC) || defined(STM32F098xx) || defined(STM32F030xC))
        /* HSI used as PLL clock source : PLLCLK = HSI/PREDIV * PLLMUL */
        pllclk = (uint32_t)((uint64_t) HSI_VALUE / (uint64_t) (prediv)) * ((uint64_t) pllmul);
 8001500:	6ab9      	ldr	r1, [r7, #40]	; 0x28
 8001502:	480e      	ldr	r0, [pc, #56]	; (800153c <HAL_RCC_GetSysClockFreq+0xf4>)
 8001504:	f7fe fe00 	bl	8000108 <__udivsi3>
 8001508:	0003      	movs	r3, r0
 800150a:	001a      	movs	r2, r3
 800150c:	6a7b      	ldr	r3, [r7, #36]	; 0x24
 800150e:	4353      	muls	r3, r2
 8001510:	637b      	str	r3, [r7, #52]	; 0x34
#else
        /* HSI used as PLL clock source : PLLCLK = HSI/2 * PLLMUL */
        pllclk = (uint32_t)((uint64_t) (HSI_VALUE >> 1U) * ((uint64_t) pllmul));
#endif
      }
      sysclockfreq = pllclk;
 8001512:	6b7b      	ldr	r3, [r7, #52]	; 0x34
 8001514:	633b      	str	r3, [r7, #48]	; 0x30
      break;
 8001516:	e005      	b.n	8001524 <HAL_RCC_GetSysClockFreq+0xdc>
    }
#if defined(RCC_CFGR_SWS_HSI48)
    case RCC_SYSCLKSOURCE_STATUS_HSI48:    /* HSI48 used as system clock source */
    {
      sysclockfreq = HSI48_VALUE;
 8001518:	4b09      	ldr	r3, [pc, #36]	; (8001540 <HAL_RCC_GetSysClockFreq+0xf8>)
 800151a:	633b      	str	r3, [r7, #48]	; 0x30
      break;
 800151c:	e002      	b.n	8001524 <HAL_RCC_GetSysClockFreq+0xdc>
    }
#endif /* RCC_CFGR_SWS_HSI48 */
    case RCC_SYSCLKSOURCE_STATUS_HSI:  /* HSI used as system clock source */
    default: /* HSI used as system clock */
    {
      sysclockfreq = HSI_VALUE;
 800151e:	4b07      	ldr	r3, [pc, #28]	; (800153c <HAL_RCC_GetSysClockFreq+0xf4>)
 8001520:	633b      	str	r3, [r7, #48]	; 0x30
      break;
 8001522:	46c0      	nop			; (mov r8, r8)
    }
  }
  return sysclockfreq;
 8001524:	6b3b      	ldr	r3, [r7, #48]	; 0x30
}
 8001526:	0018      	movs	r0, r3
 8001528:	46bd      	mov	sp, r7
 800152a:	b00f      	add	sp, #60	; 0x3c
 800152c:	bd90      	pop	{r4, r7, pc}
 800152e:	46c0      	nop			; (mov r8, r8)
 8001530:	08001c10 	.word	0x08001c10
 8001534:	08001c20 	.word	0x08001c20
 8001538:	40021000 	.word	0x40021000
 800153c:	007a1200 	.word	0x007a1200
 8001540:	02dc6c00 	.word	0x02dc6c00

08001544 <HAL_RCC_GetHCLKFreq>:
  * @note   The SystemCoreClock CMSIS variable is used to store System Clock Frequency 
  *         and updated within this function
  * @retval HCLK frequency
  */
uint32_t HAL_RCC_GetHCLKFreq(void)
{
 8001544:	b580      	push	{r7, lr}
 8001546:	af00      	add	r7, sp, #0
  return SystemCoreClock;
 8001548:	4b02      	ldr	r3, [pc, #8]	; (8001554 <HAL_RCC_GetHCLKFreq+0x10>)
 800154a:	681b      	ldr	r3, [r3, #0]
}
 800154c:	0018      	movs	r0, r3
 800154e:	46bd      	mov	sp, r7
 8001550:	bd80      	pop	{r7, pc}
 8001552:	46c0      	nop			; (mov r8, r8)
 8001554:	20000000 	.word	0x20000000

08001558 <HAL_RCC_GetPCLK1Freq>:
  * @note   Each time PCLK1 changes, this function must be called to update the
  *         right PCLK1 value. Otherwise, any configuration based on this function will be incorrect.
  * @retval PCLK1 frequency
  */
uint32_t HAL_RCC_GetPCLK1Freq(void)
{
 8001558:	b580      	push	{r7, lr}
 800155a:	af00      	add	r7, sp, #0
  /* Get HCLK source and Compute PCLK1 frequency ---------------------------*/
  return (HAL_RCC_GetHCLKFreq() >> APBPrescTable[(RCC->CFGR & RCC_CFGR_PPRE) >> RCC_CFGR_PPRE_BITNUMBER]);
 800155c:	f7ff fff2 	bl	8001544 <HAL_RCC_GetHCLKFreq>
 8001560:	0001      	movs	r1, r0
 8001562:	4b06      	ldr	r3, [pc, #24]	; (800157c <HAL_RCC_GetPCLK1Freq+0x24>)
 8001564:	685b      	ldr	r3, [r3, #4]
 8001566:	0a1b      	lsrs	r3, r3, #8
 8001568:	2207      	movs	r2, #7
 800156a:	4013      	ands	r3, r2
 800156c:	4a04      	ldr	r2, [pc, #16]	; (8001580 <HAL_RCC_GetPCLK1Freq+0x28>)
 800156e:	5cd3      	ldrb	r3, [r2, r3]
 8001570:	40d9      	lsrs	r1, r3
 8001572:	000b      	movs	r3, r1
}    
 8001574:	0018      	movs	r0, r3
 8001576:	46bd      	mov	sp, r7
 8001578:	bd80      	pop	{r7, pc}
 800157a:	46c0      	nop			; (mov r8, r8)
 800157c:	40021000 	.word	0x40021000
 8001580:	08001c40 	.word	0x08001c40

08001584 <HAL_UART_Init>:
  *        parameters in the UART_InitTypeDef and initialize the associated handle.
  * @param huart UART handle.
  * @retval HAL status
  */
HAL_StatusTypeDef HAL_UART_Init(UART_HandleTypeDef *huart)
{
 8001584:	b580      	push	{r7, lr}
 8001586:	b082      	sub	sp, #8
 8001588:	af00      	add	r7, sp, #0
 800158a:	6078      	str	r0, [r7, #4]
  /* Check the UART handle allocation */
  if (huart == NULL)
 800158c:	687b      	ldr	r3, [r7, #4]
 800158e:	2b00      	cmp	r3, #0
 8001590:	d101      	bne.n	8001596 <HAL_UART_Init+0x12>
  {
    return HAL_ERROR;
 8001592:	2301      	movs	r3, #1
 8001594:	e044      	b.n	8001620 <HAL_UART_Init+0x9c>
  {
    /* Check the parameters */
    assert_param(IS_UART_INSTANCE(huart->Instance));
  }

  if (huart->gState == HAL_UART_STATE_RESET)
 8001596:	687b      	ldr	r3, [r7, #4]
 8001598:	6f9b      	ldr	r3, [r3, #120]	; 0x78
 800159a:	2b00      	cmp	r3, #0
 800159c:	d107      	bne.n	80015ae <HAL_UART_Init+0x2a>
  {
    /* Allocate lock resource and initialize it */
    huart->Lock = HAL_UNLOCKED;
 800159e:	687b      	ldr	r3, [r7, #4]
 80015a0:	2274      	movs	r2, #116	; 0x74
 80015a2:	2100      	movs	r1, #0
 80015a4:	5499      	strb	r1, [r3, r2]

    /* Init the low level hardware */
    huart->MspInitCallback(huart);
#else
    /* Init the low level hardware : GPIO, CLOCK */
    HAL_UART_MspInit(huart);
 80015a6:	687b      	ldr	r3, [r7, #4]
 80015a8:	0018      	movs	r0, r3
 80015aa:	f7fe ff87 	bl	80004bc <HAL_UART_MspInit>
#endif /* (USE_HAL_UART_REGISTER_CALLBACKS) */
  }

  huart->gState = HAL_UART_STATE_BUSY;
 80015ae:	687b      	ldr	r3, [r7, #4]
 80015b0:	2224      	movs	r2, #36	; 0x24
 80015b2:	679a      	str	r2, [r3, #120]	; 0x78

  __HAL_UART_DISABLE(huart);
 80015b4:	687b      	ldr	r3, [r7, #4]
 80015b6:	681b      	ldr	r3, [r3, #0]
 80015b8:	681a      	ldr	r2, [r3, #0]
 80015ba:	687b      	ldr	r3, [r7, #4]
 80015bc:	681b      	ldr	r3, [r3, #0]
 80015be:	2101      	movs	r1, #1
 80015c0:	438a      	bics	r2, r1
 80015c2:	601a      	str	r2, [r3, #0]

  /* Set the UART Communication parameters */
  if (UART_SetConfig(huart) == HAL_ERROR)
 80015c4:	687b      	ldr	r3, [r7, #4]
 80015c6:	0018      	movs	r0, r3
 80015c8:	f000 f830 	bl	800162c <UART_SetConfig>
 80015cc:	0003      	movs	r3, r0
 80015ce:	2b01      	cmp	r3, #1
 80015d0:	d101      	bne.n	80015d6 <HAL_UART_Init+0x52>
  {
    return HAL_ERROR;
 80015d2:	2301      	movs	r3, #1
 80015d4:	e024      	b.n	8001620 <HAL_UART_Init+0x9c>
  }

  if (huart->AdvancedInit.AdvFeatureInit != UART_ADVFEATURE_NO_INIT)
 80015d6:	687b      	ldr	r3, [r7, #4]
 80015d8:	6a5b      	ldr	r3, [r3, #36]	; 0x24
 80015da:	2b00      	cmp	r3, #0
 80015dc:	d003      	beq.n	80015e6 <HAL_UART_Init+0x62>
  {
    UART_AdvFeatureConfig(huart);
 80015de:	687b      	ldr	r3, [r7, #4]
 80015e0:	0018      	movs	r0, r3
 80015e2:	f000 f961 	bl	80018a8 <UART_AdvFeatureConfig>

  /* In asynchronous mode, the following bits must be kept cleared:
  - LINEN (if LIN is supported) and CLKEN bits in the USART_CR2 register,
  - SCEN (if Smartcard is supported), HDSEL and IREN (if IrDA is supported)  bits in the USART_CR3 register.*/
#if defined (USART_CR2_LINEN)
  CLEAR_BIT(huart->Instance->CR2, (USART_CR2_LINEN | USART_CR2_CLKEN));
 80015e6:	687b      	ldr	r3, [r7, #4]
 80015e8:	681b      	ldr	r3, [r3, #0]
 80015ea:	685a      	ldr	r2, [r3, #4]
 80015ec:	687b      	ldr	r3, [r7, #4]
 80015ee:	681b      	ldr	r3, [r3, #0]
 80015f0:	490d      	ldr	r1, [pc, #52]	; (8001628 <HAL_UART_Init+0xa4>)
 80015f2:	400a      	ands	r2, r1
 80015f4:	605a      	str	r2, [r3, #4]
#else
  CLEAR_BIT(huart->Instance->CR2, USART_CR2_CLKEN);
#endif /* USART_CR2_LINEN */
#if defined (USART_CR3_SCEN)
#if defined (USART_CR3_IREN)
  CLEAR_BIT(huart->Instance->CR3, (USART_CR3_SCEN | USART_CR3_HDSEL | USART_CR3_IREN));
 80015f6:	687b      	ldr	r3, [r7, #4]
 80015f8:	681b      	ldr	r3, [r3, #0]
 80015fa:	689a      	ldr	r2, [r3, #8]
 80015fc:	687b      	ldr	r3, [r7, #4]
 80015fe:	681b      	ldr	r3, [r3, #0]
 8001600:	212a      	movs	r1, #42	; 0x2a
 8001602:	438a      	bics	r2, r1
 8001604:	609a      	str	r2, [r3, #8]
#else
  CLEAR_BIT(huart->Instance->CR3, USART_CR3_HDSEL);
#endif /* USART_CR3_IREN*/
#endif /* USART_CR3_SCEN */

  __HAL_UART_ENABLE(huart);
 8001606:	687b      	ldr	r3, [r7, #4]
 8001608:	681b      	ldr	r3, [r3, #0]
 800160a:	681a      	ldr	r2, [r3, #0]
 800160c:	687b      	ldr	r3, [r7, #4]
 800160e:	681b      	ldr	r3, [r3, #0]
 8001610:	2101      	movs	r1, #1
 8001612:	430a      	orrs	r2, r1
 8001614:	601a      	str	r2, [r3, #0]

  /* TEACK and/or REACK to check before moving huart->gState and huart->RxState to Ready */
  return (UART_CheckIdleState(huart));
 8001616:	687b      	ldr	r3, [r7, #4]
 8001618:	0018      	movs	r0, r3
 800161a:	f000 f9f9 	bl	8001a10 <UART_CheckIdleState>
 800161e:	0003      	movs	r3, r0
}
 8001620:	0018      	movs	r0, r3
 8001622:	46bd      	mov	sp, r7
 8001624:	b002      	add	sp, #8
 8001626:	bd80      	pop	{r7, pc}
 8001628:	ffffb7ff 	.word	0xffffb7ff

0800162c <UART_SetConfig>:
  * @brief Configure the UART peripheral.
  * @param huart UART handle.
  * @retval HAL status
  */
HAL_StatusTypeDef UART_SetConfig(UART_HandleTypeDef *huart)
{
 800162c:	b580      	push	{r7, lr}
 800162e:	b088      	sub	sp, #32
 8001630:	af00      	add	r7, sp, #0
 8001632:	6078      	str	r0, [r7, #4]
  uint32_t tmpreg;
  uint16_t brrtemp;
  UART_ClockSourceTypeDef clocksource;
  uint32_t usartdiv;
  HAL_StatusTypeDef ret               = HAL_OK;
 8001634:	231e      	movs	r3, #30
 8001636:	18fb      	adds	r3, r7, r3
 8001638:	2200      	movs	r2, #0
 800163a:	701a      	strb	r2, [r3, #0]
  *  the UART Word Length, Parity, Mode and oversampling:
  *  set the M bits according to huart->Init.WordLength value
  *  set PCE and PS bits according to huart->Init.Parity value
  *  set TE and RE bits according to huart->Init.Mode value
  *  set OVER8 bit according to huart->Init.OverSampling value */
  tmpreg = (uint32_t)huart->Init.WordLength | huart->Init.Parity | huart->Init.Mode | huart->Init.OverSampling ;
 800163c:	687b      	ldr	r3, [r7, #4]
 800163e:	689a      	ldr	r2, [r3, #8]
 8001640:	687b      	ldr	r3, [r7, #4]
 8001642:	691b      	ldr	r3, [r3, #16]
 8001644:	431a      	orrs	r2, r3
 8001646:	687b      	ldr	r3, [r7, #4]
 8001648:	695b      	ldr	r3, [r3, #20]
 800164a:	431a      	orrs	r2, r3
 800164c:	687b      	ldr	r3, [r7, #4]
 800164e:	69db      	ldr	r3, [r3, #28]
 8001650:	4313      	orrs	r3, r2
 8001652:	617b      	str	r3, [r7, #20]
  MODIFY_REG(huart->Instance->CR1, USART_CR1_FIELDS, tmpreg);
 8001654:	687b      	ldr	r3, [r7, #4]
 8001656:	681b      	ldr	r3, [r3, #0]
 8001658:	681b      	ldr	r3, [r3, #0]
 800165a:	4a8b      	ldr	r2, [pc, #556]	; (8001888 <UART_SetConfig+0x25c>)
 800165c:	4013      	ands	r3, r2
 800165e:	0019      	movs	r1, r3
 8001660:	687b      	ldr	r3, [r7, #4]
 8001662:	681b      	ldr	r3, [r3, #0]
 8001664:	697a      	ldr	r2, [r7, #20]
 8001666:	430a      	orrs	r2, r1
 8001668:	601a      	str	r2, [r3, #0]

  /*-------------------------- USART CR2 Configuration -----------------------*/
  /* Configure the UART Stop Bits: Set STOP[13:12] bits according
  * to huart->Init.StopBits value */
  MODIFY_REG(huart->Instance->CR2, USART_CR2_STOP, huart->Init.StopBits);
 800166a:	687b      	ldr	r3, [r7, #4]
 800166c:	681b      	ldr	r3, [r3, #0]
 800166e:	685b      	ldr	r3, [r3, #4]
 8001670:	4a86      	ldr	r2, [pc, #536]	; (800188c <UART_SetConfig+0x260>)
 8001672:	4013      	ands	r3, r2
 8001674:	0019      	movs	r1, r3
 8001676:	687b      	ldr	r3, [r7, #4]
 8001678:	68da      	ldr	r2, [r3, #12]
 800167a:	687b      	ldr	r3, [r7, #4]
 800167c:	681b      	ldr	r3, [r3, #0]
 800167e:	430a      	orrs	r2, r1
 8001680:	605a      	str	r2, [r3, #4]
  /* Configure
  * - UART HardWare Flow Control: set CTSE and RTSE bits according
  *   to huart->Init.HwFlowCtl value
  * - one-bit sampling method versus three samples' majority rule according
  *   to huart->Init.OneBitSampling (not applicable to LPUART) */
  tmpreg = (uint32_t)huart->Init.HwFlowCtl;
 8001682:	687b      	ldr	r3, [r7, #4]
 8001684:	699b      	ldr	r3, [r3, #24]
 8001686:	617b      	str	r3, [r7, #20]

  tmpreg |= huart->Init.OneBitSampling;
 8001688:	687b      	ldr	r3, [r7, #4]
 800168a:	6a1b      	ldr	r3, [r3, #32]
 800168c:	697a      	ldr	r2, [r7, #20]
 800168e:	4313      	orrs	r3, r2
 8001690:	617b      	str	r3, [r7, #20]
  MODIFY_REG(huart->Instance->CR3, USART_CR3_FIELDS, tmpreg);
 8001692:	687b      	ldr	r3, [r7, #4]
 8001694:	681b      	ldr	r3, [r3, #0]
 8001696:	689b      	ldr	r3, [r3, #8]
 8001698:	4a7d      	ldr	r2, [pc, #500]	; (8001890 <UART_SetConfig+0x264>)
 800169a:	4013      	ands	r3, r2
 800169c:	0019      	movs	r1, r3
 800169e:	687b      	ldr	r3, [r7, #4]
 80016a0:	681b      	ldr	r3, [r3, #0]
 80016a2:	697a      	ldr	r2, [r7, #20]
 80016a4:	430a      	orrs	r2, r1
 80016a6:	609a      	str	r2, [r3, #8]


  /*-------------------------- USART BRR Configuration -----------------------*/
  UART_GETCLOCKSOURCE(huart, clocksource);
 80016a8:	687b      	ldr	r3, [r7, #4]
 80016aa:	681b      	ldr	r3, [r3, #0]
 80016ac:	4a79      	ldr	r2, [pc, #484]	; (8001894 <UART_SetConfig+0x268>)
 80016ae:	4293      	cmp	r3, r2
 80016b0:	d125      	bne.n	80016fe <UART_SetConfig+0xd2>
 80016b2:	4b79      	ldr	r3, [pc, #484]	; (8001898 <UART_SetConfig+0x26c>)
 80016b4:	6b1b      	ldr	r3, [r3, #48]	; 0x30
 80016b6:	2203      	movs	r2, #3
 80016b8:	4013      	ands	r3, r2
 80016ba:	2b01      	cmp	r3, #1
 80016bc:	d00f      	beq.n	80016de <UART_SetConfig+0xb2>
 80016be:	d304      	bcc.n	80016ca <UART_SetConfig+0x9e>
 80016c0:	2b02      	cmp	r3, #2
 80016c2:	d011      	beq.n	80016e8 <UART_SetConfig+0xbc>
 80016c4:	2b03      	cmp	r3, #3
 80016c6:	d005      	beq.n	80016d4 <UART_SetConfig+0xa8>
 80016c8:	e013      	b.n	80016f2 <UART_SetConfig+0xc6>
 80016ca:	231f      	movs	r3, #31
 80016cc:	18fb      	adds	r3, r7, r3
 80016ce:	2200      	movs	r2, #0
 80016d0:	701a      	strb	r2, [r3, #0]
 80016d2:	e022      	b.n	800171a <UART_SetConfig+0xee>
 80016d4:	231f      	movs	r3, #31
 80016d6:	18fb      	adds	r3, r7, r3
 80016d8:	2202      	movs	r2, #2
 80016da:	701a      	strb	r2, [r3, #0]
 80016dc:	e01d      	b.n	800171a <UART_SetConfig+0xee>
 80016de:	231f      	movs	r3, #31
 80016e0:	18fb      	adds	r3, r7, r3
 80016e2:	2204      	movs	r2, #4
 80016e4:	701a      	strb	r2, [r3, #0]
 80016e6:	e018      	b.n	800171a <UART_SetConfig+0xee>
 80016e8:	231f      	movs	r3, #31
 80016ea:	18fb      	adds	r3, r7, r3
 80016ec:	2208      	movs	r2, #8
 80016ee:	701a      	strb	r2, [r3, #0]
 80016f0:	e013      	b.n	800171a <UART_SetConfig+0xee>
 80016f2:	231f      	movs	r3, #31
 80016f4:	18fb      	adds	r3, r7, r3
 80016f6:	2210      	movs	r2, #16
 80016f8:	701a      	strb	r2, [r3, #0]
 80016fa:	46c0      	nop			; (mov r8, r8)
 80016fc:	e00d      	b.n	800171a <UART_SetConfig+0xee>
 80016fe:	687b      	ldr	r3, [r7, #4]
 8001700:	681b      	ldr	r3, [r3, #0]
 8001702:	4a66      	ldr	r2, [pc, #408]	; (800189c <UART_SetConfig+0x270>)
 8001704:	4293      	cmp	r3, r2
 8001706:	d104      	bne.n	8001712 <UART_SetConfig+0xe6>
 8001708:	231f      	movs	r3, #31
 800170a:	18fb      	adds	r3, r7, r3
 800170c:	2200      	movs	r2, #0
 800170e:	701a      	strb	r2, [r3, #0]
 8001710:	e003      	b.n	800171a <UART_SetConfig+0xee>
 8001712:	231f      	movs	r3, #31
 8001714:	18fb      	adds	r3, r7, r3
 8001716:	2210      	movs	r2, #16
 8001718:	701a      	strb	r2, [r3, #0]

  if (huart->Init.OverSampling == UART_OVERSAMPLING_8)
 800171a:	687b      	ldr	r3, [r7, #4]
 800171c:	69da      	ldr	r2, [r3, #28]
 800171e:	2380      	movs	r3, #128	; 0x80
 8001720:	021b      	lsls	r3, r3, #8
 8001722:	429a      	cmp	r2, r3
 8001724:	d15c      	bne.n	80017e0 <UART_SetConfig+0x1b4>
  {
    switch (clocksource)
 8001726:	231f      	movs	r3, #31
 8001728:	18fb      	adds	r3, r7, r3
 800172a:	781b      	ldrb	r3, [r3, #0]
 800172c:	2b02      	cmp	r3, #2
 800172e:	d00d      	beq.n	800174c <UART_SetConfig+0x120>
 8001730:	dc02      	bgt.n	8001738 <UART_SetConfig+0x10c>
 8001732:	2b00      	cmp	r3, #0
 8001734:	d005      	beq.n	8001742 <UART_SetConfig+0x116>
 8001736:	e015      	b.n	8001764 <UART_SetConfig+0x138>
 8001738:	2b04      	cmp	r3, #4
 800173a:	d00a      	beq.n	8001752 <UART_SetConfig+0x126>
 800173c:	2b08      	cmp	r3, #8
 800173e:	d00d      	beq.n	800175c <UART_SetConfig+0x130>
 8001740:	e010      	b.n	8001764 <UART_SetConfig+0x138>
    {
      case UART_CLOCKSOURCE_PCLK1:
        pclk = HAL_RCC_GetPCLK1Freq();
 8001742:	f7ff ff09 	bl	8001558 <HAL_RCC_GetPCLK1Freq>
 8001746:	0003      	movs	r3, r0
 8001748:	61bb      	str	r3, [r7, #24]
        break;
 800174a:	e012      	b.n	8001772 <UART_SetConfig+0x146>
      case UART_CLOCKSOURCE_HSI:
        pclk = (uint32_t) HSI_VALUE;
 800174c:	4b54      	ldr	r3, [pc, #336]	; (80018a0 <UART_SetConfig+0x274>)
 800174e:	61bb      	str	r3, [r7, #24]
        break;
 8001750:	e00f      	b.n	8001772 <UART_SetConfig+0x146>
      case UART_CLOCKSOURCE_SYSCLK:
        pclk = HAL_RCC_GetSysClockFreq();
 8001752:	f7ff fe79 	bl	8001448 <HAL_RCC_GetSysClockFreq>
 8001756:	0003      	movs	r3, r0
 8001758:	61bb      	str	r3, [r7, #24]
        break;
 800175a:	e00a      	b.n	8001772 <UART_SetConfig+0x146>
      case UART_CLOCKSOURCE_LSE:
        pclk = (uint32_t) LSE_VALUE;
 800175c:	2380      	movs	r3, #128	; 0x80
 800175e:	021b      	lsls	r3, r3, #8
 8001760:	61bb      	str	r3, [r7, #24]
        break;
 8001762:	e006      	b.n	8001772 <UART_SetConfig+0x146>
      default:
        pclk = 0U;
 8001764:	2300      	movs	r3, #0
 8001766:	61bb      	str	r3, [r7, #24]
        ret = HAL_ERROR;
 8001768:	231e      	movs	r3, #30
 800176a:	18fb      	adds	r3, r7, r3
 800176c:	2201      	movs	r2, #1
 800176e:	701a      	strb	r2, [r3, #0]
        break;
 8001770:	46c0      	nop			; (mov r8, r8)
    }

    /* USARTDIV must be greater than or equal to 0d16 */
    if (pclk != 0U)
 8001772:	69bb      	ldr	r3, [r7, #24]
 8001774:	2b00      	cmp	r3, #0
 8001776:	d100      	bne.n	800177a <UART_SetConfig+0x14e>
 8001778:	e079      	b.n	800186e <UART_SetConfig+0x242>
    {
      usartdiv = (uint16_t)(UART_DIV_SAMPLING8(pclk, huart->Init.BaudRate));
 800177a:	69bb      	ldr	r3, [r7, #24]
 800177c:	005a      	lsls	r2, r3, #1
 800177e:	687b      	ldr	r3, [r7, #4]
 8001780:	685b      	ldr	r3, [r3, #4]
 8001782:	085b      	lsrs	r3, r3, #1
 8001784:	18d2      	adds	r2, r2, r3
 8001786:	687b      	ldr	r3, [r7, #4]
 8001788:	685b      	ldr	r3, [r3, #4]
 800178a:	0019      	movs	r1, r3
 800178c:	0010      	movs	r0, r2
 800178e:	f7fe fcbb 	bl	8000108 <__udivsi3>
 8001792:	0003      	movs	r3, r0
 8001794:	b29b      	uxth	r3, r3
 8001796:	613b      	str	r3, [r7, #16]
      if ((usartdiv >= UART_BRR_MIN) && (usartdiv <= UART_BRR_MAX))
 8001798:	693b      	ldr	r3, [r7, #16]
 800179a:	2b0f      	cmp	r3, #15
 800179c:	d91b      	bls.n	80017d6 <UART_SetConfig+0x1aa>
 800179e:	693b      	ldr	r3, [r7, #16]
 80017a0:	4a40      	ldr	r2, [pc, #256]	; (80018a4 <UART_SetConfig+0x278>)
 80017a2:	4293      	cmp	r3, r2
 80017a4:	d817      	bhi.n	80017d6 <UART_SetConfig+0x1aa>
      {
        brrtemp = (uint16_t)(usartdiv & 0xFFF0U);
 80017a6:	693b      	ldr	r3, [r7, #16]
 80017a8:	b29a      	uxth	r2, r3
 80017aa:	200e      	movs	r0, #14
 80017ac:	183b      	adds	r3, r7, r0
 80017ae:	210f      	movs	r1, #15
 80017b0:	438a      	bics	r2, r1
 80017b2:	801a      	strh	r2, [r3, #0]
        brrtemp |= (uint16_t)((usartdiv & (uint16_t)0x000FU) >> 1U);
 80017b4:	693b      	ldr	r3, [r7, #16]
 80017b6:	085b      	lsrs	r3, r3, #1
 80017b8:	b29b      	uxth	r3, r3
 80017ba:	2207      	movs	r2, #7
 80017bc:	4013      	ands	r3, r2
 80017be:	b299      	uxth	r1, r3
 80017c0:	183b      	adds	r3, r7, r0
 80017c2:	183a      	adds	r2, r7, r0
 80017c4:	8812      	ldrh	r2, [r2, #0]
 80017c6:	430a      	orrs	r2, r1
 80017c8:	801a      	strh	r2, [r3, #0]
        huart->Instance->BRR = brrtemp;
 80017ca:	687b      	ldr	r3, [r7, #4]
 80017cc:	681b      	ldr	r3, [r3, #0]
 80017ce:	183a      	adds	r2, r7, r0
 80017d0:	8812      	ldrh	r2, [r2, #0]
 80017d2:	60da      	str	r2, [r3, #12]
 80017d4:	e04b      	b.n	800186e <UART_SetConfig+0x242>
      }
      else
      {
        ret = HAL_ERROR;
 80017d6:	231e      	movs	r3, #30
 80017d8:	18fb      	adds	r3, r7, r3
 80017da:	2201      	movs	r2, #1
 80017dc:	701a      	strb	r2, [r3, #0]
 80017de:	e046      	b.n	800186e <UART_SetConfig+0x242>
      }
    }
  }
  else
  {
    switch (clocksource)
 80017e0:	231f      	movs	r3, #31
 80017e2:	18fb      	adds	r3, r7, r3
 80017e4:	781b      	ldrb	r3, [r3, #0]
 80017e6:	2b02      	cmp	r3, #2
 80017e8:	d00d      	beq.n	8001806 <UART_SetConfig+0x1da>
 80017ea:	dc02      	bgt.n	80017f2 <UART_SetConfig+0x1c6>
 80017ec:	2b00      	cmp	r3, #0
 80017ee:	d005      	beq.n	80017fc <UART_SetConfig+0x1d0>
 80017f0:	e015      	b.n	800181e <UART_SetConfig+0x1f2>
 80017f2:	2b04      	cmp	r3, #4
 80017f4:	d00a      	beq.n	800180c <UART_SetConfig+0x1e0>
 80017f6:	2b08      	cmp	r3, #8
 80017f8:	d00d      	beq.n	8001816 <UART_SetConfig+0x1ea>
 80017fa:	e010      	b.n	800181e <UART_SetConfig+0x1f2>
    {
      case UART_CLOCKSOURCE_PCLK1:
        pclk = HAL_RCC_GetPCLK1Freq();
 80017fc:	f7ff feac 	bl	8001558 <HAL_RCC_GetPCLK1Freq>
 8001800:	0003      	movs	r3, r0
 8001802:	61bb      	str	r3, [r7, #24]
        break;
 8001804:	e012      	b.n	800182c <UART_SetConfig+0x200>
      case UART_CLOCKSOURCE_HSI:
        pclk = (uint32_t) HSI_VALUE;
 8001806:	4b26      	ldr	r3, [pc, #152]	; (80018a0 <UART_SetConfig+0x274>)
 8001808:	61bb      	str	r3, [r7, #24]
        break;
 800180a:	e00f      	b.n	800182c <UART_SetConfig+0x200>
      case UART_CLOCKSOURCE_SYSCLK:
        pclk = HAL_RCC_GetSysClockFreq();
 800180c:	f7ff fe1c 	bl	8001448 <HAL_RCC_GetSysClockFreq>
 8001810:	0003      	movs	r3, r0
 8001812:	61bb      	str	r3, [r7, #24]
        break;
 8001814:	e00a      	b.n	800182c <UART_SetConfig+0x200>
      case UART_CLOCKSOURCE_LSE:
        pclk = (uint32_t) LSE_VALUE;
 8001816:	2380      	movs	r3, #128	; 0x80
 8001818:	021b      	lsls	r3, r3, #8
 800181a:	61bb      	str	r3, [r7, #24]
        break;
 800181c:	e006      	b.n	800182c <UART_SetConfig+0x200>
      default:
        pclk = 0U;
 800181e:	2300      	movs	r3, #0
 8001820:	61bb      	str	r3, [r7, #24]
        ret = HAL_ERROR;
 8001822:	231e      	movs	r3, #30
 8001824:	18fb      	adds	r3, r7, r3
 8001826:	2201      	movs	r2, #1
 8001828:	701a      	strb	r2, [r3, #0]
        break;
 800182a:	46c0      	nop			; (mov r8, r8)
    }

    if (pclk != 0U)
 800182c:	69bb      	ldr	r3, [r7, #24]
 800182e:	2b00      	cmp	r3, #0
 8001830:	d01d      	beq.n	800186e <UART_SetConfig+0x242>
    {
      /* USARTDIV must be greater than or equal to 0d16 */
      usartdiv = (uint16_t)(UART_DIV_SAMPLING16(pclk, huart->Init.BaudRate));
 8001832:	687b      	ldr	r3, [r7, #4]
 8001834:	685b      	ldr	r3, [r3, #4]
 8001836:	085a      	lsrs	r2, r3, #1
 8001838:	69bb      	ldr	r3, [r7, #24]
 800183a:	18d2      	adds	r2, r2, r3
 800183c:	687b      	ldr	r3, [r7, #4]
 800183e:	685b      	ldr	r3, [r3, #4]
 8001840:	0019      	movs	r1, r3
 8001842:	0010      	movs	r0, r2
 8001844:	f7fe fc60 	bl	8000108 <__udivsi3>
 8001848:	0003      	movs	r3, r0
 800184a:	b29b      	uxth	r3, r3
 800184c:	613b      	str	r3, [r7, #16]
      if ((usartdiv >= UART_BRR_MIN) && (usartdiv <= UART_BRR_MAX))
 800184e:	693b      	ldr	r3, [r7, #16]
 8001850:	2b0f      	cmp	r3, #15
 8001852:	d908      	bls.n	8001866 <UART_SetConfig+0x23a>
 8001854:	693b      	ldr	r3, [r7, #16]
 8001856:	4a13      	ldr	r2, [pc, #76]	; (80018a4 <UART_SetConfig+0x278>)
 8001858:	4293      	cmp	r3, r2
 800185a:	d804      	bhi.n	8001866 <UART_SetConfig+0x23a>
      {
        huart->Instance->BRR = usartdiv;
 800185c:	687b      	ldr	r3, [r7, #4]
 800185e:	681b      	ldr	r3, [r3, #0]
 8001860:	693a      	ldr	r2, [r7, #16]
 8001862:	60da      	str	r2, [r3, #12]
 8001864:	e003      	b.n	800186e <UART_SetConfig+0x242>
      }
      else
      {
        ret = HAL_ERROR;
 8001866:	231e      	movs	r3, #30
 8001868:	18fb      	adds	r3, r7, r3
 800186a:	2201      	movs	r2, #1
 800186c:	701a      	strb	r2, [r3, #0]
    }
  }


  /* Clear ISR function pointers */
  huart->RxISR = NULL;
 800186e:	687b      	ldr	r3, [r7, #4]
 8001870:	2200      	movs	r2, #0
 8001872:	665a      	str	r2, [r3, #100]	; 0x64
  huart->TxISR = NULL;
 8001874:	687b      	ldr	r3, [r7, #4]
 8001876:	2200      	movs	r2, #0
 8001878:	669a      	str	r2, [r3, #104]	; 0x68

  return ret;
 800187a:	231e      	movs	r3, #30
 800187c:	18fb      	adds	r3, r7, r3
 800187e:	781b      	ldrb	r3, [r3, #0]
}
 8001880:	0018      	movs	r0, r3
 8001882:	46bd      	mov	sp, r7
 8001884:	b008      	add	sp, #32
 8001886:	bd80      	pop	{r7, pc}
 8001888:	efff69f3 	.word	0xefff69f3
 800188c:	ffffcfff 	.word	0xffffcfff
 8001890:	fffff4ff 	.word	0xfffff4ff
 8001894:	40013800 	.word	0x40013800
 8001898:	40021000 	.word	0x40021000
 800189c:	40004400 	.word	0x40004400
 80018a0:	007a1200 	.word	0x007a1200
 80018a4:	0000ffff 	.word	0x0000ffff

080018a8 <UART_AdvFeatureConfig>:
  * @brief Configure the UART peripheral advanced features.
  * @param huart UART handle.
  * @retval None
  */
void UART_AdvFeatureConfig(UART_HandleTypeDef *huart)
{
 80018a8:	b580      	push	{r7, lr}
 80018aa:	b082      	sub	sp, #8
 80018ac:	af00      	add	r7, sp, #0
 80018ae:	6078      	str	r0, [r7, #4]
  /* Check whether the set of advanced features to configure is properly set */
  assert_param(IS_UART_ADVFEATURE_INIT(huart->AdvancedInit.AdvFeatureInit));

  /* if required, configure TX pin active level inversion */
  if (HAL_IS_BIT_SET(huart->AdvancedInit.AdvFeatureInit, UART_ADVFEATURE_TXINVERT_INIT))
 80018b0:	687b      	ldr	r3, [r7, #4]
 80018b2:	6a5b      	ldr	r3, [r3, #36]	; 0x24
 80018b4:	2201      	movs	r2, #1
 80018b6:	4013      	ands	r3, r2
 80018b8:	d00b      	beq.n	80018d2 <UART_AdvFeatureConfig+0x2a>
  {
    assert_param(IS_UART_ADVFEATURE_TXINV(huart->AdvancedInit.TxPinLevelInvert));
    MODIFY_REG(huart->Instance->CR2, USART_CR2_TXINV, huart->AdvancedInit.TxPinLevelInvert);
 80018ba:	687b      	ldr	r3, [r7, #4]
 80018bc:	681b      	ldr	r3, [r3, #0]
 80018be:	685b      	ldr	r3, [r3, #4]
 80018c0:	4a4a      	ldr	r2, [pc, #296]	; (80019ec <UART_AdvFeatureConfig+0x144>)
 80018c2:	4013      	ands	r3, r2
 80018c4:	0019      	movs	r1, r3
 80018c6:	687b      	ldr	r3, [r7, #4]
 80018c8:	6a9a      	ldr	r2, [r3, #40]	; 0x28
 80018ca:	687b      	ldr	r3, [r7, #4]
 80018cc:	681b      	ldr	r3, [r3, #0]
 80018ce:	430a      	orrs	r2, r1
 80018d0:	605a      	str	r2, [r3, #4]
  }

  /* if required, configure RX pin active level inversion */
  if (HAL_IS_BIT_SET(huart->AdvancedInit.AdvFeatureInit, UART_ADVFEATURE_RXINVERT_INIT))
 80018d2:	687b      	ldr	r3, [r7, #4]
 80018d4:	6a5b      	ldr	r3, [r3, #36]	; 0x24
 80018d6:	2202      	movs	r2, #2
 80018d8:	4013      	ands	r3, r2
 80018da:	d00b      	beq.n	80018f4 <UART_AdvFeatureConfig+0x4c>
  {
    assert_param(IS_UART_ADVFEATURE_RXINV(huart->AdvancedInit.RxPinLevelInvert));
    MODIFY_REG(huart->Instance->CR2, USART_CR2_RXINV, huart->AdvancedInit.RxPinLevelInvert);
 80018dc:	687b      	ldr	r3, [r7, #4]
 80018de:	681b      	ldr	r3, [r3, #0]
 80018e0:	685b      	ldr	r3, [r3, #4]
 80018e2:	4a43      	ldr	r2, [pc, #268]	; (80019f0 <UART_AdvFeatureConfig+0x148>)
 80018e4:	4013      	ands	r3, r2
 80018e6:	0019      	movs	r1, r3
 80018e8:	687b      	ldr	r3, [r7, #4]
 80018ea:	6ada      	ldr	r2, [r3, #44]	; 0x2c
 80018ec:	687b      	ldr	r3, [r7, #4]
 80018ee:	681b      	ldr	r3, [r3, #0]
 80018f0:	430a      	orrs	r2, r1
 80018f2:	605a      	str	r2, [r3, #4]
  }

  /* if required, configure data inversion */
  if (HAL_IS_BIT_SET(huart->AdvancedInit.AdvFeatureInit, UART_ADVFEATURE_DATAINVERT_INIT))
 80018f4:	687b      	ldr	r3, [r7, #4]
 80018f6:	6a5b      	ldr	r3, [r3, #36]	; 0x24
 80018f8:	2204      	movs	r2, #4
 80018fa:	4013      	ands	r3, r2
 80018fc:	d00b      	beq.n	8001916 <UART_AdvFeatureConfig+0x6e>
  {
    assert_param(IS_UART_ADVFEATURE_DATAINV(huart->AdvancedInit.DataInvert));
    MODIFY_REG(huart->Instance->CR2, USART_CR2_DATAINV, huart->AdvancedInit.DataInvert);
 80018fe:	687b      	ldr	r3, [r7, #4]
 8001900:	681b      	ldr	r3, [r3, #0]
 8001902:	685b      	ldr	r3, [r3, #4]
 8001904:	4a3b      	ldr	r2, [pc, #236]	; (80019f4 <UART_AdvFeatureConfig+0x14c>)
 8001906:	4013      	ands	r3, r2
 8001908:	0019      	movs	r1, r3
 800190a:	687b      	ldr	r3, [r7, #4]
 800190c:	6b1a      	ldr	r2, [r3, #48]	; 0x30
 800190e:	687b      	ldr	r3, [r7, #4]
 8001910:	681b      	ldr	r3, [r3, #0]
 8001912:	430a      	orrs	r2, r1
 8001914:	605a      	str	r2, [r3, #4]
  }

  /* if required, configure RX/TX pins swap */
  if (HAL_IS_BIT_SET(huart->AdvancedInit.AdvFeatureInit, UART_ADVFEATURE_SWAP_INIT))
 8001916:	687b      	ldr	r3, [r7, #4]
 8001918:	6a5b      	ldr	r3, [r3, #36]	; 0x24
 800191a:	2208      	movs	r2, #8
 800191c:	4013      	ands	r3, r2
 800191e:	d00b      	beq.n	8001938 <UART_AdvFeatureConfig+0x90>
  {
    assert_param(IS_UART_ADVFEATURE_SWAP(huart->AdvancedInit.Swap));
    MODIFY_REG(huart->Instance->CR2, USART_CR2_SWAP, huart->AdvancedInit.Swap);
 8001920:	687b      	ldr	r3, [r7, #4]
 8001922:	681b      	ldr	r3, [r3, #0]
 8001924:	685b      	ldr	r3, [r3, #4]
 8001926:	4a34      	ldr	r2, [pc, #208]	; (80019f8 <UART_AdvFeatureConfig+0x150>)
 8001928:	4013      	ands	r3, r2
 800192a:	0019      	movs	r1, r3
 800192c:	687b      	ldr	r3, [r7, #4]
 800192e:	6b5a      	ldr	r2, [r3, #52]	; 0x34
 8001930:	687b      	ldr	r3, [r7, #4]
 8001932:	681b      	ldr	r3, [r3, #0]
 8001934:	430a      	orrs	r2, r1
 8001936:	605a      	str	r2, [r3, #4]
  }

  /* if required, configure RX overrun detection disabling */
  if (HAL_IS_BIT_SET(huart->AdvancedInit.AdvFeatureInit, UART_ADVFEATURE_RXOVERRUNDISABLE_INIT))
 8001938:	687b      	ldr	r3, [r7, #4]
 800193a:	6a5b      	ldr	r3, [r3, #36]	; 0x24
 800193c:	2210      	movs	r2, #16
 800193e:	4013      	ands	r3, r2
 8001940:	d00b      	beq.n	800195a <UART_AdvFeatureConfig+0xb2>
  {
    assert_param(IS_UART_OVERRUN(huart->AdvancedInit.OverrunDisable));
    MODIFY_REG(huart->Instance->CR3, USART_CR3_OVRDIS, huart->AdvancedInit.OverrunDisable);
 8001942:	687b      	ldr	r3, [r7, #4]
 8001944:	681b      	ldr	r3, [r3, #0]
 8001946:	689b      	ldr	r3, [r3, #8]
 8001948:	4a2c      	ldr	r2, [pc, #176]	; (80019fc <UART_AdvFeatureConfig+0x154>)
 800194a:	4013      	ands	r3, r2
 800194c:	0019      	movs	r1, r3
 800194e:	687b      	ldr	r3, [r7, #4]
 8001950:	6b9a      	ldr	r2, [r3, #56]	; 0x38
 8001952:	687b      	ldr	r3, [r7, #4]
 8001954:	681b      	ldr	r3, [r3, #0]
 8001956:	430a      	orrs	r2, r1
 8001958:	609a      	str	r2, [r3, #8]
  }

  /* if required, configure DMA disabling on reception error */
  if (HAL_IS_BIT_SET(huart->AdvancedInit.AdvFeatureInit, UART_ADVFEATURE_DMADISABLEONERROR_INIT))
 800195a:	687b      	ldr	r3, [r7, #4]
 800195c:	6a5b      	ldr	r3, [r3, #36]	; 0x24
 800195e:	2220      	movs	r2, #32
 8001960:	4013      	ands	r3, r2
 8001962:	d00b      	beq.n	800197c <UART_AdvFeatureConfig+0xd4>
  {
    assert_param(IS_UART_ADVFEATURE_DMAONRXERROR(huart->AdvancedInit.DMADisableonRxError));
    MODIFY_REG(huart->Instance->CR3, USART_CR3_DDRE, huart->AdvancedInit.DMADisableonRxError);
 8001964:	687b      	ldr	r3, [r7, #4]
 8001966:	681b      	ldr	r3, [r3, #0]
 8001968:	689b      	ldr	r3, [r3, #8]
 800196a:	4a25      	ldr	r2, [pc, #148]	; (8001a00 <UART_AdvFeatureConfig+0x158>)
 800196c:	4013      	ands	r3, r2
 800196e:	0019      	movs	r1, r3
 8001970:	687b      	ldr	r3, [r7, #4]
 8001972:	6bda      	ldr	r2, [r3, #60]	; 0x3c
 8001974:	687b      	ldr	r3, [r7, #4]
 8001976:	681b      	ldr	r3, [r3, #0]
 8001978:	430a      	orrs	r2, r1
 800197a:	609a      	str	r2, [r3, #8]
  }

  /* if required, configure auto Baud rate detection scheme */
  if (HAL_IS_BIT_SET(huart->AdvancedInit.AdvFeatureInit, UART_ADVFEATURE_AUTOBAUDRATE_INIT))
 800197c:	687b      	ldr	r3, [r7, #4]
 800197e:	6a5b      	ldr	r3, [r3, #36]	; 0x24
 8001980:	2240      	movs	r2, #64	; 0x40
 8001982:	4013      	ands	r3, r2
 8001984:	d01d      	beq.n	80019c2 <UART_AdvFeatureConfig+0x11a>
  {
    assert_param(IS_USART_AUTOBAUDRATE_DETECTION_INSTANCE(huart->Instance));
    assert_param(IS_UART_ADVFEATURE_AUTOBAUDRATE(huart->AdvancedInit.AutoBaudRateEnable));
    MODIFY_REG(huart->Instance->CR2, USART_CR2_ABREN, huart->AdvancedInit.AutoBaudRateEnable);
 8001986:	687b      	ldr	r3, [r7, #4]
 8001988:	681b      	ldr	r3, [r3, #0]
 800198a:	685b      	ldr	r3, [r3, #4]
 800198c:	4a1d      	ldr	r2, [pc, #116]	; (8001a04 <UART_AdvFeatureConfig+0x15c>)
 800198e:	4013      	ands	r3, r2
 8001990:	0019      	movs	r1, r3
 8001992:	687b      	ldr	r3, [r7, #4]
 8001994:	6c1a      	ldr	r2, [r3, #64]	; 0x40
 8001996:	687b      	ldr	r3, [r7, #4]
 8001998:	681b      	ldr	r3, [r3, #0]
 800199a:	430a      	orrs	r2, r1
 800199c:	605a      	str	r2, [r3, #4]
    /* set auto Baudrate detection parameters if detection is enabled */
    if (huart->AdvancedInit.AutoBaudRateEnable == UART_ADVFEATURE_AUTOBAUDRATE_ENABLE)
 800199e:	687b      	ldr	r3, [r7, #4]
 80019a0:	6c1a      	ldr	r2, [r3, #64]	; 0x40
 80019a2:	2380      	movs	r3, #128	; 0x80
 80019a4:	035b      	lsls	r3, r3, #13
 80019a6:	429a      	cmp	r2, r3
 80019a8:	d10b      	bne.n	80019c2 <UART_AdvFeatureConfig+0x11a>
    {
      assert_param(IS_UART_ADVFEATURE_AUTOBAUDRATEMODE(huart->AdvancedInit.AutoBaudRateMode));
      MODIFY_REG(huart->Instance->CR2, USART_CR2_ABRMODE, huart->AdvancedInit.AutoBaudRateMode);
 80019aa:	687b      	ldr	r3, [r7, #4]
 80019ac:	681b      	ldr	r3, [r3, #0]
 80019ae:	685b      	ldr	r3, [r3, #4]
 80019b0:	4a15      	ldr	r2, [pc, #84]	; (8001a08 <UART_AdvFeatureConfig+0x160>)
 80019b2:	4013      	ands	r3, r2
 80019b4:	0019      	movs	r1, r3
 80019b6:	687b      	ldr	r3, [r7, #4]
 80019b8:	6c5a      	ldr	r2, [r3, #68]	; 0x44
 80019ba:	687b      	ldr	r3, [r7, #4]
 80019bc:	681b      	ldr	r3, [r3, #0]
 80019be:	430a      	orrs	r2, r1
 80019c0:	605a      	str	r2, [r3, #4]
    }
  }

  /* if required, configure MSB first on communication line */
  if (HAL_IS_BIT_SET(huart->AdvancedInit.AdvFeatureInit, UART_ADVFEATURE_MSBFIRST_INIT))
 80019c2:	687b      	ldr	r3, [r7, #4]
 80019c4:	6a5b      	ldr	r3, [r3, #36]	; 0x24
 80019c6:	2280      	movs	r2, #128	; 0x80
 80019c8:	4013      	ands	r3, r2
 80019ca:	d00b      	beq.n	80019e4 <UART_AdvFeatureConfig+0x13c>
  {
    assert_param(IS_UART_ADVFEATURE_MSBFIRST(huart->AdvancedInit.MSBFirst));
    MODIFY_REG(huart->Instance->CR2, USART_CR2_MSBFIRST, huart->AdvancedInit.MSBFirst);
 80019cc:	687b      	ldr	r3, [r7, #4]
 80019ce:	681b      	ldr	r3, [r3, #0]
 80019d0:	685b      	ldr	r3, [r3, #4]
 80019d2:	4a0e      	ldr	r2, [pc, #56]	; (8001a0c <UART_AdvFeatureConfig+0x164>)
 80019d4:	4013      	ands	r3, r2
 80019d6:	0019      	movs	r1, r3
 80019d8:	687b      	ldr	r3, [r7, #4]
 80019da:	6c9a      	ldr	r2, [r3, #72]	; 0x48
 80019dc:	687b      	ldr	r3, [r7, #4]
 80019de:	681b      	ldr	r3, [r3, #0]
 80019e0:	430a      	orrs	r2, r1
 80019e2:	605a      	str	r2, [r3, #4]
  }
}
 80019e4:	46c0      	nop			; (mov r8, r8)
 80019e6:	46bd      	mov	sp, r7
 80019e8:	b002      	add	sp, #8
 80019ea:	bd80      	pop	{r7, pc}
 80019ec:	fffdffff 	.word	0xfffdffff
 80019f0:	fffeffff 	.word	0xfffeffff
 80019f4:	fffbffff 	.word	0xfffbffff
 80019f8:	ffff7fff 	.word	0xffff7fff
 80019fc:	ffffefff 	.word	0xffffefff
 8001a00:	ffffdfff 	.word	0xffffdfff
 8001a04:	ffefffff 	.word	0xffefffff
 8001a08:	ff9fffff 	.word	0xff9fffff
 8001a0c:	fff7ffff 	.word	0xfff7ffff

08001a10 <UART_CheckIdleState>:
  * @brief Check the UART Idle State.
  * @param huart UART handle.
  * @retval HAL status
  */
HAL_StatusTypeDef UART_CheckIdleState(UART_HandleTypeDef *huart)
{
 8001a10:	b580      	push	{r7, lr}
 8001a12:	b086      	sub	sp, #24
 8001a14:	af02      	add	r7, sp, #8
 8001a16:	6078      	str	r0, [r7, #4]
  uint32_t tickstart;

  /* Initialize the UART ErrorCode */
  huart->ErrorCode = HAL_UART_ERROR_NONE;
 8001a18:	687b      	ldr	r3, [r7, #4]
 8001a1a:	2280      	movs	r2, #128	; 0x80
 8001a1c:	2100      	movs	r1, #0
 8001a1e:	5099      	str	r1, [r3, r2]

  /* Init tickstart for timeout management */
  tickstart = HAL_GetTick();
 8001a20:	f7fe fe52 	bl	80006c8 <HAL_GetTick>
 8001a24:	0003      	movs	r3, r0
 8001a26:	60fb      	str	r3, [r7, #12]

  /* Check if the Transmitter is enabled */
  if ((huart->Instance->CR1 & USART_CR1_TE) == USART_CR1_TE)
 8001a28:	687b      	ldr	r3, [r7, #4]
 8001a2a:	681b      	ldr	r3, [r3, #0]
 8001a2c:	681b      	ldr	r3, [r3, #0]
 8001a2e:	2208      	movs	r2, #8
 8001a30:	4013      	ands	r3, r2
 8001a32:	2b08      	cmp	r3, #8
 8001a34:	d10d      	bne.n	8001a52 <UART_CheckIdleState+0x42>
  {
    /* Wait until TEACK flag is set */
    if (UART_WaitOnFlagUntilTimeout(huart, USART_ISR_TEACK, RESET, tickstart, HAL_UART_TIMEOUT_VALUE) != HAL_OK)
 8001a36:	68fa      	ldr	r2, [r7, #12]
 8001a38:	2380      	movs	r3, #128	; 0x80
 8001a3a:	0399      	lsls	r1, r3, #14
 8001a3c:	6878      	ldr	r0, [r7, #4]
 8001a3e:	4b18      	ldr	r3, [pc, #96]	; (8001aa0 <UART_CheckIdleState+0x90>)
 8001a40:	9300      	str	r3, [sp, #0]
 8001a42:	0013      	movs	r3, r2
 8001a44:	2200      	movs	r2, #0
 8001a46:	f000 f82d 	bl	8001aa4 <UART_WaitOnFlagUntilTimeout>
 8001a4a:	1e03      	subs	r3, r0, #0
 8001a4c:	d001      	beq.n	8001a52 <UART_CheckIdleState+0x42>
    {
      /* Timeout occurred */
      return HAL_TIMEOUT;
 8001a4e:	2303      	movs	r3, #3
 8001a50:	e022      	b.n	8001a98 <UART_CheckIdleState+0x88>
    }
  }

  /* Check if the Receiver is enabled */
  if ((huart->Instance->CR1 & USART_CR1_RE) == USART_CR1_RE)
 8001a52:	687b      	ldr	r3, [r7, #4]
 8001a54:	681b      	ldr	r3, [r3, #0]
 8001a56:	681b      	ldr	r3, [r3, #0]
 8001a58:	2204      	movs	r2, #4
 8001a5a:	4013      	ands	r3, r2
 8001a5c:	2b04      	cmp	r3, #4
 8001a5e:	d10d      	bne.n	8001a7c <UART_CheckIdleState+0x6c>
  {
    /* Wait until REACK flag is set */
    if (UART_WaitOnFlagUntilTimeout(huart, USART_ISR_REACK, RESET, tickstart, HAL_UART_TIMEOUT_VALUE) != HAL_OK)
 8001a60:	68fa      	ldr	r2, [r7, #12]
 8001a62:	2380      	movs	r3, #128	; 0x80
 8001a64:	03d9      	lsls	r1, r3, #15
 8001a66:	6878      	ldr	r0, [r7, #4]
 8001a68:	4b0d      	ldr	r3, [pc, #52]	; (8001aa0 <UART_CheckIdleState+0x90>)
 8001a6a:	9300      	str	r3, [sp, #0]
 8001a6c:	0013      	movs	r3, r2
 8001a6e:	2200      	movs	r2, #0
 8001a70:	f000 f818 	bl	8001aa4 <UART_WaitOnFlagUntilTimeout>
 8001a74:	1e03      	subs	r3, r0, #0
 8001a76:	d001      	beq.n	8001a7c <UART_CheckIdleState+0x6c>
    {
      /* Timeout occurred */
      return HAL_TIMEOUT;
 8001a78:	2303      	movs	r3, #3
 8001a7a:	e00d      	b.n	8001a98 <UART_CheckIdleState+0x88>
    }
  }

  /* Initialize the UART State */
  huart->gState = HAL_UART_STATE_READY;
 8001a7c:	687b      	ldr	r3, [r7, #4]
 8001a7e:	2220      	movs	r2, #32
 8001a80:	679a      	str	r2, [r3, #120]	; 0x78
  huart->RxState = HAL_UART_STATE_READY;
 8001a82:	687b      	ldr	r3, [r7, #4]
 8001a84:	2220      	movs	r2, #32
 8001a86:	67da      	str	r2, [r3, #124]	; 0x7c
  huart->ReceptionType = HAL_UART_RECEPTION_STANDARD;
 8001a88:	687b      	ldr	r3, [r7, #4]
 8001a8a:	2200      	movs	r2, #0
 8001a8c:	661a      	str	r2, [r3, #96]	; 0x60

  __HAL_UNLOCK(huart);
 8001a8e:	687b      	ldr	r3, [r7, #4]
 8001a90:	2274      	movs	r2, #116	; 0x74
 8001a92:	2100      	movs	r1, #0
 8001a94:	5499      	strb	r1, [r3, r2]

  return HAL_OK;
 8001a96:	2300      	movs	r3, #0
}
 8001a98:	0018      	movs	r0, r3
 8001a9a:	46bd      	mov	sp, r7
 8001a9c:	b004      	add	sp, #16
 8001a9e:	bd80      	pop	{r7, pc}
 8001aa0:	01ffffff 	.word	0x01ffffff

08001aa4 <UART_WaitOnFlagUntilTimeout>:
  * @param Timeout   Timeout duration
  * @retval HAL status
  */
HAL_StatusTypeDef UART_WaitOnFlagUntilTimeout(UART_HandleTypeDef *huart, uint32_t Flag, FlagStatus Status,
                                              uint32_t Tickstart, uint32_t Timeout)
{
 8001aa4:	b580      	push	{r7, lr}
 8001aa6:	b084      	sub	sp, #16
 8001aa8:	af00      	add	r7, sp, #0
 8001aaa:	60f8      	str	r0, [r7, #12]
 8001aac:	60b9      	str	r1, [r7, #8]
 8001aae:	603b      	str	r3, [r7, #0]
 8001ab0:	1dfb      	adds	r3, r7, #7
 8001ab2:	701a      	strb	r2, [r3, #0]
  /* Wait until flag is set */
  while ((__HAL_UART_GET_FLAG(huart, Flag) ? SET : RESET) == Status)
 8001ab4:	e05e      	b.n	8001b74 <UART_WaitOnFlagUntilTimeout+0xd0>
  {
    /* Check for the Timeout */
    if (Timeout != HAL_MAX_DELAY)
 8001ab6:	69bb      	ldr	r3, [r7, #24]
 8001ab8:	3301      	adds	r3, #1
 8001aba:	d05b      	beq.n	8001b74 <UART_WaitOnFlagUntilTimeout+0xd0>
    {
      if (((HAL_GetTick() - Tickstart) > Timeout) || (Timeout == 0U))
 8001abc:	f7fe fe04 	bl	80006c8 <HAL_GetTick>
 8001ac0:	0002      	movs	r2, r0
 8001ac2:	683b      	ldr	r3, [r7, #0]
 8001ac4:	1ad3      	subs	r3, r2, r3
 8001ac6:	69ba      	ldr	r2, [r7, #24]
 8001ac8:	429a      	cmp	r2, r3
 8001aca:	d302      	bcc.n	8001ad2 <UART_WaitOnFlagUntilTimeout+0x2e>
 8001acc:	69bb      	ldr	r3, [r7, #24]
 8001ace:	2b00      	cmp	r3, #0
 8001ad0:	d11b      	bne.n	8001b0a <UART_WaitOnFlagUntilTimeout+0x66>
      {
        /* Disable TXE, RXNE, PE and ERR (Frame error, noise error, overrun error)
           interrupts for the interrupt process */
        CLEAR_BIT(huart->Instance->CR1, (USART_CR1_RXNEIE | USART_CR1_PEIE | USART_CR1_TXEIE));
 8001ad2:	68fb      	ldr	r3, [r7, #12]
 8001ad4:	681b      	ldr	r3, [r3, #0]
 8001ad6:	681a      	ldr	r2, [r3, #0]
 8001ad8:	68fb      	ldr	r3, [r7, #12]
 8001ada:	681b      	ldr	r3, [r3, #0]
 8001adc:	492f      	ldr	r1, [pc, #188]	; (8001b9c <UART_WaitOnFlagUntilTimeout+0xf8>)
 8001ade:	400a      	ands	r2, r1
 8001ae0:	601a      	str	r2, [r3, #0]
        CLEAR_BIT(huart->Instance->CR3, USART_CR3_EIE);
 8001ae2:	68fb      	ldr	r3, [r7, #12]
 8001ae4:	681b      	ldr	r3, [r3, #0]
 8001ae6:	689a      	ldr	r2, [r3, #8]
 8001ae8:	68fb      	ldr	r3, [r7, #12]
 8001aea:	681b      	ldr	r3, [r3, #0]
 8001aec:	2101      	movs	r1, #1
 8001aee:	438a      	bics	r2, r1
 8001af0:	609a      	str	r2, [r3, #8]

        huart->gState = HAL_UART_STATE_READY;
 8001af2:	68fb      	ldr	r3, [r7, #12]
 8001af4:	2220      	movs	r2, #32
 8001af6:	679a      	str	r2, [r3, #120]	; 0x78
        huart->RxState = HAL_UART_STATE_READY;
 8001af8:	68fb      	ldr	r3, [r7, #12]
 8001afa:	2220      	movs	r2, #32
 8001afc:	67da      	str	r2, [r3, #124]	; 0x7c

        __HAL_UNLOCK(huart);
 8001afe:	68fb      	ldr	r3, [r7, #12]
 8001b00:	2274      	movs	r2, #116	; 0x74
 8001b02:	2100      	movs	r1, #0
 8001b04:	5499      	strb	r1, [r3, r2]

        return HAL_TIMEOUT;
 8001b06:	2303      	movs	r3, #3
 8001b08:	e044      	b.n	8001b94 <UART_WaitOnFlagUntilTimeout+0xf0>
      }

      if (READ_BIT(huart->Instance->CR1, USART_CR1_RE) != 0U)
 8001b0a:	68fb      	ldr	r3, [r7, #12]
 8001b0c:	681b      	ldr	r3, [r3, #0]
 8001b0e:	681b      	ldr	r3, [r3, #0]
 8001b10:	2204      	movs	r2, #4
 8001b12:	4013      	ands	r3, r2
 8001b14:	d02e      	beq.n	8001b74 <UART_WaitOnFlagUntilTimeout+0xd0>
      {
        if (__HAL_UART_GET_FLAG(huart, UART_FLAG_RTOF) == SET)
 8001b16:	68fb      	ldr	r3, [r7, #12]
 8001b18:	681b      	ldr	r3, [r3, #0]
 8001b1a:	69da      	ldr	r2, [r3, #28]
 8001b1c:	2380      	movs	r3, #128	; 0x80
 8001b1e:	011b      	lsls	r3, r3, #4
 8001b20:	401a      	ands	r2, r3
 8001b22:	2380      	movs	r3, #128	; 0x80
 8001b24:	011b      	lsls	r3, r3, #4
 8001b26:	429a      	cmp	r2, r3
 8001b28:	d124      	bne.n	8001b74 <UART_WaitOnFlagUntilTimeout+0xd0>
        {
          /* Clear Receiver Timeout flag*/
          __HAL_UART_CLEAR_FLAG(huart, UART_CLEAR_RTOF);
 8001b2a:	68fb      	ldr	r3, [r7, #12]
 8001b2c:	681b      	ldr	r3, [r3, #0]
 8001b2e:	2280      	movs	r2, #128	; 0x80
 8001b30:	0112      	lsls	r2, r2, #4
 8001b32:	621a      	str	r2, [r3, #32]

          /* Disable TXE, RXNE, PE and ERR (Frame error, noise error, overrun error)
             interrupts for the interrupt process */
          CLEAR_BIT(huart->Instance->CR1, (USART_CR1_RXNEIE | USART_CR1_PEIE | USART_CR1_TXEIE));
 8001b34:	68fb      	ldr	r3, [r7, #12]
 8001b36:	681b      	ldr	r3, [r3, #0]
 8001b38:	681a      	ldr	r2, [r3, #0]
 8001b3a:	68fb      	ldr	r3, [r7, #12]
 8001b3c:	681b      	ldr	r3, [r3, #0]
 8001b3e:	4917      	ldr	r1, [pc, #92]	; (8001b9c <UART_WaitOnFlagUntilTimeout+0xf8>)
 8001b40:	400a      	ands	r2, r1
 8001b42:	601a      	str	r2, [r3, #0]
          CLEAR_BIT(huart->Instance->CR3, USART_CR3_EIE);
 8001b44:	68fb      	ldr	r3, [r7, #12]
 8001b46:	681b      	ldr	r3, [r3, #0]
 8001b48:	689a      	ldr	r2, [r3, #8]
 8001b4a:	68fb      	ldr	r3, [r7, #12]
 8001b4c:	681b      	ldr	r3, [r3, #0]
 8001b4e:	2101      	movs	r1, #1
 8001b50:	438a      	bics	r2, r1
 8001b52:	609a      	str	r2, [r3, #8]

          huart->gState = HAL_UART_STATE_READY;
 8001b54:	68fb      	ldr	r3, [r7, #12]
 8001b56:	2220      	movs	r2, #32
 8001b58:	679a      	str	r2, [r3, #120]	; 0x78
          huart->RxState = HAL_UART_STATE_READY;
 8001b5a:	68fb      	ldr	r3, [r7, #12]
 8001b5c:	2220      	movs	r2, #32
 8001b5e:	67da      	str	r2, [r3, #124]	; 0x7c
          huart->ErrorCode = HAL_UART_ERROR_RTO;
 8001b60:	68fb      	ldr	r3, [r7, #12]
 8001b62:	2280      	movs	r2, #128	; 0x80
 8001b64:	2120      	movs	r1, #32
 8001b66:	5099      	str	r1, [r3, r2]

          /* Process Unlocked */
          __HAL_UNLOCK(huart);
 8001b68:	68fb      	ldr	r3, [r7, #12]
 8001b6a:	2274      	movs	r2, #116	; 0x74
 8001b6c:	2100      	movs	r1, #0
 8001b6e:	5499      	strb	r1, [r3, r2]

          return HAL_TIMEOUT;
 8001b70:	2303      	movs	r3, #3
 8001b72:	e00f      	b.n	8001b94 <UART_WaitOnFlagUntilTimeout+0xf0>
  while ((__HAL_UART_GET_FLAG(huart, Flag) ? SET : RESET) == Status)
 8001b74:	68fb      	ldr	r3, [r7, #12]
 8001b76:	681b      	ldr	r3, [r3, #0]
 8001b78:	69db      	ldr	r3, [r3, #28]
 8001b7a:	68ba      	ldr	r2, [r7, #8]
 8001b7c:	4013      	ands	r3, r2
 8001b7e:	68ba      	ldr	r2, [r7, #8]
 8001b80:	1ad3      	subs	r3, r2, r3
 8001b82:	425a      	negs	r2, r3
 8001b84:	4153      	adcs	r3, r2
 8001b86:	b2db      	uxtb	r3, r3
 8001b88:	001a      	movs	r2, r3
 8001b8a:	1dfb      	adds	r3, r7, #7
 8001b8c:	781b      	ldrb	r3, [r3, #0]
 8001b8e:	429a      	cmp	r2, r3
 8001b90:	d091      	beq.n	8001ab6 <UART_WaitOnFlagUntilTimeout+0x12>
        }
      }
    }
  }
  return HAL_OK;
 8001b92:	2300      	movs	r3, #0
}
 8001b94:	0018      	movs	r0, r3
 8001b96:	46bd      	mov	sp, r7
 8001b98:	b004      	add	sp, #16
 8001b9a:	bd80      	pop	{r7, pc}
 8001b9c:	fffffe5f 	.word	0xfffffe5f

08001ba0 <__libc_init_array>:
 8001ba0:	b570      	push	{r4, r5, r6, lr}
 8001ba2:	2600      	movs	r6, #0
 8001ba4:	4d0c      	ldr	r5, [pc, #48]	; (8001bd8 <__libc_init_array+0x38>)
 8001ba6:	4c0d      	ldr	r4, [pc, #52]	; (8001bdc <__libc_init_array+0x3c>)
 8001ba8:	1b64      	subs	r4, r4, r5
 8001baa:	10a4      	asrs	r4, r4, #2
 8001bac:	42a6      	cmp	r6, r4
 8001bae:	d109      	bne.n	8001bc4 <__libc_init_array+0x24>
 8001bb0:	2600      	movs	r6, #0
 8001bb2:	f000 f821 	bl	8001bf8 <_init>
 8001bb6:	4d0a      	ldr	r5, [pc, #40]	; (8001be0 <__libc_init_array+0x40>)
 8001bb8:	4c0a      	ldr	r4, [pc, #40]	; (8001be4 <__libc_init_array+0x44>)
 8001bba:	1b64      	subs	r4, r4, r5
 8001bbc:	10a4      	asrs	r4, r4, #2
 8001bbe:	42a6      	cmp	r6, r4
 8001bc0:	d105      	bne.n	8001bce <__libc_init_array+0x2e>
 8001bc2:	bd70      	pop	{r4, r5, r6, pc}
 8001bc4:	00b3      	lsls	r3, r6, #2
 8001bc6:	58eb      	ldr	r3, [r5, r3]
 8001bc8:	4798      	blx	r3
 8001bca:	3601      	adds	r6, #1
 8001bcc:	e7ee      	b.n	8001bac <__libc_init_array+0xc>
 8001bce:	00b3      	lsls	r3, r6, #2
 8001bd0:	58eb      	ldr	r3, [r5, r3]
 8001bd2:	4798      	blx	r3
 8001bd4:	3601      	adds	r6, #1
 8001bd6:	e7f2      	b.n	8001bbe <__libc_init_array+0x1e>
 8001bd8:	08001c48 	.word	0x08001c48
 8001bdc:	08001c48 	.word	0x08001c48
 8001be0:	08001c48 	.word	0x08001c48
 8001be4:	08001c4c 	.word	0x08001c4c

08001be8 <memset>:
 8001be8:	0003      	movs	r3, r0
 8001bea:	1812      	adds	r2, r2, r0
 8001bec:	4293      	cmp	r3, r2
 8001bee:	d100      	bne.n	8001bf2 <memset+0xa>
 8001bf0:	4770      	bx	lr
 8001bf2:	7019      	strb	r1, [r3, #0]
 8001bf4:	3301      	adds	r3, #1
 8001bf6:	e7f9      	b.n	8001bec <memset+0x4>

08001bf8 <_init>:
 8001bf8:	b5f8      	push	{r3, r4, r5, r6, r7, lr}
 8001bfa:	46c0      	nop			; (mov r8, r8)
 8001bfc:	bcf8      	pop	{r3, r4, r5, r6, r7}
 8001bfe:	bc08      	pop	{r3}
 8001c00:	469e      	mov	lr, r3
 8001c02:	4770      	bx	lr

08001c04 <_fini>:
 8001c04:	b5f8      	push	{r3, r4, r5, r6, r7, lr}
 8001c06:	46c0      	nop			; (mov r8, r8)
 8001c08:	bcf8      	pop	{r3, r4, r5, r6, r7}
 8001c0a:	bc08      	pop	{r3}
 8001c0c:	469e      	mov	lr, r3
 8001c0e:	4770      	bx	lr
