
test_pir.elf:     file format elf32-littlearm

Sections:
Idx Name          Size      VMA       LMA       File off  Algn
  0 .isr_vector   000000c0  08000000  08000000  00010000  2**0
                  CONTENTS, ALLOC, LOAD, READONLY, DATA
  1 .text         000026e8  080000c0  080000c0  000100c0  2**2
                  CONTENTS, ALLOC, LOAD, READONLY, CODE
  2 .rodata       00000038  080027a8  080027a8  000127a8  2**2
                  CONTENTS, ALLOC, LOAD, READONLY, DATA
  3 .ARM.extab    00000000  080027e0  080027e0  0002000c  2**0
                  CONTENTS
  4 .ARM          00000000  080027e0  080027e0  0002000c  2**0
                  CONTENTS
  5 .preinit_array 00000000  080027e0  080027e0  0002000c  2**0
                  CONTENTS, ALLOC, LOAD, DATA
  6 .init_array   00000004  080027e0  080027e0  000127e0  2**2
                  CONTENTS, ALLOC, LOAD, DATA
  7 .fini_array   00000004  080027e4  080027e4  000127e4  2**2
                  CONTENTS, ALLOC, LOAD, DATA
  8 .data         0000000c  20000000  080027e8  00020000  2**2
                  CONTENTS, ALLOC, LOAD, DATA
  9 .bss          000000ec  2000000c  080027f4  0002000c  2**2
                  ALLOC
 10 ._user_heap_stack 00000600  200000f8  080027f4  000200f8  2**0
                  ALLOC
 11 .ARM.attributes 00000028  00000000  00000000  0002000c  2**0
                  CONTENTS, READONLY
 12 .debug_info   00008e2f  00000000  00000000  00020034  2**0
                  CONTENTS, READONLY, DEBUGGING
 13 .debug_abbrev 00001470  00000000  00000000  00028e63  2**0
                  CONTENTS, READONLY, DEBUGGING
 14 .debug_aranges 00000ae8  00000000  00000000  0002a2d8  2**3
                  CONTENTS, READONLY, DEBUGGING
 15 .debug_ranges 00000a60  00000000  00000000  0002adc0  2**3
                  CONTENTS, READONLY, DEBUGGING
 16 .debug_macro  00017ca7  00000000  00000000  0002b820  2**0
                  CONTENTS, READONLY, DEBUGGING
 17 .debug_line   0000885b  00000000  00000000  000434c7  2**0
                  CONTENTS, READONLY, DEBUGGING
 18 .debug_str    0008ccdd  00000000  00000000  0004bd22  2**0
                  CONTENTS, READONLY, DEBUGGING
 19 .comment      0000007b  00000000  00000000  000d89ff  2**0
                  CONTENTS, READONLY
 20 .debug_frame  00002764  00000000  00000000  000d8a7c  2**2
                  CONTENTS, READONLY, DEBUGGING

Disassembly of section .text:

080000c0 <__do_global_dtors_aux>:
 80000c0:	b510      	push	{r4, lr}
 80000c2:	4c06      	ldr	r4, [pc, #24]	; (80000dc <__do_global_dtors_aux+0x1c>)
 80000c4:	7823      	ldrb	r3, [r4, #0]
 80000c6:	2b00      	cmp	r3, #0
 80000c8:	d107      	bne.n	80000da <__do_global_dtors_aux+0x1a>
 80000ca:	4b05      	ldr	r3, [pc, #20]	; (80000e0 <__do_global_dtors_aux+0x20>)
 80000cc:	2b00      	cmp	r3, #0
 80000ce:	d002      	beq.n	80000d6 <__do_global_dtors_aux+0x16>
 80000d0:	4804      	ldr	r0, [pc, #16]	; (80000e4 <__do_global_dtors_aux+0x24>)
 80000d2:	e000      	b.n	80000d6 <__do_global_dtors_aux+0x16>
 80000d4:	bf00      	nop
 80000d6:	2301      	movs	r3, #1
 80000d8:	7023      	strb	r3, [r4, #0]
 80000da:	bd10      	pop	{r4, pc}
 80000dc:	2000000c 	.word	0x2000000c
 80000e0:	00000000 	.word	0x00000000
 80000e4:	08002790 	.word	0x08002790

080000e8 <frame_dummy>:
 80000e8:	4b04      	ldr	r3, [pc, #16]	; (80000fc <frame_dummy+0x14>)
 80000ea:	b510      	push	{r4, lr}
 80000ec:	2b00      	cmp	r3, #0
 80000ee:	d003      	beq.n	80000f8 <frame_dummy+0x10>
 80000f0:	4903      	ldr	r1, [pc, #12]	; (8000100 <frame_dummy+0x18>)
 80000f2:	4804      	ldr	r0, [pc, #16]	; (8000104 <frame_dummy+0x1c>)
 80000f4:	e000      	b.n	80000f8 <frame_dummy+0x10>
 80000f6:	bf00      	nop
 80000f8:	bd10      	pop	{r4, pc}
 80000fa:	46c0      	nop			; (mov r8, r8)
 80000fc:	00000000 	.word	0x00000000
 8000100:	20000010 	.word	0x20000010
 8000104:	08002790 	.word	0x08002790

08000108 <__udivsi3>:
 8000108:	2200      	movs	r2, #0
 800010a:	0843      	lsrs	r3, r0, #1
 800010c:	428b      	cmp	r3, r1
 800010e:	d374      	bcc.n	80001fa <__udivsi3+0xf2>
 8000110:	0903      	lsrs	r3, r0, #4
 8000112:	428b      	cmp	r3, r1
 8000114:	d35f      	bcc.n	80001d6 <__udivsi3+0xce>
 8000116:	0a03      	lsrs	r3, r0, #8
 8000118:	428b      	cmp	r3, r1
 800011a:	d344      	bcc.n	80001a6 <__udivsi3+0x9e>
 800011c:	0b03      	lsrs	r3, r0, #12
 800011e:	428b      	cmp	r3, r1
 8000120:	d328      	bcc.n	8000174 <__udivsi3+0x6c>
 8000122:	0c03      	lsrs	r3, r0, #16
 8000124:	428b      	cmp	r3, r1
 8000126:	d30d      	bcc.n	8000144 <__udivsi3+0x3c>
 8000128:	22ff      	movs	r2, #255	; 0xff
 800012a:	0209      	lsls	r1, r1, #8
 800012c:	ba12      	rev	r2, r2
 800012e:	0c03      	lsrs	r3, r0, #16
 8000130:	428b      	cmp	r3, r1
 8000132:	d302      	bcc.n	800013a <__udivsi3+0x32>
 8000134:	1212      	asrs	r2, r2, #8
 8000136:	0209      	lsls	r1, r1, #8
 8000138:	d065      	beq.n	8000206 <__udivsi3+0xfe>
 800013a:	0b03      	lsrs	r3, r0, #12
 800013c:	428b      	cmp	r3, r1
 800013e:	d319      	bcc.n	8000174 <__udivsi3+0x6c>
 8000140:	e000      	b.n	8000144 <__udivsi3+0x3c>
 8000142:	0a09      	lsrs	r1, r1, #8
 8000144:	0bc3      	lsrs	r3, r0, #15
 8000146:	428b      	cmp	r3, r1
 8000148:	d301      	bcc.n	800014e <__udivsi3+0x46>
 800014a:	03cb      	lsls	r3, r1, #15
 800014c:	1ac0      	subs	r0, r0, r3
 800014e:	4152      	adcs	r2, r2
 8000150:	0b83      	lsrs	r3, r0, #14
 8000152:	428b      	cmp	r3, r1
 8000154:	d301      	bcc.n	800015a <__udivsi3+0x52>
 8000156:	038b      	lsls	r3, r1, #14
 8000158:	1ac0      	subs	r0, r0, r3
 800015a:	4152      	adcs	r2, r2
 800015c:	0b43      	lsrs	r3, r0, #13
 800015e:	428b      	cmp	r3, r1
 8000160:	d301      	bcc.n	8000166 <__udivsi3+0x5e>
 8000162:	034b      	lsls	r3, r1, #13
 8000164:	1ac0      	subs	r0, r0, r3
 8000166:	4152      	adcs	r2, r2
 8000168:	0b03      	lsrs	r3, r0, #12
 800016a:	428b      	cmp	r3, r1
 800016c:	d301      	bcc.n	8000172 <__udivsi3+0x6a>
 800016e:	030b      	lsls	r3, r1, #12
 8000170:	1ac0      	subs	r0, r0, r3
 8000172:	4152      	adcs	r2, r2
 8000174:	0ac3      	lsrs	r3, r0, #11
 8000176:	428b      	cmp	r3, r1
 8000178:	d301      	bcc.n	800017e <__udivsi3+0x76>
 800017a:	02cb      	lsls	r3, r1, #11
 800017c:	1ac0      	subs	r0, r0, r3
 800017e:	4152      	adcs	r2, r2
 8000180:	0a83      	lsrs	r3, r0, #10
 8000182:	428b      	cmp	r3, r1
 8000184:	d301      	bcc.n	800018a <__udivsi3+0x82>
 8000186:	028b      	lsls	r3, r1, #10
 8000188:	1ac0      	subs	r0, r0, r3
 800018a:	4152      	adcs	r2, r2
 800018c:	0a43      	lsrs	r3, r0, #9
 800018e:	428b      	cmp	r3, r1
 8000190:	d301      	bcc.n	8000196 <__udivsi3+0x8e>
 8000192:	024b      	lsls	r3, r1, #9
 8000194:	1ac0      	subs	r0, r0, r3
 8000196:	4152      	adcs	r2, r2
 8000198:	0a03      	lsrs	r3, r0, #8
 800019a:	428b      	cmp	r3, r1
 800019c:	d301      	bcc.n	80001a2 <__udivsi3+0x9a>
 800019e:	020b      	lsls	r3, r1, #8
 80001a0:	1ac0      	subs	r0, r0, r3
 80001a2:	4152      	adcs	r2, r2
 80001a4:	d2cd      	bcs.n	8000142 <__udivsi3+0x3a>
 80001a6:	09c3      	lsrs	r3, r0, #7
 80001a8:	428b      	cmp	r3, r1
 80001aa:	d301      	bcc.n	80001b0 <__udivsi3+0xa8>
 80001ac:	01cb      	lsls	r3, r1, #7
 80001ae:	1ac0      	subs	r0, r0, r3
 80001b0:	4152      	adcs	r2, r2
 80001b2:	0983      	lsrs	r3, r0, #6
 80001b4:	428b      	cmp	r3, r1
 80001b6:	d301      	bcc.n	80001bc <__udivsi3+0xb4>
 80001b8:	018b      	lsls	r3, r1, #6
 80001ba:	1ac0      	subs	r0, r0, r3
 80001bc:	4152      	adcs	r2, r2
 80001be:	0943      	lsrs	r3, r0, #5
 80001c0:	428b      	cmp	r3, r1
 80001c2:	d301      	bcc.n	80001c8 <__udivsi3+0xc0>
 80001c4:	014b      	lsls	r3, r1, #5
 80001c6:	1ac0      	subs	r0, r0, r3
 80001c8:	4152      	adcs	r2, r2
 80001ca:	0903      	lsrs	r3, r0, #4
 80001cc:	428b      	cmp	r3, r1
 80001ce:	d301      	bcc.n	80001d4 <__udivsi3+0xcc>
 80001d0:	010b      	lsls	r3, r1, #4
 80001d2:	1ac0      	subs	r0, r0, r3
 80001d4:	4152      	adcs	r2, r2
 80001d6:	08c3      	lsrs	r3, r0, #3
 80001d8:	428b      	cmp	r3, r1
 80001da:	d301      	bcc.n	80001e0 <__udivsi3+0xd8>
 80001dc:	00cb      	lsls	r3, r1, #3
 80001de:	1ac0      	subs	r0, r0, r3
 80001e0:	4152      	adcs	r2, r2
 80001e2:	0883      	lsrs	r3, r0, #2
 80001e4:	428b      	cmp	r3, r1
 80001e6:	d301      	bcc.n	80001ec <__udivsi3+0xe4>
 80001e8:	008b      	lsls	r3, r1, #2
 80001ea:	1ac0      	subs	r0, r0, r3
 80001ec:	4152      	adcs	r2, r2
 80001ee:	0843      	lsrs	r3, r0, #1
 80001f0:	428b      	cmp	r3, r1
 80001f2:	d301      	bcc.n	80001f8 <__udivsi3+0xf0>
 80001f4:	004b      	lsls	r3, r1, #1
 80001f6:	1ac0      	subs	r0, r0, r3
 80001f8:	4152      	adcs	r2, r2
 80001fa:	1a41      	subs	r1, r0, r1
 80001fc:	d200      	bcs.n	8000200 <__udivsi3+0xf8>
 80001fe:	4601      	mov	r1, r0
 8000200:	4152      	adcs	r2, r2
 8000202:	4610      	mov	r0, r2
 8000204:	4770      	bx	lr
 8000206:	e7ff      	b.n	8000208 <__udivsi3+0x100>
 8000208:	b501      	push	{r0, lr}
 800020a:	2000      	movs	r0, #0
 800020c:	f000 f806 	bl	800021c <__aeabi_idiv0>
 8000210:	bd02      	pop	{r1, pc}
 8000212:	46c0      	nop			; (mov r8, r8)

08000214 <__aeabi_uidivmod>:
 8000214:	2900      	cmp	r1, #0
 8000216:	d0f7      	beq.n	8000208 <__udivsi3+0x100>
 8000218:	e776      	b.n	8000108 <__udivsi3>
 800021a:	4770      	bx	lr

0800021c <__aeabi_idiv0>:
 800021c:	4770      	bx	lr
 800021e:	46c0      	nop			; (mov r8, r8)

08000220 <main>:
/**
  * @brief  The application entry point.
  * @retval int
  */
int main(void)
{
 8000220:	b580      	push	{r7, lr}
 8000222:	af00      	add	r7, sp, #0
  /* USER CODE END 1 */

  /* MCU Configuration--------------------------------------------------------*/

  /* Reset of all peripherals, Initializes the Flash interface and the Systick. */
  HAL_Init();
 8000224:	f000 faac 	bl	8000780 <HAL_Init>
  /* USER CODE BEGIN Init */

  /* USER CODE END Init */

  /* Configure the system clock */
  SystemClock_Config();
 8000228:	f000 f83e 	bl	80002a8 <SystemClock_Config>
  /* USER CODE BEGIN SysInit */

  /* USER CODE END SysInit */

  /* Initialize all configured peripherals */
  MX_GPIO_Init();
 800022c:	f000 f90e 	bl	800044c <MX_GPIO_Init>
  MX_USART2_UART_Init();
 8000230:	f000 f8dc 	bl	80003ec <MX_USART2_UART_Init>
  MX_TIM3_Init();
 8000234:	f000 f878 	bl	8000328 <MX_TIM3_Init>

  /* USER CODE END 2 */

  /* Infinite loop */
  /* USER CODE BEGIN WHILE */
  HAL_GPIO_WritePin(LED_GPIO_Port, LED_Pin, GPIO_PIN_RESET);
 8000238:	4b19      	ldr	r3, [pc, #100]	; (80002a0 <main+0x80>)
 800023a:	2200      	movs	r2, #0
 800023c:	2108      	movs	r1, #8
 800023e:	0018      	movs	r0, r3
 8000240:	f000 fd5d 	bl	8000cfe <HAL_GPIO_WritePin>
  while (1)
    {
      /* USER CODE END WHILE */
  	  if(HAL_GPIO_ReadPin(PIR_GPIO_Port,PIR_Pin))
 8000244:	4b16      	ldr	r3, [pc, #88]	; (80002a0 <main+0x80>)
 8000246:	2102      	movs	r1, #2
 8000248:	0018      	movs	r0, r3
 800024a:	f000 fd3b 	bl	8000cc4 <HAL_GPIO_ReadPin>
 800024e:	1e03      	subs	r3, r0, #0
 8000250:	d0f8      	beq.n	8000244 <main+0x24>
  	  {
  		HAL_GPIO_WritePin(LED_GPIO_Port, LED_Pin, GPIO_PIN_SET);
 8000252:	4b13      	ldr	r3, [pc, #76]	; (80002a0 <main+0x80>)
 8000254:	2201      	movs	r2, #1
 8000256:	2108      	movs	r1, #8
 8000258:	0018      	movs	r0, r3
 800025a:	f000 fd50 	bl	8000cfe <HAL_GPIO_WritePin>
  		while(HAL_GPIO_ReadPin(PIR_GPIO_Port,PIR_Pin))
 800025e:	e011      	b.n	8000284 <main+0x64>
  		{
  			__HAL_TIM_SET_COMPARE(&htim3,TIM_CHANNEL_3,500);
 8000260:	4b10      	ldr	r3, [pc, #64]	; (80002a4 <main+0x84>)
 8000262:	681b      	ldr	r3, [r3, #0]
 8000264:	22fa      	movs	r2, #250	; 0xfa
 8000266:	0052      	lsls	r2, r2, #1
 8000268:	63da      	str	r2, [r3, #60]	; 0x3c
  			HAL_TIM_PWM_Start(&htim3,TIM_CHANNEL_3);
 800026a:	4b0e      	ldr	r3, [pc, #56]	; (80002a4 <main+0x84>)
 800026c:	2108      	movs	r1, #8
 800026e:	0018      	movs	r0, r3
 8000270:	f001 fab0 	bl	80017d4 <HAL_TIM_PWM_Start>
  			HAL_Delay(50);
 8000274:	2032      	movs	r0, #50	; 0x32
 8000276:	f000 fae7 	bl	8000848 <HAL_Delay>
  			HAL_TIM_PWM_Stop(&htim3,TIM_CHANNEL_3);
 800027a:	4b0a      	ldr	r3, [pc, #40]	; (80002a4 <main+0x84>)
 800027c:	2108      	movs	r1, #8
 800027e:	0018      	movs	r0, r3
 8000280:	f001 fb54 	bl	800192c <HAL_TIM_PWM_Stop>
  		while(HAL_GPIO_ReadPin(PIR_GPIO_Port,PIR_Pin))
 8000284:	4b06      	ldr	r3, [pc, #24]	; (80002a0 <main+0x80>)
 8000286:	2102      	movs	r1, #2
 8000288:	0018      	movs	r0, r3
 800028a:	f000 fd1b 	bl	8000cc4 <HAL_GPIO_ReadPin>
 800028e:	1e03      	subs	r3, r0, #0
 8000290:	d1e6      	bne.n	8000260 <main+0x40>
  		}
  		HAL_GPIO_WritePin(LED_GPIO_Port, LED_Pin, GPIO_PIN_RESET);
 8000292:	4b03      	ldr	r3, [pc, #12]	; (80002a0 <main+0x80>)
 8000294:	2200      	movs	r2, #0
 8000296:	2108      	movs	r1, #8
 8000298:	0018      	movs	r0, r3
 800029a:	f000 fd30 	bl	8000cfe <HAL_GPIO_WritePin>
  	  if(HAL_GPIO_ReadPin(PIR_GPIO_Port,PIR_Pin))
 800029e:	e7d1      	b.n	8000244 <main+0x24>
 80002a0:	48000400 	.word	0x48000400
 80002a4:	20000028 	.word	0x20000028

080002a8 <SystemClock_Config>:
/**
  * @brief System Clock Configuration
  * @retval None
  */
void SystemClock_Config(void)
{
 80002a8:	b590      	push	{r4, r7, lr}
 80002aa:	b093      	sub	sp, #76	; 0x4c
 80002ac:	af00      	add	r7, sp, #0
  RCC_OscInitTypeDef RCC_OscInitStruct = {0};
 80002ae:	2414      	movs	r4, #20
 80002b0:	193b      	adds	r3, r7, r4
 80002b2:	0018      	movs	r0, r3
 80002b4:	2334      	movs	r3, #52	; 0x34
 80002b6:	001a      	movs	r2, r3
 80002b8:	2100      	movs	r1, #0
 80002ba:	f002 fa61 	bl	8002780 <memset>
  RCC_ClkInitTypeDef RCC_ClkInitStruct = {0};
 80002be:	1d3b      	adds	r3, r7, #4
 80002c0:	0018      	movs	r0, r3
 80002c2:	2310      	movs	r3, #16
 80002c4:	001a      	movs	r2, r3
 80002c6:	2100      	movs	r1, #0
 80002c8:	f002 fa5a 	bl	8002780 <memset>

  /** Initializes the RCC Oscillators according to the specified parameters
  * in the RCC_OscInitTypeDef structure.
  */
  RCC_OscInitStruct.OscillatorType = RCC_OSCILLATORTYPE_HSI;
 80002cc:	0021      	movs	r1, r4
 80002ce:	187b      	adds	r3, r7, r1
 80002d0:	2202      	movs	r2, #2
 80002d2:	601a      	str	r2, [r3, #0]
  RCC_OscInitStruct.HSIState = RCC_HSI_ON;
 80002d4:	187b      	adds	r3, r7, r1
 80002d6:	2201      	movs	r2, #1
 80002d8:	60da      	str	r2, [r3, #12]
  RCC_OscInitStruct.HSICalibrationValue = RCC_HSICALIBRATION_DEFAULT;
 80002da:	187b      	adds	r3, r7, r1
 80002dc:	2210      	movs	r2, #16
 80002de:	611a      	str	r2, [r3, #16]
  RCC_OscInitStruct.PLL.PLLState = RCC_PLL_NONE;
 80002e0:	187b      	adds	r3, r7, r1
 80002e2:	2200      	movs	r2, #0
 80002e4:	625a      	str	r2, [r3, #36]	; 0x24
  if (HAL_RCC_OscConfig(&RCC_OscInitStruct) != HAL_OK)
 80002e6:	187b      	adds	r3, r7, r1
 80002e8:	0018      	movs	r0, r3
 80002ea:	f000 fd25 	bl	8000d38 <HAL_RCC_OscConfig>
 80002ee:	1e03      	subs	r3, r0, #0
 80002f0:	d001      	beq.n	80002f6 <SystemClock_Config+0x4e>
  {
    Error_Handler();
 80002f2:	f000 f913 	bl	800051c <Error_Handler>
  }
  /** Initializes the CPU, AHB and APB buses clocks
  */
  RCC_ClkInitStruct.ClockType = RCC_CLOCKTYPE_HCLK|RCC_CLOCKTYPE_SYSCLK
 80002f6:	1d3b      	adds	r3, r7, #4
 80002f8:	2207      	movs	r2, #7
 80002fa:	601a      	str	r2, [r3, #0]
                              |RCC_CLOCKTYPE_PCLK1;
  RCC_ClkInitStruct.SYSCLKSource = RCC_SYSCLKSOURCE_HSI;
 80002fc:	1d3b      	adds	r3, r7, #4
 80002fe:	2200      	movs	r2, #0
 8000300:	605a      	str	r2, [r3, #4]
  RCC_ClkInitStruct.AHBCLKDivider = RCC_SYSCLK_DIV1;
 8000302:	1d3b      	adds	r3, r7, #4
 8000304:	2200      	movs	r2, #0
 8000306:	609a      	str	r2, [r3, #8]
  RCC_ClkInitStruct.APB1CLKDivider = RCC_HCLK_DIV1;
 8000308:	1d3b      	adds	r3, r7, #4
 800030a:	2200      	movs	r2, #0
 800030c:	60da      	str	r2, [r3, #12]

  if (HAL_RCC_ClockConfig(&RCC_ClkInitStruct, FLASH_LATENCY_0) != HAL_OK)
 800030e:	1d3b      	adds	r3, r7, #4
 8000310:	2100      	movs	r1, #0
 8000312:	0018      	movs	r0, r3
 8000314:	f001 f896 	bl	8001444 <HAL_RCC_ClockConfig>
 8000318:	1e03      	subs	r3, r0, #0
 800031a:	d001      	beq.n	8000320 <SystemClock_Config+0x78>
  {
    Error_Handler();
 800031c:	f000 f8fe 	bl	800051c <Error_Handler>
  }
}
 8000320:	46c0      	nop			; (mov r8, r8)
 8000322:	46bd      	mov	sp, r7
 8000324:	b013      	add	sp, #76	; 0x4c
 8000326:	bd90      	pop	{r4, r7, pc}

08000328 <MX_TIM3_Init>:
  * @brief TIM3 Initialization Function
  * @param None
  * @retval None
  */
static void MX_TIM3_Init(void)
{
 8000328:	b580      	push	{r7, lr}
 800032a:	b08a      	sub	sp, #40	; 0x28
 800032c:	af00      	add	r7, sp, #0

  /* USER CODE BEGIN TIM3_Init 0 */

  /* USER CODE END TIM3_Init 0 */

  TIM_MasterConfigTypeDef sMasterConfig = {0};
 800032e:	2320      	movs	r3, #32
 8000330:	18fb      	adds	r3, r7, r3
 8000332:	0018      	movs	r0, r3
 8000334:	2308      	movs	r3, #8
 8000336:	001a      	movs	r2, r3
 8000338:	2100      	movs	r1, #0
 800033a:	f002 fa21 	bl	8002780 <memset>
  TIM_OC_InitTypeDef sConfigOC = {0};
 800033e:	1d3b      	adds	r3, r7, #4
 8000340:	0018      	movs	r0, r3
 8000342:	231c      	movs	r3, #28
 8000344:	001a      	movs	r2, r3
 8000346:	2100      	movs	r1, #0
 8000348:	f002 fa1a 	bl	8002780 <memset>

  /* USER CODE BEGIN TIM3_Init 1 */

  /* USER CODE END TIM3_Init 1 */
  htim3.Instance = TIM3;
 800034c:	4b24      	ldr	r3, [pc, #144]	; (80003e0 <MX_TIM3_Init+0xb8>)
 800034e:	4a25      	ldr	r2, [pc, #148]	; (80003e4 <MX_TIM3_Init+0xbc>)
 8000350:	601a      	str	r2, [r3, #0]
  htim3.Init.Prescaler = 7;
 8000352:	4b23      	ldr	r3, [pc, #140]	; (80003e0 <MX_TIM3_Init+0xb8>)
 8000354:	2207      	movs	r2, #7
 8000356:	605a      	str	r2, [r3, #4]
  htim3.Init.CounterMode = TIM_COUNTERMODE_UP;
 8000358:	4b21      	ldr	r3, [pc, #132]	; (80003e0 <MX_TIM3_Init+0xb8>)
 800035a:	2200      	movs	r2, #0
 800035c:	609a      	str	r2, [r3, #8]
  htim3.Init.Period = 999;
 800035e:	4b20      	ldr	r3, [pc, #128]	; (80003e0 <MX_TIM3_Init+0xb8>)
 8000360:	4a21      	ldr	r2, [pc, #132]	; (80003e8 <MX_TIM3_Init+0xc0>)
 8000362:	60da      	str	r2, [r3, #12]
  htim3.Init.ClockDivision = TIM_CLOCKDIVISION_DIV1;
 8000364:	4b1e      	ldr	r3, [pc, #120]	; (80003e0 <MX_TIM3_Init+0xb8>)
 8000366:	2200      	movs	r2, #0
 8000368:	611a      	str	r2, [r3, #16]
  htim3.Init.AutoReloadPreload = TIM_AUTORELOAD_PRELOAD_DISABLE;
 800036a:	4b1d      	ldr	r3, [pc, #116]	; (80003e0 <MX_TIM3_Init+0xb8>)
 800036c:	2200      	movs	r2, #0
 800036e:	619a      	str	r2, [r3, #24]
  if (HAL_TIM_PWM_Init(&htim3) != HAL_OK)
 8000370:	4b1b      	ldr	r3, [pc, #108]	; (80003e0 <MX_TIM3_Init+0xb8>)
 8000372:	0018      	movs	r0, r3
 8000374:	f001 f9de 	bl	8001734 <HAL_TIM_PWM_Init>
 8000378:	1e03      	subs	r3, r0, #0
 800037a:	d001      	beq.n	8000380 <MX_TIM3_Init+0x58>
  {
    Error_Handler();
 800037c:	f000 f8ce 	bl	800051c <Error_Handler>
  }
  sMasterConfig.MasterOutputTrigger = TIM_TRGO_RESET;
 8000380:	2120      	movs	r1, #32
 8000382:	187b      	adds	r3, r7, r1
 8000384:	2200      	movs	r2, #0
 8000386:	601a      	str	r2, [r3, #0]
  sMasterConfig.MasterSlaveMode = TIM_MASTERSLAVEMODE_DISABLE;
 8000388:	187b      	adds	r3, r7, r1
 800038a:	2200      	movs	r2, #0
 800038c:	605a      	str	r2, [r3, #4]
  if (HAL_TIMEx_MasterConfigSynchronization(&htim3, &sMasterConfig) != HAL_OK)
 800038e:	187a      	adds	r2, r7, r1
 8000390:	4b13      	ldr	r3, [pc, #76]	; (80003e0 <MX_TIM3_Init+0xb8>)
 8000392:	0011      	movs	r1, r2
 8000394:	0018      	movs	r0, r3
 8000396:	f001 fe69 	bl	800206c <HAL_TIMEx_MasterConfigSynchronization>
 800039a:	1e03      	subs	r3, r0, #0
 800039c:	d001      	beq.n	80003a2 <MX_TIM3_Init+0x7a>
  {
    Error_Handler();
 800039e:	f000 f8bd 	bl	800051c <Error_Handler>
  }
  sConfigOC.OCMode = TIM_OCMODE_PWM1;
 80003a2:	1d3b      	adds	r3, r7, #4
 80003a4:	2260      	movs	r2, #96	; 0x60
 80003a6:	601a      	str	r2, [r3, #0]
  sConfigOC.Pulse = 5;
 80003a8:	1d3b      	adds	r3, r7, #4
 80003aa:	2205      	movs	r2, #5
 80003ac:	605a      	str	r2, [r3, #4]
  sConfigOC.OCPolarity = TIM_OCPOLARITY_HIGH;
 80003ae:	1d3b      	adds	r3, r7, #4
 80003b0:	2200      	movs	r2, #0
 80003b2:	609a      	str	r2, [r3, #8]
  sConfigOC.OCFastMode = TIM_OCFAST_DISABLE;
 80003b4:	1d3b      	adds	r3, r7, #4
 80003b6:	2200      	movs	r2, #0
 80003b8:	611a      	str	r2, [r3, #16]
  if (HAL_TIM_PWM_ConfigChannel(&htim3, &sConfigOC, TIM_CHANNEL_3) != HAL_OK)
 80003ba:	1d39      	adds	r1, r7, #4
 80003bc:	4b08      	ldr	r3, [pc, #32]	; (80003e0 <MX_TIM3_Init+0xb8>)
 80003be:	2208      	movs	r2, #8
 80003c0:	0018      	movs	r0, r3
 80003c2:	f001 fb29 	bl	8001a18 <HAL_TIM_PWM_ConfigChannel>
 80003c6:	1e03      	subs	r3, r0, #0
 80003c8:	d001      	beq.n	80003ce <MX_TIM3_Init+0xa6>
  {
    Error_Handler();
 80003ca:	f000 f8a7 	bl	800051c <Error_Handler>
  }
  /* USER CODE BEGIN TIM3_Init 2 */

  /* USER CODE END TIM3_Init 2 */
  HAL_TIM_MspPostInit(&htim3);
 80003ce:	4b04      	ldr	r3, [pc, #16]	; (80003e0 <MX_TIM3_Init+0xb8>)
 80003d0:	0018      	movs	r0, r3
 80003d2:	f000 f8e9 	bl	80005a8 <HAL_TIM_MspPostInit>

}
 80003d6:	46c0      	nop			; (mov r8, r8)
 80003d8:	46bd      	mov	sp, r7
 80003da:	b00a      	add	sp, #40	; 0x28
 80003dc:	bd80      	pop	{r7, pc}
 80003de:	46c0      	nop			; (mov r8, r8)
 80003e0:	20000028 	.word	0x20000028
 80003e4:	40000400 	.word	0x40000400
 80003e8:	000003e7 	.word	0x000003e7

080003ec <MX_USART2_UART_Init>:
  * @brief USART2 Initialization Function
  * @param None
  * @retval None
  */
static void MX_USART2_UART_Init(void)
{
 80003ec:	b580      	push	{r7, lr}
 80003ee:	af00      	add	r7, sp, #0
  /* USER CODE END USART2_Init 0 */

  /* USER CODE BEGIN USART2_Init 1 */

  /* USER CODE END USART2_Init 1 */
  huart2.Instance = USART2;
 80003f0:	4b14      	ldr	r3, [pc, #80]	; (8000444 <MX_USART2_UART_Init+0x58>)
 80003f2:	4a15      	ldr	r2, [pc, #84]	; (8000448 <MX_USART2_UART_Init+0x5c>)
 80003f4:	601a      	str	r2, [r3, #0]
  huart2.Init.BaudRate = 38400;
 80003f6:	4b13      	ldr	r3, [pc, #76]	; (8000444 <MX_USART2_UART_Init+0x58>)
 80003f8:	2296      	movs	r2, #150	; 0x96
 80003fa:	0212      	lsls	r2, r2, #8
 80003fc:	605a      	str	r2, [r3, #4]
  huart2.Init.WordLength = UART_WORDLENGTH_8B;
 80003fe:	4b11      	ldr	r3, [pc, #68]	; (8000444 <MX_USART2_UART_Init+0x58>)
 8000400:	2200      	movs	r2, #0
 8000402:	609a      	str	r2, [r3, #8]
  huart2.Init.StopBits = UART_STOPBITS_1;
 8000404:	4b0f      	ldr	r3, [pc, #60]	; (8000444 <MX_USART2_UART_Init+0x58>)
 8000406:	2200      	movs	r2, #0
 8000408:	60da      	str	r2, [r3, #12]
  huart2.Init.Parity = UART_PARITY_NONE;
 800040a:	4b0e      	ldr	r3, [pc, #56]	; (8000444 <MX_USART2_UART_Init+0x58>)
 800040c:	2200      	movs	r2, #0
 800040e:	611a      	str	r2, [r3, #16]
  huart2.Init.Mode = UART_MODE_TX_RX;
 8000410:	4b0c      	ldr	r3, [pc, #48]	; (8000444 <MX_USART2_UART_Init+0x58>)
 8000412:	220c      	movs	r2, #12
 8000414:	615a      	str	r2, [r3, #20]
  huart2.Init.HwFlowCtl = UART_HWCONTROL_NONE;
 8000416:	4b0b      	ldr	r3, [pc, #44]	; (8000444 <MX_USART2_UART_Init+0x58>)
 8000418:	2200      	movs	r2, #0
 800041a:	619a      	str	r2, [r3, #24]
  huart2.Init.OverSampling = UART_OVERSAMPLING_16;
 800041c:	4b09      	ldr	r3, [pc, #36]	; (8000444 <MX_USART2_UART_Init+0x58>)
 800041e:	2200      	movs	r2, #0
 8000420:	61da      	str	r2, [r3, #28]
  huart2.Init.OneBitSampling = UART_ONE_BIT_SAMPLE_DISABLE;
 8000422:	4b08      	ldr	r3, [pc, #32]	; (8000444 <MX_USART2_UART_Init+0x58>)
 8000424:	2200      	movs	r2, #0
 8000426:	621a      	str	r2, [r3, #32]
  huart2.AdvancedInit.AdvFeatureInit = UART_ADVFEATURE_NO_INIT;
 8000428:	4b06      	ldr	r3, [pc, #24]	; (8000444 <MX_USART2_UART_Init+0x58>)
 800042a:	2200      	movs	r2, #0
 800042c:	625a      	str	r2, [r3, #36]	; 0x24
  if (HAL_UART_Init(&huart2) != HAL_OK)
 800042e:	4b05      	ldr	r3, [pc, #20]	; (8000444 <MX_USART2_UART_Init+0x58>)
 8000430:	0018      	movs	r0, r3
 8000432:	f001 fe73 	bl	800211c <HAL_UART_Init>
 8000436:	1e03      	subs	r3, r0, #0
 8000438:	d001      	beq.n	800043e <MX_USART2_UART_Init+0x52>
  {
    Error_Handler();
 800043a:	f000 f86f 	bl	800051c <Error_Handler>
  }
  /* USER CODE BEGIN USART2_Init 2 */

  /* USER CODE END USART2_Init 2 */

}
 800043e:	46c0      	nop			; (mov r8, r8)
 8000440:	46bd      	mov	sp, r7
 8000442:	bd80      	pop	{r7, pc}
 8000444:	20000070 	.word	0x20000070
 8000448:	40004400 	.word	0x40004400

0800044c <MX_GPIO_Init>:
  * @brief GPIO Initialization Function
  * @param None
  * @retval None
  */
static void MX_GPIO_Init(void)
{
 800044c:	b590      	push	{r4, r7, lr}
 800044e:	b089      	sub	sp, #36	; 0x24
 8000450:	af00      	add	r7, sp, #0
  GPIO_InitTypeDef GPIO_InitStruct = {0};
 8000452:	240c      	movs	r4, #12
 8000454:	193b      	adds	r3, r7, r4
 8000456:	0018      	movs	r0, r3
 8000458:	2314      	movs	r3, #20
 800045a:	001a      	movs	r2, r3
 800045c:	2100      	movs	r1, #0
 800045e:	f002 f98f 	bl	8002780 <memset>

  /* GPIO Ports Clock Enable */
  __HAL_RCC_GPIOF_CLK_ENABLE();
 8000462:	4b2c      	ldr	r3, [pc, #176]	; (8000514 <MX_GPIO_Init+0xc8>)
 8000464:	695a      	ldr	r2, [r3, #20]
 8000466:	4b2b      	ldr	r3, [pc, #172]	; (8000514 <MX_GPIO_Init+0xc8>)
 8000468:	2180      	movs	r1, #128	; 0x80
 800046a:	03c9      	lsls	r1, r1, #15
 800046c:	430a      	orrs	r2, r1
 800046e:	615a      	str	r2, [r3, #20]
 8000470:	4b28      	ldr	r3, [pc, #160]	; (8000514 <MX_GPIO_Init+0xc8>)
 8000472:	695a      	ldr	r2, [r3, #20]
 8000474:	2380      	movs	r3, #128	; 0x80
 8000476:	03db      	lsls	r3, r3, #15
 8000478:	4013      	ands	r3, r2
 800047a:	60bb      	str	r3, [r7, #8]
 800047c:	68bb      	ldr	r3, [r7, #8]
  __HAL_RCC_GPIOA_CLK_ENABLE();
 800047e:	4b25      	ldr	r3, [pc, #148]	; (8000514 <MX_GPIO_Init+0xc8>)
 8000480:	695a      	ldr	r2, [r3, #20]
 8000482:	4b24      	ldr	r3, [pc, #144]	; (8000514 <MX_GPIO_Init+0xc8>)
 8000484:	2180      	movs	r1, #128	; 0x80
 8000486:	0289      	lsls	r1, r1, #10
 8000488:	430a      	orrs	r2, r1
 800048a:	615a      	str	r2, [r3, #20]
 800048c:	4b21      	ldr	r3, [pc, #132]	; (8000514 <MX_GPIO_Init+0xc8>)
 800048e:	695a      	ldr	r2, [r3, #20]
 8000490:	2380      	movs	r3, #128	; 0x80
 8000492:	029b      	lsls	r3, r3, #10
 8000494:	4013      	ands	r3, r2
 8000496:	607b      	str	r3, [r7, #4]
 8000498:	687b      	ldr	r3, [r7, #4]
  __HAL_RCC_GPIOB_CLK_ENABLE();
 800049a:	4b1e      	ldr	r3, [pc, #120]	; (8000514 <MX_GPIO_Init+0xc8>)
 800049c:	695a      	ldr	r2, [r3, #20]
 800049e:	4b1d      	ldr	r3, [pc, #116]	; (8000514 <MX_GPIO_Init+0xc8>)
 80004a0:	2180      	movs	r1, #128	; 0x80
 80004a2:	02c9      	lsls	r1, r1, #11
 80004a4:	430a      	orrs	r2, r1
 80004a6:	615a      	str	r2, [r3, #20]
 80004a8:	4b1a      	ldr	r3, [pc, #104]	; (8000514 <MX_GPIO_Init+0xc8>)
 80004aa:	695a      	ldr	r2, [r3, #20]
 80004ac:	2380      	movs	r3, #128	; 0x80
 80004ae:	02db      	lsls	r3, r3, #11
 80004b0:	4013      	ands	r3, r2
 80004b2:	603b      	str	r3, [r7, #0]
 80004b4:	683b      	ldr	r3, [r7, #0]

  /*Configure GPIO pin Output Level */
  HAL_GPIO_WritePin(LED_GPIO_Port, LED_Pin, GPIO_PIN_RESET);
 80004b6:	4b18      	ldr	r3, [pc, #96]	; (8000518 <MX_GPIO_Init+0xcc>)
 80004b8:	2200      	movs	r2, #0
 80004ba:	2108      	movs	r1, #8
 80004bc:	0018      	movs	r0, r3
 80004be:	f000 fc1e 	bl	8000cfe <HAL_GPIO_WritePin>

  /*Configure GPIO pin : PIR_Pin */
  GPIO_InitStruct.Pin = PIR_Pin;
 80004c2:	0021      	movs	r1, r4
 80004c4:	187b      	adds	r3, r7, r1
 80004c6:	2202      	movs	r2, #2
 80004c8:	601a      	str	r2, [r3, #0]
  GPIO_InitStruct.Mode = GPIO_MODE_INPUT;
 80004ca:	187b      	adds	r3, r7, r1
 80004cc:	2200      	movs	r2, #0
 80004ce:	605a      	str	r2, [r3, #4]
  GPIO_InitStruct.Pull = GPIO_NOPULL;
 80004d0:	187b      	adds	r3, r7, r1
 80004d2:	2200      	movs	r2, #0
 80004d4:	609a      	str	r2, [r3, #8]
  HAL_GPIO_Init(PIR_GPIO_Port, &GPIO_InitStruct);
 80004d6:	000c      	movs	r4, r1
 80004d8:	187b      	adds	r3, r7, r1
 80004da:	4a0f      	ldr	r2, [pc, #60]	; (8000518 <MX_GPIO_Init+0xcc>)
 80004dc:	0019      	movs	r1, r3
 80004de:	0010      	movs	r0, r2
 80004e0:	f000 fa88 	bl	80009f4 <HAL_GPIO_Init>

  /*Configure GPIO pin : LED_Pin */
  GPIO_InitStruct.Pin = LED_Pin;
 80004e4:	0021      	movs	r1, r4
 80004e6:	187b      	adds	r3, r7, r1
 80004e8:	2208      	movs	r2, #8
 80004ea:	601a      	str	r2, [r3, #0]
  GPIO_InitStruct.Mode = GPIO_MODE_OUTPUT_PP;
 80004ec:	187b      	adds	r3, r7, r1
 80004ee:	2201      	movs	r2, #1
 80004f0:	605a      	str	r2, [r3, #4]
  GPIO_InitStruct.Pull = GPIO_NOPULL;
 80004f2:	187b      	adds	r3, r7, r1
 80004f4:	2200      	movs	r2, #0
 80004f6:	609a      	str	r2, [r3, #8]
  GPIO_InitStruct.Speed = GPIO_SPEED_FREQ_LOW;
 80004f8:	187b      	adds	r3, r7, r1
 80004fa:	2200      	movs	r2, #0
 80004fc:	60da      	str	r2, [r3, #12]
  HAL_GPIO_Init(LED_GPIO_Port, &GPIO_InitStruct);
 80004fe:	187b      	adds	r3, r7, r1
 8000500:	4a05      	ldr	r2, [pc, #20]	; (8000518 <MX_GPIO_Init+0xcc>)
 8000502:	0019      	movs	r1, r3
 8000504:	0010      	movs	r0, r2
 8000506:	f000 fa75 	bl	80009f4 <HAL_GPIO_Init>

}
 800050a:	46c0      	nop			; (mov r8, r8)
 800050c:	46bd      	mov	sp, r7
 800050e:	b009      	add	sp, #36	; 0x24
 8000510:	bd90      	pop	{r4, r7, pc}
 8000512:	46c0      	nop			; (mov r8, r8)
 8000514:	40021000 	.word	0x40021000
 8000518:	48000400 	.word	0x48000400

0800051c <Error_Handler>:
/**
  * @brief  This function is executed in case of error occurrence.
  * @retval None
  */
void Error_Handler(void)
{
 800051c:	b580      	push	{r7, lr}
 800051e:	af00      	add	r7, sp, #0
  \details Disables IRQ interrupts by setting the I-bit in the CPSR.
           Can only be executed in Privileged modes.
 */
__STATIC_FORCEINLINE void __disable_irq(void)
{
  __ASM volatile ("cpsid i" : : : "memory");
 8000520:	b672      	cpsid	i
  /* USER CODE BEGIN Error_Handler_Debug */
  /* User can add his own implementation to report the HAL error return state */
  __disable_irq();
  while (1)
 8000522:	e7fe      	b.n	8000522 <Error_Handler+0x6>

08000524 <HAL_MspInit>:
void HAL_TIM_MspPostInit(TIM_HandleTypeDef *htim);
                    /**
  * Initializes the Global MSP.
  */
void HAL_MspInit(void)
{
 8000524:	b580      	push	{r7, lr}
 8000526:	b082      	sub	sp, #8
 8000528:	af00      	add	r7, sp, #0
  /* USER CODE BEGIN MspInit 0 */

  /* USER CODE END MspInit 0 */

  __HAL_RCC_SYSCFG_CLK_ENABLE();
 800052a:	4b0f      	ldr	r3, [pc, #60]	; (8000568 <HAL_MspInit+0x44>)
 800052c:	699a      	ldr	r2, [r3, #24]
 800052e:	4b0e      	ldr	r3, [pc, #56]	; (8000568 <HAL_MspInit+0x44>)
 8000530:	2101      	movs	r1, #1
 8000532:	430a      	orrs	r2, r1
 8000534:	619a      	str	r2, [r3, #24]
 8000536:	4b0c      	ldr	r3, [pc, #48]	; (8000568 <HAL_MspInit+0x44>)
 8000538:	699b      	ldr	r3, [r3, #24]
 800053a:	2201      	movs	r2, #1
 800053c:	4013      	ands	r3, r2
 800053e:	607b      	str	r3, [r7, #4]
 8000540:	687b      	ldr	r3, [r7, #4]
  __HAL_RCC_PWR_CLK_ENABLE();
 8000542:	4b09      	ldr	r3, [pc, #36]	; (8000568 <HAL_MspInit+0x44>)
 8000544:	69da      	ldr	r2, [r3, #28]
 8000546:	4b08      	ldr	r3, [pc, #32]	; (8000568 <HAL_MspInit+0x44>)
 8000548:	2180      	movs	r1, #128	; 0x80
 800054a:	0549      	lsls	r1, r1, #21
 800054c:	430a      	orrs	r2, r1
 800054e:	61da      	str	r2, [r3, #28]
 8000550:	4b05      	ldr	r3, [pc, #20]	; (8000568 <HAL_MspInit+0x44>)
 8000552:	69da      	ldr	r2, [r3, #28]
 8000554:	2380      	movs	r3, #128	; 0x80
 8000556:	055b      	lsls	r3, r3, #21
 8000558:	4013      	ands	r3, r2
 800055a:	603b      	str	r3, [r7, #0]
 800055c:	683b      	ldr	r3, [r7, #0]
  /* System interrupt init*/

  /* USER CODE BEGIN MspInit 1 */

  /* USER CODE END MspInit 1 */
}
 800055e:	46c0      	nop			; (mov r8, r8)
 8000560:	46bd      	mov	sp, r7
 8000562:	b002      	add	sp, #8
 8000564:	bd80      	pop	{r7, pc}
 8000566:	46c0      	nop			; (mov r8, r8)
 8000568:	40021000 	.word	0x40021000

0800056c <HAL_TIM_PWM_MspInit>:
* This function configures the hardware resources used in this example
* @param htim_pwm: TIM_PWM handle pointer
* @retval None
*/
void HAL_TIM_PWM_MspInit(TIM_HandleTypeDef* htim_pwm)
{
 800056c:	b580      	push	{r7, lr}
 800056e:	b084      	sub	sp, #16
 8000570:	af00      	add	r7, sp, #0
 8000572:	6078      	str	r0, [r7, #4]
  if(htim_pwm->Instance==TIM3)
 8000574:	687b      	ldr	r3, [r7, #4]
 8000576:	681b      	ldr	r3, [r3, #0]
 8000578:	4a09      	ldr	r2, [pc, #36]	; (80005a0 <HAL_TIM_PWM_MspInit+0x34>)
 800057a:	4293      	cmp	r3, r2
 800057c:	d10b      	bne.n	8000596 <HAL_TIM_PWM_MspInit+0x2a>
  {
  /* USER CODE BEGIN TIM3_MspInit 0 */

  /* USER CODE END TIM3_MspInit 0 */
    /* Peripheral clock enable */
    __HAL_RCC_TIM3_CLK_ENABLE();
 800057e:	4b09      	ldr	r3, [pc, #36]	; (80005a4 <HAL_TIM_PWM_MspInit+0x38>)
 8000580:	69da      	ldr	r2, [r3, #28]
 8000582:	4b08      	ldr	r3, [pc, #32]	; (80005a4 <HAL_TIM_PWM_MspInit+0x38>)
 8000584:	2102      	movs	r1, #2
 8000586:	430a      	orrs	r2, r1
 8000588:	61da      	str	r2, [r3, #28]
 800058a:	4b06      	ldr	r3, [pc, #24]	; (80005a4 <HAL_TIM_PWM_MspInit+0x38>)
 800058c:	69db      	ldr	r3, [r3, #28]
 800058e:	2202      	movs	r2, #2
 8000590:	4013      	ands	r3, r2
 8000592:	60fb      	str	r3, [r7, #12]
 8000594:	68fb      	ldr	r3, [r7, #12]
  /* USER CODE BEGIN TIM3_MspInit 1 */

  /* USER CODE END TIM3_MspInit 1 */
  }

}
 8000596:	46c0      	nop			; (mov r8, r8)
 8000598:	46bd      	mov	sp, r7
 800059a:	b004      	add	sp, #16
 800059c:	bd80      	pop	{r7, pc}
 800059e:	46c0      	nop			; (mov r8, r8)
 80005a0:	40000400 	.word	0x40000400
 80005a4:	40021000 	.word	0x40021000

080005a8 <HAL_TIM_MspPostInit>:

void HAL_TIM_MspPostInit(TIM_HandleTypeDef* htim)
{
 80005a8:	b580      	push	{r7, lr}
 80005aa:	b088      	sub	sp, #32
 80005ac:	af00      	add	r7, sp, #0
 80005ae:	6078      	str	r0, [r7, #4]
  GPIO_InitTypeDef GPIO_InitStruct = {0};
 80005b0:	230c      	movs	r3, #12
 80005b2:	18fb      	adds	r3, r7, r3
 80005b4:	0018      	movs	r0, r3
 80005b6:	2314      	movs	r3, #20
 80005b8:	001a      	movs	r2, r3
 80005ba:	2100      	movs	r1, #0
 80005bc:	f002 f8e0 	bl	8002780 <memset>
  if(htim->Instance==TIM3)
 80005c0:	687b      	ldr	r3, [r7, #4]
 80005c2:	681b      	ldr	r3, [r3, #0]
 80005c4:	4a15      	ldr	r2, [pc, #84]	; (800061c <HAL_TIM_MspPostInit+0x74>)
 80005c6:	4293      	cmp	r3, r2
 80005c8:	d123      	bne.n	8000612 <HAL_TIM_MspPostInit+0x6a>
  {
  /* USER CODE BEGIN TIM3_MspPostInit 0 */

  /* USER CODE END TIM3_MspPostInit 0 */

    __HAL_RCC_GPIOB_CLK_ENABLE();
 80005ca:	4b15      	ldr	r3, [pc, #84]	; (8000620 <HAL_TIM_MspPostInit+0x78>)
 80005cc:	695a      	ldr	r2, [r3, #20]
 80005ce:	4b14      	ldr	r3, [pc, #80]	; (8000620 <HAL_TIM_MspPostInit+0x78>)
 80005d0:	2180      	movs	r1, #128	; 0x80
 80005d2:	02c9      	lsls	r1, r1, #11
 80005d4:	430a      	orrs	r2, r1
 80005d6:	615a      	str	r2, [r3, #20]
 80005d8:	4b11      	ldr	r3, [pc, #68]	; (8000620 <HAL_TIM_MspPostInit+0x78>)
 80005da:	695a      	ldr	r2, [r3, #20]
 80005dc:	2380      	movs	r3, #128	; 0x80
 80005de:	02db      	lsls	r3, r3, #11
 80005e0:	4013      	ands	r3, r2
 80005e2:	60bb      	str	r3, [r7, #8]
 80005e4:	68bb      	ldr	r3, [r7, #8]
    /**TIM3 GPIO Configuration
    PB0     ------> TIM3_CH3
    */
    GPIO_InitStruct.Pin = BUZZER_Pin;
 80005e6:	210c      	movs	r1, #12
 80005e8:	187b      	adds	r3, r7, r1
 80005ea:	2201      	movs	r2, #1
 80005ec:	601a      	str	r2, [r3, #0]
    GPIO_InitStruct.Mode = GPIO_MODE_AF_PP;
 80005ee:	187b      	adds	r3, r7, r1
 80005f0:	2202      	movs	r2, #2
 80005f2:	605a      	str	r2, [r3, #4]
    GPIO_InitStruct.Pull = GPIO_NOPULL;
 80005f4:	187b      	adds	r3, r7, r1
 80005f6:	2200      	movs	r2, #0
 80005f8:	609a      	str	r2, [r3, #8]
    GPIO_InitStruct.Speed = GPIO_SPEED_FREQ_LOW;
 80005fa:	187b      	adds	r3, r7, r1
 80005fc:	2200      	movs	r2, #0
 80005fe:	60da      	str	r2, [r3, #12]
    GPIO_InitStruct.Alternate = GPIO_AF1_TIM3;
 8000600:	187b      	adds	r3, r7, r1
 8000602:	2201      	movs	r2, #1
 8000604:	611a      	str	r2, [r3, #16]
    HAL_GPIO_Init(BUZZER_GPIO_Port, &GPIO_InitStruct);
 8000606:	187b      	adds	r3, r7, r1
 8000608:	4a06      	ldr	r2, [pc, #24]	; (8000624 <HAL_TIM_MspPostInit+0x7c>)
 800060a:	0019      	movs	r1, r3
 800060c:	0010      	movs	r0, r2
 800060e:	f000 f9f1 	bl	80009f4 <HAL_GPIO_Init>
  /* USER CODE BEGIN TIM3_MspPostInit 1 */

  /* USER CODE END TIM3_MspPostInit 1 */
  }

}
 8000612:	46c0      	nop			; (mov r8, r8)
 8000614:	46bd      	mov	sp, r7
 8000616:	b008      	add	sp, #32
 8000618:	bd80      	pop	{r7, pc}
 800061a:	46c0      	nop			; (mov r8, r8)
 800061c:	40000400 	.word	0x40000400
 8000620:	40021000 	.word	0x40021000
 8000624:	48000400 	.word	0x48000400

08000628 <HAL_UART_MspInit>:
* This function configures the hardware resources used in this example
* @param huart: UART handle pointer
* @retval None
*/
void HAL_UART_MspInit(UART_HandleTypeDef* huart)
{
 8000628:	b580      	push	{r7, lr}
 800062a:	b08a      	sub	sp, #40	; 0x28
 800062c:	af00      	add	r7, sp, #0
 800062e:	6078      	str	r0, [r7, #4]
  GPIO_InitTypeDef GPIO_InitStruct = {0};
 8000630:	2314      	movs	r3, #20
 8000632:	18fb      	adds	r3, r7, r3
 8000634:	0018      	movs	r0, r3
 8000636:	2314      	movs	r3, #20
 8000638:	001a      	movs	r2, r3
 800063a:	2100      	movs	r1, #0
 800063c:	f002 f8a0 	bl	8002780 <memset>
  if(huart->Instance==USART2)
 8000640:	687b      	ldr	r3, [r7, #4]
 8000642:	681b      	ldr	r3, [r3, #0]
 8000644:	4a1c      	ldr	r2, [pc, #112]	; (80006b8 <HAL_UART_MspInit+0x90>)
 8000646:	4293      	cmp	r3, r2
 8000648:	d132      	bne.n	80006b0 <HAL_UART_MspInit+0x88>
  {
  /* USER CODE BEGIN USART2_MspInit 0 */

  /* USER CODE END USART2_MspInit 0 */
    /* Peripheral clock enable */
    __HAL_RCC_USART2_CLK_ENABLE();
 800064a:	4b1c      	ldr	r3, [pc, #112]	; (80006bc <HAL_UART_MspInit+0x94>)
 800064c:	69da      	ldr	r2, [r3, #28]
 800064e:	4b1b      	ldr	r3, [pc, #108]	; (80006bc <HAL_UART_MspInit+0x94>)
 8000650:	2180      	movs	r1, #128	; 0x80
 8000652:	0289      	lsls	r1, r1, #10
 8000654:	430a      	orrs	r2, r1
 8000656:	61da      	str	r2, [r3, #28]
 8000658:	4b18      	ldr	r3, [pc, #96]	; (80006bc <HAL_UART_MspInit+0x94>)
 800065a:	69da      	ldr	r2, [r3, #28]
 800065c:	2380      	movs	r3, #128	; 0x80
 800065e:	029b      	lsls	r3, r3, #10
 8000660:	4013      	ands	r3, r2
 8000662:	613b      	str	r3, [r7, #16]
 8000664:	693b      	ldr	r3, [r7, #16]

    __HAL_RCC_GPIOA_CLK_ENABLE();
 8000666:	4b15      	ldr	r3, [pc, #84]	; (80006bc <HAL_UART_MspInit+0x94>)
 8000668:	695a      	ldr	r2, [r3, #20]
 800066a:	4b14      	ldr	r3, [pc, #80]	; (80006bc <HAL_UART_MspInit+0x94>)
 800066c:	2180      	movs	r1, #128	; 0x80
 800066e:	0289      	lsls	r1, r1, #10
 8000670:	430a      	orrs	r2, r1
 8000672:	615a      	str	r2, [r3, #20]
 8000674:	4b11      	ldr	r3, [pc, #68]	; (80006bc <HAL_UART_MspInit+0x94>)
 8000676:	695a      	ldr	r2, [r3, #20]
 8000678:	2380      	movs	r3, #128	; 0x80
 800067a:	029b      	lsls	r3, r3, #10
 800067c:	4013      	ands	r3, r2
 800067e:	60fb      	str	r3, [r7, #12]
 8000680:	68fb      	ldr	r3, [r7, #12]
    /**USART2 GPIO Configuration
    PA2     ------> USART2_TX
    PA15     ------> USART2_RX
    */
    GPIO_InitStruct.Pin = VCP_TX_Pin|VCP_RX_Pin;
 8000682:	2114      	movs	r1, #20
 8000684:	187b      	adds	r3, r7, r1
 8000686:	4a0e      	ldr	r2, [pc, #56]	; (80006c0 <HAL_UART_MspInit+0x98>)
 8000688:	601a      	str	r2, [r3, #0]
    GPIO_InitStruct.Mode = GPIO_MODE_AF_PP;
 800068a:	187b      	adds	r3, r7, r1
 800068c:	2202      	movs	r2, #2
 800068e:	605a      	str	r2, [r3, #4]
    GPIO_InitStruct.Pull = GPIO_NOPULL;
 8000690:	187b      	adds	r3, r7, r1
 8000692:	2200      	movs	r2, #0
 8000694:	609a      	str	r2, [r3, #8]
    GPIO_InitStruct.Speed = GPIO_SPEED_FREQ_HIGH;
 8000696:	187b      	adds	r3, r7, r1
 8000698:	2203      	movs	r2, #3
 800069a:	60da      	str	r2, [r3, #12]
    GPIO_InitStruct.Alternate = GPIO_AF1_USART2;
 800069c:	187b      	adds	r3, r7, r1
 800069e:	2201      	movs	r2, #1
 80006a0:	611a      	str	r2, [r3, #16]
    HAL_GPIO_Init(GPIOA, &GPIO_InitStruct);
 80006a2:	187a      	adds	r2, r7, r1
 80006a4:	2390      	movs	r3, #144	; 0x90
 80006a6:	05db      	lsls	r3, r3, #23
 80006a8:	0011      	movs	r1, r2
 80006aa:	0018      	movs	r0, r3
 80006ac:	f000 f9a2 	bl	80009f4 <HAL_GPIO_Init>
  /* USER CODE BEGIN USART2_MspInit 1 */

  /* USER CODE END USART2_MspInit 1 */
  }

}
 80006b0:	46c0      	nop			; (mov r8, r8)
 80006b2:	46bd      	mov	sp, r7
 80006b4:	b00a      	add	sp, #40	; 0x28
 80006b6:	bd80      	pop	{r7, pc}
 80006b8:	40004400 	.word	0x40004400
 80006bc:	40021000 	.word	0x40021000
 80006c0:	00008004 	.word	0x00008004

080006c4 <NMI_Handler>:
/******************************************************************************/
/**
  * @brief This function handles Non maskable interrupt.
  */
void NMI_Handler(void)
{
 80006c4:	b580      	push	{r7, lr}
 80006c6:	af00      	add	r7, sp, #0
  /* USER CODE BEGIN NonMaskableInt_IRQn 0 */

  /* USER CODE END NonMaskableInt_IRQn 0 */
  /* USER CODE BEGIN NonMaskableInt_IRQn 1 */
  while (1)
 80006c8:	e7fe      	b.n	80006c8 <NMI_Handler+0x4>

080006ca <HardFault_Handler>:

/**
  * @brief This function handles Hard fault interrupt.
  */
void HardFault_Handler(void)
{
 80006ca:	b580      	push	{r7, lr}
 80006cc:	af00      	add	r7, sp, #0
  /* USER CODE BEGIN HardFault_IRQn 0 */

  /* USER CODE END HardFault_IRQn 0 */
  while (1)
 80006ce:	e7fe      	b.n	80006ce <HardFault_Handler+0x4>

080006d0 <SVC_Handler>:

/**
  * @brief This function handles System service call via SWI instruction.
  */
void SVC_Handler(void)
{
 80006d0:	b580      	push	{r7, lr}
 80006d2:	af00      	add	r7, sp, #0

  /* USER CODE END SVC_IRQn 0 */
  /* USER CODE BEGIN SVC_IRQn 1 */

  /* USER CODE END SVC_IRQn 1 */
}
 80006d4:	46c0      	nop			; (mov r8, r8)
 80006d6:	46bd      	mov	sp, r7
 80006d8:	bd80      	pop	{r7, pc}

080006da <PendSV_Handler>:

/**
  * @brief This function handles Pendable request for system service.
  */
void PendSV_Handler(void)
{
 80006da:	b580      	push	{r7, lr}
 80006dc:	af00      	add	r7, sp, #0

  /* USER CODE END PendSV_IRQn 0 */
  /* USER CODE BEGIN PendSV_IRQn 1 */

  /* USER CODE END PendSV_IRQn 1 */
}
 80006de:	46c0      	nop			; (mov r8, r8)
 80006e0:	46bd      	mov	sp, r7
 80006e2:	bd80      	pop	{r7, pc}

080006e4 <SysTick_Handler>:

/**
  * @brief This function handles System tick timer.
  */
void SysTick_Handler(void)
{
 80006e4:	b580      	push	{r7, lr}
 80006e6:	af00      	add	r7, sp, #0
  /* USER CODE BEGIN SysTick_IRQn 0 */

  /* USER CODE END SysTick_IRQn 0 */
  HAL_IncTick();
 80006e8:	f000 f892 	bl	8000810 <HAL_IncTick>
  /* USER CODE BEGIN SysTick_IRQn 1 */

  /* USER CODE END SysTick_IRQn 1 */
}
 80006ec:	46c0      	nop			; (mov r8, r8)
 80006ee:	46bd      	mov	sp, r7
 80006f0:	bd80      	pop	{r7, pc}

080006f2 <SystemInit>:
  * @brief  Setup the microcontroller system
  * @param  None
  * @retval None
  */
void SystemInit(void)
{
 80006f2:	b580      	push	{r7, lr}
 80006f4:	af00      	add	r7, sp, #0
                         before branch to main program. This call is made inside
                         the "startup_stm32f0xx.s" file.
                         User can setups the default system clock (System clock source, PLL Multiplier
                         and Divider factors, AHB/APBx prescalers and Flash settings).
   */
}
 80006f6:	46c0      	nop			; (mov r8, r8)
 80006f8:	46bd      	mov	sp, r7
 80006fa:	bd80      	pop	{r7, pc}

080006fc <Reset_Handler>:

  .section .text.Reset_Handler
  .weak Reset_Handler
  .type Reset_Handler, %function
Reset_Handler:
  ldr   r0, =_estack
 80006fc:	4813      	ldr	r0, [pc, #76]	; (800074c <LoopForever+0x2>)
  mov   sp, r0          /* set stack pointer */
 80006fe:	4685      	mov	sp, r0

/*Check if boot space corresponds to test memory*/
 
    LDR R0,=0x00000004
 8000700:	4813      	ldr	r0, [pc, #76]	; (8000750 <LoopForever+0x6>)
    LDR R1, [R0]
 8000702:	6801      	ldr	r1, [r0, #0]
    LSRS R1, R1, #24
 8000704:	0e09      	lsrs	r1, r1, #24
    LDR R2,=0x1F
 8000706:	4a13      	ldr	r2, [pc, #76]	; (8000754 <LoopForever+0xa>)
    CMP R1, R2
 8000708:	4291      	cmp	r1, r2
    BNE ApplicationStart
 800070a:	d105      	bne.n	8000718 <ApplicationStart>

 /*SYSCFG clock enable*/

    LDR R0,=0x40021018
 800070c:	4812      	ldr	r0, [pc, #72]	; (8000758 <LoopForever+0xe>)
    LDR R1,=0x00000001
 800070e:	4913      	ldr	r1, [pc, #76]	; (800075c <LoopForever+0x12>)
    STR R1, [R0]
 8000710:	6001      	str	r1, [r0, #0]

/*Set CFGR1 register with flash memory remap at address 0*/
    LDR R0,=0x40010000
 8000712:	4813      	ldr	r0, [pc, #76]	; (8000760 <LoopForever+0x16>)
    LDR R1,=0x00000000
 8000714:	4913      	ldr	r1, [pc, #76]	; (8000764 <LoopForever+0x1a>)
    STR R1, [R0]
 8000716:	6001      	str	r1, [r0, #0]

08000718 <ApplicationStart>:

ApplicationStart:
/* Copy the data segment initializers from flash to SRAM */
  ldr r0, =_sdata
 8000718:	4813      	ldr	r0, [pc, #76]	; (8000768 <LoopForever+0x1e>)
  ldr r1, =_edata
 800071a:	4914      	ldr	r1, [pc, #80]	; (800076c <LoopForever+0x22>)
  ldr r2, =_sidata
 800071c:	4a14      	ldr	r2, [pc, #80]	; (8000770 <LoopForever+0x26>)
  movs r3, #0
 800071e:	2300      	movs	r3, #0
  b LoopCopyDataInit
 8000720:	e002      	b.n	8000728 <LoopCopyDataInit>

08000722 <CopyDataInit>:

CopyDataInit:
  ldr r4, [r2, r3]
 8000722:	58d4      	ldr	r4, [r2, r3]
  str r4, [r0, r3]
 8000724:	50c4      	str	r4, [r0, r3]
  adds r3, r3, #4
 8000726:	3304      	adds	r3, #4

08000728 <LoopCopyDataInit>:

LoopCopyDataInit:
  adds r4, r0, r3
 8000728:	18c4      	adds	r4, r0, r3
  cmp r4, r1
 800072a:	428c      	cmp	r4, r1
  bcc CopyDataInit
 800072c:	d3f9      	bcc.n	8000722 <CopyDataInit>
  
/* Zero fill the bss segment. */
  ldr r2, =_sbss
 800072e:	4a11      	ldr	r2, [pc, #68]	; (8000774 <LoopForever+0x2a>)
  ldr r4, =_ebss
 8000730:	4c11      	ldr	r4, [pc, #68]	; (8000778 <LoopForever+0x2e>)
  movs r3, #0
 8000732:	2300      	movs	r3, #0
  b LoopFillZerobss
 8000734:	e001      	b.n	800073a <LoopFillZerobss>

08000736 <FillZerobss>:

FillZerobss:
  str  r3, [r2]
 8000736:	6013      	str	r3, [r2, #0]
  adds r2, r2, #4
 8000738:	3204      	adds	r2, #4

0800073a <LoopFillZerobss>:

LoopFillZerobss:
  cmp r2, r4
 800073a:	42a2      	cmp	r2, r4
  bcc FillZerobss
 800073c:	d3fb      	bcc.n	8000736 <FillZerobss>

/* Call the clock system intitialization function.*/
  bl  SystemInit
 800073e:	f7ff ffd8 	bl	80006f2 <SystemInit>
/* Call static constructors */
  bl __libc_init_array
 8000742:	f001 fff9 	bl	8002738 <__libc_init_array>
/* Call the application's entry point.*/
  bl main
 8000746:	f7ff fd6b 	bl	8000220 <main>

0800074a <LoopForever>:

LoopForever:
    b LoopForever
 800074a:	e7fe      	b.n	800074a <LoopForever>
  ldr   r0, =_estack
 800074c:	20001800 	.word	0x20001800
    LDR R0,=0x00000004
 8000750:	00000004 	.word	0x00000004
    LDR R2,=0x1F
 8000754:	0000001f 	.word	0x0000001f
    LDR R0,=0x40021018
 8000758:	40021018 	.word	0x40021018
    LDR R1,=0x00000001
 800075c:	00000001 	.word	0x00000001
    LDR R0,=0x40010000
 8000760:	40010000 	.word	0x40010000
    LDR R1,=0x00000000
 8000764:	00000000 	.word	0x00000000
  ldr r0, =_sdata
 8000768:	20000000 	.word	0x20000000
  ldr r1, =_edata
 800076c:	2000000c 	.word	0x2000000c
  ldr r2, =_sidata
 8000770:	080027e8 	.word	0x080027e8
  ldr r2, =_sbss
 8000774:	2000000c 	.word	0x2000000c
  ldr r4, =_ebss
 8000778:	200000f8 	.word	0x200000f8

0800077c <ADC1_IRQHandler>:
 * @retval : None
*/
    .section .text.Default_Handler,"ax",%progbits
Default_Handler:
Infinite_Loop:
  b Infinite_Loop
 800077c:	e7fe      	b.n	800077c <ADC1_IRQHandler>
	...

08000780 <HAL_Init>:
  *       In the default implementation,Systick is used as source of time base.
  *       The tick variable is incremented each 1ms in its ISR.
  * @retval HAL status
  */
HAL_StatusTypeDef HAL_Init(void)
{
 8000780:	b580      	push	{r7, lr}
 8000782:	af00      	add	r7, sp, #0
  /* Configure Flash prefetch */ 
#if (PREFETCH_ENABLE != 0)
  __HAL_FLASH_PREFETCH_BUFFER_ENABLE();
 8000784:	4b07      	ldr	r3, [pc, #28]	; (80007a4 <HAL_Init+0x24>)
 8000786:	681a      	ldr	r2, [r3, #0]
 8000788:	4b06      	ldr	r3, [pc, #24]	; (80007a4 <HAL_Init+0x24>)
 800078a:	2110      	movs	r1, #16
 800078c:	430a      	orrs	r2, r1
 800078e:	601a      	str	r2, [r3, #0]
#endif /* PREFETCH_ENABLE */

  /* Use systick as time base source and configure 1ms tick (default clock after Reset is HSI) */

  HAL_InitTick(TICK_INT_PRIORITY);
 8000790:	2000      	movs	r0, #0
 8000792:	f000 f809 	bl	80007a8 <HAL_InitTick>

  /* Init the low level hardware */
  HAL_MspInit();
 8000796:	f7ff fec5 	bl	8000524 <HAL_MspInit>

  /* Return function status */
  return HAL_OK;
 800079a:	2300      	movs	r3, #0
}
 800079c:	0018      	movs	r0, r3
 800079e:	46bd      	mov	sp, r7
 80007a0:	bd80      	pop	{r7, pc}
 80007a2:	46c0      	nop			; (mov r8, r8)
 80007a4:	40022000 	.word	0x40022000

080007a8 <HAL_InitTick>:
  *       implementation  in user file.
  * @param TickPriority Tick interrupt priority.
  * @retval HAL status
  */
__weak HAL_StatusTypeDef HAL_InitTick(uint32_t TickPriority)
{
 80007a8:	b590      	push	{r4, r7, lr}
 80007aa:	b083      	sub	sp, #12
 80007ac:	af00      	add	r7, sp, #0
 80007ae:	6078      	str	r0, [r7, #4]
  /*Configure the SysTick to have interrupt in 1ms time basis*/
  if (HAL_SYSTICK_Config(SystemCoreClock / (1000U / uwTickFreq)) > 0U)
 80007b0:	4b14      	ldr	r3, [pc, #80]	; (8000804 <HAL_InitTick+0x5c>)
 80007b2:	681c      	ldr	r4, [r3, #0]
 80007b4:	4b14      	ldr	r3, [pc, #80]	; (8000808 <HAL_InitTick+0x60>)
 80007b6:	781b      	ldrb	r3, [r3, #0]
 80007b8:	0019      	movs	r1, r3
 80007ba:	23fa      	movs	r3, #250	; 0xfa
 80007bc:	0098      	lsls	r0, r3, #2
 80007be:	f7ff fca3 	bl	8000108 <__udivsi3>
 80007c2:	0003      	movs	r3, r0
 80007c4:	0019      	movs	r1, r3
 80007c6:	0020      	movs	r0, r4
 80007c8:	f7ff fc9e 	bl	8000108 <__udivsi3>
 80007cc:	0003      	movs	r3, r0
 80007ce:	0018      	movs	r0, r3
 80007d0:	f000 f903 	bl	80009da <HAL_SYSTICK_Config>
 80007d4:	1e03      	subs	r3, r0, #0
 80007d6:	d001      	beq.n	80007dc <HAL_InitTick+0x34>
  {
    return HAL_ERROR;
 80007d8:	2301      	movs	r3, #1
 80007da:	e00f      	b.n	80007fc <HAL_InitTick+0x54>
  }

  /* Configure the SysTick IRQ priority */
  if (TickPriority < (1UL << __NVIC_PRIO_BITS))
 80007dc:	687b      	ldr	r3, [r7, #4]
 80007de:	2b03      	cmp	r3, #3
 80007e0:	d80b      	bhi.n	80007fa <HAL_InitTick+0x52>
  {
    HAL_NVIC_SetPriority(SysTick_IRQn, TickPriority, 0U);
 80007e2:	6879      	ldr	r1, [r7, #4]
 80007e4:	2301      	movs	r3, #1
 80007e6:	425b      	negs	r3, r3
 80007e8:	2200      	movs	r2, #0
 80007ea:	0018      	movs	r0, r3
 80007ec:	f000 f8e0 	bl	80009b0 <HAL_NVIC_SetPriority>
    uwTickPrio = TickPriority;
 80007f0:	4b06      	ldr	r3, [pc, #24]	; (800080c <HAL_InitTick+0x64>)
 80007f2:	687a      	ldr	r2, [r7, #4]
 80007f4:	601a      	str	r2, [r3, #0]
  {
    return HAL_ERROR;
  }

   /* Return function status */
  return HAL_OK;
 80007f6:	2300      	movs	r3, #0
 80007f8:	e000      	b.n	80007fc <HAL_InitTick+0x54>
    return HAL_ERROR;
 80007fa:	2301      	movs	r3, #1
}
 80007fc:	0018      	movs	r0, r3
 80007fe:	46bd      	mov	sp, r7
 8000800:	b003      	add	sp, #12
 8000802:	bd90      	pop	{r4, r7, pc}
 8000804:	20000000 	.word	0x20000000
 8000808:	20000008 	.word	0x20000008
 800080c:	20000004 	.word	0x20000004

08000810 <HAL_IncTick>:
  * @note This function is declared as __weak to be overwritten in case of other 
  *       implementations in user file.
  * @retval None
  */
__weak void HAL_IncTick(void)
{
 8000810:	b580      	push	{r7, lr}
 8000812:	af00      	add	r7, sp, #0
  uwTick += uwTickFreq;
 8000814:	4b05      	ldr	r3, [pc, #20]	; (800082c <HAL_IncTick+0x1c>)
 8000816:	781b      	ldrb	r3, [r3, #0]
 8000818:	001a      	movs	r2, r3
 800081a:	4b05      	ldr	r3, [pc, #20]	; (8000830 <HAL_IncTick+0x20>)
 800081c:	681b      	ldr	r3, [r3, #0]
 800081e:	18d2      	adds	r2, r2, r3
 8000820:	4b03      	ldr	r3, [pc, #12]	; (8000830 <HAL_IncTick+0x20>)
 8000822:	601a      	str	r2, [r3, #0]
}
 8000824:	46c0      	nop			; (mov r8, r8)
 8000826:	46bd      	mov	sp, r7
 8000828:	bd80      	pop	{r7, pc}
 800082a:	46c0      	nop			; (mov r8, r8)
 800082c:	20000008 	.word	0x20000008
 8000830:	200000f4 	.word	0x200000f4

08000834 <HAL_GetTick>:
  * @note   This function is declared as __weak  to be overwritten  in case of other 
  *       implementations in user file.
  * @retval tick value
  */
__weak uint32_t HAL_GetTick(void)
{
 8000834:	b580      	push	{r7, lr}
 8000836:	af00      	add	r7, sp, #0
  return uwTick;
 8000838:	4b02      	ldr	r3, [pc, #8]	; (8000844 <HAL_GetTick+0x10>)
 800083a:	681b      	ldr	r3, [r3, #0]
}
 800083c:	0018      	movs	r0, r3
 800083e:	46bd      	mov	sp, r7
 8000840:	bd80      	pop	{r7, pc}
 8000842:	46c0      	nop			; (mov r8, r8)
 8000844:	200000f4 	.word	0x200000f4

08000848 <HAL_Delay>:
  *       implementations in user file.
  * @param Delay specifies the delay time length, in milliseconds.
  * @retval None
  */
__weak void HAL_Delay(uint32_t Delay)
{
 8000848:	b580      	push	{r7, lr}
 800084a:	b084      	sub	sp, #16
 800084c:	af00      	add	r7, sp, #0
 800084e:	6078      	str	r0, [r7, #4]
  uint32_t tickstart = HAL_GetTick();
 8000850:	f7ff fff0 	bl	8000834 <HAL_GetTick>
 8000854:	0003      	movs	r3, r0
 8000856:	60bb      	str	r3, [r7, #8]
  uint32_t wait = Delay;
 8000858:	687b      	ldr	r3, [r7, #4]
 800085a:	60fb      	str	r3, [r7, #12]
  
  /* Add a freq to guarantee minimum wait */
  if (wait < HAL_MAX_DELAY)
 800085c:	68fb      	ldr	r3, [r7, #12]
 800085e:	3301      	adds	r3, #1
 8000860:	d005      	beq.n	800086e <HAL_Delay+0x26>
  {
    wait += (uint32_t)(uwTickFreq);
 8000862:	4b09      	ldr	r3, [pc, #36]	; (8000888 <HAL_Delay+0x40>)
 8000864:	781b      	ldrb	r3, [r3, #0]
 8000866:	001a      	movs	r2, r3
 8000868:	68fb      	ldr	r3, [r7, #12]
 800086a:	189b      	adds	r3, r3, r2
 800086c:	60fb      	str	r3, [r7, #12]
  }
  
  while((HAL_GetTick() - tickstart) < wait)
 800086e:	46c0      	nop			; (mov r8, r8)
 8000870:	f7ff ffe0 	bl	8000834 <HAL_GetTick>
 8000874:	0002      	movs	r2, r0
 8000876:	68bb      	ldr	r3, [r7, #8]
 8000878:	1ad3      	subs	r3, r2, r3
 800087a:	68fa      	ldr	r2, [r7, #12]
 800087c:	429a      	cmp	r2, r3
 800087e:	d8f7      	bhi.n	8000870 <HAL_Delay+0x28>
  {
  }
}
 8000880:	46c0      	nop			; (mov r8, r8)
 8000882:	46bd      	mov	sp, r7
 8000884:	b004      	add	sp, #16
 8000886:	bd80      	pop	{r7, pc}
 8000888:	20000008 	.word	0x20000008

0800088c <__NVIC_SetPriority>:
  \param [in]      IRQn  Interrupt number.
  \param [in]  priority  Priority to set.
  \note    The priority cannot be set for every processor exception.
 */
__STATIC_INLINE void __NVIC_SetPriority(IRQn_Type IRQn, uint32_t priority)
{
 800088c:	b590      	push	{r4, r7, lr}
 800088e:	b083      	sub	sp, #12
 8000890:	af00      	add	r7, sp, #0
 8000892:	0002      	movs	r2, r0
 8000894:	6039      	str	r1, [r7, #0]
 8000896:	1dfb      	adds	r3, r7, #7
 8000898:	701a      	strb	r2, [r3, #0]
  if ((int32_t)(IRQn) >= 0)
 800089a:	1dfb      	adds	r3, r7, #7
 800089c:	781b      	ldrb	r3, [r3, #0]
 800089e:	2b7f      	cmp	r3, #127	; 0x7f
 80008a0:	d828      	bhi.n	80008f4 <__NVIC_SetPriority+0x68>
  {
    NVIC->IP[_IP_IDX(IRQn)]  = ((uint32_t)(NVIC->IP[_IP_IDX(IRQn)]  & ~(0xFFUL << _BIT_SHIFT(IRQn))) |
 80008a2:	4a2f      	ldr	r2, [pc, #188]	; (8000960 <__NVIC_SetPriority+0xd4>)
 80008a4:	1dfb      	adds	r3, r7, #7
 80008a6:	781b      	ldrb	r3, [r3, #0]
 80008a8:	b25b      	sxtb	r3, r3
 80008aa:	089b      	lsrs	r3, r3, #2
 80008ac:	33c0      	adds	r3, #192	; 0xc0
 80008ae:	009b      	lsls	r3, r3, #2
 80008b0:	589b      	ldr	r3, [r3, r2]
 80008b2:	1dfa      	adds	r2, r7, #7
 80008b4:	7812      	ldrb	r2, [r2, #0]
 80008b6:	0011      	movs	r1, r2
 80008b8:	2203      	movs	r2, #3
 80008ba:	400a      	ands	r2, r1
 80008bc:	00d2      	lsls	r2, r2, #3
 80008be:	21ff      	movs	r1, #255	; 0xff
 80008c0:	4091      	lsls	r1, r2
 80008c2:	000a      	movs	r2, r1
 80008c4:	43d2      	mvns	r2, r2
 80008c6:	401a      	ands	r2, r3
 80008c8:	0011      	movs	r1, r2
       (((priority << (8U - __NVIC_PRIO_BITS)) & (uint32_t)0xFFUL) << _BIT_SHIFT(IRQn)));
 80008ca:	683b      	ldr	r3, [r7, #0]
 80008cc:	019b      	lsls	r3, r3, #6
 80008ce:	22ff      	movs	r2, #255	; 0xff
 80008d0:	401a      	ands	r2, r3
 80008d2:	1dfb      	adds	r3, r7, #7
 80008d4:	781b      	ldrb	r3, [r3, #0]
 80008d6:	0018      	movs	r0, r3
 80008d8:	2303      	movs	r3, #3
 80008da:	4003      	ands	r3, r0
 80008dc:	00db      	lsls	r3, r3, #3
 80008de:	409a      	lsls	r2, r3
    NVIC->IP[_IP_IDX(IRQn)]  = ((uint32_t)(NVIC->IP[_IP_IDX(IRQn)]  & ~(0xFFUL << _BIT_SHIFT(IRQn))) |
 80008e0:	481f      	ldr	r0, [pc, #124]	; (8000960 <__NVIC_SetPriority+0xd4>)
 80008e2:	1dfb      	adds	r3, r7, #7
 80008e4:	781b      	ldrb	r3, [r3, #0]
 80008e6:	b25b      	sxtb	r3, r3
 80008e8:	089b      	lsrs	r3, r3, #2
 80008ea:	430a      	orrs	r2, r1
 80008ec:	33c0      	adds	r3, #192	; 0xc0
 80008ee:	009b      	lsls	r3, r3, #2
 80008f0:	501a      	str	r2, [r3, r0]
  else
  {
    SCB->SHP[_SHP_IDX(IRQn)] = ((uint32_t)(SCB->SHP[_SHP_IDX(IRQn)] & ~(0xFFUL << _BIT_SHIFT(IRQn))) |
       (((priority << (8U - __NVIC_PRIO_BITS)) & (uint32_t)0xFFUL) << _BIT_SHIFT(IRQn)));
  }
}
 80008f2:	e031      	b.n	8000958 <__NVIC_SetPriority+0xcc>
    SCB->SHP[_SHP_IDX(IRQn)] = ((uint32_t)(SCB->SHP[_SHP_IDX(IRQn)] & ~(0xFFUL << _BIT_SHIFT(IRQn))) |
 80008f4:	4a1b      	ldr	r2, [pc, #108]	; (8000964 <__NVIC_SetPriority+0xd8>)
 80008f6:	1dfb      	adds	r3, r7, #7
 80008f8:	781b      	ldrb	r3, [r3, #0]
 80008fa:	0019      	movs	r1, r3
 80008fc:	230f      	movs	r3, #15
 80008fe:	400b      	ands	r3, r1
 8000900:	3b08      	subs	r3, #8
 8000902:	089b      	lsrs	r3, r3, #2
 8000904:	3306      	adds	r3, #6
 8000906:	009b      	lsls	r3, r3, #2
 8000908:	18d3      	adds	r3, r2, r3
 800090a:	3304      	adds	r3, #4
 800090c:	681b      	ldr	r3, [r3, #0]
 800090e:	1dfa      	adds	r2, r7, #7
 8000910:	7812      	ldrb	r2, [r2, #0]
 8000912:	0011      	movs	r1, r2
 8000914:	2203      	movs	r2, #3
 8000916:	400a      	ands	r2, r1
 8000918:	00d2      	lsls	r2, r2, #3
 800091a:	21ff      	movs	r1, #255	; 0xff
 800091c:	4091      	lsls	r1, r2
 800091e:	000a      	movs	r2, r1
 8000920:	43d2      	mvns	r2, r2
 8000922:	401a      	ands	r2, r3
 8000924:	0011      	movs	r1, r2
       (((priority << (8U - __NVIC_PRIO_BITS)) & (uint32_t)0xFFUL) << _BIT_SHIFT(IRQn)));
 8000926:	683b      	ldr	r3, [r7, #0]
 8000928:	019b      	lsls	r3, r3, #6
 800092a:	22ff      	movs	r2, #255	; 0xff
 800092c:	401a      	ands	r2, r3
 800092e:	1dfb      	adds	r3, r7, #7
 8000930:	781b      	ldrb	r3, [r3, #0]
 8000932:	0018      	movs	r0, r3
 8000934:	2303      	movs	r3, #3
 8000936:	4003      	ands	r3, r0
 8000938:	00db      	lsls	r3, r3, #3
 800093a:	409a      	lsls	r2, r3
    SCB->SHP[_SHP_IDX(IRQn)] = ((uint32_t)(SCB->SHP[_SHP_IDX(IRQn)] & ~(0xFFUL << _BIT_SHIFT(IRQn))) |
 800093c:	4809      	ldr	r0, [pc, #36]	; (8000964 <__NVIC_SetPriority+0xd8>)
 800093e:	1dfb      	adds	r3, r7, #7
 8000940:	781b      	ldrb	r3, [r3, #0]
 8000942:	001c      	movs	r4, r3
 8000944:	230f      	movs	r3, #15
 8000946:	4023      	ands	r3, r4
 8000948:	3b08      	subs	r3, #8
 800094a:	089b      	lsrs	r3, r3, #2
 800094c:	430a      	orrs	r2, r1
 800094e:	3306      	adds	r3, #6
 8000950:	009b      	lsls	r3, r3, #2
 8000952:	18c3      	adds	r3, r0, r3
 8000954:	3304      	adds	r3, #4
 8000956:	601a      	str	r2, [r3, #0]
}
 8000958:	46c0      	nop			; (mov r8, r8)
 800095a:	46bd      	mov	sp, r7
 800095c:	b003      	add	sp, #12
 800095e:	bd90      	pop	{r4, r7, pc}
 8000960:	e000e100 	.word	0xe000e100
 8000964:	e000ed00 	.word	0xe000ed00

08000968 <SysTick_Config>:
  \note    When the variable <b>__Vendor_SysTickConfig</b> is set to 1, then the
           function <b>SysTick_Config</b> is not included. In this case, the file <b><i>device</i>.h</b>
           must contain a vendor-specific implementation of this function.
 */
__STATIC_INLINE uint32_t SysTick_Config(uint32_t ticks)
{
 8000968:	b580      	push	{r7, lr}
 800096a:	b082      	sub	sp, #8
 800096c:	af00      	add	r7, sp, #0
 800096e:	6078      	str	r0, [r7, #4]
  if ((ticks - 1UL) > SysTick_LOAD_RELOAD_Msk)
 8000970:	687b      	ldr	r3, [r7, #4]
 8000972:	3b01      	subs	r3, #1
 8000974:	4a0c      	ldr	r2, [pc, #48]	; (80009a8 <SysTick_Config+0x40>)
 8000976:	4293      	cmp	r3, r2
 8000978:	d901      	bls.n	800097e <SysTick_Config+0x16>
  {
    return (1UL);                                                   /* Reload value impossible */
 800097a:	2301      	movs	r3, #1
 800097c:	e010      	b.n	80009a0 <SysTick_Config+0x38>
  }

  SysTick->LOAD  = (uint32_t)(ticks - 1UL);                         /* set reload register */
 800097e:	4b0b      	ldr	r3, [pc, #44]	; (80009ac <SysTick_Config+0x44>)
 8000980:	687a      	ldr	r2, [r7, #4]
 8000982:	3a01      	subs	r2, #1
 8000984:	605a      	str	r2, [r3, #4]
  NVIC_SetPriority (SysTick_IRQn, (1UL << __NVIC_PRIO_BITS) - 1UL); /* set Priority for Systick Interrupt */
 8000986:	2301      	movs	r3, #1
 8000988:	425b      	negs	r3, r3
 800098a:	2103      	movs	r1, #3
 800098c:	0018      	movs	r0, r3
 800098e:	f7ff ff7d 	bl	800088c <__NVIC_SetPriority>
  SysTick->VAL   = 0UL;                                             /* Load the SysTick Counter Value */
 8000992:	4b06      	ldr	r3, [pc, #24]	; (80009ac <SysTick_Config+0x44>)
 8000994:	2200      	movs	r2, #0
 8000996:	609a      	str	r2, [r3, #8]
  SysTick->CTRL  = SysTick_CTRL_CLKSOURCE_Msk |
 8000998:	4b04      	ldr	r3, [pc, #16]	; (80009ac <SysTick_Config+0x44>)
 800099a:	2207      	movs	r2, #7
 800099c:	601a      	str	r2, [r3, #0]
                   SysTick_CTRL_TICKINT_Msk   |
                   SysTick_CTRL_ENABLE_Msk;                         /* Enable SysTick IRQ and SysTick Timer */
  return (0UL);                                                     /* Function successful */
 800099e:	2300      	movs	r3, #0
}
 80009a0:	0018      	movs	r0, r3
 80009a2:	46bd      	mov	sp, r7
 80009a4:	b002      	add	sp, #8
 80009a6:	bd80      	pop	{r7, pc}
 80009a8:	00ffffff 	.word	0x00ffffff
 80009ac:	e000e010 	.word	0xe000e010

080009b0 <HAL_NVIC_SetPriority>:
  *         with stm32f0xx devices, this parameter is a dummy value and it is ignored, because 
  *         no subpriority supported in Cortex M0 based products.   
  * @retval None
  */
void HAL_NVIC_SetPriority(IRQn_Type IRQn, uint32_t PreemptPriority, uint32_t SubPriority)
{ 
 80009b0:	b580      	push	{r7, lr}
 80009b2:	b084      	sub	sp, #16
 80009b4:	af00      	add	r7, sp, #0
 80009b6:	60b9      	str	r1, [r7, #8]
 80009b8:	607a      	str	r2, [r7, #4]
 80009ba:	210f      	movs	r1, #15
 80009bc:	187b      	adds	r3, r7, r1
 80009be:	1c02      	adds	r2, r0, #0
 80009c0:	701a      	strb	r2, [r3, #0]
  /* Check the parameters */
  assert_param(IS_NVIC_PREEMPTION_PRIORITY(PreemptPriority));
  NVIC_SetPriority(IRQn,PreemptPriority);
 80009c2:	68ba      	ldr	r2, [r7, #8]
 80009c4:	187b      	adds	r3, r7, r1
 80009c6:	781b      	ldrb	r3, [r3, #0]
 80009c8:	b25b      	sxtb	r3, r3
 80009ca:	0011      	movs	r1, r2
 80009cc:	0018      	movs	r0, r3
 80009ce:	f7ff ff5d 	bl	800088c <__NVIC_SetPriority>
}
 80009d2:	46c0      	nop			; (mov r8, r8)
 80009d4:	46bd      	mov	sp, r7
 80009d6:	b004      	add	sp, #16
 80009d8:	bd80      	pop	{r7, pc}

080009da <HAL_SYSTICK_Config>:
  * @param  TicksNumb Specifies the ticks Number of ticks between two interrupts.
  * @retval status:  - 0  Function succeeded.
  *                  - 1  Function failed.
  */
uint32_t HAL_SYSTICK_Config(uint32_t TicksNumb)
{
 80009da:	b580      	push	{r7, lr}
 80009dc:	b082      	sub	sp, #8
 80009de:	af00      	add	r7, sp, #0
 80009e0:	6078      	str	r0, [r7, #4]
   return SysTick_Config(TicksNumb);
 80009e2:	687b      	ldr	r3, [r7, #4]
 80009e4:	0018      	movs	r0, r3
 80009e6:	f7ff ffbf 	bl	8000968 <SysTick_Config>
 80009ea:	0003      	movs	r3, r0
}
 80009ec:	0018      	movs	r0, r3
 80009ee:	46bd      	mov	sp, r7
 80009f0:	b002      	add	sp, #8
 80009f2:	bd80      	pop	{r7, pc}

080009f4 <HAL_GPIO_Init>:
  * @param  GPIO_Init pointer to a GPIO_InitTypeDef structure that contains
  *         the configuration information for the specified GPIO peripheral.
  * @retval None
  */
void HAL_GPIO_Init(GPIO_TypeDef  *GPIOx, GPIO_InitTypeDef *GPIO_Init)
{ 
 80009f4:	b580      	push	{r7, lr}
 80009f6:	b086      	sub	sp, #24
 80009f8:	af00      	add	r7, sp, #0
 80009fa:	6078      	str	r0, [r7, #4]
 80009fc:	6039      	str	r1, [r7, #0]
  uint32_t position = 0x00u;
 80009fe:	2300      	movs	r3, #0
 8000a00:	617b      	str	r3, [r7, #20]
  assert_param(IS_GPIO_PIN(GPIO_Init->Pin));
  assert_param(IS_GPIO_MODE(GPIO_Init->Mode));
  assert_param(IS_GPIO_PULL(GPIO_Init->Pull));

  /* Configure the port pins */
  while (((GPIO_Init->Pin) >> position) != 0x00u)
 8000a02:	e149      	b.n	8000c98 <HAL_GPIO_Init+0x2a4>
  {
    /* Get current io position */
    iocurrent = (GPIO_Init->Pin) & (1uL << position);
 8000a04:	683b      	ldr	r3, [r7, #0]
 8000a06:	681b      	ldr	r3, [r3, #0]
 8000a08:	2101      	movs	r1, #1
 8000a0a:	697a      	ldr	r2, [r7, #20]
 8000a0c:	4091      	lsls	r1, r2
 8000a0e:	000a      	movs	r2, r1
 8000a10:	4013      	ands	r3, r2
 8000a12:	60fb      	str	r3, [r7, #12]

    if (iocurrent != 0x00u)
 8000a14:	68fb      	ldr	r3, [r7, #12]
 8000a16:	2b00      	cmp	r3, #0
 8000a18:	d100      	bne.n	8000a1c <HAL_GPIO_Init+0x28>
 8000a1a:	e13a      	b.n	8000c92 <HAL_GPIO_Init+0x29e>
    {
      /*--------------------- GPIO Mode Configuration ------------------------*/
      /* In case of Output or Alternate function mode selection */
      if((GPIO_Init->Mode == GPIO_MODE_OUTPUT_PP) || (GPIO_Init->Mode == GPIO_MODE_AF_PP) ||
 8000a1c:	683b      	ldr	r3, [r7, #0]
 8000a1e:	685b      	ldr	r3, [r3, #4]
 8000a20:	2b01      	cmp	r3, #1
 8000a22:	d00b      	beq.n	8000a3c <HAL_GPIO_Init+0x48>
 8000a24:	683b      	ldr	r3, [r7, #0]
 8000a26:	685b      	ldr	r3, [r3, #4]
 8000a28:	2b02      	cmp	r3, #2
 8000a2a:	d007      	beq.n	8000a3c <HAL_GPIO_Init+0x48>
         (GPIO_Init->Mode == GPIO_MODE_OUTPUT_OD) || (GPIO_Init->Mode == GPIO_MODE_AF_OD))
 8000a2c:	683b      	ldr	r3, [r7, #0]
 8000a2e:	685b      	ldr	r3, [r3, #4]
      if((GPIO_Init->Mode == GPIO_MODE_OUTPUT_PP) || (GPIO_Init->Mode == GPIO_MODE_AF_PP) ||
 8000a30:	2b11      	cmp	r3, #17
 8000a32:	d003      	beq.n	8000a3c <HAL_GPIO_Init+0x48>
         (GPIO_Init->Mode == GPIO_MODE_OUTPUT_OD) || (GPIO_Init->Mode == GPIO_MODE_AF_OD))
 8000a34:	683b      	ldr	r3, [r7, #0]
 8000a36:	685b      	ldr	r3, [r3, #4]
 8000a38:	2b12      	cmp	r3, #18
 8000a3a:	d130      	bne.n	8000a9e <HAL_GPIO_Init+0xaa>
      {
        /* Check the Speed parameter */
        assert_param(IS_GPIO_SPEED(GPIO_Init->Speed));
        /* Configure the IO Speed */
        temp = GPIOx->OSPEEDR;
 8000a3c:	687b      	ldr	r3, [r7, #4]
 8000a3e:	689b      	ldr	r3, [r3, #8]
 8000a40:	613b      	str	r3, [r7, #16]
        temp &= ~(GPIO_OSPEEDER_OSPEEDR0 << (position * 2u));
 8000a42:	697b      	ldr	r3, [r7, #20]
 8000a44:	005b      	lsls	r3, r3, #1
 8000a46:	2203      	movs	r2, #3
 8000a48:	409a      	lsls	r2, r3
 8000a4a:	0013      	movs	r3, r2
 8000a4c:	43da      	mvns	r2, r3
 8000a4e:	693b      	ldr	r3, [r7, #16]
 8000a50:	4013      	ands	r3, r2
 8000a52:	613b      	str	r3, [r7, #16]
        temp |= (GPIO_Init->Speed << (position * 2u));
 8000a54:	683b      	ldr	r3, [r7, #0]
 8000a56:	68da      	ldr	r2, [r3, #12]
 8000a58:	697b      	ldr	r3, [r7, #20]
 8000a5a:	005b      	lsls	r3, r3, #1
 8000a5c:	409a      	lsls	r2, r3
 8000a5e:	0013      	movs	r3, r2
 8000a60:	693a      	ldr	r2, [r7, #16]
 8000a62:	4313      	orrs	r3, r2
 8000a64:	613b      	str	r3, [r7, #16]
        GPIOx->OSPEEDR = temp;
 8000a66:	687b      	ldr	r3, [r7, #4]
 8000a68:	693a      	ldr	r2, [r7, #16]
 8000a6a:	609a      	str	r2, [r3, #8]

        /* Configure the IO Output Type */
        temp = GPIOx->OTYPER;
 8000a6c:	687b      	ldr	r3, [r7, #4]
 8000a6e:	685b      	ldr	r3, [r3, #4]
 8000a70:	613b      	str	r3, [r7, #16]
        temp &= ~(GPIO_OTYPER_OT_0 << position) ;
 8000a72:	2201      	movs	r2, #1
 8000a74:	697b      	ldr	r3, [r7, #20]
 8000a76:	409a      	lsls	r2, r3
 8000a78:	0013      	movs	r3, r2
 8000a7a:	43da      	mvns	r2, r3
 8000a7c:	693b      	ldr	r3, [r7, #16]
 8000a7e:	4013      	ands	r3, r2
 8000a80:	613b      	str	r3, [r7, #16]
        temp |= (((GPIO_Init->Mode & GPIO_OUTPUT_TYPE) >> 4u) << position);
 8000a82:	683b      	ldr	r3, [r7, #0]
 8000a84:	685b      	ldr	r3, [r3, #4]
 8000a86:	091b      	lsrs	r3, r3, #4
 8000a88:	2201      	movs	r2, #1
 8000a8a:	401a      	ands	r2, r3
 8000a8c:	697b      	ldr	r3, [r7, #20]
 8000a8e:	409a      	lsls	r2, r3
 8000a90:	0013      	movs	r3, r2
 8000a92:	693a      	ldr	r2, [r7, #16]
 8000a94:	4313      	orrs	r3, r2
 8000a96:	613b      	str	r3, [r7, #16]
        GPIOx->OTYPER = temp;
 8000a98:	687b      	ldr	r3, [r7, #4]
 8000a9a:	693a      	ldr	r2, [r7, #16]
 8000a9c:	605a      	str	r2, [r3, #4]
      }

      /* Activate the Pull-up or Pull down resistor for the current IO */
      temp = GPIOx->PUPDR;
 8000a9e:	687b      	ldr	r3, [r7, #4]
 8000aa0:	68db      	ldr	r3, [r3, #12]
 8000aa2:	613b      	str	r3, [r7, #16]
      temp &= ~(GPIO_PUPDR_PUPDR0 << (position * 2u));
 8000aa4:	697b      	ldr	r3, [r7, #20]
 8000aa6:	005b      	lsls	r3, r3, #1
 8000aa8:	2203      	movs	r2, #3
 8000aaa:	409a      	lsls	r2, r3
 8000aac:	0013      	movs	r3, r2
 8000aae:	43da      	mvns	r2, r3
 8000ab0:	693b      	ldr	r3, [r7, #16]
 8000ab2:	4013      	ands	r3, r2
 8000ab4:	613b      	str	r3, [r7, #16]
      temp |= ((GPIO_Init->Pull) << (position * 2u));
 8000ab6:	683b      	ldr	r3, [r7, #0]
 8000ab8:	689a      	ldr	r2, [r3, #8]
 8000aba:	697b      	ldr	r3, [r7, #20]
 8000abc:	005b      	lsls	r3, r3, #1
 8000abe:	409a      	lsls	r2, r3
 8000ac0:	0013      	movs	r3, r2
 8000ac2:	693a      	ldr	r2, [r7, #16]
 8000ac4:	4313      	orrs	r3, r2
 8000ac6:	613b      	str	r3, [r7, #16]
      GPIOx->PUPDR = temp;
 8000ac8:	687b      	ldr	r3, [r7, #4]
 8000aca:	693a      	ldr	r2, [r7, #16]
 8000acc:	60da      	str	r2, [r3, #12]

      /* In case of Alternate function mode selection */
      if((GPIO_Init->Mode == GPIO_MODE_AF_PP) || (GPIO_Init->Mode == GPIO_MODE_AF_OD))
 8000ace:	683b      	ldr	r3, [r7, #0]
 8000ad0:	685b      	ldr	r3, [r3, #4]
 8000ad2:	2b02      	cmp	r3, #2
 8000ad4:	d003      	beq.n	8000ade <HAL_GPIO_Init+0xea>
 8000ad6:	683b      	ldr	r3, [r7, #0]
 8000ad8:	685b      	ldr	r3, [r3, #4]
 8000ada:	2b12      	cmp	r3, #18
 8000adc:	d123      	bne.n	8000b26 <HAL_GPIO_Init+0x132>
        /* Check the Alternate function parameters */
        assert_param(IS_GPIO_AF_INSTANCE(GPIOx));
        assert_param(IS_GPIO_AF(GPIO_Init->Alternate));

        /* Configure Alternate function mapped with the current IO */
        temp = GPIOx->AFR[position >> 3u];
 8000ade:	697b      	ldr	r3, [r7, #20]
 8000ae0:	08da      	lsrs	r2, r3, #3
 8000ae2:	687b      	ldr	r3, [r7, #4]
 8000ae4:	3208      	adds	r2, #8
 8000ae6:	0092      	lsls	r2, r2, #2
 8000ae8:	58d3      	ldr	r3, [r2, r3]
 8000aea:	613b      	str	r3, [r7, #16]
        temp &= ~(0xFu << ((position & 0x07u) * 4u));
 8000aec:	697b      	ldr	r3, [r7, #20]
 8000aee:	2207      	movs	r2, #7
 8000af0:	4013      	ands	r3, r2
 8000af2:	009b      	lsls	r3, r3, #2
 8000af4:	220f      	movs	r2, #15
 8000af6:	409a      	lsls	r2, r3
 8000af8:	0013      	movs	r3, r2
 8000afa:	43da      	mvns	r2, r3
 8000afc:	693b      	ldr	r3, [r7, #16]
 8000afe:	4013      	ands	r3, r2
 8000b00:	613b      	str	r3, [r7, #16]
        temp |= ((GPIO_Init->Alternate) << ((position & 0x07u) * 4u));
 8000b02:	683b      	ldr	r3, [r7, #0]
 8000b04:	691a      	ldr	r2, [r3, #16]
 8000b06:	697b      	ldr	r3, [r7, #20]
 8000b08:	2107      	movs	r1, #7
 8000b0a:	400b      	ands	r3, r1
 8000b0c:	009b      	lsls	r3, r3, #2
 8000b0e:	409a      	lsls	r2, r3
 8000b10:	0013      	movs	r3, r2
 8000b12:	693a      	ldr	r2, [r7, #16]
 8000b14:	4313      	orrs	r3, r2
 8000b16:	613b      	str	r3, [r7, #16]
        GPIOx->AFR[position >> 3u] = temp;
 8000b18:	697b      	ldr	r3, [r7, #20]
 8000b1a:	08da      	lsrs	r2, r3, #3
 8000b1c:	687b      	ldr	r3, [r7, #4]
 8000b1e:	3208      	adds	r2, #8
 8000b20:	0092      	lsls	r2, r2, #2
 8000b22:	6939      	ldr	r1, [r7, #16]
 8000b24:	50d1      	str	r1, [r2, r3]
      }

      /* Configure IO Direction mode (Input, Output, Alternate or Analog) */
      temp = GPIOx->MODER;
 8000b26:	687b      	ldr	r3, [r7, #4]
 8000b28:	681b      	ldr	r3, [r3, #0]
 8000b2a:	613b      	str	r3, [r7, #16]
      temp &= ~(GPIO_MODER_MODER0 << (position * 2u));
 8000b2c:	697b      	ldr	r3, [r7, #20]
 8000b2e:	005b      	lsls	r3, r3, #1
 8000b30:	2203      	movs	r2, #3
 8000b32:	409a      	lsls	r2, r3
 8000b34:	0013      	movs	r3, r2
 8000b36:	43da      	mvns	r2, r3
 8000b38:	693b      	ldr	r3, [r7, #16]
 8000b3a:	4013      	ands	r3, r2
 8000b3c:	613b      	str	r3, [r7, #16]
      temp |= ((GPIO_Init->Mode & GPIO_MODE) << (position * 2u));
 8000b3e:	683b      	ldr	r3, [r7, #0]
 8000b40:	685b      	ldr	r3, [r3, #4]
 8000b42:	2203      	movs	r2, #3
 8000b44:	401a      	ands	r2, r3
 8000b46:	697b      	ldr	r3, [r7, #20]
 8000b48:	005b      	lsls	r3, r3, #1
 8000b4a:	409a      	lsls	r2, r3
 8000b4c:	0013      	movs	r3, r2
 8000b4e:	693a      	ldr	r2, [r7, #16]
 8000b50:	4313      	orrs	r3, r2
 8000b52:	613b      	str	r3, [r7, #16]
      GPIOx->MODER = temp;
 8000b54:	687b      	ldr	r3, [r7, #4]
 8000b56:	693a      	ldr	r2, [r7, #16]
 8000b58:	601a      	str	r2, [r3, #0]

      /*--------------------- EXTI Mode Configuration ------------------------*/
      /* Configure the External Interrupt or event for the current IO */
      if((GPIO_Init->Mode & EXTI_MODE) == EXTI_MODE)
 8000b5a:	683b      	ldr	r3, [r7, #0]
 8000b5c:	685a      	ldr	r2, [r3, #4]
 8000b5e:	2380      	movs	r3, #128	; 0x80
 8000b60:	055b      	lsls	r3, r3, #21
 8000b62:	4013      	ands	r3, r2
 8000b64:	d100      	bne.n	8000b68 <HAL_GPIO_Init+0x174>
 8000b66:	e094      	b.n	8000c92 <HAL_GPIO_Init+0x29e>
      {
        /* Enable SYSCFG Clock */
        __HAL_RCC_SYSCFG_CLK_ENABLE();
 8000b68:	4b51      	ldr	r3, [pc, #324]	; (8000cb0 <HAL_GPIO_Init+0x2bc>)
 8000b6a:	699a      	ldr	r2, [r3, #24]
 8000b6c:	4b50      	ldr	r3, [pc, #320]	; (8000cb0 <HAL_GPIO_Init+0x2bc>)
 8000b6e:	2101      	movs	r1, #1
 8000b70:	430a      	orrs	r2, r1
 8000b72:	619a      	str	r2, [r3, #24]
 8000b74:	4b4e      	ldr	r3, [pc, #312]	; (8000cb0 <HAL_GPIO_Init+0x2bc>)
 8000b76:	699b      	ldr	r3, [r3, #24]
 8000b78:	2201      	movs	r2, #1
 8000b7a:	4013      	ands	r3, r2
 8000b7c:	60bb      	str	r3, [r7, #8]
 8000b7e:	68bb      	ldr	r3, [r7, #8]

        temp = SYSCFG->EXTICR[position >> 2u];
 8000b80:	4a4c      	ldr	r2, [pc, #304]	; (8000cb4 <HAL_GPIO_Init+0x2c0>)
 8000b82:	697b      	ldr	r3, [r7, #20]
 8000b84:	089b      	lsrs	r3, r3, #2
 8000b86:	3302      	adds	r3, #2
 8000b88:	009b      	lsls	r3, r3, #2
 8000b8a:	589b      	ldr	r3, [r3, r2]
 8000b8c:	613b      	str	r3, [r7, #16]
        temp &= ~(0x0FuL << (4u * (position & 0x03u)));
 8000b8e:	697b      	ldr	r3, [r7, #20]
 8000b90:	2203      	movs	r2, #3
 8000b92:	4013      	ands	r3, r2
 8000b94:	009b      	lsls	r3, r3, #2
 8000b96:	220f      	movs	r2, #15
 8000b98:	409a      	lsls	r2, r3
 8000b9a:	0013      	movs	r3, r2
 8000b9c:	43da      	mvns	r2, r3
 8000b9e:	693b      	ldr	r3, [r7, #16]
 8000ba0:	4013      	ands	r3, r2
 8000ba2:	613b      	str	r3, [r7, #16]
        temp |= (GPIO_GET_INDEX(GPIOx) << (4u * (position & 0x03u)));
 8000ba4:	687a      	ldr	r2, [r7, #4]
 8000ba6:	2390      	movs	r3, #144	; 0x90
 8000ba8:	05db      	lsls	r3, r3, #23
 8000baa:	429a      	cmp	r2, r3
 8000bac:	d00d      	beq.n	8000bca <HAL_GPIO_Init+0x1d6>
 8000bae:	687b      	ldr	r3, [r7, #4]
 8000bb0:	4a41      	ldr	r2, [pc, #260]	; (8000cb8 <HAL_GPIO_Init+0x2c4>)
 8000bb2:	4293      	cmp	r3, r2
 8000bb4:	d007      	beq.n	8000bc6 <HAL_GPIO_Init+0x1d2>
 8000bb6:	687b      	ldr	r3, [r7, #4]
 8000bb8:	4a40      	ldr	r2, [pc, #256]	; (8000cbc <HAL_GPIO_Init+0x2c8>)
 8000bba:	4293      	cmp	r3, r2
 8000bbc:	d101      	bne.n	8000bc2 <HAL_GPIO_Init+0x1ce>
 8000bbe:	2302      	movs	r3, #2
 8000bc0:	e004      	b.n	8000bcc <HAL_GPIO_Init+0x1d8>
 8000bc2:	2305      	movs	r3, #5
 8000bc4:	e002      	b.n	8000bcc <HAL_GPIO_Init+0x1d8>
 8000bc6:	2301      	movs	r3, #1
 8000bc8:	e000      	b.n	8000bcc <HAL_GPIO_Init+0x1d8>
 8000bca:	2300      	movs	r3, #0
 8000bcc:	697a      	ldr	r2, [r7, #20]
 8000bce:	2103      	movs	r1, #3
 8000bd0:	400a      	ands	r2, r1
 8000bd2:	0092      	lsls	r2, r2, #2
 8000bd4:	4093      	lsls	r3, r2
 8000bd6:	693a      	ldr	r2, [r7, #16]
 8000bd8:	4313      	orrs	r3, r2
 8000bda:	613b      	str	r3, [r7, #16]
        SYSCFG->EXTICR[position >> 2u] = temp;
 8000bdc:	4935      	ldr	r1, [pc, #212]	; (8000cb4 <HAL_GPIO_Init+0x2c0>)
 8000bde:	697b      	ldr	r3, [r7, #20]
 8000be0:	089b      	lsrs	r3, r3, #2
 8000be2:	3302      	adds	r3, #2
 8000be4:	009b      	lsls	r3, r3, #2
 8000be6:	693a      	ldr	r2, [r7, #16]
 8000be8:	505a      	str	r2, [r3, r1]

        /* Clear EXTI line configuration */
        temp = EXTI->IMR;
 8000bea:	4b35      	ldr	r3, [pc, #212]	; (8000cc0 <HAL_GPIO_Init+0x2cc>)
 8000bec:	681b      	ldr	r3, [r3, #0]
 8000bee:	613b      	str	r3, [r7, #16]
        temp &= ~(iocurrent);
 8000bf0:	68fb      	ldr	r3, [r7, #12]
 8000bf2:	43da      	mvns	r2, r3
 8000bf4:	693b      	ldr	r3, [r7, #16]
 8000bf6:	4013      	ands	r3, r2
 8000bf8:	613b      	str	r3, [r7, #16]
        if((GPIO_Init->Mode & GPIO_MODE_IT) == GPIO_MODE_IT)
 8000bfa:	683b      	ldr	r3, [r7, #0]
 8000bfc:	685a      	ldr	r2, [r3, #4]
 8000bfe:	2380      	movs	r3, #128	; 0x80
 8000c00:	025b      	lsls	r3, r3, #9
 8000c02:	4013      	ands	r3, r2
 8000c04:	d003      	beq.n	8000c0e <HAL_GPIO_Init+0x21a>
        {
          temp |= iocurrent;
 8000c06:	693a      	ldr	r2, [r7, #16]
 8000c08:	68fb      	ldr	r3, [r7, #12]
 8000c0a:	4313      	orrs	r3, r2
 8000c0c:	613b      	str	r3, [r7, #16]
        }
        EXTI->IMR = temp;
 8000c0e:	4b2c      	ldr	r3, [pc, #176]	; (8000cc0 <HAL_GPIO_Init+0x2cc>)
 8000c10:	693a      	ldr	r2, [r7, #16]
 8000c12:	601a      	str	r2, [r3, #0]

        temp = EXTI->EMR;
 8000c14:	4b2a      	ldr	r3, [pc, #168]	; (8000cc0 <HAL_GPIO_Init+0x2cc>)
 8000c16:	685b      	ldr	r3, [r3, #4]
 8000c18:	613b      	str	r3, [r7, #16]
        temp &= ~(iocurrent);
 8000c1a:	68fb      	ldr	r3, [r7, #12]
 8000c1c:	43da      	mvns	r2, r3
 8000c1e:	693b      	ldr	r3, [r7, #16]
 8000c20:	4013      	ands	r3, r2
 8000c22:	613b      	str	r3, [r7, #16]
        if((GPIO_Init->Mode & GPIO_MODE_EVT) == GPIO_MODE_EVT)
 8000c24:	683b      	ldr	r3, [r7, #0]
 8000c26:	685a      	ldr	r2, [r3, #4]
 8000c28:	2380      	movs	r3, #128	; 0x80
 8000c2a:	029b      	lsls	r3, r3, #10
 8000c2c:	4013      	ands	r3, r2
 8000c2e:	d003      	beq.n	8000c38 <HAL_GPIO_Init+0x244>
        {
          temp |= iocurrent;
 8000c30:	693a      	ldr	r2, [r7, #16]
 8000c32:	68fb      	ldr	r3, [r7, #12]
 8000c34:	4313      	orrs	r3, r2
 8000c36:	613b      	str	r3, [r7, #16]
        }
        EXTI->EMR = temp;
 8000c38:	4b21      	ldr	r3, [pc, #132]	; (8000cc0 <HAL_GPIO_Init+0x2cc>)
 8000c3a:	693a      	ldr	r2, [r7, #16]
 8000c3c:	605a      	str	r2, [r3, #4]

        /* Clear Rising Falling edge configuration */
        temp = EXTI->RTSR;
 8000c3e:	4b20      	ldr	r3, [pc, #128]	; (8000cc0 <HAL_GPIO_Init+0x2cc>)
 8000c40:	689b      	ldr	r3, [r3, #8]
 8000c42:	613b      	str	r3, [r7, #16]
        temp &= ~(iocurrent);
 8000c44:	68fb      	ldr	r3, [r7, #12]
 8000c46:	43da      	mvns	r2, r3
 8000c48:	693b      	ldr	r3, [r7, #16]
 8000c4a:	4013      	ands	r3, r2
 8000c4c:	613b      	str	r3, [r7, #16]
        if((GPIO_Init->Mode & RISING_EDGE) == RISING_EDGE)
 8000c4e:	683b      	ldr	r3, [r7, #0]
 8000c50:	685a      	ldr	r2, [r3, #4]
 8000c52:	2380      	movs	r3, #128	; 0x80
 8000c54:	035b      	lsls	r3, r3, #13
 8000c56:	4013      	ands	r3, r2
 8000c58:	d003      	beq.n	8000c62 <HAL_GPIO_Init+0x26e>
        {
          temp |= iocurrent;
 8000c5a:	693a      	ldr	r2, [r7, #16]
 8000c5c:	68fb      	ldr	r3, [r7, #12]
 8000c5e:	4313      	orrs	r3, r2
 8000c60:	613b      	str	r3, [r7, #16]
        }
        EXTI->RTSR = temp;
 8000c62:	4b17      	ldr	r3, [pc, #92]	; (8000cc0 <HAL_GPIO_Init+0x2cc>)
 8000c64:	693a      	ldr	r2, [r7, #16]
 8000c66:	609a      	str	r2, [r3, #8]

        temp = EXTI->FTSR;
 8000c68:	4b15      	ldr	r3, [pc, #84]	; (8000cc0 <HAL_GPIO_Init+0x2cc>)
 8000c6a:	68db      	ldr	r3, [r3, #12]
 8000c6c:	613b      	str	r3, [r7, #16]
        temp &= ~(iocurrent);
 8000c6e:	68fb      	ldr	r3, [r7, #12]
 8000c70:	43da      	mvns	r2, r3
 8000c72:	693b      	ldr	r3, [r7, #16]
 8000c74:	4013      	ands	r3, r2
 8000c76:	613b      	str	r3, [r7, #16]
        if((GPIO_Init->Mode & FALLING_EDGE) == FALLING_EDGE)
 8000c78:	683b      	ldr	r3, [r7, #0]
 8000c7a:	685a      	ldr	r2, [r3, #4]
 8000c7c:	2380      	movs	r3, #128	; 0x80
 8000c7e:	039b      	lsls	r3, r3, #14
 8000c80:	4013      	ands	r3, r2
 8000c82:	d003      	beq.n	8000c8c <HAL_GPIO_Init+0x298>
        {
          temp |= iocurrent;
 8000c84:	693a      	ldr	r2, [r7, #16]
 8000c86:	68fb      	ldr	r3, [r7, #12]
 8000c88:	4313      	orrs	r3, r2
 8000c8a:	613b      	str	r3, [r7, #16]
        }
        EXTI->FTSR = temp;
 8000c8c:	4b0c      	ldr	r3, [pc, #48]	; (8000cc0 <HAL_GPIO_Init+0x2cc>)
 8000c8e:	693a      	ldr	r2, [r7, #16]
 8000c90:	60da      	str	r2, [r3, #12]
      }
    }

    position++;
 8000c92:	697b      	ldr	r3, [r7, #20]
 8000c94:	3301      	adds	r3, #1
 8000c96:	617b      	str	r3, [r7, #20]
  while (((GPIO_Init->Pin) >> position) != 0x00u)
 8000c98:	683b      	ldr	r3, [r7, #0]
 8000c9a:	681a      	ldr	r2, [r3, #0]
 8000c9c:	697b      	ldr	r3, [r7, #20]
 8000c9e:	40da      	lsrs	r2, r3
 8000ca0:	1e13      	subs	r3, r2, #0
 8000ca2:	d000      	beq.n	8000ca6 <HAL_GPIO_Init+0x2b2>
 8000ca4:	e6ae      	b.n	8000a04 <HAL_GPIO_Init+0x10>
  } 
}
 8000ca6:	46c0      	nop			; (mov r8, r8)
 8000ca8:	46bd      	mov	sp, r7
 8000caa:	b006      	add	sp, #24
 8000cac:	bd80      	pop	{r7, pc}
 8000cae:	46c0      	nop			; (mov r8, r8)
 8000cb0:	40021000 	.word	0x40021000
 8000cb4:	40010000 	.word	0x40010000
 8000cb8:	48000400 	.word	0x48000400
 8000cbc:	48000800 	.word	0x48000800
 8000cc0:	40010400 	.word	0x40010400

08000cc4 <HAL_GPIO_ReadPin>:
  * @param  GPIO_Pin specifies the port bit to read.
  *         This parameter can be GPIO_PIN_x where x can be (0..15).
  * @retval The input port pin value.
  */
GPIO_PinState HAL_GPIO_ReadPin(GPIO_TypeDef* GPIOx, uint16_t GPIO_Pin)
{
 8000cc4:	b580      	push	{r7, lr}
 8000cc6:	b084      	sub	sp, #16
 8000cc8:	af00      	add	r7, sp, #0
 8000cca:	6078      	str	r0, [r7, #4]
 8000ccc:	000a      	movs	r2, r1
 8000cce:	1cbb      	adds	r3, r7, #2
 8000cd0:	801a      	strh	r2, [r3, #0]
  GPIO_PinState bitstatus;

  /* Check the parameters */
  assert_param(IS_GPIO_PIN(GPIO_Pin));

  if ((GPIOx->IDR & GPIO_Pin) != (uint32_t)GPIO_PIN_RESET)
 8000cd2:	687b      	ldr	r3, [r7, #4]
 8000cd4:	691b      	ldr	r3, [r3, #16]
 8000cd6:	1cba      	adds	r2, r7, #2
 8000cd8:	8812      	ldrh	r2, [r2, #0]
 8000cda:	4013      	ands	r3, r2
 8000cdc:	d004      	beq.n	8000ce8 <HAL_GPIO_ReadPin+0x24>
  {
    bitstatus = GPIO_PIN_SET;
 8000cde:	230f      	movs	r3, #15
 8000ce0:	18fb      	adds	r3, r7, r3
 8000ce2:	2201      	movs	r2, #1
 8000ce4:	701a      	strb	r2, [r3, #0]
 8000ce6:	e003      	b.n	8000cf0 <HAL_GPIO_ReadPin+0x2c>
  }
  else
  {
    bitstatus = GPIO_PIN_RESET;
 8000ce8:	230f      	movs	r3, #15
 8000cea:	18fb      	adds	r3, r7, r3
 8000cec:	2200      	movs	r2, #0
 8000cee:	701a      	strb	r2, [r3, #0]
  }
  return bitstatus;
 8000cf0:	230f      	movs	r3, #15
 8000cf2:	18fb      	adds	r3, r7, r3
 8000cf4:	781b      	ldrb	r3, [r3, #0]
  }
 8000cf6:	0018      	movs	r0, r3
 8000cf8:	46bd      	mov	sp, r7
 8000cfa:	b004      	add	sp, #16
 8000cfc:	bd80      	pop	{r7, pc}

08000cfe <HAL_GPIO_WritePin>:
  *            @arg GPIO_PIN_RESET: to clear the port pin
  *            @arg GPIO_PIN_SET: to set the port pin
  * @retval None
  */
void HAL_GPIO_WritePin(GPIO_TypeDef* GPIOx, uint16_t GPIO_Pin, GPIO_PinState PinState)
{
 8000cfe:	b580      	push	{r7, lr}
 8000d00:	b082      	sub	sp, #8
 8000d02:	af00      	add	r7, sp, #0
 8000d04:	6078      	str	r0, [r7, #4]
 8000d06:	0008      	movs	r0, r1
 8000d08:	0011      	movs	r1, r2
 8000d0a:	1cbb      	adds	r3, r7, #2
 8000d0c:	1c02      	adds	r2, r0, #0
 8000d0e:	801a      	strh	r2, [r3, #0]
 8000d10:	1c7b      	adds	r3, r7, #1
 8000d12:	1c0a      	adds	r2, r1, #0
 8000d14:	701a      	strb	r2, [r3, #0]
  /* Check the parameters */
  assert_param(IS_GPIO_PIN(GPIO_Pin));
  assert_param(IS_GPIO_PIN_ACTION(PinState));

  if (PinState != GPIO_PIN_RESET)
 8000d16:	1c7b      	adds	r3, r7, #1
 8000d18:	781b      	ldrb	r3, [r3, #0]
 8000d1a:	2b00      	cmp	r3, #0
 8000d1c:	d004      	beq.n	8000d28 <HAL_GPIO_WritePin+0x2a>
  {
    GPIOx->BSRR = (uint32_t)GPIO_Pin;
 8000d1e:	1cbb      	adds	r3, r7, #2
 8000d20:	881a      	ldrh	r2, [r3, #0]
 8000d22:	687b      	ldr	r3, [r7, #4]
 8000d24:	619a      	str	r2, [r3, #24]
  }
  else
  {
    GPIOx->BRR = (uint32_t)GPIO_Pin;
  }
}
 8000d26:	e003      	b.n	8000d30 <HAL_GPIO_WritePin+0x32>
    GPIOx->BRR = (uint32_t)GPIO_Pin;
 8000d28:	1cbb      	adds	r3, r7, #2
 8000d2a:	881a      	ldrh	r2, [r3, #0]
 8000d2c:	687b      	ldr	r3, [r7, #4]
 8000d2e:	629a      	str	r2, [r3, #40]	; 0x28
}
 8000d30:	46c0      	nop			; (mov r8, r8)
 8000d32:	46bd      	mov	sp, r7
 8000d34:	b002      	add	sp, #8
 8000d36:	bd80      	pop	{r7, pc}

08000d38 <HAL_RCC_OscConfig>:
  *         supported by this macro. User should request a transition to HSE Off
  *         first and then HSE On or HSE Bypass.
  * @retval HAL status
  */
HAL_StatusTypeDef HAL_RCC_OscConfig(RCC_OscInitTypeDef  *RCC_OscInitStruct)
{
 8000d38:	b580      	push	{r7, lr}
 8000d3a:	b088      	sub	sp, #32
 8000d3c:	af00      	add	r7, sp, #0
 8000d3e:	6078      	str	r0, [r7, #4]
  uint32_t tickstart;
  uint32_t pll_config;
  uint32_t pll_config2;

  /* Check Null pointer */
  if(RCC_OscInitStruct == NULL)
 8000d40:	687b      	ldr	r3, [r7, #4]
 8000d42:	2b00      	cmp	r3, #0
 8000d44:	d102      	bne.n	8000d4c <HAL_RCC_OscConfig+0x14>
  {
    return HAL_ERROR;
 8000d46:	2301      	movs	r3, #1
 8000d48:	f000 fb76 	bl	8001438 <HAL_RCC_OscConfig+0x700>

  /* Check the parameters */
  assert_param(IS_RCC_OSCILLATORTYPE(RCC_OscInitStruct->OscillatorType));

  /*------------------------------- HSE Configuration ------------------------*/ 
  if(((RCC_OscInitStruct->OscillatorType) & RCC_OSCILLATORTYPE_HSE) == RCC_OSCILLATORTYPE_HSE)
 8000d4c:	687b      	ldr	r3, [r7, #4]
 8000d4e:	681b      	ldr	r3, [r3, #0]
 8000d50:	2201      	movs	r2, #1
 8000d52:	4013      	ands	r3, r2
 8000d54:	d100      	bne.n	8000d58 <HAL_RCC_OscConfig+0x20>
 8000d56:	e08e      	b.n	8000e76 <HAL_RCC_OscConfig+0x13e>
  {
    /* Check the parameters */
    assert_param(IS_RCC_HSE(RCC_OscInitStruct->HSEState));

    /* When the HSE is used as system clock or clock source for PLL in these cases it is not allowed to be disabled */
    if((__HAL_RCC_GET_SYSCLK_SOURCE() == RCC_SYSCLKSOURCE_STATUS_HSE) 
 8000d58:	4bc5      	ldr	r3, [pc, #788]	; (8001070 <HAL_RCC_OscConfig+0x338>)
 8000d5a:	685b      	ldr	r3, [r3, #4]
 8000d5c:	220c      	movs	r2, #12
 8000d5e:	4013      	ands	r3, r2
 8000d60:	2b04      	cmp	r3, #4
 8000d62:	d00e      	beq.n	8000d82 <HAL_RCC_OscConfig+0x4a>
       || ((__HAL_RCC_GET_SYSCLK_SOURCE() == RCC_SYSCLKSOURCE_STATUS_PLLCLK) && (__HAL_RCC_GET_PLL_OSCSOURCE() == RCC_PLLSOURCE_HSE)))
 8000d64:	4bc2      	ldr	r3, [pc, #776]	; (8001070 <HAL_RCC_OscConfig+0x338>)
 8000d66:	685b      	ldr	r3, [r3, #4]
 8000d68:	220c      	movs	r2, #12
 8000d6a:	4013      	ands	r3, r2
 8000d6c:	2b08      	cmp	r3, #8
 8000d6e:	d117      	bne.n	8000da0 <HAL_RCC_OscConfig+0x68>
 8000d70:	4bbf      	ldr	r3, [pc, #764]	; (8001070 <HAL_RCC_OscConfig+0x338>)
 8000d72:	685a      	ldr	r2, [r3, #4]
 8000d74:	23c0      	movs	r3, #192	; 0xc0
 8000d76:	025b      	lsls	r3, r3, #9
 8000d78:	401a      	ands	r2, r3
 8000d7a:	2380      	movs	r3, #128	; 0x80
 8000d7c:	025b      	lsls	r3, r3, #9
 8000d7e:	429a      	cmp	r2, r3
 8000d80:	d10e      	bne.n	8000da0 <HAL_RCC_OscConfig+0x68>
    {
      if((__HAL_RCC_GET_FLAG(RCC_FLAG_HSERDY) != RESET) && (RCC_OscInitStruct->HSEState == RCC_HSE_OFF))
 8000d82:	4bbb      	ldr	r3, [pc, #748]	; (8001070 <HAL_RCC_OscConfig+0x338>)
 8000d84:	681a      	ldr	r2, [r3, #0]
 8000d86:	2380      	movs	r3, #128	; 0x80
 8000d88:	029b      	lsls	r3, r3, #10
 8000d8a:	4013      	ands	r3, r2
 8000d8c:	d100      	bne.n	8000d90 <HAL_RCC_OscConfig+0x58>
 8000d8e:	e071      	b.n	8000e74 <HAL_RCC_OscConfig+0x13c>
 8000d90:	687b      	ldr	r3, [r7, #4]
 8000d92:	685b      	ldr	r3, [r3, #4]
 8000d94:	2b00      	cmp	r3, #0
 8000d96:	d000      	beq.n	8000d9a <HAL_RCC_OscConfig+0x62>
 8000d98:	e06c      	b.n	8000e74 <HAL_RCC_OscConfig+0x13c>
      {
        return HAL_ERROR;
 8000d9a:	2301      	movs	r3, #1
 8000d9c:	f000 fb4c 	bl	8001438 <HAL_RCC_OscConfig+0x700>
      }
    }
    else
    {
      /* Set the new HSE configuration ---------------------------------------*/
      __HAL_RCC_HSE_CONFIG(RCC_OscInitStruct->HSEState);
 8000da0:	687b      	ldr	r3, [r7, #4]
 8000da2:	685b      	ldr	r3, [r3, #4]
 8000da4:	2b01      	cmp	r3, #1
 8000da6:	d107      	bne.n	8000db8 <HAL_RCC_OscConfig+0x80>
 8000da8:	4bb1      	ldr	r3, [pc, #708]	; (8001070 <HAL_RCC_OscConfig+0x338>)
 8000daa:	681a      	ldr	r2, [r3, #0]
 8000dac:	4bb0      	ldr	r3, [pc, #704]	; (8001070 <HAL_RCC_OscConfig+0x338>)
 8000dae:	2180      	movs	r1, #128	; 0x80
 8000db0:	0249      	lsls	r1, r1, #9
 8000db2:	430a      	orrs	r2, r1
 8000db4:	601a      	str	r2, [r3, #0]
 8000db6:	e02f      	b.n	8000e18 <HAL_RCC_OscConfig+0xe0>
 8000db8:	687b      	ldr	r3, [r7, #4]
 8000dba:	685b      	ldr	r3, [r3, #4]
 8000dbc:	2b00      	cmp	r3, #0
 8000dbe:	d10c      	bne.n	8000dda <HAL_RCC_OscConfig+0xa2>
 8000dc0:	4bab      	ldr	r3, [pc, #684]	; (8001070 <HAL_RCC_OscConfig+0x338>)
 8000dc2:	681a      	ldr	r2, [r3, #0]
 8000dc4:	4baa      	ldr	r3, [pc, #680]	; (8001070 <HAL_RCC_OscConfig+0x338>)
 8000dc6:	49ab      	ldr	r1, [pc, #684]	; (8001074 <HAL_RCC_OscConfig+0x33c>)
 8000dc8:	400a      	ands	r2, r1
 8000dca:	601a      	str	r2, [r3, #0]
 8000dcc:	4ba8      	ldr	r3, [pc, #672]	; (8001070 <HAL_RCC_OscConfig+0x338>)
 8000dce:	681a      	ldr	r2, [r3, #0]
 8000dd0:	4ba7      	ldr	r3, [pc, #668]	; (8001070 <HAL_RCC_OscConfig+0x338>)
 8000dd2:	49a9      	ldr	r1, [pc, #676]	; (8001078 <HAL_RCC_OscConfig+0x340>)
 8000dd4:	400a      	ands	r2, r1
 8000dd6:	601a      	str	r2, [r3, #0]
 8000dd8:	e01e      	b.n	8000e18 <HAL_RCC_OscConfig+0xe0>
 8000dda:	687b      	ldr	r3, [r7, #4]
 8000ddc:	685b      	ldr	r3, [r3, #4]
 8000dde:	2b05      	cmp	r3, #5
 8000de0:	d10e      	bne.n	8000e00 <HAL_RCC_OscConfig+0xc8>
 8000de2:	4ba3      	ldr	r3, [pc, #652]	; (8001070 <HAL_RCC_OscConfig+0x338>)
 8000de4:	681a      	ldr	r2, [r3, #0]
 8000de6:	4ba2      	ldr	r3, [pc, #648]	; (8001070 <HAL_RCC_OscConfig+0x338>)
 8000de8:	2180      	movs	r1, #128	; 0x80
 8000dea:	02c9      	lsls	r1, r1, #11
 8000dec:	430a      	orrs	r2, r1
 8000dee:	601a      	str	r2, [r3, #0]
 8000df0:	4b9f      	ldr	r3, [pc, #636]	; (8001070 <HAL_RCC_OscConfig+0x338>)
 8000df2:	681a      	ldr	r2, [r3, #0]
 8000df4:	4b9e      	ldr	r3, [pc, #632]	; (8001070 <HAL_RCC_OscConfig+0x338>)
 8000df6:	2180      	movs	r1, #128	; 0x80
 8000df8:	0249      	lsls	r1, r1, #9
 8000dfa:	430a      	orrs	r2, r1
 8000dfc:	601a      	str	r2, [r3, #0]
 8000dfe:	e00b      	b.n	8000e18 <HAL_RCC_OscConfig+0xe0>
 8000e00:	4b9b      	ldr	r3, [pc, #620]	; (8001070 <HAL_RCC_OscConfig+0x338>)
 8000e02:	681a      	ldr	r2, [r3, #0]
 8000e04:	4b9a      	ldr	r3, [pc, #616]	; (8001070 <HAL_RCC_OscConfig+0x338>)
 8000e06:	499b      	ldr	r1, [pc, #620]	; (8001074 <HAL_RCC_OscConfig+0x33c>)
 8000e08:	400a      	ands	r2, r1
 8000e0a:	601a      	str	r2, [r3, #0]
 8000e0c:	4b98      	ldr	r3, [pc, #608]	; (8001070 <HAL_RCC_OscConfig+0x338>)
 8000e0e:	681a      	ldr	r2, [r3, #0]
 8000e10:	4b97      	ldr	r3, [pc, #604]	; (8001070 <HAL_RCC_OscConfig+0x338>)
 8000e12:	4999      	ldr	r1, [pc, #612]	; (8001078 <HAL_RCC_OscConfig+0x340>)
 8000e14:	400a      	ands	r2, r1
 8000e16:	601a      	str	r2, [r3, #0]
      

       /* Check the HSE State */
      if(RCC_OscInitStruct->HSEState != RCC_HSE_OFF)
 8000e18:	687b      	ldr	r3, [r7, #4]
 8000e1a:	685b      	ldr	r3, [r3, #4]
 8000e1c:	2b00      	cmp	r3, #0
 8000e1e:	d014      	beq.n	8000e4a <HAL_RCC_OscConfig+0x112>
      {
        /* Get Start Tick */
        tickstart = HAL_GetTick();
 8000e20:	f7ff fd08 	bl	8000834 <HAL_GetTick>
 8000e24:	0003      	movs	r3, r0
 8000e26:	61bb      	str	r3, [r7, #24]
        
        /* Wait till HSE is ready */
        while(__HAL_RCC_GET_FLAG(RCC_FLAG_HSERDY) == RESET)
 8000e28:	e008      	b.n	8000e3c <HAL_RCC_OscConfig+0x104>
        {
          if((HAL_GetTick() - tickstart ) > HSE_TIMEOUT_VALUE)
 8000e2a:	f7ff fd03 	bl	8000834 <HAL_GetTick>
 8000e2e:	0002      	movs	r2, r0
 8000e30:	69bb      	ldr	r3, [r7, #24]
 8000e32:	1ad3      	subs	r3, r2, r3
 8000e34:	2b64      	cmp	r3, #100	; 0x64
 8000e36:	d901      	bls.n	8000e3c <HAL_RCC_OscConfig+0x104>
          {
            return HAL_TIMEOUT;
 8000e38:	2303      	movs	r3, #3
 8000e3a:	e2fd      	b.n	8001438 <HAL_RCC_OscConfig+0x700>
        while(__HAL_RCC_GET_FLAG(RCC_FLAG_HSERDY) == RESET)
 8000e3c:	4b8c      	ldr	r3, [pc, #560]	; (8001070 <HAL_RCC_OscConfig+0x338>)
 8000e3e:	681a      	ldr	r2, [r3, #0]
 8000e40:	2380      	movs	r3, #128	; 0x80
 8000e42:	029b      	lsls	r3, r3, #10
 8000e44:	4013      	ands	r3, r2
 8000e46:	d0f0      	beq.n	8000e2a <HAL_RCC_OscConfig+0xf2>
 8000e48:	e015      	b.n	8000e76 <HAL_RCC_OscConfig+0x13e>
        }
      }
      else
      {
        /* Get Start Tick */
        tickstart = HAL_GetTick();
 8000e4a:	f7ff fcf3 	bl	8000834 <HAL_GetTick>
 8000e4e:	0003      	movs	r3, r0
 8000e50:	61bb      	str	r3, [r7, #24]
        
        /* Wait till HSE is disabled */
        while(__HAL_RCC_GET_FLAG(RCC_FLAG_HSERDY) != RESET)
 8000e52:	e008      	b.n	8000e66 <HAL_RCC_OscConfig+0x12e>
        {
           if((HAL_GetTick() - tickstart ) > HSE_TIMEOUT_VALUE)
 8000e54:	f7ff fcee 	bl	8000834 <HAL_GetTick>
 8000e58:	0002      	movs	r2, r0
 8000e5a:	69bb      	ldr	r3, [r7, #24]
 8000e5c:	1ad3      	subs	r3, r2, r3
 8000e5e:	2b64      	cmp	r3, #100	; 0x64
 8000e60:	d901      	bls.n	8000e66 <HAL_RCC_OscConfig+0x12e>
          {
            return HAL_TIMEOUT;
 8000e62:	2303      	movs	r3, #3
 8000e64:	e2e8      	b.n	8001438 <HAL_RCC_OscConfig+0x700>
        while(__HAL_RCC_GET_FLAG(RCC_FLAG_HSERDY) != RESET)
 8000e66:	4b82      	ldr	r3, [pc, #520]	; (8001070 <HAL_RCC_OscConfig+0x338>)
 8000e68:	681a      	ldr	r2, [r3, #0]
 8000e6a:	2380      	movs	r3, #128	; 0x80
 8000e6c:	029b      	lsls	r3, r3, #10
 8000e6e:	4013      	ands	r3, r2
 8000e70:	d1f0      	bne.n	8000e54 <HAL_RCC_OscConfig+0x11c>
 8000e72:	e000      	b.n	8000e76 <HAL_RCC_OscConfig+0x13e>
      if((__HAL_RCC_GET_FLAG(RCC_FLAG_HSERDY) != RESET) && (RCC_OscInitStruct->HSEState == RCC_HSE_OFF))
 8000e74:	46c0      	nop			; (mov r8, r8)
        }
      }
    }
  }
  /*----------------------------- HSI Configuration --------------------------*/ 
  if(((RCC_OscInitStruct->OscillatorType) & RCC_OSCILLATORTYPE_HSI) == RCC_OSCILLATORTYPE_HSI)
 8000e76:	687b      	ldr	r3, [r7, #4]
 8000e78:	681b      	ldr	r3, [r3, #0]
 8000e7a:	2202      	movs	r2, #2
 8000e7c:	4013      	ands	r3, r2
 8000e7e:	d100      	bne.n	8000e82 <HAL_RCC_OscConfig+0x14a>
 8000e80:	e06c      	b.n	8000f5c <HAL_RCC_OscConfig+0x224>
    /* Check the parameters */
    assert_param(IS_RCC_HSI(RCC_OscInitStruct->HSIState));
    assert_param(IS_RCC_CALIBRATION_VALUE(RCC_OscInitStruct->HSICalibrationValue));
    
    /* Check if HSI is used as system clock or as PLL source when PLL is selected as system clock */ 
    if((__HAL_RCC_GET_SYSCLK_SOURCE() == RCC_SYSCLKSOURCE_STATUS_HSI) 
 8000e82:	4b7b      	ldr	r3, [pc, #492]	; (8001070 <HAL_RCC_OscConfig+0x338>)
 8000e84:	685b      	ldr	r3, [r3, #4]
 8000e86:	220c      	movs	r2, #12
 8000e88:	4013      	ands	r3, r2
 8000e8a:	d00e      	beq.n	8000eaa <HAL_RCC_OscConfig+0x172>
       || ((__HAL_RCC_GET_SYSCLK_SOURCE() == RCC_SYSCLKSOURCE_STATUS_PLLCLK) && (__HAL_RCC_GET_PLL_OSCSOURCE() == RCC_PLLSOURCE_HSI)))
 8000e8c:	4b78      	ldr	r3, [pc, #480]	; (8001070 <HAL_RCC_OscConfig+0x338>)
 8000e8e:	685b      	ldr	r3, [r3, #4]
 8000e90:	220c      	movs	r2, #12
 8000e92:	4013      	ands	r3, r2
 8000e94:	2b08      	cmp	r3, #8
 8000e96:	d11f      	bne.n	8000ed8 <HAL_RCC_OscConfig+0x1a0>
 8000e98:	4b75      	ldr	r3, [pc, #468]	; (8001070 <HAL_RCC_OscConfig+0x338>)
 8000e9a:	685a      	ldr	r2, [r3, #4]
 8000e9c:	23c0      	movs	r3, #192	; 0xc0
 8000e9e:	025b      	lsls	r3, r3, #9
 8000ea0:	401a      	ands	r2, r3
 8000ea2:	2380      	movs	r3, #128	; 0x80
 8000ea4:	021b      	lsls	r3, r3, #8
 8000ea6:	429a      	cmp	r2, r3
 8000ea8:	d116      	bne.n	8000ed8 <HAL_RCC_OscConfig+0x1a0>
    {
      /* When HSI is used as system clock it will not disabled */
      if((__HAL_RCC_GET_FLAG(RCC_FLAG_HSIRDY) != RESET) && (RCC_OscInitStruct->HSIState != RCC_HSI_ON))
 8000eaa:	4b71      	ldr	r3, [pc, #452]	; (8001070 <HAL_RCC_OscConfig+0x338>)
 8000eac:	681b      	ldr	r3, [r3, #0]
 8000eae:	2202      	movs	r2, #2
 8000eb0:	4013      	ands	r3, r2
 8000eb2:	d005      	beq.n	8000ec0 <HAL_RCC_OscConfig+0x188>
 8000eb4:	687b      	ldr	r3, [r7, #4]
 8000eb6:	68db      	ldr	r3, [r3, #12]
 8000eb8:	2b01      	cmp	r3, #1
 8000eba:	d001      	beq.n	8000ec0 <HAL_RCC_OscConfig+0x188>
      {
        return HAL_ERROR;
 8000ebc:	2301      	movs	r3, #1
 8000ebe:	e2bb      	b.n	8001438 <HAL_RCC_OscConfig+0x700>
      }
      /* Otherwise, just the calibration is allowed */
      else
      {
        /* Adjusts the Internal High Speed oscillator (HSI) calibration value.*/
        __HAL_RCC_HSI_CALIBRATIONVALUE_ADJUST(RCC_OscInitStruct->HSICalibrationValue);
 8000ec0:	4b6b      	ldr	r3, [pc, #428]	; (8001070 <HAL_RCC_OscConfig+0x338>)
 8000ec2:	681b      	ldr	r3, [r3, #0]
 8000ec4:	22f8      	movs	r2, #248	; 0xf8
 8000ec6:	4393      	bics	r3, r2
 8000ec8:	0019      	movs	r1, r3
 8000eca:	687b      	ldr	r3, [r7, #4]
 8000ecc:	691b      	ldr	r3, [r3, #16]
 8000ece:	00da      	lsls	r2, r3, #3
 8000ed0:	4b67      	ldr	r3, [pc, #412]	; (8001070 <HAL_RCC_OscConfig+0x338>)
 8000ed2:	430a      	orrs	r2, r1
 8000ed4:	601a      	str	r2, [r3, #0]
      if((__HAL_RCC_GET_FLAG(RCC_FLAG_HSIRDY) != RESET) && (RCC_OscInitStruct->HSIState != RCC_HSI_ON))
 8000ed6:	e041      	b.n	8000f5c <HAL_RCC_OscConfig+0x224>
      }
    }
    else
    {
      /* Check the HSI State */
      if(RCC_OscInitStruct->HSIState != RCC_HSI_OFF)
 8000ed8:	687b      	ldr	r3, [r7, #4]
 8000eda:	68db      	ldr	r3, [r3, #12]
 8000edc:	2b00      	cmp	r3, #0
 8000ede:	d024      	beq.n	8000f2a <HAL_RCC_OscConfig+0x1f2>
      {
       /* Enable the Internal High Speed oscillator (HSI). */
        __HAL_RCC_HSI_ENABLE();
 8000ee0:	4b63      	ldr	r3, [pc, #396]	; (8001070 <HAL_RCC_OscConfig+0x338>)
 8000ee2:	681a      	ldr	r2, [r3, #0]
 8000ee4:	4b62      	ldr	r3, [pc, #392]	; (8001070 <HAL_RCC_OscConfig+0x338>)
 8000ee6:	2101      	movs	r1, #1
 8000ee8:	430a      	orrs	r2, r1
 8000eea:	601a      	str	r2, [r3, #0]
        
        /* Get Start Tick */
        tickstart = HAL_GetTick();
 8000eec:	f7ff fca2 	bl	8000834 <HAL_GetTick>
 8000ef0:	0003      	movs	r3, r0
 8000ef2:	61bb      	str	r3, [r7, #24]
        
        /* Wait till HSI is ready */
        while(__HAL_RCC_GET_FLAG(RCC_FLAG_HSIRDY) == RESET)
 8000ef4:	e008      	b.n	8000f08 <HAL_RCC_OscConfig+0x1d0>
        {
          if((HAL_GetTick() - tickstart ) > HSI_TIMEOUT_VALUE)
 8000ef6:	f7ff fc9d 	bl	8000834 <HAL_GetTick>
 8000efa:	0002      	movs	r2, r0
 8000efc:	69bb      	ldr	r3, [r7, #24]
 8000efe:	1ad3      	subs	r3, r2, r3
 8000f00:	2b02      	cmp	r3, #2
 8000f02:	d901      	bls.n	8000f08 <HAL_RCC_OscConfig+0x1d0>
          {
            return HAL_TIMEOUT;
 8000f04:	2303      	movs	r3, #3
 8000f06:	e297      	b.n	8001438 <HAL_RCC_OscConfig+0x700>
        while(__HAL_RCC_GET_FLAG(RCC_FLAG_HSIRDY) == RESET)
 8000f08:	4b59      	ldr	r3, [pc, #356]	; (8001070 <HAL_RCC_OscConfig+0x338>)
 8000f0a:	681b      	ldr	r3, [r3, #0]
 8000f0c:	2202      	movs	r2, #2
 8000f0e:	4013      	ands	r3, r2
 8000f10:	d0f1      	beq.n	8000ef6 <HAL_RCC_OscConfig+0x1be>
          }
        }
                
        /* Adjusts the Internal High Speed oscillator (HSI) calibration value.*/
        __HAL_RCC_HSI_CALIBRATIONVALUE_ADJUST(RCC_OscInitStruct->HSICalibrationValue);
 8000f12:	4b57      	ldr	r3, [pc, #348]	; (8001070 <HAL_RCC_OscConfig+0x338>)
 8000f14:	681b      	ldr	r3, [r3, #0]
 8000f16:	22f8      	movs	r2, #248	; 0xf8
 8000f18:	4393      	bics	r3, r2
 8000f1a:	0019      	movs	r1, r3
 8000f1c:	687b      	ldr	r3, [r7, #4]
 8000f1e:	691b      	ldr	r3, [r3, #16]
 8000f20:	00da      	lsls	r2, r3, #3
 8000f22:	4b53      	ldr	r3, [pc, #332]	; (8001070 <HAL_RCC_OscConfig+0x338>)
 8000f24:	430a      	orrs	r2, r1
 8000f26:	601a      	str	r2, [r3, #0]
 8000f28:	e018      	b.n	8000f5c <HAL_RCC_OscConfig+0x224>
      }
      else
      {
        /* Disable the Internal High Speed oscillator (HSI). */
        __HAL_RCC_HSI_DISABLE();
 8000f2a:	4b51      	ldr	r3, [pc, #324]	; (8001070 <HAL_RCC_OscConfig+0x338>)
 8000f2c:	681a      	ldr	r2, [r3, #0]
 8000f2e:	4b50      	ldr	r3, [pc, #320]	; (8001070 <HAL_RCC_OscConfig+0x338>)
 8000f30:	2101      	movs	r1, #1
 8000f32:	438a      	bics	r2, r1
 8000f34:	601a      	str	r2, [r3, #0]
        
        /* Get Start Tick */
        tickstart = HAL_GetTick();
 8000f36:	f7ff fc7d 	bl	8000834 <HAL_GetTick>
 8000f3a:	0003      	movs	r3, r0
 8000f3c:	61bb      	str	r3, [r7, #24]
        
        /* Wait till HSI is disabled */
        while(__HAL_RCC_GET_FLAG(RCC_FLAG_HSIRDY) != RESET)
 8000f3e:	e008      	b.n	8000f52 <HAL_RCC_OscConfig+0x21a>
        {
          if((HAL_GetTick() - tickstart ) > HSI_TIMEOUT_VALUE)
 8000f40:	f7ff fc78 	bl	8000834 <HAL_GetTick>
 8000f44:	0002      	movs	r2, r0
 8000f46:	69bb      	ldr	r3, [r7, #24]
 8000f48:	1ad3      	subs	r3, r2, r3
 8000f4a:	2b02      	cmp	r3, #2
 8000f4c:	d901      	bls.n	8000f52 <HAL_RCC_OscConfig+0x21a>
          {
            return HAL_TIMEOUT;
 8000f4e:	2303      	movs	r3, #3
 8000f50:	e272      	b.n	8001438 <HAL_RCC_OscConfig+0x700>
        while(__HAL_RCC_GET_FLAG(RCC_FLAG_HSIRDY) != RESET)
 8000f52:	4b47      	ldr	r3, [pc, #284]	; (8001070 <HAL_RCC_OscConfig+0x338>)
 8000f54:	681b      	ldr	r3, [r3, #0]
 8000f56:	2202      	movs	r2, #2
 8000f58:	4013      	ands	r3, r2
 8000f5a:	d1f1      	bne.n	8000f40 <HAL_RCC_OscConfig+0x208>
        }
      }
    }
  }
  /*------------------------------ LSI Configuration -------------------------*/ 
  if(((RCC_OscInitStruct->OscillatorType) & RCC_OSCILLATORTYPE_LSI) == RCC_OSCILLATORTYPE_LSI)
 8000f5c:	687b      	ldr	r3, [r7, #4]
 8000f5e:	681b      	ldr	r3, [r3, #0]
 8000f60:	2208      	movs	r2, #8
 8000f62:	4013      	ands	r3, r2
 8000f64:	d036      	beq.n	8000fd4 <HAL_RCC_OscConfig+0x29c>
  {
    /* Check the parameters */
    assert_param(IS_RCC_LSI(RCC_OscInitStruct->LSIState));
    
    /* Check the LSI State */
    if(RCC_OscInitStruct->LSIState != RCC_LSI_OFF)
 8000f66:	687b      	ldr	r3, [r7, #4]
 8000f68:	69db      	ldr	r3, [r3, #28]
 8000f6a:	2b00      	cmp	r3, #0
 8000f6c:	d019      	beq.n	8000fa2 <HAL_RCC_OscConfig+0x26a>
    {
      /* Enable the Internal Low Speed oscillator (LSI). */
      __HAL_RCC_LSI_ENABLE();
 8000f6e:	4b40      	ldr	r3, [pc, #256]	; (8001070 <HAL_RCC_OscConfig+0x338>)
 8000f70:	6a5a      	ldr	r2, [r3, #36]	; 0x24
 8000f72:	4b3f      	ldr	r3, [pc, #252]	; (8001070 <HAL_RCC_OscConfig+0x338>)
 8000f74:	2101      	movs	r1, #1
 8000f76:	430a      	orrs	r2, r1
 8000f78:	625a      	str	r2, [r3, #36]	; 0x24
      
      /* Get Start Tick */
      tickstart = HAL_GetTick();
 8000f7a:	f7ff fc5b 	bl	8000834 <HAL_GetTick>
 8000f7e:	0003      	movs	r3, r0
 8000f80:	61bb      	str	r3, [r7, #24]
      
      /* Wait till LSI is ready */  
      while(__HAL_RCC_GET_FLAG(RCC_FLAG_LSIRDY) == RESET)
 8000f82:	e008      	b.n	8000f96 <HAL_RCC_OscConfig+0x25e>
      {
        if((HAL_GetTick() - tickstart ) > LSI_TIMEOUT_VALUE)
 8000f84:	f7ff fc56 	bl	8000834 <HAL_GetTick>
 8000f88:	0002      	movs	r2, r0
 8000f8a:	69bb      	ldr	r3, [r7, #24]
 8000f8c:	1ad3      	subs	r3, r2, r3
 8000f8e:	2b02      	cmp	r3, #2
 8000f90:	d901      	bls.n	8000f96 <HAL_RCC_OscConfig+0x25e>
        {
          return HAL_TIMEOUT;
 8000f92:	2303      	movs	r3, #3
 8000f94:	e250      	b.n	8001438 <HAL_RCC_OscConfig+0x700>
      while(__HAL_RCC_GET_FLAG(RCC_FLAG_LSIRDY) == RESET)
 8000f96:	4b36      	ldr	r3, [pc, #216]	; (8001070 <HAL_RCC_OscConfig+0x338>)
 8000f98:	6a5b      	ldr	r3, [r3, #36]	; 0x24
 8000f9a:	2202      	movs	r2, #2
 8000f9c:	4013      	ands	r3, r2
 8000f9e:	d0f1      	beq.n	8000f84 <HAL_RCC_OscConfig+0x24c>
 8000fa0:	e018      	b.n	8000fd4 <HAL_RCC_OscConfig+0x29c>
      }
    }
    else
    {
      /* Disable the Internal Low Speed oscillator (LSI). */
      __HAL_RCC_LSI_DISABLE();
 8000fa2:	4b33      	ldr	r3, [pc, #204]	; (8001070 <HAL_RCC_OscConfig+0x338>)
 8000fa4:	6a5a      	ldr	r2, [r3, #36]	; 0x24
 8000fa6:	4b32      	ldr	r3, [pc, #200]	; (8001070 <HAL_RCC_OscConfig+0x338>)
 8000fa8:	2101      	movs	r1, #1
 8000faa:	438a      	bics	r2, r1
 8000fac:	625a      	str	r2, [r3, #36]	; 0x24
      
      /* Get Start Tick */
      tickstart = HAL_GetTick();
 8000fae:	f7ff fc41 	bl	8000834 <HAL_GetTick>
 8000fb2:	0003      	movs	r3, r0
 8000fb4:	61bb      	str	r3, [r7, #24]
      
      /* Wait till LSI is disabled */  
      while(__HAL_RCC_GET_FLAG(RCC_FLAG_LSIRDY) != RESET)
 8000fb6:	e008      	b.n	8000fca <HAL_RCC_OscConfig+0x292>
      {
        if((HAL_GetTick() - tickstart ) > LSI_TIMEOUT_VALUE)
 8000fb8:	f7ff fc3c 	bl	8000834 <HAL_GetTick>
 8000fbc:	0002      	movs	r2, r0
 8000fbe:	69bb      	ldr	r3, [r7, #24]
 8000fc0:	1ad3      	subs	r3, r2, r3
 8000fc2:	2b02      	cmp	r3, #2
 8000fc4:	d901      	bls.n	8000fca <HAL_RCC_OscConfig+0x292>
        {
          return HAL_TIMEOUT;
 8000fc6:	2303      	movs	r3, #3
 8000fc8:	e236      	b.n	8001438 <HAL_RCC_OscConfig+0x700>
      while(__HAL_RCC_GET_FLAG(RCC_FLAG_LSIRDY) != RESET)
 8000fca:	4b29      	ldr	r3, [pc, #164]	; (8001070 <HAL_RCC_OscConfig+0x338>)
 8000fcc:	6a5b      	ldr	r3, [r3, #36]	; 0x24
 8000fce:	2202      	movs	r2, #2
 8000fd0:	4013      	ands	r3, r2
 8000fd2:	d1f1      	bne.n	8000fb8 <HAL_RCC_OscConfig+0x280>
        }
      }
    }
  }
  /*------------------------------ LSE Configuration -------------------------*/ 
  if(((RCC_OscInitStruct->OscillatorType) & RCC_OSCILLATORTYPE_LSE) == RCC_OSCILLATORTYPE_LSE)
 8000fd4:	687b      	ldr	r3, [r7, #4]
 8000fd6:	681b      	ldr	r3, [r3, #0]
 8000fd8:	2204      	movs	r2, #4
 8000fda:	4013      	ands	r3, r2
 8000fdc:	d100      	bne.n	8000fe0 <HAL_RCC_OscConfig+0x2a8>
 8000fde:	e0b5      	b.n	800114c <HAL_RCC_OscConfig+0x414>
  {
    FlagStatus       pwrclkchanged = RESET;
 8000fe0:	231f      	movs	r3, #31
 8000fe2:	18fb      	adds	r3, r7, r3
 8000fe4:	2200      	movs	r2, #0
 8000fe6:	701a      	strb	r2, [r3, #0]
    /* Check the parameters */
    assert_param(IS_RCC_LSE(RCC_OscInitStruct->LSEState));

    /* Update LSE configuration in Backup Domain control register    */
    /* Requires to enable write access to Backup Domain of necessary */
    if(__HAL_RCC_PWR_IS_CLK_DISABLED())
 8000fe8:	4b21      	ldr	r3, [pc, #132]	; (8001070 <HAL_RCC_OscConfig+0x338>)
 8000fea:	69da      	ldr	r2, [r3, #28]
 8000fec:	2380      	movs	r3, #128	; 0x80
 8000fee:	055b      	lsls	r3, r3, #21
 8000ff0:	4013      	ands	r3, r2
 8000ff2:	d111      	bne.n	8001018 <HAL_RCC_OscConfig+0x2e0>
    {
      __HAL_RCC_PWR_CLK_ENABLE();
 8000ff4:	4b1e      	ldr	r3, [pc, #120]	; (8001070 <HAL_RCC_OscConfig+0x338>)
 8000ff6:	69da      	ldr	r2, [r3, #28]
 8000ff8:	4b1d      	ldr	r3, [pc, #116]	; (8001070 <HAL_RCC_OscConfig+0x338>)
 8000ffa:	2180      	movs	r1, #128	; 0x80
 8000ffc:	0549      	lsls	r1, r1, #21
 8000ffe:	430a      	orrs	r2, r1
 8001000:	61da      	str	r2, [r3, #28]
 8001002:	4b1b      	ldr	r3, [pc, #108]	; (8001070 <HAL_RCC_OscConfig+0x338>)
 8001004:	69da      	ldr	r2, [r3, #28]
 8001006:	2380      	movs	r3, #128	; 0x80
 8001008:	055b      	lsls	r3, r3, #21
 800100a:	4013      	ands	r3, r2
 800100c:	60fb      	str	r3, [r7, #12]
 800100e:	68fb      	ldr	r3, [r7, #12]
      pwrclkchanged = SET;
 8001010:	231f      	movs	r3, #31
 8001012:	18fb      	adds	r3, r7, r3
 8001014:	2201      	movs	r2, #1
 8001016:	701a      	strb	r2, [r3, #0]
    }
    
    if(HAL_IS_BIT_CLR(PWR->CR, PWR_CR_DBP))
 8001018:	4b18      	ldr	r3, [pc, #96]	; (800107c <HAL_RCC_OscConfig+0x344>)
 800101a:	681a      	ldr	r2, [r3, #0]
 800101c:	2380      	movs	r3, #128	; 0x80
 800101e:	005b      	lsls	r3, r3, #1
 8001020:	4013      	ands	r3, r2
 8001022:	d11a      	bne.n	800105a <HAL_RCC_OscConfig+0x322>
    {
      /* Enable write access to Backup domain */
      SET_BIT(PWR->CR, PWR_CR_DBP);
 8001024:	4b15      	ldr	r3, [pc, #84]	; (800107c <HAL_RCC_OscConfig+0x344>)
 8001026:	681a      	ldr	r2, [r3, #0]
 8001028:	4b14      	ldr	r3, [pc, #80]	; (800107c <HAL_RCC_OscConfig+0x344>)
 800102a:	2180      	movs	r1, #128	; 0x80
 800102c:	0049      	lsls	r1, r1, #1
 800102e:	430a      	orrs	r2, r1
 8001030:	601a      	str	r2, [r3, #0]
      
      /* Wait for Backup domain Write protection disable */
      tickstart = HAL_GetTick();
 8001032:	f7ff fbff 	bl	8000834 <HAL_GetTick>
 8001036:	0003      	movs	r3, r0
 8001038:	61bb      	str	r3, [r7, #24]

      while(HAL_IS_BIT_CLR(PWR->CR, PWR_CR_DBP))
 800103a:	e008      	b.n	800104e <HAL_RCC_OscConfig+0x316>
      {
        if((HAL_GetTick() - tickstart) > RCC_DBP_TIMEOUT_VALUE)
 800103c:	f7ff fbfa 	bl	8000834 <HAL_GetTick>
 8001040:	0002      	movs	r2, r0
 8001042:	69bb      	ldr	r3, [r7, #24]
 8001044:	1ad3      	subs	r3, r2, r3
 8001046:	2b64      	cmp	r3, #100	; 0x64
 8001048:	d901      	bls.n	800104e <HAL_RCC_OscConfig+0x316>
        {
          return HAL_TIMEOUT;
 800104a:	2303      	movs	r3, #3
 800104c:	e1f4      	b.n	8001438 <HAL_RCC_OscConfig+0x700>
      while(HAL_IS_BIT_CLR(PWR->CR, PWR_CR_DBP))
 800104e:	4b0b      	ldr	r3, [pc, #44]	; (800107c <HAL_RCC_OscConfig+0x344>)
 8001050:	681a      	ldr	r2, [r3, #0]
 8001052:	2380      	movs	r3, #128	; 0x80
 8001054:	005b      	lsls	r3, r3, #1
 8001056:	4013      	ands	r3, r2
 8001058:	d0f0      	beq.n	800103c <HAL_RCC_OscConfig+0x304>
        }
      }
    }

    /* Set the new LSE configuration -----------------------------------------*/
    __HAL_RCC_LSE_CONFIG(RCC_OscInitStruct->LSEState);
 800105a:	687b      	ldr	r3, [r7, #4]
 800105c:	689b      	ldr	r3, [r3, #8]
 800105e:	2b01      	cmp	r3, #1
 8001060:	d10e      	bne.n	8001080 <HAL_RCC_OscConfig+0x348>
 8001062:	4b03      	ldr	r3, [pc, #12]	; (8001070 <HAL_RCC_OscConfig+0x338>)
 8001064:	6a1a      	ldr	r2, [r3, #32]
 8001066:	4b02      	ldr	r3, [pc, #8]	; (8001070 <HAL_RCC_OscConfig+0x338>)
 8001068:	2101      	movs	r1, #1
 800106a:	430a      	orrs	r2, r1
 800106c:	621a      	str	r2, [r3, #32]
 800106e:	e035      	b.n	80010dc <HAL_RCC_OscConfig+0x3a4>
 8001070:	40021000 	.word	0x40021000
 8001074:	fffeffff 	.word	0xfffeffff
 8001078:	fffbffff 	.word	0xfffbffff
 800107c:	40007000 	.word	0x40007000
 8001080:	687b      	ldr	r3, [r7, #4]
 8001082:	689b      	ldr	r3, [r3, #8]
 8001084:	2b00      	cmp	r3, #0
 8001086:	d10c      	bne.n	80010a2 <HAL_RCC_OscConfig+0x36a>
 8001088:	4bca      	ldr	r3, [pc, #808]	; (80013b4 <HAL_RCC_OscConfig+0x67c>)
 800108a:	6a1a      	ldr	r2, [r3, #32]
 800108c:	4bc9      	ldr	r3, [pc, #804]	; (80013b4 <HAL_RCC_OscConfig+0x67c>)
 800108e:	2101      	movs	r1, #1
 8001090:	438a      	bics	r2, r1
 8001092:	621a      	str	r2, [r3, #32]
 8001094:	4bc7      	ldr	r3, [pc, #796]	; (80013b4 <HAL_RCC_OscConfig+0x67c>)
 8001096:	6a1a      	ldr	r2, [r3, #32]
 8001098:	4bc6      	ldr	r3, [pc, #792]	; (80013b4 <HAL_RCC_OscConfig+0x67c>)
 800109a:	2104      	movs	r1, #4
 800109c:	438a      	bics	r2, r1
 800109e:	621a      	str	r2, [r3, #32]
 80010a0:	e01c      	b.n	80010dc <HAL_RCC_OscConfig+0x3a4>
 80010a2:	687b      	ldr	r3, [r7, #4]
 80010a4:	689b      	ldr	r3, [r3, #8]
 80010a6:	2b05      	cmp	r3, #5
 80010a8:	d10c      	bne.n	80010c4 <HAL_RCC_OscConfig+0x38c>
 80010aa:	4bc2      	ldr	r3, [pc, #776]	; (80013b4 <HAL_RCC_OscConfig+0x67c>)
 80010ac:	6a1a      	ldr	r2, [r3, #32]
 80010ae:	4bc1      	ldr	r3, [pc, #772]	; (80013b4 <HAL_RCC_OscConfig+0x67c>)
 80010b0:	2104      	movs	r1, #4
 80010b2:	430a      	orrs	r2, r1
 80010b4:	621a      	str	r2, [r3, #32]
 80010b6:	4bbf      	ldr	r3, [pc, #764]	; (80013b4 <HAL_RCC_OscConfig+0x67c>)
 80010b8:	6a1a      	ldr	r2, [r3, #32]
 80010ba:	4bbe      	ldr	r3, [pc, #760]	; (80013b4 <HAL_RCC_OscConfig+0x67c>)
 80010bc:	2101      	movs	r1, #1
 80010be:	430a      	orrs	r2, r1
 80010c0:	621a      	str	r2, [r3, #32]
 80010c2:	e00b      	b.n	80010dc <HAL_RCC_OscConfig+0x3a4>
 80010c4:	4bbb      	ldr	r3, [pc, #748]	; (80013b4 <HAL_RCC_OscConfig+0x67c>)
 80010c6:	6a1a      	ldr	r2, [r3, #32]
 80010c8:	4bba      	ldr	r3, [pc, #744]	; (80013b4 <HAL_RCC_OscConfig+0x67c>)
 80010ca:	2101      	movs	r1, #1
 80010cc:	438a      	bics	r2, r1
 80010ce:	621a      	str	r2, [r3, #32]
 80010d0:	4bb8      	ldr	r3, [pc, #736]	; (80013b4 <HAL_RCC_OscConfig+0x67c>)
 80010d2:	6a1a      	ldr	r2, [r3, #32]
 80010d4:	4bb7      	ldr	r3, [pc, #732]	; (80013b4 <HAL_RCC_OscConfig+0x67c>)
 80010d6:	2104      	movs	r1, #4
 80010d8:	438a      	bics	r2, r1
 80010da:	621a      	str	r2, [r3, #32]
    /* Check the LSE State */
    if(RCC_OscInitStruct->LSEState != RCC_LSE_OFF)
 80010dc:	687b      	ldr	r3, [r7, #4]
 80010de:	689b      	ldr	r3, [r3, #8]
 80010e0:	2b00      	cmp	r3, #0
 80010e2:	d014      	beq.n	800110e <HAL_RCC_OscConfig+0x3d6>
    {
      /* Get Start Tick */
      tickstart = HAL_GetTick();
 80010e4:	f7ff fba6 	bl	8000834 <HAL_GetTick>
 80010e8:	0003      	movs	r3, r0
 80010ea:	61bb      	str	r3, [r7, #24]
      
      /* Wait till LSE is ready */  
      while(__HAL_RCC_GET_FLAG(RCC_FLAG_LSERDY) == RESET)
 80010ec:	e009      	b.n	8001102 <HAL_RCC_OscConfig+0x3ca>
      {
        if((HAL_GetTick() - tickstart ) > RCC_LSE_TIMEOUT_VALUE)
 80010ee:	f7ff fba1 	bl	8000834 <HAL_GetTick>
 80010f2:	0002      	movs	r2, r0
 80010f4:	69bb      	ldr	r3, [r7, #24]
 80010f6:	1ad3      	subs	r3, r2, r3
 80010f8:	4aaf      	ldr	r2, [pc, #700]	; (80013b8 <HAL_RCC_OscConfig+0x680>)
 80010fa:	4293      	cmp	r3, r2
 80010fc:	d901      	bls.n	8001102 <HAL_RCC_OscConfig+0x3ca>
        {
          return HAL_TIMEOUT;
 80010fe:	2303      	movs	r3, #3
 8001100:	e19a      	b.n	8001438 <HAL_RCC_OscConfig+0x700>
      while(__HAL_RCC_GET_FLAG(RCC_FLAG_LSERDY) == RESET)
 8001102:	4bac      	ldr	r3, [pc, #688]	; (80013b4 <HAL_RCC_OscConfig+0x67c>)
 8001104:	6a1b      	ldr	r3, [r3, #32]
 8001106:	2202      	movs	r2, #2
 8001108:	4013      	ands	r3, r2
 800110a:	d0f0      	beq.n	80010ee <HAL_RCC_OscConfig+0x3b6>
 800110c:	e013      	b.n	8001136 <HAL_RCC_OscConfig+0x3fe>
      }
    }
    else
    {
      /* Get Start Tick */
      tickstart = HAL_GetTick();
 800110e:	f7ff fb91 	bl	8000834 <HAL_GetTick>
 8001112:	0003      	movs	r3, r0
 8001114:	61bb      	str	r3, [r7, #24]
      
      /* Wait till LSE is disabled */  
      while(__HAL_RCC_GET_FLAG(RCC_FLAG_LSERDY) != RESET)
 8001116:	e009      	b.n	800112c <HAL_RCC_OscConfig+0x3f4>
      {
        if((HAL_GetTick() - tickstart ) > RCC_LSE_TIMEOUT_VALUE)
 8001118:	f7ff fb8c 	bl	8000834 <HAL_GetTick>
 800111c:	0002      	movs	r2, r0
 800111e:	69bb      	ldr	r3, [r7, #24]
 8001120:	1ad3      	subs	r3, r2, r3
 8001122:	4aa5      	ldr	r2, [pc, #660]	; (80013b8 <HAL_RCC_OscConfig+0x680>)
 8001124:	4293      	cmp	r3, r2
 8001126:	d901      	bls.n	800112c <HAL_RCC_OscConfig+0x3f4>
        {
          return HAL_TIMEOUT;
 8001128:	2303      	movs	r3, #3
 800112a:	e185      	b.n	8001438 <HAL_RCC_OscConfig+0x700>
      while(__HAL_RCC_GET_FLAG(RCC_FLAG_LSERDY) != RESET)
 800112c:	4ba1      	ldr	r3, [pc, #644]	; (80013b4 <HAL_RCC_OscConfig+0x67c>)
 800112e:	6a1b      	ldr	r3, [r3, #32]
 8001130:	2202      	movs	r2, #2
 8001132:	4013      	ands	r3, r2
 8001134:	d1f0      	bne.n	8001118 <HAL_RCC_OscConfig+0x3e0>
        }
      }
    }

    /* Require to disable power clock if necessary */
    if(pwrclkchanged == SET)
 8001136:	231f      	movs	r3, #31
 8001138:	18fb      	adds	r3, r7, r3
 800113a:	781b      	ldrb	r3, [r3, #0]
 800113c:	2b01      	cmp	r3, #1
 800113e:	d105      	bne.n	800114c <HAL_RCC_OscConfig+0x414>
    {
      __HAL_RCC_PWR_CLK_DISABLE();
 8001140:	4b9c      	ldr	r3, [pc, #624]	; (80013b4 <HAL_RCC_OscConfig+0x67c>)
 8001142:	69da      	ldr	r2, [r3, #28]
 8001144:	4b9b      	ldr	r3, [pc, #620]	; (80013b4 <HAL_RCC_OscConfig+0x67c>)
 8001146:	499d      	ldr	r1, [pc, #628]	; (80013bc <HAL_RCC_OscConfig+0x684>)
 8001148:	400a      	ands	r2, r1
 800114a:	61da      	str	r2, [r3, #28]
    }
  }

  /*----------------------------- HSI14 Configuration --------------------------*/
  if(((RCC_OscInitStruct->OscillatorType) & RCC_OSCILLATORTYPE_HSI14) == RCC_OSCILLATORTYPE_HSI14)
 800114c:	687b      	ldr	r3, [r7, #4]
 800114e:	681b      	ldr	r3, [r3, #0]
 8001150:	2210      	movs	r2, #16
 8001152:	4013      	ands	r3, r2
 8001154:	d063      	beq.n	800121e <HAL_RCC_OscConfig+0x4e6>
    /* Check the parameters */
    assert_param(IS_RCC_HSI14(RCC_OscInitStruct->HSI14State));
    assert_param(IS_RCC_CALIBRATION_VALUE(RCC_OscInitStruct->HSI14CalibrationValue));

    /* Check the HSI14 State */
    if(RCC_OscInitStruct->HSI14State == RCC_HSI14_ON)
 8001156:	687b      	ldr	r3, [r7, #4]
 8001158:	695b      	ldr	r3, [r3, #20]
 800115a:	2b01      	cmp	r3, #1
 800115c:	d12a      	bne.n	80011b4 <HAL_RCC_OscConfig+0x47c>
    {
      /* Disable ADC control of the Internal High Speed oscillator HSI14 */
      __HAL_RCC_HSI14ADC_DISABLE();
 800115e:	4b95      	ldr	r3, [pc, #596]	; (80013b4 <HAL_RCC_OscConfig+0x67c>)
 8001160:	6b5a      	ldr	r2, [r3, #52]	; 0x34
 8001162:	4b94      	ldr	r3, [pc, #592]	; (80013b4 <HAL_RCC_OscConfig+0x67c>)
 8001164:	2104      	movs	r1, #4
 8001166:	430a      	orrs	r2, r1
 8001168:	635a      	str	r2, [r3, #52]	; 0x34

      /* Enable the Internal High Speed oscillator (HSI). */
      __HAL_RCC_HSI14_ENABLE();
 800116a:	4b92      	ldr	r3, [pc, #584]	; (80013b4 <HAL_RCC_OscConfig+0x67c>)
 800116c:	6b5a      	ldr	r2, [r3, #52]	; 0x34
 800116e:	4b91      	ldr	r3, [pc, #580]	; (80013b4 <HAL_RCC_OscConfig+0x67c>)
 8001170:	2101      	movs	r1, #1
 8001172:	430a      	orrs	r2, r1
 8001174:	635a      	str	r2, [r3, #52]	; 0x34

      /* Get Start Tick */
      tickstart = HAL_GetTick();
 8001176:	f7ff fb5d 	bl	8000834 <HAL_GetTick>
 800117a:	0003      	movs	r3, r0
 800117c:	61bb      	str	r3, [r7, #24]
      
      /* Wait till HSI is ready */  
      while(__HAL_RCC_GET_FLAG(RCC_FLAG_HSI14RDY) == RESET)
 800117e:	e008      	b.n	8001192 <HAL_RCC_OscConfig+0x45a>
      {
        if((HAL_GetTick() - tickstart) > HSI14_TIMEOUT_VALUE)
 8001180:	f7ff fb58 	bl	8000834 <HAL_GetTick>
 8001184:	0002      	movs	r2, r0
 8001186:	69bb      	ldr	r3, [r7, #24]
 8001188:	1ad3      	subs	r3, r2, r3
 800118a:	2b02      	cmp	r3, #2
 800118c:	d901      	bls.n	8001192 <HAL_RCC_OscConfig+0x45a>
        {
          return HAL_TIMEOUT;
 800118e:	2303      	movs	r3, #3
 8001190:	e152      	b.n	8001438 <HAL_RCC_OscConfig+0x700>
      while(__HAL_RCC_GET_FLAG(RCC_FLAG_HSI14RDY) == RESET)
 8001192:	4b88      	ldr	r3, [pc, #544]	; (80013b4 <HAL_RCC_OscConfig+0x67c>)
 8001194:	6b5b      	ldr	r3, [r3, #52]	; 0x34
 8001196:	2202      	movs	r2, #2
 8001198:	4013      	ands	r3, r2
 800119a:	d0f1      	beq.n	8001180 <HAL_RCC_OscConfig+0x448>
        }      
      } 

      /* Adjusts the Internal High Speed oscillator 14Mhz (HSI14) calibration value. */
      __HAL_RCC_HSI14_CALIBRATIONVALUE_ADJUST(RCC_OscInitStruct->HSI14CalibrationValue);
 800119c:	4b85      	ldr	r3, [pc, #532]	; (80013b4 <HAL_RCC_OscConfig+0x67c>)
 800119e:	6b5b      	ldr	r3, [r3, #52]	; 0x34
 80011a0:	22f8      	movs	r2, #248	; 0xf8
 80011a2:	4393      	bics	r3, r2
 80011a4:	0019      	movs	r1, r3
 80011a6:	687b      	ldr	r3, [r7, #4]
 80011a8:	699b      	ldr	r3, [r3, #24]
 80011aa:	00da      	lsls	r2, r3, #3
 80011ac:	4b81      	ldr	r3, [pc, #516]	; (80013b4 <HAL_RCC_OscConfig+0x67c>)
 80011ae:	430a      	orrs	r2, r1
 80011b0:	635a      	str	r2, [r3, #52]	; 0x34
 80011b2:	e034      	b.n	800121e <HAL_RCC_OscConfig+0x4e6>
    }
    else if(RCC_OscInitStruct->HSI14State == RCC_HSI14_ADC_CONTROL)
 80011b4:	687b      	ldr	r3, [r7, #4]
 80011b6:	695b      	ldr	r3, [r3, #20]
 80011b8:	3305      	adds	r3, #5
 80011ba:	d111      	bne.n	80011e0 <HAL_RCC_OscConfig+0x4a8>
    {
      /* Enable ADC control of the Internal High Speed oscillator HSI14 */
      __HAL_RCC_HSI14ADC_ENABLE();
 80011bc:	4b7d      	ldr	r3, [pc, #500]	; (80013b4 <HAL_RCC_OscConfig+0x67c>)
 80011be:	6b5a      	ldr	r2, [r3, #52]	; 0x34
 80011c0:	4b7c      	ldr	r3, [pc, #496]	; (80013b4 <HAL_RCC_OscConfig+0x67c>)
 80011c2:	2104      	movs	r1, #4
 80011c4:	438a      	bics	r2, r1
 80011c6:	635a      	str	r2, [r3, #52]	; 0x34

      /* Adjusts the Internal High Speed oscillator 14Mhz (HSI14) calibration value. */
      __HAL_RCC_HSI14_CALIBRATIONVALUE_ADJUST(RCC_OscInitStruct->HSI14CalibrationValue);
 80011c8:	4b7a      	ldr	r3, [pc, #488]	; (80013b4 <HAL_RCC_OscConfig+0x67c>)
 80011ca:	6b5b      	ldr	r3, [r3, #52]	; 0x34
 80011cc:	22f8      	movs	r2, #248	; 0xf8
 80011ce:	4393      	bics	r3, r2
 80011d0:	0019      	movs	r1, r3
 80011d2:	687b      	ldr	r3, [r7, #4]
 80011d4:	699b      	ldr	r3, [r3, #24]
 80011d6:	00da      	lsls	r2, r3, #3
 80011d8:	4b76      	ldr	r3, [pc, #472]	; (80013b4 <HAL_RCC_OscConfig+0x67c>)
 80011da:	430a      	orrs	r2, r1
 80011dc:	635a      	str	r2, [r3, #52]	; 0x34
 80011de:	e01e      	b.n	800121e <HAL_RCC_OscConfig+0x4e6>
    }
    else
    {
      /* Disable ADC control of the Internal High Speed oscillator HSI14 */
      __HAL_RCC_HSI14ADC_DISABLE();
 80011e0:	4b74      	ldr	r3, [pc, #464]	; (80013b4 <HAL_RCC_OscConfig+0x67c>)
 80011e2:	6b5a      	ldr	r2, [r3, #52]	; 0x34
 80011e4:	4b73      	ldr	r3, [pc, #460]	; (80013b4 <HAL_RCC_OscConfig+0x67c>)
 80011e6:	2104      	movs	r1, #4
 80011e8:	430a      	orrs	r2, r1
 80011ea:	635a      	str	r2, [r3, #52]	; 0x34

      /* Disable the Internal High Speed oscillator (HSI). */
      __HAL_RCC_HSI14_DISABLE();
 80011ec:	4b71      	ldr	r3, [pc, #452]	; (80013b4 <HAL_RCC_OscConfig+0x67c>)
 80011ee:	6b5a      	ldr	r2, [r3, #52]	; 0x34
 80011f0:	4b70      	ldr	r3, [pc, #448]	; (80013b4 <HAL_RCC_OscConfig+0x67c>)
 80011f2:	2101      	movs	r1, #1
 80011f4:	438a      	bics	r2, r1
 80011f6:	635a      	str	r2, [r3, #52]	; 0x34

      /* Get Start Tick */
      tickstart = HAL_GetTick();
 80011f8:	f7ff fb1c 	bl	8000834 <HAL_GetTick>
 80011fc:	0003      	movs	r3, r0
 80011fe:	61bb      	str	r3, [r7, #24]
      
      /* Wait till HSI is ready */  
      while(__HAL_RCC_GET_FLAG(RCC_FLAG_HSI14RDY) != RESET)
 8001200:	e008      	b.n	8001214 <HAL_RCC_OscConfig+0x4dc>
      {
        if((HAL_GetTick() - tickstart) > HSI14_TIMEOUT_VALUE)
 8001202:	f7ff fb17 	bl	8000834 <HAL_GetTick>
 8001206:	0002      	movs	r2, r0
 8001208:	69bb      	ldr	r3, [r7, #24]
 800120a:	1ad3      	subs	r3, r2, r3
 800120c:	2b02      	cmp	r3, #2
 800120e:	d901      	bls.n	8001214 <HAL_RCC_OscConfig+0x4dc>
        {
          return HAL_TIMEOUT;
 8001210:	2303      	movs	r3, #3
 8001212:	e111      	b.n	8001438 <HAL_RCC_OscConfig+0x700>
      while(__HAL_RCC_GET_FLAG(RCC_FLAG_HSI14RDY) != RESET)
 8001214:	4b67      	ldr	r3, [pc, #412]	; (80013b4 <HAL_RCC_OscConfig+0x67c>)
 8001216:	6b5b      	ldr	r3, [r3, #52]	; 0x34
 8001218:	2202      	movs	r2, #2
 800121a:	4013      	ands	r3, r2
 800121c:	d1f1      	bne.n	8001202 <HAL_RCC_OscConfig+0x4ca>
    }
  }

#if defined(RCC_HSI48_SUPPORT)
  /*----------------------------- HSI48 Configuration --------------------------*/
  if(((RCC_OscInitStruct->OscillatorType) & RCC_OSCILLATORTYPE_HSI48) == RCC_OSCILLATORTYPE_HSI48)
 800121e:	687b      	ldr	r3, [r7, #4]
 8001220:	681b      	ldr	r3, [r3, #0]
 8001222:	2220      	movs	r2, #32
 8001224:	4013      	ands	r3, r2
 8001226:	d05c      	beq.n	80012e2 <HAL_RCC_OscConfig+0x5aa>
  {
    /* Check the parameters */
    assert_param(IS_RCC_HSI48(RCC_OscInitStruct->HSI48State));

    /* When the HSI48 is used as system clock it is not allowed to be disabled */
    if((__HAL_RCC_GET_SYSCLK_SOURCE() == RCC_SYSCLKSOURCE_STATUS_HSI48) ||
 8001228:	4b62      	ldr	r3, [pc, #392]	; (80013b4 <HAL_RCC_OscConfig+0x67c>)
 800122a:	685b      	ldr	r3, [r3, #4]
 800122c:	220c      	movs	r2, #12
 800122e:	4013      	ands	r3, r2
 8001230:	2b0c      	cmp	r3, #12
 8001232:	d00e      	beq.n	8001252 <HAL_RCC_OscConfig+0x51a>
       ((__HAL_RCC_GET_SYSCLK_SOURCE() == RCC_SYSCLKSOURCE_STATUS_PLLCLK) && (__HAL_RCC_GET_PLL_OSCSOURCE() == RCC_PLLSOURCE_HSI48)))
 8001234:	4b5f      	ldr	r3, [pc, #380]	; (80013b4 <HAL_RCC_OscConfig+0x67c>)
 8001236:	685b      	ldr	r3, [r3, #4]
 8001238:	220c      	movs	r2, #12
 800123a:	4013      	ands	r3, r2
    if((__HAL_RCC_GET_SYSCLK_SOURCE() == RCC_SYSCLKSOURCE_STATUS_HSI48) ||
 800123c:	2b08      	cmp	r3, #8
 800123e:	d114      	bne.n	800126a <HAL_RCC_OscConfig+0x532>
       ((__HAL_RCC_GET_SYSCLK_SOURCE() == RCC_SYSCLKSOURCE_STATUS_PLLCLK) && (__HAL_RCC_GET_PLL_OSCSOURCE() == RCC_PLLSOURCE_HSI48)))
 8001240:	4b5c      	ldr	r3, [pc, #368]	; (80013b4 <HAL_RCC_OscConfig+0x67c>)
 8001242:	685a      	ldr	r2, [r3, #4]
 8001244:	23c0      	movs	r3, #192	; 0xc0
 8001246:	025b      	lsls	r3, r3, #9
 8001248:	401a      	ands	r2, r3
 800124a:	23c0      	movs	r3, #192	; 0xc0
 800124c:	025b      	lsls	r3, r3, #9
 800124e:	429a      	cmp	r2, r3
 8001250:	d10b      	bne.n	800126a <HAL_RCC_OscConfig+0x532>
    {
      if((__HAL_RCC_GET_FLAG(RCC_FLAG_HSI48RDY) != RESET) && (RCC_OscInitStruct->HSI48State != RCC_HSI48_ON))
 8001252:	4b58      	ldr	r3, [pc, #352]	; (80013b4 <HAL_RCC_OscConfig+0x67c>)
 8001254:	6b5a      	ldr	r2, [r3, #52]	; 0x34
 8001256:	2380      	movs	r3, #128	; 0x80
 8001258:	025b      	lsls	r3, r3, #9
 800125a:	4013      	ands	r3, r2
 800125c:	d040      	beq.n	80012e0 <HAL_RCC_OscConfig+0x5a8>
 800125e:	687b      	ldr	r3, [r7, #4]
 8001260:	6a1b      	ldr	r3, [r3, #32]
 8001262:	2b01      	cmp	r3, #1
 8001264:	d03c      	beq.n	80012e0 <HAL_RCC_OscConfig+0x5a8>
      {
        return HAL_ERROR;
 8001266:	2301      	movs	r3, #1
 8001268:	e0e6      	b.n	8001438 <HAL_RCC_OscConfig+0x700>
      }
    }
    else
    {
      /* Check the HSI48 State */
      if(RCC_OscInitStruct->HSI48State != RCC_HSI48_OFF)
 800126a:	687b      	ldr	r3, [r7, #4]
 800126c:	6a1b      	ldr	r3, [r3, #32]
 800126e:	2b00      	cmp	r3, #0
 8001270:	d01b      	beq.n	80012aa <HAL_RCC_OscConfig+0x572>
      {
        /* Enable the Internal High Speed oscillator (HSI48). */
        __HAL_RCC_HSI48_ENABLE();
 8001272:	4b50      	ldr	r3, [pc, #320]	; (80013b4 <HAL_RCC_OscConfig+0x67c>)
 8001274:	6b5a      	ldr	r2, [r3, #52]	; 0x34
 8001276:	4b4f      	ldr	r3, [pc, #316]	; (80013b4 <HAL_RCC_OscConfig+0x67c>)
 8001278:	2180      	movs	r1, #128	; 0x80
 800127a:	0249      	lsls	r1, r1, #9
 800127c:	430a      	orrs	r2, r1
 800127e:	635a      	str	r2, [r3, #52]	; 0x34

        /* Get Start Tick */
        tickstart = HAL_GetTick();
 8001280:	f7ff fad8 	bl	8000834 <HAL_GetTick>
 8001284:	0003      	movs	r3, r0
 8001286:	61bb      	str	r3, [r7, #24]
      
        /* Wait till HSI48 is ready */  
        while(__HAL_RCC_GET_FLAG(RCC_FLAG_HSI48RDY) == RESET)
 8001288:	e008      	b.n	800129c <HAL_RCC_OscConfig+0x564>
        {
          if((HAL_GetTick() - tickstart) > HSI48_TIMEOUT_VALUE)
 800128a:	f7ff fad3 	bl	8000834 <HAL_GetTick>
 800128e:	0002      	movs	r2, r0
 8001290:	69bb      	ldr	r3, [r7, #24]
 8001292:	1ad3      	subs	r3, r2, r3
 8001294:	2b02      	cmp	r3, #2
 8001296:	d901      	bls.n	800129c <HAL_RCC_OscConfig+0x564>
          {
            return HAL_TIMEOUT;
 8001298:	2303      	movs	r3, #3
 800129a:	e0cd      	b.n	8001438 <HAL_RCC_OscConfig+0x700>
        while(__HAL_RCC_GET_FLAG(RCC_FLAG_HSI48RDY) == RESET)
 800129c:	4b45      	ldr	r3, [pc, #276]	; (80013b4 <HAL_RCC_OscConfig+0x67c>)
 800129e:	6b5a      	ldr	r2, [r3, #52]	; 0x34
 80012a0:	2380      	movs	r3, #128	; 0x80
 80012a2:	025b      	lsls	r3, r3, #9
 80012a4:	4013      	ands	r3, r2
 80012a6:	d0f0      	beq.n	800128a <HAL_RCC_OscConfig+0x552>
 80012a8:	e01b      	b.n	80012e2 <HAL_RCC_OscConfig+0x5aa>
        } 
      }
      else
      {
        /* Disable the Internal High Speed oscillator (HSI48). */
        __HAL_RCC_HSI48_DISABLE();
 80012aa:	4b42      	ldr	r3, [pc, #264]	; (80013b4 <HAL_RCC_OscConfig+0x67c>)
 80012ac:	6b5a      	ldr	r2, [r3, #52]	; 0x34
 80012ae:	4b41      	ldr	r3, [pc, #260]	; (80013b4 <HAL_RCC_OscConfig+0x67c>)
 80012b0:	4943      	ldr	r1, [pc, #268]	; (80013c0 <HAL_RCC_OscConfig+0x688>)
 80012b2:	400a      	ands	r2, r1
 80012b4:	635a      	str	r2, [r3, #52]	; 0x34

        /* Get Start Tick */
        tickstart = HAL_GetTick();
 80012b6:	f7ff fabd 	bl	8000834 <HAL_GetTick>
 80012ba:	0003      	movs	r3, r0
 80012bc:	61bb      	str	r3, [r7, #24]
      
        /* Wait till HSI48 is ready */  
        while(__HAL_RCC_GET_FLAG(RCC_FLAG_HSI48RDY) != RESET)
 80012be:	e008      	b.n	80012d2 <HAL_RCC_OscConfig+0x59a>
        {
          if((HAL_GetTick() - tickstart) > HSI48_TIMEOUT_VALUE)
 80012c0:	f7ff fab8 	bl	8000834 <HAL_GetTick>
 80012c4:	0002      	movs	r2, r0
 80012c6:	69bb      	ldr	r3, [r7, #24]
 80012c8:	1ad3      	subs	r3, r2, r3
 80012ca:	2b02      	cmp	r3, #2
 80012cc:	d901      	bls.n	80012d2 <HAL_RCC_OscConfig+0x59a>
          {
            return HAL_TIMEOUT;
 80012ce:	2303      	movs	r3, #3
 80012d0:	e0b2      	b.n	8001438 <HAL_RCC_OscConfig+0x700>
        while(__HAL_RCC_GET_FLAG(RCC_FLAG_HSI48RDY) != RESET)
 80012d2:	4b38      	ldr	r3, [pc, #224]	; (80013b4 <HAL_RCC_OscConfig+0x67c>)
 80012d4:	6b5a      	ldr	r2, [r3, #52]	; 0x34
 80012d6:	2380      	movs	r3, #128	; 0x80
 80012d8:	025b      	lsls	r3, r3, #9
 80012da:	4013      	ands	r3, r2
 80012dc:	d1f0      	bne.n	80012c0 <HAL_RCC_OscConfig+0x588>
 80012de:	e000      	b.n	80012e2 <HAL_RCC_OscConfig+0x5aa>
      if((__HAL_RCC_GET_FLAG(RCC_FLAG_HSI48RDY) != RESET) && (RCC_OscInitStruct->HSI48State != RCC_HSI48_ON))
 80012e0:	46c0      	nop			; (mov r8, r8)
#endif /* RCC_HSI48_SUPPORT */
       
  /*-------------------------------- PLL Configuration -----------------------*/
  /* Check the parameters */
  assert_param(IS_RCC_PLL(RCC_OscInitStruct->PLL.PLLState));
  if ((RCC_OscInitStruct->PLL.PLLState) != RCC_PLL_NONE)
 80012e2:	687b      	ldr	r3, [r7, #4]
 80012e4:	6a5b      	ldr	r3, [r3, #36]	; 0x24
 80012e6:	2b00      	cmp	r3, #0
 80012e8:	d100      	bne.n	80012ec <HAL_RCC_OscConfig+0x5b4>
 80012ea:	e0a4      	b.n	8001436 <HAL_RCC_OscConfig+0x6fe>
  {
    /* Check if the PLL is used as system clock or not */
    if(__HAL_RCC_GET_SYSCLK_SOURCE() != RCC_SYSCLKSOURCE_STATUS_PLLCLK)
 80012ec:	4b31      	ldr	r3, [pc, #196]	; (80013b4 <HAL_RCC_OscConfig+0x67c>)
 80012ee:	685b      	ldr	r3, [r3, #4]
 80012f0:	220c      	movs	r2, #12
 80012f2:	4013      	ands	r3, r2
 80012f4:	2b08      	cmp	r3, #8
 80012f6:	d100      	bne.n	80012fa <HAL_RCC_OscConfig+0x5c2>
 80012f8:	e078      	b.n	80013ec <HAL_RCC_OscConfig+0x6b4>
    { 
      if((RCC_OscInitStruct->PLL.PLLState) == RCC_PLL_ON)
 80012fa:	687b      	ldr	r3, [r7, #4]
 80012fc:	6a5b      	ldr	r3, [r3, #36]	; 0x24
 80012fe:	2b02      	cmp	r3, #2
 8001300:	d14c      	bne.n	800139c <HAL_RCC_OscConfig+0x664>
        assert_param(IS_RCC_PLLSOURCE(RCC_OscInitStruct->PLL.PLLSource));
        assert_param(IS_RCC_PLL_MUL(RCC_OscInitStruct->PLL.PLLMUL));
        assert_param(IS_RCC_PREDIV(RCC_OscInitStruct->PLL.PREDIV));
  
        /* Disable the main PLL. */
        __HAL_RCC_PLL_DISABLE();
 8001302:	4b2c      	ldr	r3, [pc, #176]	; (80013b4 <HAL_RCC_OscConfig+0x67c>)
 8001304:	681a      	ldr	r2, [r3, #0]
 8001306:	4b2b      	ldr	r3, [pc, #172]	; (80013b4 <HAL_RCC_OscConfig+0x67c>)
 8001308:	492e      	ldr	r1, [pc, #184]	; (80013c4 <HAL_RCC_OscConfig+0x68c>)
 800130a:	400a      	ands	r2, r1
 800130c:	601a      	str	r2, [r3, #0]
        
        /* Get Start Tick */
        tickstart = HAL_GetTick();
 800130e:	f7ff fa91 	bl	8000834 <HAL_GetTick>
 8001312:	0003      	movs	r3, r0
 8001314:	61bb      	str	r3, [r7, #24]
        
        /* Wait till PLL is disabled */
        while(__HAL_RCC_GET_FLAG(RCC_FLAG_PLLRDY)  != RESET)
 8001316:	e008      	b.n	800132a <HAL_RCC_OscConfig+0x5f2>
        {
          if((HAL_GetTick() - tickstart ) > PLL_TIMEOUT_VALUE)
 8001318:	f7ff fa8c 	bl	8000834 <HAL_GetTick>
 800131c:	0002      	movs	r2, r0
 800131e:	69bb      	ldr	r3, [r7, #24]
 8001320:	1ad3      	subs	r3, r2, r3
 8001322:	2b02      	cmp	r3, #2
 8001324:	d901      	bls.n	800132a <HAL_RCC_OscConfig+0x5f2>
          {
            return HAL_TIMEOUT;
 8001326:	2303      	movs	r3, #3
 8001328:	e086      	b.n	8001438 <HAL_RCC_OscConfig+0x700>
        while(__HAL_RCC_GET_FLAG(RCC_FLAG_PLLRDY)  != RESET)
 800132a:	4b22      	ldr	r3, [pc, #136]	; (80013b4 <HAL_RCC_OscConfig+0x67c>)
 800132c:	681a      	ldr	r2, [r3, #0]
 800132e:	2380      	movs	r3, #128	; 0x80
 8001330:	049b      	lsls	r3, r3, #18
 8001332:	4013      	ands	r3, r2
 8001334:	d1f0      	bne.n	8001318 <HAL_RCC_OscConfig+0x5e0>
          }
        }

        /* Configure the main PLL clock source, predivider and multiplication factor. */
        __HAL_RCC_PLL_CONFIG(RCC_OscInitStruct->PLL.PLLSource,
 8001336:	4b1f      	ldr	r3, [pc, #124]	; (80013b4 <HAL_RCC_OscConfig+0x67c>)
 8001338:	6adb      	ldr	r3, [r3, #44]	; 0x2c
 800133a:	220f      	movs	r2, #15
 800133c:	4393      	bics	r3, r2
 800133e:	0019      	movs	r1, r3
 8001340:	687b      	ldr	r3, [r7, #4]
 8001342:	6b1a      	ldr	r2, [r3, #48]	; 0x30
 8001344:	4b1b      	ldr	r3, [pc, #108]	; (80013b4 <HAL_RCC_OscConfig+0x67c>)
 8001346:	430a      	orrs	r2, r1
 8001348:	62da      	str	r2, [r3, #44]	; 0x2c
 800134a:	4b1a      	ldr	r3, [pc, #104]	; (80013b4 <HAL_RCC_OscConfig+0x67c>)
 800134c:	685b      	ldr	r3, [r3, #4]
 800134e:	4a1e      	ldr	r2, [pc, #120]	; (80013c8 <HAL_RCC_OscConfig+0x690>)
 8001350:	4013      	ands	r3, r2
 8001352:	0019      	movs	r1, r3
 8001354:	687b      	ldr	r3, [r7, #4]
 8001356:	6ada      	ldr	r2, [r3, #44]	; 0x2c
 8001358:	687b      	ldr	r3, [r7, #4]
 800135a:	6a9b      	ldr	r3, [r3, #40]	; 0x28
 800135c:	431a      	orrs	r2, r3
 800135e:	4b15      	ldr	r3, [pc, #84]	; (80013b4 <HAL_RCC_OscConfig+0x67c>)
 8001360:	430a      	orrs	r2, r1
 8001362:	605a      	str	r2, [r3, #4]
                             RCC_OscInitStruct->PLL.PREDIV,
                             RCC_OscInitStruct->PLL.PLLMUL);
        /* Enable the main PLL. */
        __HAL_RCC_PLL_ENABLE();
 8001364:	4b13      	ldr	r3, [pc, #76]	; (80013b4 <HAL_RCC_OscConfig+0x67c>)
 8001366:	681a      	ldr	r2, [r3, #0]
 8001368:	4b12      	ldr	r3, [pc, #72]	; (80013b4 <HAL_RCC_OscConfig+0x67c>)
 800136a:	2180      	movs	r1, #128	; 0x80
 800136c:	0449      	lsls	r1, r1, #17
 800136e:	430a      	orrs	r2, r1
 8001370:	601a      	str	r2, [r3, #0]
        
        /* Get Start Tick */
        tickstart = HAL_GetTick();
 8001372:	f7ff fa5f 	bl	8000834 <HAL_GetTick>
 8001376:	0003      	movs	r3, r0
 8001378:	61bb      	str	r3, [r7, #24]
        
        /* Wait till PLL is ready */
        while(__HAL_RCC_GET_FLAG(RCC_FLAG_PLLRDY)  == RESET)
 800137a:	e008      	b.n	800138e <HAL_RCC_OscConfig+0x656>
        {
          if((HAL_GetTick() - tickstart ) > PLL_TIMEOUT_VALUE)
 800137c:	f7ff fa5a 	bl	8000834 <HAL_GetTick>
 8001380:	0002      	movs	r2, r0
 8001382:	69bb      	ldr	r3, [r7, #24]
 8001384:	1ad3      	subs	r3, r2, r3
 8001386:	2b02      	cmp	r3, #2
 8001388:	d901      	bls.n	800138e <HAL_RCC_OscConfig+0x656>
          {
            return HAL_TIMEOUT;
 800138a:	2303      	movs	r3, #3
 800138c:	e054      	b.n	8001438 <HAL_RCC_OscConfig+0x700>
        while(__HAL_RCC_GET_FLAG(RCC_FLAG_PLLRDY)  == RESET)
 800138e:	4b09      	ldr	r3, [pc, #36]	; (80013b4 <HAL_RCC_OscConfig+0x67c>)
 8001390:	681a      	ldr	r2, [r3, #0]
 8001392:	2380      	movs	r3, #128	; 0x80
 8001394:	049b      	lsls	r3, r3, #18
 8001396:	4013      	ands	r3, r2
 8001398:	d0f0      	beq.n	800137c <HAL_RCC_OscConfig+0x644>
 800139a:	e04c      	b.n	8001436 <HAL_RCC_OscConfig+0x6fe>
        }
      }
      else
      {
        /* Disable the main PLL. */
        __HAL_RCC_PLL_DISABLE();
 800139c:	4b05      	ldr	r3, [pc, #20]	; (80013b4 <HAL_RCC_OscConfig+0x67c>)
 800139e:	681a      	ldr	r2, [r3, #0]
 80013a0:	4b04      	ldr	r3, [pc, #16]	; (80013b4 <HAL_RCC_OscConfig+0x67c>)
 80013a2:	4908      	ldr	r1, [pc, #32]	; (80013c4 <HAL_RCC_OscConfig+0x68c>)
 80013a4:	400a      	ands	r2, r1
 80013a6:	601a      	str	r2, [r3, #0]
 
        /* Get Start Tick */
        tickstart = HAL_GetTick();
 80013a8:	f7ff fa44 	bl	8000834 <HAL_GetTick>
 80013ac:	0003      	movs	r3, r0
 80013ae:	61bb      	str	r3, [r7, #24]
        
        /* Wait till PLL is disabled */  
        while(__HAL_RCC_GET_FLAG(RCC_FLAG_PLLRDY)  != RESET)
 80013b0:	e015      	b.n	80013de <HAL_RCC_OscConfig+0x6a6>
 80013b2:	46c0      	nop			; (mov r8, r8)
 80013b4:	40021000 	.word	0x40021000
 80013b8:	00001388 	.word	0x00001388
 80013bc:	efffffff 	.word	0xefffffff
 80013c0:	fffeffff 	.word	0xfffeffff
 80013c4:	feffffff 	.word	0xfeffffff
 80013c8:	ffc27fff 	.word	0xffc27fff
        {
          if((HAL_GetTick() - tickstart ) > PLL_TIMEOUT_VALUE)
 80013cc:	f7ff fa32 	bl	8000834 <HAL_GetTick>
 80013d0:	0002      	movs	r2, r0
 80013d2:	69bb      	ldr	r3, [r7, #24]
 80013d4:	1ad3      	subs	r3, r2, r3
 80013d6:	2b02      	cmp	r3, #2
 80013d8:	d901      	bls.n	80013de <HAL_RCC_OscConfig+0x6a6>
          {
            return HAL_TIMEOUT;
 80013da:	2303      	movs	r3, #3
 80013dc:	e02c      	b.n	8001438 <HAL_RCC_OscConfig+0x700>
        while(__HAL_RCC_GET_FLAG(RCC_FLAG_PLLRDY)  != RESET)
 80013de:	4b18      	ldr	r3, [pc, #96]	; (8001440 <HAL_RCC_OscConfig+0x708>)
 80013e0:	681a      	ldr	r2, [r3, #0]
 80013e2:	2380      	movs	r3, #128	; 0x80
 80013e4:	049b      	lsls	r3, r3, #18
 80013e6:	4013      	ands	r3, r2
 80013e8:	d1f0      	bne.n	80013cc <HAL_RCC_OscConfig+0x694>
 80013ea:	e024      	b.n	8001436 <HAL_RCC_OscConfig+0x6fe>
      }
    }
    else
    {
      /* Check if there is a request to disable the PLL used as System clock source */
      if((RCC_OscInitStruct->PLL.PLLState) == RCC_PLL_OFF)
 80013ec:	687b      	ldr	r3, [r7, #4]
 80013ee:	6a5b      	ldr	r3, [r3, #36]	; 0x24
 80013f0:	2b01      	cmp	r3, #1
 80013f2:	d101      	bne.n	80013f8 <HAL_RCC_OscConfig+0x6c0>
      {
        return HAL_ERROR;
 80013f4:	2301      	movs	r3, #1
 80013f6:	e01f      	b.n	8001438 <HAL_RCC_OscConfig+0x700>
      }
      else
      {
        /* Do not return HAL_ERROR if request repeats the current configuration */
        pll_config  = RCC->CFGR;
 80013f8:	4b11      	ldr	r3, [pc, #68]	; (8001440 <HAL_RCC_OscConfig+0x708>)
 80013fa:	685b      	ldr	r3, [r3, #4]
 80013fc:	617b      	str	r3, [r7, #20]
        pll_config2 = RCC->CFGR2;
 80013fe:	4b10      	ldr	r3, [pc, #64]	; (8001440 <HAL_RCC_OscConfig+0x708>)
 8001400:	6adb      	ldr	r3, [r3, #44]	; 0x2c
 8001402:	613b      	str	r3, [r7, #16]
        if((READ_BIT(pll_config,  RCC_CFGR_PLLSRC)  != RCC_OscInitStruct->PLL.PLLSource) ||
 8001404:	697a      	ldr	r2, [r7, #20]
 8001406:	23c0      	movs	r3, #192	; 0xc0
 8001408:	025b      	lsls	r3, r3, #9
 800140a:	401a      	ands	r2, r3
 800140c:	687b      	ldr	r3, [r7, #4]
 800140e:	6a9b      	ldr	r3, [r3, #40]	; 0x28
 8001410:	429a      	cmp	r2, r3
 8001412:	d10e      	bne.n	8001432 <HAL_RCC_OscConfig+0x6fa>
           (READ_BIT(pll_config2, RCC_CFGR2_PREDIV) != RCC_OscInitStruct->PLL.PREDIV)    ||
 8001414:	693b      	ldr	r3, [r7, #16]
 8001416:	220f      	movs	r2, #15
 8001418:	401a      	ands	r2, r3
 800141a:	687b      	ldr	r3, [r7, #4]
 800141c:	6b1b      	ldr	r3, [r3, #48]	; 0x30
        if((READ_BIT(pll_config,  RCC_CFGR_PLLSRC)  != RCC_OscInitStruct->PLL.PLLSource) ||
 800141e:	429a      	cmp	r2, r3
 8001420:	d107      	bne.n	8001432 <HAL_RCC_OscConfig+0x6fa>
           (READ_BIT(pll_config,  RCC_CFGR_PLLMUL)  != RCC_OscInitStruct->PLL.PLLMUL))
 8001422:	697a      	ldr	r2, [r7, #20]
 8001424:	23f0      	movs	r3, #240	; 0xf0
 8001426:	039b      	lsls	r3, r3, #14
 8001428:	401a      	ands	r2, r3
 800142a:	687b      	ldr	r3, [r7, #4]
 800142c:	6adb      	ldr	r3, [r3, #44]	; 0x2c
           (READ_BIT(pll_config2, RCC_CFGR2_PREDIV) != RCC_OscInitStruct->PLL.PREDIV)    ||
 800142e:	429a      	cmp	r2, r3
 8001430:	d001      	beq.n	8001436 <HAL_RCC_OscConfig+0x6fe>
        {
          return HAL_ERROR;
 8001432:	2301      	movs	r3, #1
 8001434:	e000      	b.n	8001438 <HAL_RCC_OscConfig+0x700>
        }
      }
    }
  }

  return HAL_OK;
 8001436:	2300      	movs	r3, #0
}
 8001438:	0018      	movs	r0, r3
 800143a:	46bd      	mov	sp, r7
 800143c:	b008      	add	sp, #32
 800143e:	bd80      	pop	{r7, pc}
 8001440:	40021000 	.word	0x40021000

08001444 <HAL_RCC_ClockConfig>:
  *         You can use @ref HAL_RCC_GetClockConfig() function to know which clock is
  *         currently used as system clock source.
  * @retval HAL status
  */
HAL_StatusTypeDef HAL_RCC_ClockConfig(RCC_ClkInitTypeDef  *RCC_ClkInitStruct, uint32_t FLatency)
{
 8001444:	b580      	push	{r7, lr}
 8001446:	b084      	sub	sp, #16
 8001448:	af00      	add	r7, sp, #0
 800144a:	6078      	str	r0, [r7, #4]
 800144c:	6039      	str	r1, [r7, #0]
  uint32_t tickstart;

  /* Check Null pointer */
  if(RCC_ClkInitStruct == NULL)
 800144e:	687b      	ldr	r3, [r7, #4]
 8001450:	2b00      	cmp	r3, #0
 8001452:	d101      	bne.n	8001458 <HAL_RCC_ClockConfig+0x14>
  {
    return HAL_ERROR;
 8001454:	2301      	movs	r3, #1
 8001456:	e0bf      	b.n	80015d8 <HAL_RCC_ClockConfig+0x194>
  /* To correctly read data from FLASH memory, the number of wait states (LATENCY) 
  must be correctly programmed according to the frequency of the CPU clock 
    (HCLK) of the device. */

  /* Increasing the number of wait states because of higher CPU frequency */
  if(FLatency > __HAL_FLASH_GET_LATENCY())
 8001458:	4b61      	ldr	r3, [pc, #388]	; (80015e0 <HAL_RCC_ClockConfig+0x19c>)
 800145a:	681b      	ldr	r3, [r3, #0]
 800145c:	2201      	movs	r2, #1
 800145e:	4013      	ands	r3, r2
 8001460:	683a      	ldr	r2, [r7, #0]
 8001462:	429a      	cmp	r2, r3
 8001464:	d911      	bls.n	800148a <HAL_RCC_ClockConfig+0x46>
  {    
    /* Program the new number of wait states to the LATENCY bits in the FLASH_ACR register */
    __HAL_FLASH_SET_LATENCY(FLatency);
 8001466:	4b5e      	ldr	r3, [pc, #376]	; (80015e0 <HAL_RCC_ClockConfig+0x19c>)
 8001468:	681b      	ldr	r3, [r3, #0]
 800146a:	2201      	movs	r2, #1
 800146c:	4393      	bics	r3, r2
 800146e:	0019      	movs	r1, r3
 8001470:	4b5b      	ldr	r3, [pc, #364]	; (80015e0 <HAL_RCC_ClockConfig+0x19c>)
 8001472:	683a      	ldr	r2, [r7, #0]
 8001474:	430a      	orrs	r2, r1
 8001476:	601a      	str	r2, [r3, #0]
    
    /* Check that the new number of wait states is taken into account to access the Flash
    memory by reading the FLASH_ACR register */
    if(__HAL_FLASH_GET_LATENCY() != FLatency)
 8001478:	4b59      	ldr	r3, [pc, #356]	; (80015e0 <HAL_RCC_ClockConfig+0x19c>)
 800147a:	681b      	ldr	r3, [r3, #0]
 800147c:	2201      	movs	r2, #1
 800147e:	4013      	ands	r3, r2
 8001480:	683a      	ldr	r2, [r7, #0]
 8001482:	429a      	cmp	r2, r3
 8001484:	d001      	beq.n	800148a <HAL_RCC_ClockConfig+0x46>
    {
      return HAL_ERROR;
 8001486:	2301      	movs	r3, #1
 8001488:	e0a6      	b.n	80015d8 <HAL_RCC_ClockConfig+0x194>
    }
  }

  /*-------------------------- HCLK Configuration --------------------------*/
  if(((RCC_ClkInitStruct->ClockType) & RCC_CLOCKTYPE_HCLK) == RCC_CLOCKTYPE_HCLK)
 800148a:	687b      	ldr	r3, [r7, #4]
 800148c:	681b      	ldr	r3, [r3, #0]
 800148e:	2202      	movs	r2, #2
 8001490:	4013      	ands	r3, r2
 8001492:	d015      	beq.n	80014c0 <HAL_RCC_ClockConfig+0x7c>
  {
    /* Set the highest APB divider in order to ensure that we do not go through
       a non-spec phase whatever we decrease or increase HCLK. */
    if(((RCC_ClkInitStruct->ClockType) & RCC_CLOCKTYPE_PCLK1) == RCC_CLOCKTYPE_PCLK1)
 8001494:	687b      	ldr	r3, [r7, #4]
 8001496:	681b      	ldr	r3, [r3, #0]
 8001498:	2204      	movs	r2, #4
 800149a:	4013      	ands	r3, r2
 800149c:	d006      	beq.n	80014ac <HAL_RCC_ClockConfig+0x68>
    {
      MODIFY_REG(RCC->CFGR, RCC_CFGR_PPRE, RCC_HCLK_DIV16);
 800149e:	4b51      	ldr	r3, [pc, #324]	; (80015e4 <HAL_RCC_ClockConfig+0x1a0>)
 80014a0:	685a      	ldr	r2, [r3, #4]
 80014a2:	4b50      	ldr	r3, [pc, #320]	; (80015e4 <HAL_RCC_ClockConfig+0x1a0>)
 80014a4:	21e0      	movs	r1, #224	; 0xe0
 80014a6:	00c9      	lsls	r1, r1, #3
 80014a8:	430a      	orrs	r2, r1
 80014aa:	605a      	str	r2, [r3, #4]
    }

    /* Set the new HCLK clock divider */
    assert_param(IS_RCC_HCLK(RCC_ClkInitStruct->AHBCLKDivider));
    MODIFY_REG(RCC->CFGR, RCC_CFGR_HPRE, RCC_ClkInitStruct->AHBCLKDivider);
 80014ac:	4b4d      	ldr	r3, [pc, #308]	; (80015e4 <HAL_RCC_ClockConfig+0x1a0>)
 80014ae:	685b      	ldr	r3, [r3, #4]
 80014b0:	22f0      	movs	r2, #240	; 0xf0
 80014b2:	4393      	bics	r3, r2
 80014b4:	0019      	movs	r1, r3
 80014b6:	687b      	ldr	r3, [r7, #4]
 80014b8:	689a      	ldr	r2, [r3, #8]
 80014ba:	4b4a      	ldr	r3, [pc, #296]	; (80015e4 <HAL_RCC_ClockConfig+0x1a0>)
 80014bc:	430a      	orrs	r2, r1
 80014be:	605a      	str	r2, [r3, #4]
  }

  /*------------------------- SYSCLK Configuration ---------------------------*/ 
  if(((RCC_ClkInitStruct->ClockType) & RCC_CLOCKTYPE_SYSCLK) == RCC_CLOCKTYPE_SYSCLK)
 80014c0:	687b      	ldr	r3, [r7, #4]
 80014c2:	681b      	ldr	r3, [r3, #0]
 80014c4:	2201      	movs	r2, #1
 80014c6:	4013      	ands	r3, r2
 80014c8:	d04c      	beq.n	8001564 <HAL_RCC_ClockConfig+0x120>
  {
    assert_param(IS_RCC_SYSCLKSOURCE(RCC_ClkInitStruct->SYSCLKSource));
    
    /* HSE is selected as System Clock Source */
    if(RCC_ClkInitStruct->SYSCLKSource == RCC_SYSCLKSOURCE_HSE)
 80014ca:	687b      	ldr	r3, [r7, #4]
 80014cc:	685b      	ldr	r3, [r3, #4]
 80014ce:	2b01      	cmp	r3, #1
 80014d0:	d107      	bne.n	80014e2 <HAL_RCC_ClockConfig+0x9e>
    {
      /* Check the HSE ready flag */  
      if(__HAL_RCC_GET_FLAG(RCC_FLAG_HSERDY) == RESET)
 80014d2:	4b44      	ldr	r3, [pc, #272]	; (80015e4 <HAL_RCC_ClockConfig+0x1a0>)
 80014d4:	681a      	ldr	r2, [r3, #0]
 80014d6:	2380      	movs	r3, #128	; 0x80
 80014d8:	029b      	lsls	r3, r3, #10
 80014da:	4013      	ands	r3, r2
 80014dc:	d120      	bne.n	8001520 <HAL_RCC_ClockConfig+0xdc>
      {
        return HAL_ERROR;
 80014de:	2301      	movs	r3, #1
 80014e0:	e07a      	b.n	80015d8 <HAL_RCC_ClockConfig+0x194>
      }
    }
    /* PLL is selected as System Clock Source */
    else if(RCC_ClkInitStruct->SYSCLKSource == RCC_SYSCLKSOURCE_PLLCLK)
 80014e2:	687b      	ldr	r3, [r7, #4]
 80014e4:	685b      	ldr	r3, [r3, #4]
 80014e6:	2b02      	cmp	r3, #2
 80014e8:	d107      	bne.n	80014fa <HAL_RCC_ClockConfig+0xb6>
    {
      /* Check the PLL ready flag */  
      if(__HAL_RCC_GET_FLAG(RCC_FLAG_PLLRDY) == RESET)
 80014ea:	4b3e      	ldr	r3, [pc, #248]	; (80015e4 <HAL_RCC_ClockConfig+0x1a0>)
 80014ec:	681a      	ldr	r2, [r3, #0]
 80014ee:	2380      	movs	r3, #128	; 0x80
 80014f0:	049b      	lsls	r3, r3, #18
 80014f2:	4013      	ands	r3, r2
 80014f4:	d114      	bne.n	8001520 <HAL_RCC_ClockConfig+0xdc>
      {
        return HAL_ERROR;
 80014f6:	2301      	movs	r3, #1
 80014f8:	e06e      	b.n	80015d8 <HAL_RCC_ClockConfig+0x194>
      }
    }
#if defined(RCC_CFGR_SWS_HSI48)
    /* HSI48 is selected as System Clock Source */
    else if(RCC_ClkInitStruct->SYSCLKSource == RCC_SYSCLKSOURCE_HSI48)
 80014fa:	687b      	ldr	r3, [r7, #4]
 80014fc:	685b      	ldr	r3, [r3, #4]
 80014fe:	2b03      	cmp	r3, #3
 8001500:	d107      	bne.n	8001512 <HAL_RCC_ClockConfig+0xce>
    {
      /* Check the HSI48 ready flag */
      if(__HAL_RCC_GET_FLAG(RCC_FLAG_HSI48RDY) == RESET)
 8001502:	4b38      	ldr	r3, [pc, #224]	; (80015e4 <HAL_RCC_ClockConfig+0x1a0>)
 8001504:	6b5a      	ldr	r2, [r3, #52]	; 0x34
 8001506:	2380      	movs	r3, #128	; 0x80
 8001508:	025b      	lsls	r3, r3, #9
 800150a:	4013      	ands	r3, r2
 800150c:	d108      	bne.n	8001520 <HAL_RCC_ClockConfig+0xdc>
      {
        return HAL_ERROR;
 800150e:	2301      	movs	r3, #1
 8001510:	e062      	b.n	80015d8 <HAL_RCC_ClockConfig+0x194>
#endif /* RCC_CFGR_SWS_HSI48 */
    /* HSI is selected as System Clock Source */
    else
    {
      /* Check the HSI ready flag */  
      if(__HAL_RCC_GET_FLAG(RCC_FLAG_HSIRDY) == RESET)
 8001512:	4b34      	ldr	r3, [pc, #208]	; (80015e4 <HAL_RCC_ClockConfig+0x1a0>)
 8001514:	681b      	ldr	r3, [r3, #0]
 8001516:	2202      	movs	r2, #2
 8001518:	4013      	ands	r3, r2
 800151a:	d101      	bne.n	8001520 <HAL_RCC_ClockConfig+0xdc>
      {
        return HAL_ERROR;
 800151c:	2301      	movs	r3, #1
 800151e:	e05b      	b.n	80015d8 <HAL_RCC_ClockConfig+0x194>
      }
    }
    __HAL_RCC_SYSCLK_CONFIG(RCC_ClkInitStruct->SYSCLKSource);
 8001520:	4b30      	ldr	r3, [pc, #192]	; (80015e4 <HAL_RCC_ClockConfig+0x1a0>)
 8001522:	685b      	ldr	r3, [r3, #4]
 8001524:	2203      	movs	r2, #3
 8001526:	4393      	bics	r3, r2
 8001528:	0019      	movs	r1, r3
 800152a:	687b      	ldr	r3, [r7, #4]
 800152c:	685a      	ldr	r2, [r3, #4]
 800152e:	4b2d      	ldr	r3, [pc, #180]	; (80015e4 <HAL_RCC_ClockConfig+0x1a0>)
 8001530:	430a      	orrs	r2, r1
 8001532:	605a      	str	r2, [r3, #4]

    /* Get Start Tick */
    tickstart = HAL_GetTick();
 8001534:	f7ff f97e 	bl	8000834 <HAL_GetTick>
 8001538:	0003      	movs	r3, r0
 800153a:	60fb      	str	r3, [r7, #12]
    
    while (__HAL_RCC_GET_SYSCLK_SOURCE() != (RCC_ClkInitStruct->SYSCLKSource << RCC_CFGR_SWS_Pos))
 800153c:	e009      	b.n	8001552 <HAL_RCC_ClockConfig+0x10e>
    {
      if((HAL_GetTick() - tickstart ) > CLOCKSWITCH_TIMEOUT_VALUE)
 800153e:	f7ff f979 	bl	8000834 <HAL_GetTick>
 8001542:	0002      	movs	r2, r0
 8001544:	68fb      	ldr	r3, [r7, #12]
 8001546:	1ad3      	subs	r3, r2, r3
 8001548:	4a27      	ldr	r2, [pc, #156]	; (80015e8 <HAL_RCC_ClockConfig+0x1a4>)
 800154a:	4293      	cmp	r3, r2
 800154c:	d901      	bls.n	8001552 <HAL_RCC_ClockConfig+0x10e>
      {
        return HAL_TIMEOUT;
 800154e:	2303      	movs	r3, #3
 8001550:	e042      	b.n	80015d8 <HAL_RCC_ClockConfig+0x194>
    while (__HAL_RCC_GET_SYSCLK_SOURCE() != (RCC_ClkInitStruct->SYSCLKSource << RCC_CFGR_SWS_Pos))
 8001552:	4b24      	ldr	r3, [pc, #144]	; (80015e4 <HAL_RCC_ClockConfig+0x1a0>)
 8001554:	685b      	ldr	r3, [r3, #4]
 8001556:	220c      	movs	r2, #12
 8001558:	401a      	ands	r2, r3
 800155a:	687b      	ldr	r3, [r7, #4]
 800155c:	685b      	ldr	r3, [r3, #4]
 800155e:	009b      	lsls	r3, r3, #2
 8001560:	429a      	cmp	r2, r3
 8001562:	d1ec      	bne.n	800153e <HAL_RCC_ClockConfig+0xfa>
      }
    }
  }

  /* Decreasing the number of wait states because of lower CPU frequency */
  if(FLatency < __HAL_FLASH_GET_LATENCY())
 8001564:	4b1e      	ldr	r3, [pc, #120]	; (80015e0 <HAL_RCC_ClockConfig+0x19c>)
 8001566:	681b      	ldr	r3, [r3, #0]
 8001568:	2201      	movs	r2, #1
 800156a:	4013      	ands	r3, r2
 800156c:	683a      	ldr	r2, [r7, #0]
 800156e:	429a      	cmp	r2, r3
 8001570:	d211      	bcs.n	8001596 <HAL_RCC_ClockConfig+0x152>
  {    
    /* Program the new number of wait states to the LATENCY bits in the FLASH_ACR register */
    __HAL_FLASH_SET_LATENCY(FLatency);
 8001572:	4b1b      	ldr	r3, [pc, #108]	; (80015e0 <HAL_RCC_ClockConfig+0x19c>)
 8001574:	681b      	ldr	r3, [r3, #0]
 8001576:	2201      	movs	r2, #1
 8001578:	4393      	bics	r3, r2
 800157a:	0019      	movs	r1, r3
 800157c:	4b18      	ldr	r3, [pc, #96]	; (80015e0 <HAL_RCC_ClockConfig+0x19c>)
 800157e:	683a      	ldr	r2, [r7, #0]
 8001580:	430a      	orrs	r2, r1
 8001582:	601a      	str	r2, [r3, #0]
    
    /* Check that the new number of wait states is taken into account to access the Flash
    memory by reading the FLASH_ACR register */
    if(__HAL_FLASH_GET_LATENCY() != FLatency)
 8001584:	4b16      	ldr	r3, [pc, #88]	; (80015e0 <HAL_RCC_ClockConfig+0x19c>)
 8001586:	681b      	ldr	r3, [r3, #0]
 8001588:	2201      	movs	r2, #1
 800158a:	4013      	ands	r3, r2
 800158c:	683a      	ldr	r2, [r7, #0]
 800158e:	429a      	cmp	r2, r3
 8001590:	d001      	beq.n	8001596 <HAL_RCC_ClockConfig+0x152>
    {
      return HAL_ERROR;
 8001592:	2301      	movs	r3, #1
 8001594:	e020      	b.n	80015d8 <HAL_RCC_ClockConfig+0x194>
    }
  }    

  /*-------------------------- PCLK1 Configuration ---------------------------*/ 
  if(((RCC_ClkInitStruct->ClockType) & RCC_CLOCKTYPE_PCLK1) == RCC_CLOCKTYPE_PCLK1)
 8001596:	687b      	ldr	r3, [r7, #4]
 8001598:	681b      	ldr	r3, [r3, #0]
 800159a:	2204      	movs	r2, #4
 800159c:	4013      	ands	r3, r2
 800159e:	d009      	beq.n	80015b4 <HAL_RCC_ClockConfig+0x170>
  {
    assert_param(IS_RCC_PCLK(RCC_ClkInitStruct->APB1CLKDivider));
    MODIFY_REG(RCC->CFGR, RCC_CFGR_PPRE, RCC_ClkInitStruct->APB1CLKDivider);
 80015a0:	4b10      	ldr	r3, [pc, #64]	; (80015e4 <HAL_RCC_ClockConfig+0x1a0>)
 80015a2:	685b      	ldr	r3, [r3, #4]
 80015a4:	4a11      	ldr	r2, [pc, #68]	; (80015ec <HAL_RCC_ClockConfig+0x1a8>)
 80015a6:	4013      	ands	r3, r2
 80015a8:	0019      	movs	r1, r3
 80015aa:	687b      	ldr	r3, [r7, #4]
 80015ac:	68da      	ldr	r2, [r3, #12]
 80015ae:	4b0d      	ldr	r3, [pc, #52]	; (80015e4 <HAL_RCC_ClockConfig+0x1a0>)
 80015b0:	430a      	orrs	r2, r1
 80015b2:	605a      	str	r2, [r3, #4]
  }
  
  /* Update the SystemCoreClock global variable */
  SystemCoreClock = HAL_RCC_GetSysClockFreq() >> AHBPrescTable[(RCC->CFGR & RCC_CFGR_HPRE)>> RCC_CFGR_HPRE_BITNUMBER];
 80015b4:	f000 f820 	bl	80015f8 <HAL_RCC_GetSysClockFreq>
 80015b8:	0001      	movs	r1, r0
 80015ba:	4b0a      	ldr	r3, [pc, #40]	; (80015e4 <HAL_RCC_ClockConfig+0x1a0>)
 80015bc:	685b      	ldr	r3, [r3, #4]
 80015be:	091b      	lsrs	r3, r3, #4
 80015c0:	220f      	movs	r2, #15
 80015c2:	4013      	ands	r3, r2
 80015c4:	4a0a      	ldr	r2, [pc, #40]	; (80015f0 <HAL_RCC_ClockConfig+0x1ac>)
 80015c6:	5cd3      	ldrb	r3, [r2, r3]
 80015c8:	000a      	movs	r2, r1
 80015ca:	40da      	lsrs	r2, r3
 80015cc:	4b09      	ldr	r3, [pc, #36]	; (80015f4 <HAL_RCC_ClockConfig+0x1b0>)
 80015ce:	601a      	str	r2, [r3, #0]

  /* Configure the source of time base considering new system clocks settings*/
  HAL_InitTick (TICK_INT_PRIORITY);
 80015d0:	2000      	movs	r0, #0
 80015d2:	f7ff f8e9 	bl	80007a8 <HAL_InitTick>
  
  return HAL_OK;
 80015d6:	2300      	movs	r3, #0
}
 80015d8:	0018      	movs	r0, r3
 80015da:	46bd      	mov	sp, r7
 80015dc:	b004      	add	sp, #16
 80015de:	bd80      	pop	{r7, pc}
 80015e0:	40022000 	.word	0x40022000
 80015e4:	40021000 	.word	0x40021000
 80015e8:	00001388 	.word	0x00001388
 80015ec:	fffff8ff 	.word	0xfffff8ff
 80015f0:	080027c8 	.word	0x080027c8
 80015f4:	20000000 	.word	0x20000000

080015f8 <HAL_RCC_GetSysClockFreq>:
  *         right SYSCLK value. Otherwise, any configuration based on this function will be incorrect.
  *         
  * @retval SYSCLK frequency
  */
uint32_t HAL_RCC_GetSysClockFreq(void)
{
 80015f8:	b590      	push	{r4, r7, lr}
 80015fa:	b08f      	sub	sp, #60	; 0x3c
 80015fc:	af00      	add	r7, sp, #0
  const uint8_t aPLLMULFactorTable[16] = { 2U,  3U,  4U,  5U,  6U,  7U,  8U,  9U,
 80015fe:	2314      	movs	r3, #20
 8001600:	18fb      	adds	r3, r7, r3
 8001602:	4a37      	ldr	r2, [pc, #220]	; (80016e0 <HAL_RCC_GetSysClockFreq+0xe8>)
 8001604:	ca13      	ldmia	r2!, {r0, r1, r4}
 8001606:	c313      	stmia	r3!, {r0, r1, r4}
 8001608:	6812      	ldr	r2, [r2, #0]
 800160a:	601a      	str	r2, [r3, #0]
                                         10U, 11U, 12U, 13U, 14U, 15U, 16U, 16U};
  const uint8_t aPredivFactorTable[16] = { 1U, 2U,  3U,  4U,  5U,  6U,  7U,  8U,
 800160c:	1d3b      	adds	r3, r7, #4
 800160e:	4a35      	ldr	r2, [pc, #212]	; (80016e4 <HAL_RCC_GetSysClockFreq+0xec>)
 8001610:	ca13      	ldmia	r2!, {r0, r1, r4}
 8001612:	c313      	stmia	r3!, {r0, r1, r4}
 8001614:	6812      	ldr	r2, [r2, #0]
 8001616:	601a      	str	r2, [r3, #0]
                                           9U,10U, 11U, 12U, 13U, 14U, 15U, 16U};

  uint32_t tmpreg = 0U, prediv = 0U, pllclk = 0U, pllmul = 0U;
 8001618:	2300      	movs	r3, #0
 800161a:	62fb      	str	r3, [r7, #44]	; 0x2c
 800161c:	2300      	movs	r3, #0
 800161e:	62bb      	str	r3, [r7, #40]	; 0x28
 8001620:	2300      	movs	r3, #0
 8001622:	637b      	str	r3, [r7, #52]	; 0x34
 8001624:	2300      	movs	r3, #0
 8001626:	627b      	str	r3, [r7, #36]	; 0x24
  uint32_t sysclockfreq = 0U;
 8001628:	2300      	movs	r3, #0
 800162a:	633b      	str	r3, [r7, #48]	; 0x30
  
  tmpreg = RCC->CFGR;
 800162c:	4b2e      	ldr	r3, [pc, #184]	; (80016e8 <HAL_RCC_GetSysClockFreq+0xf0>)
 800162e:	685b      	ldr	r3, [r3, #4]
 8001630:	62fb      	str	r3, [r7, #44]	; 0x2c
  
  /* Get SYSCLK source -------------------------------------------------------*/
  switch (tmpreg & RCC_CFGR_SWS)
 8001632:	6afb      	ldr	r3, [r7, #44]	; 0x2c
 8001634:	220c      	movs	r2, #12
 8001636:	4013      	ands	r3, r2
 8001638:	2b08      	cmp	r3, #8
 800163a:	d006      	beq.n	800164a <HAL_RCC_GetSysClockFreq+0x52>
 800163c:	2b0c      	cmp	r3, #12
 800163e:	d043      	beq.n	80016c8 <HAL_RCC_GetSysClockFreq+0xd0>
 8001640:	2b04      	cmp	r3, #4
 8001642:	d144      	bne.n	80016ce <HAL_RCC_GetSysClockFreq+0xd6>
  {
    case RCC_SYSCLKSOURCE_STATUS_HSE:  /* HSE used as system clock */
    {
      sysclockfreq = HSE_VALUE;
 8001644:	4b29      	ldr	r3, [pc, #164]	; (80016ec <HAL_RCC_GetSysClockFreq+0xf4>)
 8001646:	633b      	str	r3, [r7, #48]	; 0x30
      break;
 8001648:	e044      	b.n	80016d4 <HAL_RCC_GetSysClockFreq+0xdc>
    }
    case RCC_SYSCLKSOURCE_STATUS_PLLCLK:  /* PLL used as system clock */
    {
      pllmul = aPLLMULFactorTable[(uint32_t)(tmpreg & RCC_CFGR_PLLMUL) >> RCC_CFGR_PLLMUL_BITNUMBER];
 800164a:	6afb      	ldr	r3, [r7, #44]	; 0x2c
 800164c:	0c9b      	lsrs	r3, r3, #18
 800164e:	220f      	movs	r2, #15
 8001650:	4013      	ands	r3, r2
 8001652:	2214      	movs	r2, #20
 8001654:	18ba      	adds	r2, r7, r2
 8001656:	5cd3      	ldrb	r3, [r2, r3]
 8001658:	627b      	str	r3, [r7, #36]	; 0x24
      prediv = aPredivFactorTable[(uint32_t)(RCC->CFGR2 & RCC_CFGR2_PREDIV) >> RCC_CFGR2_PREDIV_BITNUMBER];
 800165a:	4b23      	ldr	r3, [pc, #140]	; (80016e8 <HAL_RCC_GetSysClockFreq+0xf0>)
 800165c:	6adb      	ldr	r3, [r3, #44]	; 0x2c
 800165e:	220f      	movs	r2, #15
 8001660:	4013      	ands	r3, r2
 8001662:	1d3a      	adds	r2, r7, #4
 8001664:	5cd3      	ldrb	r3, [r2, r3]
 8001666:	62bb      	str	r3, [r7, #40]	; 0x28
      if ((tmpreg & RCC_CFGR_PLLSRC) == RCC_PLLSOURCE_HSE)
 8001668:	6afa      	ldr	r2, [r7, #44]	; 0x2c
 800166a:	23c0      	movs	r3, #192	; 0xc0
 800166c:	025b      	lsls	r3, r3, #9
 800166e:	401a      	ands	r2, r3
 8001670:	2380      	movs	r3, #128	; 0x80
 8001672:	025b      	lsls	r3, r3, #9
 8001674:	429a      	cmp	r2, r3
 8001676:	d109      	bne.n	800168c <HAL_RCC_GetSysClockFreq+0x94>
      {
        /* HSE used as PLL clock source : PLLCLK = HSE/PREDIV * PLLMUL */
        pllclk = (uint32_t)((uint64_t) HSE_VALUE / (uint64_t) (prediv)) * ((uint64_t) pllmul);
 8001678:	6ab9      	ldr	r1, [r7, #40]	; 0x28
 800167a:	481c      	ldr	r0, [pc, #112]	; (80016ec <HAL_RCC_GetSysClockFreq+0xf4>)
 800167c:	f7fe fd44 	bl	8000108 <__udivsi3>
 8001680:	0003      	movs	r3, r0
 8001682:	001a      	movs	r2, r3
 8001684:	6a7b      	ldr	r3, [r7, #36]	; 0x24
 8001686:	4353      	muls	r3, r2
 8001688:	637b      	str	r3, [r7, #52]	; 0x34
 800168a:	e01a      	b.n	80016c2 <HAL_RCC_GetSysClockFreq+0xca>
      }
#if defined(RCC_CFGR_PLLSRC_HSI48_PREDIV)
      else if ((tmpreg & RCC_CFGR_PLLSRC) == RCC_PLLSOURCE_HSI48)
 800168c:	6afa      	ldr	r2, [r7, #44]	; 0x2c
 800168e:	23c0      	movs	r3, #192	; 0xc0
 8001690:	025b      	lsls	r3, r3, #9
 8001692:	401a      	ands	r2, r3
 8001694:	23c0      	movs	r3, #192	; 0xc0
 8001696:	025b      	lsls	r3, r3, #9
 8001698:	429a      	cmp	r2, r3
 800169a:	d109      	bne.n	80016b0 <HAL_RCC_GetSysClockFreq+0xb8>
      {
        /* HSI48 used as PLL clock source : PLLCLK = HSI48/PREDIV * PLLMUL */
        pllclk = (uint32_t)((uint64_t) HSI48_VALUE / (uint64_t) (prediv)) * ((uint64_t) pllmul);
 800169c:	6ab9      	ldr	r1, [r7, #40]	; 0x28
 800169e:	4814      	ldr	r0, [pc, #80]	; (80016f0 <HAL_RCC_GetSysClockFreq+0xf8>)
 80016a0:	f7fe fd32 	bl	8000108 <__udivsi3>
 80016a4:	0003      	movs	r3, r0
 80016a6:	001a      	movs	r2, r3
 80016a8:	6a7b      	ldr	r3, [r7, #36]	; 0x24
 80016aa:	4353      	muls	r3, r2
 80016ac:	637b      	str	r3, [r7, #52]	; 0x34
 80016ae:	e008      	b.n	80016c2 <HAL_RCC_GetSysClockFreq+0xca>
#endif /* RCC_CFGR_PLLSRC_HSI48_PREDIV */
      else
      {
#if  (defined(STM32F042x6) || defined(STM32F048xx) || defined(STM32F070x6) || defined(STM32F071xB) || defined(STM32F072xB) || defined(STM32F078xx) || defined(STM32F070xB) || defined(STM32F091xC) || defined(STM32F098xx) || defined(STM32F030xC))
        /* HSI used as PLL clock source : PLLCLK = HSI/PREDIV * PLLMUL */
        pllclk = (uint32_t)((uint64_t) HSI_VALUE / (uint64_t) (prediv)) * ((uint64_t) pllmul);
 80016b0:	6ab9      	ldr	r1, [r7, #40]	; 0x28
 80016b2:	480e      	ldr	r0, [pc, #56]	; (80016ec <HAL_RCC_GetSysClockFreq+0xf4>)
 80016b4:	f7fe fd28 	bl	8000108 <__udivsi3>
 80016b8:	0003      	movs	r3, r0
 80016ba:	001a      	movs	r2, r3
 80016bc:	6a7b      	ldr	r3, [r7, #36]	; 0x24
 80016be:	4353      	muls	r3, r2
 80016c0:	637b      	str	r3, [r7, #52]	; 0x34
#else
        /* HSI used as PLL clock source : PLLCLK = HSI/2 * PLLMUL */
        pllclk = (uint32_t)((uint64_t) (HSI_VALUE >> 1U) * ((uint64_t) pllmul));
#endif
      }
      sysclockfreq = pllclk;
 80016c2:	6b7b      	ldr	r3, [r7, #52]	; 0x34
 80016c4:	633b      	str	r3, [r7, #48]	; 0x30
      break;
 80016c6:	e005      	b.n	80016d4 <HAL_RCC_GetSysClockFreq+0xdc>
    }
#if defined(RCC_CFGR_SWS_HSI48)
    case RCC_SYSCLKSOURCE_STATUS_HSI48:    /* HSI48 used as system clock source */
    {
      sysclockfreq = HSI48_VALUE;
 80016c8:	4b09      	ldr	r3, [pc, #36]	; (80016f0 <HAL_RCC_GetSysClockFreq+0xf8>)
 80016ca:	633b      	str	r3, [r7, #48]	; 0x30
      break;
 80016cc:	e002      	b.n	80016d4 <HAL_RCC_GetSysClockFreq+0xdc>
    }
#endif /* RCC_CFGR_SWS_HSI48 */
    case RCC_SYSCLKSOURCE_STATUS_HSI:  /* HSI used as system clock source */
    default: /* HSI used as system clock */
    {
      sysclockfreq = HSI_VALUE;
 80016ce:	4b07      	ldr	r3, [pc, #28]	; (80016ec <HAL_RCC_GetSysClockFreq+0xf4>)
 80016d0:	633b      	str	r3, [r7, #48]	; 0x30
      break;
 80016d2:	46c0      	nop			; (mov r8, r8)
    }
  }
  return sysclockfreq;
 80016d4:	6b3b      	ldr	r3, [r7, #48]	; 0x30
}
 80016d6:	0018      	movs	r0, r3
 80016d8:	46bd      	mov	sp, r7
 80016da:	b00f      	add	sp, #60	; 0x3c
 80016dc:	bd90      	pop	{r4, r7, pc}
 80016de:	46c0      	nop			; (mov r8, r8)
 80016e0:	080027a8 	.word	0x080027a8
 80016e4:	080027b8 	.word	0x080027b8
 80016e8:	40021000 	.word	0x40021000
 80016ec:	007a1200 	.word	0x007a1200
 80016f0:	02dc6c00 	.word	0x02dc6c00

080016f4 <HAL_RCC_GetHCLKFreq>:
  * @note   The SystemCoreClock CMSIS variable is used to store System Clock Frequency 
  *         and updated within this function
  * @retval HCLK frequency
  */
uint32_t HAL_RCC_GetHCLKFreq(void)
{
 80016f4:	b580      	push	{r7, lr}
 80016f6:	af00      	add	r7, sp, #0
  return SystemCoreClock;
 80016f8:	4b02      	ldr	r3, [pc, #8]	; (8001704 <HAL_RCC_GetHCLKFreq+0x10>)
 80016fa:	681b      	ldr	r3, [r3, #0]
}
 80016fc:	0018      	movs	r0, r3
 80016fe:	46bd      	mov	sp, r7
 8001700:	bd80      	pop	{r7, pc}
 8001702:	46c0      	nop			; (mov r8, r8)
 8001704:	20000000 	.word	0x20000000

08001708 <HAL_RCC_GetPCLK1Freq>:
  * @note   Each time PCLK1 changes, this function must be called to update the
  *         right PCLK1 value. Otherwise, any configuration based on this function will be incorrect.
  * @retval PCLK1 frequency
  */
uint32_t HAL_RCC_GetPCLK1Freq(void)
{
 8001708:	b580      	push	{r7, lr}
 800170a:	af00      	add	r7, sp, #0
  /* Get HCLK source and Compute PCLK1 frequency ---------------------------*/
  return (HAL_RCC_GetHCLKFreq() >> APBPrescTable[(RCC->CFGR & RCC_CFGR_PPRE) >> RCC_CFGR_PPRE_BITNUMBER]);
 800170c:	f7ff fff2 	bl	80016f4 <HAL_RCC_GetHCLKFreq>
 8001710:	0001      	movs	r1, r0
 8001712:	4b06      	ldr	r3, [pc, #24]	; (800172c <HAL_RCC_GetPCLK1Freq+0x24>)
 8001714:	685b      	ldr	r3, [r3, #4]
 8001716:	0a1b      	lsrs	r3, r3, #8
 8001718:	2207      	movs	r2, #7
 800171a:	4013      	ands	r3, r2
 800171c:	4a04      	ldr	r2, [pc, #16]	; (8001730 <HAL_RCC_GetPCLK1Freq+0x28>)
 800171e:	5cd3      	ldrb	r3, [r2, r3]
 8001720:	40d9      	lsrs	r1, r3
 8001722:	000b      	movs	r3, r1
}    
 8001724:	0018      	movs	r0, r3
 8001726:	46bd      	mov	sp, r7
 8001728:	bd80      	pop	{r7, pc}
 800172a:	46c0      	nop			; (mov r8, r8)
 800172c:	40021000 	.word	0x40021000
 8001730:	080027d8 	.word	0x080027d8

08001734 <HAL_TIM_PWM_Init>:
  *         Ex: call @ref HAL_TIM_PWM_DeInit() before HAL_TIM_PWM_Init()
  * @param  htim TIM PWM handle
  * @retval HAL status
  */
HAL_StatusTypeDef HAL_TIM_PWM_Init(TIM_HandleTypeDef *htim)
{
 8001734:	b580      	push	{r7, lr}
 8001736:	b082      	sub	sp, #8
 8001738:	af00      	add	r7, sp, #0
 800173a:	6078      	str	r0, [r7, #4]
  /* Check the TIM handle allocation */
  if (htim == NULL)
 800173c:	687b      	ldr	r3, [r7, #4]
 800173e:	2b00      	cmp	r3, #0
 8001740:	d101      	bne.n	8001746 <HAL_TIM_PWM_Init+0x12>
  {
    return HAL_ERROR;
 8001742:	2301      	movs	r3, #1
 8001744:	e042      	b.n	80017cc <HAL_TIM_PWM_Init+0x98>
  assert_param(IS_TIM_INSTANCE(htim->Instance));
  assert_param(IS_TIM_COUNTER_MODE(htim->Init.CounterMode));
  assert_param(IS_TIM_CLOCKDIVISION_DIV(htim->Init.ClockDivision));
  assert_param(IS_TIM_AUTORELOAD_PRELOAD(htim->Init.AutoReloadPreload));

  if (htim->State == HAL_TIM_STATE_RESET)
 8001746:	687b      	ldr	r3, [r7, #4]
 8001748:	223d      	movs	r2, #61	; 0x3d
 800174a:	5c9b      	ldrb	r3, [r3, r2]
 800174c:	b2db      	uxtb	r3, r3
 800174e:	2b00      	cmp	r3, #0
 8001750:	d107      	bne.n	8001762 <HAL_TIM_PWM_Init+0x2e>
  {
    /* Allocate lock resource and initialize it */
    htim->Lock = HAL_UNLOCKED;
 8001752:	687b      	ldr	r3, [r7, #4]
 8001754:	223c      	movs	r2, #60	; 0x3c
 8001756:	2100      	movs	r1, #0
 8001758:	5499      	strb	r1, [r3, r2]
    }
    /* Init the low level hardware : GPIO, CLOCK, NVIC */
    htim->PWM_MspInitCallback(htim);
#else
    /* Init the low level hardware : GPIO, CLOCK, NVIC and DMA */
    HAL_TIM_PWM_MspInit(htim);
 800175a:	687b      	ldr	r3, [r7, #4]
 800175c:	0018      	movs	r0, r3
 800175e:	f7fe ff05 	bl	800056c <HAL_TIM_PWM_MspInit>
#endif /* USE_HAL_TIM_REGISTER_CALLBACKS */
  }

  /* Set the TIM state */
  htim->State = HAL_TIM_STATE_BUSY;
 8001762:	687b      	ldr	r3, [r7, #4]
 8001764:	223d      	movs	r2, #61	; 0x3d
 8001766:	2102      	movs	r1, #2
 8001768:	5499      	strb	r1, [r3, r2]

  /* Init the base time for the PWM */
  TIM_Base_SetConfig(htim->Instance, &htim->Init);
 800176a:	687b      	ldr	r3, [r7, #4]
 800176c:	681a      	ldr	r2, [r3, #0]
 800176e:	687b      	ldr	r3, [r7, #4]
 8001770:	3304      	adds	r3, #4
 8001772:	0019      	movs	r1, r3
 8001774:	0010      	movs	r0, r2
 8001776:	f000 f9ff 	bl	8001b78 <TIM_Base_SetConfig>

  /* Initialize the DMA burst operation state */
  htim->DMABurstState = HAL_DMA_BURST_STATE_READY;
 800177a:	687b      	ldr	r3, [r7, #4]
 800177c:	2246      	movs	r2, #70	; 0x46
 800177e:	2101      	movs	r1, #1
 8001780:	5499      	strb	r1, [r3, r2]

  /* Initialize the TIM channels state */
  TIM_CHANNEL_STATE_SET_ALL(htim, HAL_TIM_CHANNEL_STATE_READY);
 8001782:	687b      	ldr	r3, [r7, #4]
 8001784:	223e      	movs	r2, #62	; 0x3e
 8001786:	2101      	movs	r1, #1
 8001788:	5499      	strb	r1, [r3, r2]
 800178a:	687b      	ldr	r3, [r7, #4]
 800178c:	223f      	movs	r2, #63	; 0x3f
 800178e:	2101      	movs	r1, #1
 8001790:	5499      	strb	r1, [r3, r2]
 8001792:	687b      	ldr	r3, [r7, #4]
 8001794:	2240      	movs	r2, #64	; 0x40
 8001796:	2101      	movs	r1, #1
 8001798:	5499      	strb	r1, [r3, r2]
 800179a:	687b      	ldr	r3, [r7, #4]
 800179c:	2241      	movs	r2, #65	; 0x41
 800179e:	2101      	movs	r1, #1
 80017a0:	5499      	strb	r1, [r3, r2]
  TIM_CHANNEL_N_STATE_SET_ALL(htim, HAL_TIM_CHANNEL_STATE_READY);
 80017a2:	687b      	ldr	r3, [r7, #4]
 80017a4:	2242      	movs	r2, #66	; 0x42
 80017a6:	2101      	movs	r1, #1
 80017a8:	5499      	strb	r1, [r3, r2]
 80017aa:	687b      	ldr	r3, [r7, #4]
 80017ac:	2243      	movs	r2, #67	; 0x43
 80017ae:	2101      	movs	r1, #1
 80017b0:	5499      	strb	r1, [r3, r2]
 80017b2:	687b      	ldr	r3, [r7, #4]
 80017b4:	2244      	movs	r2, #68	; 0x44
 80017b6:	2101      	movs	r1, #1
 80017b8:	5499      	strb	r1, [r3, r2]
 80017ba:	687b      	ldr	r3, [r7, #4]
 80017bc:	2245      	movs	r2, #69	; 0x45
 80017be:	2101      	movs	r1, #1
 80017c0:	5499      	strb	r1, [r3, r2]

  /* Initialize the TIM state*/
  htim->State = HAL_TIM_STATE_READY;
 80017c2:	687b      	ldr	r3, [r7, #4]
 80017c4:	223d      	movs	r2, #61	; 0x3d
 80017c6:	2101      	movs	r1, #1
 80017c8:	5499      	strb	r1, [r3, r2]

  return HAL_OK;
 80017ca:	2300      	movs	r3, #0
}
 80017cc:	0018      	movs	r0, r3
 80017ce:	46bd      	mov	sp, r7
 80017d0:	b002      	add	sp, #8
 80017d2:	bd80      	pop	{r7, pc}

080017d4 <HAL_TIM_PWM_Start>:
  *            @arg TIM_CHANNEL_3: TIM Channel 3 selected
  *            @arg TIM_CHANNEL_4: TIM Channel 4 selected
  * @retval HAL status
  */
HAL_StatusTypeDef HAL_TIM_PWM_Start(TIM_HandleTypeDef *htim, uint32_t Channel)
{
 80017d4:	b580      	push	{r7, lr}
 80017d6:	b084      	sub	sp, #16
 80017d8:	af00      	add	r7, sp, #0
 80017da:	6078      	str	r0, [r7, #4]
 80017dc:	6039      	str	r1, [r7, #0]

  /* Check the parameters */
  assert_param(IS_TIM_CCX_INSTANCE(htim->Instance, Channel));

  /* Check the TIM channel state */
  if (TIM_CHANNEL_STATE_GET(htim, Channel) != HAL_TIM_CHANNEL_STATE_READY)
 80017de:	683b      	ldr	r3, [r7, #0]
 80017e0:	2b00      	cmp	r3, #0
 80017e2:	d108      	bne.n	80017f6 <HAL_TIM_PWM_Start+0x22>
 80017e4:	687b      	ldr	r3, [r7, #4]
 80017e6:	223e      	movs	r2, #62	; 0x3e
 80017e8:	5c9b      	ldrb	r3, [r3, r2]
 80017ea:	b2db      	uxtb	r3, r3
 80017ec:	3b01      	subs	r3, #1
 80017ee:	1e5a      	subs	r2, r3, #1
 80017f0:	4193      	sbcs	r3, r2
 80017f2:	b2db      	uxtb	r3, r3
 80017f4:	e01f      	b.n	8001836 <HAL_TIM_PWM_Start+0x62>
 80017f6:	683b      	ldr	r3, [r7, #0]
 80017f8:	2b04      	cmp	r3, #4
 80017fa:	d108      	bne.n	800180e <HAL_TIM_PWM_Start+0x3a>
 80017fc:	687b      	ldr	r3, [r7, #4]
 80017fe:	223f      	movs	r2, #63	; 0x3f
 8001800:	5c9b      	ldrb	r3, [r3, r2]
 8001802:	b2db      	uxtb	r3, r3
 8001804:	3b01      	subs	r3, #1
 8001806:	1e5a      	subs	r2, r3, #1
 8001808:	4193      	sbcs	r3, r2
 800180a:	b2db      	uxtb	r3, r3
 800180c:	e013      	b.n	8001836 <HAL_TIM_PWM_Start+0x62>
 800180e:	683b      	ldr	r3, [r7, #0]
 8001810:	2b08      	cmp	r3, #8
 8001812:	d108      	bne.n	8001826 <HAL_TIM_PWM_Start+0x52>
 8001814:	687b      	ldr	r3, [r7, #4]
 8001816:	2240      	movs	r2, #64	; 0x40
 8001818:	5c9b      	ldrb	r3, [r3, r2]
 800181a:	b2db      	uxtb	r3, r3
 800181c:	3b01      	subs	r3, #1
 800181e:	1e5a      	subs	r2, r3, #1
 8001820:	4193      	sbcs	r3, r2
 8001822:	b2db      	uxtb	r3, r3
 8001824:	e007      	b.n	8001836 <HAL_TIM_PWM_Start+0x62>
 8001826:	687b      	ldr	r3, [r7, #4]
 8001828:	2241      	movs	r2, #65	; 0x41
 800182a:	5c9b      	ldrb	r3, [r3, r2]
 800182c:	b2db      	uxtb	r3, r3
 800182e:	3b01      	subs	r3, #1
 8001830:	1e5a      	subs	r2, r3, #1
 8001832:	4193      	sbcs	r3, r2
 8001834:	b2db      	uxtb	r3, r3
 8001836:	2b00      	cmp	r3, #0
 8001838:	d001      	beq.n	800183e <HAL_TIM_PWM_Start+0x6a>
  {
    return HAL_ERROR;
 800183a:	2301      	movs	r3, #1
 800183c:	e06a      	b.n	8001914 <HAL_TIM_PWM_Start+0x140>
  }

  /* Set the TIM channel state */
  TIM_CHANNEL_STATE_SET(htim, Channel, HAL_TIM_CHANNEL_STATE_BUSY);
 800183e:	683b      	ldr	r3, [r7, #0]
 8001840:	2b00      	cmp	r3, #0
 8001842:	d104      	bne.n	800184e <HAL_TIM_PWM_Start+0x7a>
 8001844:	687b      	ldr	r3, [r7, #4]
 8001846:	223e      	movs	r2, #62	; 0x3e
 8001848:	2102      	movs	r1, #2
 800184a:	5499      	strb	r1, [r3, r2]
 800184c:	e013      	b.n	8001876 <HAL_TIM_PWM_Start+0xa2>
 800184e:	683b      	ldr	r3, [r7, #0]
 8001850:	2b04      	cmp	r3, #4
 8001852:	d104      	bne.n	800185e <HAL_TIM_PWM_Start+0x8a>
 8001854:	687b      	ldr	r3, [r7, #4]
 8001856:	223f      	movs	r2, #63	; 0x3f
 8001858:	2102      	movs	r1, #2
 800185a:	5499      	strb	r1, [r3, r2]
 800185c:	e00b      	b.n	8001876 <HAL_TIM_PWM_Start+0xa2>
 800185e:	683b      	ldr	r3, [r7, #0]
 8001860:	2b08      	cmp	r3, #8
 8001862:	d104      	bne.n	800186e <HAL_TIM_PWM_Start+0x9a>
 8001864:	687b      	ldr	r3, [r7, #4]
 8001866:	2240      	movs	r2, #64	; 0x40
 8001868:	2102      	movs	r1, #2
 800186a:	5499      	strb	r1, [r3, r2]
 800186c:	e003      	b.n	8001876 <HAL_TIM_PWM_Start+0xa2>
 800186e:	687b      	ldr	r3, [r7, #4]
 8001870:	2241      	movs	r2, #65	; 0x41
 8001872:	2102      	movs	r1, #2
 8001874:	5499      	strb	r1, [r3, r2]

  /* Enable the Capture compare channel */
  TIM_CCxChannelCmd(htim->Instance, Channel, TIM_CCx_ENABLE);
 8001876:	687b      	ldr	r3, [r7, #4]
 8001878:	681b      	ldr	r3, [r3, #0]
 800187a:	6839      	ldr	r1, [r7, #0]
 800187c:	2201      	movs	r2, #1
 800187e:	0018      	movs	r0, r3
 8001880:	f000 fbd0 	bl	8002024 <TIM_CCxChannelCmd>

  if (IS_TIM_BREAK_INSTANCE(htim->Instance) != RESET)
 8001884:	687b      	ldr	r3, [r7, #4]
 8001886:	681b      	ldr	r3, [r3, #0]
 8001888:	4a24      	ldr	r2, [pc, #144]	; (800191c <HAL_TIM_PWM_Start+0x148>)
 800188a:	4293      	cmp	r3, r2
 800188c:	d009      	beq.n	80018a2 <HAL_TIM_PWM_Start+0xce>
 800188e:	687b      	ldr	r3, [r7, #4]
 8001890:	681b      	ldr	r3, [r3, #0]
 8001892:	4a23      	ldr	r2, [pc, #140]	; (8001920 <HAL_TIM_PWM_Start+0x14c>)
 8001894:	4293      	cmp	r3, r2
 8001896:	d004      	beq.n	80018a2 <HAL_TIM_PWM_Start+0xce>
 8001898:	687b      	ldr	r3, [r7, #4]
 800189a:	681b      	ldr	r3, [r3, #0]
 800189c:	4a21      	ldr	r2, [pc, #132]	; (8001924 <HAL_TIM_PWM_Start+0x150>)
 800189e:	4293      	cmp	r3, r2
 80018a0:	d101      	bne.n	80018a6 <HAL_TIM_PWM_Start+0xd2>
 80018a2:	2301      	movs	r3, #1
 80018a4:	e000      	b.n	80018a8 <HAL_TIM_PWM_Start+0xd4>
 80018a6:	2300      	movs	r3, #0
 80018a8:	2b00      	cmp	r3, #0
 80018aa:	d008      	beq.n	80018be <HAL_TIM_PWM_Start+0xea>
  {
    /* Enable the main output */
    __HAL_TIM_MOE_ENABLE(htim);
 80018ac:	687b      	ldr	r3, [r7, #4]
 80018ae:	681b      	ldr	r3, [r3, #0]
 80018b0:	6c5a      	ldr	r2, [r3, #68]	; 0x44
 80018b2:	687b      	ldr	r3, [r7, #4]
 80018b4:	681b      	ldr	r3, [r3, #0]
 80018b6:	2180      	movs	r1, #128	; 0x80
 80018b8:	0209      	lsls	r1, r1, #8
 80018ba:	430a      	orrs	r2, r1
 80018bc:	645a      	str	r2, [r3, #68]	; 0x44
  }

  /* Enable the Peripheral, except in trigger mode where enable is automatically done with trigger */
  if (IS_TIM_SLAVE_INSTANCE(htim->Instance))
 80018be:	687b      	ldr	r3, [r7, #4]
 80018c0:	681b      	ldr	r3, [r3, #0]
 80018c2:	4a16      	ldr	r2, [pc, #88]	; (800191c <HAL_TIM_PWM_Start+0x148>)
 80018c4:	4293      	cmp	r3, r2
 80018c6:	d00a      	beq.n	80018de <HAL_TIM_PWM_Start+0x10a>
 80018c8:	687b      	ldr	r3, [r7, #4]
 80018ca:	681a      	ldr	r2, [r3, #0]
 80018cc:	2380      	movs	r3, #128	; 0x80
 80018ce:	05db      	lsls	r3, r3, #23
 80018d0:	429a      	cmp	r2, r3
 80018d2:	d004      	beq.n	80018de <HAL_TIM_PWM_Start+0x10a>
 80018d4:	687b      	ldr	r3, [r7, #4]
 80018d6:	681b      	ldr	r3, [r3, #0]
 80018d8:	4a13      	ldr	r2, [pc, #76]	; (8001928 <HAL_TIM_PWM_Start+0x154>)
 80018da:	4293      	cmp	r3, r2
 80018dc:	d111      	bne.n	8001902 <HAL_TIM_PWM_Start+0x12e>
  {
    tmpsmcr = htim->Instance->SMCR & TIM_SMCR_SMS;
 80018de:	687b      	ldr	r3, [r7, #4]
 80018e0:	681b      	ldr	r3, [r3, #0]
 80018e2:	689b      	ldr	r3, [r3, #8]
 80018e4:	2207      	movs	r2, #7
 80018e6:	4013      	ands	r3, r2
 80018e8:	60fb      	str	r3, [r7, #12]
    if (!IS_TIM_SLAVEMODE_TRIGGER_ENABLED(tmpsmcr))
 80018ea:	68fb      	ldr	r3, [r7, #12]
 80018ec:	2b06      	cmp	r3, #6
 80018ee:	d010      	beq.n	8001912 <HAL_TIM_PWM_Start+0x13e>
    {
      __HAL_TIM_ENABLE(htim);
 80018f0:	687b      	ldr	r3, [r7, #4]
 80018f2:	681b      	ldr	r3, [r3, #0]
 80018f4:	681a      	ldr	r2, [r3, #0]
 80018f6:	687b      	ldr	r3, [r7, #4]
 80018f8:	681b      	ldr	r3, [r3, #0]
 80018fa:	2101      	movs	r1, #1
 80018fc:	430a      	orrs	r2, r1
 80018fe:	601a      	str	r2, [r3, #0]
    if (!IS_TIM_SLAVEMODE_TRIGGER_ENABLED(tmpsmcr))
 8001900:	e007      	b.n	8001912 <HAL_TIM_PWM_Start+0x13e>
    }
  }
  else
  {
    __HAL_TIM_ENABLE(htim);
 8001902:	687b      	ldr	r3, [r7, #4]
 8001904:	681b      	ldr	r3, [r3, #0]
 8001906:	681a      	ldr	r2, [r3, #0]
 8001908:	687b      	ldr	r3, [r7, #4]
 800190a:	681b      	ldr	r3, [r3, #0]
 800190c:	2101      	movs	r1, #1
 800190e:	430a      	orrs	r2, r1
 8001910:	601a      	str	r2, [r3, #0]
  }

  /* Return function status */
  return HAL_OK;
 8001912:	2300      	movs	r3, #0
}
 8001914:	0018      	movs	r0, r3
 8001916:	46bd      	mov	sp, r7
 8001918:	b004      	add	sp, #16
 800191a:	bd80      	pop	{r7, pc}
 800191c:	40012c00 	.word	0x40012c00
 8001920:	40014400 	.word	0x40014400
 8001924:	40014800 	.word	0x40014800
 8001928:	40000400 	.word	0x40000400

0800192c <HAL_TIM_PWM_Stop>:
  *            @arg TIM_CHANNEL_3: TIM Channel 3 selected
  *            @arg TIM_CHANNEL_4: TIM Channel 4 selected
  * @retval HAL status
  */
HAL_StatusTypeDef HAL_TIM_PWM_Stop(TIM_HandleTypeDef *htim, uint32_t Channel)
{
 800192c:	b580      	push	{r7, lr}
 800192e:	b082      	sub	sp, #8
 8001930:	af00      	add	r7, sp, #0
 8001932:	6078      	str	r0, [r7, #4]
 8001934:	6039      	str	r1, [r7, #0]
  /* Check the parameters */
  assert_param(IS_TIM_CCX_INSTANCE(htim->Instance, Channel));

  /* Disable the Capture compare channel */
  TIM_CCxChannelCmd(htim->Instance, Channel, TIM_CCx_DISABLE);
 8001936:	687b      	ldr	r3, [r7, #4]
 8001938:	681b      	ldr	r3, [r3, #0]
 800193a:	6839      	ldr	r1, [r7, #0]
 800193c:	2200      	movs	r2, #0
 800193e:	0018      	movs	r0, r3
 8001940:	f000 fb70 	bl	8002024 <TIM_CCxChannelCmd>

  if (IS_TIM_BREAK_INSTANCE(htim->Instance) != RESET)
 8001944:	687b      	ldr	r3, [r7, #4]
 8001946:	681b      	ldr	r3, [r3, #0]
 8001948:	4a2d      	ldr	r2, [pc, #180]	; (8001a00 <HAL_TIM_PWM_Stop+0xd4>)
 800194a:	4293      	cmp	r3, r2
 800194c:	d009      	beq.n	8001962 <HAL_TIM_PWM_Stop+0x36>
 800194e:	687b      	ldr	r3, [r7, #4]
 8001950:	681b      	ldr	r3, [r3, #0]
 8001952:	4a2c      	ldr	r2, [pc, #176]	; (8001a04 <HAL_TIM_PWM_Stop+0xd8>)
 8001954:	4293      	cmp	r3, r2
 8001956:	d004      	beq.n	8001962 <HAL_TIM_PWM_Stop+0x36>
 8001958:	687b      	ldr	r3, [r7, #4]
 800195a:	681b      	ldr	r3, [r3, #0]
 800195c:	4a2a      	ldr	r2, [pc, #168]	; (8001a08 <HAL_TIM_PWM_Stop+0xdc>)
 800195e:	4293      	cmp	r3, r2
 8001960:	d101      	bne.n	8001966 <HAL_TIM_PWM_Stop+0x3a>
 8001962:	2301      	movs	r3, #1
 8001964:	e000      	b.n	8001968 <HAL_TIM_PWM_Stop+0x3c>
 8001966:	2300      	movs	r3, #0
 8001968:	2b00      	cmp	r3, #0
 800196a:	d013      	beq.n	8001994 <HAL_TIM_PWM_Stop+0x68>
  {
    /* Disable the Main Output */
    __HAL_TIM_MOE_DISABLE(htim);
 800196c:	687b      	ldr	r3, [r7, #4]
 800196e:	681b      	ldr	r3, [r3, #0]
 8001970:	6a1b      	ldr	r3, [r3, #32]
 8001972:	4a26      	ldr	r2, [pc, #152]	; (8001a0c <HAL_TIM_PWM_Stop+0xe0>)
 8001974:	4013      	ands	r3, r2
 8001976:	d10d      	bne.n	8001994 <HAL_TIM_PWM_Stop+0x68>
 8001978:	687b      	ldr	r3, [r7, #4]
 800197a:	681b      	ldr	r3, [r3, #0]
 800197c:	6a1b      	ldr	r3, [r3, #32]
 800197e:	4a24      	ldr	r2, [pc, #144]	; (8001a10 <HAL_TIM_PWM_Stop+0xe4>)
 8001980:	4013      	ands	r3, r2
 8001982:	d107      	bne.n	8001994 <HAL_TIM_PWM_Stop+0x68>
 8001984:	687b      	ldr	r3, [r7, #4]
 8001986:	681b      	ldr	r3, [r3, #0]
 8001988:	6c5a      	ldr	r2, [r3, #68]	; 0x44
 800198a:	687b      	ldr	r3, [r7, #4]
 800198c:	681b      	ldr	r3, [r3, #0]
 800198e:	4921      	ldr	r1, [pc, #132]	; (8001a14 <HAL_TIM_PWM_Stop+0xe8>)
 8001990:	400a      	ands	r2, r1
 8001992:	645a      	str	r2, [r3, #68]	; 0x44
  }

  /* Disable the Peripheral */
  __HAL_TIM_DISABLE(htim);
 8001994:	687b      	ldr	r3, [r7, #4]
 8001996:	681b      	ldr	r3, [r3, #0]
 8001998:	6a1b      	ldr	r3, [r3, #32]
 800199a:	4a1c      	ldr	r2, [pc, #112]	; (8001a0c <HAL_TIM_PWM_Stop+0xe0>)
 800199c:	4013      	ands	r3, r2
 800199e:	d10d      	bne.n	80019bc <HAL_TIM_PWM_Stop+0x90>
 80019a0:	687b      	ldr	r3, [r7, #4]
 80019a2:	681b      	ldr	r3, [r3, #0]
 80019a4:	6a1b      	ldr	r3, [r3, #32]
 80019a6:	4a1a      	ldr	r2, [pc, #104]	; (8001a10 <HAL_TIM_PWM_Stop+0xe4>)
 80019a8:	4013      	ands	r3, r2
 80019aa:	d107      	bne.n	80019bc <HAL_TIM_PWM_Stop+0x90>
 80019ac:	687b      	ldr	r3, [r7, #4]
 80019ae:	681b      	ldr	r3, [r3, #0]
 80019b0:	681a      	ldr	r2, [r3, #0]
 80019b2:	687b      	ldr	r3, [r7, #4]
 80019b4:	681b      	ldr	r3, [r3, #0]
 80019b6:	2101      	movs	r1, #1
 80019b8:	438a      	bics	r2, r1
 80019ba:	601a      	str	r2, [r3, #0]

  /* Set the TIM channel state */
  TIM_CHANNEL_STATE_SET(htim, Channel, HAL_TIM_CHANNEL_STATE_READY);
 80019bc:	683b      	ldr	r3, [r7, #0]
 80019be:	2b00      	cmp	r3, #0
 80019c0:	d104      	bne.n	80019cc <HAL_TIM_PWM_Stop+0xa0>
 80019c2:	687b      	ldr	r3, [r7, #4]
 80019c4:	223e      	movs	r2, #62	; 0x3e
 80019c6:	2101      	movs	r1, #1
 80019c8:	5499      	strb	r1, [r3, r2]
 80019ca:	e013      	b.n	80019f4 <HAL_TIM_PWM_Stop+0xc8>
 80019cc:	683b      	ldr	r3, [r7, #0]
 80019ce:	2b04      	cmp	r3, #4
 80019d0:	d104      	bne.n	80019dc <HAL_TIM_PWM_Stop+0xb0>
 80019d2:	687b      	ldr	r3, [r7, #4]
 80019d4:	223f      	movs	r2, #63	; 0x3f
 80019d6:	2101      	movs	r1, #1
 80019d8:	5499      	strb	r1, [r3, r2]
 80019da:	e00b      	b.n	80019f4 <HAL_TIM_PWM_Stop+0xc8>
 80019dc:	683b      	ldr	r3, [r7, #0]
 80019de:	2b08      	cmp	r3, #8
 80019e0:	d104      	bne.n	80019ec <HAL_TIM_PWM_Stop+0xc0>
 80019e2:	687b      	ldr	r3, [r7, #4]
 80019e4:	2240      	movs	r2, #64	; 0x40
 80019e6:	2101      	movs	r1, #1
 80019e8:	5499      	strb	r1, [r3, r2]
 80019ea:	e003      	b.n	80019f4 <HAL_TIM_PWM_Stop+0xc8>
 80019ec:	687b      	ldr	r3, [r7, #4]
 80019ee:	2241      	movs	r2, #65	; 0x41
 80019f0:	2101      	movs	r1, #1
 80019f2:	5499      	strb	r1, [r3, r2]

  /* Return function status */
  return HAL_OK;
 80019f4:	2300      	movs	r3, #0
}
 80019f6:	0018      	movs	r0, r3
 80019f8:	46bd      	mov	sp, r7
 80019fa:	b002      	add	sp, #8
 80019fc:	bd80      	pop	{r7, pc}
 80019fe:	46c0      	nop			; (mov r8, r8)
 8001a00:	40012c00 	.word	0x40012c00
 8001a04:	40014400 	.word	0x40014400
 8001a08:	40014800 	.word	0x40014800
 8001a0c:	00001111 	.word	0x00001111
 8001a10:	00000444 	.word	0x00000444
 8001a14:	ffff7fff 	.word	0xffff7fff

08001a18 <HAL_TIM_PWM_ConfigChannel>:
  * @retval HAL status
  */
HAL_StatusTypeDef HAL_TIM_PWM_ConfigChannel(TIM_HandleTypeDef *htim,
                                            TIM_OC_InitTypeDef *sConfig,
                                            uint32_t Channel)
{
 8001a18:	b580      	push	{r7, lr}
 8001a1a:	b084      	sub	sp, #16
 8001a1c:	af00      	add	r7, sp, #0
 8001a1e:	60f8      	str	r0, [r7, #12]
 8001a20:	60b9      	str	r1, [r7, #8]
 8001a22:	607a      	str	r2, [r7, #4]
  assert_param(IS_TIM_PWM_MODE(sConfig->OCMode));
  assert_param(IS_TIM_OC_POLARITY(sConfig->OCPolarity));
  assert_param(IS_TIM_FAST_STATE(sConfig->OCFastMode));

  /* Process Locked */
  __HAL_LOCK(htim);
 8001a24:	68fb      	ldr	r3, [r7, #12]
 8001a26:	223c      	movs	r2, #60	; 0x3c
 8001a28:	5c9b      	ldrb	r3, [r3, r2]
 8001a2a:	2b01      	cmp	r3, #1
 8001a2c:	d101      	bne.n	8001a32 <HAL_TIM_PWM_ConfigChannel+0x1a>
 8001a2e:	2302      	movs	r3, #2
 8001a30:	e09c      	b.n	8001b6c <HAL_TIM_PWM_ConfigChannel+0x154>
 8001a32:	68fb      	ldr	r3, [r7, #12]
 8001a34:	223c      	movs	r2, #60	; 0x3c
 8001a36:	2101      	movs	r1, #1
 8001a38:	5499      	strb	r1, [r3, r2]

  switch (Channel)
 8001a3a:	687b      	ldr	r3, [r7, #4]
 8001a3c:	2b04      	cmp	r3, #4
 8001a3e:	d029      	beq.n	8001a94 <HAL_TIM_PWM_ConfigChannel+0x7c>
 8001a40:	d802      	bhi.n	8001a48 <HAL_TIM_PWM_ConfigChannel+0x30>
 8001a42:	2b00      	cmp	r3, #0
 8001a44:	d005      	beq.n	8001a52 <HAL_TIM_PWM_ConfigChannel+0x3a>
      htim->Instance->CCMR2 |= sConfig->OCFastMode << 8U;
      break;
    }

    default:
      break;
 8001a46:	e08c      	b.n	8001b62 <HAL_TIM_PWM_ConfigChannel+0x14a>
  switch (Channel)
 8001a48:	2b08      	cmp	r3, #8
 8001a4a:	d046      	beq.n	8001ada <HAL_TIM_PWM_ConfigChannel+0xc2>
 8001a4c:	2b0c      	cmp	r3, #12
 8001a4e:	d065      	beq.n	8001b1c <HAL_TIM_PWM_ConfigChannel+0x104>
      break;
 8001a50:	e087      	b.n	8001b62 <HAL_TIM_PWM_ConfigChannel+0x14a>
      TIM_OC1_SetConfig(htim->Instance, sConfig);
 8001a52:	68fb      	ldr	r3, [r7, #12]
 8001a54:	681b      	ldr	r3, [r3, #0]
 8001a56:	68ba      	ldr	r2, [r7, #8]
 8001a58:	0011      	movs	r1, r2
 8001a5a:	0018      	movs	r0, r3
 8001a5c:	f000 f902 	bl	8001c64 <TIM_OC1_SetConfig>
      htim->Instance->CCMR1 |= TIM_CCMR1_OC1PE;
 8001a60:	68fb      	ldr	r3, [r7, #12]
 8001a62:	681b      	ldr	r3, [r3, #0]
 8001a64:	699a      	ldr	r2, [r3, #24]
 8001a66:	68fb      	ldr	r3, [r7, #12]
 8001a68:	681b      	ldr	r3, [r3, #0]
 8001a6a:	2108      	movs	r1, #8
 8001a6c:	430a      	orrs	r2, r1
 8001a6e:	619a      	str	r2, [r3, #24]
      htim->Instance->CCMR1 &= ~TIM_CCMR1_OC1FE;
 8001a70:	68fb      	ldr	r3, [r7, #12]
 8001a72:	681b      	ldr	r3, [r3, #0]
 8001a74:	699a      	ldr	r2, [r3, #24]
 8001a76:	68fb      	ldr	r3, [r7, #12]
 8001a78:	681b      	ldr	r3, [r3, #0]
 8001a7a:	2104      	movs	r1, #4
 8001a7c:	438a      	bics	r2, r1
 8001a7e:	619a      	str	r2, [r3, #24]
      htim->Instance->CCMR1 |= sConfig->OCFastMode;
 8001a80:	68fb      	ldr	r3, [r7, #12]
 8001a82:	681b      	ldr	r3, [r3, #0]
 8001a84:	6999      	ldr	r1, [r3, #24]
 8001a86:	68bb      	ldr	r3, [r7, #8]
 8001a88:	691a      	ldr	r2, [r3, #16]
 8001a8a:	68fb      	ldr	r3, [r7, #12]
 8001a8c:	681b      	ldr	r3, [r3, #0]
 8001a8e:	430a      	orrs	r2, r1
 8001a90:	619a      	str	r2, [r3, #24]
      break;
 8001a92:	e066      	b.n	8001b62 <HAL_TIM_PWM_ConfigChannel+0x14a>
      TIM_OC2_SetConfig(htim->Instance, sConfig);
 8001a94:	68fb      	ldr	r3, [r7, #12]
 8001a96:	681b      	ldr	r3, [r3, #0]
 8001a98:	68ba      	ldr	r2, [r7, #8]
 8001a9a:	0011      	movs	r1, r2
 8001a9c:	0018      	movs	r0, r3
 8001a9e:	f000 f95f 	bl	8001d60 <TIM_OC2_SetConfig>
      htim->Instance->CCMR1 |= TIM_CCMR1_OC2PE;
 8001aa2:	68fb      	ldr	r3, [r7, #12]
 8001aa4:	681b      	ldr	r3, [r3, #0]
 8001aa6:	699a      	ldr	r2, [r3, #24]
 8001aa8:	68fb      	ldr	r3, [r7, #12]
 8001aaa:	681b      	ldr	r3, [r3, #0]
 8001aac:	2180      	movs	r1, #128	; 0x80
 8001aae:	0109      	lsls	r1, r1, #4
 8001ab0:	430a      	orrs	r2, r1
 8001ab2:	619a      	str	r2, [r3, #24]
      htim->Instance->CCMR1 &= ~TIM_CCMR1_OC2FE;
 8001ab4:	68fb      	ldr	r3, [r7, #12]
 8001ab6:	681b      	ldr	r3, [r3, #0]
 8001ab8:	699a      	ldr	r2, [r3, #24]
 8001aba:	68fb      	ldr	r3, [r7, #12]
 8001abc:	681b      	ldr	r3, [r3, #0]
 8001abe:	492d      	ldr	r1, [pc, #180]	; (8001b74 <HAL_TIM_PWM_ConfigChannel+0x15c>)
 8001ac0:	400a      	ands	r2, r1
 8001ac2:	619a      	str	r2, [r3, #24]
      htim->Instance->CCMR1 |= sConfig->OCFastMode << 8U;
 8001ac4:	68fb      	ldr	r3, [r7, #12]
 8001ac6:	681b      	ldr	r3, [r3, #0]
 8001ac8:	6999      	ldr	r1, [r3, #24]
 8001aca:	68bb      	ldr	r3, [r7, #8]
 8001acc:	691b      	ldr	r3, [r3, #16]
 8001ace:	021a      	lsls	r2, r3, #8
 8001ad0:	68fb      	ldr	r3, [r7, #12]
 8001ad2:	681b      	ldr	r3, [r3, #0]
 8001ad4:	430a      	orrs	r2, r1
 8001ad6:	619a      	str	r2, [r3, #24]
      break;
 8001ad8:	e043      	b.n	8001b62 <HAL_TIM_PWM_ConfigChannel+0x14a>
      TIM_OC3_SetConfig(htim->Instance, sConfig);
 8001ada:	68fb      	ldr	r3, [r7, #12]
 8001adc:	681b      	ldr	r3, [r3, #0]
 8001ade:	68ba      	ldr	r2, [r7, #8]
 8001ae0:	0011      	movs	r1, r2
 8001ae2:	0018      	movs	r0, r3
 8001ae4:	f000 f9ba 	bl	8001e5c <TIM_OC3_SetConfig>
      htim->Instance->CCMR2 |= TIM_CCMR2_OC3PE;
 8001ae8:	68fb      	ldr	r3, [r7, #12]
 8001aea:	681b      	ldr	r3, [r3, #0]
 8001aec:	69da      	ldr	r2, [r3, #28]
 8001aee:	68fb      	ldr	r3, [r7, #12]
 8001af0:	681b      	ldr	r3, [r3, #0]
 8001af2:	2108      	movs	r1, #8
 8001af4:	430a      	orrs	r2, r1
 8001af6:	61da      	str	r2, [r3, #28]
      htim->Instance->CCMR2 &= ~TIM_CCMR2_OC3FE;
 8001af8:	68fb      	ldr	r3, [r7, #12]
 8001afa:	681b      	ldr	r3, [r3, #0]
 8001afc:	69da      	ldr	r2, [r3, #28]
 8001afe:	68fb      	ldr	r3, [r7, #12]
 8001b00:	681b      	ldr	r3, [r3, #0]
 8001b02:	2104      	movs	r1, #4
 8001b04:	438a      	bics	r2, r1
 8001b06:	61da      	str	r2, [r3, #28]
      htim->Instance->CCMR2 |= sConfig->OCFastMode;
 8001b08:	68fb      	ldr	r3, [r7, #12]
 8001b0a:	681b      	ldr	r3, [r3, #0]
 8001b0c:	69d9      	ldr	r1, [r3, #28]
 8001b0e:	68bb      	ldr	r3, [r7, #8]
 8001b10:	691a      	ldr	r2, [r3, #16]
 8001b12:	68fb      	ldr	r3, [r7, #12]
 8001b14:	681b      	ldr	r3, [r3, #0]
 8001b16:	430a      	orrs	r2, r1
 8001b18:	61da      	str	r2, [r3, #28]
      break;
 8001b1a:	e022      	b.n	8001b62 <HAL_TIM_PWM_ConfigChannel+0x14a>
      TIM_OC4_SetConfig(htim->Instance, sConfig);
 8001b1c:	68fb      	ldr	r3, [r7, #12]
 8001b1e:	681b      	ldr	r3, [r3, #0]
 8001b20:	68ba      	ldr	r2, [r7, #8]
 8001b22:	0011      	movs	r1, r2
 8001b24:	0018      	movs	r0, r3
 8001b26:	f000 fa19 	bl	8001f5c <TIM_OC4_SetConfig>
      htim->Instance->CCMR2 |= TIM_CCMR2_OC4PE;
 8001b2a:	68fb      	ldr	r3, [r7, #12]
 8001b2c:	681b      	ldr	r3, [r3, #0]
 8001b2e:	69da      	ldr	r2, [r3, #28]
 8001b30:	68fb      	ldr	r3, [r7, #12]
 8001b32:	681b      	ldr	r3, [r3, #0]
 8001b34:	2180      	movs	r1, #128	; 0x80
 8001b36:	0109      	lsls	r1, r1, #4
 8001b38:	430a      	orrs	r2, r1
 8001b3a:	61da      	str	r2, [r3, #28]
      htim->Instance->CCMR2 &= ~TIM_CCMR2_OC4FE;
 8001b3c:	68fb      	ldr	r3, [r7, #12]
 8001b3e:	681b      	ldr	r3, [r3, #0]
 8001b40:	69da      	ldr	r2, [r3, #28]
 8001b42:	68fb      	ldr	r3, [r7, #12]
 8001b44:	681b      	ldr	r3, [r3, #0]
 8001b46:	490b      	ldr	r1, [pc, #44]	; (8001b74 <HAL_TIM_PWM_ConfigChannel+0x15c>)
 8001b48:	400a      	ands	r2, r1
 8001b4a:	61da      	str	r2, [r3, #28]
      htim->Instance->CCMR2 |= sConfig->OCFastMode << 8U;
 8001b4c:	68fb      	ldr	r3, [r7, #12]
 8001b4e:	681b      	ldr	r3, [r3, #0]
 8001b50:	69d9      	ldr	r1, [r3, #28]
 8001b52:	68bb      	ldr	r3, [r7, #8]
 8001b54:	691b      	ldr	r3, [r3, #16]
 8001b56:	021a      	lsls	r2, r3, #8
 8001b58:	68fb      	ldr	r3, [r7, #12]
 8001b5a:	681b      	ldr	r3, [r3, #0]
 8001b5c:	430a      	orrs	r2, r1
 8001b5e:	61da      	str	r2, [r3, #28]
      break;
 8001b60:	46c0      	nop			; (mov r8, r8)
  }

  __HAL_UNLOCK(htim);
 8001b62:	68fb      	ldr	r3, [r7, #12]
 8001b64:	223c      	movs	r2, #60	; 0x3c
 8001b66:	2100      	movs	r1, #0
 8001b68:	5499      	strb	r1, [r3, r2]

  return HAL_OK;
 8001b6a:	2300      	movs	r3, #0
}
 8001b6c:	0018      	movs	r0, r3
 8001b6e:	46bd      	mov	sp, r7
 8001b70:	b004      	add	sp, #16
 8001b72:	bd80      	pop	{r7, pc}
 8001b74:	fffffbff 	.word	0xfffffbff

08001b78 <TIM_Base_SetConfig>:
  * @param  TIMx TIM peripheral
  * @param  Structure TIM Base configuration structure
  * @retval None
  */
void TIM_Base_SetConfig(TIM_TypeDef *TIMx, TIM_Base_InitTypeDef *Structure)
{
 8001b78:	b580      	push	{r7, lr}
 8001b7a:	b084      	sub	sp, #16
 8001b7c:	af00      	add	r7, sp, #0
 8001b7e:	6078      	str	r0, [r7, #4]
 8001b80:	6039      	str	r1, [r7, #0]
  uint32_t tmpcr1;
  tmpcr1 = TIMx->CR1;
 8001b82:	687b      	ldr	r3, [r7, #4]
 8001b84:	681b      	ldr	r3, [r3, #0]
 8001b86:	60fb      	str	r3, [r7, #12]

  /* Set TIM Time Base Unit parameters ---------------------------------------*/
  if (IS_TIM_COUNTER_MODE_SELECT_INSTANCE(TIMx))
 8001b88:	687b      	ldr	r3, [r7, #4]
 8001b8a:	4a30      	ldr	r2, [pc, #192]	; (8001c4c <TIM_Base_SetConfig+0xd4>)
 8001b8c:	4293      	cmp	r3, r2
 8001b8e:	d008      	beq.n	8001ba2 <TIM_Base_SetConfig+0x2a>
 8001b90:	687a      	ldr	r2, [r7, #4]
 8001b92:	2380      	movs	r3, #128	; 0x80
 8001b94:	05db      	lsls	r3, r3, #23
 8001b96:	429a      	cmp	r2, r3
 8001b98:	d003      	beq.n	8001ba2 <TIM_Base_SetConfig+0x2a>
 8001b9a:	687b      	ldr	r3, [r7, #4]
 8001b9c:	4a2c      	ldr	r2, [pc, #176]	; (8001c50 <TIM_Base_SetConfig+0xd8>)
 8001b9e:	4293      	cmp	r3, r2
 8001ba0:	d108      	bne.n	8001bb4 <TIM_Base_SetConfig+0x3c>
  {
    /* Select the Counter Mode */
    tmpcr1 &= ~(TIM_CR1_DIR | TIM_CR1_CMS);
 8001ba2:	68fb      	ldr	r3, [r7, #12]
 8001ba4:	2270      	movs	r2, #112	; 0x70
 8001ba6:	4393      	bics	r3, r2
 8001ba8:	60fb      	str	r3, [r7, #12]
    tmpcr1 |= Structure->CounterMode;
 8001baa:	683b      	ldr	r3, [r7, #0]
 8001bac:	685b      	ldr	r3, [r3, #4]
 8001bae:	68fa      	ldr	r2, [r7, #12]
 8001bb0:	4313      	orrs	r3, r2
 8001bb2:	60fb      	str	r3, [r7, #12]
  }

  if (IS_TIM_CLOCK_DIVISION_INSTANCE(TIMx))
 8001bb4:	687b      	ldr	r3, [r7, #4]
 8001bb6:	4a25      	ldr	r2, [pc, #148]	; (8001c4c <TIM_Base_SetConfig+0xd4>)
 8001bb8:	4293      	cmp	r3, r2
 8001bba:	d014      	beq.n	8001be6 <TIM_Base_SetConfig+0x6e>
 8001bbc:	687a      	ldr	r2, [r7, #4]
 8001bbe:	2380      	movs	r3, #128	; 0x80
 8001bc0:	05db      	lsls	r3, r3, #23
 8001bc2:	429a      	cmp	r2, r3
 8001bc4:	d00f      	beq.n	8001be6 <TIM_Base_SetConfig+0x6e>
 8001bc6:	687b      	ldr	r3, [r7, #4]
 8001bc8:	4a21      	ldr	r2, [pc, #132]	; (8001c50 <TIM_Base_SetConfig+0xd8>)
 8001bca:	4293      	cmp	r3, r2
 8001bcc:	d00b      	beq.n	8001be6 <TIM_Base_SetConfig+0x6e>
 8001bce:	687b      	ldr	r3, [r7, #4]
 8001bd0:	4a20      	ldr	r2, [pc, #128]	; (8001c54 <TIM_Base_SetConfig+0xdc>)
 8001bd2:	4293      	cmp	r3, r2
 8001bd4:	d007      	beq.n	8001be6 <TIM_Base_SetConfig+0x6e>
 8001bd6:	687b      	ldr	r3, [r7, #4]
 8001bd8:	4a1f      	ldr	r2, [pc, #124]	; (8001c58 <TIM_Base_SetConfig+0xe0>)
 8001bda:	4293      	cmp	r3, r2
 8001bdc:	d003      	beq.n	8001be6 <TIM_Base_SetConfig+0x6e>
 8001bde:	687b      	ldr	r3, [r7, #4]
 8001be0:	4a1e      	ldr	r2, [pc, #120]	; (8001c5c <TIM_Base_SetConfig+0xe4>)
 8001be2:	4293      	cmp	r3, r2
 8001be4:	d108      	bne.n	8001bf8 <TIM_Base_SetConfig+0x80>
  {
    /* Set the clock division */
    tmpcr1 &= ~TIM_CR1_CKD;
 8001be6:	68fb      	ldr	r3, [r7, #12]
 8001be8:	4a1d      	ldr	r2, [pc, #116]	; (8001c60 <TIM_Base_SetConfig+0xe8>)
 8001bea:	4013      	ands	r3, r2
 8001bec:	60fb      	str	r3, [r7, #12]
    tmpcr1 |= (uint32_t)Structure->ClockDivision;
 8001bee:	683b      	ldr	r3, [r7, #0]
 8001bf0:	68db      	ldr	r3, [r3, #12]
 8001bf2:	68fa      	ldr	r2, [r7, #12]
 8001bf4:	4313      	orrs	r3, r2
 8001bf6:	60fb      	str	r3, [r7, #12]
  }

  /* Set the auto-reload preload */
  MODIFY_REG(tmpcr1, TIM_CR1_ARPE, Structure->AutoReloadPreload);
 8001bf8:	68fb      	ldr	r3, [r7, #12]
 8001bfa:	2280      	movs	r2, #128	; 0x80
 8001bfc:	4393      	bics	r3, r2
 8001bfe:	001a      	movs	r2, r3
 8001c00:	683b      	ldr	r3, [r7, #0]
 8001c02:	695b      	ldr	r3, [r3, #20]
 8001c04:	4313      	orrs	r3, r2
 8001c06:	60fb      	str	r3, [r7, #12]

  TIMx->CR1 = tmpcr1;
 8001c08:	687b      	ldr	r3, [r7, #4]
 8001c0a:	68fa      	ldr	r2, [r7, #12]
 8001c0c:	601a      	str	r2, [r3, #0]

  /* Set the Autoreload value */
  TIMx->ARR = (uint32_t)Structure->Period ;
 8001c0e:	683b      	ldr	r3, [r7, #0]
 8001c10:	689a      	ldr	r2, [r3, #8]
 8001c12:	687b      	ldr	r3, [r7, #4]
 8001c14:	62da      	str	r2, [r3, #44]	; 0x2c

  /* Set the Prescaler value */
  TIMx->PSC = Structure->Prescaler;
 8001c16:	683b      	ldr	r3, [r7, #0]
 8001c18:	681a      	ldr	r2, [r3, #0]
 8001c1a:	687b      	ldr	r3, [r7, #4]
 8001c1c:	629a      	str	r2, [r3, #40]	; 0x28

  if (IS_TIM_REPETITION_COUNTER_INSTANCE(TIMx))
 8001c1e:	687b      	ldr	r3, [r7, #4]
 8001c20:	4a0a      	ldr	r2, [pc, #40]	; (8001c4c <TIM_Base_SetConfig+0xd4>)
 8001c22:	4293      	cmp	r3, r2
 8001c24:	d007      	beq.n	8001c36 <TIM_Base_SetConfig+0xbe>
 8001c26:	687b      	ldr	r3, [r7, #4]
 8001c28:	4a0b      	ldr	r2, [pc, #44]	; (8001c58 <TIM_Base_SetConfig+0xe0>)
 8001c2a:	4293      	cmp	r3, r2
 8001c2c:	d003      	beq.n	8001c36 <TIM_Base_SetConfig+0xbe>
 8001c2e:	687b      	ldr	r3, [r7, #4]
 8001c30:	4a0a      	ldr	r2, [pc, #40]	; (8001c5c <TIM_Base_SetConfig+0xe4>)
 8001c32:	4293      	cmp	r3, r2
 8001c34:	d103      	bne.n	8001c3e <TIM_Base_SetConfig+0xc6>
  {
    /* Set the Repetition Counter value */
    TIMx->RCR = Structure->RepetitionCounter;
 8001c36:	683b      	ldr	r3, [r7, #0]
 8001c38:	691a      	ldr	r2, [r3, #16]
 8001c3a:	687b      	ldr	r3, [r7, #4]
 8001c3c:	631a      	str	r2, [r3, #48]	; 0x30
  }

  /* Generate an update event to reload the Prescaler
     and the repetition counter (only for advanced timer) value immediately */
  TIMx->EGR = TIM_EGR_UG;
 8001c3e:	687b      	ldr	r3, [r7, #4]
 8001c40:	2201      	movs	r2, #1
 8001c42:	615a      	str	r2, [r3, #20]
}
 8001c44:	46c0      	nop			; (mov r8, r8)
 8001c46:	46bd      	mov	sp, r7
 8001c48:	b004      	add	sp, #16
 8001c4a:	bd80      	pop	{r7, pc}
 8001c4c:	40012c00 	.word	0x40012c00
 8001c50:	40000400 	.word	0x40000400
 8001c54:	40002000 	.word	0x40002000
 8001c58:	40014400 	.word	0x40014400
 8001c5c:	40014800 	.word	0x40014800
 8001c60:	fffffcff 	.word	0xfffffcff

08001c64 <TIM_OC1_SetConfig>:
  * @param  TIMx to select the TIM peripheral
  * @param  OC_Config The output configuration structure
  * @retval None
  */
static void TIM_OC1_SetConfig(TIM_TypeDef *TIMx, TIM_OC_InitTypeDef *OC_Config)
{
 8001c64:	b580      	push	{r7, lr}
 8001c66:	b086      	sub	sp, #24
 8001c68:	af00      	add	r7, sp, #0
 8001c6a:	6078      	str	r0, [r7, #4]
 8001c6c:	6039      	str	r1, [r7, #0]
  uint32_t tmpccmrx;
  uint32_t tmpccer;
  uint32_t tmpcr2;

  /* Disable the Channel 1: Reset the CC1E Bit */
  TIMx->CCER &= ~TIM_CCER_CC1E;
 8001c6e:	687b      	ldr	r3, [r7, #4]
 8001c70:	6a1b      	ldr	r3, [r3, #32]
 8001c72:	2201      	movs	r2, #1
 8001c74:	4393      	bics	r3, r2
 8001c76:	001a      	movs	r2, r3
 8001c78:	687b      	ldr	r3, [r7, #4]
 8001c7a:	621a      	str	r2, [r3, #32]

  /* Get the TIMx CCER register value */
  tmpccer = TIMx->CCER;
 8001c7c:	687b      	ldr	r3, [r7, #4]
 8001c7e:	6a1b      	ldr	r3, [r3, #32]
 8001c80:	617b      	str	r3, [r7, #20]
  /* Get the TIMx CR2 register value */
  tmpcr2 =  TIMx->CR2;
 8001c82:	687b      	ldr	r3, [r7, #4]
 8001c84:	685b      	ldr	r3, [r3, #4]
 8001c86:	613b      	str	r3, [r7, #16]

  /* Get the TIMx CCMR1 register value */
  tmpccmrx = TIMx->CCMR1;
 8001c88:	687b      	ldr	r3, [r7, #4]
 8001c8a:	699b      	ldr	r3, [r3, #24]
 8001c8c:	60fb      	str	r3, [r7, #12]

  /* Reset the Output Compare Mode Bits */
  tmpccmrx &= ~TIM_CCMR1_OC1M;
 8001c8e:	68fb      	ldr	r3, [r7, #12]
 8001c90:	2270      	movs	r2, #112	; 0x70
 8001c92:	4393      	bics	r3, r2
 8001c94:	60fb      	str	r3, [r7, #12]
  tmpccmrx &= ~TIM_CCMR1_CC1S;
 8001c96:	68fb      	ldr	r3, [r7, #12]
 8001c98:	2203      	movs	r2, #3
 8001c9a:	4393      	bics	r3, r2
 8001c9c:	60fb      	str	r3, [r7, #12]
  /* Select the Output Compare Mode */
  tmpccmrx |= OC_Config->OCMode;
 8001c9e:	683b      	ldr	r3, [r7, #0]
 8001ca0:	681b      	ldr	r3, [r3, #0]
 8001ca2:	68fa      	ldr	r2, [r7, #12]
 8001ca4:	4313      	orrs	r3, r2
 8001ca6:	60fb      	str	r3, [r7, #12]

  /* Reset the Output Polarity level */
  tmpccer &= ~TIM_CCER_CC1P;
